{
	"contracts/GlobalSolidityVariables.sol": {
		"GlobalVariables": {
			"abi": [
				{
					"inputs": [],
					"stateMutability": "nonpayable",
					"type": "constructor"
				},
				{
					"inputs": [],
					"name": "blockNumber",
					"outputs": [
						{
							"internalType": "uint256",
							"name": "",
							"type": "uint256"
						}
					],
					"stateMutability": "view",
					"type": "function"
				},
				{
					"inputs": [],
					"name": "changeOwner",
					"outputs": [],
					"stateMutability": "nonpayable",
					"type": "function"
				},
				{
					"inputs": [],
					"name": "diffculty",
					"outputs": [
						{
							"internalType": "uint256",
							"name": "",
							"type": "uint256"
						}
					],
					"stateMutability": "view",
					"type": "function"
				},
				{
					"inputs": [],
					"name": "getBalance",
					"outputs": [
						{
							"internalType": "uint256",
							"name": "",
							"type": "uint256"
						}
					],
					"stateMutability": "view",
					"type": "function"
				},
				{
					"inputs": [],
					"name": "howMuchGas",
					"outputs": [
						{
							"internalType": "uint256",
							"name": "",
							"type": "uint256"
						}
					],
					"stateMutability": "view",
					"type": "function"
				},
				{
					"inputs": [],
					"name": "owner",
					"outputs": [
						{
							"internalType": "address",
							"name": "",
							"type": "address"
						}
					],
					"stateMutability": "view",
					"type": "function"
				},
				{
					"inputs": [],
					"name": "sendEther",
					"outputs": [],
					"stateMutability": "payable",
					"type": "function"
				},
				{
					"inputs": [],
					"name": "sentValue",
					"outputs": [
						{
							"internalType": "uint256",
							"name": "",
							"type": "uint256"
						}
					],
					"stateMutability": "view",
					"type": "function"
				},
				{
					"inputs": [],
					"name": "timeNow",
					"outputs": [
						{
							"internalType": "uint256",
							"name": "",
							"type": "uint256"
						}
					],
					"stateMutability": "view",
					"type": "function"
				}
			],
			"devdoc": {
				"kind": "dev",
				"methods": {},
				"version": 1
			},
			"evm": {
				"assembly": "    /* \"contracts/GlobalSolidityVariables.sol\":71:934  contract GlobalVariables {... */\n  mstore(0x40, 0x80)\n    /* \"contracts/GlobalSolidityVariables.sol\":806:821  block.timestamp */\n  timestamp\n    /* \"contracts/GlobalSolidityVariables.sol\":784:821  uint public timeNow = block.timestamp */\n  0x02\n  sstore\n    /* \"contracts/GlobalSolidityVariables.sol\":865:877  block.number */\n  number\n    /* \"contracts/GlobalSolidityVariables.sol\":839:877  uint public blockNumber = block.number */\n  0x03\n  sstore\n    /* \"contracts/GlobalSolidityVariables.sol\":908:924  block.difficulty */\n  difficulty\n    /* \"contracts/GlobalSolidityVariables.sol\":884:924  uint public diffculty = block.difficulty */\n  0x04\n  sstore\n    /* \"contracts/GlobalSolidityVariables.sol\":160:211  constructor() {... */\n  callvalue\n  dup1\n  iszero\n  tag_1\n  jumpi\n  0x00\n  dup1\n  revert\ntag_1:\n  pop\n    /* \"contracts/GlobalSolidityVariables.sol\":193:203  msg.sender */\n  caller\n    /* \"contracts/GlobalSolidityVariables.sol\":185:190  owner */\n  0x00\n  dup1\n    /* \"contracts/GlobalSolidityVariables.sol\":185:203  owner = msg.sender */\n  0x0100\n  exp\n  dup2\n  sload\n  dup2\n  0xffffffffffffffffffffffffffffffffffffffff\n  mul\n  not\n  and\n  swap1\n  dup4\n  0xffffffffffffffffffffffffffffffffffffffff\n  and\n  mul\n  or\n  swap1\n  sstore\n  pop\n    /* \"contracts/GlobalSolidityVariables.sol\":71:934  contract GlobalVariables {... */\n  dataSize(sub_0)\n  dup1\n  dataOffset(sub_0)\n  0x00\n  codecopy\n  0x00\n  return\nstop\n\nsub_0: assembly {\n        /* \"contracts/GlobalSolidityVariables.sol\":71:934  contract GlobalVariables {... */\n      mstore(0x40, 0x80)\n      jumpi(tag_1, lt(calldatasize, 0x04))\n      shr(0xe0, calldataload(0x00))\n      dup1\n      0x62a09477\n      gt\n      tag_11\n      jumpi\n      dup1\n      0x62a09477\n      eq\n      tag_6\n      jumpi\n      dup1\n      0x6dcb8d84\n      eq\n      tag_7\n      jumpi\n      dup1\n      0x8da5cb5b\n      eq\n      tag_8\n      jumpi\n      dup1\n      0x997b3d83\n      eq\n      tag_9\n      jumpi\n      dup1\n      0xd95660be\n      eq\n      tag_10\n      jumpi\n      jump(tag_1)\n    tag_11:\n      dup1\n      0x0e29df22\n      eq\n      tag_2\n      jumpi\n      dup1\n      0x12065fe0\n      eq\n      tag_3\n      jumpi\n      dup1\n      0x220907f6\n      eq\n      tag_4\n      jumpi\n      dup1\n      0x57e871e7\n      eq\n      tag_5\n      jumpi\n    tag_1:\n      0x00\n      dup1\n      revert\n        /* \"contracts/GlobalSolidityVariables.sol\":335:411  function sendEther() public payable {... */\n    tag_2:\n      tag_12\n      tag_13\n      jump\t// in\n    tag_12:\n      stop\n        /* \"contracts/GlobalSolidityVariables.sol\":419:514  function getBalance() public view returns(uint) {... */\n    tag_3:\n      callvalue\n      dup1\n      iszero\n      tag_14\n      jumpi\n      0x00\n      dup1\n      revert\n    tag_14:\n      pop\n      tag_15\n      tag_16\n      jump\t// in\n    tag_15:\n      mload(0x40)\n      tag_17\n      swap2\n      swap1\n      tag_18\n      jump\t// in\n    tag_17:\n      mload(0x40)\n      dup1\n      swap2\n      sub\n      swap1\n      return\n        /* \"contracts/GlobalSolidityVariables.sol\":884:924  uint public diffculty = block.difficulty */\n    tag_4:\n      callvalue\n      dup1\n      iszero\n      tag_19\n      jumpi\n      0x00\n      dup1\n      revert\n    tag_19:\n      pop\n      tag_20\n      tag_21\n      jump\t// in\n    tag_20:\n      mload(0x40)\n      tag_22\n      swap2\n      swap1\n      tag_18\n      jump\t// in\n    tag_22:\n      mload(0x40)\n      dup1\n      swap2\n      sub\n      swap1\n      return\n        /* \"contracts/GlobalSolidityVariables.sol\":839:877  uint public blockNumber = block.number */\n    tag_5:\n      callvalue\n      dup1\n      iszero\n      tag_23\n      jumpi\n      0x00\n      dup1\n      revert\n    tag_23:\n      pop\n      tag_24\n      tag_25\n      jump\t// in\n    tag_24:\n      mload(0x40)\n      tag_26\n      swap2\n      swap1\n      tag_18\n      jump\t// in\n    tag_26:\n      mload(0x40)\n      dup1\n      swap2\n      sub\n      swap1\n      return\n        /* \"contracts/GlobalSolidityVariables.sol\":260:327  function changeOwner() public {... */\n    tag_6:\n      callvalue\n      dup1\n      iszero\n      tag_27\n      jumpi\n      0x00\n      dup1\n      revert\n    tag_27:\n      pop\n      tag_28\n      tag_29\n      jump\t// in\n    tag_28:\n      stop\n        /* \"contracts/GlobalSolidityVariables.sol\":130:151  uint public sentValue */\n    tag_7:\n      callvalue\n      dup1\n      iszero\n      tag_30\n      jumpi\n      0x00\n      dup1\n      revert\n    tag_30:\n      pop\n      tag_31\n      tag_32\n      jump\t// in\n    tag_31:\n      mload(0x40)\n      tag_33\n      swap2\n      swap1\n      tag_18\n      jump\t// in\n    tag_33:\n      mload(0x40)\n      dup1\n      swap2\n      sub\n      swap1\n      return\n        /* \"contracts/GlobalSolidityVariables.sol\":103:123  address public owner */\n    tag_8:\n      callvalue\n      dup1\n      iszero\n      tag_34\n      jumpi\n      0x00\n      dup1\n      revert\n    tag_34:\n      pop\n      tag_35\n      tag_36\n      jump\t// in\n    tag_35:\n      mload(0x40)\n      tag_37\n      swap2\n      swap1\n      tag_38\n      jump\t// in\n    tag_37:\n      mload(0x40)\n      dup1\n      swap2\n      sub\n      swap1\n      return\n        /* \"contracts/GlobalSolidityVariables.sol\":522:776  function howMuchGas() public view returns(uint) {... */\n    tag_9:\n      callvalue\n      dup1\n      iszero\n      tag_39\n      jumpi\n      0x00\n      dup1\n      revert\n    tag_39:\n      pop\n      tag_40\n      tag_41\n      jump\t// in\n    tag_40:\n      mload(0x40)\n      tag_42\n      swap2\n      swap1\n      tag_18\n      jump\t// in\n    tag_42:\n      mload(0x40)\n      dup1\n      swap2\n      sub\n      swap1\n      return\n        /* \"contracts/GlobalSolidityVariables.sol\":784:821  uint public timeNow = block.timestamp */\n    tag_10:\n      callvalue\n      dup1\n      iszero\n      tag_43\n      jumpi\n      0x00\n      dup1\n      revert\n    tag_43:\n      pop\n      tag_44\n      tag_45\n      jump\t// in\n    tag_44:\n      mload(0x40)\n      tag_46\n      swap2\n      swap1\n      tag_18\n      jump\t// in\n    tag_46:\n      mload(0x40)\n      dup1\n      swap2\n      sub\n      swap1\n      return\n        /* \"contracts/GlobalSolidityVariables.sol\":335:411  function sendEther() public payable {... */\n    tag_13:\n        /* \"contracts/GlobalSolidityVariables.sol\":394:403  msg.value */\n      callvalue\n        /* \"contracts/GlobalSolidityVariables.sol\":382:391  sentValue */\n      0x01\n        /* \"contracts/GlobalSolidityVariables.sol\":382:403  sentValue = msg.value */\n      dup2\n      swap1\n      sstore\n      pop\n        /* \"contracts/GlobalSolidityVariables.sol\":335:411  function sendEther() public payable {... */\n      jump\t// out\n        /* \"contracts/GlobalSolidityVariables.sol\":419:514  function getBalance() public view returns(uint) {... */\n    tag_16:\n        /* \"contracts/GlobalSolidityVariables.sol\":461:465  uint */\n      0x00\n        /* \"contracts/GlobalSolidityVariables.sol\":485:506  address(this).balance */\n      selfbalance\n        /* \"contracts/GlobalSolidityVariables.sol\":478:506  return address(this).balance */\n      swap1\n      pop\n        /* \"contracts/GlobalSolidityVariables.sol\":419:514  function getBalance() public view returns(uint) {... */\n      swap1\n      jump\t// out\n        /* \"contracts/GlobalSolidityVariables.sol\":884:924  uint public diffculty = block.difficulty */\n    tag_21:\n      sload(0x04)\n      dup2\n      jump\t// out\n        /* \"contracts/GlobalSolidityVariables.sol\":839:877  uint public blockNumber = block.number */\n    tag_25:\n      sload(0x03)\n      dup2\n      jump\t// out\n        /* \"contracts/GlobalSolidityVariables.sol\":260:327  function changeOwner() public {... */\n    tag_29:\n        /* \"contracts/GlobalSolidityVariables.sol\":309:319  msg.sender */\n      caller\n        /* \"contracts/GlobalSolidityVariables.sol\":301:306  owner */\n      0x00\n      dup1\n        /* \"contracts/GlobalSolidityVariables.sol\":301:319  owner = msg.sender */\n      0x0100\n      exp\n      dup2\n      sload\n      dup2\n      0xffffffffffffffffffffffffffffffffffffffff\n      mul\n      not\n      and\n      swap1\n      dup4\n      0xffffffffffffffffffffffffffffffffffffffff\n      and\n      mul\n      or\n      swap1\n      sstore\n      pop\n        /* \"contracts/GlobalSolidityVariables.sol\":260:327  function changeOwner() public {... */\n      jump\t// out\n        /* \"contracts/GlobalSolidityVariables.sol\":130:151  uint public sentValue */\n    tag_32:\n      sload(0x01)\n      dup2\n      jump\t// out\n        /* \"contracts/GlobalSolidityVariables.sol\":103:123  address public owner */\n    tag_36:\n      0x00\n      dup1\n      sload\n      swap1\n      0x0100\n      exp\n      swap1\n      div\n      0xffffffffffffffffffffffffffffffffffffffff\n      and\n      dup2\n      jump\t// out\n        /* \"contracts/GlobalSolidityVariables.sol\":522:776  function howMuchGas() public view returns(uint) {... */\n    tag_41:\n        /* \"contracts/GlobalSolidityVariables.sol\":564:568  uint */\n      0x00\n        /* \"contracts/GlobalSolidityVariables.sol\":581:591  uint start */\n      dup1\n        /* \"contracts/GlobalSolidityVariables.sol\":594:603  gasleft() */\n      gas\n        /* \"contracts/GlobalSolidityVariables.sol\":581:603  uint start = gasleft() */\n      swap1\n      pop\n        /* \"contracts/GlobalSolidityVariables.sol\":614:620  uint j */\n      0x00\n        /* \"contracts/GlobalSolidityVariables.sol\":623:624  1 */\n      0x01\n        /* \"contracts/GlobalSolidityVariables.sol\":614:624  uint j = 1 */\n      swap1\n      pop\n        /* \"contracts/GlobalSolidityVariables.sol\":649:655  uint i */\n      0x00\n        /* \"contracts/GlobalSolidityVariables.sol\":658:659  1 */\n      0x01\n        /* \"contracts/GlobalSolidityVariables.sol\":649:659  uint i = 1 */\n      swap1\n      pop\n        /* \"contracts/GlobalSolidityVariables.sol\":645:707  for(uint i = 1; i < 20; i++) {... */\n    tag_51:\n        /* \"contracts/GlobalSolidityVariables.sol\":665:667  20 */\n      0x14\n        /* \"contracts/GlobalSolidityVariables.sol\":661:662  i */\n      dup2\n        /* \"contracts/GlobalSolidityVariables.sol\":661:667  i < 20 */\n      lt\n        /* \"contracts/GlobalSolidityVariables.sol\":645:707  for(uint i = 1; i < 20; i++) {... */\n      iszero\n      tag_52\n      jumpi\n        /* \"contracts/GlobalSolidityVariables.sol\":694:695  i */\n      dup1\n        /* \"contracts/GlobalSolidityVariables.sol\":689:695  j *= i */\n      dup3\n      tag_54\n      swap2\n      swap1\n      tag_55\n      jump\t// in\n    tag_54:\n      swap2\n      pop\n        /* \"contracts/GlobalSolidityVariables.sol\":669:672  i++ */\n      dup1\n      dup1\n      tag_56\n      swap1\n      tag_57\n      jump\t// in\n    tag_56:\n      swap2\n      pop\n      pop\n        /* \"contracts/GlobalSolidityVariables.sol\":645:707  for(uint i = 1; i < 20; i++) {... */\n      jump(tag_51)\n    tag_52:\n      pop\n        /* \"contracts/GlobalSolidityVariables.sol\":719:727  uint end */\n      0x00\n        /* \"contracts/GlobalSolidityVariables.sol\":730:739  gasleft() */\n      gas\n        /* \"contracts/GlobalSolidityVariables.sol\":719:739  uint end = gasleft() */\n      swap1\n      pop\n        /* \"contracts/GlobalSolidityVariables.sol\":765:768  end */\n      dup1\n        /* \"contracts/GlobalSolidityVariables.sol\":757:762  start */\n      dup4\n        /* \"contracts/GlobalSolidityVariables.sol\":757:768  start - end */\n      tag_58\n      swap2\n      swap1\n      tag_59\n      jump\t// in\n    tag_58:\n        /* \"contracts/GlobalSolidityVariables.sol\":750:768  return start - end */\n      swap4\n      pop\n      pop\n      pop\n      pop\n        /* \"contracts/GlobalSolidityVariables.sol\":522:776  function howMuchGas() public view returns(uint) {... */\n      swap1\n      jump\t// out\n        /* \"contracts/GlobalSolidityVariables.sol\":784:821  uint public timeNow = block.timestamp */\n    tag_45:\n      sload(0x02)\n      dup2\n      jump\t// out\n        /* \"#utility.yul\":7:84   */\n    tag_60:\n        /* \"#utility.yul\":44:51   */\n      0x00\n        /* \"#utility.yul\":73:78   */\n      dup2\n        /* \"#utility.yul\":62:78   */\n      swap1\n      pop\n        /* \"#utility.yul\":7:84   */\n      swap2\n      swap1\n      pop\n      jump\t// out\n        /* \"#utility.yul\":90:208   */\n    tag_61:\n        /* \"#utility.yul\":177:201   */\n      tag_69\n        /* \"#utility.yul\":195:200   */\n      dup2\n        /* \"#utility.yul\":177:201   */\n      tag_60\n      jump\t// in\n    tag_69:\n        /* \"#utility.yul\":172:175   */\n      dup3\n        /* \"#utility.yul\":165:202   */\n      mstore\n        /* \"#utility.yul\":90:208   */\n      pop\n      pop\n      jump\t// out\n        /* \"#utility.yul\":214:436   */\n    tag_18:\n        /* \"#utility.yul\":307:311   */\n      0x00\n        /* \"#utility.yul\":345:347   */\n      0x20\n        /* \"#utility.yul\":334:343   */\n      dup3\n        /* \"#utility.yul\":330:348   */\n      add\n        /* \"#utility.yul\":322:348   */\n      swap1\n      pop\n        /* \"#utility.yul\":358:429   */\n      tag_71\n        /* \"#utility.yul\":426:427   */\n      0x00\n        /* \"#utility.yul\":415:424   */\n      dup4\n        /* \"#utility.yul\":411:428   */\n      add\n        /* \"#utility.yul\":402:408   */\n      dup5\n        /* \"#utility.yul\":358:429   */\n      tag_61\n      jump\t// in\n    tag_71:\n        /* \"#utility.yul\":214:436   */\n      swap3\n      swap2\n      pop\n      pop\n      jump\t// out\n        /* \"#utility.yul\":442:568   */\n    tag_62:\n        /* \"#utility.yul\":479:486   */\n      0x00\n        /* \"#utility.yul\":519:561   */\n      0xffffffffffffffffffffffffffffffffffffffff\n        /* \"#utility.yul\":512:517   */\n      dup3\n        /* \"#utility.yul\":508:562   */\n      and\n        /* \"#utility.yul\":497:562   */\n      swap1\n      pop\n        /* \"#utility.yul\":442:568   */\n      swap2\n      swap1\n      pop\n      jump\t// out\n        /* \"#utility.yul\":574:670   */\n    tag_63:\n        /* \"#utility.yul\":611:618   */\n      0x00\n        /* \"#utility.yul\":640:664   */\n      tag_74\n        /* \"#utility.yul\":658:663   */\n      dup3\n        /* \"#utility.yul\":640:664   */\n      tag_62\n      jump\t// in\n    tag_74:\n        /* \"#utility.yul\":629:664   */\n      swap1\n      pop\n        /* \"#utility.yul\":574:670   */\n      swap2\n      swap1\n      pop\n      jump\t// out\n        /* \"#utility.yul\":676:794   */\n    tag_64:\n        /* \"#utility.yul\":763:787   */\n      tag_76\n        /* \"#utility.yul\":781:786   */\n      dup2\n        /* \"#utility.yul\":763:787   */\n      tag_63\n      jump\t// in\n    tag_76:\n        /* \"#utility.yul\":758:761   */\n      dup3\n        /* \"#utility.yul\":751:788   */\n      mstore\n        /* \"#utility.yul\":676:794   */\n      pop\n      pop\n      jump\t// out\n        /* \"#utility.yul\":800:1022   */\n    tag_38:\n        /* \"#utility.yul\":893:897   */\n      0x00\n        /* \"#utility.yul\":931:933   */\n      0x20\n        /* \"#utility.yul\":920:929   */\n      dup3\n        /* \"#utility.yul\":916:934   */\n      add\n        /* \"#utility.yul\":908:934   */\n      swap1\n      pop\n        /* \"#utility.yul\":944:1015   */\n      tag_78\n        /* \"#utility.yul\":1012:1013   */\n      0x00\n        /* \"#utility.yul\":1001:1010   */\n      dup4\n        /* \"#utility.yul\":997:1014   */\n      add\n        /* \"#utility.yul\":988:994   */\n      dup5\n        /* \"#utility.yul\":944:1015   */\n      tag_64\n      jump\t// in\n    tag_78:\n        /* \"#utility.yul\":800:1022   */\n      swap3\n      swap2\n      pop\n      pop\n      jump\t// out\n        /* \"#utility.yul\":1028:1208   */\n    tag_65:\n        /* \"#utility.yul\":1076:1153   */\n      0x4e487b7100000000000000000000000000000000000000000000000000000000\n        /* \"#utility.yul\":1073:1074   */\n      0x00\n        /* \"#utility.yul\":1066:1154   */\n      mstore\n        /* \"#utility.yul\":1173:1177   */\n      0x11\n        /* \"#utility.yul\":1170:1171   */\n      0x04\n        /* \"#utility.yul\":1163:1178   */\n      mstore\n        /* \"#utility.yul\":1197:1201   */\n      0x24\n        /* \"#utility.yul\":1194:1195   */\n      0x00\n        /* \"#utility.yul\":1187:1202   */\n      revert\n        /* \"#utility.yul\":1214:1624   */\n    tag_55:\n        /* \"#utility.yul\":1254:1261   */\n      0x00\n        /* \"#utility.yul\":1277:1297   */\n      tag_81\n        /* \"#utility.yul\":1295:1296   */\n      dup3\n        /* \"#utility.yul\":1277:1297   */\n      tag_60\n      jump\t// in\n    tag_81:\n        /* \"#utility.yul\":1272:1297   */\n      swap2\n      pop\n        /* \"#utility.yul\":1311:1331   */\n      tag_82\n        /* \"#utility.yul\":1329:1330   */\n      dup4\n        /* \"#utility.yul\":1311:1331   */\n      tag_60\n      jump\t// in\n    tag_82:\n        /* \"#utility.yul\":1306:1331   */\n      swap3\n      pop\n        /* \"#utility.yul\":1366:1367   */\n      dup3\n        /* \"#utility.yul\":1363:1364   */\n      dup3\n        /* \"#utility.yul\":1359:1368   */\n      mul\n        /* \"#utility.yul\":1388:1418   */\n      tag_83\n        /* \"#utility.yul\":1406:1417   */\n      dup2\n        /* \"#utility.yul\":1388:1418   */\n      tag_60\n      jump\t// in\n    tag_83:\n        /* \"#utility.yul\":1377:1418   */\n      swap2\n      pop\n        /* \"#utility.yul\":1567:1568   */\n      dup3\n        /* \"#utility.yul\":1558:1565   */\n      dup3\n        /* \"#utility.yul\":1554:1569   */\n      div\n        /* \"#utility.yul\":1551:1552   */\n      dup5\n        /* \"#utility.yul\":1548:1570   */\n      eq\n        /* \"#utility.yul\":1528:1529   */\n      dup4\n        /* \"#utility.yul\":1521:1530   */\n      iszero\n        /* \"#utility.yul\":1501:1584   */\n      or\n        /* \"#utility.yul\":1478:1617   */\n      tag_84\n      jumpi\n        /* \"#utility.yul\":1597:1615   */\n      tag_85\n      tag_65\n      jump\t// in\n    tag_85:\n        /* \"#utility.yul\":1478:1617   */\n    tag_84:\n        /* \"#utility.yul\":1262:1624   */\n      pop\n        /* \"#utility.yul\":1214:1624   */\n      swap3\n      swap2\n      pop\n      pop\n      jump\t// out\n        /* \"#utility.yul\":1630:1863   */\n    tag_57:\n        /* \"#utility.yul\":1669:1672   */\n      0x00\n        /* \"#utility.yul\":1692:1716   */\n      tag_87\n        /* \"#utility.yul\":1710:1715   */\n      dup3\n        /* \"#utility.yul\":1692:1716   */\n      tag_60\n      jump\t// in\n    tag_87:\n        /* \"#utility.yul\":1683:1716   */\n      swap2\n      pop\n        /* \"#utility.yul\":1738:1804   */\n      0xffffffffffffffffffffffffffffffffffffffffffffffffffffffffffffffff\n        /* \"#utility.yul\":1731:1736   */\n      dup3\n        /* \"#utility.yul\":1728:1805   */\n      sub\n        /* \"#utility.yul\":1725:1828   */\n      tag_88\n      jumpi\n        /* \"#utility.yul\":1808:1826   */\n      tag_89\n      tag_65\n      jump\t// in\n    tag_89:\n        /* \"#utility.yul\":1725:1828   */\n    tag_88:\n        /* \"#utility.yul\":1855:1856   */\n      0x01\n        /* \"#utility.yul\":1848:1853   */\n      dup3\n        /* \"#utility.yul\":1844:1857   */\n      add\n        /* \"#utility.yul\":1837:1857   */\n      swap1\n      pop\n        /* \"#utility.yul\":1630:1863   */\n      swap2\n      swap1\n      pop\n      jump\t// out\n        /* \"#utility.yul\":1869:2063   */\n    tag_59:\n        /* \"#utility.yul\":1909:1913   */\n      0x00\n        /* \"#utility.yul\":1929:1949   */\n      tag_91\n        /* \"#utility.yul\":1947:1948   */\n      dup3\n        /* \"#utility.yul\":1929:1949   */\n      tag_60\n      jump\t// in\n    tag_91:\n        /* \"#utility.yul\":1924:1949   */\n      swap2\n      pop\n        /* \"#utility.yul\":1963:1983   */\n      tag_92\n        /* \"#utility.yul\":1981:1982   */\n      dup4\n        /* \"#utility.yul\":1963:1983   */\n      tag_60\n      jump\t// in\n    tag_92:\n        /* \"#utility.yul\":1958:1983   */\n      swap3\n      pop\n        /* \"#utility.yul\":2007:2008   */\n      dup3\n        /* \"#utility.yul\":2004:2005   */\n      dup3\n        /* \"#utility.yul\":2000:2009   */\n      sub\n        /* \"#utility.yul\":1992:2009   */\n      swap1\n      pop\n        /* \"#utility.yul\":2031:2032   */\n      dup2\n        /* \"#utility.yul\":2025:2029   */\n      dup2\n        /* \"#utility.yul\":2022:2033   */\n      gt\n        /* \"#utility.yul\":2019:2056   */\n      iszero\n      tag_93\n      jumpi\n        /* \"#utility.yul\":2036:2054   */\n      tag_94\n      tag_65\n      jump\t// in\n    tag_94:\n        /* \"#utility.yul\":2019:2056   */\n    tag_93:\n        /* \"#utility.yul\":1869:2063   */\n      swap3\n      swap2\n      pop\n      pop\n      jump\t// out\n\n    auxdata: 0xa264697066735822122096a2503b6f4d703a6c6c6d3404a09de17f18617981b134d3edc88b66663fdf7764736f6c63430008110033\n}\n",
				"bytecode": {
					"linkReferences": {},
					"object": "608060405242600255436003554460045534801561001c57600080fd5b50336000806101000a81548173ffffffffffffffffffffffffffffffffffffffff021916908373ffffffffffffffffffffffffffffffffffffffff1602179055506104728061006c6000396000f3fe6080604052600436106100865760003560e01c806362a094771161005957806362a09477146101165780636dcb8d841461012d5780638da5cb5b14610158578063997b3d8314610183578063d95660be146101ae57610086565b80630e29df221461008b57806312065fe014610095578063220907f6146100c057806357e871e7146100eb575b600080fd5b6100936101d9565b005b3480156100a157600080fd5b506100aa6101e2565b6040516100b791906102d8565b60405180910390f35b3480156100cc57600080fd5b506100d56101ea565b6040516100e291906102d8565b60405180910390f35b3480156100f757600080fd5b506101006101f0565b60405161010d91906102d8565b60405180910390f35b34801561012257600080fd5b5061012b6101f6565b005b34801561013957600080fd5b50610142610238565b60405161014f91906102d8565b60405180910390f35b34801561016457600080fd5b5061016d61023e565b60405161017a9190610334565b60405180910390f35b34801561018f57600080fd5b50610198610262565b6040516101a591906102d8565b60405180910390f35b3480156101ba57600080fd5b506101c36102b9565b6040516101d091906102d8565b60405180910390f35b34600181905550565b600047905090565b60045481565b60035481565b336000806101000a81548173ffffffffffffffffffffffffffffffffffffffff021916908373ffffffffffffffffffffffffffffffffffffffff160217905550565b60015481565b60008054906101000a900473ffffffffffffffffffffffffffffffffffffffff1681565b6000805a90506000600190506000600190505b601481101561029f57808261028a919061037e565b91508080610297906103c0565b915050610275565b5060005a905080836102b19190610408565b935050505090565b60025481565b6000819050919050565b6102d2816102bf565b82525050565b60006020820190506102ed60008301846102c9565b92915050565b600073ffffffffffffffffffffffffffffffffffffffff82169050919050565b600061031e826102f3565b9050919050565b61032e81610313565b82525050565b60006020820190506103496000830184610325565b92915050565b7f4e487b7100000000000000000000000000000000000000000000000000000000600052601160045260246000fd5b6000610389826102bf565b9150610394836102bf565b92508282026103a2816102bf565b915082820484148315176103b9576103b861034f565b5b5092915050565b60006103cb826102bf565b91507fffffffffffffffffffffffffffffffffffffffffffffffffffffffffffffffff82036103fd576103fc61034f565b5b600182019050919050565b6000610413826102bf565b915061041e836102bf565b92508282039050818111156104365761043561034f565b5b9291505056fea264697066735822122096a2503b6f4d703a6c6c6d3404a09de17f18617981b134d3edc88b66663fdf7764736f6c63430008110033",
					"opcodes": "PUSH1 0x80 PUSH1 0x40 MSTORE TIMESTAMP PUSH1 0x2 SSTORE NUMBER PUSH1 0x3 SSTORE DIFFICULTY PUSH1 0x4 SSTORE CALLVALUE DUP1 ISZERO PUSH2 0x1C JUMPI PUSH1 0x0 DUP1 REVERT JUMPDEST POP CALLER PUSH1 0x0 DUP1 PUSH2 0x100 EXP DUP2 SLOAD DUP2 PUSH20 0xFFFFFFFFFFFFFFFFFFFFFFFFFFFFFFFFFFFFFFFF MUL NOT AND SWAP1 DUP4 PUSH20 0xFFFFFFFFFFFFFFFFFFFFFFFFFFFFFFFFFFFFFFFF AND MUL OR SWAP1 SSTORE POP PUSH2 0x472 DUP1 PUSH2 0x6C PUSH1 0x0 CODECOPY PUSH1 0x0 RETURN INVALID PUSH1 0x80 PUSH1 0x40 MSTORE PUSH1 0x4 CALLDATASIZE LT PUSH2 0x86 JUMPI PUSH1 0x0 CALLDATALOAD PUSH1 0xE0 SHR DUP1 PUSH4 0x62A09477 GT PUSH2 0x59 JUMPI DUP1 PUSH4 0x62A09477 EQ PUSH2 0x116 JUMPI DUP1 PUSH4 0x6DCB8D84 EQ PUSH2 0x12D JUMPI DUP1 PUSH4 0x8DA5CB5B EQ PUSH2 0x158 JUMPI DUP1 PUSH4 0x997B3D83 EQ PUSH2 0x183 JUMPI DUP1 PUSH4 0xD95660BE EQ PUSH2 0x1AE JUMPI PUSH2 0x86 JUMP JUMPDEST DUP1 PUSH4 0xE29DF22 EQ PUSH2 0x8B JUMPI DUP1 PUSH4 0x12065FE0 EQ PUSH2 0x95 JUMPI DUP1 PUSH4 0x220907F6 EQ PUSH2 0xC0 JUMPI DUP1 PUSH4 0x57E871E7 EQ PUSH2 0xEB JUMPI JUMPDEST PUSH1 0x0 DUP1 REVERT JUMPDEST PUSH2 0x93 PUSH2 0x1D9 JUMP JUMPDEST STOP JUMPDEST CALLVALUE DUP1 ISZERO PUSH2 0xA1 JUMPI PUSH1 0x0 DUP1 REVERT JUMPDEST POP PUSH2 0xAA PUSH2 0x1E2 JUMP JUMPDEST PUSH1 0x40 MLOAD PUSH2 0xB7 SWAP2 SWAP1 PUSH2 0x2D8 JUMP JUMPDEST PUSH1 0x40 MLOAD DUP1 SWAP2 SUB SWAP1 RETURN JUMPDEST CALLVALUE DUP1 ISZERO PUSH2 0xCC JUMPI PUSH1 0x0 DUP1 REVERT JUMPDEST POP PUSH2 0xD5 PUSH2 0x1EA JUMP JUMPDEST PUSH1 0x40 MLOAD PUSH2 0xE2 SWAP2 SWAP1 PUSH2 0x2D8 JUMP JUMPDEST PUSH1 0x40 MLOAD DUP1 SWAP2 SUB SWAP1 RETURN JUMPDEST CALLVALUE DUP1 ISZERO PUSH2 0xF7 JUMPI PUSH1 0x0 DUP1 REVERT JUMPDEST POP PUSH2 0x100 PUSH2 0x1F0 JUMP JUMPDEST PUSH1 0x40 MLOAD PUSH2 0x10D SWAP2 SWAP1 PUSH2 0x2D8 JUMP JUMPDEST PUSH1 0x40 MLOAD DUP1 SWAP2 SUB SWAP1 RETURN JUMPDEST CALLVALUE DUP1 ISZERO PUSH2 0x122 JUMPI PUSH1 0x0 DUP1 REVERT JUMPDEST POP PUSH2 0x12B PUSH2 0x1F6 JUMP JUMPDEST STOP JUMPDEST CALLVALUE DUP1 ISZERO PUSH2 0x139 JUMPI PUSH1 0x0 DUP1 REVERT JUMPDEST POP PUSH2 0x142 PUSH2 0x238 JUMP JUMPDEST PUSH1 0x40 MLOAD PUSH2 0x14F SWAP2 SWAP1 PUSH2 0x2D8 JUMP JUMPDEST PUSH1 0x40 MLOAD DUP1 SWAP2 SUB SWAP1 RETURN JUMPDEST CALLVALUE DUP1 ISZERO PUSH2 0x164 JUMPI PUSH1 0x0 DUP1 REVERT JUMPDEST POP PUSH2 0x16D PUSH2 0x23E JUMP JUMPDEST PUSH1 0x40 MLOAD PUSH2 0x17A SWAP2 SWAP1 PUSH2 0x334 JUMP JUMPDEST PUSH1 0x40 MLOAD DUP1 SWAP2 SUB SWAP1 RETURN JUMPDEST CALLVALUE DUP1 ISZERO PUSH2 0x18F JUMPI PUSH1 0x0 DUP1 REVERT JUMPDEST POP PUSH2 0x198 PUSH2 0x262 JUMP JUMPDEST PUSH1 0x40 MLOAD PUSH2 0x1A5 SWAP2 SWAP1 PUSH2 0x2D8 JUMP JUMPDEST PUSH1 0x40 MLOAD DUP1 SWAP2 SUB SWAP1 RETURN JUMPDEST CALLVALUE DUP1 ISZERO PUSH2 0x1BA JUMPI PUSH1 0x0 DUP1 REVERT JUMPDEST POP PUSH2 0x1C3 PUSH2 0x2B9 JUMP JUMPDEST PUSH1 0x40 MLOAD PUSH2 0x1D0 SWAP2 SWAP1 PUSH2 0x2D8 JUMP JUMPDEST PUSH1 0x40 MLOAD DUP1 SWAP2 SUB SWAP1 RETURN JUMPDEST CALLVALUE PUSH1 0x1 DUP2 SWAP1 SSTORE POP JUMP JUMPDEST PUSH1 0x0 SELFBALANCE SWAP1 POP SWAP1 JUMP JUMPDEST PUSH1 0x4 SLOAD DUP2 JUMP JUMPDEST PUSH1 0x3 SLOAD DUP2 JUMP JUMPDEST CALLER PUSH1 0x0 DUP1 PUSH2 0x100 EXP DUP2 SLOAD DUP2 PUSH20 0xFFFFFFFFFFFFFFFFFFFFFFFFFFFFFFFFFFFFFFFF MUL NOT AND SWAP1 DUP4 PUSH20 0xFFFFFFFFFFFFFFFFFFFFFFFFFFFFFFFFFFFFFFFF AND MUL OR SWAP1 SSTORE POP JUMP JUMPDEST PUSH1 0x1 SLOAD DUP2 JUMP JUMPDEST PUSH1 0x0 DUP1 SLOAD SWAP1 PUSH2 0x100 EXP SWAP1 DIV PUSH20 0xFFFFFFFFFFFFFFFFFFFFFFFFFFFFFFFFFFFFFFFF AND DUP2 JUMP JUMPDEST PUSH1 0x0 DUP1 GAS SWAP1 POP PUSH1 0x0 PUSH1 0x1 SWAP1 POP PUSH1 0x0 PUSH1 0x1 SWAP1 POP JUMPDEST PUSH1 0x14 DUP2 LT ISZERO PUSH2 0x29F JUMPI DUP1 DUP3 PUSH2 0x28A SWAP2 SWAP1 PUSH2 0x37E JUMP JUMPDEST SWAP2 POP DUP1 DUP1 PUSH2 0x297 SWAP1 PUSH2 0x3C0 JUMP JUMPDEST SWAP2 POP POP PUSH2 0x275 JUMP JUMPDEST POP PUSH1 0x0 GAS SWAP1 POP DUP1 DUP4 PUSH2 0x2B1 SWAP2 SWAP1 PUSH2 0x408 JUMP JUMPDEST SWAP4 POP POP POP POP SWAP1 JUMP JUMPDEST PUSH1 0x2 SLOAD DUP2 JUMP JUMPDEST PUSH1 0x0 DUP2 SWAP1 POP SWAP2 SWAP1 POP JUMP JUMPDEST PUSH2 0x2D2 DUP2 PUSH2 0x2BF JUMP JUMPDEST DUP3 MSTORE POP POP JUMP JUMPDEST PUSH1 0x0 PUSH1 0x20 DUP3 ADD SWAP1 POP PUSH2 0x2ED PUSH1 0x0 DUP4 ADD DUP5 PUSH2 0x2C9 JUMP JUMPDEST SWAP3 SWAP2 POP POP JUMP JUMPDEST PUSH1 0x0 PUSH20 0xFFFFFFFFFFFFFFFFFFFFFFFFFFFFFFFFFFFFFFFF DUP3 AND SWAP1 POP SWAP2 SWAP1 POP JUMP JUMPDEST PUSH1 0x0 PUSH2 0x31E DUP3 PUSH2 0x2F3 JUMP JUMPDEST SWAP1 POP SWAP2 SWAP1 POP JUMP JUMPDEST PUSH2 0x32E DUP2 PUSH2 0x313 JUMP JUMPDEST DUP3 MSTORE POP POP JUMP JUMPDEST PUSH1 0x0 PUSH1 0x20 DUP3 ADD SWAP1 POP PUSH2 0x349 PUSH1 0x0 DUP4 ADD DUP5 PUSH2 0x325 JUMP JUMPDEST SWAP3 SWAP2 POP POP JUMP JUMPDEST PUSH32 0x4E487B7100000000000000000000000000000000000000000000000000000000 PUSH1 0x0 MSTORE PUSH1 0x11 PUSH1 0x4 MSTORE PUSH1 0x24 PUSH1 0x0 REVERT JUMPDEST PUSH1 0x0 PUSH2 0x389 DUP3 PUSH2 0x2BF JUMP JUMPDEST SWAP2 POP PUSH2 0x394 DUP4 PUSH2 0x2BF JUMP JUMPDEST SWAP3 POP DUP3 DUP3 MUL PUSH2 0x3A2 DUP2 PUSH2 0x2BF JUMP JUMPDEST SWAP2 POP DUP3 DUP3 DIV DUP5 EQ DUP4 ISZERO OR PUSH2 0x3B9 JUMPI PUSH2 0x3B8 PUSH2 0x34F JUMP JUMPDEST JUMPDEST POP SWAP3 SWAP2 POP POP JUMP JUMPDEST PUSH1 0x0 PUSH2 0x3CB DUP3 PUSH2 0x2BF JUMP JUMPDEST SWAP2 POP PUSH32 0xFFFFFFFFFFFFFFFFFFFFFFFFFFFFFFFFFFFFFFFFFFFFFFFFFFFFFFFFFFFFFFFF DUP3 SUB PUSH2 0x3FD JUMPI PUSH2 0x3FC PUSH2 0x34F JUMP JUMPDEST JUMPDEST PUSH1 0x1 DUP3 ADD SWAP1 POP SWAP2 SWAP1 POP JUMP JUMPDEST PUSH1 0x0 PUSH2 0x413 DUP3 PUSH2 0x2BF JUMP JUMPDEST SWAP2 POP PUSH2 0x41E DUP4 PUSH2 0x2BF JUMP JUMPDEST SWAP3 POP DUP3 DUP3 SUB SWAP1 POP DUP2 DUP2 GT ISZERO PUSH2 0x436 JUMPI PUSH2 0x435 PUSH2 0x34F JUMP JUMPDEST JUMPDEST SWAP3 SWAP2 POP POP JUMP INVALID LOG2 PUSH5 0x6970667358 0x22 SLT KECCAK256 SWAP7 LOG2 POP EXTCODESIZE PUSH16 0x4D703A6C6C6D3404A09DE17F18617981 0xB1 CALLVALUE 0xD3 0xED 0xC8 DUP12 PUSH7 0x663FDF7764736F PUSH13 0x63430008110033000000000000 "
				},
				"gasEstimates": {
					"creation": {
						"codeDepositCost": "227600",
						"executionCost": "90850",
						"totalCost": "318450"
					},
					"external": {
						"blockNumber()": "2496",
						"changeOwner()": "24410",
						"diffculty()": "2474",
						"getBalance()": "362",
						"howMuchGas()": "infinite",
						"owner()": "2555",
						"sendEther()": "22234",
						"sentValue()": "2451",
						"timeNow()": "2517"
					}
				},
				"methodIdentifiers": {
					"blockNumber()": "57e871e7",
					"changeOwner()": "62a09477",
					"diffculty()": "220907f6",
					"getBalance()": "12065fe0",
					"howMuchGas()": "997b3d83",
					"owner()": "8da5cb5b",
					"sendEther()": "0e29df22",
					"sentValue()": "6dcb8d84",
					"timeNow()": "d95660be"
				}
			},
			"storageLayout": {
				"storage": [
					{
						"astId": 3,
						"contract": "contracts/GlobalSolidityVariables.sol:GlobalVariables",
						"label": "owner",
						"offset": 0,
						"slot": "0",
						"type": "t_address"
					},
					{
						"astId": 5,
						"contract": "contracts/GlobalSolidityVariables.sol:GlobalVariables",
						"label": "sentValue",
						"offset": 0,
						"slot": "1",
						"type": "t_uint256"
					},
					{
						"astId": 88,
						"contract": "contracts/GlobalSolidityVariables.sol:GlobalVariables",
						"label": "timeNow",
						"offset": 0,
						"slot": "2",
						"type": "t_uint256"
					},
					{
						"astId": 92,
						"contract": "contracts/GlobalSolidityVariables.sol:GlobalVariables",
						"label": "blockNumber",
						"offset": 0,
						"slot": "3",
						"type": "t_uint256"
					},
					{
						"astId": 96,
						"contract": "contracts/GlobalSolidityVariables.sol:GlobalVariables",
						"label": "diffculty",
						"offset": 0,
						"slot": "4",
						"type": "t_uint256"
					}
				],
				"types": {
					"t_address": {
						"encoding": "inplace",
						"label": "address",
						"numberOfBytes": "20"
					},
					"t_uint256": {
						"encoding": "inplace",
						"label": "uint256",
						"numberOfBytes": "32"
					}
				}
			},
			"userdoc": {
				"kind": "user",
				"methods": {},
				"version": 1
			}
		}
	}
}