{
	"contracts/FunctionVisibilitySpecifiers.sol": {
		"FunctionVisibilitySpecifiers": {
			"abi": [
				{
					"inputs": [],
					"name": "getPrivateFunction",
					"outputs": [
						{
							"internalType": "int256",
							"name": "",
							"type": "int256"
						}
					],
					"stateMutability": "view",
					"type": "function"
				},
				{
					"inputs": [],
					"name": "getY",
					"outputs": [
						{
							"internalType": "int256",
							"name": "",
							"type": "int256"
						}
					],
					"stateMutability": "view",
					"type": "function"
				},
				{
					"inputs": [],
					"name": "x",
					"outputs": [
						{
							"internalType": "int256",
							"name": "",
							"type": "int256"
						}
					],
					"stateMutability": "view",
					"type": "function"
				}
			],
			"devdoc": {
				"kind": "dev",
				"methods": {},
				"version": 1
			},
			"evm": {
				"assembly": "    /* \"contracts/FunctionVisibilitySpecifiers.sol\":64:553  contract FunctionVisibilitySpecifiers {... */\n  mstore(0x40, 0x80)\n    /* \"contracts/FunctionVisibilitySpecifiers.sol\":124:126  10 */\n  0x0a\n    /* \"contracts/FunctionVisibilitySpecifiers.sol\":109:126  int public x = 10 */\n  0x00\n  sstore\n    /* \"contracts/FunctionVisibilitySpecifiers.sol\":149:151  20 */\n  0x14\n    /* \"contracts/FunctionVisibilitySpecifiers.sol\":133:151  int private y = 20 */\n  0x01\n  sstore\n    /* \"contracts/FunctionVisibilitySpecifiers.sol\":64:553  contract FunctionVisibilitySpecifiers {... */\n  callvalue\n  dup1\n  iszero\n  tag_1\n  jumpi\n  0x00\n  dup1\n  revert\ntag_1:\n  pop\n  dataSize(sub_0)\n  dup1\n  dataOffset(sub_0)\n  0x00\n  codecopy\n  0x00\n  return\nstop\n\nsub_0: assembly {\n        /* \"contracts/FunctionVisibilitySpecifiers.sol\":64:553  contract FunctionVisibilitySpecifiers {... */\n      mstore(0x40, 0x80)\n      callvalue\n      dup1\n      iszero\n      tag_1\n      jumpi\n      0x00\n      dup1\n      revert\n    tag_1:\n      pop\n      jumpi(tag_2, lt(calldatasize, 0x04))\n      shr(0xe0, calldataload(0x00))\n      dup1\n      0x0b7f1665\n      eq\n      tag_3\n      jumpi\n      dup1\n      0x0c55699c\n      eq\n      tag_4\n      jumpi\n      dup1\n      0xca0b5ad9\n      eq\n      tag_5\n      jumpi\n    tag_2:\n      0x00\n      dup1\n      revert\n        /* \"contracts/FunctionVisibilitySpecifiers.sol\":160:228  function getY() public view returns(int) {... */\n    tag_3:\n      tag_6\n      tag_7\n      jump\t// in\n    tag_6:\n      mload(0x40)\n      tag_8\n      swap2\n      swap1\n      tag_9\n      jump\t// in\n    tag_8:\n      mload(0x40)\n      dup1\n      swap2\n      sub\n      swap1\n      return\n        /* \"contracts/FunctionVisibilitySpecifiers.sol\":109:126  int public x = 10 */\n    tag_4:\n      tag_10\n      tag_11\n      jump\t// in\n    tag_10:\n      mload(0x40)\n      tag_12\n      swap2\n      swap1\n      tag_9\n      jump\t// in\n    tag_12:\n      mload(0x40)\n      dup1\n      swap2\n      sub\n      swap1\n      return\n        /* \"contracts/FunctionVisibilitySpecifiers.sol\":324:460  function getPrivateFunction() public view returns(int) {... */\n    tag_5:\n      tag_13\n      tag_14\n      jump\t// in\n    tag_13:\n      mload(0x40)\n      tag_15\n      swap2\n      swap1\n      tag_9\n      jump\t// in\n    tag_15:\n      mload(0x40)\n      dup1\n      swap2\n      sub\n      swap1\n      return\n        /* \"contracts/FunctionVisibilitySpecifiers.sol\":160:228  function getY() public view returns(int) {... */\n    tag_7:\n        /* \"contracts/FunctionVisibilitySpecifiers.sol\":196:199  int */\n      0x00\n        /* \"contracts/FunctionVisibilitySpecifiers.sol\":219:220  y */\n      sload(0x01)\n        /* \"contracts/FunctionVisibilitySpecifiers.sol\":212:220  return y */\n      swap1\n      pop\n        /* \"contracts/FunctionVisibilitySpecifiers.sol\":160:228  function getY() public view returns(int) {... */\n      swap1\n      jump\t// out\n        /* \"contracts/FunctionVisibilitySpecifiers.sol\":109:126  int public x = 10 */\n    tag_11:\n      sload(0x00)\n      dup2\n      jump\t// out\n        /* \"contracts/FunctionVisibilitySpecifiers.sol\":324:460  function getPrivateFunction() public view returns(int) {... */\n    tag_14:\n        /* \"contracts/FunctionVisibilitySpecifiers.sol\":374:377  int */\n      0x00\n        /* \"contracts/FunctionVisibilitySpecifiers.sol\":324:460  function getPrivateFunction() public view returns(int) {... */\n      swap1\n      jump\t// out\n        /* \"#utility.yul\":7:83   */\n    tag_18:\n        /* \"#utility.yul\":43:50   */\n      0x00\n        /* \"#utility.yul\":72:77   */\n      dup2\n        /* \"#utility.yul\":61:77   */\n      swap1\n      pop\n        /* \"#utility.yul\":7:83   */\n      swap2\n      swap1\n      pop\n      jump\t// out\n        /* \"#utility.yul\":89:204   */\n    tag_19:\n        /* \"#utility.yul\":174:197   */\n      tag_23\n        /* \"#utility.yul\":191:196   */\n      dup2\n        /* \"#utility.yul\":174:197   */\n      tag_18\n      jump\t// in\n    tag_23:\n        /* \"#utility.yul\":169:172   */\n      dup3\n        /* \"#utility.yul\":162:198   */\n      mstore\n        /* \"#utility.yul\":89:204   */\n      pop\n      pop\n      jump\t// out\n        /* \"#utility.yul\":210:428   */\n    tag_9:\n        /* \"#utility.yul\":301:305   */\n      0x00\n        /* \"#utility.yul\":339:341   */\n      0x20\n        /* \"#utility.yul\":328:337   */\n      dup3\n        /* \"#utility.yul\":324:342   */\n      add\n        /* \"#utility.yul\":316:342   */\n      swap1\n      pop\n        /* \"#utility.yul\":352:421   */\n      tag_25\n        /* \"#utility.yul\":418:419   */\n      0x00\n        /* \"#utility.yul\":407:416   */\n      dup4\n        /* \"#utility.yul\":403:420   */\n      add\n        /* \"#utility.yul\":394:400   */\n      dup5\n        /* \"#utility.yul\":352:421   */\n      tag_19\n      jump\t// in\n    tag_25:\n        /* \"#utility.yul\":210:428   */\n      swap3\n      swap2\n      pop\n      pop\n      jump\t// out\n\n    auxdata: 0xa26469706673582212203df542bb51295d35f499a2e0ed2ca2acf00eb83537643e930d55368c8da1e5a764736f6c63430008110033\n}\n",
				"bytecode": {
					"linkReferences": {},
					"object": "6080604052600a600055601460015534801561001a57600080fd5b5061010a8061002a6000396000f3fe6080604052348015600f57600080fd5b5060043610603c5760003560e01c80630b7f16651460415780630c55699c14605b578063ca0b5ad9146075575b600080fd5b6047608f565b6040516052919060bb565b60405180910390f35b60616099565b604051606c919060bb565b60405180910390f35b607b609f565b6040516086919060bb565b60405180910390f35b6000600154905090565b60005481565b600090565b6000819050919050565b60b58160a4565b82525050565b600060208201905060ce600083018460ae565b9291505056fea26469706673582212203df542bb51295d35f499a2e0ed2ca2acf00eb83537643e930d55368c8da1e5a764736f6c63430008110033",
					"opcodes": "PUSH1 0x80 PUSH1 0x40 MSTORE PUSH1 0xA PUSH1 0x0 SSTORE PUSH1 0x14 PUSH1 0x1 SSTORE CALLVALUE DUP1 ISZERO PUSH2 0x1A JUMPI PUSH1 0x0 DUP1 REVERT JUMPDEST POP PUSH2 0x10A DUP1 PUSH2 0x2A PUSH1 0x0 CODECOPY PUSH1 0x0 RETURN INVALID PUSH1 0x80 PUSH1 0x40 MSTORE CALLVALUE DUP1 ISZERO PUSH1 0xF JUMPI PUSH1 0x0 DUP1 REVERT JUMPDEST POP PUSH1 0x4 CALLDATASIZE LT PUSH1 0x3C JUMPI PUSH1 0x0 CALLDATALOAD PUSH1 0xE0 SHR DUP1 PUSH4 0xB7F1665 EQ PUSH1 0x41 JUMPI DUP1 PUSH4 0xC55699C EQ PUSH1 0x5B JUMPI DUP1 PUSH4 0xCA0B5AD9 EQ PUSH1 0x75 JUMPI JUMPDEST PUSH1 0x0 DUP1 REVERT JUMPDEST PUSH1 0x47 PUSH1 0x8F JUMP JUMPDEST PUSH1 0x40 MLOAD PUSH1 0x52 SWAP2 SWAP1 PUSH1 0xBB JUMP JUMPDEST PUSH1 0x40 MLOAD DUP1 SWAP2 SUB SWAP1 RETURN JUMPDEST PUSH1 0x61 PUSH1 0x99 JUMP JUMPDEST PUSH1 0x40 MLOAD PUSH1 0x6C SWAP2 SWAP1 PUSH1 0xBB JUMP JUMPDEST PUSH1 0x40 MLOAD DUP1 SWAP2 SUB SWAP1 RETURN JUMPDEST PUSH1 0x7B PUSH1 0x9F JUMP JUMPDEST PUSH1 0x40 MLOAD PUSH1 0x86 SWAP2 SWAP1 PUSH1 0xBB JUMP JUMPDEST PUSH1 0x40 MLOAD DUP1 SWAP2 SUB SWAP1 RETURN JUMPDEST PUSH1 0x0 PUSH1 0x1 SLOAD SWAP1 POP SWAP1 JUMP JUMPDEST PUSH1 0x0 SLOAD DUP2 JUMP JUMPDEST PUSH1 0x0 SWAP1 JUMP JUMPDEST PUSH1 0x0 DUP2 SWAP1 POP SWAP2 SWAP1 POP JUMP JUMPDEST PUSH1 0xB5 DUP2 PUSH1 0xA4 JUMP JUMPDEST DUP3 MSTORE POP POP JUMP JUMPDEST PUSH1 0x0 PUSH1 0x20 DUP3 ADD SWAP1 POP PUSH1 0xCE PUSH1 0x0 DUP4 ADD DUP5 PUSH1 0xAE JUMP JUMPDEST SWAP3 SWAP2 POP POP JUMP INVALID LOG2 PUSH5 0x6970667358 0x22 SLT KECCAK256 RETURNDATASIZE CREATE2 TIMESTAMP 0xBB MLOAD 0x29 0x5D CALLDATALOAD DELEGATECALL SWAP10 LOG2 0xE0 0xED 0x2C LOG2 0xAC CREATE 0xE 0xB8 CALLDATALOAD CALLDATACOPY PUSH5 0x3E930D5536 DUP13 DUP14 LOG1 0xE5 0xA7 PUSH5 0x736F6C6343 STOP ADDMOD GT STOP CALLER "
				},
				"gasEstimates": {
					"creation": {
						"codeDepositCost": "53200",
						"executionCost": "44317",
						"totalCost": "97517"
					},
					"external": {
						"getPrivateFunction()": "351",
						"getY()": "2415",
						"x()": "2429"
					},
					"internal": {
						"internalFunction()": "infinite",
						"privateFunction()": "infinite"
					}
				},
				"methodIdentifiers": {
					"getPrivateFunction()": "ca0b5ad9",
					"getY()": "0b7f1665",
					"x()": "0c55699c"
				}
			},
			"storageLayout": {
				"storage": [
					{
						"astId": 4,
						"contract": "contracts/FunctionVisibilitySpecifiers.sol:FunctionVisibilitySpecifiers",
						"label": "x",
						"offset": 0,
						"slot": "0",
						"type": "t_int256"
					},
					{
						"astId": 7,
						"contract": "contracts/FunctionVisibilitySpecifiers.sol:FunctionVisibilitySpecifiers",
						"label": "y",
						"offset": 0,
						"slot": "1",
						"type": "t_int256"
					}
				],
				"types": {
					"t_int256": {
						"encoding": "inplace",
						"label": "int256",
						"numberOfBytes": "32"
					}
				}
			},
			"userdoc": {
				"kind": "user",
				"methods": {},
				"version": 1
			}
		}
	}
}