{
	"contracts/StructsAndEnums.sol": {
		"Wallet2": {
			"abi": [
				{
					"inputs": [],
					"name": "payContract",
					"outputs": [],
					"stateMutability": "payable",
					"type": "function"
				},
				{
					"inputs": [],
					"name": "payment",
					"outputs": [
						{
							"internalType": "address",
							"name": "from",
							"type": "address"
						},
						{
							"internalType": "uint256",
							"name": "amount",
							"type": "uint256"
						}
					],
					"stateMutability": "view",
					"type": "function"
				}
			],
			"devdoc": {
				"kind": "dev",
				"methods": {},
				"version": 1
			},
			"evm": {
				"assembly": "    /* \"contracts/StructsAndEnums.sol\":1460:1877  contract Wallet2 {... */\n  mstore(0x40, 0x80)\n  callvalue\n  dup1\n  iszero\n  tag_1\n  jumpi\n  0x00\n  dup1\n  revert\ntag_1:\n  pop\n  dataSize(sub_0)\n  dup1\n  dataOffset(sub_0)\n  0x00\n  codecopy\n  0x00\n  return\nstop\n\nsub_0: assembly {\n        /* \"contracts/StructsAndEnums.sol\":1460:1877  contract Wallet2 {... */\n      mstore(0x40, 0x80)\n      jumpi(tag_1, lt(calldatasize, 0x04))\n      shr(0xe0, calldataload(0x00))\n      dup1\n      0x42f6487a\n      eq\n      tag_2\n      jumpi\n      dup1\n      0xecb0b862\n      eq\n      tag_3\n      jumpi\n    tag_1:\n      0x00\n      dup1\n      revert\n        /* \"contracts/StructsAndEnums.sol\":1628:1664  PaymentReceivedStruct public payment */\n    tag_2:\n      callvalue\n      dup1\n      iszero\n      tag_4\n      jumpi\n      0x00\n      dup1\n      revert\n    tag_4:\n      pop\n      sload(0x00)\n      sload(0x01)\n      tag_5\n      swap2\n      sub(shl(0xa0, 0x01), 0x01)\n      and\n      swap1\n      dup3\n      jump\n    tag_5:\n      0x40\n      dup1\n      mload\n      sub(shl(0xa0, 0x01), 0x01)\n        /* \"#utility.yul\":206:238   */\n      swap1\n      swap4\n      and\n        /* \"#utility.yul\":188:239   */\n      dup4\n      mstore\n        /* \"#utility.yul\":270:272   */\n      0x20\n        /* \"#utility.yul\":255:273   */\n      dup4\n      add\n        /* \"#utility.yul\":248:282   */\n      swap2\n      swap1\n      swap2\n      mstore\n        /* \"#utility.yul\":161:179   */\n      add\n        /* \"contracts/StructsAndEnums.sol\":1628:1664  PaymentReceivedStruct public payment */\n      mload(0x40)\n      dup1\n      swap2\n      sub\n      swap1\n      return\n        /* \"contracts/StructsAndEnums.sol\":1673:1874  function payContract() public payable {... */\n    tag_3:\n      tag_9\n        /* \"contracts/StructsAndEnums.sol\":1804:1811  payment */\n      0x00\n        /* \"contracts/StructsAndEnums.sol\":1804:1829  payment.from = msg.sender */\n      dup1\n      sload\n      not(sub(shl(0xa0, 0x01), 0x01))\n      and\n        /* \"contracts/StructsAndEnums.sol\":1819:1829  msg.sender */\n      caller\n        /* \"contracts/StructsAndEnums.sol\":1804:1829  payment.from = msg.sender */\n      or\n      swap1\n      sstore\n        /* \"contracts/StructsAndEnums.sol\":1857:1866  msg.value */\n      callvalue\n        /* \"contracts/StructsAndEnums.sol\":1804:1829  payment.from = msg.sender */\n      0x01\n        /* \"contracts/StructsAndEnums.sol\":1840:1866  payment.amount = msg.value */\n      sstore\n        /* \"contracts/StructsAndEnums.sol\":1673:1874  function payContract() public payable {... */\n      jump\n    tag_9:\n      stop\n\n    auxdata: 0xa2646970667358221220729cb3fd0b269099a7573669031a253c1deeafc2ed37c182ad3cae5954596f3364736f6c63430008110033\n}\n",
				"bytecode": {
					"linkReferences": {},
					"object": "608060405234801561001057600080fd5b5060c28061001f6000396000f3fe60806040526004361060265760003560e01c806342f6487a14602b578063ecb0b862146070575b600080fd5b348015603657600080fd5b50600054600154604d916001600160a01b03169082565b604080516001600160a01b03909316835260208301919091520160405180910390f35b608a600080546001600160a01b0319163317905534600155565b00fea2646970667358221220729cb3fd0b269099a7573669031a253c1deeafc2ed37c182ad3cae5954596f3364736f6c63430008110033",
					"opcodes": "PUSH1 0x80 PUSH1 0x40 MSTORE CALLVALUE DUP1 ISZERO PUSH2 0x10 JUMPI PUSH1 0x0 DUP1 REVERT JUMPDEST POP PUSH1 0xC2 DUP1 PUSH2 0x1F PUSH1 0x0 CODECOPY PUSH1 0x0 RETURN INVALID PUSH1 0x80 PUSH1 0x40 MSTORE PUSH1 0x4 CALLDATASIZE LT PUSH1 0x26 JUMPI PUSH1 0x0 CALLDATALOAD PUSH1 0xE0 SHR DUP1 PUSH4 0x42F6487A EQ PUSH1 0x2B JUMPI DUP1 PUSH4 0xECB0B862 EQ PUSH1 0x70 JUMPI JUMPDEST PUSH1 0x0 DUP1 REVERT JUMPDEST CALLVALUE DUP1 ISZERO PUSH1 0x36 JUMPI PUSH1 0x0 DUP1 REVERT JUMPDEST POP PUSH1 0x0 SLOAD PUSH1 0x1 SLOAD PUSH1 0x4D SWAP2 PUSH1 0x1 PUSH1 0x1 PUSH1 0xA0 SHL SUB AND SWAP1 DUP3 JUMP JUMPDEST PUSH1 0x40 DUP1 MLOAD PUSH1 0x1 PUSH1 0x1 PUSH1 0xA0 SHL SUB SWAP1 SWAP4 AND DUP4 MSTORE PUSH1 0x20 DUP4 ADD SWAP2 SWAP1 SWAP2 MSTORE ADD PUSH1 0x40 MLOAD DUP1 SWAP2 SUB SWAP1 RETURN JUMPDEST PUSH1 0x8A PUSH1 0x0 DUP1 SLOAD PUSH1 0x1 PUSH1 0x1 PUSH1 0xA0 SHL SUB NOT AND CALLER OR SWAP1 SSTORE CALLVALUE PUSH1 0x1 SSTORE JUMP JUMPDEST STOP INVALID LOG2 PUSH5 0x6970667358 0x22 SLT KECCAK256 PUSH19 0x9CB3FD0B269099A7573669031A253C1DEEAFC2 0xED CALLDATACOPY 0xC1 DUP3 0xAD EXTCODECOPY 0xAE MSIZE SLOAD MSIZE PUSH16 0x3364736F6C6343000811003300000000 "
				},
				"gasEstimates": {
					"creation": {
						"codeDepositCost": "38800",
						"executionCost": "93",
						"totalCost": "38893"
					},
					"external": {
						"payContract()": "46448",
						"payment()": "4433"
					}
				},
				"methodIdentifiers": {
					"payContract()": "ecb0b862",
					"payment()": "42f6487a"
				}
			},
			"storageLayout": {
				"storage": [
					{
						"astId": 144,
						"contract": "contracts/StructsAndEnums.sol:Wallet2",
						"label": "payment",
						"offset": 0,
						"slot": "0",
						"type": "t_struct(PaymentReceivedStruct)141_storage"
					}
				],
				"types": {
					"t_address": {
						"encoding": "inplace",
						"label": "address",
						"numberOfBytes": "20"
					},
					"t_struct(PaymentReceivedStruct)141_storage": {
						"encoding": "inplace",
						"label": "struct Wallet2.PaymentReceivedStruct",
						"members": [
							{
								"astId": 138,
								"contract": "contracts/StructsAndEnums.sol:Wallet2",
								"label": "from",
								"offset": 0,
								"slot": "0",
								"type": "t_address"
							},
							{
								"astId": 140,
								"contract": "contracts/StructsAndEnums.sol:Wallet2",
								"label": "amount",
								"offset": 0,
								"slot": "1",
								"type": "t_uint256"
							}
						],
						"numberOfBytes": "64"
					},
					"t_uint256": {
						"encoding": "inplace",
						"label": "uint256",
						"numberOfBytes": "32"
					}
				}
			},
			"userdoc": {
				"kind": "user",
				"methods": {},
				"version": 1
			}
		}
	}
}