{
	"contracts/StructsAndEnums.sol": {
		"Academy": {
			"abi": [
				{
					"inputs": [
						{
							"internalType": "uint256",
							"name": "_age",
							"type": "uint256"
						},
						{
							"internalType": "string",
							"name": "_name",
							"type": "string"
						}
					],
					"stateMutability": "nonpayable",
					"type": "constructor"
				},
				{
					"inputs": [],
					"name": "academyInstructor",
					"outputs": [
						{
							"internalType": "uint256",
							"name": "age",
							"type": "uint256"
						},
						{
							"internalType": "string",
							"name": "name",
							"type": "string"
						},
						{
							"internalType": "address",
							"name": "addr",
							"type": "address"
						}
					],
					"stateMutability": "view",
					"type": "function"
				},
				{
					"inputs": [
						{
							"internalType": "uint256",
							"name": "_age",
							"type": "uint256"
						},
						{
							"internalType": "string",
							"name": "_name",
							"type": "string"
						},
						{
							"internalType": "address",
							"name": "_addr",
							"type": "address"
						}
					],
					"name": "changeInstructor",
					"outputs": [],
					"stateMutability": "nonpayable",
					"type": "function"
				},
				{
					"inputs": [
						{
							"internalType": "uint256",
							"name": "_age",
							"type": "uint256"
						},
						{
							"internalType": "string",
							"name": "_name",
							"type": "string"
						},
						{
							"internalType": "address",
							"name": "_addr",
							"type": "address"
						}
					],
					"name": "differentApproachToChangeInstructor",
					"outputs": [],
					"stateMutability": "nonpayable",
					"type": "function"
				}
			],
			"devdoc": {
				"kind": "dev",
				"methods": {},
				"version": 1
			},
			"evm": {
				"assembly": "    /* \"contracts/StructsAndEnums.sol\":173:904  contract Academy {... */\n  mstore(0x40, 0x80)\n    /* \"contracts/StructsAndEnums.sol\":241:419  constructor(uint _age, string memory _name) {... */\n  callvalue\n  dup1\n  iszero\n  tag_1\n  jumpi\n  0x00\n  dup1\n  revert\ntag_1:\n  pop\n  mload(0x40)\n  sub(codesize, bytecodeSize)\n  dup1\n  bytecodeSize\n  dup4\n  codecopy\n  dup2\n  add\n  0x40\n  dup2\n  swap1\n  mstore\n  tag_2\n  swap2\n  tag_3\n  jump\t// in\ntag_2:\n    /* \"contracts/StructsAndEnums.sol\":296:313  academyInstructor */\n  0x00\n    /* \"contracts/StructsAndEnums.sol\":296:324  academyInstructor.age = _age */\n  dup3\n  swap1\n  sstore\n    /* \"contracts/StructsAndEnums.sol\":335:357  academyInstructor.name */\n  0x01\n    /* \"contracts/StructsAndEnums.sol\":335:365  academyInstructor.name = _name */\n  tag_6\n    /* \"contracts/StructsAndEnums.sol\":360:365  _name */\n  dup3\n    /* \"contracts/StructsAndEnums.sol\":335:357  academyInstructor.name */\n  dup3\n    /* \"contracts/StructsAndEnums.sol\":335:365  academyInstructor.name = _name */\n  tag_7\n  jump\t// in\ntag_6:\n  pop\n  pop\n    /* \"contracts/StructsAndEnums.sol\":376:398  academyInstructor.addr */\n  0x02\n    /* \"contracts/StructsAndEnums.sol\":376:411  academyInstructor.addr = msg.sender */\n  dup1\n  sload\n  not(sub(shl(0xa0, 0x01), 0x01))\n  and\n    /* \"contracts/StructsAndEnums.sol\":401:411  msg.sender */\n  caller\n    /* \"contracts/StructsAndEnums.sol\":376:411  academyInstructor.addr = msg.sender */\n  or\n  swap1\n  sstore\n  pop\n    /* \"contracts/StructsAndEnums.sol\":173:904  contract Academy {... */\n  jump(tag_14)\n    /* \"#utility.yul\":14:141   */\ntag_9:\n    /* \"#utility.yul\":75:85   */\n  0x4e487b71\n    /* \"#utility.yul\":70:73   */\n  0xe0\n    /* \"#utility.yul\":66:86   */\n  shl\n    /* \"#utility.yul\":63:64   */\n  0x00\n    /* \"#utility.yul\":56:87   */\n  mstore\n    /* \"#utility.yul\":106:110   */\n  0x41\n    /* \"#utility.yul\":103:104   */\n  0x04\n    /* \"#utility.yul\":96:111   */\n  mstore\n    /* \"#utility.yul\":130:134   */\n  0x24\n    /* \"#utility.yul\":127:128   */\n  0x00\n    /* \"#utility.yul\":120:135   */\n  revert\n    /* \"#utility.yul\":146:1249   */\ntag_3:\n    /* \"#utility.yul\":235:241   */\n  0x00\n    /* \"#utility.yul\":243:249   */\n  dup1\n    /* \"#utility.yul\":296:298   */\n  0x40\n    /* \"#utility.yul\":284:293   */\n  dup4\n    /* \"#utility.yul\":275:282   */\n  dup6\n    /* \"#utility.yul\":271:294   */\n  sub\n    /* \"#utility.yul\":267:299   */\n  slt\n    /* \"#utility.yul\":264:316   */\n  iszero\n  tag_17\n  jumpi\n    /* \"#utility.yul\":312:313   */\n  0x00\n    /* \"#utility.yul\":309:310   */\n  dup1\n    /* \"#utility.yul\":302:314   */\n  revert\n    /* \"#utility.yul\":264:316   */\ntag_17:\n    /* \"#utility.yul\":335:351   */\n  dup3\n  mload\n    /* \"#utility.yul\":370:372   */\n  0x20\n    /* \"#utility.yul\":401:419   */\n  dup1\n  dup6\n  add\n    /* \"#utility.yul\":395:420   */\n  mload\n    /* \"#utility.yul\":335:351   */\n  swap2\n  swap4\n  pop\n    /* \"#utility.yul\":370:372   */\n  swap1\n  sub(shl(0x40, 0x01), 0x01)\n    /* \"#utility.yul\":469:483   */\n  dup1\n  dup3\n  gt\n    /* \"#utility.yul\":466:500   */\n  iszero\n  tag_18\n  jumpi\n    /* \"#utility.yul\":496:497   */\n  0x00\n    /* \"#utility.yul\":493:494   */\n  dup1\n    /* \"#utility.yul\":486:498   */\n  revert\n    /* \"#utility.yul\":466:500   */\ntag_18:\n    /* \"#utility.yul\":534:540   */\n  dup2\n    /* \"#utility.yul\":523:532   */\n  dup7\n    /* \"#utility.yul\":519:541   */\n  add\n    /* \"#utility.yul\":509:541   */\n  swap2\n  pop\n    /* \"#utility.yul\":579:586   */\n  dup7\n    /* \"#utility.yul\":572:576   */\n  0x1f\n    /* \"#utility.yul\":568:570   */\n  dup4\n    /* \"#utility.yul\":564:577   */\n  add\n    /* \"#utility.yul\":560:587   */\n  slt\n    /* \"#utility.yul\":550:605   */\n  tag_19\n  jumpi\n    /* \"#utility.yul\":601:602   */\n  0x00\n    /* \"#utility.yul\":598:599   */\n  dup1\n    /* \"#utility.yul\":591:603   */\n  revert\n    /* \"#utility.yul\":550:605   */\ntag_19:\n    /* \"#utility.yul\":630:632   */\n  dup2\n    /* \"#utility.yul\":624:633   */\n  mload\n    /* \"#utility.yul\":652:654   */\n  dup2\n    /* \"#utility.yul\":648:650   */\n  dup2\n    /* \"#utility.yul\":645:655   */\n  gt\n    /* \"#utility.yul\":642:678   */\n  iszero\n  tag_21\n  jumpi\n    /* \"#utility.yul\":658:676   */\n  tag_21\n  tag_9\n  jump\t// in\ntag_21:\n    /* \"#utility.yul\":733:735   */\n  0x40\n    /* \"#utility.yul\":727:736   */\n  mload\n    /* \"#utility.yul\":701:703   */\n  0x1f\n    /* \"#utility.yul\":787:800   */\n  dup3\n  add\n  not(0x1f)\n    /* \"#utility.yul\":783:805   */\n  swap1\n  dup2\n  and\n    /* \"#utility.yul\":807:809   */\n  0x3f\n    /* \"#utility.yul\":779:810   */\n  add\n    /* \"#utility.yul\":775:815   */\n  and\n    /* \"#utility.yul\":763:816   */\n  dup2\n  add\n  swap1\n    /* \"#utility.yul\":831:849   */\n  dup4\n  dup3\n  gt\n    /* \"#utility.yul\":851:873   */\n  dup2\n  dup4\n  lt\n    /* \"#utility.yul\":828:874   */\n  or\n    /* \"#utility.yul\":825:897   */\n  iszero\n  tag_23\n  jumpi\n    /* \"#utility.yul\":877:895   */\n  tag_23\n  tag_9\n  jump\t// in\ntag_23:\n    /* \"#utility.yul\":917:927   */\n  dup2\n    /* \"#utility.yul\":913:915   */\n  0x40\n    /* \"#utility.yul\":906:928   */\n  mstore\n    /* \"#utility.yul\":952:954   */\n  dup3\n    /* \"#utility.yul\":944:950   */\n  dup2\n    /* \"#utility.yul\":937:955   */\n  mstore\n    /* \"#utility.yul\":992:999   */\n  dup10\n    /* \"#utility.yul\":987:989   */\n  dup7\n    /* \"#utility.yul\":982:984   */\n  dup5\n    /* \"#utility.yul\":978:980   */\n  dup8\n    /* \"#utility.yul\":974:985   */\n  add\n    /* \"#utility.yul\":970:990   */\n  add\n    /* \"#utility.yul\":967:1000   */\n  gt\n    /* \"#utility.yul\":964:1017   */\n  iszero\n  tag_24\n  jumpi\n    /* \"#utility.yul\":1013:1014   */\n  0x00\n    /* \"#utility.yul\":1010:1011   */\n  dup1\n    /* \"#utility.yul\":1003:1015   */\n  revert\n    /* \"#utility.yul\":964:1017   */\ntag_24:\n    /* \"#utility.yul\":1035:1036   */\n  0x00\n    /* \"#utility.yul\":1026:1036   */\n  swap4\n  pop\n    /* \"#utility.yul\":1045:1174   */\ntag_25:\n    /* \"#utility.yul\":1059:1061   */\n  dup3\n    /* \"#utility.yul\":1056:1057   */\n  dup5\n    /* \"#utility.yul\":1053:1062   */\n  lt\n    /* \"#utility.yul\":1045:1174   */\n  iszero\n  tag_27\n  jumpi\n    /* \"#utility.yul\":1147:1157   */\n  dup5\n  dup5\n  add\n    /* \"#utility.yul\":1143:1162   */\n  dup7\n  add\n    /* \"#utility.yul\":1137:1163   */\n  mload\n    /* \"#utility.yul\":1116:1130   */\n  dup2\n  dup6\n  add\n    /* \"#utility.yul\":1112:1135   */\n  dup8\n  add\n    /* \"#utility.yul\":1105:1164   */\n  mstore\n    /* \"#utility.yul\":1070:1080   */\n  swap3\n  dup6\n  add\n  swap3\n    /* \"#utility.yul\":1045:1174   */\n  jump(tag_25)\ntag_27:\n    /* \"#utility.yul\":1216:1217   */\n  0x00\n    /* \"#utility.yul\":1211:1213   */\n  dup7\n    /* \"#utility.yul\":1206:1208   */\n  dup5\n    /* \"#utility.yul\":1198:1204   */\n  dup4\n    /* \"#utility.yul\":1194:1209   */\n  add\n    /* \"#utility.yul\":1190:1214   */\n  add\n    /* \"#utility.yul\":1183:1218   */\n  mstore\n    /* \"#utility.yul\":1237:1243   */\n  dup1\n    /* \"#utility.yul\":1227:1243   */\n  swap7\n  pop\n  pop\n  pop\n  pop\n  pop\n  pop\n  pop\n    /* \"#utility.yul\":146:1249   */\n  swap3\n  pop\n  swap3\n  swap1\n  pop\n  jump\t// out\n    /* \"#utility.yul\":1254:1634   */\ntag_10:\n    /* \"#utility.yul\":1333:1334   */\n  0x01\n    /* \"#utility.yul\":1329:1341   */\n  dup2\n  dup2\n  shr\n  swap1\n    /* \"#utility.yul\":1376:1388   */\n  dup3\n  and\n  dup1\n    /* \"#utility.yul\":1397:1458   */\n  tag_29\n  jumpi\n    /* \"#utility.yul\":1451:1455   */\n  0x7f\n    /* \"#utility.yul\":1443:1449   */\n  dup3\n    /* \"#utility.yul\":1439:1456   */\n  and\n    /* \"#utility.yul\":1429:1456   */\n  swap2\n  pop\n    /* \"#utility.yul\":1397:1458   */\ntag_29:\n    /* \"#utility.yul\":1504:1506   */\n  0x20\n    /* \"#utility.yul\":1496:1502   */\n  dup3\n    /* \"#utility.yul\":1493:1507   */\n  lt\n    /* \"#utility.yul\":1473:1491   */\n  dup2\n    /* \"#utility.yul\":1470:1508   */\n  sub\n    /* \"#utility.yul\":1467:1628   */\n  tag_30\n  jumpi\n    /* \"#utility.yul\":1550:1560   */\n  0x4e487b71\n    /* \"#utility.yul\":1545:1548   */\n  0xe0\n    /* \"#utility.yul\":1541:1561   */\n  shl\n    /* \"#utility.yul\":1538:1539   */\n  0x00\n    /* \"#utility.yul\":1531:1562   */\n  mstore\n    /* \"#utility.yul\":1585:1589   */\n  0x22\n    /* \"#utility.yul\":1582:1583   */\n  0x04\n    /* \"#utility.yul\":1575:1590   */\n  mstore\n    /* \"#utility.yul\":1613:1617   */\n  0x24\n    /* \"#utility.yul\":1610:1611   */\n  0x00\n    /* \"#utility.yul\":1603:1618   */\n  revert\n    /* \"#utility.yul\":1467:1628   */\ntag_30:\n  pop\n    /* \"#utility.yul\":1254:1634   */\n  swap2\n  swap1\n  pop\n  jump\t// out\n    /* \"#utility.yul\":1765:2310   */\ntag_12:\n    /* \"#utility.yul\":1867:1869   */\n  0x1f\n    /* \"#utility.yul\":1862:1865   */\n  dup3\n    /* \"#utility.yul\":1859:1870   */\n  gt\n    /* \"#utility.yul\":1856:2304   */\n  iszero\n  tag_33\n  jumpi\n    /* \"#utility.yul\":1903:1904   */\n  0x00\n    /* \"#utility.yul\":1928:1933   */\n  dup2\n    /* \"#utility.yul\":1924:1926   */\n  dup2\n    /* \"#utility.yul\":1917:1934   */\n  mstore\n    /* \"#utility.yul\":1973:1977   */\n  0x20\n    /* \"#utility.yul\":1969:1971   */\n  dup2\n    /* \"#utility.yul\":1959:1978   */\n  keccak256\n    /* \"#utility.yul\":2043:2045   */\n  0x1f\n    /* \"#utility.yul\":2031:2041   */\n  dup6\n    /* \"#utility.yul\":2027:2046   */\n  add\n    /* \"#utility.yul\":2024:2025   */\n  0x05\n    /* \"#utility.yul\":2020:2047   */\n  shr\n    /* \"#utility.yul\":2014:2018   */\n  dup2\n    /* \"#utility.yul\":2010:2048   */\n  add\n    /* \"#utility.yul\":2079:2083   */\n  0x20\n    /* \"#utility.yul\":2067:2077   */\n  dup7\n    /* \"#utility.yul\":2064:2084   */\n  lt\n    /* \"#utility.yul\":2061:2108   */\n  iszero\n  tag_34\n  jumpi\n  pop\n    /* \"#utility.yul\":2102:2106   */\n  dup1\n    /* \"#utility.yul\":2061:2108   */\ntag_34:\n    /* \"#utility.yul\":2157:2159   */\n  0x1f\n    /* \"#utility.yul\":2152:2155   */\n  dup6\n    /* \"#utility.yul\":2148:2160   */\n  add\n    /* \"#utility.yul\":2145:2146   */\n  0x05\n    /* \"#utility.yul\":2141:2161   */\n  shr\n    /* \"#utility.yul\":2135:2139   */\n  dup3\n    /* \"#utility.yul\":2131:2162   */\n  add\n    /* \"#utility.yul\":2121:2162   */\n  swap2\n  pop\n    /* \"#utility.yul\":2212:2294   */\ntag_35:\n    /* \"#utility.yul\":2230:2232   */\n  dup2\n    /* \"#utility.yul\":2223:2228   */\n  dup2\n    /* \"#utility.yul\":2220:2233   */\n  lt\n    /* \"#utility.yul\":2212:2294   */\n  iszero\n  tag_37\n  jumpi\n    /* \"#utility.yul\":2275:2292   */\n  dup3\n  dup2\n  sstore\n    /* \"#utility.yul\":2256:2257   */\n  0x01\n    /* \"#utility.yul\":2245:2258   */\n  add\n    /* \"#utility.yul\":2212:2294   */\n  jump(tag_35)\ntag_37:\n    /* \"#utility.yul\":2216:2219   */\n  pop\n  pop\n  pop\n    /* \"#utility.yul\":1856:2304   */\ntag_33:\n    /* \"#utility.yul\":1765:2310   */\n  pop\n  pop\n  pop\n  jump\t// out\n    /* \"#utility.yul\":2486:3838   */\ntag_7:\n    /* \"#utility.yul\":2606:2616   */\n  dup2\n  mload\n  sub(shl(0x40, 0x01), 0x01)\n    /* \"#utility.yul\":2628:2658   */\n  dup2\n  gt\n    /* \"#utility.yul\":2625:2681   */\n  iszero\n  tag_41\n  jumpi\n    /* \"#utility.yul\":2661:2679   */\n  tag_41\n  tag_9\n  jump\t// in\ntag_41:\n    /* \"#utility.yul\":2690:2787   */\n  tag_42\n    /* \"#utility.yul\":2780:2786   */\n  dup2\n    /* \"#utility.yul\":2740:2778   */\n  tag_43\n    /* \"#utility.yul\":2772:2776   */\n  dup5\n    /* \"#utility.yul\":2766:2777   */\n  sload\n    /* \"#utility.yul\":2740:2778   */\n  tag_10\n  jump\t// in\ntag_43:\n    /* \"#utility.yul\":2734:2738   */\n  dup5\n    /* \"#utility.yul\":2690:2787   */\n  tag_12\n  jump\t// in\ntag_42:\n    /* \"#utility.yul\":2842:2846   */\n  0x20\n  dup1\n    /* \"#utility.yul\":2906:2908   */\n  0x1f\n    /* \"#utility.yul\":2895:2909   */\n  dup4\n  gt\n    /* \"#utility.yul\":2923:2924   */\n  0x01\n    /* \"#utility.yul\":2918:3581   */\n  dup2\n  eq\n  tag_45\n  jumpi\n    /* \"#utility.yul\":3625:3626   */\n  0x00\n    /* \"#utility.yul\":3642:3648   */\n  dup5\n    /* \"#utility.yul\":3639:3728   */\n  iszero\n  tag_46\n  jumpi\n  pop\n    /* \"#utility.yul\":3694:3713   */\n  dup6\n  dup4\n  add\n    /* \"#utility.yul\":3688:3714   */\n  mload\n    /* \"#utility.yul\":3639:3728   */\ntag_46:\n  not(0x00)\n    /* \"#utility.yul\":2443:2444   */\n  0x03\n    /* \"#utility.yul\":2439:2450   */\n  dup7\n  swap1\n  shl\n    /* \"#utility.yul\":2435:2459   */\n  shr\n    /* \"#utility.yul\":2431:2460   */\n  not\n    /* \"#utility.yul\":2421:2461   */\n  and\n    /* \"#utility.yul\":2467:2468   */\n  0x01\n    /* \"#utility.yul\":2463:2474   */\n  dup6\n  swap1\n  shl\n    /* \"#utility.yul\":2418:2475   */\n  or\n    /* \"#utility.yul\":3741:3822   */\n  dup6\n  sstore\n    /* \"#utility.yul\":2888:3832   */\n  jump(tag_37)\n    /* \"#utility.yul\":2918:3581   */\ntag_45:\n    /* \"#utility.yul\":1712:1713   */\n  0x00\n    /* \"#utility.yul\":1705:1719   */\n  dup6\n  dup2\n  mstore\n    /* \"#utility.yul\":1749:1753   */\n  0x20\n    /* \"#utility.yul\":1736:1754   */\n  dup2\n  keccak256\n  not(0x1f)\n    /* \"#utility.yul\":2954:2974   */\n  dup7\n  and\n  swap2\n    /* \"#utility.yul\":3072:3308   */\ntag_49:\n    /* \"#utility.yul\":3086:3093   */\n  dup3\n    /* \"#utility.yul\":3083:3084   */\n  dup2\n    /* \"#utility.yul\":3080:3094   */\n  lt\n    /* \"#utility.yul\":3072:3308   */\n  iszero\n  tag_51\n  jumpi\n    /* \"#utility.yul\":3175:3194   */\n  dup9\n  dup7\n  add\n    /* \"#utility.yul\":3169:3195   */\n  mload\n    /* \"#utility.yul\":3154:3196   */\n  dup3\n  sstore\n    /* \"#utility.yul\":3267:3294   */\n  swap5\n  dup5\n  add\n  swap5\n    /* \"#utility.yul\":3235:3236   */\n  0x01\n    /* \"#utility.yul\":3223:3237   */\n  swap1\n  swap2\n  add\n  swap1\n    /* \"#utility.yul\":3102:3121   */\n  dup5\n  add\n    /* \"#utility.yul\":3072:3308   */\n  jump(tag_49)\ntag_51:\n    /* \"#utility.yul\":3076:3079   */\n  pop\n    /* \"#utility.yul\":3336:3342   */\n  dup6\n    /* \"#utility.yul\":3327:3334   */\n  dup3\n    /* \"#utility.yul\":3324:3343   */\n  lt\n    /* \"#utility.yul\":3321:3522   */\n  iszero\n  tag_52\n  jumpi\n    /* \"#utility.yul\":3397:3416   */\n  dup8\n  dup6\n  add\n    /* \"#utility.yul\":3391:3417   */\n  mload\n  not(0x00)\n    /* \"#utility.yul\":3480:3481   */\n  0x03\n    /* \"#utility.yul\":3476:3490   */\n  dup9\n  swap1\n  shl\n    /* \"#utility.yul\":3492:3495   */\n  0xf8\n    /* \"#utility.yul\":3472:3496   */\n  and\n    /* \"#utility.yul\":3468:3505   */\n  shr\n    /* \"#utility.yul\":3464:3506   */\n  not\n    /* \"#utility.yul\":3449:3507   */\n  and\n    /* \"#utility.yul\":3434:3508   */\n  dup2\n  sstore\n    /* \"#utility.yul\":3321:3522   */\ntag_52:\n  pop\n  pop\n  pop\n  pop\n  pop\n    /* \"#utility.yul\":3568:3569   */\n  0x01\n    /* \"#utility.yul\":3552:3566   */\n  swap1\n  dup2\n  shl\n    /* \"#utility.yul\":3548:3570   */\n  add\n    /* \"#utility.yul\":3535:3571   */\n  swap1\n  sstore\n  pop\n    /* \"#utility.yul\":2486:3838   */\n  jump\t// out\ntag_14:\n    /* \"contracts/StructsAndEnums.sol\":173:904  contract Academy {... */\n  dataSize(sub_0)\n  dup1\n  dataOffset(sub_0)\n  0x00\n  codecopy\n  0x00\n  return\nstop\n\nsub_0: assembly {\n        /* \"contracts/StructsAndEnums.sol\":173:904  contract Academy {... */\n      mstore(0x40, 0x80)\n      callvalue\n      dup1\n      iszero\n      tag_1\n      jumpi\n      0x00\n      dup1\n      revert\n    tag_1:\n      pop\n      jumpi(tag_2, lt(calldatasize, 0x04))\n      shr(0xe0, calldataload(0x00))\n      dup1\n      0x54248841\n      eq\n      tag_3\n      jumpi\n      dup1\n      0xa46878fb\n      eq\n      tag_4\n      jumpi\n      dup1\n      0xde0c082c\n      eq\n      tag_5\n      jumpi\n    tag_2:\n      0x00\n      dup1\n      revert\n        /* \"contracts/StructsAndEnums.sol\":197:232  Instructor public academyInstructor */\n    tag_3:\n      tag_6\n      tag_7\n      jump\t// in\n    tag_6:\n      mload(0x40)\n      tag_8\n      swap4\n      swap3\n      swap2\n      swap1\n      tag_9\n      jump\t// in\n    tag_8:\n      mload(0x40)\n      dup1\n      swap2\n      sub\n      swap1\n      return\n        /* \"contracts/StructsAndEnums.sol\":427:636  function changeInstructor(uint _age, string memory _name, address _addr) public {... */\n    tag_4:\n      tag_10\n      tag_11\n      calldatasize\n      0x04\n      tag_12\n      jump\t// in\n    tag_11:\n      tag_13\n      jump\t// in\n    tag_10:\n      stop\n        /* \"contracts/StructsAndEnums.sol\":644:901  function differentApproachToChangeInstructor(uint _age, string memory _name, address _addr) public {... */\n    tag_5:\n      tag_10\n      tag_15\n      calldatasize\n      0x04\n      tag_12\n      jump\t// in\n    tag_15:\n      tag_16\n      jump\t// in\n        /* \"contracts/StructsAndEnums.sol\":197:232  Instructor public academyInstructor */\n    tag_7:\n      0x00\n      dup1\n      sload\n      0x01\n      dup1\n      sload\n      swap2\n      swap3\n      swap2\n      tag_17\n      swap1\n      tag_18\n      jump\t// in\n    tag_17:\n      dup1\n      0x1f\n      add\n      0x20\n      dup1\n      swap2\n      div\n      mul\n      0x20\n      add\n      mload(0x40)\n      swap1\n      dup2\n      add\n      0x40\n      mstore\n      dup1\n      swap3\n      swap2\n      swap1\n      dup2\n      dup2\n      mstore\n      0x20\n      add\n      dup3\n      dup1\n      sload\n      tag_19\n      swap1\n      tag_18\n      jump\t// in\n    tag_19:\n      dup1\n      iszero\n      tag_20\n      jumpi\n      dup1\n      0x1f\n      lt\n      tag_21\n      jumpi\n      0x0100\n      dup1\n      dup4\n      sload\n      div\n      mul\n      dup4\n      mstore\n      swap2\n      0x20\n      add\n      swap2\n      jump(tag_20)\n    tag_21:\n      dup3\n      add\n      swap2\n      swap1\n      0x00\n      mstore\n      keccak256(0x00, 0x20)\n      swap1\n    tag_22:\n      dup2\n      sload\n      dup2\n      mstore\n      swap1\n      0x01\n      add\n      swap1\n      0x20\n      add\n      dup1\n      dup4\n      gt\n      tag_22\n      jumpi\n      dup3\n      swap1\n      sub\n      0x1f\n      and\n      dup3\n      add\n      swap2\n    tag_20:\n      pop\n      pop\n      pop\n      0x02\n      swap1\n      swap4\n      add\n      sload\n      swap2\n      swap3\n      pop\n      pop\n      sub(shl(0xa0, 0x01), 0x01)\n      and\n      dup4\n      jump\t// out\n        /* \"contracts/StructsAndEnums.sol\":427:636  function changeInstructor(uint _age, string memory _name, address _addr) public {... */\n    tag_13:\n        /* \"contracts/StructsAndEnums.sol\":518:535  academyInstructor */\n      0x00\n        /* \"contracts/StructsAndEnums.sol\":518:546  academyInstructor.age = _age */\n      dup4\n      swap1\n      sstore\n        /* \"contracts/StructsAndEnums.sol\":557:579  academyInstructor.name */\n      0x01\n        /* \"contracts/StructsAndEnums.sol\":557:587  academyInstructor.name = _name */\n      tag_24\n        /* \"contracts/StructsAndEnums.sol\":582:587  _name */\n      dup4\n        /* \"contracts/StructsAndEnums.sol\":557:579  academyInstructor.name */\n      dup3\n        /* \"contracts/StructsAndEnums.sol\":557:587  academyInstructor.name = _name */\n      tag_25\n      jump\t// in\n    tag_24:\n      pop\n        /* \"contracts/StructsAndEnums.sol\":598:620  academyInstructor.addr */\n      0x02\n        /* \"contracts/StructsAndEnums.sol\":598:628  academyInstructor.addr = _addr */\n      dup1\n      sload\n      not(sub(shl(0xa0, 0x01), 0x01))\n      and\n      sub(shl(0xa0, 0x01), 0x01)\n      swap3\n      swap1\n      swap3\n      and\n      swap2\n      swap1\n      swap2\n      or\n      swap1\n      sstore\n      pop\n      pop\n        /* \"contracts/StructsAndEnums.sol\":427:636  function changeInstructor(uint _age, string memory _name, address _addr) public {... */\n      jump\t// out\n        /* \"contracts/StructsAndEnums.sol\":644:901  function differentApproachToChangeInstructor(uint _age, string memory _name, address _addr) public {... */\n    tag_16:\n        /* \"contracts/StructsAndEnums.sol\":793:842  Instructor({age: _age, name: _name, addr: _addr}) */\n      0x40\n      dup1\n      mload\n      0x60\n      dup2\n      add\n      dup3\n      mstore\n      dup5\n      dup2\n      mstore\n      0x20\n      dup2\n      add\n      dup5\n      swap1\n      mstore\n      sub(shl(0xa0, 0x01), 0x01)\n      dup4\n      and\n      swap2\n      dup2\n      add\n      swap2\n      swap1\n      swap2\n      mstore\n        /* \"contracts/StructsAndEnums.sol\":754:790  Instructor memory inMemoryInstructor */\n      0x00\n        /* \"contracts/StructsAndEnums.sol\":855:893  academyInstructor = inMemoryInstructor */\n      dup5\n      dup2\n      sstore\n        /* \"contracts/StructsAndEnums.sol\":793:842  Instructor({age: _age, name: _name, addr: _addr}) */\n      dup2\n      swap1\n        /* \"contracts/StructsAndEnums.sol\":855:893  academyInstructor = inMemoryInstructor */\n      0x01\n      tag_27\n        /* \"contracts/StructsAndEnums.sol\":822:827  _name */\n      dup7\n        /* \"contracts/StructsAndEnums.sol\":855:893  academyInstructor = inMemoryInstructor */\n      dup3\n      tag_25\n      jump\t// in\n    tag_27:\n      pop\n      0x40\n      swap2\n      swap1\n      swap2\n      add\n      mload\n      0x02\n      swap1\n      swap2\n      add\n      dup1\n      sload\n      not(sub(shl(0xa0, 0x01), 0x01))\n      and\n      sub(shl(0xa0, 0x01), 0x01)\n      swap1\n      swap3\n      and\n      swap2\n      swap1\n      swap2\n      or\n      swap1\n      sstore\n      pop\n      pop\n      pop\n      pop\n        /* \"contracts/StructsAndEnums.sol\":644:901  function differentApproachToChangeInstructor(uint _age, string memory _name, address _addr) public {... */\n      jump\t// out\n        /* \"#utility.yul\":14:733   */\n    tag_9:\n        /* \"#utility.yul\":219:225   */\n      dup4\n        /* \"#utility.yul\":208:217   */\n      dup2\n        /* \"#utility.yul\":201:226   */\n      mstore\n        /* \"#utility.yul\":182:186   */\n      0x00\n        /* \"#utility.yul\":245:247   */\n      0x20\n        /* \"#utility.yul\":283:285   */\n      0x60\n        /* \"#utility.yul\":278:280   */\n      dup2\n        /* \"#utility.yul\":267:276   */\n      dup5\n        /* \"#utility.yul\":263:281   */\n      add\n        /* \"#utility.yul\":256:286   */\n      mstore\n        /* \"#utility.yul\":315:321   */\n      dup5\n        /* \"#utility.yul\":309:322   */\n      mload\n        /* \"#utility.yul\":358:364   */\n      dup1\n        /* \"#utility.yul\":353:355   */\n      0x60\n        /* \"#utility.yul\":342:351   */\n      dup6\n        /* \"#utility.yul\":338:356   */\n      add\n        /* \"#utility.yul\":331:365   */\n      mstore\n        /* \"#utility.yul\":383:384   */\n      0x00\n        /* \"#utility.yul\":393:534   */\n    tag_35:\n        /* \"#utility.yul\":407:413   */\n      dup2\n        /* \"#utility.yul\":404:405   */\n      dup2\n        /* \"#utility.yul\":401:414   */\n      lt\n        /* \"#utility.yul\":393:534   */\n      iszero\n      tag_37\n      jumpi\n        /* \"#utility.yul\":503:517   */\n      dup7\n      dup2\n      add\n        /* \"#utility.yul\":499:522   */\n      dup4\n      add\n        /* \"#utility.yul\":493:523   */\n      mload\n        /* \"#utility.yul\":468:485   */\n      dup6\n      dup3\n      add\n        /* \"#utility.yul\":487:490   */\n      0x80\n        /* \"#utility.yul\":464:491   */\n      add\n        /* \"#utility.yul\":457:524   */\n      mstore\n        /* \"#utility.yul\":422:432   */\n      dup3\n      add\n        /* \"#utility.yul\":393:534   */\n      jump(tag_35)\n    tag_37:\n      pop\n        /* \"#utility.yul\":584:585   */\n      0x00\n        /* \"#utility.yul\":554:576   */\n      dup5\n      dup3\n      add\n        /* \"#utility.yul\":578:581   */\n      0x80\n        /* \"#utility.yul\":550:582   */\n      swap1\n      dup2\n      add\n        /* \"#utility.yul\":543:586   */\n      swap2\n      swap1\n      swap2\n      mstore\n      sub(shl(0xa0, 0x01), 0x01)\n        /* \"#utility.yul\":694:726   */\n      swap6\n      swap1\n      swap6\n      and\n        /* \"#utility.yul\":689:691   */\n      0x40\n        /* \"#utility.yul\":674:692   */\n      dup6\n      add\n        /* \"#utility.yul\":667:727   */\n      mstore\n        /* \"#utility.yul\":647:649   */\n      0x1f\n        /* \"#utility.yul\":626:641   */\n      add\n      not(0x1f)\n        /* \"#utility.yul\":622:651   */\n      and\n        /* \"#utility.yul\":607:652   */\n      swap1\n      swap3\n      add\n        /* \"#utility.yul\":603:658   */\n      swap1\n      swap3\n      add\n      swap5\n        /* \"#utility.yul\":14:733   */\n      swap4\n      pop\n      pop\n      pop\n      pop\n      jump\t// out\n        /* \"#utility.yul\":738:865   */\n    tag_28:\n        /* \"#utility.yul\":799:809   */\n      0x4e487b71\n        /* \"#utility.yul\":794:797   */\n      0xe0\n        /* \"#utility.yul\":790:810   */\n      shl\n        /* \"#utility.yul\":787:788   */\n      0x00\n        /* \"#utility.yul\":780:811   */\n      mstore\n        /* \"#utility.yul\":830:834   */\n      0x41\n        /* \"#utility.yul\":827:828   */\n      0x04\n        /* \"#utility.yul\":820:835   */\n      mstore\n        /* \"#utility.yul\":854:858   */\n      0x24\n        /* \"#utility.yul\":851:852   */\n      0x00\n        /* \"#utility.yul\":844:859   */\n      revert\n        /* \"#utility.yul\":870:1043   */\n    tag_29:\n        /* \"#utility.yul\":938:958   */\n      dup1\n      calldataload\n      sub(shl(0xa0, 0x01), 0x01)\n        /* \"#utility.yul\":987:1018   */\n      dup2\n      and\n        /* \"#utility.yul\":977:1019   */\n      dup2\n      eq\n        /* \"#utility.yul\":967:1037   */\n      tag_40\n      jumpi\n        /* \"#utility.yul\":1033:1034   */\n      0x00\n        /* \"#utility.yul\":1030:1031   */\n      dup1\n        /* \"#utility.yul\":1023:1035   */\n      revert\n        /* \"#utility.yul\":967:1037   */\n    tag_40:\n        /* \"#utility.yul\":870:1043   */\n      swap2\n      swap1\n      pop\n      jump\t// out\n        /* \"#utility.yul\":1048:2112   */\n    tag_12:\n        /* \"#utility.yul\":1135:1141   */\n      0x00\n        /* \"#utility.yul\":1143:1149   */\n      dup1\n        /* \"#utility.yul\":1151:1157   */\n      0x00\n        /* \"#utility.yul\":1204:1206   */\n      0x60\n        /* \"#utility.yul\":1192:1201   */\n      dup5\n        /* \"#utility.yul\":1183:1190   */\n      dup7\n        /* \"#utility.yul\":1179:1202   */\n      sub\n        /* \"#utility.yul\":1175:1207   */\n      slt\n        /* \"#utility.yul\":1172:1224   */\n      iszero\n      tag_42\n      jumpi\n        /* \"#utility.yul\":1220:1221   */\n      0x00\n        /* \"#utility.yul\":1217:1218   */\n      dup1\n        /* \"#utility.yul\":1210:1222   */\n      revert\n        /* \"#utility.yul\":1172:1224   */\n    tag_42:\n        /* \"#utility.yul\":1256:1265   */\n      dup4\n        /* \"#utility.yul\":1243:1266   */\n      calldataload\n        /* \"#utility.yul\":1233:1266   */\n      swap3\n      pop\n        /* \"#utility.yul\":1317:1319   */\n      0x20\n        /* \"#utility.yul\":1306:1315   */\n      dup5\n        /* \"#utility.yul\":1302:1320   */\n      add\n        /* \"#utility.yul\":1289:1321   */\n      calldataload\n        /* \"#utility.yul\":1340:1358   */\n      0xffffffffffffffff\n        /* \"#utility.yul\":1381:1383   */\n      dup1\n        /* \"#utility.yul\":1373:1379   */\n      dup3\n        /* \"#utility.yul\":1370:1384   */\n      gt\n        /* \"#utility.yul\":1367:1401   */\n      iszero\n      tag_43\n      jumpi\n        /* \"#utility.yul\":1397:1398   */\n      0x00\n        /* \"#utility.yul\":1394:1395   */\n      dup1\n        /* \"#utility.yul\":1387:1399   */\n      revert\n        /* \"#utility.yul\":1367:1401   */\n    tag_43:\n        /* \"#utility.yul\":1435:1441   */\n      dup2\n        /* \"#utility.yul\":1424:1433   */\n      dup7\n        /* \"#utility.yul\":1420:1442   */\n      add\n        /* \"#utility.yul\":1410:1442   */\n      swap2\n      pop\n        /* \"#utility.yul\":1480:1487   */\n      dup7\n        /* \"#utility.yul\":1473:1477   */\n      0x1f\n        /* \"#utility.yul\":1469:1471   */\n      dup4\n        /* \"#utility.yul\":1465:1478   */\n      add\n        /* \"#utility.yul\":1461:1488   */\n      slt\n        /* \"#utility.yul\":1451:1506   */\n      tag_44\n      jumpi\n        /* \"#utility.yul\":1502:1503   */\n      0x00\n        /* \"#utility.yul\":1499:1500   */\n      dup1\n        /* \"#utility.yul\":1492:1504   */\n      revert\n        /* \"#utility.yul\":1451:1506   */\n    tag_44:\n        /* \"#utility.yul\":1538:1540   */\n      dup2\n        /* \"#utility.yul\":1525:1541   */\n      calldataload\n        /* \"#utility.yul\":1560:1562   */\n      dup2\n        /* \"#utility.yul\":1556:1558   */\n      dup2\n        /* \"#utility.yul\":1553:1563   */\n      gt\n        /* \"#utility.yul\":1550:1586   */\n      iszero\n      tag_46\n      jumpi\n        /* \"#utility.yul\":1566:1584   */\n      tag_46\n      tag_28\n      jump\t// in\n    tag_46:\n        /* \"#utility.yul\":1641:1643   */\n      0x40\n        /* \"#utility.yul\":1635:1644   */\n      mload\n        /* \"#utility.yul\":1609:1611   */\n      0x1f\n        /* \"#utility.yul\":1695:1708   */\n      dup3\n      add\n      not(0x1f)\n        /* \"#utility.yul\":1691:1713   */\n      swap1\n      dup2\n      and\n        /* \"#utility.yul\":1715:1717   */\n      0x3f\n        /* \"#utility.yul\":1687:1718   */\n      add\n        /* \"#utility.yul\":1683:1723   */\n      and\n        /* \"#utility.yul\":1671:1724   */\n      dup2\n      add\n      swap1\n        /* \"#utility.yul\":1739:1757   */\n      dup4\n      dup3\n      gt\n        /* \"#utility.yul\":1759:1781   */\n      dup2\n      dup4\n      lt\n        /* \"#utility.yul\":1736:1782   */\n      or\n        /* \"#utility.yul\":1733:1805   */\n      iszero\n      tag_48\n      jumpi\n        /* \"#utility.yul\":1785:1803   */\n      tag_48\n      tag_28\n      jump\t// in\n    tag_48:\n        /* \"#utility.yul\":1825:1835   */\n      dup2\n        /* \"#utility.yul\":1821:1823   */\n      0x40\n        /* \"#utility.yul\":1814:1836   */\n      mstore\n        /* \"#utility.yul\":1860:1862   */\n      dup3\n        /* \"#utility.yul\":1852:1858   */\n      dup2\n        /* \"#utility.yul\":1845:1863   */\n      mstore\n        /* \"#utility.yul\":1900:1907   */\n      dup10\n        /* \"#utility.yul\":1895:1897   */\n      0x20\n        /* \"#utility.yul\":1890:1892   */\n      dup5\n        /* \"#utility.yul\":1886:1888   */\n      dup8\n        /* \"#utility.yul\":1882:1893   */\n      add\n        /* \"#utility.yul\":1878:1898   */\n      add\n        /* \"#utility.yul\":1875:1908   */\n      gt\n        /* \"#utility.yul\":1872:1925   */\n      iszero\n      tag_49\n      jumpi\n        /* \"#utility.yul\":1921:1922   */\n      0x00\n        /* \"#utility.yul\":1918:1919   */\n      dup1\n        /* \"#utility.yul\":1911:1923   */\n      revert\n        /* \"#utility.yul\":1872:1925   */\n    tag_49:\n        /* \"#utility.yul\":1977:1979   */\n      dup3\n        /* \"#utility.yul\":1972:1974   */\n      0x20\n        /* \"#utility.yul\":1968:1970   */\n      dup7\n        /* \"#utility.yul\":1964:1975   */\n      add\n        /* \"#utility.yul\":1959:1961   */\n      0x20\n        /* \"#utility.yul\":1951:1957   */\n      dup4\n        /* \"#utility.yul\":1947:1962   */\n      add\n        /* \"#utility.yul\":1934:1980   */\n      calldatacopy\n        /* \"#utility.yul\":2022:2023   */\n      0x00\n        /* \"#utility.yul\":2017:2019   */\n      0x20\n        /* \"#utility.yul\":2012:2014   */\n      dup5\n        /* \"#utility.yul\":2004:2010   */\n      dup4\n        /* \"#utility.yul\":2000:2015   */\n      add\n        /* \"#utility.yul\":1996:2020   */\n      add\n        /* \"#utility.yul\":1989:2024   */\n      mstore\n        /* \"#utility.yul\":2043:2049   */\n      dup1\n        /* \"#utility.yul\":2033:2049   */\n      swap7\n      pop\n      pop\n      pop\n      pop\n      pop\n      pop\n        /* \"#utility.yul\":2068:2106   */\n      tag_50\n        /* \"#utility.yul\":2102:2104   */\n      0x40\n        /* \"#utility.yul\":2091:2100   */\n      dup6\n        /* \"#utility.yul\":2087:2105   */\n      add\n        /* \"#utility.yul\":2068:2106   */\n      tag_29\n      jump\t// in\n    tag_50:\n        /* \"#utility.yul\":2058:2106   */\n      swap1\n      pop\n        /* \"#utility.yul\":1048:2112   */\n      swap3\n      pop\n      swap3\n      pop\n      swap3\n      jump\t// out\n        /* \"#utility.yul\":2117:2497   */\n    tag_18:\n        /* \"#utility.yul\":2196:2197   */\n      0x01\n        /* \"#utility.yul\":2192:2204   */\n      dup2\n      dup2\n      shr\n      swap1\n        /* \"#utility.yul\":2239:2251   */\n      dup3\n      and\n      dup1\n        /* \"#utility.yul\":2260:2321   */\n      tag_52\n      jumpi\n        /* \"#utility.yul\":2314:2318   */\n      0x7f\n        /* \"#utility.yul\":2306:2312   */\n      dup3\n        /* \"#utility.yul\":2302:2319   */\n      and\n        /* \"#utility.yul\":2292:2319   */\n      swap2\n      pop\n        /* \"#utility.yul\":2260:2321   */\n    tag_52:\n        /* \"#utility.yul\":2367:2369   */\n      0x20\n        /* \"#utility.yul\":2359:2365   */\n      dup3\n        /* \"#utility.yul\":2356:2370   */\n      lt\n        /* \"#utility.yul\":2336:2354   */\n      dup2\n        /* \"#utility.yul\":2333:2371   */\n      sub\n        /* \"#utility.yul\":2330:2491   */\n      tag_53\n      jumpi\n        /* \"#utility.yul\":2413:2423   */\n      0x4e487b71\n        /* \"#utility.yul\":2408:2411   */\n      0xe0\n        /* \"#utility.yul\":2404:2424   */\n      shl\n        /* \"#utility.yul\":2401:2402   */\n      0x00\n        /* \"#utility.yul\":2394:2425   */\n      mstore\n        /* \"#utility.yul\":2448:2452   */\n      0x22\n        /* \"#utility.yul\":2445:2446   */\n      0x04\n        /* \"#utility.yul\":2438:2453   */\n      mstore\n        /* \"#utility.yul\":2476:2480   */\n      0x24\n        /* \"#utility.yul\":2473:2474   */\n      0x00\n        /* \"#utility.yul\":2466:2481   */\n      revert\n        /* \"#utility.yul\":2330:2491   */\n    tag_53:\n      pop\n        /* \"#utility.yul\":2117:2497   */\n      swap2\n      swap1\n      pop\n      jump\t// out\n        /* \"#utility.yul\":2628:3173   */\n    tag_31:\n        /* \"#utility.yul\":2730:2732   */\n      0x1f\n        /* \"#utility.yul\":2725:2728   */\n      dup3\n        /* \"#utility.yul\":2722:2733   */\n      gt\n        /* \"#utility.yul\":2719:3167   */\n      iszero\n      tag_56\n      jumpi\n        /* \"#utility.yul\":2766:2767   */\n      0x00\n        /* \"#utility.yul\":2791:2796   */\n      dup2\n        /* \"#utility.yul\":2787:2789   */\n      dup2\n        /* \"#utility.yul\":2780:2797   */\n      mstore\n        /* \"#utility.yul\":2836:2840   */\n      0x20\n        /* \"#utility.yul\":2832:2834   */\n      dup2\n        /* \"#utility.yul\":2822:2841   */\n      keccak256\n        /* \"#utility.yul\":2906:2908   */\n      0x1f\n        /* \"#utility.yul\":2894:2904   */\n      dup6\n        /* \"#utility.yul\":2890:2909   */\n      add\n        /* \"#utility.yul\":2887:2888   */\n      0x05\n        /* \"#utility.yul\":2883:2910   */\n      shr\n        /* \"#utility.yul\":2877:2881   */\n      dup2\n        /* \"#utility.yul\":2873:2911   */\n      add\n        /* \"#utility.yul\":2942:2946   */\n      0x20\n        /* \"#utility.yul\":2930:2940   */\n      dup7\n        /* \"#utility.yul\":2927:2947   */\n      lt\n        /* \"#utility.yul\":2924:2971   */\n      iszero\n      tag_57\n      jumpi\n      pop\n        /* \"#utility.yul\":2965:2969   */\n      dup1\n        /* \"#utility.yul\":2924:2971   */\n    tag_57:\n        /* \"#utility.yul\":3020:3022   */\n      0x1f\n        /* \"#utility.yul\":3015:3018   */\n      dup6\n        /* \"#utility.yul\":3011:3023   */\n      add\n        /* \"#utility.yul\":3008:3009   */\n      0x05\n        /* \"#utility.yul\":3004:3024   */\n      shr\n        /* \"#utility.yul\":2998:3002   */\n      dup3\n        /* \"#utility.yul\":2994:3025   */\n      add\n        /* \"#utility.yul\":2984:3025   */\n      swap2\n      pop\n        /* \"#utility.yul\":3075:3157   */\n    tag_58:\n        /* \"#utility.yul\":3093:3095   */\n      dup2\n        /* \"#utility.yul\":3086:3091   */\n      dup2\n        /* \"#utility.yul\":3083:3096   */\n      lt\n        /* \"#utility.yul\":3075:3157   */\n      iszero\n      tag_60\n      jumpi\n        /* \"#utility.yul\":3138:3155   */\n      dup3\n      dup2\n      sstore\n        /* \"#utility.yul\":3119:3120   */\n      0x01\n        /* \"#utility.yul\":3108:3121   */\n      add\n        /* \"#utility.yul\":3075:3157   */\n      jump(tag_58)\n    tag_60:\n        /* \"#utility.yul\":3079:3082   */\n      pop\n      pop\n      pop\n        /* \"#utility.yul\":2719:3167   */\n    tag_56:\n        /* \"#utility.yul\":2628:3173   */\n      pop\n      pop\n      pop\n      jump\t// out\n        /* \"#utility.yul\":3349:4701   */\n    tag_25:\n        /* \"#utility.yul\":3475:3478   */\n      dup2\n        /* \"#utility.yul\":3469:3479   */\n      mload\n        /* \"#utility.yul\":3502:3520   */\n      0xffffffffffffffff\n        /* \"#utility.yul\":3494:3500   */\n      dup2\n        /* \"#utility.yul\":3491:3521   */\n      gt\n        /* \"#utility.yul\":3488:3544   */\n      iszero\n      tag_64\n      jumpi\n        /* \"#utility.yul\":3524:3542   */\n      tag_64\n      tag_28\n      jump\t// in\n    tag_64:\n        /* \"#utility.yul\":3553:3650   */\n      tag_65\n        /* \"#utility.yul\":3643:3649   */\n      dup2\n        /* \"#utility.yul\":3603:3641   */\n      tag_66\n        /* \"#utility.yul\":3635:3639   */\n      dup5\n        /* \"#utility.yul\":3629:3640   */\n      sload\n        /* \"#utility.yul\":3603:3641   */\n      tag_18\n      jump\t// in\n    tag_66:\n        /* \"#utility.yul\":3597:3601   */\n      dup5\n        /* \"#utility.yul\":3553:3650   */\n      tag_31\n      jump\t// in\n    tag_65:\n        /* \"#utility.yul\":3705:3709   */\n      0x20\n      dup1\n        /* \"#utility.yul\":3769:3771   */\n      0x1f\n        /* \"#utility.yul\":3758:3772   */\n      dup4\n      gt\n        /* \"#utility.yul\":3786:3787   */\n      0x01\n        /* \"#utility.yul\":3781:4444   */\n      dup2\n      eq\n      tag_68\n      jumpi\n        /* \"#utility.yul\":4488:4489   */\n      0x00\n        /* \"#utility.yul\":4505:4511   */\n      dup5\n        /* \"#utility.yul\":4502:4591   */\n      iszero\n      tag_69\n      jumpi\n      pop\n        /* \"#utility.yul\":4557:4576   */\n      dup6\n      dup4\n      add\n        /* \"#utility.yul\":4551:4577   */\n      mload\n        /* \"#utility.yul\":4502:4591   */\n    tag_69:\n      not(0x00)\n        /* \"#utility.yul\":3306:3307   */\n      0x03\n        /* \"#utility.yul\":3302:3313   */\n      dup7\n      swap1\n      shl\n        /* \"#utility.yul\":3298:3322   */\n      shr\n        /* \"#utility.yul\":3294:3323   */\n      not\n        /* \"#utility.yul\":3284:3324   */\n      and\n        /* \"#utility.yul\":3330:3331   */\n      0x01\n        /* \"#utility.yul\":3326:3337   */\n      dup6\n      swap1\n      shl\n        /* \"#utility.yul\":3281:3338   */\n      or\n        /* \"#utility.yul\":4604:4685   */\n      dup6\n      sstore\n        /* \"#utility.yul\":3751:4695   */\n      jump(tag_60)\n        /* \"#utility.yul\":3781:4444   */\n    tag_68:\n        /* \"#utility.yul\":2575:2576   */\n      0x00\n        /* \"#utility.yul\":2568:2582   */\n      dup6\n      dup2\n      mstore\n        /* \"#utility.yul\":2612:2616   */\n      0x20\n        /* \"#utility.yul\":2599:2617   */\n      dup2\n      keccak256\n      not(0x1f)\n        /* \"#utility.yul\":3817:3837   */\n      dup7\n      and\n      swap2\n        /* \"#utility.yul\":3935:4171   */\n    tag_72:\n        /* \"#utility.yul\":3949:3956   */\n      dup3\n        /* \"#utility.yul\":3946:3947   */\n      dup2\n        /* \"#utility.yul\":3943:3957   */\n      lt\n        /* \"#utility.yul\":3935:4171   */\n      iszero\n      tag_74\n      jumpi\n        /* \"#utility.yul\":4038:4057   */\n      dup9\n      dup7\n      add\n        /* \"#utility.yul\":4032:4058   */\n      mload\n        /* \"#utility.yul\":4017:4059   */\n      dup3\n      sstore\n        /* \"#utility.yul\":4130:4157   */\n      swap5\n      dup5\n      add\n      swap5\n        /* \"#utility.yul\":4098:4099   */\n      0x01\n        /* \"#utility.yul\":4086:4100   */\n      swap1\n      swap2\n      add\n      swap1\n        /* \"#utility.yul\":3965:3984   */\n      dup5\n      add\n        /* \"#utility.yul\":3935:4171   */\n      jump(tag_72)\n    tag_74:\n        /* \"#utility.yul\":3939:3942   */\n      pop\n        /* \"#utility.yul\":4199:4205   */\n      dup6\n        /* \"#utility.yul\":4190:4197   */\n      dup3\n        /* \"#utility.yul\":4187:4206   */\n      lt\n        /* \"#utility.yul\":4184:4385   */\n      iszero\n      tag_75\n      jumpi\n        /* \"#utility.yul\":4260:4279   */\n      dup8\n      dup6\n      add\n        /* \"#utility.yul\":4254:4280   */\n      mload\n      not(0x00)\n        /* \"#utility.yul\":4343:4344   */\n      0x03\n        /* \"#utility.yul\":4339:4353   */\n      dup9\n      swap1\n      shl\n        /* \"#utility.yul\":4355:4358   */\n      0xf8\n        /* \"#utility.yul\":4335:4359   */\n      and\n        /* \"#utility.yul\":4331:4368   */\n      shr\n        /* \"#utility.yul\":4327:4369   */\n      not\n        /* \"#utility.yul\":4312:4370   */\n      and\n        /* \"#utility.yul\":4297:4371   */\n      dup2\n      sstore\n        /* \"#utility.yul\":4184:4385   */\n    tag_75:\n      pop\n      pop\n      pop\n      pop\n      pop\n        /* \"#utility.yul\":4431:4432   */\n      0x01\n        /* \"#utility.yul\":4415:4429   */\n      swap1\n      dup2\n      shl\n        /* \"#utility.yul\":4411:4433   */\n      add\n        /* \"#utility.yul\":4398:4434   */\n      swap1\n      sstore\n      pop\n        /* \"#utility.yul\":3349:4701   */\n      jump\t// out\n\n    auxdata: 0xa26469706673582212203c3679def18c2e004e39ba7c5ae8c985a8df8d15e606e63fd908c4664e04b5cc64736f6c63430008110033\n}\n",
				"bytecode": {
					"linkReferences": {},
					"object": "608060405234801561001057600080fd5b5060405161075238038061075283398101604081905261002f91610070565b6000829055600161004082826101cd565b5050600280546001600160a01b031916331790555061028c565b634e487b7160e01b600052604160045260246000fd5b6000806040838503121561008357600080fd5b8251602080850151919350906001600160401b03808211156100a457600080fd5b818601915086601f8301126100b857600080fd5b8151818111156100ca576100ca61005a565b604051601f8201601f19908116603f011681019083821181831017156100f2576100f261005a565b81604052828152898684870101111561010a57600080fd5b600093505b8284101561012c578484018601518185018701529285019261010f565b60008684830101528096505050505050509250929050565b600181811c9082168061015857607f821691505b60208210810361017857634e487b7160e01b600052602260045260246000fd5b50919050565b601f8211156101c857600081815260208120601f850160051c810160208610156101a55750805b601f850160051c820191505b818110156101c4578281556001016101b1565b5050505b505050565b81516001600160401b038111156101e6576101e661005a565b6101fa816101f48454610144565b8461017e565b602080601f83116001811461022f57600084156102175750858301515b600019600386901b1c1916600185901b1785556101c4565b600085815260208120601f198616915b8281101561025e5788860151825594840194600190910190840161023f565b508582101561027c5787850151600019600388901b60f8161c191681555b5050505050600190811b01905550565b6104b78061029b6000396000f3fe608060405234801561001057600080fd5b50600436106100415760003560e01c80635424884114610046578063a46878fb14610066578063de0c082c1461007b575b600080fd5b61004e61008e565b60405161005d939291906101d2565b60405180910390f35b61007961007436600461026d565b610134565b005b61007961008936600461026d565b61016a565b60008054600180549192916100a290610338565b80601f01602080910402602001604051908101604052809291908181526020018280546100ce90610338565b801561011b5780601f106100f05761010080835404028352916020019161011b565b820191906000526020600020905b8154815290600101906020018083116100fe57829003601f168201915b505050600290930154919250506001600160a01b031683565b6000839055600161014583826103c1565b50600280546001600160a01b0319166001600160a01b03929092169190911790555050565b60408051606081018252848152602081018490526001600160a01b038316918101919091526000848155819060016101a286826103c1565b5060409190910151600290910180546001600160a01b0319166001600160a01b0390921691909117905550505050565b83815260006020606081840152845180606085015260005b81811015610206578681018301518582016080015282016101ea565b5060008482016080908101919091526001600160a01b03959095166040850152601f01601f1916909201909201949350505050565b634e487b7160e01b600052604160045260246000fd5b80356001600160a01b038116811461026857600080fd5b919050565b60008060006060848603121561028257600080fd5b83359250602084013567ffffffffffffffff808211156102a157600080fd5b818601915086601f8301126102b557600080fd5b8135818111156102c7576102c761023b565b604051601f8201601f19908116603f011681019083821181831017156102ef576102ef61023b565b8160405282815289602084870101111561030857600080fd5b82602086016020830137600060208483010152809650505050505061032f60408501610251565b90509250925092565b600181811c9082168061034c57607f821691505b60208210810361036c57634e487b7160e01b600052602260045260246000fd5b50919050565b601f8211156103bc57600081815260208120601f850160051c810160208610156103995750805b601f850160051c820191505b818110156103b8578281556001016103a5565b5050505b505050565b815167ffffffffffffffff8111156103db576103db61023b565b6103ef816103e98454610338565b84610372565b602080601f831160018114610424576000841561040c5750858301515b600019600386901b1c1916600185901b1785556103b8565b600085815260208120601f198616915b8281101561045357888601518255948401946001909101908401610434565b50858210156104715787850151600019600388901b60f8161c191681555b5050505050600190811b0190555056fea26469706673582212203c3679def18c2e004e39ba7c5ae8c985a8df8d15e606e63fd908c4664e04b5cc64736f6c63430008110033",
					"opcodes": "PUSH1 0x80 PUSH1 0x40 MSTORE CALLVALUE DUP1 ISZERO PUSH2 0x10 JUMPI PUSH1 0x0 DUP1 REVERT JUMPDEST POP PUSH1 0x40 MLOAD PUSH2 0x752 CODESIZE SUB DUP1 PUSH2 0x752 DUP4 CODECOPY DUP2 ADD PUSH1 0x40 DUP2 SWAP1 MSTORE PUSH2 0x2F SWAP2 PUSH2 0x70 JUMP JUMPDEST PUSH1 0x0 DUP3 SWAP1 SSTORE PUSH1 0x1 PUSH2 0x40 DUP3 DUP3 PUSH2 0x1CD JUMP JUMPDEST POP POP PUSH1 0x2 DUP1 SLOAD PUSH1 0x1 PUSH1 0x1 PUSH1 0xA0 SHL SUB NOT AND CALLER OR SWAP1 SSTORE POP PUSH2 0x28C JUMP JUMPDEST PUSH4 0x4E487B71 PUSH1 0xE0 SHL PUSH1 0x0 MSTORE PUSH1 0x41 PUSH1 0x4 MSTORE PUSH1 0x24 PUSH1 0x0 REVERT JUMPDEST PUSH1 0x0 DUP1 PUSH1 0x40 DUP4 DUP6 SUB SLT ISZERO PUSH2 0x83 JUMPI PUSH1 0x0 DUP1 REVERT JUMPDEST DUP3 MLOAD PUSH1 0x20 DUP1 DUP6 ADD MLOAD SWAP2 SWAP4 POP SWAP1 PUSH1 0x1 PUSH1 0x1 PUSH1 0x40 SHL SUB DUP1 DUP3 GT ISZERO PUSH2 0xA4 JUMPI PUSH1 0x0 DUP1 REVERT JUMPDEST DUP2 DUP7 ADD SWAP2 POP DUP7 PUSH1 0x1F DUP4 ADD SLT PUSH2 0xB8 JUMPI PUSH1 0x0 DUP1 REVERT JUMPDEST DUP2 MLOAD DUP2 DUP2 GT ISZERO PUSH2 0xCA JUMPI PUSH2 0xCA PUSH2 0x5A JUMP JUMPDEST PUSH1 0x40 MLOAD PUSH1 0x1F DUP3 ADD PUSH1 0x1F NOT SWAP1 DUP2 AND PUSH1 0x3F ADD AND DUP2 ADD SWAP1 DUP4 DUP3 GT DUP2 DUP4 LT OR ISZERO PUSH2 0xF2 JUMPI PUSH2 0xF2 PUSH2 0x5A JUMP JUMPDEST DUP2 PUSH1 0x40 MSTORE DUP3 DUP2 MSTORE DUP10 DUP7 DUP5 DUP8 ADD ADD GT ISZERO PUSH2 0x10A JUMPI PUSH1 0x0 DUP1 REVERT JUMPDEST PUSH1 0x0 SWAP4 POP JUMPDEST DUP3 DUP5 LT ISZERO PUSH2 0x12C JUMPI DUP5 DUP5 ADD DUP7 ADD MLOAD DUP2 DUP6 ADD DUP8 ADD MSTORE SWAP3 DUP6 ADD SWAP3 PUSH2 0x10F JUMP JUMPDEST PUSH1 0x0 DUP7 DUP5 DUP4 ADD ADD MSTORE DUP1 SWAP7 POP POP POP POP POP POP POP SWAP3 POP SWAP3 SWAP1 POP JUMP JUMPDEST PUSH1 0x1 DUP2 DUP2 SHR SWAP1 DUP3 AND DUP1 PUSH2 0x158 JUMPI PUSH1 0x7F DUP3 AND SWAP2 POP JUMPDEST PUSH1 0x20 DUP3 LT DUP2 SUB PUSH2 0x178 JUMPI PUSH4 0x4E487B71 PUSH1 0xE0 SHL PUSH1 0x0 MSTORE PUSH1 0x22 PUSH1 0x4 MSTORE PUSH1 0x24 PUSH1 0x0 REVERT JUMPDEST POP SWAP2 SWAP1 POP JUMP JUMPDEST PUSH1 0x1F DUP3 GT ISZERO PUSH2 0x1C8 JUMPI PUSH1 0x0 DUP2 DUP2 MSTORE PUSH1 0x20 DUP2 KECCAK256 PUSH1 0x1F DUP6 ADD PUSH1 0x5 SHR DUP2 ADD PUSH1 0x20 DUP7 LT ISZERO PUSH2 0x1A5 JUMPI POP DUP1 JUMPDEST PUSH1 0x1F DUP6 ADD PUSH1 0x5 SHR DUP3 ADD SWAP2 POP JUMPDEST DUP2 DUP2 LT ISZERO PUSH2 0x1C4 JUMPI DUP3 DUP2 SSTORE PUSH1 0x1 ADD PUSH2 0x1B1 JUMP JUMPDEST POP POP POP JUMPDEST POP POP POP JUMP JUMPDEST DUP2 MLOAD PUSH1 0x1 PUSH1 0x1 PUSH1 0x40 SHL SUB DUP2 GT ISZERO PUSH2 0x1E6 JUMPI PUSH2 0x1E6 PUSH2 0x5A JUMP JUMPDEST PUSH2 0x1FA DUP2 PUSH2 0x1F4 DUP5 SLOAD PUSH2 0x144 JUMP JUMPDEST DUP5 PUSH2 0x17E JUMP JUMPDEST PUSH1 0x20 DUP1 PUSH1 0x1F DUP4 GT PUSH1 0x1 DUP2 EQ PUSH2 0x22F JUMPI PUSH1 0x0 DUP5 ISZERO PUSH2 0x217 JUMPI POP DUP6 DUP4 ADD MLOAD JUMPDEST PUSH1 0x0 NOT PUSH1 0x3 DUP7 SWAP1 SHL SHR NOT AND PUSH1 0x1 DUP6 SWAP1 SHL OR DUP6 SSTORE PUSH2 0x1C4 JUMP JUMPDEST PUSH1 0x0 DUP6 DUP2 MSTORE PUSH1 0x20 DUP2 KECCAK256 PUSH1 0x1F NOT DUP7 AND SWAP2 JUMPDEST DUP3 DUP2 LT ISZERO PUSH2 0x25E JUMPI DUP9 DUP7 ADD MLOAD DUP3 SSTORE SWAP5 DUP5 ADD SWAP5 PUSH1 0x1 SWAP1 SWAP2 ADD SWAP1 DUP5 ADD PUSH2 0x23F JUMP JUMPDEST POP DUP6 DUP3 LT ISZERO PUSH2 0x27C JUMPI DUP8 DUP6 ADD MLOAD PUSH1 0x0 NOT PUSH1 0x3 DUP9 SWAP1 SHL PUSH1 0xF8 AND SHR NOT AND DUP2 SSTORE JUMPDEST POP POP POP POP POP PUSH1 0x1 SWAP1 DUP2 SHL ADD SWAP1 SSTORE POP JUMP JUMPDEST PUSH2 0x4B7 DUP1 PUSH2 0x29B PUSH1 0x0 CODECOPY PUSH1 0x0 RETURN INVALID PUSH1 0x80 PUSH1 0x40 MSTORE CALLVALUE DUP1 ISZERO PUSH2 0x10 JUMPI PUSH1 0x0 DUP1 REVERT JUMPDEST POP PUSH1 0x4 CALLDATASIZE LT PUSH2 0x41 JUMPI PUSH1 0x0 CALLDATALOAD PUSH1 0xE0 SHR DUP1 PUSH4 0x54248841 EQ PUSH2 0x46 JUMPI DUP1 PUSH4 0xA46878FB EQ PUSH2 0x66 JUMPI DUP1 PUSH4 0xDE0C082C EQ PUSH2 0x7B JUMPI JUMPDEST PUSH1 0x0 DUP1 REVERT JUMPDEST PUSH2 0x4E PUSH2 0x8E JUMP JUMPDEST PUSH1 0x40 MLOAD PUSH2 0x5D SWAP4 SWAP3 SWAP2 SWAP1 PUSH2 0x1D2 JUMP JUMPDEST PUSH1 0x40 MLOAD DUP1 SWAP2 SUB SWAP1 RETURN JUMPDEST PUSH2 0x79 PUSH2 0x74 CALLDATASIZE PUSH1 0x4 PUSH2 0x26D JUMP JUMPDEST PUSH2 0x134 JUMP JUMPDEST STOP JUMPDEST PUSH2 0x79 PUSH2 0x89 CALLDATASIZE PUSH1 0x4 PUSH2 0x26D JUMP JUMPDEST PUSH2 0x16A JUMP JUMPDEST PUSH1 0x0 DUP1 SLOAD PUSH1 0x1 DUP1 SLOAD SWAP2 SWAP3 SWAP2 PUSH2 0xA2 SWAP1 PUSH2 0x338 JUMP JUMPDEST DUP1 PUSH1 0x1F ADD PUSH1 0x20 DUP1 SWAP2 DIV MUL PUSH1 0x20 ADD PUSH1 0x40 MLOAD SWAP1 DUP2 ADD PUSH1 0x40 MSTORE DUP1 SWAP3 SWAP2 SWAP1 DUP2 DUP2 MSTORE PUSH1 0x20 ADD DUP3 DUP1 SLOAD PUSH2 0xCE SWAP1 PUSH2 0x338 JUMP JUMPDEST DUP1 ISZERO PUSH2 0x11B JUMPI DUP1 PUSH1 0x1F LT PUSH2 0xF0 JUMPI PUSH2 0x100 DUP1 DUP4 SLOAD DIV MUL DUP4 MSTORE SWAP2 PUSH1 0x20 ADD SWAP2 PUSH2 0x11B JUMP JUMPDEST DUP3 ADD SWAP2 SWAP1 PUSH1 0x0 MSTORE PUSH1 0x20 PUSH1 0x0 KECCAK256 SWAP1 JUMPDEST DUP2 SLOAD DUP2 MSTORE SWAP1 PUSH1 0x1 ADD SWAP1 PUSH1 0x20 ADD DUP1 DUP4 GT PUSH2 0xFE JUMPI DUP3 SWAP1 SUB PUSH1 0x1F AND DUP3 ADD SWAP2 JUMPDEST POP POP POP PUSH1 0x2 SWAP1 SWAP4 ADD SLOAD SWAP2 SWAP3 POP POP PUSH1 0x1 PUSH1 0x1 PUSH1 0xA0 SHL SUB AND DUP4 JUMP JUMPDEST PUSH1 0x0 DUP4 SWAP1 SSTORE PUSH1 0x1 PUSH2 0x145 DUP4 DUP3 PUSH2 0x3C1 JUMP JUMPDEST POP PUSH1 0x2 DUP1 SLOAD PUSH1 0x1 PUSH1 0x1 PUSH1 0xA0 SHL SUB NOT AND PUSH1 0x1 PUSH1 0x1 PUSH1 0xA0 SHL SUB SWAP3 SWAP1 SWAP3 AND SWAP2 SWAP1 SWAP2 OR SWAP1 SSTORE POP POP JUMP JUMPDEST PUSH1 0x40 DUP1 MLOAD PUSH1 0x60 DUP2 ADD DUP3 MSTORE DUP5 DUP2 MSTORE PUSH1 0x20 DUP2 ADD DUP5 SWAP1 MSTORE PUSH1 0x1 PUSH1 0x1 PUSH1 0xA0 SHL SUB DUP4 AND SWAP2 DUP2 ADD SWAP2 SWAP1 SWAP2 MSTORE PUSH1 0x0 DUP5 DUP2 SSTORE DUP2 SWAP1 PUSH1 0x1 PUSH2 0x1A2 DUP7 DUP3 PUSH2 0x3C1 JUMP JUMPDEST POP PUSH1 0x40 SWAP2 SWAP1 SWAP2 ADD MLOAD PUSH1 0x2 SWAP1 SWAP2 ADD DUP1 SLOAD PUSH1 0x1 PUSH1 0x1 PUSH1 0xA0 SHL SUB NOT AND PUSH1 0x1 PUSH1 0x1 PUSH1 0xA0 SHL SUB SWAP1 SWAP3 AND SWAP2 SWAP1 SWAP2 OR SWAP1 SSTORE POP POP POP POP JUMP JUMPDEST DUP4 DUP2 MSTORE PUSH1 0x0 PUSH1 0x20 PUSH1 0x60 DUP2 DUP5 ADD MSTORE DUP5 MLOAD DUP1 PUSH1 0x60 DUP6 ADD MSTORE PUSH1 0x0 JUMPDEST DUP2 DUP2 LT ISZERO PUSH2 0x206 JUMPI DUP7 DUP2 ADD DUP4 ADD MLOAD DUP6 DUP3 ADD PUSH1 0x80 ADD MSTORE DUP3 ADD PUSH2 0x1EA JUMP JUMPDEST POP PUSH1 0x0 DUP5 DUP3 ADD PUSH1 0x80 SWAP1 DUP2 ADD SWAP2 SWAP1 SWAP2 MSTORE PUSH1 0x1 PUSH1 0x1 PUSH1 0xA0 SHL SUB SWAP6 SWAP1 SWAP6 AND PUSH1 0x40 DUP6 ADD MSTORE PUSH1 0x1F ADD PUSH1 0x1F NOT AND SWAP1 SWAP3 ADD SWAP1 SWAP3 ADD SWAP5 SWAP4 POP POP POP POP JUMP JUMPDEST PUSH4 0x4E487B71 PUSH1 0xE0 SHL PUSH1 0x0 MSTORE PUSH1 0x41 PUSH1 0x4 MSTORE PUSH1 0x24 PUSH1 0x0 REVERT JUMPDEST DUP1 CALLDATALOAD PUSH1 0x1 PUSH1 0x1 PUSH1 0xA0 SHL SUB DUP2 AND DUP2 EQ PUSH2 0x268 JUMPI PUSH1 0x0 DUP1 REVERT JUMPDEST SWAP2 SWAP1 POP JUMP JUMPDEST PUSH1 0x0 DUP1 PUSH1 0x0 PUSH1 0x60 DUP5 DUP7 SUB SLT ISZERO PUSH2 0x282 JUMPI PUSH1 0x0 DUP1 REVERT JUMPDEST DUP4 CALLDATALOAD SWAP3 POP PUSH1 0x20 DUP5 ADD CALLDATALOAD PUSH8 0xFFFFFFFFFFFFFFFF DUP1 DUP3 GT ISZERO PUSH2 0x2A1 JUMPI PUSH1 0x0 DUP1 REVERT JUMPDEST DUP2 DUP7 ADD SWAP2 POP DUP7 PUSH1 0x1F DUP4 ADD SLT PUSH2 0x2B5 JUMPI PUSH1 0x0 DUP1 REVERT JUMPDEST DUP2 CALLDATALOAD DUP2 DUP2 GT ISZERO PUSH2 0x2C7 JUMPI PUSH2 0x2C7 PUSH2 0x23B JUMP JUMPDEST PUSH1 0x40 MLOAD PUSH1 0x1F DUP3 ADD PUSH1 0x1F NOT SWAP1 DUP2 AND PUSH1 0x3F ADD AND DUP2 ADD SWAP1 DUP4 DUP3 GT DUP2 DUP4 LT OR ISZERO PUSH2 0x2EF JUMPI PUSH2 0x2EF PUSH2 0x23B JUMP JUMPDEST DUP2 PUSH1 0x40 MSTORE DUP3 DUP2 MSTORE DUP10 PUSH1 0x20 DUP5 DUP8 ADD ADD GT ISZERO PUSH2 0x308 JUMPI PUSH1 0x0 DUP1 REVERT JUMPDEST DUP3 PUSH1 0x20 DUP7 ADD PUSH1 0x20 DUP4 ADD CALLDATACOPY PUSH1 0x0 PUSH1 0x20 DUP5 DUP4 ADD ADD MSTORE DUP1 SWAP7 POP POP POP POP POP POP PUSH2 0x32F PUSH1 0x40 DUP6 ADD PUSH2 0x251 JUMP JUMPDEST SWAP1 POP SWAP3 POP SWAP3 POP SWAP3 JUMP JUMPDEST PUSH1 0x1 DUP2 DUP2 SHR SWAP1 DUP3 AND DUP1 PUSH2 0x34C JUMPI PUSH1 0x7F DUP3 AND SWAP2 POP JUMPDEST PUSH1 0x20 DUP3 LT DUP2 SUB PUSH2 0x36C JUMPI PUSH4 0x4E487B71 PUSH1 0xE0 SHL PUSH1 0x0 MSTORE PUSH1 0x22 PUSH1 0x4 MSTORE PUSH1 0x24 PUSH1 0x0 REVERT JUMPDEST POP SWAP2 SWAP1 POP JUMP JUMPDEST PUSH1 0x1F DUP3 GT ISZERO PUSH2 0x3BC JUMPI PUSH1 0x0 DUP2 DUP2 MSTORE PUSH1 0x20 DUP2 KECCAK256 PUSH1 0x1F DUP6 ADD PUSH1 0x5 SHR DUP2 ADD PUSH1 0x20 DUP7 LT ISZERO PUSH2 0x399 JUMPI POP DUP1 JUMPDEST PUSH1 0x1F DUP6 ADD PUSH1 0x5 SHR DUP3 ADD SWAP2 POP JUMPDEST DUP2 DUP2 LT ISZERO PUSH2 0x3B8 JUMPI DUP3 DUP2 SSTORE PUSH1 0x1 ADD PUSH2 0x3A5 JUMP JUMPDEST POP POP POP JUMPDEST POP POP POP JUMP JUMPDEST DUP2 MLOAD PUSH8 0xFFFFFFFFFFFFFFFF DUP2 GT ISZERO PUSH2 0x3DB JUMPI PUSH2 0x3DB PUSH2 0x23B JUMP JUMPDEST PUSH2 0x3EF DUP2 PUSH2 0x3E9 DUP5 SLOAD PUSH2 0x338 JUMP JUMPDEST DUP5 PUSH2 0x372 JUMP JUMPDEST PUSH1 0x20 DUP1 PUSH1 0x1F DUP4 GT PUSH1 0x1 DUP2 EQ PUSH2 0x424 JUMPI PUSH1 0x0 DUP5 ISZERO PUSH2 0x40C JUMPI POP DUP6 DUP4 ADD MLOAD JUMPDEST PUSH1 0x0 NOT PUSH1 0x3 DUP7 SWAP1 SHL SHR NOT AND PUSH1 0x1 DUP6 SWAP1 SHL OR DUP6 SSTORE PUSH2 0x3B8 JUMP JUMPDEST PUSH1 0x0 DUP6 DUP2 MSTORE PUSH1 0x20 DUP2 KECCAK256 PUSH1 0x1F NOT DUP7 AND SWAP2 JUMPDEST DUP3 DUP2 LT ISZERO PUSH2 0x453 JUMPI DUP9 DUP7 ADD MLOAD DUP3 SSTORE SWAP5 DUP5 ADD SWAP5 PUSH1 0x1 SWAP1 SWAP2 ADD SWAP1 DUP5 ADD PUSH2 0x434 JUMP JUMPDEST POP DUP6 DUP3 LT ISZERO PUSH2 0x471 JUMPI DUP8 DUP6 ADD MLOAD PUSH1 0x0 NOT PUSH1 0x3 DUP9 SWAP1 SHL PUSH1 0xF8 AND SHR NOT AND DUP2 SSTORE JUMPDEST POP POP POP POP POP PUSH1 0x1 SWAP1 DUP2 SHL ADD SWAP1 SSTORE POP JUMP INVALID LOG2 PUSH5 0x6970667358 0x22 SLT KECCAK256 EXTCODECOPY CALLDATASIZE PUSH26 0xDEF18C2E004E39BA7C5AE8C985A8DF8D15E606E63FD908C4664E DIV 0xB5 0xCC PUSH5 0x736F6C6343 STOP ADDMOD GT STOP CALLER "
				},
				"gasEstimates": {
					"creation": {
						"codeDepositCost": "241400",
						"executionCost": "infinite",
						"totalCost": "infinite"
					},
					"external": {
						"academyInstructor()": "infinite",
						"changeInstructor(uint256,string,address)": "infinite",
						"differentApproachToChangeInstructor(uint256,string,address)": "infinite"
					}
				},
				"methodIdentifiers": {
					"academyInstructor()": "54248841",
					"changeInstructor(uint256,string,address)": "a46878fb",
					"differentApproachToChangeInstructor(uint256,string,address)": "de0c082c"
				}
			},
			"storageLayout": {
				"storage": [
					{
						"astId": 11,
						"contract": "contracts/StructsAndEnums.sol:Academy",
						"label": "academyInstructor",
						"offset": 0,
						"slot": "0",
						"type": "t_struct(Instructor)8_storage"
					}
				],
				"types": {
					"t_address": {
						"encoding": "inplace",
						"label": "address",
						"numberOfBytes": "20"
					},
					"t_string_storage": {
						"encoding": "bytes",
						"label": "string",
						"numberOfBytes": "32"
					},
					"t_struct(Instructor)8_storage": {
						"encoding": "inplace",
						"label": "struct Instructor",
						"members": [
							{
								"astId": 3,
								"contract": "contracts/StructsAndEnums.sol:Academy",
								"label": "age",
								"offset": 0,
								"slot": "0",
								"type": "t_uint256"
							},
							{
								"astId": 5,
								"contract": "contracts/StructsAndEnums.sol:Academy",
								"label": "name",
								"offset": 0,
								"slot": "1",
								"type": "t_string_storage"
							},
							{
								"astId": 7,
								"contract": "contracts/StructsAndEnums.sol:Academy",
								"label": "addr",
								"offset": 0,
								"slot": "2",
								"type": "t_address"
							}
						],
						"numberOfBytes": "96"
					},
					"t_uint256": {
						"encoding": "inplace",
						"label": "uint256",
						"numberOfBytes": "32"
					}
				}
			},
			"userdoc": {
				"kind": "user",
				"methods": {},
				"version": 1
			}
		}
	}
}