{
	"contracts/StructsAndEnums.sol": {
		"Wallet": {
			"abi": [
				{
					"inputs": [],
					"name": "PayContract",
					"outputs": [],
					"stateMutability": "payable",
					"type": "function"
				},
				{
					"inputs": [],
					"name": "payment",
					"outputs": [
						{
							"internalType": "contract PaymentReceived",
							"name": "",
							"type": "address"
						}
					],
					"stateMutability": "view",
					"type": "function"
				}
			],
			"devdoc": {
				"kind": "dev",
				"methods": {},
				"version": 1
			},
			"evm": {
				"assembly": "    /* \"contracts/StructsAndEnums.sol\":908:1082  contract Wallet {... */\n  mstore(0x40, 0x80)\n  callvalue\n  dup1\n  iszero\n  tag_1\n  jumpi\n  0x00\n  dup1\n  revert\ntag_1:\n  pop\n  dataSize(sub_0)\n  dup1\n  dataOffset(sub_0)\n  0x00\n  codecopy\n  0x00\n  return\nstop\n\nsub_0: assembly {\n        /* \"contracts/StructsAndEnums.sol\":908:1082  contract Wallet {... */\n      mstore(0x40, 0x80)\n      jumpi(tag_1, lt(calldatasize, 0x04))\n      shr(0xe0, calldataload(0x00))\n      dup1\n      0x42f6487a\n      eq\n      tag_2\n      jumpi\n      dup1\n      0x51ad487f\n      eq\n      tag_3\n      jumpi\n    tag_1:\n      0x00\n      dup1\n      revert\n        /* \"contracts/StructsAndEnums.sol\":931:961  PaymentReceived public payment */\n    tag_2:\n      callvalue\n      dup1\n      iszero\n      tag_4\n      jumpi\n      0x00\n      dup1\n      revert\n    tag_4:\n      pop\n      sload(0x00)\n      tag_5\n      swap1\n      sub(shl(0xa0, 0x01), 0x01)\n      and\n      dup2\n      jump\n    tag_5:\n      mload(0x40)\n      sub(shl(0xa0, 0x01), 0x01)\n        /* \"#utility.yul\":201:233   */\n      swap1\n      swap2\n      and\n        /* \"#utility.yul\":183:234   */\n      dup2\n      mstore\n        /* \"#utility.yul\":171:173   */\n      0x20\n        /* \"#utility.yul\":156:174   */\n      add\n        /* \"contracts/StructsAndEnums.sol\":931:961  PaymentReceived public payment */\n      mload(0x40)\n      dup1\n      swap2\n      sub\n      swap1\n      return\n        /* \"contracts/StructsAndEnums.sol\":970:1079  function PayContract() public payable {... */\n    tag_3:\n      tag_9\n      tag_10\n      jump\t// in\n    tag_9:\n      stop\n    tag_10:\n        /* \"contracts/StructsAndEnums.sol\":1049:1059  msg.sender */\n      caller\n        /* \"contracts/StructsAndEnums.sol\":1061:1070  msg.value */\n      callvalue\n        /* \"contracts/StructsAndEnums.sol\":1029:1071  new PaymentReceived(msg.sender, msg.value) */\n      mload(0x40)\n      tag_12\n      swap1\n      tag_13\n      jump\t// in\n    tag_12:\n      sub(shl(0xa0, 0x01), 0x01)\n        /* \"#utility.yul\":437:469   */\n      swap1\n      swap3\n      and\n        /* \"#utility.yul\":419:470   */\n      dup3\n      mstore\n        /* \"#utility.yul\":501:503   */\n      0x20\n        /* \"#utility.yul\":486:504   */\n      dup3\n      add\n        /* \"#utility.yul\":479:513   */\n      mstore\n        /* \"#utility.yul\":407:409   */\n      0x40\n        /* \"#utility.yul\":392:410   */\n      add\n        /* \"contracts/StructsAndEnums.sol\":1029:1071  new PaymentReceived(msg.sender, msg.value) */\n      mload(0x40)\n      dup1\n      swap2\n      sub\n      swap1\n      0x00\n      create\n      dup1\n      iszero\n      dup1\n      iszero\n      tag_16\n      jumpi\n      returndatasize\n      0x00\n      dup1\n      returndatacopy\n      revert(0x00, returndatasize)\n    tag_16:\n      pop\n        /* \"contracts/StructsAndEnums.sol\":1019:1026  payment */\n      0x00\n        /* \"contracts/StructsAndEnums.sol\":1019:1071  payment = new PaymentReceived(msg.sender, msg.value) */\n      dup1\n      sload\n      not(sub(shl(0xa0, 0x01), 0x01))\n      and\n      sub(shl(0xa0, 0x01), 0x01)\n      swap3\n      swap1\n      swap3\n      and\n      swap2\n      swap1\n      swap2\n      or\n      swap1\n      sstore\n        /* \"contracts/StructsAndEnums.sol\":970:1079  function PayContract() public payable {... */\n      jump\t// out\n    tag_13:\n      dataSize(sub_0)\n      dup1\n      dataOffset(sub_0)\n      dup4\n      codecopy\n      add\n      swap1\n      jump\t// out\n    stop\n\n    sub_0: assembly {\n            /* \"contracts/StructsAndEnums.sol\":1086:1273  contract PaymentReceived {... */\n          mstore(0x40, 0x80)\n            /* \"contracts/StructsAndEnums.sol\":1171:1270  constructor(address _from, uint _amount) {... */\n          callvalue\n          dup1\n          iszero\n          tag_1\n          jumpi\n          0x00\n          dup1\n          revert\n        tag_1:\n          pop\n          mload(0x40)\n          sub(codesize, bytecodeSize)\n          dup1\n          bytecodeSize\n          dup4\n          codecopy\n          dup2\n          add\n          0x40\n          dup2\n          swap1\n          mstore\n          tag_2\n          swap2\n          tag_3\n          jump\t// in\n        tag_2:\n            /* \"contracts/StructsAndEnums.sol\":1223:1227  from */\n          0x00\n            /* \"contracts/StructsAndEnums.sol\":1223:1235  from = _from */\n          dup1\n          sload\n          not(sub(shl(0xa0, 0x01), 0x01))\n          and\n          sub(shl(0xa0, 0x01), 0x01)\n          swap4\n          swap1\n          swap4\n          and\n          swap3\n          swap1\n          swap3\n          or\n          swap1\n          swap2\n          sstore\n          0x01\n            /* \"contracts/StructsAndEnums.sol\":1246:1262  amount = _amount */\n          sstore\n            /* \"contracts/StructsAndEnums.sol\":1086:1273  contract PaymentReceived {... */\n          jump(tag_7)\n            /* \"#utility.yul\":14:365   */\n        tag_3:\n            /* \"#utility.yul\":93:99   */\n          0x00\n            /* \"#utility.yul\":101:107   */\n          dup1\n            /* \"#utility.yul\":154:156   */\n          0x40\n            /* \"#utility.yul\":142:151   */\n          dup4\n            /* \"#utility.yul\":133:140   */\n          dup6\n            /* \"#utility.yul\":129:152   */\n          sub\n            /* \"#utility.yul\":125:157   */\n          slt\n            /* \"#utility.yul\":122:174   */\n          iszero\n          tag_9\n          jumpi\n            /* \"#utility.yul\":170:171   */\n          0x00\n            /* \"#utility.yul\":167:168   */\n          dup1\n            /* \"#utility.yul\":160:172   */\n          revert\n            /* \"#utility.yul\":122:174   */\n        tag_9:\n            /* \"#utility.yul\":196:212   */\n          dup3\n          mload\n          sub(shl(0xa0, 0x01), 0x01)\n            /* \"#utility.yul\":241:272   */\n          dup2\n          and\n            /* \"#utility.yul\":231:273   */\n          dup2\n          eq\n            /* \"#utility.yul\":221:291   */\n          tag_10\n          jumpi\n            /* \"#utility.yul\":287:288   */\n          0x00\n            /* \"#utility.yul\":284:285   */\n          dup1\n            /* \"#utility.yul\":277:289   */\n          revert\n            /* \"#utility.yul\":221:291   */\n        tag_10:\n            /* \"#utility.yul\":355:357   */\n          0x20\n            /* \"#utility.yul\":340:358   */\n          swap4\n          swap1\n          swap4\n          add\n            /* \"#utility.yul\":334:359   */\n          mload\n            /* \"#utility.yul\":310:315   */\n          swap3\n          swap5\n            /* \"#utility.yul\":334:359   */\n          swap3\n          swap4\n          pop\n          pop\n          pop\n            /* \"#utility.yul\":14:365   */\n          jump\t// out\n        tag_7:\n            /* \"contracts/StructsAndEnums.sol\":1086:1273  contract PaymentReceived {... */\n          dataSize(sub_0)\n          dup1\n          dataOffset(sub_0)\n          0x00\n          codecopy\n          0x00\n          return\n        stop\n\n        sub_0: assembly {\n                /* \"contracts/StructsAndEnums.sol\":1086:1273  contract PaymentReceived {... */\n              mstore(0x40, 0x80)\n              callvalue\n              dup1\n              iszero\n              tag_1\n              jumpi\n              0x00\n              dup1\n              revert\n            tag_1:\n              pop\n              jumpi(tag_2, lt(calldatasize, 0x04))\n              shr(0xe0, calldataload(0x00))\n              dup1\n              0xaa8c217c\n              eq\n              tag_3\n              jumpi\n              dup1\n              0xd5ce3389\n              eq\n              tag_4\n              jumpi\n            tag_2:\n              0x00\n              dup1\n              revert\n                /* \"contracts/StructsAndEnums.sol\":1144:1162  uint public amount */\n            tag_3:\n              tag_5\n              sload(0x01)\n              dup2\n              jump\n            tag_5:\n              mload(0x40)\n                /* \"#utility.yul\":160:185   */\n              swap1\n              dup2\n              mstore\n                /* \"#utility.yul\":148:150   */\n              0x20\n                /* \"#utility.yul\":133:151   */\n              add\n                /* \"contracts/StructsAndEnums.sol\":1144:1162  uint public amount */\n            tag_7:\n              mload(0x40)\n              dup1\n              swap2\n              sub\n              swap1\n              return\n                /* \"contracts/StructsAndEnums.sol\":1118:1137  address public from */\n            tag_4:\n              sload(0x00)\n              tag_9\n              swap1\n              sub(shl(0xa0, 0x01), 0x01)\n              and\n              dup2\n              jump\n            tag_9:\n              mload(0x40)\n              sub(shl(0xa0, 0x01), 0x01)\n                /* \"#utility.yul\":360:392   */\n              swap1\n              swap2\n              and\n                /* \"#utility.yul\":342:393   */\n              dup2\n              mstore\n                /* \"#utility.yul\":330:332   */\n              0x20\n                /* \"#utility.yul\":315:333   */\n              add\n                /* \"contracts/StructsAndEnums.sol\":1118:1137  address public from */\n              tag_7\n                /* \"#utility.yul\":196:399   */\n              jump\n\n            auxdata: 0xa264697066735822122068993cd92dfc32c9bcff5c90dab1b00cc64529550800c2925518cf4bef5ba88d64736f6c63430008110033\n        }\n    }\n\n    auxdata: 0xa26469706673582212200c0bbdbd0a611a556cd3fbce538bbeddbc0ee4b40caac2fff59121c71ae9cf9b64736f6c63430008110033\n}\n",
				"bytecode": {
					"linkReferences": {},
					"object": "608060405234801561001057600080fd5b5061026a806100206000396000f3fe6080604052600436106100295760003560e01c806342f6487a1461002e57806351ad487f1461006a575b600080fd5b34801561003a57600080fd5b5060005461004e906001600160a01b031681565b6040516001600160a01b03909116815260200160405180910390f35b610072610074565b005b3334604051610082906100d6565b6001600160a01b0390921682526020820152604001604051809103906000f0801580156100b3573d6000803e3d6000fd5b50600080546001600160a01b0319166001600160a01b0392909216919091179055565b610151806100e48339019056fe608060405234801561001057600080fd5b5060405161015138038061015183398101604081905261002f91610058565b600080546001600160a01b0319166001600160a01b039390931692909217909155600155610092565b6000806040838503121561006b57600080fd5b82516001600160a01b038116811461008257600080fd5b6020939093015192949293505050565b60b1806100a06000396000f3fe6080604052348015600f57600080fd5b506004361060325760003560e01c8063aa8c217c146037578063d5ce3389146052575b600080fd5b603f60015481565b6040519081526020015b60405180910390f35b6000546064906001600160a01b031681565b6040516001600160a01b039091168152602001604956fea264697066735822122068993cd92dfc32c9bcff5c90dab1b00cc64529550800c2925518cf4bef5ba88d64736f6c63430008110033a26469706673582212200c0bbdbd0a611a556cd3fbce538bbeddbc0ee4b40caac2fff59121c71ae9cf9b64736f6c63430008110033",
					"opcodes": "PUSH1 0x80 PUSH1 0x40 MSTORE CALLVALUE DUP1 ISZERO PUSH2 0x10 JUMPI PUSH1 0x0 DUP1 REVERT JUMPDEST POP PUSH2 0x26A DUP1 PUSH2 0x20 PUSH1 0x0 CODECOPY PUSH1 0x0 RETURN INVALID PUSH1 0x80 PUSH1 0x40 MSTORE PUSH1 0x4 CALLDATASIZE LT PUSH2 0x29 JUMPI PUSH1 0x0 CALLDATALOAD PUSH1 0xE0 SHR DUP1 PUSH4 0x42F6487A EQ PUSH2 0x2E JUMPI DUP1 PUSH4 0x51AD487F EQ PUSH2 0x6A JUMPI JUMPDEST PUSH1 0x0 DUP1 REVERT JUMPDEST CALLVALUE DUP1 ISZERO PUSH2 0x3A JUMPI PUSH1 0x0 DUP1 REVERT JUMPDEST POP PUSH1 0x0 SLOAD PUSH2 0x4E SWAP1 PUSH1 0x1 PUSH1 0x1 PUSH1 0xA0 SHL SUB AND DUP2 JUMP JUMPDEST PUSH1 0x40 MLOAD PUSH1 0x1 PUSH1 0x1 PUSH1 0xA0 SHL SUB SWAP1 SWAP2 AND DUP2 MSTORE PUSH1 0x20 ADD PUSH1 0x40 MLOAD DUP1 SWAP2 SUB SWAP1 RETURN JUMPDEST PUSH2 0x72 PUSH2 0x74 JUMP JUMPDEST STOP JUMPDEST CALLER CALLVALUE PUSH1 0x40 MLOAD PUSH2 0x82 SWAP1 PUSH2 0xD6 JUMP JUMPDEST PUSH1 0x1 PUSH1 0x1 PUSH1 0xA0 SHL SUB SWAP1 SWAP3 AND DUP3 MSTORE PUSH1 0x20 DUP3 ADD MSTORE PUSH1 0x40 ADD PUSH1 0x40 MLOAD DUP1 SWAP2 SUB SWAP1 PUSH1 0x0 CREATE DUP1 ISZERO DUP1 ISZERO PUSH2 0xB3 JUMPI RETURNDATASIZE PUSH1 0x0 DUP1 RETURNDATACOPY RETURNDATASIZE PUSH1 0x0 REVERT JUMPDEST POP PUSH1 0x0 DUP1 SLOAD PUSH1 0x1 PUSH1 0x1 PUSH1 0xA0 SHL SUB NOT AND PUSH1 0x1 PUSH1 0x1 PUSH1 0xA0 SHL SUB SWAP3 SWAP1 SWAP3 AND SWAP2 SWAP1 SWAP2 OR SWAP1 SSTORE JUMP JUMPDEST PUSH2 0x151 DUP1 PUSH2 0xE4 DUP4 CODECOPY ADD SWAP1 JUMP INVALID PUSH1 0x80 PUSH1 0x40 MSTORE CALLVALUE DUP1 ISZERO PUSH2 0x10 JUMPI PUSH1 0x0 DUP1 REVERT JUMPDEST POP PUSH1 0x40 MLOAD PUSH2 0x151 CODESIZE SUB DUP1 PUSH2 0x151 DUP4 CODECOPY DUP2 ADD PUSH1 0x40 DUP2 SWAP1 MSTORE PUSH2 0x2F SWAP2 PUSH2 0x58 JUMP JUMPDEST PUSH1 0x0 DUP1 SLOAD PUSH1 0x1 PUSH1 0x1 PUSH1 0xA0 SHL SUB NOT AND PUSH1 0x1 PUSH1 0x1 PUSH1 0xA0 SHL SUB SWAP4 SWAP1 SWAP4 AND SWAP3 SWAP1 SWAP3 OR SWAP1 SWAP2 SSTORE PUSH1 0x1 SSTORE PUSH2 0x92 JUMP JUMPDEST PUSH1 0x0 DUP1 PUSH1 0x40 DUP4 DUP6 SUB SLT ISZERO PUSH2 0x6B JUMPI PUSH1 0x0 DUP1 REVERT JUMPDEST DUP3 MLOAD PUSH1 0x1 PUSH1 0x1 PUSH1 0xA0 SHL SUB DUP2 AND DUP2 EQ PUSH2 0x82 JUMPI PUSH1 0x0 DUP1 REVERT JUMPDEST PUSH1 0x20 SWAP4 SWAP1 SWAP4 ADD MLOAD SWAP3 SWAP5 SWAP3 SWAP4 POP POP POP JUMP JUMPDEST PUSH1 0xB1 DUP1 PUSH2 0xA0 PUSH1 0x0 CODECOPY PUSH1 0x0 RETURN INVALID PUSH1 0x80 PUSH1 0x40 MSTORE CALLVALUE DUP1 ISZERO PUSH1 0xF JUMPI PUSH1 0x0 DUP1 REVERT JUMPDEST POP PUSH1 0x4 CALLDATASIZE LT PUSH1 0x32 JUMPI PUSH1 0x0 CALLDATALOAD PUSH1 0xE0 SHR DUP1 PUSH4 0xAA8C217C EQ PUSH1 0x37 JUMPI DUP1 PUSH4 0xD5CE3389 EQ PUSH1 0x52 JUMPI JUMPDEST PUSH1 0x0 DUP1 REVERT JUMPDEST PUSH1 0x3F PUSH1 0x1 SLOAD DUP2 JUMP JUMPDEST PUSH1 0x40 MLOAD SWAP1 DUP2 MSTORE PUSH1 0x20 ADD JUMPDEST PUSH1 0x40 MLOAD DUP1 SWAP2 SUB SWAP1 RETURN JUMPDEST PUSH1 0x0 SLOAD PUSH1 0x64 SWAP1 PUSH1 0x1 PUSH1 0x1 PUSH1 0xA0 SHL SUB AND DUP2 JUMP JUMPDEST PUSH1 0x40 MLOAD PUSH1 0x1 PUSH1 0x1 PUSH1 0xA0 SHL SUB SWAP1 SWAP2 AND DUP2 MSTORE PUSH1 0x20 ADD PUSH1 0x49 JUMP INVALID LOG2 PUSH5 0x6970667358 0x22 SLT KECCAK256 PUSH9 0x993CD92DFC32C9BCFF 0x5C SWAP1 0xDA 0xB1 0xB0 0xC 0xC6 GASLIMIT 0x29 SSTORE ADDMOD STOP 0xC2 SWAP3 SSTORE XOR 0xCF 0x4B 0xEF JUMPDEST 0xA8 DUP14 PUSH5 0x736F6C6343 STOP ADDMOD GT STOP CALLER LOG2 PUSH5 0x6970667358 0x22 SLT KECCAK256 0xC SIGNEXTEND 0xBD 0xBD EXP PUSH2 0x1A55 PUSH13 0xD3FBCE538BBEDDBC0EE4B40CAA 0xC2 SELFDESTRUCT CREATE2 SWAP2 0x21 0xC7 BYTE 0xE9 0xCF SWAP12 PUSH5 0x736F6C6343 STOP ADDMOD GT STOP CALLER "
				},
				"gasEstimates": {
					"creation": {
						"codeDepositCost": "123600",
						"executionCost": "171",
						"totalCost": "123771"
					},
					"external": {
						"PayContract()": "infinite",
						"payment()": "2303"
					}
				},
				"methodIdentifiers": {
					"PayContract()": "51ad487f",
					"payment()": "42f6487a"
				}
			},
			"storageLayout": {
				"storage": [
					{
						"astId": 93,
						"contract": "contracts/StructsAndEnums.sol:Wallet",
						"label": "payment",
						"offset": 0,
						"slot": "0",
						"type": "t_contract(PaymentReceived)130"
					}
				],
				"types": {
					"t_contract(PaymentReceived)130": {
						"encoding": "inplace",
						"label": "contract PaymentReceived",
						"numberOfBytes": "20"
					}
				}
			},
			"userdoc": {
				"kind": "user",
				"methods": {},
				"version": 1
			}
		}
	}
}