{
	"contracts/StructsAndEnums.sol": {
		"TestEnum": {
			"abi": [
				{
					"inputs": [],
					"name": "academyState",
					"outputs": [
						{
							"internalType": "enum TestEnum.Status",
							"name": "",
							"type": "uint8"
						}
					],
					"stateMutability": "view",
					"type": "function"
				},
				{
					"inputs": [],
					"name": "getEnum",
					"outputs": [
						{
							"internalType": "enum TestEnum.Status",
							"name": "",
							"type": "uint8"
						}
					],
					"stateMutability": "view",
					"type": "function"
				}
			],
			"devdoc": {
				"kind": "dev",
				"methods": {},
				"version": 1
			},
			"evm": {
				"assembly": "    /* \"contracts/StructsAndEnums.sol\":2710:3036  contract TestEnum {... */\n  mstore(0x40, 0x80)\n    /* \"contracts/StructsAndEnums.sol\":2807:2818  Status.Open */\n  0x00\n    /* \"contracts/StructsAndEnums.sol\":2778:2818  Status public academyState = Status.Open */\n  dup1\n  sload\n  not(0xff)\n  and\n  swap1\n  sstore\n    /* \"contracts/StructsAndEnums.sol\":2710:3036  contract TestEnum {... */\n  callvalue\n  dup1\n  iszero\n  tag_4\n  jumpi\n  0x00\n  dup1\n  revert\ntag_4:\n  pop\n  dataSize(sub_0)\n  dup1\n  dataOffset(sub_0)\n  0x00\n  codecopy\n  0x00\n  return\nstop\n\nsub_0: assembly {\n        /* \"contracts/StructsAndEnums.sol\":2710:3036  contract TestEnum {... */\n      mstore(0x40, 0x80)\n      callvalue\n      dup1\n      iszero\n      tag_1\n      jumpi\n      0x00\n      dup1\n      revert\n    tag_1:\n      pop\n      jumpi(tag_2, lt(calldatasize, 0x04))\n      shr(0xe0, calldataload(0x00))\n      dup1\n      0x23b8ca9f\n      eq\n      tag_3\n      jumpi\n      dup1\n      0xf0ebce5a\n      eq\n      tag_4\n      jumpi\n    tag_2:\n      0x00\n      dup1\n      revert\n        /* \"contracts/StructsAndEnums.sol\":2778:2818  Status public academyState = Status.Open */\n    tag_3:\n      sload(0x00)\n      tag_5\n      swap1\n      0xff\n      and\n      dup2\n      jump\n    tag_5:\n      mload(0x40)\n      tag_7\n      swap2\n      swap1\n      tag_8\n      jump\t// in\n    tag_7:\n      mload(0x40)\n      dup1\n      swap2\n      sub\n      swap1\n      return\n        /* \"contracts/StructsAndEnums.sol\":2857:3033  function getEnum() public view returns(Status)  {... */\n    tag_4:\n      tag_5\n        /* \"contracts/StructsAndEnums.sol\":2896:2902  Status */\n      0x00\n      dup1\n        /* \"contracts/StructsAndEnums.sol\":2920:2932  academyState */\n      and(0xff, sload(0x00))\n        /* \"contracts/StructsAndEnums.sol\":2920:2947  academyState == Status.Open */\n      0x02\n      dup2\n      gt\n      iszero\n      tag_17\n      jumpi\n      tag_17\n      tag_15\n      jump\t// in\n    tag_17:\n      sub\n        /* \"contracts/StructsAndEnums.sol\":2916:2994  if (academyState == Status.Open) {... */\n      tag_18\n      jumpi\n      pop\n        /* \"contracts/StructsAndEnums.sol\":2971:2982  Status.Open */\n      0x00\n      swap1\n        /* \"contracts/StructsAndEnums.sol\":2857:3033  function getEnum() public view returns(Status)  {... */\n      jump\t// out\n        /* \"contracts/StructsAndEnums.sol\":2916:2994  if (academyState == Status.Open) {... */\n    tag_18:\n      pop\n        /* \"contracts/StructsAndEnums.sol\":3011:3025  Status.Unknown */\n      0x02\n      swap1\n        /* \"contracts/StructsAndEnums.sol\":2857:3033  function getEnum() public view returns(Status)  {... */\n      jump\t// out\n        /* \"#utility.yul\":14:141   */\n    tag_15:\n        /* \"#utility.yul\":75:85   */\n      0x4e487b71\n        /* \"#utility.yul\":70:73   */\n      0xe0\n        /* \"#utility.yul\":66:86   */\n      shl\n        /* \"#utility.yul\":63:64   */\n      0x00\n        /* \"#utility.yul\":56:87   */\n      mstore\n        /* \"#utility.yul\":106:110   */\n      0x21\n        /* \"#utility.yul\":103:104   */\n      0x04\n        /* \"#utility.yul\":96:111   */\n      mstore\n        /* \"#utility.yul\":130:134   */\n      0x24\n        /* \"#utility.yul\":127:128   */\n      0x00\n        /* \"#utility.yul\":120:135   */\n      revert\n        /* \"#utility.yul\":146:484   */\n    tag_8:\n        /* \"#utility.yul\":288:290   */\n      0x20\n        /* \"#utility.yul\":273:291   */\n      dup2\n      add\n        /* \"#utility.yul\":321:322   */\n      0x03\n        /* \"#utility.yul\":310:323   */\n      dup4\n      lt\n        /* \"#utility.yul\":300:444   */\n      tag_22\n      jumpi\n        /* \"#utility.yul\":366:376   */\n      0x4e487b71\n        /* \"#utility.yul\":361:364   */\n      0xe0\n        /* \"#utility.yul\":357:377   */\n      shl\n        /* \"#utility.yul\":354:355   */\n      0x00\n        /* \"#utility.yul\":347:378   */\n      mstore\n        /* \"#utility.yul\":401:405   */\n      0x21\n        /* \"#utility.yul\":398:399   */\n      0x04\n        /* \"#utility.yul\":391:406   */\n      mstore\n        /* \"#utility.yul\":429:433   */\n      0x24\n        /* \"#utility.yul\":426:427   */\n      0x00\n        /* \"#utility.yul\":419:434   */\n      revert\n        /* \"#utility.yul\":300:444   */\n    tag_22:\n        /* \"#utility.yul\":453:478   */\n      swap2\n      swap1\n      mstore\n        /* \"#utility.yul\":146:484   */\n      swap1\n      jump\t// out\n\n    auxdata: 0xa2646970667358221220bf7bf238cbdde1e58234a47d0358969ac9ad11bca5deb7a57ea57b54d1efda7864736f6c63430008110033\n}\n",
				"bytecode": {
					"linkReferences": {},
					"object": "60806040526000805460ff1916905534801561001a57600080fd5b5060f3806100296000396000f3fe6080604052348015600f57600080fd5b506004361060325760003560e01c806323b8ca9f146037578063f0ebce5a146057575b600080fd5b60005460439060ff1681565b604051604e91906096565b60405180910390f35b604360008060005460ff16600281111560705760706080565b03607a5750600090565b50600290565b634e487b7160e01b600052602160045260246000fd5b602081016003831060b757634e487b7160e01b600052602160045260246000fd5b9190529056fea2646970667358221220bf7bf238cbdde1e58234a47d0358969ac9ad11bca5deb7a57ea57b54d1efda7864736f6c63430008110033",
					"opcodes": "PUSH1 0x80 PUSH1 0x40 MSTORE PUSH1 0x0 DUP1 SLOAD PUSH1 0xFF NOT AND SWAP1 SSTORE CALLVALUE DUP1 ISZERO PUSH2 0x1A JUMPI PUSH1 0x0 DUP1 REVERT JUMPDEST POP PUSH1 0xF3 DUP1 PUSH2 0x29 PUSH1 0x0 CODECOPY PUSH1 0x0 RETURN INVALID PUSH1 0x80 PUSH1 0x40 MSTORE CALLVALUE DUP1 ISZERO PUSH1 0xF JUMPI PUSH1 0x0 DUP1 REVERT JUMPDEST POP PUSH1 0x4 CALLDATASIZE LT PUSH1 0x32 JUMPI PUSH1 0x0 CALLDATALOAD PUSH1 0xE0 SHR DUP1 PUSH4 0x23B8CA9F EQ PUSH1 0x37 JUMPI DUP1 PUSH4 0xF0EBCE5A EQ PUSH1 0x57 JUMPI JUMPDEST PUSH1 0x0 DUP1 REVERT JUMPDEST PUSH1 0x0 SLOAD PUSH1 0x43 SWAP1 PUSH1 0xFF AND DUP2 JUMP JUMPDEST PUSH1 0x40 MLOAD PUSH1 0x4E SWAP2 SWAP1 PUSH1 0x96 JUMP JUMPDEST PUSH1 0x40 MLOAD DUP1 SWAP2 SUB SWAP1 RETURN JUMPDEST PUSH1 0x43 PUSH1 0x0 DUP1 PUSH1 0x0 SLOAD PUSH1 0xFF AND PUSH1 0x2 DUP2 GT ISZERO PUSH1 0x70 JUMPI PUSH1 0x70 PUSH1 0x80 JUMP JUMPDEST SUB PUSH1 0x7A JUMPI POP PUSH1 0x0 SWAP1 JUMP JUMPDEST POP PUSH1 0x2 SWAP1 JUMP JUMPDEST PUSH4 0x4E487B71 PUSH1 0xE0 SHL PUSH1 0x0 MSTORE PUSH1 0x21 PUSH1 0x4 MSTORE PUSH1 0x24 PUSH1 0x0 REVERT JUMPDEST PUSH1 0x20 DUP2 ADD PUSH1 0x3 DUP4 LT PUSH1 0xB7 JUMPI PUSH4 0x4E487B71 PUSH1 0xE0 SHL PUSH1 0x0 MSTORE PUSH1 0x21 PUSH1 0x4 MSTORE PUSH1 0x24 PUSH1 0x0 REVERT JUMPDEST SWAP2 SWAP1 MSTORE SWAP1 JUMP INVALID LOG2 PUSH5 0x6970667358 0x22 SLT KECCAK256 0xBF PUSH28 0xF238CBDDE1E58234A47D0358969AC9AD11BCA5DEB7A57EA57B54D1EF 0xDA PUSH25 0x64736F6C634300081100330000000000000000000000000000 "
				},
				"gasEstimates": {
					"creation": {
						"codeDepositCost": "48600",
						"executionCost": "24317",
						"totalCost": "72917"
					},
					"external": {
						"academyState()": "2329",
						"getEnum()": "2402"
					}
				},
				"methodIdentifiers": {
					"academyState()": "23b8ca9f",
					"getEnum()": "f0ebce5a"
				}
			},
			"storageLayout": {
				"storage": [
					{
						"astId": 218,
						"contract": "contracts/StructsAndEnums.sol:TestEnum",
						"label": "academyState",
						"offset": 0,
						"slot": "0",
						"type": "t_enum(Status)213"
					}
				],
				"types": {
					"t_enum(Status)213": {
						"encoding": "inplace",
						"label": "enum TestEnum.Status",
						"numberOfBytes": "1"
					}
				}
			},
			"userdoc": {
				"kind": "user",
				"methods": {},
				"version": 1
			}
		}
	}
}