{
	"contracts/FixedSizeArrays.sol": {
		"FixedSizeArrays": {
			"abi": [
				{
					"inputs": [],
					"name": "b",
					"outputs": [
						{
							"internalType": "bytes",
							"name": "",
							"type": "bytes"
						}
					],
					"stateMutability": "view",
					"type": "function"
				},
				{
					"inputs": [],
					"name": "b1",
					"outputs": [
						{
							"internalType": "bytes1",
							"name": "",
							"type": "bytes1"
						}
					],
					"stateMutability": "view",
					"type": "function"
				},
				{
					"inputs": [],
					"name": "getArrayLength",
					"outputs": [
						{
							"internalType": "uint256",
							"name": "",
							"type": "uint256"
						}
					],
					"stateMutability": "view",
					"type": "function"
				},
				{
					"inputs": [
						{
							"internalType": "uint256",
							"name": "",
							"type": "uint256"
						}
					],
					"name": "numbers",
					"outputs": [
						{
							"internalType": "uint256",
							"name": "",
							"type": "uint256"
						}
					],
					"stateMutability": "view",
					"type": "function"
				},
				{
					"inputs": [
						{
							"internalType": "uint256",
							"name": "_index",
							"type": "uint256"
						},
						{
							"internalType": "uint256",
							"name": "_value",
							"type": "uint256"
						}
					],
					"name": "setElement",
					"outputs": [],
					"stateMutability": "nonpayable",
					"type": "function"
				}
			],
			"devdoc": {
				"kind": "dev",
				"methods": {},
				"version": 1
			},
			"evm": {
				"assembly": "    /* \"contracts/FixedSizeArrays.sol\":71:391  contract FixedSizeArrays {... */\n  mstore(0x40, 0x80)\n    /* \"contracts/FixedSizeArrays.sol\":103:137  uint[3] public numbers = [1, 2, 3] */\n  mload(0x40)\n  dup1\n  0x60\n  add\n  0x40\n  mstore\n  dup1\n    /* \"contracts/FixedSizeArrays.sol\":129:130  1 */\n  0x01\n    /* \"contracts/FixedSizeArrays.sol\":103:137  uint[3] public numbers = [1, 2, 3] */\n  0xff\n  and\n  dup2\n  mstore\n  0x20\n  add\n    /* \"contracts/FixedSizeArrays.sol\":132:133  2 */\n  0x02\n    /* \"contracts/FixedSizeArrays.sol\":103:137  uint[3] public numbers = [1, 2, 3] */\n  0xff\n  and\n  dup2\n  mstore\n  0x20\n  add\n    /* \"contracts/FixedSizeArrays.sol\":135:136  3 */\n  0x03\n    /* \"contracts/FixedSizeArrays.sol\":103:137  uint[3] public numbers = [1, 2, 3] */\n  0xff\n  and\n  dup2\n  mstore\n  pop\n  0x00\n  swap1\n  0x03\n  tag_1\n  swap3\n  swap2\n  swap1\n  tag_2\n  jump\t// in\ntag_1:\n  pop\n    /* \"contracts/FixedSizeArrays.sol\":71:391  contract FixedSizeArrays {... */\n  callvalue\n  dup1\n  iszero\n  tag_3\n  jumpi\n  0x00\n  dup1\n  revert\ntag_3:\n  pop\n  jump(tag_4)\ntag_2:\n  dup3\n  0x03\n  dup2\n  add\n  swap3\n  dup3\n  iszero\n  tag_5\n  jumpi\n  swap2\n  0x20\n  mul\n  dup3\n  add\ntag_6:\n  dup3\n  dup2\n  gt\n  iszero\n  tag_7\n  jumpi\n  dup3\n  mload\n  dup3\n  swap1\n  0xff\n  and\n  swap1\n  sstore\n  swap2\n  0x20\n  add\n  swap2\n  swap1\n  0x01\n  add\n  swap1\n  jump(tag_6)\ntag_7:\ntag_5:\n  pop\n  swap1\n  pop\n  tag_8\n  swap2\n  swap1\n  tag_9\n  jump\t// in\ntag_8:\n  pop\n  swap1\n  jump\t// out\ntag_9:\ntag_10:\n  dup1\n  dup3\n  gt\n  iszero\n  tag_11\n  jumpi\n  0x00\n  dup2\n  0x00\n  swap1\n  sstore\n  pop\n  0x01\n  add\n  jump(tag_10)\ntag_11:\n  pop\n  swap1\n  jump\t// out\ntag_4:\n  dataSize(sub_0)\n  dup1\n  dataOffset(sub_0)\n  0x00\n  codecopy\n  0x00\n  return\nstop\n\nsub_0: assembly {\n        /* \"contracts/FixedSizeArrays.sol\":71:391  contract FixedSizeArrays {... */\n      mstore(0x40, 0x80)\n      callvalue\n      dup1\n      iszero\n      tag_1\n      jumpi\n      0x00\n      dup1\n      revert\n    tag_1:\n      pop\n      jumpi(tag_2, lt(calldatasize, 0x04))\n      shr(0xe0, calldataload(0x00))\n      dup1\n      0x0849cc99\n      eq\n      tag_3\n      jumpi\n      dup1\n      0x4df7e3d0\n      eq\n      tag_4\n      jumpi\n      dup1\n      0xa16e7215\n      eq\n      tag_5\n      jumpi\n      dup1\n      0xd39fa233\n      eq\n      tag_6\n      jumpi\n      dup1\n      0xee495002\n      eq\n      tag_7\n      jumpi\n    tag_2:\n      0x00\n      dup1\n      revert\n        /* \"contracts/FixedSizeArrays.sol\":250:342  function getArrayLength() public view returns(uint) {... */\n    tag_3:\n      tag_8\n      tag_9\n      jump\t// in\n    tag_8:\n      mload(0x40)\n      tag_10\n      swap2\n      swap1\n      tag_11\n      jump\t// in\n    tag_10:\n      mload(0x40)\n      dup1\n      swap2\n      sub\n      swap1\n      return\n        /* \"contracts/FixedSizeArrays.sol\":350:364  bytes public b */\n    tag_4:\n      tag_12\n      tag_13\n      jump\t// in\n    tag_12:\n      mload(0x40)\n      tag_14\n      swap2\n      swap1\n      tag_15\n      jump\t// in\n    tag_14:\n      mload(0x40)\n      dup1\n      swap2\n      sub\n      swap1\n      return\n        /* \"contracts/FixedSizeArrays.sol\":146:242  function setElement(uint _index, uint _value) public {... */\n    tag_5:\n      tag_16\n      0x04\n      dup1\n      calldatasize\n      sub\n      dup2\n      add\n      swap1\n      tag_17\n      swap2\n      swap1\n      tag_18\n      jump\t// in\n    tag_17:\n      tag_19\n      jump\t// in\n    tag_16:\n      stop\n        /* \"contracts/FixedSizeArrays.sol\":103:137  uint[3] public numbers = [1, 2, 3] */\n    tag_6:\n      tag_20\n      0x04\n      dup1\n      calldatasize\n      sub\n      dup2\n      add\n      swap1\n      tag_21\n      swap2\n      swap1\n      tag_22\n      jump\t// in\n    tag_21:\n      tag_23\n      jump\t// in\n    tag_20:\n      mload(0x40)\n      tag_24\n      swap2\n      swap1\n      tag_11\n      jump\t// in\n    tag_24:\n      mload(0x40)\n      dup1\n      swap2\n      sub\n      swap1\n      return\n        /* \"contracts/FixedSizeArrays.sol\":371:387  bytes1 public b1 */\n    tag_7:\n      tag_25\n      tag_26\n      jump\t// in\n    tag_25:\n      mload(0x40)\n      tag_27\n      swap2\n      swap1\n      tag_28\n      jump\t// in\n    tag_27:\n      mload(0x40)\n      dup1\n      swap2\n      sub\n      swap1\n      return\n        /* \"contracts/FixedSizeArrays.sol\":250:342  function getArrayLength() public view returns(uint) {... */\n    tag_9:\n        /* \"contracts/FixedSizeArrays.sol\":296:300  uint */\n      0x00\n        /* \"contracts/FixedSizeArrays.sol\":320:334  numbers.length */\n      0x03\n        /* \"contracts/FixedSizeArrays.sol\":313:334  return numbers.length */\n      swap1\n      pop\n        /* \"contracts/FixedSizeArrays.sol\":250:342  function getArrayLength() public view returns(uint) {... */\n      swap1\n      jump\t// out\n        /* \"contracts/FixedSizeArrays.sol\":350:364  bytes public b */\n    tag_13:\n      0x03\n      dup1\n      sload\n      tag_30\n      swap1\n      tag_31\n      jump\t// in\n    tag_30:\n      dup1\n      0x1f\n      add\n      0x20\n      dup1\n      swap2\n      div\n      mul\n      0x20\n      add\n      mload(0x40)\n      swap1\n      dup2\n      add\n      0x40\n      mstore\n      dup1\n      swap3\n      swap2\n      swap1\n      dup2\n      dup2\n      mstore\n      0x20\n      add\n      dup3\n      dup1\n      sload\n      tag_32\n      swap1\n      tag_31\n      jump\t// in\n    tag_32:\n      dup1\n      iszero\n      tag_33\n      jumpi\n      dup1\n      0x1f\n      lt\n      tag_34\n      jumpi\n      0x0100\n      dup1\n      dup4\n      sload\n      div\n      mul\n      dup4\n      mstore\n      swap2\n      0x20\n      add\n      swap2\n      jump(tag_33)\n    tag_34:\n      dup3\n      add\n      swap2\n      swap1\n      0x00\n      mstore\n      keccak256(0x00, 0x20)\n      swap1\n    tag_35:\n      dup2\n      sload\n      dup2\n      mstore\n      swap1\n      0x01\n      add\n      swap1\n      0x20\n      add\n      dup1\n      dup4\n      gt\n      tag_35\n      jumpi\n      dup3\n      swap1\n      sub\n      0x1f\n      and\n      dup3\n      add\n      swap2\n    tag_33:\n      pop\n      pop\n      pop\n      pop\n      pop\n      dup2\n      jump\t// out\n        /* \"contracts/FixedSizeArrays.sol\":146:242  function setElement(uint _index, uint _value) public {... */\n    tag_19:\n        /* \"contracts/FixedSizeArrays.sol\":228:234  _value */\n      dup1\n        /* \"contracts/FixedSizeArrays.sol\":210:217  numbers */\n      0x00\n        /* \"contracts/FixedSizeArrays.sol\":218:224  _index */\n      dup4\n        /* \"contracts/FixedSizeArrays.sol\":210:225  numbers[_index] */\n      0x03\n      dup2\n      lt\n      tag_37\n      jumpi\n      tag_38\n      tag_39\n      jump\t// in\n    tag_38:\n    tag_37:\n      add\n        /* \"contracts/FixedSizeArrays.sol\":210:234  numbers[_index] = _value */\n      dup2\n      swap1\n      sstore\n      pop\n        /* \"contracts/FixedSizeArrays.sol\":146:242  function setElement(uint _index, uint _value) public {... */\n      pop\n      pop\n      jump\t// out\n        /* \"contracts/FixedSizeArrays.sol\":103:137  uint[3] public numbers = [1, 2, 3] */\n    tag_23:\n      0x00\n      dup2\n      0x03\n      dup2\n      lt\n      tag_41\n      jumpi\n      0x00\n      dup1\n      revert\n    tag_41:\n      add\n      0x00\n      swap2\n      pop\n      swap1\n      pop\n      sload\n      dup2\n      jump\t// out\n        /* \"contracts/FixedSizeArrays.sol\":371:387  bytes1 public b1 */\n    tag_26:\n      0x04\n      0x00\n      swap1\n      sload\n      swap1\n      0x0100\n      exp\n      swap1\n      div\n      0xf8\n      shl\n      dup2\n      jump\t// out\n        /* \"#utility.yul\":7:84   */\n    tag_43:\n        /* \"#utility.yul\":44:51   */\n      0x00\n        /* \"#utility.yul\":73:78   */\n      dup2\n        /* \"#utility.yul\":62:78   */\n      swap1\n      pop\n        /* \"#utility.yul\":7:84   */\n      swap2\n      swap1\n      pop\n      jump\t// out\n        /* \"#utility.yul\":90:208   */\n    tag_44:\n        /* \"#utility.yul\":177:201   */\n      tag_61\n        /* \"#utility.yul\":195:200   */\n      dup2\n        /* \"#utility.yul\":177:201   */\n      tag_43\n      jump\t// in\n    tag_61:\n        /* \"#utility.yul\":172:175   */\n      dup3\n        /* \"#utility.yul\":165:202   */\n      mstore\n        /* \"#utility.yul\":90:208   */\n      pop\n      pop\n      jump\t// out\n        /* \"#utility.yul\":214:436   */\n    tag_11:\n        /* \"#utility.yul\":307:311   */\n      0x00\n        /* \"#utility.yul\":345:347   */\n      0x20\n        /* \"#utility.yul\":334:343   */\n      dup3\n        /* \"#utility.yul\":330:348   */\n      add\n        /* \"#utility.yul\":322:348   */\n      swap1\n      pop\n        /* \"#utility.yul\":358:429   */\n      tag_63\n        /* \"#utility.yul\":426:427   */\n      0x00\n        /* \"#utility.yul\":415:424   */\n      dup4\n        /* \"#utility.yul\":411:428   */\n      add\n        /* \"#utility.yul\":402:408   */\n      dup5\n        /* \"#utility.yul\":358:429   */\n      tag_44\n      jump\t// in\n    tag_63:\n        /* \"#utility.yul\":214:436   */\n      swap3\n      swap2\n      pop\n      pop\n      jump\t// out\n        /* \"#utility.yul\":442:540   */\n    tag_45:\n        /* \"#utility.yul\":493:499   */\n      0x00\n        /* \"#utility.yul\":527:532   */\n      dup2\n        /* \"#utility.yul\":521:533   */\n      mload\n        /* \"#utility.yul\":511:533   */\n      swap1\n      pop\n        /* \"#utility.yul\":442:540   */\n      swap2\n      swap1\n      pop\n      jump\t// out\n        /* \"#utility.yul\":546:714   */\n    tag_46:\n        /* \"#utility.yul\":629:640   */\n      0x00\n        /* \"#utility.yul\":663:669   */\n      dup3\n        /* \"#utility.yul\":658:661   */\n      dup3\n        /* \"#utility.yul\":651:670   */\n      mstore\n        /* \"#utility.yul\":703:707   */\n      0x20\n        /* \"#utility.yul\":698:701   */\n      dup3\n        /* \"#utility.yul\":694:708   */\n      add\n        /* \"#utility.yul\":679:708   */\n      swap1\n      pop\n        /* \"#utility.yul\":546:714   */\n      swap3\n      swap2\n      pop\n      pop\n      jump\t// out\n        /* \"#utility.yul\":720:966   */\n    tag_47:\n        /* \"#utility.yul\":801:802   */\n      0x00\n        /* \"#utility.yul\":811:924   */\n    tag_67:\n        /* \"#utility.yul\":825:831   */\n      dup4\n        /* \"#utility.yul\":822:823   */\n      dup2\n        /* \"#utility.yul\":819:832   */\n      lt\n        /* \"#utility.yul\":811:924   */\n      iszero\n      tag_69\n      jumpi\n        /* \"#utility.yul\":910:911   */\n      dup1\n        /* \"#utility.yul\":905:908   */\n      dup3\n        /* \"#utility.yul\":901:912   */\n      add\n        /* \"#utility.yul\":895:913   */\n      mload\n        /* \"#utility.yul\":891:892   */\n      dup2\n        /* \"#utility.yul\":886:889   */\n      dup5\n        /* \"#utility.yul\":882:893   */\n      add\n        /* \"#utility.yul\":875:914   */\n      mstore\n        /* \"#utility.yul\":847:849   */\n      0x20\n        /* \"#utility.yul\":844:845   */\n      dup2\n        /* \"#utility.yul\":840:850   */\n      add\n        /* \"#utility.yul\":835:850   */\n      swap1\n      pop\n        /* \"#utility.yul\":811:924   */\n      jump(tag_67)\n    tag_69:\n        /* \"#utility.yul\":958:959   */\n      0x00\n        /* \"#utility.yul\":949:955   */\n      dup5\n        /* \"#utility.yul\":944:947   */\n      dup5\n        /* \"#utility.yul\":940:956   */\n      add\n        /* \"#utility.yul\":933:960   */\n      mstore\n        /* \"#utility.yul\":782:966   */\n      pop\n        /* \"#utility.yul\":720:966   */\n      pop\n      pop\n      pop\n      jump\t// out\n        /* \"#utility.yul\":972:1074   */\n    tag_48:\n        /* \"#utility.yul\":1013:1019   */\n      0x00\n        /* \"#utility.yul\":1064:1066   */\n      0x1f\n        /* \"#utility.yul\":1060:1067   */\n      not\n        /* \"#utility.yul\":1055:1057   */\n      0x1f\n        /* \"#utility.yul\":1048:1053   */\n      dup4\n        /* \"#utility.yul\":1044:1058   */\n      add\n        /* \"#utility.yul\":1040:1068   */\n      and\n        /* \"#utility.yul\":1030:1068   */\n      swap1\n      pop\n        /* \"#utility.yul\":972:1074   */\n      swap2\n      swap1\n      pop\n      jump\t// out\n        /* \"#utility.yul\":1080:1453   */\n    tag_49:\n        /* \"#utility.yul\":1166:1169   */\n      0x00\n        /* \"#utility.yul\":1194:1232   */\n      tag_72\n        /* \"#utility.yul\":1226:1231   */\n      dup3\n        /* \"#utility.yul\":1194:1232   */\n      tag_45\n      jump\t// in\n    tag_72:\n        /* \"#utility.yul\":1248:1318   */\n      tag_73\n        /* \"#utility.yul\":1311:1317   */\n      dup2\n        /* \"#utility.yul\":1306:1309   */\n      dup6\n        /* \"#utility.yul\":1248:1318   */\n      tag_46\n      jump\t// in\n    tag_73:\n        /* \"#utility.yul\":1241:1318   */\n      swap4\n      pop\n        /* \"#utility.yul\":1327:1392   */\n      tag_74\n        /* \"#utility.yul\":1385:1391   */\n      dup2\n        /* \"#utility.yul\":1380:1383   */\n      dup6\n        /* \"#utility.yul\":1373:1377   */\n      0x20\n        /* \"#utility.yul\":1366:1371   */\n      dup7\n        /* \"#utility.yul\":1362:1378   */\n      add\n        /* \"#utility.yul\":1327:1392   */\n      tag_47\n      jump\t// in\n    tag_74:\n        /* \"#utility.yul\":1417:1446   */\n      tag_75\n        /* \"#utility.yul\":1439:1445   */\n      dup2\n        /* \"#utility.yul\":1417:1446   */\n      tag_48\n      jump\t// in\n    tag_75:\n        /* \"#utility.yul\":1412:1415   */\n      dup5\n        /* \"#utility.yul\":1408:1447   */\n      add\n        /* \"#utility.yul\":1401:1447   */\n      swap2\n      pop\n        /* \"#utility.yul\":1170:1453   */\n      pop\n        /* \"#utility.yul\":1080:1453   */\n      swap3\n      swap2\n      pop\n      pop\n      jump\t// out\n        /* \"#utility.yul\":1459:1768   */\n    tag_15:\n        /* \"#utility.yul\":1570:1574   */\n      0x00\n        /* \"#utility.yul\":1608:1610   */\n      0x20\n        /* \"#utility.yul\":1597:1606   */\n      dup3\n        /* \"#utility.yul\":1593:1611   */\n      add\n        /* \"#utility.yul\":1585:1611   */\n      swap1\n      pop\n        /* \"#utility.yul\":1657:1666   */\n      dup2\n        /* \"#utility.yul\":1651:1655   */\n      dup2\n        /* \"#utility.yul\":1647:1667   */\n      sub\n        /* \"#utility.yul\":1643:1644   */\n      0x00\n        /* \"#utility.yul\":1632:1641   */\n      dup4\n        /* \"#utility.yul\":1628:1645   */\n      add\n        /* \"#utility.yul\":1621:1668   */\n      mstore\n        /* \"#utility.yul\":1685:1761   */\n      tag_77\n        /* \"#utility.yul\":1756:1760   */\n      dup2\n        /* \"#utility.yul\":1747:1753   */\n      dup5\n        /* \"#utility.yul\":1685:1761   */\n      tag_49\n      jump\t// in\n    tag_77:\n        /* \"#utility.yul\":1677:1761   */\n      swap1\n      pop\n        /* \"#utility.yul\":1459:1768   */\n      swap3\n      swap2\n      pop\n      pop\n      jump\t// out\n        /* \"#utility.yul\":1855:1972   */\n    tag_51:\n        /* \"#utility.yul\":1964:1965   */\n      0x00\n        /* \"#utility.yul\":1961:1962   */\n      dup1\n        /* \"#utility.yul\":1954:1966   */\n      revert\n        /* \"#utility.yul\":2101:2223   */\n    tag_53:\n        /* \"#utility.yul\":2174:2198   */\n      tag_82\n        /* \"#utility.yul\":2192:2197   */\n      dup2\n        /* \"#utility.yul\":2174:2198   */\n      tag_43\n      jump\t// in\n    tag_82:\n        /* \"#utility.yul\":2167:2172   */\n      dup2\n        /* \"#utility.yul\":2164:2199   */\n      eq\n        /* \"#utility.yul\":2154:2217   */\n      tag_83\n      jumpi\n        /* \"#utility.yul\":2213:2214   */\n      0x00\n        /* \"#utility.yul\":2210:2211   */\n      dup1\n        /* \"#utility.yul\":2203:2215   */\n      revert\n        /* \"#utility.yul\":2154:2217   */\n    tag_83:\n        /* \"#utility.yul\":2101:2223   */\n      pop\n      jump\t// out\n        /* \"#utility.yul\":2229:2368   */\n    tag_54:\n        /* \"#utility.yul\":2275:2280   */\n      0x00\n        /* \"#utility.yul\":2313:2319   */\n      dup2\n        /* \"#utility.yul\":2300:2320   */\n      calldataload\n        /* \"#utility.yul\":2291:2320   */\n      swap1\n      pop\n        /* \"#utility.yul\":2329:2362   */\n      tag_85\n        /* \"#utility.yul\":2356:2361   */\n      dup2\n        /* \"#utility.yul\":2329:2362   */\n      tag_53\n      jump\t// in\n    tag_85:\n        /* \"#utility.yul\":2229:2368   */\n      swap3\n      swap2\n      pop\n      pop\n      jump\t// out\n        /* \"#utility.yul\":2374:2848   */\n    tag_18:\n        /* \"#utility.yul\":2442:2448   */\n      0x00\n        /* \"#utility.yul\":2450:2456   */\n      dup1\n        /* \"#utility.yul\":2499:2501   */\n      0x40\n        /* \"#utility.yul\":2487:2496   */\n      dup4\n        /* \"#utility.yul\":2478:2485   */\n      dup6\n        /* \"#utility.yul\":2474:2497   */\n      sub\n        /* \"#utility.yul\":2470:2502   */\n      slt\n        /* \"#utility.yul\":2467:2586   */\n      iszero\n      tag_87\n      jumpi\n        /* \"#utility.yul\":2505:2584   */\n      tag_88\n      tag_51\n      jump\t// in\n    tag_88:\n        /* \"#utility.yul\":2467:2586   */\n    tag_87:\n        /* \"#utility.yul\":2625:2626   */\n      0x00\n        /* \"#utility.yul\":2650:2703   */\n      tag_89\n        /* \"#utility.yul\":2695:2702   */\n      dup6\n        /* \"#utility.yul\":2686:2692   */\n      dup3\n        /* \"#utility.yul\":2675:2684   */\n      dup7\n        /* \"#utility.yul\":2671:2693   */\n      add\n        /* \"#utility.yul\":2650:2703   */\n      tag_54\n      jump\t// in\n    tag_89:\n        /* \"#utility.yul\":2640:2703   */\n      swap3\n      pop\n        /* \"#utility.yul\":2596:2713   */\n      pop\n        /* \"#utility.yul\":2752:2754   */\n      0x20\n        /* \"#utility.yul\":2778:2831   */\n      tag_90\n        /* \"#utility.yul\":2823:2830   */\n      dup6\n        /* \"#utility.yul\":2814:2820   */\n      dup3\n        /* \"#utility.yul\":2803:2812   */\n      dup7\n        /* \"#utility.yul\":2799:2821   */\n      add\n        /* \"#utility.yul\":2778:2831   */\n      tag_54\n      jump\t// in\n    tag_90:\n        /* \"#utility.yul\":2768:2831   */\n      swap2\n      pop\n        /* \"#utility.yul\":2723:2841   */\n      pop\n        /* \"#utility.yul\":2374:2848   */\n      swap3\n      pop\n      swap3\n      swap1\n      pop\n      jump\t// out\n        /* \"#utility.yul\":2854:3183   */\n    tag_22:\n        /* \"#utility.yul\":2913:2919   */\n      0x00\n        /* \"#utility.yul\":2962:2964   */\n      0x20\n        /* \"#utility.yul\":2950:2959   */\n      dup3\n        /* \"#utility.yul\":2941:2948   */\n      dup5\n        /* \"#utility.yul\":2937:2960   */\n      sub\n        /* \"#utility.yul\":2933:2965   */\n      slt\n        /* \"#utility.yul\":2930:3049   */\n      iszero\n      tag_92\n      jumpi\n        /* \"#utility.yul\":2968:3047   */\n      tag_93\n      tag_51\n      jump\t// in\n    tag_93:\n        /* \"#utility.yul\":2930:3049   */\n    tag_92:\n        /* \"#utility.yul\":3088:3089   */\n      0x00\n        /* \"#utility.yul\":3113:3166   */\n      tag_94\n        /* \"#utility.yul\":3158:3165   */\n      dup5\n        /* \"#utility.yul\":3149:3155   */\n      dup3\n        /* \"#utility.yul\":3138:3147   */\n      dup6\n        /* \"#utility.yul\":3134:3156   */\n      add\n        /* \"#utility.yul\":3113:3166   */\n      tag_54\n      jump\t// in\n    tag_94:\n        /* \"#utility.yul\":3103:3166   */\n      swap2\n      pop\n        /* \"#utility.yul\":3059:3176   */\n      pop\n        /* \"#utility.yul\":2854:3183   */\n      swap3\n      swap2\n      pop\n      pop\n      jump\t// out\n        /* \"#utility.yul\":3189:3338   */\n    tag_55:\n        /* \"#utility.yul\":3225:3232   */\n      0x00\n        /* \"#utility.yul\":3265:3331   */\n      0xff00000000000000000000000000000000000000000000000000000000000000\n        /* \"#utility.yul\":3258:3263   */\n      dup3\n        /* \"#utility.yul\":3254:3332   */\n      and\n        /* \"#utility.yul\":3243:3332   */\n      swap1\n      pop\n        /* \"#utility.yul\":3189:3338   */\n      swap2\n      swap1\n      pop\n      jump\t// out\n        /* \"#utility.yul\":3344:3459   */\n    tag_56:\n        /* \"#utility.yul\":3429:3452   */\n      tag_97\n        /* \"#utility.yul\":3446:3451   */\n      dup2\n        /* \"#utility.yul\":3429:3452   */\n      tag_55\n      jump\t// in\n    tag_97:\n        /* \"#utility.yul\":3424:3427   */\n      dup3\n        /* \"#utility.yul\":3417:3453   */\n      mstore\n        /* \"#utility.yul\":3344:3459   */\n      pop\n      pop\n      jump\t// out\n        /* \"#utility.yul\":3465:3683   */\n    tag_28:\n        /* \"#utility.yul\":3556:3560   */\n      0x00\n        /* \"#utility.yul\":3594:3596   */\n      0x20\n        /* \"#utility.yul\":3583:3592   */\n      dup3\n        /* \"#utility.yul\":3579:3597   */\n      add\n        /* \"#utility.yul\":3571:3597   */\n      swap1\n      pop\n        /* \"#utility.yul\":3607:3676   */\n      tag_99\n        /* \"#utility.yul\":3673:3674   */\n      0x00\n        /* \"#utility.yul\":3662:3671   */\n      dup4\n        /* \"#utility.yul\":3658:3675   */\n      add\n        /* \"#utility.yul\":3649:3655   */\n      dup5\n        /* \"#utility.yul\":3607:3676   */\n      tag_56\n      jump\t// in\n    tag_99:\n        /* \"#utility.yul\":3465:3683   */\n      swap3\n      swap2\n      pop\n      pop\n      jump\t// out\n        /* \"#utility.yul\":3689:3869   */\n    tag_57:\n        /* \"#utility.yul\":3737:3814   */\n      0x4e487b7100000000000000000000000000000000000000000000000000000000\n        /* \"#utility.yul\":3734:3735   */\n      0x00\n        /* \"#utility.yul\":3727:3815   */\n      mstore\n        /* \"#utility.yul\":3834:3838   */\n      0x22\n        /* \"#utility.yul\":3831:3832   */\n      0x04\n        /* \"#utility.yul\":3824:3839   */\n      mstore\n        /* \"#utility.yul\":3858:3862   */\n      0x24\n        /* \"#utility.yul\":3855:3856   */\n      0x00\n        /* \"#utility.yul\":3848:3863   */\n      revert\n        /* \"#utility.yul\":3875:4195   */\n    tag_31:\n        /* \"#utility.yul\":3919:3925   */\n      0x00\n        /* \"#utility.yul\":3956:3957   */\n      0x02\n        /* \"#utility.yul\":3950:3954   */\n      dup3\n        /* \"#utility.yul\":3946:3958   */\n      div\n        /* \"#utility.yul\":3936:3958   */\n      swap1\n      pop\n        /* \"#utility.yul\":4003:4004   */\n      0x01\n        /* \"#utility.yul\":3997:4001   */\n      dup3\n        /* \"#utility.yul\":3993:4005   */\n      and\n        /* \"#utility.yul\":4024:4042   */\n      dup1\n        /* \"#utility.yul\":4014:4095   */\n      tag_102\n      jumpi\n        /* \"#utility.yul\":4080:4084   */\n      0x7f\n        /* \"#utility.yul\":4072:4078   */\n      dup3\n        /* \"#utility.yul\":4068:4085   */\n      and\n        /* \"#utility.yul\":4058:4085   */\n      swap2\n      pop\n        /* \"#utility.yul\":4014:4095   */\n    tag_102:\n        /* \"#utility.yul\":4142:4144   */\n      0x20\n        /* \"#utility.yul\":4134:4140   */\n      dup3\n        /* \"#utility.yul\":4131:4145   */\n      lt\n        /* \"#utility.yul\":4111:4129   */\n      dup2\n        /* \"#utility.yul\":4108:4146   */\n      sub\n        /* \"#utility.yul\":4105:4189   */\n      tag_103\n      jumpi\n        /* \"#utility.yul\":4161:4179   */\n      tag_104\n      tag_57\n      jump\t// in\n    tag_104:\n        /* \"#utility.yul\":4105:4189   */\n    tag_103:\n        /* \"#utility.yul\":3926:4195   */\n      pop\n        /* \"#utility.yul\":3875:4195   */\n      swap2\n      swap1\n      pop\n      jump\t// out\n        /* \"#utility.yul\":4201:4381   */\n    tag_39:\n        /* \"#utility.yul\":4249:4326   */\n      0x4e487b7100000000000000000000000000000000000000000000000000000000\n        /* \"#utility.yul\":4246:4247   */\n      0x00\n        /* \"#utility.yul\":4239:4327   */\n      mstore\n        /* \"#utility.yul\":4346:4350   */\n      0x32\n        /* \"#utility.yul\":4343:4344   */\n      0x04\n        /* \"#utility.yul\":4336:4351   */\n      mstore\n        /* \"#utility.yul\":4370:4374   */\n      0x24\n        /* \"#utility.yul\":4367:4368   */\n      0x00\n        /* \"#utility.yul\":4360:4375   */\n      revert\n\n    auxdata: 0xa2646970667358221220adf1d3010217d87d30e9a3059ebe7a906b3834399b3932eb4346428b3349131064736f6c63430008110033\n}\n",
				"bytecode": {
					"linkReferences": {},
					"object": "60806040526040518060600160405280600160ff168152602001600260ff168152602001600360ff16815250600090600361003b92919061004e565b5034801561004857600080fd5b506100b0565b8260038101928215610082579160200282015b82811115610081578251829060ff16905591602001919060010190610061565b5b50905061008f9190610093565b5090565b5b808211156100ac576000816000905550600101610094565b5090565b610484806100bf6000396000f3fe608060405234801561001057600080fd5b50600436106100575760003560e01c80630849cc991461005c5780634df7e3d01461007a578063a16e721514610098578063d39fa233146100b4578063ee495002146100e4575b600080fd5b610064610102565b60405161007191906101fe565b60405180910390f35b61008261010b565b60405161008f91906102a9565b60405180910390f35b6100b260048036038101906100ad91906102fc565b610199565b005b6100ce60048036038101906100c9919061033c565b6101b7565b6040516100db91906101fe565b60405180910390f35b6100ec6101d2565b6040516100f991906103a4565b60405180910390f35b60006003905090565b60038054610118906103ee565b80601f0160208091040260200160405190810160405280929190818152602001828054610144906103ee565b80156101915780601f1061016657610100808354040283529160200191610191565b820191906000526020600020905b81548152906001019060200180831161017457829003601f168201915b505050505081565b80600083600381106101ae576101ad61041f565b5b01819055505050565b600081600381106101c757600080fd5b016000915090505481565b600460009054906101000a900460f81b81565b6000819050919050565b6101f8816101e5565b82525050565b600060208201905061021360008301846101ef565b92915050565b600081519050919050565b600082825260208201905092915050565b60005b83811015610253578082015181840152602081019050610238565b60008484015250505050565b6000601f19601f8301169050919050565b600061027b82610219565b6102858185610224565b9350610295818560208601610235565b61029e8161025f565b840191505092915050565b600060208201905081810360008301526102c38184610270565b905092915050565b600080fd5b6102d9816101e5565b81146102e457600080fd5b50565b6000813590506102f6816102d0565b92915050565b60008060408385031215610313576103126102cb565b5b6000610321858286016102e7565b9250506020610332858286016102e7565b9150509250929050565b600060208284031215610352576103516102cb565b5b6000610360848285016102e7565b91505092915050565b60007fff0000000000000000000000000000000000000000000000000000000000000082169050919050565b61039e81610369565b82525050565b60006020820190506103b96000830184610395565b92915050565b7f4e487b7100000000000000000000000000000000000000000000000000000000600052602260045260246000fd5b6000600282049050600182168061040657607f821691505b602082108103610419576104186103bf565b5b50919050565b7f4e487b7100000000000000000000000000000000000000000000000000000000600052603260045260246000fdfea2646970667358221220adf1d3010217d87d30e9a3059ebe7a906b3834399b3932eb4346428b3349131064736f6c63430008110033",
					"opcodes": "PUSH1 0x80 PUSH1 0x40 MSTORE PUSH1 0x40 MLOAD DUP1 PUSH1 0x60 ADD PUSH1 0x40 MSTORE DUP1 PUSH1 0x1 PUSH1 0xFF AND DUP2 MSTORE PUSH1 0x20 ADD PUSH1 0x2 PUSH1 0xFF AND DUP2 MSTORE PUSH1 0x20 ADD PUSH1 0x3 PUSH1 0xFF AND DUP2 MSTORE POP PUSH1 0x0 SWAP1 PUSH1 0x3 PUSH2 0x3B SWAP3 SWAP2 SWAP1 PUSH2 0x4E JUMP JUMPDEST POP CALLVALUE DUP1 ISZERO PUSH2 0x48 JUMPI PUSH1 0x0 DUP1 REVERT JUMPDEST POP PUSH2 0xB0 JUMP JUMPDEST DUP3 PUSH1 0x3 DUP2 ADD SWAP3 DUP3 ISZERO PUSH2 0x82 JUMPI SWAP2 PUSH1 0x20 MUL DUP3 ADD JUMPDEST DUP3 DUP2 GT ISZERO PUSH2 0x81 JUMPI DUP3 MLOAD DUP3 SWAP1 PUSH1 0xFF AND SWAP1 SSTORE SWAP2 PUSH1 0x20 ADD SWAP2 SWAP1 PUSH1 0x1 ADD SWAP1 PUSH2 0x61 JUMP JUMPDEST JUMPDEST POP SWAP1 POP PUSH2 0x8F SWAP2 SWAP1 PUSH2 0x93 JUMP JUMPDEST POP SWAP1 JUMP JUMPDEST JUMPDEST DUP1 DUP3 GT ISZERO PUSH2 0xAC JUMPI PUSH1 0x0 DUP2 PUSH1 0x0 SWAP1 SSTORE POP PUSH1 0x1 ADD PUSH2 0x94 JUMP JUMPDEST POP SWAP1 JUMP JUMPDEST PUSH2 0x484 DUP1 PUSH2 0xBF PUSH1 0x0 CODECOPY PUSH1 0x0 RETURN INVALID PUSH1 0x80 PUSH1 0x40 MSTORE CALLVALUE DUP1 ISZERO PUSH2 0x10 JUMPI PUSH1 0x0 DUP1 REVERT JUMPDEST POP PUSH1 0x4 CALLDATASIZE LT PUSH2 0x57 JUMPI PUSH1 0x0 CALLDATALOAD PUSH1 0xE0 SHR DUP1 PUSH4 0x849CC99 EQ PUSH2 0x5C JUMPI DUP1 PUSH4 0x4DF7E3D0 EQ PUSH2 0x7A JUMPI DUP1 PUSH4 0xA16E7215 EQ PUSH2 0x98 JUMPI DUP1 PUSH4 0xD39FA233 EQ PUSH2 0xB4 JUMPI DUP1 PUSH4 0xEE495002 EQ PUSH2 0xE4 JUMPI JUMPDEST PUSH1 0x0 DUP1 REVERT JUMPDEST PUSH2 0x64 PUSH2 0x102 JUMP JUMPDEST PUSH1 0x40 MLOAD PUSH2 0x71 SWAP2 SWAP1 PUSH2 0x1FE JUMP JUMPDEST PUSH1 0x40 MLOAD DUP1 SWAP2 SUB SWAP1 RETURN JUMPDEST PUSH2 0x82 PUSH2 0x10B JUMP JUMPDEST PUSH1 0x40 MLOAD PUSH2 0x8F SWAP2 SWAP1 PUSH2 0x2A9 JUMP JUMPDEST PUSH1 0x40 MLOAD DUP1 SWAP2 SUB SWAP1 RETURN JUMPDEST PUSH2 0xB2 PUSH1 0x4 DUP1 CALLDATASIZE SUB DUP2 ADD SWAP1 PUSH2 0xAD SWAP2 SWAP1 PUSH2 0x2FC JUMP JUMPDEST PUSH2 0x199 JUMP JUMPDEST STOP JUMPDEST PUSH2 0xCE PUSH1 0x4 DUP1 CALLDATASIZE SUB DUP2 ADD SWAP1 PUSH2 0xC9 SWAP2 SWAP1 PUSH2 0x33C JUMP JUMPDEST PUSH2 0x1B7 JUMP JUMPDEST PUSH1 0x40 MLOAD PUSH2 0xDB SWAP2 SWAP1 PUSH2 0x1FE JUMP JUMPDEST PUSH1 0x40 MLOAD DUP1 SWAP2 SUB SWAP1 RETURN JUMPDEST PUSH2 0xEC PUSH2 0x1D2 JUMP JUMPDEST PUSH1 0x40 MLOAD PUSH2 0xF9 SWAP2 SWAP1 PUSH2 0x3A4 JUMP JUMPDEST PUSH1 0x40 MLOAD DUP1 SWAP2 SUB SWAP1 RETURN JUMPDEST PUSH1 0x0 PUSH1 0x3 SWAP1 POP SWAP1 JUMP JUMPDEST PUSH1 0x3 DUP1 SLOAD PUSH2 0x118 SWAP1 PUSH2 0x3EE JUMP JUMPDEST DUP1 PUSH1 0x1F ADD PUSH1 0x20 DUP1 SWAP2 DIV MUL PUSH1 0x20 ADD PUSH1 0x40 MLOAD SWAP1 DUP2 ADD PUSH1 0x40 MSTORE DUP1 SWAP3 SWAP2 SWAP1 DUP2 DUP2 MSTORE PUSH1 0x20 ADD DUP3 DUP1 SLOAD PUSH2 0x144 SWAP1 PUSH2 0x3EE JUMP JUMPDEST DUP1 ISZERO PUSH2 0x191 JUMPI DUP1 PUSH1 0x1F LT PUSH2 0x166 JUMPI PUSH2 0x100 DUP1 DUP4 SLOAD DIV MUL DUP4 MSTORE SWAP2 PUSH1 0x20 ADD SWAP2 PUSH2 0x191 JUMP JUMPDEST DUP3 ADD SWAP2 SWAP1 PUSH1 0x0 MSTORE PUSH1 0x20 PUSH1 0x0 KECCAK256 SWAP1 JUMPDEST DUP2 SLOAD DUP2 MSTORE SWAP1 PUSH1 0x1 ADD SWAP1 PUSH1 0x20 ADD DUP1 DUP4 GT PUSH2 0x174 JUMPI DUP3 SWAP1 SUB PUSH1 0x1F AND DUP3 ADD SWAP2 JUMPDEST POP POP POP POP POP DUP2 JUMP JUMPDEST DUP1 PUSH1 0x0 DUP4 PUSH1 0x3 DUP2 LT PUSH2 0x1AE JUMPI PUSH2 0x1AD PUSH2 0x41F JUMP JUMPDEST JUMPDEST ADD DUP2 SWAP1 SSTORE POP POP POP JUMP JUMPDEST PUSH1 0x0 DUP2 PUSH1 0x3 DUP2 LT PUSH2 0x1C7 JUMPI PUSH1 0x0 DUP1 REVERT JUMPDEST ADD PUSH1 0x0 SWAP2 POP SWAP1 POP SLOAD DUP2 JUMP JUMPDEST PUSH1 0x4 PUSH1 0x0 SWAP1 SLOAD SWAP1 PUSH2 0x100 EXP SWAP1 DIV PUSH1 0xF8 SHL DUP2 JUMP JUMPDEST PUSH1 0x0 DUP2 SWAP1 POP SWAP2 SWAP1 POP JUMP JUMPDEST PUSH2 0x1F8 DUP2 PUSH2 0x1E5 JUMP JUMPDEST DUP3 MSTORE POP POP JUMP JUMPDEST PUSH1 0x0 PUSH1 0x20 DUP3 ADD SWAP1 POP PUSH2 0x213 PUSH1 0x0 DUP4 ADD DUP5 PUSH2 0x1EF JUMP JUMPDEST SWAP3 SWAP2 POP POP JUMP JUMPDEST PUSH1 0x0 DUP2 MLOAD SWAP1 POP SWAP2 SWAP1 POP JUMP JUMPDEST PUSH1 0x0 DUP3 DUP3 MSTORE PUSH1 0x20 DUP3 ADD SWAP1 POP SWAP3 SWAP2 POP POP JUMP JUMPDEST PUSH1 0x0 JUMPDEST DUP4 DUP2 LT ISZERO PUSH2 0x253 JUMPI DUP1 DUP3 ADD MLOAD DUP2 DUP5 ADD MSTORE PUSH1 0x20 DUP2 ADD SWAP1 POP PUSH2 0x238 JUMP JUMPDEST PUSH1 0x0 DUP5 DUP5 ADD MSTORE POP POP POP POP JUMP JUMPDEST PUSH1 0x0 PUSH1 0x1F NOT PUSH1 0x1F DUP4 ADD AND SWAP1 POP SWAP2 SWAP1 POP JUMP JUMPDEST PUSH1 0x0 PUSH2 0x27B DUP3 PUSH2 0x219 JUMP JUMPDEST PUSH2 0x285 DUP2 DUP6 PUSH2 0x224 JUMP JUMPDEST SWAP4 POP PUSH2 0x295 DUP2 DUP6 PUSH1 0x20 DUP7 ADD PUSH2 0x235 JUMP JUMPDEST PUSH2 0x29E DUP2 PUSH2 0x25F JUMP JUMPDEST DUP5 ADD SWAP2 POP POP SWAP3 SWAP2 POP POP JUMP JUMPDEST PUSH1 0x0 PUSH1 0x20 DUP3 ADD SWAP1 POP DUP2 DUP2 SUB PUSH1 0x0 DUP4 ADD MSTORE PUSH2 0x2C3 DUP2 DUP5 PUSH2 0x270 JUMP JUMPDEST SWAP1 POP SWAP3 SWAP2 POP POP JUMP JUMPDEST PUSH1 0x0 DUP1 REVERT JUMPDEST PUSH2 0x2D9 DUP2 PUSH2 0x1E5 JUMP JUMPDEST DUP2 EQ PUSH2 0x2E4 JUMPI PUSH1 0x0 DUP1 REVERT JUMPDEST POP JUMP JUMPDEST PUSH1 0x0 DUP2 CALLDATALOAD SWAP1 POP PUSH2 0x2F6 DUP2 PUSH2 0x2D0 JUMP JUMPDEST SWAP3 SWAP2 POP POP JUMP JUMPDEST PUSH1 0x0 DUP1 PUSH1 0x40 DUP4 DUP6 SUB SLT ISZERO PUSH2 0x313 JUMPI PUSH2 0x312 PUSH2 0x2CB JUMP JUMPDEST JUMPDEST PUSH1 0x0 PUSH2 0x321 DUP6 DUP3 DUP7 ADD PUSH2 0x2E7 JUMP JUMPDEST SWAP3 POP POP PUSH1 0x20 PUSH2 0x332 DUP6 DUP3 DUP7 ADD PUSH2 0x2E7 JUMP JUMPDEST SWAP2 POP POP SWAP3 POP SWAP3 SWAP1 POP JUMP JUMPDEST PUSH1 0x0 PUSH1 0x20 DUP3 DUP5 SUB SLT ISZERO PUSH2 0x352 JUMPI PUSH2 0x351 PUSH2 0x2CB JUMP JUMPDEST JUMPDEST PUSH1 0x0 PUSH2 0x360 DUP5 DUP3 DUP6 ADD PUSH2 0x2E7 JUMP JUMPDEST SWAP2 POP POP SWAP3 SWAP2 POP POP JUMP JUMPDEST PUSH1 0x0 PUSH32 0xFF00000000000000000000000000000000000000000000000000000000000000 DUP3 AND SWAP1 POP SWAP2 SWAP1 POP JUMP JUMPDEST PUSH2 0x39E DUP2 PUSH2 0x369 JUMP JUMPDEST DUP3 MSTORE POP POP JUMP JUMPDEST PUSH1 0x0 PUSH1 0x20 DUP3 ADD SWAP1 POP PUSH2 0x3B9 PUSH1 0x0 DUP4 ADD DUP5 PUSH2 0x395 JUMP JUMPDEST SWAP3 SWAP2 POP POP JUMP JUMPDEST PUSH32 0x4E487B7100000000000000000000000000000000000000000000000000000000 PUSH1 0x0 MSTORE PUSH1 0x22 PUSH1 0x4 MSTORE PUSH1 0x24 PUSH1 0x0 REVERT JUMPDEST PUSH1 0x0 PUSH1 0x2 DUP3 DIV SWAP1 POP PUSH1 0x1 DUP3 AND DUP1 PUSH2 0x406 JUMPI PUSH1 0x7F DUP3 AND SWAP2 POP JUMPDEST PUSH1 0x20 DUP3 LT DUP2 SUB PUSH2 0x419 JUMPI PUSH2 0x418 PUSH2 0x3BF JUMP JUMPDEST JUMPDEST POP SWAP2 SWAP1 POP JUMP JUMPDEST PUSH32 0x4E487B7100000000000000000000000000000000000000000000000000000000 PUSH1 0x0 MSTORE PUSH1 0x32 PUSH1 0x4 MSTORE PUSH1 0x24 PUSH1 0x0 REVERT INVALID LOG2 PUSH5 0x6970667358 0x22 SLT KECCAK256 0xAD CALL 0xD3 ADD MUL OR 0xD8 PUSH30 0x30E9A3059EBE7A906B3834399B3932EB4346428B3349131064736F6C6343 STOP ADDMOD GT STOP CALLER "
				},
				"gasEstimates": {
					"creation": {
						"codeDepositCost": "231200",
						"executionCost": "infinite",
						"totalCost": "infinite"
					},
					"external": {
						"b()": "infinite",
						"b1()": "2537",
						"getArrayLength()": "315",
						"numbers(uint256)": "infinite",
						"setElement(uint256,uint256)": "infinite"
					}
				},
				"methodIdentifiers": {
					"b()": "4df7e3d0",
					"b1()": "ee495002",
					"getArrayLength()": "0849cc99",
					"numbers(uint256)": "d39fa233",
					"setElement(uint256,uint256)": "a16e7215"
				}
			},
			"storageLayout": {
				"storage": [
					{
						"astId": 9,
						"contract": "contracts/FixedSizeArrays.sol:FixedSizeArrays",
						"label": "numbers",
						"offset": 0,
						"slot": "0",
						"type": "t_array(t_uint256)3_storage"
					},
					{
						"astId": 34,
						"contract": "contracts/FixedSizeArrays.sol:FixedSizeArrays",
						"label": "b",
						"offset": 0,
						"slot": "3",
						"type": "t_bytes_storage"
					},
					{
						"astId": 36,
						"contract": "contracts/FixedSizeArrays.sol:FixedSizeArrays",
						"label": "b1",
						"offset": 0,
						"slot": "4",
						"type": "t_bytes1"
					}
				],
				"types": {
					"t_array(t_uint256)3_storage": {
						"base": "t_uint256",
						"encoding": "inplace",
						"label": "uint256[3]",
						"numberOfBytes": "96"
					},
					"t_bytes1": {
						"encoding": "inplace",
						"label": "bytes1",
						"numberOfBytes": "1"
					},
					"t_bytes_storage": {
						"encoding": "bytes",
						"label": "bytes",
						"numberOfBytes": "32"
					},
					"t_uint256": {
						"encoding": "inplace",
						"label": "uint256",
						"numberOfBytes": "32"
					}
				}
			},
			"userdoc": {
				"kind": "user",
				"methods": {},
				"version": 1
			}
		}
	}
}