{
	"contracts/MyContract.sol": {
		"PriceSold": {
			"abi": [
				{
					"inputs": [],
					"name": "location",
					"outputs": [
						{
							"internalType": "string",
							"name": "",
							"type": "string"
						}
					],
					"stateMutability": "view",
					"type": "function"
				},
				{
					"inputs": [],
					"name": "price",
					"outputs": [
						{
							"internalType": "uint256",
							"name": "",
							"type": "uint256"
						}
					],
					"stateMutability": "view",
					"type": "function"
				},
				{
					"inputs": [
						{
							"internalType": "uint256",
							"name": "_price",
							"type": "uint256"
						}
					],
					"name": "setPrice",
					"outputs": [],
					"stateMutability": "nonpayable",
					"type": "function"
				},
				{
					"inputs": [],
					"name": "sold",
					"outputs": [
						{
							"internalType": "bool",
							"name": "",
							"type": "bool"
						}
					],
					"stateMutability": "view",
					"type": "function"
				},
				{
					"inputs": [],
					"name": "testOverFlow",
					"outputs": [],
					"stateMutability": "nonpayable",
					"type": "function"
				},
				{
					"inputs": [],
					"name": "testUnderFlow",
					"outputs": [],
					"stateMutability": "nonpayable",
					"type": "function"
				},
				{
					"inputs": [],
					"name": "x",
					"outputs": [
						{
							"internalType": "uint8",
							"name": "",
							"type": "uint8"
						}
					],
					"stateMutability": "view",
					"type": "function"
				},
				{
					"inputs": [],
					"name": "y",
					"outputs": [
						{
							"internalType": "int8",
							"name": "",
							"type": "int8"
						}
					],
					"stateMutability": "view",
					"type": "function"
				}
			],
			"devdoc": {
				"kind": "dev",
				"methods": {},
				"version": 1
			},
			"evm": {
				"assembly": "    /* \"contracts/MyContract.sol\":821:1296  contract PriceSold {... */\n  mstore(0x40, 0x80)\n    /* \"contracts/MyContract.sol\":896:928  string public location = \"Paris\" */\n  mload(0x40)\n  dup1\n  0x40\n  add\n  0x40\n  mstore\n  dup1\n  0x05\n  dup2\n  mstore\n  0x20\n  add\n  0x5061726973000000000000000000000000000000000000000000000000000000\n  dup2\n  mstore\n  pop\n  0x02\n  swap1\n  dup2\n  tag_1\n  swap2\n  swap1\n  tag_2\n  jump\t// in\ntag_1:\n  pop\n    /* \"contracts/MyContract.sol\":1140:1143  255 */\n  0xff\n    /* \"contracts/MyContract.sol\":1123:1143  uint8 public x = 255 */\n  0x03\n  exp(0x0100, 0x00)\n  dup2\n  sload\n  dup2\n  0xff\n  mul\n  not\n  and\n  swap1\n  dup4\n  0xff\n  and\n  mul\n  or\n  swap1\n  sstore\n  pop\n    /* \"contracts/MyContract.sol\":1166:1169  -13 */\n  0xfffffffffffffffffffffffffffffffffffffffffffffffffffffffffffffff3\n    /* \"contracts/MyContract.sol\":1150:1169  int8 public y = -13 */\n  0x03\n  exp(0x0100, 0x01)\n  dup2\n  sload\n  dup2\n  0xff\n  mul\n  not\n  and\n  swap1\n  dup4\n  0x00\n  signextend\n  0xff\n  and\n  mul\n  or\n  swap1\n  sstore\n  pop\n    /* \"contracts/MyContract.sol\":821:1296  contract PriceSold {... */\n  callvalue\n  dup1\n  iszero\n  tag_3\n  jumpi\n  0x00\n  dup1\n  revert\ntag_3:\n  pop\n  jump(tag_4)\n    /* \"#utility.yul\":7:106   */\ntag_5:\n    /* \"#utility.yul\":59:65   */\n  0x00\n    /* \"#utility.yul\":93:98   */\n  dup2\n    /* \"#utility.yul\":87:99   */\n  mload\n    /* \"#utility.yul\":77:99   */\n  swap1\n  pop\n    /* \"#utility.yul\":7:106   */\n  swap2\n  swap1\n  pop\n  jump\t// out\n    /* \"#utility.yul\":112:292   */\ntag_6:\n    /* \"#utility.yul\":160:237   */\n  0x4e487b7100000000000000000000000000000000000000000000000000000000\n    /* \"#utility.yul\":157:158   */\n  0x00\n    /* \"#utility.yul\":150:238   */\n  mstore\n    /* \"#utility.yul\":257:261   */\n  0x41\n    /* \"#utility.yul\":254:255   */\n  0x04\n    /* \"#utility.yul\":247:262   */\n  mstore\n    /* \"#utility.yul\":281:285   */\n  0x24\n    /* \"#utility.yul\":278:279   */\n  0x00\n    /* \"#utility.yul\":271:286   */\n  revert\n    /* \"#utility.yul\":298:478   */\ntag_7:\n    /* \"#utility.yul\":346:423   */\n  0x4e487b7100000000000000000000000000000000000000000000000000000000\n    /* \"#utility.yul\":343:344   */\n  0x00\n    /* \"#utility.yul\":336:424   */\n  mstore\n    /* \"#utility.yul\":443:447   */\n  0x22\n    /* \"#utility.yul\":440:441   */\n  0x04\n    /* \"#utility.yul\":433:448   */\n  mstore\n    /* \"#utility.yul\":467:471   */\n  0x24\n    /* \"#utility.yul\":464:465   */\n  0x00\n    /* \"#utility.yul\":457:472   */\n  revert\n    /* \"#utility.yul\":484:804   */\ntag_8:\n    /* \"#utility.yul\":528:534   */\n  0x00\n    /* \"#utility.yul\":565:566   */\n  0x02\n    /* \"#utility.yul\":559:563   */\n  dup3\n    /* \"#utility.yul\":555:567   */\n  div\n    /* \"#utility.yul\":545:567   */\n  swap1\n  pop\n    /* \"#utility.yul\":612:613   */\n  0x01\n    /* \"#utility.yul\":606:610   */\n  dup3\n    /* \"#utility.yul\":602:614   */\n  and\n    /* \"#utility.yul\":633:651   */\n  dup1\n    /* \"#utility.yul\":623:704   */\n  tag_30\n  jumpi\n    /* \"#utility.yul\":689:693   */\n  0x7f\n    /* \"#utility.yul\":681:687   */\n  dup3\n    /* \"#utility.yul\":677:694   */\n  and\n    /* \"#utility.yul\":667:694   */\n  swap2\n  pop\n    /* \"#utility.yul\":623:704   */\ntag_30:\n    /* \"#utility.yul\":751:753   */\n  0x20\n    /* \"#utility.yul\":743:749   */\n  dup3\n    /* \"#utility.yul\":740:754   */\n  lt\n    /* \"#utility.yul\":720:738   */\n  dup2\n    /* \"#utility.yul\":717:755   */\n  sub\n    /* \"#utility.yul\":714:798   */\n  tag_31\n  jumpi\n    /* \"#utility.yul\":770:788   */\n  tag_32\n  tag_7\n  jump\t// in\ntag_32:\n    /* \"#utility.yul\":714:798   */\ntag_31:\n    /* \"#utility.yul\":535:804   */\n  pop\n    /* \"#utility.yul\":484:804   */\n  swap2\n  swap1\n  pop\n  jump\t// out\n    /* \"#utility.yul\":810:951   */\ntag_9:\n    /* \"#utility.yul\":859:863   */\n  0x00\n    /* \"#utility.yul\":882:885   */\n  dup2\n    /* \"#utility.yul\":874:885   */\n  swap1\n  pop\n    /* \"#utility.yul\":905:908   */\n  dup2\n    /* \"#utility.yul\":902:903   */\n  0x00\n    /* \"#utility.yul\":895:909   */\n  mstore\n    /* \"#utility.yul\":939:943   */\n  0x20\n    /* \"#utility.yul\":936:937   */\n  0x00\n    /* \"#utility.yul\":926:944   */\n  keccak256\n    /* \"#utility.yul\":918:944   */\n  swap1\n  pop\n    /* \"#utility.yul\":810:951   */\n  swap2\n  swap1\n  pop\n  jump\t// out\n    /* \"#utility.yul\":957:1050   */\ntag_10:\n    /* \"#utility.yul\":994:1000   */\n  0x00\n    /* \"#utility.yul\":1041:1043   */\n  0x20\n    /* \"#utility.yul\":1036:1038   */\n  0x1f\n    /* \"#utility.yul\":1029:1034   */\n  dup4\n    /* \"#utility.yul\":1025:1039   */\n  add\n    /* \"#utility.yul\":1021:1044   */\n  div\n    /* \"#utility.yul\":1011:1044   */\n  swap1\n  pop\n    /* \"#utility.yul\":957:1050   */\n  swap2\n  swap1\n  pop\n  jump\t// out\n    /* \"#utility.yul\":1056:1163   */\ntag_11:\n    /* \"#utility.yul\":1100:1108   */\n  0x00\n    /* \"#utility.yul\":1150:1155   */\n  dup3\n    /* \"#utility.yul\":1144:1148   */\n  dup3\n    /* \"#utility.yul\":1140:1156   */\n  shl\n    /* \"#utility.yul\":1119:1156   */\n  swap1\n  pop\n    /* \"#utility.yul\":1056:1163   */\n  swap3\n  swap2\n  pop\n  pop\n  jump\t// out\n    /* \"#utility.yul\":1169:1562   */\ntag_12:\n    /* \"#utility.yul\":1238:1244   */\n  0x00\n    /* \"#utility.yul\":1288:1289   */\n  0x08\n    /* \"#utility.yul\":1276:1286   */\n  dup4\n    /* \"#utility.yul\":1272:1290   */\n  mul\n    /* \"#utility.yul\":1311:1408   */\n  tag_37\n    /* \"#utility.yul\":1341:1407   */\n  0xffffffffffffffffffffffffffffffffffffffffffffffffffffffffffffffff\n    /* \"#utility.yul\":1330:1339   */\n  dup3\n    /* \"#utility.yul\":1311:1408   */\n  tag_11\n  jump\t// in\ntag_37:\n    /* \"#utility.yul\":1429:1468   */\n  tag_38\n    /* \"#utility.yul\":1459:1467   */\n  dup7\n    /* \"#utility.yul\":1448:1457   */\n  dup4\n    /* \"#utility.yul\":1429:1468   */\n  tag_11\n  jump\t// in\ntag_38:\n    /* \"#utility.yul\":1417:1468   */\n  swap6\n  pop\n    /* \"#utility.yul\":1501:1505   */\n  dup1\n    /* \"#utility.yul\":1497:1506   */\n  not\n    /* \"#utility.yul\":1490:1495   */\n  dup5\n    /* \"#utility.yul\":1486:1507   */\n  and\n    /* \"#utility.yul\":1477:1507   */\n  swap4\n  pop\n    /* \"#utility.yul\":1550:1554   */\n  dup1\n    /* \"#utility.yul\":1540:1548   */\n  dup7\n    /* \"#utility.yul\":1536:1555   */\n  and\n    /* \"#utility.yul\":1529:1534   */\n  dup5\n    /* \"#utility.yul\":1526:1556   */\n  or\n    /* \"#utility.yul\":1516:1556   */\n  swap3\n  pop\n    /* \"#utility.yul\":1245:1562   */\n  pop\n  pop\n    /* \"#utility.yul\":1169:1562   */\n  swap4\n  swap3\n  pop\n  pop\n  pop\n  jump\t// out\n    /* \"#utility.yul\":1568:1645   */\ntag_13:\n    /* \"#utility.yul\":1605:1612   */\n  0x00\n    /* \"#utility.yul\":1634:1639   */\n  dup2\n    /* \"#utility.yul\":1623:1639   */\n  swap1\n  pop\n    /* \"#utility.yul\":1568:1645   */\n  swap2\n  swap1\n  pop\n  jump\t// out\n    /* \"#utility.yul\":1651:1711   */\ntag_14:\n    /* \"#utility.yul\":1679:1682   */\n  0x00\n    /* \"#utility.yul\":1700:1705   */\n  dup2\n    /* \"#utility.yul\":1693:1705   */\n  swap1\n  pop\n    /* \"#utility.yul\":1651:1711   */\n  swap2\n  swap1\n  pop\n  jump\t// out\n    /* \"#utility.yul\":1717:1859   */\ntag_15:\n    /* \"#utility.yul\":1767:1776   */\n  0x00\n    /* \"#utility.yul\":1800:1853   */\n  tag_42\n    /* \"#utility.yul\":1818:1852   */\n  tag_43\n    /* \"#utility.yul\":1827:1851   */\n  tag_44\n    /* \"#utility.yul\":1845:1850   */\n  dup5\n    /* \"#utility.yul\":1827:1851   */\n  tag_13\n  jump\t// in\ntag_44:\n    /* \"#utility.yul\":1818:1852   */\n  tag_14\n  jump\t// in\ntag_43:\n    /* \"#utility.yul\":1800:1853   */\n  tag_13\n  jump\t// in\ntag_42:\n    /* \"#utility.yul\":1787:1853   */\n  swap1\n  pop\n    /* \"#utility.yul\":1717:1859   */\n  swap2\n  swap1\n  pop\n  jump\t// out\n    /* \"#utility.yul\":1865:1940   */\ntag_16:\n    /* \"#utility.yul\":1908:1911   */\n  0x00\n    /* \"#utility.yul\":1929:1934   */\n  dup2\n    /* \"#utility.yul\":1922:1934   */\n  swap1\n  pop\n    /* \"#utility.yul\":1865:1940   */\n  swap2\n  swap1\n  pop\n  jump\t// out\n    /* \"#utility.yul\":1946:2215   */\ntag_17:\n    /* \"#utility.yul\":2056:2095   */\n  tag_47\n    /* \"#utility.yul\":2087:2094   */\n  dup4\n    /* \"#utility.yul\":2056:2095   */\n  tag_15\n  jump\t// in\ntag_47:\n    /* \"#utility.yul\":2117:2208   */\n  tag_48\n    /* \"#utility.yul\":2166:2207   */\n  tag_49\n    /* \"#utility.yul\":2190:2206   */\n  dup3\n    /* \"#utility.yul\":2166:2207   */\n  tag_16\n  jump\t// in\ntag_49:\n    /* \"#utility.yul\":2158:2164   */\n  dup5\n    /* \"#utility.yul\":2151:2155   */\n  dup5\n    /* \"#utility.yul\":2145:2156   */\n  sload\n    /* \"#utility.yul\":2117:2208   */\n  tag_12\n  jump\t// in\ntag_48:\n    /* \"#utility.yul\":2111:2115   */\n  dup3\n    /* \"#utility.yul\":2104:2209   */\n  sstore\n    /* \"#utility.yul\":2022:2215   */\n  pop\n    /* \"#utility.yul\":1946:2215   */\n  pop\n  pop\n  pop\n  jump\t// out\n    /* \"#utility.yul\":2221:2294   */\ntag_18:\n    /* \"#utility.yul\":2266:2269   */\n  0x00\n    /* \"#utility.yul\":2221:2294   */\n  swap1\n  jump\t// out\n    /* \"#utility.yul\":2300:2489   */\ntag_19:\n    /* \"#utility.yul\":2377:2409   */\n  tag_52\n  tag_18\n  jump\t// in\ntag_52:\n    /* \"#utility.yul\":2418:2483   */\n  tag_53\n    /* \"#utility.yul\":2476:2482   */\n  dup2\n    /* \"#utility.yul\":2468:2474   */\n  dup5\n    /* \"#utility.yul\":2462:2466   */\n  dup5\n    /* \"#utility.yul\":2418:2483   */\n  tag_17\n  jump\t// in\ntag_53:\n    /* \"#utility.yul\":2353:2489   */\n  pop\n    /* \"#utility.yul\":2300:2489   */\n  pop\n  pop\n  jump\t// out\n    /* \"#utility.yul\":2495:2681   */\ntag_20:\n    /* \"#utility.yul\":2555:2675   */\ntag_55:\n    /* \"#utility.yul\":2572:2575   */\n  dup2\n    /* \"#utility.yul\":2565:2570   */\n  dup2\n    /* \"#utility.yul\":2562:2576   */\n  lt\n    /* \"#utility.yul\":2555:2675   */\n  iszero\n  tag_57\n  jumpi\n    /* \"#utility.yul\":2626:2665   */\n  tag_58\n    /* \"#utility.yul\":2663:2664   */\n  0x00\n    /* \"#utility.yul\":2656:2661   */\n  dup3\n    /* \"#utility.yul\":2626:2665   */\n  tag_19\n  jump\t// in\ntag_58:\n    /* \"#utility.yul\":2599:2600   */\n  0x01\n    /* \"#utility.yul\":2592:2597   */\n  dup2\n    /* \"#utility.yul\":2588:2601   */\n  add\n    /* \"#utility.yul\":2579:2601   */\n  swap1\n  pop\n    /* \"#utility.yul\":2555:2675   */\n  jump(tag_55)\ntag_57:\n    /* \"#utility.yul\":2495:2681   */\n  pop\n  pop\n  jump\t// out\n    /* \"#utility.yul\":2687:3230   */\ntag_21:\n    /* \"#utility.yul\":2788:2790   */\n  0x1f\n    /* \"#utility.yul\":2783:2786   */\n  dup3\n    /* \"#utility.yul\":2780:2791   */\n  gt\n    /* \"#utility.yul\":2777:3223   */\n  iszero\n  tag_60\n  jumpi\n    /* \"#utility.yul\":2822:2860   */\n  tag_61\n    /* \"#utility.yul\":2854:2859   */\n  dup2\n    /* \"#utility.yul\":2822:2860   */\n  tag_9\n  jump\t// in\ntag_61:\n    /* \"#utility.yul\":2906:2935   */\n  tag_62\n    /* \"#utility.yul\":2924:2934   */\n  dup5\n    /* \"#utility.yul\":2906:2935   */\n  tag_10\n  jump\t// in\ntag_62:\n    /* \"#utility.yul\":2896:2904   */\n  dup2\n    /* \"#utility.yul\":2892:2936   */\n  add\n    /* \"#utility.yul\":3089:3091   */\n  0x20\n    /* \"#utility.yul\":3077:3087   */\n  dup6\n    /* \"#utility.yul\":3074:3092   */\n  lt\n    /* \"#utility.yul\":3071:3120   */\n  iszero\n  tag_63\n  jumpi\n    /* \"#utility.yul\":3110:3118   */\n  dup2\n    /* \"#utility.yul\":3095:3118   */\n  swap1\n  pop\n    /* \"#utility.yul\":3071:3120   */\ntag_63:\n    /* \"#utility.yul\":3133:3213   */\n  tag_64\n    /* \"#utility.yul\":3189:3211   */\n  tag_65\n    /* \"#utility.yul\":3207:3210   */\n  dup6\n    /* \"#utility.yul\":3189:3211   */\n  tag_10\n  jump\t// in\ntag_65:\n    /* \"#utility.yul\":3179:3187   */\n  dup4\n    /* \"#utility.yul\":3175:3212   */\n  add\n    /* \"#utility.yul\":3162:3173   */\n  dup3\n    /* \"#utility.yul\":3133:3213   */\n  tag_20\n  jump\t// in\ntag_64:\n    /* \"#utility.yul\":2792:3223   */\n  pop\n  pop\n    /* \"#utility.yul\":2777:3223   */\ntag_60:\n    /* \"#utility.yul\":2687:3230   */\n  pop\n  pop\n  pop\n  jump\t// out\n    /* \"#utility.yul\":3236:3353   */\ntag_22:\n    /* \"#utility.yul\":3290:3298   */\n  0x00\n    /* \"#utility.yul\":3340:3345   */\n  dup3\n    /* \"#utility.yul\":3334:3338   */\n  dup3\n    /* \"#utility.yul\":3330:3346   */\n  shr\n    /* \"#utility.yul\":3309:3346   */\n  swap1\n  pop\n    /* \"#utility.yul\":3236:3353   */\n  swap3\n  swap2\n  pop\n  pop\n  jump\t// out\n    /* \"#utility.yul\":3359:3528   */\ntag_23:\n    /* \"#utility.yul\":3403:3409   */\n  0x00\n    /* \"#utility.yul\":3436:3487   */\n  tag_68\n    /* \"#utility.yul\":3484:3485   */\n  0x00\n    /* \"#utility.yul\":3480:3486   */\n  not\n    /* \"#utility.yul\":3472:3477   */\n  dup5\n    /* \"#utility.yul\":3469:3470   */\n  0x08\n    /* \"#utility.yul\":3465:3478   */\n  mul\n    /* \"#utility.yul\":3436:3487   */\n  tag_22\n  jump\t// in\ntag_68:\n    /* \"#utility.yul\":3432:3488   */\n  not\n    /* \"#utility.yul\":3517:3521   */\n  dup1\n    /* \"#utility.yul\":3511:3515   */\n  dup4\n    /* \"#utility.yul\":3507:3522   */\n  and\n    /* \"#utility.yul\":3497:3522   */\n  swap2\n  pop\n    /* \"#utility.yul\":3410:3528   */\n  pop\n    /* \"#utility.yul\":3359:3528   */\n  swap3\n  swap2\n  pop\n  pop\n  jump\t// out\n    /* \"#utility.yul\":3533:3828   */\ntag_24:\n    /* \"#utility.yul\":3609:3613   */\n  0x00\n    /* \"#utility.yul\":3755:3784   */\n  tag_70\n    /* \"#utility.yul\":3780:3783   */\n  dup4\n    /* \"#utility.yul\":3774:3778   */\n  dup4\n    /* \"#utility.yul\":3755:3784   */\n  tag_23\n  jump\t// in\ntag_70:\n    /* \"#utility.yul\":3747:3784   */\n  swap2\n  pop\n    /* \"#utility.yul\":3817:3820   */\n  dup3\n    /* \"#utility.yul\":3814:3815   */\n  0x02\n    /* \"#utility.yul\":3810:3821   */\n  mul\n    /* \"#utility.yul\":3804:3808   */\n  dup3\n    /* \"#utility.yul\":3801:3822   */\n  or\n    /* \"#utility.yul\":3793:3822   */\n  swap1\n  pop\n    /* \"#utility.yul\":3533:3828   */\n  swap3\n  swap2\n  pop\n  pop\n  jump\t// out\n    /* \"#utility.yul\":3833:5228   */\ntag_2:\n    /* \"#utility.yul\":3950:3987   */\n  tag_72\n    /* \"#utility.yul\":3983:3986   */\n  dup3\n    /* \"#utility.yul\":3950:3987   */\n  tag_5\n  jump\t// in\ntag_72:\n    /* \"#utility.yul\":4052:4070   */\n  0xffffffffffffffff\n    /* \"#utility.yul\":4044:4050   */\n  dup2\n    /* \"#utility.yul\":4041:4071   */\n  gt\n    /* \"#utility.yul\":4038:4094   */\n  iszero\n  tag_73\n  jumpi\n    /* \"#utility.yul\":4074:4092   */\n  tag_74\n  tag_6\n  jump\t// in\ntag_74:\n    /* \"#utility.yul\":4038:4094   */\ntag_73:\n    /* \"#utility.yul\":4118:4156   */\n  tag_75\n    /* \"#utility.yul\":4150:4154   */\n  dup3\n    /* \"#utility.yul\":4144:4155   */\n  sload\n    /* \"#utility.yul\":4118:4156   */\n  tag_8\n  jump\t// in\ntag_75:\n    /* \"#utility.yul\":4203:4270   */\n  tag_76\n    /* \"#utility.yul\":4263:4269   */\n  dup3\n    /* \"#utility.yul\":4255:4261   */\n  dup3\n    /* \"#utility.yul\":4249:4253   */\n  dup6\n    /* \"#utility.yul\":4203:4270   */\n  tag_21\n  jump\t// in\ntag_76:\n    /* \"#utility.yul\":4297:4298   */\n  0x00\n    /* \"#utility.yul\":4321:4325   */\n  0x20\n    /* \"#utility.yul\":4308:4325   */\n  swap1\n  pop\n    /* \"#utility.yul\":4353:4355   */\n  0x1f\n    /* \"#utility.yul\":4345:4351   */\n  dup4\n    /* \"#utility.yul\":4342:4356   */\n  gt\n    /* \"#utility.yul\":4370:4371   */\n  0x01\n    /* \"#utility.yul\":4365:4983   */\n  dup2\n  eq\n  tag_78\n  jumpi\n    /* \"#utility.yul\":5027:5028   */\n  0x00\n    /* \"#utility.yul\":5044:5050   */\n  dup5\n    /* \"#utility.yul\":5041:5118   */\n  iszero\n  tag_79\n  jumpi\n    /* \"#utility.yul\":5093:5102   */\n  dup3\n    /* \"#utility.yul\":5088:5091   */\n  dup8\n    /* \"#utility.yul\":5084:5103   */\n  add\n    /* \"#utility.yul\":5078:5104   */\n  mload\n    /* \"#utility.yul\":5069:5104   */\n  swap1\n  pop\n    /* \"#utility.yul\":5041:5118   */\ntag_79:\n    /* \"#utility.yul\":5144:5211   */\n  tag_80\n    /* \"#utility.yul\":5204:5210   */\n  dup6\n    /* \"#utility.yul\":5197:5202   */\n  dup3\n    /* \"#utility.yul\":5144:5211   */\n  tag_24\n  jump\t// in\ntag_80:\n    /* \"#utility.yul\":5138:5142   */\n  dup7\n    /* \"#utility.yul\":5131:5212   */\n  sstore\n    /* \"#utility.yul\":5000:5222   */\n  pop\n    /* \"#utility.yul\":4335:5222   */\n  jump(tag_77)\n    /* \"#utility.yul\":4365:4983   */\ntag_78:\n    /* \"#utility.yul\":4417:4421   */\n  0x1f\n    /* \"#utility.yul\":4413:4422   */\n  not\n    /* \"#utility.yul\":4405:4411   */\n  dup5\n    /* \"#utility.yul\":4401:4423   */\n  and\n    /* \"#utility.yul\":4451:4488   */\n  tag_81\n    /* \"#utility.yul\":4483:4487   */\n  dup7\n    /* \"#utility.yul\":4451:4488   */\n  tag_9\n  jump\t// in\ntag_81:\n    /* \"#utility.yul\":4510:4511   */\n  0x00\n    /* \"#utility.yul\":4524:4732   */\ntag_82:\n    /* \"#utility.yul\":4538:4545   */\n  dup3\n    /* \"#utility.yul\":4535:4536   */\n  dup2\n    /* \"#utility.yul\":4532:4546   */\n  lt\n    /* \"#utility.yul\":4524:4732   */\n  iszero\n  tag_84\n  jumpi\n    /* \"#utility.yul\":4617:4626   */\n  dup5\n    /* \"#utility.yul\":4612:4615   */\n  dup10\n    /* \"#utility.yul\":4608:4627   */\n  add\n    /* \"#utility.yul\":4602:4628   */\n  mload\n    /* \"#utility.yul\":4594:4600   */\n  dup3\n    /* \"#utility.yul\":4587:4629   */\n  sstore\n    /* \"#utility.yul\":4668:4669   */\n  0x01\n    /* \"#utility.yul\":4660:4666   */\n  dup3\n    /* \"#utility.yul\":4656:4670   */\n  add\n    /* \"#utility.yul\":4646:4670   */\n  swap2\n  pop\n    /* \"#utility.yul\":4715:4717   */\n  0x20\n    /* \"#utility.yul\":4704:4713   */\n  dup6\n    /* \"#utility.yul\":4700:4718   */\n  add\n    /* \"#utility.yul\":4687:4718   */\n  swap5\n  pop\n    /* \"#utility.yul\":4561:4565   */\n  0x20\n    /* \"#utility.yul\":4558:4559   */\n  dup2\n    /* \"#utility.yul\":4554:4566   */\n  add\n    /* \"#utility.yul\":4549:4566   */\n  swap1\n  pop\n    /* \"#utility.yul\":4524:4732   */\n  jump(tag_82)\ntag_84:\n    /* \"#utility.yul\":4760:4766   */\n  dup7\n    /* \"#utility.yul\":4751:4758   */\n  dup4\n    /* \"#utility.yul\":4748:4767   */\n  lt\n    /* \"#utility.yul\":4745:4924   */\n  iszero\n  tag_85\n  jumpi\n    /* \"#utility.yul\":4818:4827   */\n  dup5\n    /* \"#utility.yul\":4813:4816   */\n  dup10\n    /* \"#utility.yul\":4809:4828   */\n  add\n    /* \"#utility.yul\":4803:4829   */\n  mload\n    /* \"#utility.yul\":4861:4909   */\n  tag_86\n    /* \"#utility.yul\":4903:4907   */\n  0x1f\n    /* \"#utility.yul\":4895:4901   */\n  dup10\n    /* \"#utility.yul\":4891:4908   */\n  and\n    /* \"#utility.yul\":4880:4889   */\n  dup3\n    /* \"#utility.yul\":4861:4909   */\n  tag_23\n  jump\t// in\ntag_86:\n    /* \"#utility.yul\":4853:4859   */\n  dup4\n    /* \"#utility.yul\":4846:4910   */\n  sstore\n    /* \"#utility.yul\":4768:4924   */\n  pop\n    /* \"#utility.yul\":4745:4924   */\ntag_85:\n    /* \"#utility.yul\":4970:4971   */\n  0x01\n    /* \"#utility.yul\":4966:4967   */\n  0x02\n    /* \"#utility.yul\":4958:4964   */\n  dup9\n    /* \"#utility.yul\":4954:4968   */\n  mul\n    /* \"#utility.yul\":4950:4972   */\n  add\n    /* \"#utility.yul\":4944:4948   */\n  dup9\n    /* \"#utility.yul\":4937:4973   */\n  sstore\n    /* \"#utility.yul\":4372:4983   */\n  pop\n  pop\n  pop\n    /* \"#utility.yul\":4335:5222   */\ntag_77:\n  pop\n    /* \"#utility.yul\":3925:5228   */\n  pop\n  pop\n  pop\n    /* \"#utility.yul\":3833:5228   */\n  pop\n  pop\n  jump\t// out\n    /* \"contracts/MyContract.sol\":821:1296  contract PriceSold {... */\ntag_4:\n  dataSize(sub_0)\n  dup1\n  dataOffset(sub_0)\n  0x00\n  codecopy\n  0x00\n  return\nstop\n\nsub_0: assembly {\n        /* \"contracts/MyContract.sol\":821:1296  contract PriceSold {... */\n      mstore(0x40, 0x80)\n      callvalue\n      dup1\n      iszero\n      tag_1\n      jumpi\n      0x00\n      dup1\n      revert\n    tag_1:\n      pop\n      jumpi(tag_2, lt(calldatasize, 0x04))\n      shr(0xe0, calldataload(0x00))\n      dup1\n      0x516f279e\n      gt\n      tag_11\n      jumpi\n      dup1\n      0x516f279e\n      eq\n      tag_7\n      jumpi\n      dup1\n      0x91b7f5ed\n      eq\n      tag_8\n      jumpi\n      dup1\n      0xa035b1fe\n      eq\n      tag_9\n      jumpi\n      dup1\n      0xa56dfe4a\n      eq\n      tag_10\n      jumpi\n      jump(tag_2)\n    tag_11:\n      dup1\n      0x02c7e7af\n      eq\n      tag_3\n      jumpi\n      dup1\n      0x0c55699c\n      eq\n      tag_4\n      jumpi\n      dup1\n      0x1ad73b4f\n      eq\n      tag_5\n      jumpi\n      dup1\n      0x1d8c4aff\n      eq\n      tag_6\n      jumpi\n    tag_2:\n      0x00\n      dup1\n      revert\n        /* \"contracts/MyContract.sol\":871:887  bool public sold */\n    tag_3:\n      tag_12\n      tag_13\n      jump\t// in\n    tag_12:\n      mload(0x40)\n      tag_14\n      swap2\n      swap1\n      tag_15\n      jump\t// in\n    tag_14:\n      mload(0x40)\n      dup1\n      swap2\n      sub\n      swap1\n      return\n        /* \"contracts/MyContract.sol\":1123:1143  uint8 public x = 255 */\n    tag_4:\n      tag_16\n      tag_17\n      jump\t// in\n    tag_16:\n      mload(0x40)\n      tag_18\n      swap2\n      swap1\n      tag_19\n      jump\t// in\n    tag_18:\n      mload(0x40)\n      dup1\n      swap2\n      sub\n      swap1\n      return\n        /* \"contracts/MyContract.sol\":1178:1231  function testOverFlow() public {... */\n    tag_5:\n      tag_20\n      tag_21\n      jump\t// in\n    tag_20:\n      stop\n        /* \"contracts/MyContract.sol\":1239:1293  function testUnderFlow() public {... */\n    tag_6:\n      tag_22\n      tag_23\n      jump\t// in\n    tag_22:\n      stop\n        /* \"contracts/MyContract.sol\":896:928  string public location = \"Paris\" */\n    tag_7:\n      tag_24\n      tag_25\n      jump\t// in\n    tag_24:\n      mload(0x40)\n      tag_26\n      swap2\n      swap1\n      tag_27\n      jump\t// in\n    tag_26:\n      mload(0x40)\n      dup1\n      swap2\n      sub\n      swap1\n      return\n        /* \"contracts/MyContract.sol\":940:1011  function setPrice(uint _price) public {... */\n    tag_8:\n      tag_28\n      0x04\n      dup1\n      calldatasize\n      sub\n      dup2\n      add\n      swap1\n      tag_29\n      swap2\n      swap1\n      tag_30\n      jump\t// in\n    tag_29:\n      tag_31\n      jump\t// in\n    tag_28:\n      stop\n        /* \"contracts/MyContract.sol\":847:864  uint public price */\n    tag_9:\n      tag_32\n      tag_33\n      jump\t// in\n    tag_32:\n      mload(0x40)\n      tag_34\n      swap2\n      swap1\n      tag_35\n      jump\t// in\n    tag_34:\n      mload(0x40)\n      dup1\n      swap2\n      sub\n      swap1\n      return\n        /* \"contracts/MyContract.sol\":1150:1169  int8 public y = -13 */\n    tag_10:\n      tag_36\n      tag_37\n      jump\t// in\n    tag_36:\n      mload(0x40)\n      tag_38\n      swap2\n      swap1\n      tag_39\n      jump\t// in\n    tag_38:\n      mload(0x40)\n      dup1\n      swap2\n      sub\n      swap1\n      return\n        /* \"contracts/MyContract.sol\":871:887  bool public sold */\n    tag_13:\n      0x01\n      0x00\n      swap1\n      sload\n      swap1\n      0x0100\n      exp\n      swap1\n      div\n      0xff\n      and\n      dup2\n      jump\t// out\n        /* \"contracts/MyContract.sol\":1123:1143  uint8 public x = 255 */\n    tag_17:\n      0x03\n      0x00\n      swap1\n      sload\n      swap1\n      0x0100\n      exp\n      swap1\n      div\n      0xff\n      and\n      dup2\n      jump\t// out\n        /* \"contracts/MyContract.sol\":1178:1231  function testOverFlow() public {... */\n    tag_21:\n        /* \"contracts/MyContract.sol\":1220:1221  x */\n      0x03\n      0x00\n        /* \"contracts/MyContract.sol\":1220:1223  x++ */\n      dup2\n      dup2\n      swap1\n      sload\n      swap1\n      0x0100\n      exp\n      swap1\n      div\n      0xff\n      and\n      dup1\n      swap3\n      swap2\n      swap1\n      tag_41\n      swap1\n      tag_42\n      jump\t// in\n    tag_41:\n      swap2\n      swap1\n      0x0100\n      exp\n      dup2\n      sload\n      dup2\n      0xff\n      mul\n      not\n      and\n      swap1\n      dup4\n      0xff\n      and\n      mul\n      or\n      swap1\n      sstore\n      pop\n      pop\n        /* \"contracts/MyContract.sol\":1178:1231  function testOverFlow() public {... */\n      jump\t// out\n        /* \"contracts/MyContract.sol\":1239:1293  function testUnderFlow() public {... */\n    tag_23:\n        /* \"contracts/MyContract.sol\":1282:1283  y */\n      0x03\n      0x01\n        /* \"contracts/MyContract.sol\":1282:1285  y-- */\n      dup2\n      dup2\n      swap1\n      sload\n      swap1\n      0x0100\n      exp\n      swap1\n      div\n      0x00\n      signextend\n      dup1\n      swap3\n      swap2\n      swap1\n      tag_44\n      swap1\n      tag_45\n      jump\t// in\n    tag_44:\n      swap2\n      swap1\n      0x0100\n      exp\n      dup2\n      sload\n      dup2\n      0xff\n      mul\n      not\n      and\n      swap1\n      dup4\n      0x00\n      signextend\n      0xff\n      and\n      mul\n      or\n      swap1\n      sstore\n      pop\n      pop\n        /* \"contracts/MyContract.sol\":1239:1293  function testUnderFlow() public {... */\n      jump\t// out\n        /* \"contracts/MyContract.sol\":896:928  string public location = \"Paris\" */\n    tag_25:\n      0x02\n      dup1\n      sload\n      tag_46\n      swap1\n      tag_47\n      jump\t// in\n    tag_46:\n      dup1\n      0x1f\n      add\n      0x20\n      dup1\n      swap2\n      div\n      mul\n      0x20\n      add\n      mload(0x40)\n      swap1\n      dup2\n      add\n      0x40\n      mstore\n      dup1\n      swap3\n      swap2\n      swap1\n      dup2\n      dup2\n      mstore\n      0x20\n      add\n      dup3\n      dup1\n      sload\n      tag_48\n      swap1\n      tag_47\n      jump\t// in\n    tag_48:\n      dup1\n      iszero\n      tag_49\n      jumpi\n      dup1\n      0x1f\n      lt\n      tag_50\n      jumpi\n      0x0100\n      dup1\n      dup4\n      sload\n      div\n      mul\n      dup4\n      mstore\n      swap2\n      0x20\n      add\n      swap2\n      jump(tag_49)\n    tag_50:\n      dup3\n      add\n      swap2\n      swap1\n      0x00\n      mstore\n      keccak256(0x00, 0x20)\n      swap1\n    tag_51:\n      dup2\n      sload\n      dup2\n      mstore\n      swap1\n      0x01\n      add\n      swap1\n      0x20\n      add\n      dup1\n      dup4\n      gt\n      tag_51\n      jumpi\n      dup3\n      swap1\n      sub\n      0x1f\n      and\n      dup3\n      add\n      swap2\n    tag_49:\n      pop\n      pop\n      pop\n      pop\n      pop\n      dup2\n      jump\t// out\n        /* \"contracts/MyContract.sol\":940:1011  function setPrice(uint _price) public {... */\n    tag_31:\n        /* \"contracts/MyContract.sol\":997:1003  _price */\n      dup1\n        /* \"contracts/MyContract.sol\":989:994  price */\n      0x00\n        /* \"contracts/MyContract.sol\":989:1003  price = _price */\n      dup2\n      swap1\n      sstore\n      pop\n        /* \"contracts/MyContract.sol\":940:1011  function setPrice(uint _price) public {... */\n      pop\n      jump\t// out\n        /* \"contracts/MyContract.sol\":847:864  uint public price */\n    tag_33:\n      sload(0x00)\n      dup2\n      jump\t// out\n        /* \"contracts/MyContract.sol\":1150:1169  int8 public y = -13 */\n    tag_37:\n      0x03\n      0x01\n      swap1\n      sload\n      swap1\n      0x0100\n      exp\n      swap1\n      div\n      0x00\n      signextend\n      dup2\n      jump\t// out\n        /* \"#utility.yul\":7:97   */\n    tag_53:\n        /* \"#utility.yul\":41:48   */\n      0x00\n        /* \"#utility.yul\":84:89   */\n      dup2\n        /* \"#utility.yul\":77:90   */\n      iszero\n        /* \"#utility.yul\":70:91   */\n      iszero\n        /* \"#utility.yul\":59:91   */\n      swap1\n      pop\n        /* \"#utility.yul\":7:97   */\n      swap2\n      swap1\n      pop\n      jump\t// out\n        /* \"#utility.yul\":103:212   */\n    tag_54:\n        /* \"#utility.yul\":184:205   */\n      tag_76\n        /* \"#utility.yul\":199:204   */\n      dup2\n        /* \"#utility.yul\":184:205   */\n      tag_53\n      jump\t// in\n    tag_76:\n        /* \"#utility.yul\":179:182   */\n      dup3\n        /* \"#utility.yul\":172:206   */\n      mstore\n        /* \"#utility.yul\":103:212   */\n      pop\n      pop\n      jump\t// out\n        /* \"#utility.yul\":218:428   */\n    tag_15:\n        /* \"#utility.yul\":305:309   */\n      0x00\n        /* \"#utility.yul\":343:345   */\n      0x20\n        /* \"#utility.yul\":332:341   */\n      dup3\n        /* \"#utility.yul\":328:346   */\n      add\n        /* \"#utility.yul\":320:346   */\n      swap1\n      pop\n        /* \"#utility.yul\":356:421   */\n      tag_78\n        /* \"#utility.yul\":418:419   */\n      0x00\n        /* \"#utility.yul\":407:416   */\n      dup4\n        /* \"#utility.yul\":403:420   */\n      add\n        /* \"#utility.yul\":394:400   */\n      dup5\n        /* \"#utility.yul\":356:421   */\n      tag_54\n      jump\t// in\n    tag_78:\n        /* \"#utility.yul\":218:428   */\n      swap3\n      swap2\n      pop\n      pop\n      jump\t// out\n        /* \"#utility.yul\":434:520   */\n    tag_55:\n        /* \"#utility.yul\":469:476   */\n      0x00\n        /* \"#utility.yul\":509:513   */\n      0xff\n        /* \"#utility.yul\":502:507   */\n      dup3\n        /* \"#utility.yul\":498:514   */\n      and\n        /* \"#utility.yul\":487:514   */\n      swap1\n      pop\n        /* \"#utility.yul\":434:520   */\n      swap2\n      swap1\n      pop\n      jump\t// out\n        /* \"#utility.yul\":526:638   */\n    tag_56:\n        /* \"#utility.yul\":609:631   */\n      tag_81\n        /* \"#utility.yul\":625:630   */\n      dup2\n        /* \"#utility.yul\":609:631   */\n      tag_55\n      jump\t// in\n    tag_81:\n        /* \"#utility.yul\":604:607   */\n      dup3\n        /* \"#utility.yul\":597:632   */\n      mstore\n        /* \"#utility.yul\":526:638   */\n      pop\n      pop\n      jump\t// out\n        /* \"#utility.yul\":644:858   */\n    tag_19:\n        /* \"#utility.yul\":733:737   */\n      0x00\n        /* \"#utility.yul\":771:773   */\n      0x20\n        /* \"#utility.yul\":760:769   */\n      dup3\n        /* \"#utility.yul\":756:774   */\n      add\n        /* \"#utility.yul\":748:774   */\n      swap1\n      pop\n        /* \"#utility.yul\":784:851   */\n      tag_83\n        /* \"#utility.yul\":848:849   */\n      0x00\n        /* \"#utility.yul\":837:846   */\n      dup4\n        /* \"#utility.yul\":833:850   */\n      add\n        /* \"#utility.yul\":824:830   */\n      dup5\n        /* \"#utility.yul\":784:851   */\n      tag_56\n      jump\t// in\n    tag_83:\n        /* \"#utility.yul\":644:858   */\n      swap3\n      swap2\n      pop\n      pop\n      jump\t// out\n        /* \"#utility.yul\":864:963   */\n    tag_57:\n        /* \"#utility.yul\":916:922   */\n      0x00\n        /* \"#utility.yul\":950:955   */\n      dup2\n        /* \"#utility.yul\":944:956   */\n      mload\n        /* \"#utility.yul\":934:956   */\n      swap1\n      pop\n        /* \"#utility.yul\":864:963   */\n      swap2\n      swap1\n      pop\n      jump\t// out\n        /* \"#utility.yul\":969:1138   */\n    tag_58:\n        /* \"#utility.yul\":1053:1064   */\n      0x00\n        /* \"#utility.yul\":1087:1093   */\n      dup3\n        /* \"#utility.yul\":1082:1085   */\n      dup3\n        /* \"#utility.yul\":1075:1094   */\n      mstore\n        /* \"#utility.yul\":1127:1131   */\n      0x20\n        /* \"#utility.yul\":1122:1125   */\n      dup3\n        /* \"#utility.yul\":1118:1132   */\n      add\n        /* \"#utility.yul\":1103:1132   */\n      swap1\n      pop\n        /* \"#utility.yul\":969:1138   */\n      swap3\n      swap2\n      pop\n      pop\n      jump\t// out\n        /* \"#utility.yul\":1144:1390   */\n    tag_59:\n        /* \"#utility.yul\":1225:1226   */\n      0x00\n        /* \"#utility.yul\":1235:1348   */\n    tag_87:\n        /* \"#utility.yul\":1249:1255   */\n      dup4\n        /* \"#utility.yul\":1246:1247   */\n      dup2\n        /* \"#utility.yul\":1243:1256   */\n      lt\n        /* \"#utility.yul\":1235:1348   */\n      iszero\n      tag_89\n      jumpi\n        /* \"#utility.yul\":1334:1335   */\n      dup1\n        /* \"#utility.yul\":1329:1332   */\n      dup3\n        /* \"#utility.yul\":1325:1336   */\n      add\n        /* \"#utility.yul\":1319:1337   */\n      mload\n        /* \"#utility.yul\":1315:1316   */\n      dup2\n        /* \"#utility.yul\":1310:1313   */\n      dup5\n        /* \"#utility.yul\":1306:1317   */\n      add\n        /* \"#utility.yul\":1299:1338   */\n      mstore\n        /* \"#utility.yul\":1271:1273   */\n      0x20\n        /* \"#utility.yul\":1268:1269   */\n      dup2\n        /* \"#utility.yul\":1264:1274   */\n      add\n        /* \"#utility.yul\":1259:1274   */\n      swap1\n      pop\n        /* \"#utility.yul\":1235:1348   */\n      jump(tag_87)\n    tag_89:\n        /* \"#utility.yul\":1382:1383   */\n      0x00\n        /* \"#utility.yul\":1373:1379   */\n      dup5\n        /* \"#utility.yul\":1368:1371   */\n      dup5\n        /* \"#utility.yul\":1364:1380   */\n      add\n        /* \"#utility.yul\":1357:1384   */\n      mstore\n        /* \"#utility.yul\":1206:1390   */\n      pop\n        /* \"#utility.yul\":1144:1390   */\n      pop\n      pop\n      pop\n      jump\t// out\n        /* \"#utility.yul\":1396:1498   */\n    tag_60:\n        /* \"#utility.yul\":1437:1443   */\n      0x00\n        /* \"#utility.yul\":1488:1490   */\n      0x1f\n        /* \"#utility.yul\":1484:1491   */\n      not\n        /* \"#utility.yul\":1479:1481   */\n      0x1f\n        /* \"#utility.yul\":1472:1477   */\n      dup4\n        /* \"#utility.yul\":1468:1482   */\n      add\n        /* \"#utility.yul\":1464:1492   */\n      and\n        /* \"#utility.yul\":1454:1492   */\n      swap1\n      pop\n        /* \"#utility.yul\":1396:1498   */\n      swap2\n      swap1\n      pop\n      jump\t// out\n        /* \"#utility.yul\":1504:1881   */\n    tag_61:\n        /* \"#utility.yul\":1592:1595   */\n      0x00\n        /* \"#utility.yul\":1620:1659   */\n      tag_92\n        /* \"#utility.yul\":1653:1658   */\n      dup3\n        /* \"#utility.yul\":1620:1659   */\n      tag_57\n      jump\t// in\n    tag_92:\n        /* \"#utility.yul\":1675:1746   */\n      tag_93\n        /* \"#utility.yul\":1739:1745   */\n      dup2\n        /* \"#utility.yul\":1734:1737   */\n      dup6\n        /* \"#utility.yul\":1675:1746   */\n      tag_58\n      jump\t// in\n    tag_93:\n        /* \"#utility.yul\":1668:1746   */\n      swap4\n      pop\n        /* \"#utility.yul\":1755:1820   */\n      tag_94\n        /* \"#utility.yul\":1813:1819   */\n      dup2\n        /* \"#utility.yul\":1808:1811   */\n      dup6\n        /* \"#utility.yul\":1801:1805   */\n      0x20\n        /* \"#utility.yul\":1794:1799   */\n      dup7\n        /* \"#utility.yul\":1790:1806   */\n      add\n        /* \"#utility.yul\":1755:1820   */\n      tag_59\n      jump\t// in\n    tag_94:\n        /* \"#utility.yul\":1845:1874   */\n      tag_95\n        /* \"#utility.yul\":1867:1873   */\n      dup2\n        /* \"#utility.yul\":1845:1874   */\n      tag_60\n      jump\t// in\n    tag_95:\n        /* \"#utility.yul\":1840:1843   */\n      dup5\n        /* \"#utility.yul\":1836:1875   */\n      add\n        /* \"#utility.yul\":1829:1875   */\n      swap2\n      pop\n        /* \"#utility.yul\":1596:1881   */\n      pop\n        /* \"#utility.yul\":1504:1881   */\n      swap3\n      swap2\n      pop\n      pop\n      jump\t// out\n        /* \"#utility.yul\":1887:2200   */\n    tag_27:\n        /* \"#utility.yul\":2000:2004   */\n      0x00\n        /* \"#utility.yul\":2038:2040   */\n      0x20\n        /* \"#utility.yul\":2027:2036   */\n      dup3\n        /* \"#utility.yul\":2023:2041   */\n      add\n        /* \"#utility.yul\":2015:2041   */\n      swap1\n      pop\n        /* \"#utility.yul\":2087:2096   */\n      dup2\n        /* \"#utility.yul\":2081:2085   */\n      dup2\n        /* \"#utility.yul\":2077:2097   */\n      sub\n        /* \"#utility.yul\":2073:2074   */\n      0x00\n        /* \"#utility.yul\":2062:2071   */\n      dup4\n        /* \"#utility.yul\":2058:2075   */\n      add\n        /* \"#utility.yul\":2051:2098   */\n      mstore\n        /* \"#utility.yul\":2115:2193   */\n      tag_97\n        /* \"#utility.yul\":2188:2192   */\n      dup2\n        /* \"#utility.yul\":2179:2185   */\n      dup5\n        /* \"#utility.yul\":2115:2193   */\n      tag_61\n      jump\t// in\n    tag_97:\n        /* \"#utility.yul\":2107:2193   */\n      swap1\n      pop\n        /* \"#utility.yul\":1887:2200   */\n      swap3\n      swap2\n      pop\n      pop\n      jump\t// out\n        /* \"#utility.yul\":2287:2404   */\n    tag_63:\n        /* \"#utility.yul\":2396:2397   */\n      0x00\n        /* \"#utility.yul\":2393:2394   */\n      dup1\n        /* \"#utility.yul\":2386:2398   */\n      revert\n        /* \"#utility.yul\":2533:2610   */\n    tag_65:\n        /* \"#utility.yul\":2570:2577   */\n      0x00\n        /* \"#utility.yul\":2599:2604   */\n      dup2\n        /* \"#utility.yul\":2588:2604   */\n      swap1\n      pop\n        /* \"#utility.yul\":2533:2610   */\n      swap2\n      swap1\n      pop\n      jump\t// out\n        /* \"#utility.yul\":2616:2738   */\n    tag_66:\n        /* \"#utility.yul\":2689:2713   */\n      tag_103\n        /* \"#utility.yul\":2707:2712   */\n      dup2\n        /* \"#utility.yul\":2689:2713   */\n      tag_65\n      jump\t// in\n    tag_103:\n        /* \"#utility.yul\":2682:2687   */\n      dup2\n        /* \"#utility.yul\":2679:2714   */\n      eq\n        /* \"#utility.yul\":2669:2732   */\n      tag_104\n      jumpi\n        /* \"#utility.yul\":2728:2729   */\n      0x00\n        /* \"#utility.yul\":2725:2726   */\n      dup1\n        /* \"#utility.yul\":2718:2730   */\n      revert\n        /* \"#utility.yul\":2669:2732   */\n    tag_104:\n        /* \"#utility.yul\":2616:2738   */\n      pop\n      jump\t// out\n        /* \"#utility.yul\":2744:2883   */\n    tag_67:\n        /* \"#utility.yul\":2790:2795   */\n      0x00\n        /* \"#utility.yul\":2828:2834   */\n      dup2\n        /* \"#utility.yul\":2815:2835   */\n      calldataload\n        /* \"#utility.yul\":2806:2835   */\n      swap1\n      pop\n        /* \"#utility.yul\":2844:2877   */\n      tag_106\n        /* \"#utility.yul\":2871:2876   */\n      dup2\n        /* \"#utility.yul\":2844:2877   */\n      tag_66\n      jump\t// in\n    tag_106:\n        /* \"#utility.yul\":2744:2883   */\n      swap3\n      swap2\n      pop\n      pop\n      jump\t// out\n        /* \"#utility.yul\":2889:3218   */\n    tag_30:\n        /* \"#utility.yul\":2948:2954   */\n      0x00\n        /* \"#utility.yul\":2997:2999   */\n      0x20\n        /* \"#utility.yul\":2985:2994   */\n      dup3\n        /* \"#utility.yul\":2976:2983   */\n      dup5\n        /* \"#utility.yul\":2972:2995   */\n      sub\n        /* \"#utility.yul\":2968:3000   */\n      slt\n        /* \"#utility.yul\":2965:3084   */\n      iszero\n      tag_108\n      jumpi\n        /* \"#utility.yul\":3003:3082   */\n      tag_109\n      tag_63\n      jump\t// in\n    tag_109:\n        /* \"#utility.yul\":2965:3084   */\n    tag_108:\n        /* \"#utility.yul\":3123:3124   */\n      0x00\n        /* \"#utility.yul\":3148:3201   */\n      tag_110\n        /* \"#utility.yul\":3193:3200   */\n      dup5\n        /* \"#utility.yul\":3184:3190   */\n      dup3\n        /* \"#utility.yul\":3173:3182   */\n      dup6\n        /* \"#utility.yul\":3169:3191   */\n      add\n        /* \"#utility.yul\":3148:3201   */\n      tag_67\n      jump\t// in\n    tag_110:\n        /* \"#utility.yul\":3138:3201   */\n      swap2\n      pop\n        /* \"#utility.yul\":3094:3211   */\n      pop\n        /* \"#utility.yul\":2889:3218   */\n      swap3\n      swap2\n      pop\n      pop\n      jump\t// out\n        /* \"#utility.yul\":3224:3342   */\n    tag_68:\n        /* \"#utility.yul\":3311:3335   */\n      tag_112\n        /* \"#utility.yul\":3329:3334   */\n      dup2\n        /* \"#utility.yul\":3311:3335   */\n      tag_65\n      jump\t// in\n    tag_112:\n        /* \"#utility.yul\":3306:3309   */\n      dup3\n        /* \"#utility.yul\":3299:3336   */\n      mstore\n        /* \"#utility.yul\":3224:3342   */\n      pop\n      pop\n      jump\t// out\n        /* \"#utility.yul\":3348:3570   */\n    tag_35:\n        /* \"#utility.yul\":3441:3445   */\n      0x00\n        /* \"#utility.yul\":3479:3481   */\n      0x20\n        /* \"#utility.yul\":3468:3477   */\n      dup3\n        /* \"#utility.yul\":3464:3482   */\n      add\n        /* \"#utility.yul\":3456:3482   */\n      swap1\n      pop\n        /* \"#utility.yul\":3492:3563   */\n      tag_114\n        /* \"#utility.yul\":3560:3561   */\n      0x00\n        /* \"#utility.yul\":3549:3558   */\n      dup4\n        /* \"#utility.yul\":3545:3562   */\n      add\n        /* \"#utility.yul\":3536:3542   */\n      dup5\n        /* \"#utility.yul\":3492:3563   */\n      tag_68\n      jump\t// in\n    tag_114:\n        /* \"#utility.yul\":3348:3570   */\n      swap3\n      swap2\n      pop\n      pop\n      jump\t// out\n        /* \"#utility.yul\":3576:3665   */\n    tag_69:\n        /* \"#utility.yul\":3610:3617   */\n      0x00\n        /* \"#utility.yul\":3653:3658   */\n      dup2\n        /* \"#utility.yul\":3650:3651   */\n      0x00\n        /* \"#utility.yul\":3639:3659   */\n      signextend\n        /* \"#utility.yul\":3628:3659   */\n      swap1\n      pop\n        /* \"#utility.yul\":3576:3665   */\n      swap2\n      swap1\n      pop\n      jump\t// out\n        /* \"#utility.yul\":3671:3780   */\n    tag_70:\n        /* \"#utility.yul\":3752:3773   */\n      tag_117\n        /* \"#utility.yul\":3767:3772   */\n      dup2\n        /* \"#utility.yul\":3752:3773   */\n      tag_69\n      jump\t// in\n    tag_117:\n        /* \"#utility.yul\":3747:3750   */\n      dup3\n        /* \"#utility.yul\":3740:3774   */\n      mstore\n        /* \"#utility.yul\":3671:3780   */\n      pop\n      pop\n      jump\t// out\n        /* \"#utility.yul\":3786:3996   */\n    tag_39:\n        /* \"#utility.yul\":3873:3877   */\n      0x00\n        /* \"#utility.yul\":3911:3913   */\n      0x20\n        /* \"#utility.yul\":3900:3909   */\n      dup3\n        /* \"#utility.yul\":3896:3914   */\n      add\n        /* \"#utility.yul\":3888:3914   */\n      swap1\n      pop\n        /* \"#utility.yul\":3924:3989   */\n      tag_119\n        /* \"#utility.yul\":3986:3987   */\n      0x00\n        /* \"#utility.yul\":3975:3984   */\n      dup4\n        /* \"#utility.yul\":3971:3988   */\n      add\n        /* \"#utility.yul\":3962:3968   */\n      dup5\n        /* \"#utility.yul\":3924:3989   */\n      tag_70\n      jump\t// in\n    tag_119:\n        /* \"#utility.yul\":3786:3996   */\n      swap3\n      swap2\n      pop\n      pop\n      jump\t// out\n        /* \"#utility.yul\":4002:4182   */\n    tag_71:\n        /* \"#utility.yul\":4050:4127   */\n      0x4e487b7100000000000000000000000000000000000000000000000000000000\n        /* \"#utility.yul\":4047:4048   */\n      0x00\n        /* \"#utility.yul\":4040:4128   */\n      mstore\n        /* \"#utility.yul\":4147:4151   */\n      0x11\n        /* \"#utility.yul\":4144:4145   */\n      0x04\n        /* \"#utility.yul\":4137:4152   */\n      mstore\n        /* \"#utility.yul\":4171:4175   */\n      0x24\n        /* \"#utility.yul\":4168:4169   */\n      0x00\n        /* \"#utility.yul\":4161:4176   */\n      revert\n        /* \"#utility.yul\":4188:4355   */\n    tag_42:\n        /* \"#utility.yul\":4225:4228   */\n      0x00\n        /* \"#utility.yul\":4248:4270   */\n      tag_122\n        /* \"#utility.yul\":4264:4269   */\n      dup3\n        /* \"#utility.yul\":4248:4270   */\n      tag_55\n      jump\t// in\n    tag_122:\n        /* \"#utility.yul\":4239:4270   */\n      swap2\n      pop\n        /* \"#utility.yul\":4292:4296   */\n      0xff\n        /* \"#utility.yul\":4285:4290   */\n      dup3\n        /* \"#utility.yul\":4282:4297   */\n      sub\n        /* \"#utility.yul\":4279:4320   */\n      tag_123\n      jumpi\n        /* \"#utility.yul\":4300:4318   */\n      tag_124\n      tag_71\n      jump\t// in\n    tag_124:\n        /* \"#utility.yul\":4279:4320   */\n    tag_123:\n        /* \"#utility.yul\":4347:4348   */\n      0x01\n        /* \"#utility.yul\":4340:4345   */\n      dup3\n        /* \"#utility.yul\":4336:4349   */\n      add\n        /* \"#utility.yul\":4329:4349   */\n      swap1\n      pop\n        /* \"#utility.yul\":4188:4355   */\n      swap2\n      swap1\n      pop\n      jump\t// out\n        /* \"#utility.yul\":4361:4588   */\n    tag_45:\n        /* \"#utility.yul\":4397:4400   */\n      0x00\n        /* \"#utility.yul\":4420:4441   */\n      tag_126\n        /* \"#utility.yul\":4435:4440   */\n      dup3\n        /* \"#utility.yul\":4420:4441   */\n      tag_69\n      jump\t// in\n    tag_126:\n        /* \"#utility.yul\":4411:4441   */\n      swap2\n      pop\n        /* \"#utility.yul\":4463:4529   */\n      0xffffffffffffffffffffffffffffffffffffffffffffffffffffffffffffff80\n        /* \"#utility.yul\":4456:4461   */\n      dup3\n        /* \"#utility.yul\":4453:4530   */\n      sub\n        /* \"#utility.yul\":4450:4553   */\n      tag_127\n      jumpi\n        /* \"#utility.yul\":4533:4551   */\n      tag_128\n      tag_71\n      jump\t// in\n    tag_128:\n        /* \"#utility.yul\":4450:4553   */\n    tag_127:\n        /* \"#utility.yul\":4580:4581   */\n      0x01\n        /* \"#utility.yul\":4573:4578   */\n      dup3\n        /* \"#utility.yul\":4569:4582   */\n      sub\n        /* \"#utility.yul\":4562:4582   */\n      swap1\n      pop\n        /* \"#utility.yul\":4361:4588   */\n      swap2\n      swap1\n      pop\n      jump\t// out\n        /* \"#utility.yul\":4594:4774   */\n    tag_72:\n        /* \"#utility.yul\":4642:4719   */\n      0x4e487b7100000000000000000000000000000000000000000000000000000000\n        /* \"#utility.yul\":4639:4640   */\n      0x00\n        /* \"#utility.yul\":4632:4720   */\n      mstore\n        /* \"#utility.yul\":4739:4743   */\n      0x22\n        /* \"#utility.yul\":4736:4737   */\n      0x04\n        /* \"#utility.yul\":4729:4744   */\n      mstore\n        /* \"#utility.yul\":4763:4767   */\n      0x24\n        /* \"#utility.yul\":4760:4761   */\n      0x00\n        /* \"#utility.yul\":4753:4768   */\n      revert\n        /* \"#utility.yul\":4780:5100   */\n    tag_47:\n        /* \"#utility.yul\":4824:4830   */\n      0x00\n        /* \"#utility.yul\":4861:4862   */\n      0x02\n        /* \"#utility.yul\":4855:4859   */\n      dup3\n        /* \"#utility.yul\":4851:4863   */\n      div\n        /* \"#utility.yul\":4841:4863   */\n      swap1\n      pop\n        /* \"#utility.yul\":4908:4909   */\n      0x01\n        /* \"#utility.yul\":4902:4906   */\n      dup3\n        /* \"#utility.yul\":4898:4910   */\n      and\n        /* \"#utility.yul\":4929:4947   */\n      dup1\n        /* \"#utility.yul\":4919:5000   */\n      tag_131\n      jumpi\n        /* \"#utility.yul\":4985:4989   */\n      0x7f\n        /* \"#utility.yul\":4977:4983   */\n      dup3\n        /* \"#utility.yul\":4973:4990   */\n      and\n        /* \"#utility.yul\":4963:4990   */\n      swap2\n      pop\n        /* \"#utility.yul\":4919:5000   */\n    tag_131:\n        /* \"#utility.yul\":5047:5049   */\n      0x20\n        /* \"#utility.yul\":5039:5045   */\n      dup3\n        /* \"#utility.yul\":5036:5050   */\n      lt\n        /* \"#utility.yul\":5016:5034   */\n      dup2\n        /* \"#utility.yul\":5013:5051   */\n      sub\n        /* \"#utility.yul\":5010:5094   */\n      tag_132\n      jumpi\n        /* \"#utility.yul\":5066:5084   */\n      tag_133\n      tag_72\n      jump\t// in\n    tag_133:\n        /* \"#utility.yul\":5010:5094   */\n    tag_132:\n        /* \"#utility.yul\":4831:5100   */\n      pop\n        /* \"#utility.yul\":4780:5100   */\n      swap2\n      swap1\n      pop\n      jump\t// out\n\n    auxdata: 0xa2646970667358221220f564a26f96cb9b6e0b91b281bdcebaa0038a7a8cdc7e255b80452d6b04b36ee764736f6c63430008110033\n}\n",
				"bytecode": {
					"linkReferences": {},
					"object": "60806040526040518060400160405280600581526020017f5061726973000000000000000000000000000000000000000000000000000000815250600290816200004a919062000333565b5060ff600360006101000a81548160ff021916908360ff1602179055507ffffffffffffffffffffffffffffffffffffffffffffffffffffffffffffffff3600360016101000a81548160ff021916908360000b60ff160217905550348015620000b257600080fd5b506200041a565b600081519050919050565b7f4e487b7100000000000000000000000000000000000000000000000000000000600052604160045260246000fd5b7f4e487b7100000000000000000000000000000000000000000000000000000000600052602260045260246000fd5b600060028204905060018216806200013b57607f821691505b602082108103620001515762000150620000f3565b5b50919050565b60008190508160005260206000209050919050565b60006020601f8301049050919050565b600082821b905092915050565b600060088302620001bb7fffffffffffffffffffffffffffffffffffffffffffffffffffffffffffffffff826200017c565b620001c786836200017c565b95508019841693508086168417925050509392505050565b6000819050919050565b6000819050919050565b6000620002146200020e6200020884620001df565b620001e9565b620001df565b9050919050565b6000819050919050565b6200023083620001f3565b620002486200023f826200021b565b84845462000189565b825550505050565b600090565b6200025f62000250565b6200026c81848462000225565b505050565b5b8181101562000294576200028860008262000255565b60018101905062000272565b5050565b601f821115620002e357620002ad8162000157565b620002b8846200016c565b81016020851015620002c8578190505b620002e0620002d7856200016c565b83018262000271565b50505b505050565b600082821c905092915050565b60006200030860001984600802620002e8565b1980831691505092915050565b6000620003238383620002f5565b9150826002028217905092915050565b6200033e82620000b9565b67ffffffffffffffff8111156200035a5762000359620000c4565b5b62000366825462000122565b6200037382828562000298565b600060209050601f831160018114620003ab576000841562000396578287015190505b620003a2858262000315565b86555062000412565b601f198416620003bb8662000157565b60005b82811015620003e557848901518255600182019150602085019450602081019050620003be565b8683101562000405578489015162000401601f891682620002f5565b8355505b6001600288020188555050505b505050505050565b6105bf806200042a6000396000f3fe608060405234801561001057600080fd5b50600436106100885760003560e01c8063516f279e1161005b578063516f279e146100dd57806391b7f5ed146100fb578063a035b1fe14610117578063a56dfe4a1461013557610088565b806302c7e7af1461008d5780630c55699c146100ab5780631ad73b4f146100c95780631d8c4aff146100d3575b600080fd5b610095610153565b6040516100a291906102bc565b60405180910390f35b6100b3610166565b6040516100c091906102f3565b60405180910390f35b6100d1610179565b005b6100db6101b3565b005b6100e56101f0565b6040516100f2919061039e565b60405180910390f35b610115600480360381019061011091906103fb565b61027e565b005b61011f610288565b60405161012c9190610437565b60405180910390f35b61013d61028e565b60405161014a919061046e565b60405180910390f35b600160009054906101000a900460ff1681565b600360009054906101000a900460ff1681565b6003600081819054906101000a900460ff1680929190610198906104b8565b91906101000a81548160ff021916908360ff16021790555050565b6003600181819054906101000a900460000b809291906101d2906104e1565b91906101000a81548160ff021916908360000b60ff16021790555050565b600280546101fd90610558565b80601f016020809104026020016040519081016040528092919081815260200182805461022990610558565b80156102765780601f1061024b57610100808354040283529160200191610276565b820191906000526020600020905b81548152906001019060200180831161025957829003601f168201915b505050505081565b8060008190555050565b60005481565b600360019054906101000a900460000b81565b60008115159050919050565b6102b6816102a1565b82525050565b60006020820190506102d160008301846102ad565b92915050565b600060ff82169050919050565b6102ed816102d7565b82525050565b600060208201905061030860008301846102e4565b92915050565b600081519050919050565b600082825260208201905092915050565b60005b8381101561034857808201518184015260208101905061032d565b60008484015250505050565b6000601f19601f8301169050919050565b60006103708261030e565b61037a8185610319565b935061038a81856020860161032a565b61039381610354565b840191505092915050565b600060208201905081810360008301526103b88184610365565b905092915050565b600080fd5b6000819050919050565b6103d8816103c5565b81146103e357600080fd5b50565b6000813590506103f5816103cf565b92915050565b600060208284031215610411576104106103c0565b5b600061041f848285016103e6565b91505092915050565b610431816103c5565b82525050565b600060208201905061044c6000830184610428565b92915050565b60008160000b9050919050565b61046881610452565b82525050565b6000602082019050610483600083018461045f565b92915050565b7f4e487b7100000000000000000000000000000000000000000000000000000000600052601160045260246000fd5b60006104c3826102d7565b915060ff82036104d6576104d5610489565b5b600182019050919050565b60006104ec82610452565b91507fffffffffffffffffffffffffffffffffffffffffffffffffffffffffffffff80820361051e5761051d610489565b5b600182039050919050565b7f4e487b7100000000000000000000000000000000000000000000000000000000600052602260045260246000fd5b6000600282049050600182168061057057607f821691505b60208210810361058357610582610529565b5b5091905056fea2646970667358221220f564a26f96cb9b6e0b91b281bdcebaa0038a7a8cdc7e255b80452d6b04b36ee764736f6c63430008110033",
					"opcodes": "PUSH1 0x80 PUSH1 0x40 MSTORE PUSH1 0x40 MLOAD DUP1 PUSH1 0x40 ADD PUSH1 0x40 MSTORE DUP1 PUSH1 0x5 DUP2 MSTORE PUSH1 0x20 ADD PUSH32 0x5061726973000000000000000000000000000000000000000000000000000000 DUP2 MSTORE POP PUSH1 0x2 SWAP1 DUP2 PUSH3 0x4A SWAP2 SWAP1 PUSH3 0x333 JUMP JUMPDEST POP PUSH1 0xFF PUSH1 0x3 PUSH1 0x0 PUSH2 0x100 EXP DUP2 SLOAD DUP2 PUSH1 0xFF MUL NOT AND SWAP1 DUP4 PUSH1 0xFF AND MUL OR SWAP1 SSTORE POP PUSH32 0xFFFFFFFFFFFFFFFFFFFFFFFFFFFFFFFFFFFFFFFFFFFFFFFFFFFFFFFFFFFFFFF3 PUSH1 0x3 PUSH1 0x1 PUSH2 0x100 EXP DUP2 SLOAD DUP2 PUSH1 0xFF MUL NOT AND SWAP1 DUP4 PUSH1 0x0 SIGNEXTEND PUSH1 0xFF AND MUL OR SWAP1 SSTORE POP CALLVALUE DUP1 ISZERO PUSH3 0xB2 JUMPI PUSH1 0x0 DUP1 REVERT JUMPDEST POP PUSH3 0x41A JUMP JUMPDEST PUSH1 0x0 DUP2 MLOAD SWAP1 POP SWAP2 SWAP1 POP JUMP JUMPDEST PUSH32 0x4E487B7100000000000000000000000000000000000000000000000000000000 PUSH1 0x0 MSTORE PUSH1 0x41 PUSH1 0x4 MSTORE PUSH1 0x24 PUSH1 0x0 REVERT JUMPDEST PUSH32 0x4E487B7100000000000000000000000000000000000000000000000000000000 PUSH1 0x0 MSTORE PUSH1 0x22 PUSH1 0x4 MSTORE PUSH1 0x24 PUSH1 0x0 REVERT JUMPDEST PUSH1 0x0 PUSH1 0x2 DUP3 DIV SWAP1 POP PUSH1 0x1 DUP3 AND DUP1 PUSH3 0x13B JUMPI PUSH1 0x7F DUP3 AND SWAP2 POP JUMPDEST PUSH1 0x20 DUP3 LT DUP2 SUB PUSH3 0x151 JUMPI PUSH3 0x150 PUSH3 0xF3 JUMP JUMPDEST JUMPDEST POP SWAP2 SWAP1 POP JUMP JUMPDEST PUSH1 0x0 DUP2 SWAP1 POP DUP2 PUSH1 0x0 MSTORE PUSH1 0x20 PUSH1 0x0 KECCAK256 SWAP1 POP SWAP2 SWAP1 POP JUMP JUMPDEST PUSH1 0x0 PUSH1 0x20 PUSH1 0x1F DUP4 ADD DIV SWAP1 POP SWAP2 SWAP1 POP JUMP JUMPDEST PUSH1 0x0 DUP3 DUP3 SHL SWAP1 POP SWAP3 SWAP2 POP POP JUMP JUMPDEST PUSH1 0x0 PUSH1 0x8 DUP4 MUL PUSH3 0x1BB PUSH32 0xFFFFFFFFFFFFFFFFFFFFFFFFFFFFFFFFFFFFFFFFFFFFFFFFFFFFFFFFFFFFFFFF DUP3 PUSH3 0x17C JUMP JUMPDEST PUSH3 0x1C7 DUP7 DUP4 PUSH3 0x17C JUMP JUMPDEST SWAP6 POP DUP1 NOT DUP5 AND SWAP4 POP DUP1 DUP7 AND DUP5 OR SWAP3 POP POP POP SWAP4 SWAP3 POP POP POP JUMP JUMPDEST PUSH1 0x0 DUP2 SWAP1 POP SWAP2 SWAP1 POP JUMP JUMPDEST PUSH1 0x0 DUP2 SWAP1 POP SWAP2 SWAP1 POP JUMP JUMPDEST PUSH1 0x0 PUSH3 0x214 PUSH3 0x20E PUSH3 0x208 DUP5 PUSH3 0x1DF JUMP JUMPDEST PUSH3 0x1E9 JUMP JUMPDEST PUSH3 0x1DF JUMP JUMPDEST SWAP1 POP SWAP2 SWAP1 POP JUMP JUMPDEST PUSH1 0x0 DUP2 SWAP1 POP SWAP2 SWAP1 POP JUMP JUMPDEST PUSH3 0x230 DUP4 PUSH3 0x1F3 JUMP JUMPDEST PUSH3 0x248 PUSH3 0x23F DUP3 PUSH3 0x21B JUMP JUMPDEST DUP5 DUP5 SLOAD PUSH3 0x189 JUMP JUMPDEST DUP3 SSTORE POP POP POP POP JUMP JUMPDEST PUSH1 0x0 SWAP1 JUMP JUMPDEST PUSH3 0x25F PUSH3 0x250 JUMP JUMPDEST PUSH3 0x26C DUP2 DUP5 DUP5 PUSH3 0x225 JUMP JUMPDEST POP POP POP JUMP JUMPDEST JUMPDEST DUP2 DUP2 LT ISZERO PUSH3 0x294 JUMPI PUSH3 0x288 PUSH1 0x0 DUP3 PUSH3 0x255 JUMP JUMPDEST PUSH1 0x1 DUP2 ADD SWAP1 POP PUSH3 0x272 JUMP JUMPDEST POP POP JUMP JUMPDEST PUSH1 0x1F DUP3 GT ISZERO PUSH3 0x2E3 JUMPI PUSH3 0x2AD DUP2 PUSH3 0x157 JUMP JUMPDEST PUSH3 0x2B8 DUP5 PUSH3 0x16C JUMP JUMPDEST DUP2 ADD PUSH1 0x20 DUP6 LT ISZERO PUSH3 0x2C8 JUMPI DUP2 SWAP1 POP JUMPDEST PUSH3 0x2E0 PUSH3 0x2D7 DUP6 PUSH3 0x16C JUMP JUMPDEST DUP4 ADD DUP3 PUSH3 0x271 JUMP JUMPDEST POP POP JUMPDEST POP POP POP JUMP JUMPDEST PUSH1 0x0 DUP3 DUP3 SHR SWAP1 POP SWAP3 SWAP2 POP POP JUMP JUMPDEST PUSH1 0x0 PUSH3 0x308 PUSH1 0x0 NOT DUP5 PUSH1 0x8 MUL PUSH3 0x2E8 JUMP JUMPDEST NOT DUP1 DUP4 AND SWAP2 POP POP SWAP3 SWAP2 POP POP JUMP JUMPDEST PUSH1 0x0 PUSH3 0x323 DUP4 DUP4 PUSH3 0x2F5 JUMP JUMPDEST SWAP2 POP DUP3 PUSH1 0x2 MUL DUP3 OR SWAP1 POP SWAP3 SWAP2 POP POP JUMP JUMPDEST PUSH3 0x33E DUP3 PUSH3 0xB9 JUMP JUMPDEST PUSH8 0xFFFFFFFFFFFFFFFF DUP2 GT ISZERO PUSH3 0x35A JUMPI PUSH3 0x359 PUSH3 0xC4 JUMP JUMPDEST JUMPDEST PUSH3 0x366 DUP3 SLOAD PUSH3 0x122 JUMP JUMPDEST PUSH3 0x373 DUP3 DUP3 DUP6 PUSH3 0x298 JUMP JUMPDEST PUSH1 0x0 PUSH1 0x20 SWAP1 POP PUSH1 0x1F DUP4 GT PUSH1 0x1 DUP2 EQ PUSH3 0x3AB JUMPI PUSH1 0x0 DUP5 ISZERO PUSH3 0x396 JUMPI DUP3 DUP8 ADD MLOAD SWAP1 POP JUMPDEST PUSH3 0x3A2 DUP6 DUP3 PUSH3 0x315 JUMP JUMPDEST DUP7 SSTORE POP PUSH3 0x412 JUMP JUMPDEST PUSH1 0x1F NOT DUP5 AND PUSH3 0x3BB DUP7 PUSH3 0x157 JUMP JUMPDEST PUSH1 0x0 JUMPDEST DUP3 DUP2 LT ISZERO PUSH3 0x3E5 JUMPI DUP5 DUP10 ADD MLOAD DUP3 SSTORE PUSH1 0x1 DUP3 ADD SWAP2 POP PUSH1 0x20 DUP6 ADD SWAP5 POP PUSH1 0x20 DUP2 ADD SWAP1 POP PUSH3 0x3BE JUMP JUMPDEST DUP7 DUP4 LT ISZERO PUSH3 0x405 JUMPI DUP5 DUP10 ADD MLOAD PUSH3 0x401 PUSH1 0x1F DUP10 AND DUP3 PUSH3 0x2F5 JUMP JUMPDEST DUP4 SSTORE POP JUMPDEST PUSH1 0x1 PUSH1 0x2 DUP9 MUL ADD DUP9 SSTORE POP POP POP JUMPDEST POP POP POP POP POP POP JUMP JUMPDEST PUSH2 0x5BF DUP1 PUSH3 0x42A PUSH1 0x0 CODECOPY PUSH1 0x0 RETURN INVALID PUSH1 0x80 PUSH1 0x40 MSTORE CALLVALUE DUP1 ISZERO PUSH2 0x10 JUMPI PUSH1 0x0 DUP1 REVERT JUMPDEST POP PUSH1 0x4 CALLDATASIZE LT PUSH2 0x88 JUMPI PUSH1 0x0 CALLDATALOAD PUSH1 0xE0 SHR DUP1 PUSH4 0x516F279E GT PUSH2 0x5B JUMPI DUP1 PUSH4 0x516F279E EQ PUSH2 0xDD JUMPI DUP1 PUSH4 0x91B7F5ED EQ PUSH2 0xFB JUMPI DUP1 PUSH4 0xA035B1FE EQ PUSH2 0x117 JUMPI DUP1 PUSH4 0xA56DFE4A EQ PUSH2 0x135 JUMPI PUSH2 0x88 JUMP JUMPDEST DUP1 PUSH4 0x2C7E7AF EQ PUSH2 0x8D JUMPI DUP1 PUSH4 0xC55699C EQ PUSH2 0xAB JUMPI DUP1 PUSH4 0x1AD73B4F EQ PUSH2 0xC9 JUMPI DUP1 PUSH4 0x1D8C4AFF EQ PUSH2 0xD3 JUMPI JUMPDEST PUSH1 0x0 DUP1 REVERT JUMPDEST PUSH2 0x95 PUSH2 0x153 JUMP JUMPDEST PUSH1 0x40 MLOAD PUSH2 0xA2 SWAP2 SWAP1 PUSH2 0x2BC JUMP JUMPDEST PUSH1 0x40 MLOAD DUP1 SWAP2 SUB SWAP1 RETURN JUMPDEST PUSH2 0xB3 PUSH2 0x166 JUMP JUMPDEST PUSH1 0x40 MLOAD PUSH2 0xC0 SWAP2 SWAP1 PUSH2 0x2F3 JUMP JUMPDEST PUSH1 0x40 MLOAD DUP1 SWAP2 SUB SWAP1 RETURN JUMPDEST PUSH2 0xD1 PUSH2 0x179 JUMP JUMPDEST STOP JUMPDEST PUSH2 0xDB PUSH2 0x1B3 JUMP JUMPDEST STOP JUMPDEST PUSH2 0xE5 PUSH2 0x1F0 JUMP JUMPDEST PUSH1 0x40 MLOAD PUSH2 0xF2 SWAP2 SWAP1 PUSH2 0x39E JUMP JUMPDEST PUSH1 0x40 MLOAD DUP1 SWAP2 SUB SWAP1 RETURN JUMPDEST PUSH2 0x115 PUSH1 0x4 DUP1 CALLDATASIZE SUB DUP2 ADD SWAP1 PUSH2 0x110 SWAP2 SWAP1 PUSH2 0x3FB JUMP JUMPDEST PUSH2 0x27E JUMP JUMPDEST STOP JUMPDEST PUSH2 0x11F PUSH2 0x288 JUMP JUMPDEST PUSH1 0x40 MLOAD PUSH2 0x12C SWAP2 SWAP1 PUSH2 0x437 JUMP JUMPDEST PUSH1 0x40 MLOAD DUP1 SWAP2 SUB SWAP1 RETURN JUMPDEST PUSH2 0x13D PUSH2 0x28E JUMP JUMPDEST PUSH1 0x40 MLOAD PUSH2 0x14A SWAP2 SWAP1 PUSH2 0x46E JUMP JUMPDEST PUSH1 0x40 MLOAD DUP1 SWAP2 SUB SWAP1 RETURN JUMPDEST PUSH1 0x1 PUSH1 0x0 SWAP1 SLOAD SWAP1 PUSH2 0x100 EXP SWAP1 DIV PUSH1 0xFF AND DUP2 JUMP JUMPDEST PUSH1 0x3 PUSH1 0x0 SWAP1 SLOAD SWAP1 PUSH2 0x100 EXP SWAP1 DIV PUSH1 0xFF AND DUP2 JUMP JUMPDEST PUSH1 0x3 PUSH1 0x0 DUP2 DUP2 SWAP1 SLOAD SWAP1 PUSH2 0x100 EXP SWAP1 DIV PUSH1 0xFF AND DUP1 SWAP3 SWAP2 SWAP1 PUSH2 0x198 SWAP1 PUSH2 0x4B8 JUMP JUMPDEST SWAP2 SWAP1 PUSH2 0x100 EXP DUP2 SLOAD DUP2 PUSH1 0xFF MUL NOT AND SWAP1 DUP4 PUSH1 0xFF AND MUL OR SWAP1 SSTORE POP POP JUMP JUMPDEST PUSH1 0x3 PUSH1 0x1 DUP2 DUP2 SWAP1 SLOAD SWAP1 PUSH2 0x100 EXP SWAP1 DIV PUSH1 0x0 SIGNEXTEND DUP1 SWAP3 SWAP2 SWAP1 PUSH2 0x1D2 SWAP1 PUSH2 0x4E1 JUMP JUMPDEST SWAP2 SWAP1 PUSH2 0x100 EXP DUP2 SLOAD DUP2 PUSH1 0xFF MUL NOT AND SWAP1 DUP4 PUSH1 0x0 SIGNEXTEND PUSH1 0xFF AND MUL OR SWAP1 SSTORE POP POP JUMP JUMPDEST PUSH1 0x2 DUP1 SLOAD PUSH2 0x1FD SWAP1 PUSH2 0x558 JUMP JUMPDEST DUP1 PUSH1 0x1F ADD PUSH1 0x20 DUP1 SWAP2 DIV MUL PUSH1 0x20 ADD PUSH1 0x40 MLOAD SWAP1 DUP2 ADD PUSH1 0x40 MSTORE DUP1 SWAP3 SWAP2 SWAP1 DUP2 DUP2 MSTORE PUSH1 0x20 ADD DUP3 DUP1 SLOAD PUSH2 0x229 SWAP1 PUSH2 0x558 JUMP JUMPDEST DUP1 ISZERO PUSH2 0x276 JUMPI DUP1 PUSH1 0x1F LT PUSH2 0x24B JUMPI PUSH2 0x100 DUP1 DUP4 SLOAD DIV MUL DUP4 MSTORE SWAP2 PUSH1 0x20 ADD SWAP2 PUSH2 0x276 JUMP JUMPDEST DUP3 ADD SWAP2 SWAP1 PUSH1 0x0 MSTORE PUSH1 0x20 PUSH1 0x0 KECCAK256 SWAP1 JUMPDEST DUP2 SLOAD DUP2 MSTORE SWAP1 PUSH1 0x1 ADD SWAP1 PUSH1 0x20 ADD DUP1 DUP4 GT PUSH2 0x259 JUMPI DUP3 SWAP1 SUB PUSH1 0x1F AND DUP3 ADD SWAP2 JUMPDEST POP POP POP POP POP DUP2 JUMP JUMPDEST DUP1 PUSH1 0x0 DUP2 SWAP1 SSTORE POP POP JUMP JUMPDEST PUSH1 0x0 SLOAD DUP2 JUMP JUMPDEST PUSH1 0x3 PUSH1 0x1 SWAP1 SLOAD SWAP1 PUSH2 0x100 EXP SWAP1 DIV PUSH1 0x0 SIGNEXTEND DUP2 JUMP JUMPDEST PUSH1 0x0 DUP2 ISZERO ISZERO SWAP1 POP SWAP2 SWAP1 POP JUMP JUMPDEST PUSH2 0x2B6 DUP2 PUSH2 0x2A1 JUMP JUMPDEST DUP3 MSTORE POP POP JUMP JUMPDEST PUSH1 0x0 PUSH1 0x20 DUP3 ADD SWAP1 POP PUSH2 0x2D1 PUSH1 0x0 DUP4 ADD DUP5 PUSH2 0x2AD JUMP JUMPDEST SWAP3 SWAP2 POP POP JUMP JUMPDEST PUSH1 0x0 PUSH1 0xFF DUP3 AND SWAP1 POP SWAP2 SWAP1 POP JUMP JUMPDEST PUSH2 0x2ED DUP2 PUSH2 0x2D7 JUMP JUMPDEST DUP3 MSTORE POP POP JUMP JUMPDEST PUSH1 0x0 PUSH1 0x20 DUP3 ADD SWAP1 POP PUSH2 0x308 PUSH1 0x0 DUP4 ADD DUP5 PUSH2 0x2E4 JUMP JUMPDEST SWAP3 SWAP2 POP POP JUMP JUMPDEST PUSH1 0x0 DUP2 MLOAD SWAP1 POP SWAP2 SWAP1 POP JUMP JUMPDEST PUSH1 0x0 DUP3 DUP3 MSTORE PUSH1 0x20 DUP3 ADD SWAP1 POP SWAP3 SWAP2 POP POP JUMP JUMPDEST PUSH1 0x0 JUMPDEST DUP4 DUP2 LT ISZERO PUSH2 0x348 JUMPI DUP1 DUP3 ADD MLOAD DUP2 DUP5 ADD MSTORE PUSH1 0x20 DUP2 ADD SWAP1 POP PUSH2 0x32D JUMP JUMPDEST PUSH1 0x0 DUP5 DUP5 ADD MSTORE POP POP POP POP JUMP JUMPDEST PUSH1 0x0 PUSH1 0x1F NOT PUSH1 0x1F DUP4 ADD AND SWAP1 POP SWAP2 SWAP1 POP JUMP JUMPDEST PUSH1 0x0 PUSH2 0x370 DUP3 PUSH2 0x30E JUMP JUMPDEST PUSH2 0x37A DUP2 DUP6 PUSH2 0x319 JUMP JUMPDEST SWAP4 POP PUSH2 0x38A DUP2 DUP6 PUSH1 0x20 DUP7 ADD PUSH2 0x32A JUMP JUMPDEST PUSH2 0x393 DUP2 PUSH2 0x354 JUMP JUMPDEST DUP5 ADD SWAP2 POP POP SWAP3 SWAP2 POP POP JUMP JUMPDEST PUSH1 0x0 PUSH1 0x20 DUP3 ADD SWAP1 POP DUP2 DUP2 SUB PUSH1 0x0 DUP4 ADD MSTORE PUSH2 0x3B8 DUP2 DUP5 PUSH2 0x365 JUMP JUMPDEST SWAP1 POP SWAP3 SWAP2 POP POP JUMP JUMPDEST PUSH1 0x0 DUP1 REVERT JUMPDEST PUSH1 0x0 DUP2 SWAP1 POP SWAP2 SWAP1 POP JUMP JUMPDEST PUSH2 0x3D8 DUP2 PUSH2 0x3C5 JUMP JUMPDEST DUP2 EQ PUSH2 0x3E3 JUMPI PUSH1 0x0 DUP1 REVERT JUMPDEST POP JUMP JUMPDEST PUSH1 0x0 DUP2 CALLDATALOAD SWAP1 POP PUSH2 0x3F5 DUP2 PUSH2 0x3CF JUMP JUMPDEST SWAP3 SWAP2 POP POP JUMP JUMPDEST PUSH1 0x0 PUSH1 0x20 DUP3 DUP5 SUB SLT ISZERO PUSH2 0x411 JUMPI PUSH2 0x410 PUSH2 0x3C0 JUMP JUMPDEST JUMPDEST PUSH1 0x0 PUSH2 0x41F DUP5 DUP3 DUP6 ADD PUSH2 0x3E6 JUMP JUMPDEST SWAP2 POP POP SWAP3 SWAP2 POP POP JUMP JUMPDEST PUSH2 0x431 DUP2 PUSH2 0x3C5 JUMP JUMPDEST DUP3 MSTORE POP POP JUMP JUMPDEST PUSH1 0x0 PUSH1 0x20 DUP3 ADD SWAP1 POP PUSH2 0x44C PUSH1 0x0 DUP4 ADD DUP5 PUSH2 0x428 JUMP JUMPDEST SWAP3 SWAP2 POP POP JUMP JUMPDEST PUSH1 0x0 DUP2 PUSH1 0x0 SIGNEXTEND SWAP1 POP SWAP2 SWAP1 POP JUMP JUMPDEST PUSH2 0x468 DUP2 PUSH2 0x452 JUMP JUMPDEST DUP3 MSTORE POP POP JUMP JUMPDEST PUSH1 0x0 PUSH1 0x20 DUP3 ADD SWAP1 POP PUSH2 0x483 PUSH1 0x0 DUP4 ADD DUP5 PUSH2 0x45F JUMP JUMPDEST SWAP3 SWAP2 POP POP JUMP JUMPDEST PUSH32 0x4E487B7100000000000000000000000000000000000000000000000000000000 PUSH1 0x0 MSTORE PUSH1 0x11 PUSH1 0x4 MSTORE PUSH1 0x24 PUSH1 0x0 REVERT JUMPDEST PUSH1 0x0 PUSH2 0x4C3 DUP3 PUSH2 0x2D7 JUMP JUMPDEST SWAP2 POP PUSH1 0xFF DUP3 SUB PUSH2 0x4D6 JUMPI PUSH2 0x4D5 PUSH2 0x489 JUMP JUMPDEST JUMPDEST PUSH1 0x1 DUP3 ADD SWAP1 POP SWAP2 SWAP1 POP JUMP JUMPDEST PUSH1 0x0 PUSH2 0x4EC DUP3 PUSH2 0x452 JUMP JUMPDEST SWAP2 POP PUSH32 0xFFFFFFFFFFFFFFFFFFFFFFFFFFFFFFFFFFFFFFFFFFFFFFFFFFFFFFFFFFFFFF80 DUP3 SUB PUSH2 0x51E JUMPI PUSH2 0x51D PUSH2 0x489 JUMP JUMPDEST JUMPDEST PUSH1 0x1 DUP3 SUB SWAP1 POP SWAP2 SWAP1 POP JUMP JUMPDEST PUSH32 0x4E487B7100000000000000000000000000000000000000000000000000000000 PUSH1 0x0 MSTORE PUSH1 0x22 PUSH1 0x4 MSTORE PUSH1 0x24 PUSH1 0x0 REVERT JUMPDEST PUSH1 0x0 PUSH1 0x2 DUP3 DIV SWAP1 POP PUSH1 0x1 DUP3 AND DUP1 PUSH2 0x570 JUMPI PUSH1 0x7F DUP3 AND SWAP2 POP JUMPDEST PUSH1 0x20 DUP3 LT DUP2 SUB PUSH2 0x583 JUMPI PUSH2 0x582 PUSH2 0x529 JUMP JUMPDEST JUMPDEST POP SWAP2 SWAP1 POP JUMP INVALID LOG2 PUSH5 0x6970667358 0x22 SLT KECCAK256 CREATE2 PUSH5 0xA26F96CB9B PUSH15 0xB91B281BDCEBAA0038A7A8CDC7E25 JUMPDEST DUP1 GASLIMIT 0x2D PUSH12 0x4B36EE764736F6C63430008 GT STOP CALLER "
				},
				"gasEstimates": {
					"creation": {
						"codeDepositCost": "294200",
						"executionCost": "infinite",
						"totalCost": "infinite"
					},
					"external": {
						"location()": "infinite",
						"price()": "2473",
						"setPrice(uint256)": "22542",
						"sold()": "2472",
						"testOverFlow()": "26744",
						"testUnderFlow()": "26878",
						"x()": "2494",
						"y()": "2591"
					}
				},
				"methodIdentifiers": {
					"location()": "516f279e",
					"price()": "a035b1fe",
					"setPrice(uint256)": "91b7f5ed",
					"sold()": "02c7e7af",
					"testOverFlow()": "1ad73b4f",
					"testUnderFlow()": "1d8c4aff",
					"x()": "0c55699c",
					"y()": "a56dfe4a"
				}
			},
			"storageLayout": {
				"storage": [
					{
						"astId": 63,
						"contract": "contracts/MyContract.sol:PriceSold",
						"label": "price",
						"offset": 0,
						"slot": "0",
						"type": "t_uint256"
					},
					{
						"astId": 65,
						"contract": "contracts/MyContract.sol:PriceSold",
						"label": "sold",
						"offset": 0,
						"slot": "1",
						"type": "t_bool"
					},
					{
						"astId": 68,
						"contract": "contracts/MyContract.sol:PriceSold",
						"label": "location",
						"offset": 0,
						"slot": "2",
						"type": "t_string_storage"
					},
					{
						"astId": 81,
						"contract": "contracts/MyContract.sol:PriceSold",
						"label": "x",
						"offset": 0,
						"slot": "3",
						"type": "t_uint8"
					},
					{
						"astId": 85,
						"contract": "contracts/MyContract.sol:PriceSold",
						"label": "y",
						"offset": 1,
						"slot": "3",
						"type": "t_int8"
					}
				],
				"types": {
					"t_bool": {
						"encoding": "inplace",
						"label": "bool",
						"numberOfBytes": "1"
					},
					"t_int8": {
						"encoding": "inplace",
						"label": "int8",
						"numberOfBytes": "1"
					},
					"t_string_storage": {
						"encoding": "bytes",
						"label": "string",
						"numberOfBytes": "32"
					},
					"t_uint256": {
						"encoding": "inplace",
						"label": "uint256",
						"numberOfBytes": "32"
					},
					"t_uint8": {
						"encoding": "inplace",
						"label": "uint8",
						"numberOfBytes": "1"
					}
				}
			},
			"userdoc": {
				"kind": "user",
				"methods": {},
				"version": 1
			}
		}
	}
}