{
	"contracts/StructsAndEnums.sol": {
		"Academy": {
			"abi": [
				{
					"inputs": [
						{
							"internalType": "uint256",
							"name": "_age",
							"type": "uint256"
						},
						{
							"internalType": "string",
							"name": "_name",
							"type": "string"
						}
					],
					"stateMutability": "nonpayable",
					"type": "constructor"
				},
				{
					"inputs": [],
					"name": "academyInstructor",
					"outputs": [
						{
							"internalType": "uint256",
							"name": "age",
							"type": "uint256"
						},
						{
							"internalType": "string",
							"name": "name",
							"type": "string"
						},
						{
							"internalType": "address",
							"name": "addr",
							"type": "address"
						}
					],
					"stateMutability": "view",
					"type": "function"
				},
				{
					"inputs": [
						{
							"internalType": "uint256",
							"name": "_age",
							"type": "uint256"
						},
						{
							"internalType": "string",
							"name": "_name",
							"type": "string"
						},
						{
							"internalType": "address",
							"name": "_addr",
							"type": "address"
						}
					],
					"name": "changeInstructor",
					"outputs": [],
					"stateMutability": "nonpayable",
					"type": "function"
				}
			],
			"devdoc": {
				"kind": "dev",
				"methods": {},
				"version": 1
			},
			"evm": {
				"assembly": "    /* \"contracts/StructsAndEnums.sol\":208:563  contract Academy {... */\n  mstore(0x40, 0x80)\n    /* \"contracts/StructsAndEnums.sol\":276:454  constructor(uint _age, string memory _name) {... */\n  callvalue\n  dup1\n  iszero\n  tag_1\n  jumpi\n  0x00\n  dup1\n  revert\ntag_1:\n  pop\n  mload(0x40)\n  sub(codesize, bytecodeSize)\n  dup1\n  bytecodeSize\n  dup4\n  codecopy\n  dup2\n  dup2\n  add\n  0x40\n  mstore\n  dup2\n  add\n  swap1\n  tag_2\n  swap2\n  swap1\n  tag_3\n  jump\t// in\ntag_2:\n    /* \"contracts/StructsAndEnums.sol\":355:359  _age */\n  dup2\n    /* \"contracts/StructsAndEnums.sol\":331:348  academyInstructor */\n  0x00\n    /* \"contracts/StructsAndEnums.sol\":331:352  academyInstructor.age */\n  dup1\n  add\n    /* \"contracts/StructsAndEnums.sol\":331:359  academyInstructor.age = _age */\n  dup2\n  swap1\n  sstore\n  pop\n    /* \"contracts/StructsAndEnums.sol\":395:400  _name */\n  dup1\n    /* \"contracts/StructsAndEnums.sol\":370:387  academyInstructor */\n  0x00\n    /* \"contracts/StructsAndEnums.sol\":370:392  academyInstructor.name */\n  0x01\n  add\n    /* \"contracts/StructsAndEnums.sol\":370:400  academyInstructor.name = _name */\n  swap1\n  dup2\n  tag_6\n  swap2\n  swap1\n  tag_7\n  jump\t// in\ntag_6:\n  pop\n    /* \"contracts/StructsAndEnums.sol\":436:446  msg.sender */\n  caller\n    /* \"contracts/StructsAndEnums.sol\":411:428  academyInstructor */\n  0x00\n    /* \"contracts/StructsAndEnums.sol\":411:433  academyInstructor.addr */\n  0x02\n  add\n  0x00\n    /* \"contracts/StructsAndEnums.sol\":411:446  academyInstructor.addr = msg.sender */\n  0x0100\n  exp\n  dup2\n  sload\n  dup2\n  0xffffffffffffffffffffffffffffffffffffffff\n  mul\n  not\n  and\n  swap1\n  dup4\n  0xffffffffffffffffffffffffffffffffffffffff\n  and\n  mul\n  or\n  swap1\n  sstore\n  pop\n    /* \"contracts/StructsAndEnums.sol\":276:454  constructor(uint _age, string memory _name) {... */\n  pop\n  pop\n    /* \"contracts/StructsAndEnums.sol\":208:563  contract Academy {... */\n  jump(tag_8)\n    /* \"#utility.yul\":7:82   */\ntag_9:\n    /* \"#utility.yul\":40:46   */\n  0x00\n    /* \"#utility.yul\":73:75   */\n  0x40\n    /* \"#utility.yul\":67:76   */\n  mload\n    /* \"#utility.yul\":57:76   */\n  swap1\n  pop\n    /* \"#utility.yul\":7:82   */\n  swap1\n  jump\t// out\n    /* \"#utility.yul\":88:205   */\ntag_10:\n    /* \"#utility.yul\":197:198   */\n  0x00\n    /* \"#utility.yul\":194:195   */\n  dup1\n    /* \"#utility.yul\":187:199   */\n  revert\n    /* \"#utility.yul\":211:328   */\ntag_11:\n    /* \"#utility.yul\":320:321   */\n  0x00\n    /* \"#utility.yul\":317:318   */\n  dup1\n    /* \"#utility.yul\":310:322   */\n  revert\n    /* \"#utility.yul\":334:411   */\ntag_12:\n    /* \"#utility.yul\":371:378   */\n  0x00\n    /* \"#utility.yul\":400:405   */\n  dup2\n    /* \"#utility.yul\":389:405   */\n  swap1\n  pop\n    /* \"#utility.yul\":334:411   */\n  swap2\n  swap1\n  pop\n  jump\t// out\n    /* \"#utility.yul\":417:539   */\ntag_13:\n    /* \"#utility.yul\":490:514   */\n  tag_49\n    /* \"#utility.yul\":508:513   */\n  dup2\n    /* \"#utility.yul\":490:514   */\n  tag_12\n  jump\t// in\ntag_49:\n    /* \"#utility.yul\":483:488   */\n  dup2\n    /* \"#utility.yul\":480:515   */\n  eq\n    /* \"#utility.yul\":470:533   */\n  tag_50\n  jumpi\n    /* \"#utility.yul\":529:530   */\n  0x00\n    /* \"#utility.yul\":526:527   */\n  dup1\n    /* \"#utility.yul\":519:531   */\n  revert\n    /* \"#utility.yul\":470:533   */\ntag_50:\n    /* \"#utility.yul\":417:539   */\n  pop\n  jump\t// out\n    /* \"#utility.yul\":545:688   */\ntag_14:\n    /* \"#utility.yul\":602:607   */\n  0x00\n    /* \"#utility.yul\":633:639   */\n  dup2\n    /* \"#utility.yul\":627:640   */\n  mload\n    /* \"#utility.yul\":618:640   */\n  swap1\n  pop\n    /* \"#utility.yul\":649:682   */\n  tag_52\n    /* \"#utility.yul\":676:681   */\n  dup2\n    /* \"#utility.yul\":649:682   */\n  tag_13\n  jump\t// in\ntag_52:\n    /* \"#utility.yul\":545:688   */\n  swap3\n  swap2\n  pop\n  pop\n  jump\t// out\n    /* \"#utility.yul\":694:811   */\ntag_15:\n    /* \"#utility.yul\":803:804   */\n  0x00\n    /* \"#utility.yul\":800:801   */\n  dup1\n    /* \"#utility.yul\":793:805   */\n  revert\n    /* \"#utility.yul\":817:934   */\ntag_16:\n    /* \"#utility.yul\":926:927   */\n  0x00\n    /* \"#utility.yul\":923:924   */\n  dup1\n    /* \"#utility.yul\":916:928   */\n  revert\n    /* \"#utility.yul\":940:1042   */\ntag_17:\n    /* \"#utility.yul\":981:987   */\n  0x00\n    /* \"#utility.yul\":1032:1034   */\n  0x1f\n    /* \"#utility.yul\":1028:1035   */\n  not\n    /* \"#utility.yul\":1023:1025   */\n  0x1f\n    /* \"#utility.yul\":1016:1021   */\n  dup4\n    /* \"#utility.yul\":1012:1026   */\n  add\n    /* \"#utility.yul\":1008:1036   */\n  and\n    /* \"#utility.yul\":998:1036   */\n  swap1\n  pop\n    /* \"#utility.yul\":940:1042   */\n  swap2\n  swap1\n  pop\n  jump\t// out\n    /* \"#utility.yul\":1048:1228   */\ntag_18:\n    /* \"#utility.yul\":1096:1173   */\n  0x4e487b7100000000000000000000000000000000000000000000000000000000\n    /* \"#utility.yul\":1093:1094   */\n  0x00\n    /* \"#utility.yul\":1086:1174   */\n  mstore\n    /* \"#utility.yul\":1193:1197   */\n  0x41\n    /* \"#utility.yul\":1190:1191   */\n  0x04\n    /* \"#utility.yul\":1183:1198   */\n  mstore\n    /* \"#utility.yul\":1217:1221   */\n  0x24\n    /* \"#utility.yul\":1214:1215   */\n  0x00\n    /* \"#utility.yul\":1207:1222   */\n  revert\n    /* \"#utility.yul\":1234:1515   */\ntag_19:\n    /* \"#utility.yul\":1317:1344   */\n  tag_58\n    /* \"#utility.yul\":1339:1343   */\n  dup3\n    /* \"#utility.yul\":1317:1344   */\n  tag_17\n  jump\t// in\ntag_58:\n    /* \"#utility.yul\":1309:1315   */\n  dup2\n    /* \"#utility.yul\":1305:1345   */\n  add\n    /* \"#utility.yul\":1447:1453   */\n  dup2\n    /* \"#utility.yul\":1435:1445   */\n  dup2\n    /* \"#utility.yul\":1432:1454   */\n  lt\n    /* \"#utility.yul\":1411:1429   */\n  0xffffffffffffffff\n    /* \"#utility.yul\":1399:1409   */\n  dup3\n    /* \"#utility.yul\":1396:1430   */\n  gt\n    /* \"#utility.yul\":1393:1455   */\n  or\n    /* \"#utility.yul\":1390:1478   */\n  iszero\n  tag_59\n  jumpi\n    /* \"#utility.yul\":1458:1476   */\n  tag_60\n  tag_18\n  jump\t// in\ntag_60:\n    /* \"#utility.yul\":1390:1478   */\ntag_59:\n    /* \"#utility.yul\":1498:1508   */\n  dup1\n    /* \"#utility.yul\":1494:1496   */\n  0x40\n    /* \"#utility.yul\":1487:1509   */\n  mstore\n    /* \"#utility.yul\":1277:1515   */\n  pop\n    /* \"#utility.yul\":1234:1515   */\n  pop\n  pop\n  jump\t// out\n    /* \"#utility.yul\":1521:1650   */\ntag_20:\n    /* \"#utility.yul\":1555:1561   */\n  0x00\n    /* \"#utility.yul\":1582:1602   */\n  tag_62\n  tag_9\n  jump\t// in\ntag_62:\n    /* \"#utility.yul\":1572:1602   */\n  swap1\n  pop\n    /* \"#utility.yul\":1611:1644   */\n  tag_63\n    /* \"#utility.yul\":1639:1643   */\n  dup3\n    /* \"#utility.yul\":1631:1637   */\n  dup3\n    /* \"#utility.yul\":1611:1644   */\n  tag_19\n  jump\t// in\ntag_63:\n    /* \"#utility.yul\":1521:1650   */\n  swap2\n  swap1\n  pop\n  jump\t// out\n    /* \"#utility.yul\":1656:1964   */\ntag_21:\n    /* \"#utility.yul\":1718:1722   */\n  0x00\n    /* \"#utility.yul\":1808:1826   */\n  0xffffffffffffffff\n    /* \"#utility.yul\":1800:1806   */\n  dup3\n    /* \"#utility.yul\":1797:1827   */\n  gt\n    /* \"#utility.yul\":1794:1850   */\n  iszero\n  tag_65\n  jumpi\n    /* \"#utility.yul\":1830:1848   */\n  tag_66\n  tag_18\n  jump\t// in\ntag_66:\n    /* \"#utility.yul\":1794:1850   */\ntag_65:\n    /* \"#utility.yul\":1868:1897   */\n  tag_67\n    /* \"#utility.yul\":1890:1896   */\n  dup3\n    /* \"#utility.yul\":1868:1897   */\n  tag_17\n  jump\t// in\ntag_67:\n    /* \"#utility.yul\":1860:1897   */\n  swap1\n  pop\n    /* \"#utility.yul\":1952:1956   */\n  0x20\n    /* \"#utility.yul\":1946:1950   */\n  dup2\n    /* \"#utility.yul\":1942:1957   */\n  add\n    /* \"#utility.yul\":1934:1957   */\n  swap1\n  pop\n    /* \"#utility.yul\":1656:1964   */\n  swap2\n  swap1\n  pop\n  jump\t// out\n    /* \"#utility.yul\":1970:2216   */\ntag_22:\n    /* \"#utility.yul\":2051:2052   */\n  0x00\n    /* \"#utility.yul\":2061:2174   */\ntag_69:\n    /* \"#utility.yul\":2075:2081   */\n  dup4\n    /* \"#utility.yul\":2072:2073   */\n  dup2\n    /* \"#utility.yul\":2069:2082   */\n  lt\n    /* \"#utility.yul\":2061:2174   */\n  iszero\n  tag_71\n  jumpi\n    /* \"#utility.yul\":2160:2161   */\n  dup1\n    /* \"#utility.yul\":2155:2158   */\n  dup3\n    /* \"#utility.yul\":2151:2162   */\n  add\n    /* \"#utility.yul\":2145:2163   */\n  mload\n    /* \"#utility.yul\":2141:2142   */\n  dup2\n    /* \"#utility.yul\":2136:2139   */\n  dup5\n    /* \"#utility.yul\":2132:2143   */\n  add\n    /* \"#utility.yul\":2125:2164   */\n  mstore\n    /* \"#utility.yul\":2097:2099   */\n  0x20\n    /* \"#utility.yul\":2094:2095   */\n  dup2\n    /* \"#utility.yul\":2090:2100   */\n  add\n    /* \"#utility.yul\":2085:2100   */\n  swap1\n  pop\n    /* \"#utility.yul\":2061:2174   */\n  jump(tag_69)\ntag_71:\n    /* \"#utility.yul\":2208:2209   */\n  0x00\n    /* \"#utility.yul\":2199:2205   */\n  dup5\n    /* \"#utility.yul\":2194:2197   */\n  dup5\n    /* \"#utility.yul\":2190:2206   */\n  add\n    /* \"#utility.yul\":2183:2210   */\n  mstore\n    /* \"#utility.yul\":2032:2216   */\n  pop\n    /* \"#utility.yul\":1970:2216   */\n  pop\n  pop\n  pop\n  jump\t// out\n    /* \"#utility.yul\":2222:2656   */\ntag_23:\n    /* \"#utility.yul\":2311:2316   */\n  0x00\n    /* \"#utility.yul\":2336:2402   */\n  tag_73\n    /* \"#utility.yul\":2352:2401   */\n  tag_74\n    /* \"#utility.yul\":2394:2400   */\n  dup5\n    /* \"#utility.yul\":2352:2401   */\n  tag_21\n  jump\t// in\ntag_74:\n    /* \"#utility.yul\":2336:2402   */\n  tag_20\n  jump\t// in\ntag_73:\n    /* \"#utility.yul\":2327:2402   */\n  swap1\n  pop\n    /* \"#utility.yul\":2425:2431   */\n  dup3\n    /* \"#utility.yul\":2418:2423   */\n  dup2\n    /* \"#utility.yul\":2411:2432   */\n  mstore\n    /* \"#utility.yul\":2463:2467   */\n  0x20\n    /* \"#utility.yul\":2456:2461   */\n  dup2\n    /* \"#utility.yul\":2452:2468   */\n  add\n    /* \"#utility.yul\":2501:2504   */\n  dup5\n    /* \"#utility.yul\":2492:2498   */\n  dup5\n    /* \"#utility.yul\":2487:2490   */\n  dup5\n    /* \"#utility.yul\":2483:2499   */\n  add\n    /* \"#utility.yul\":2480:2505   */\n  gt\n    /* \"#utility.yul\":2477:2589   */\n  iszero\n  tag_75\n  jumpi\n    /* \"#utility.yul\":2508:2587   */\n  tag_76\n  tag_16\n  jump\t// in\ntag_76:\n    /* \"#utility.yul\":2477:2589   */\ntag_75:\n    /* \"#utility.yul\":2598:2650   */\n  tag_77\n    /* \"#utility.yul\":2643:2649   */\n  dup5\n    /* \"#utility.yul\":2638:2641   */\n  dup3\n    /* \"#utility.yul\":2633:2636   */\n  dup6\n    /* \"#utility.yul\":2598:2650   */\n  tag_22\n  jump\t// in\ntag_77:\n    /* \"#utility.yul\":2317:2656   */\n  pop\n    /* \"#utility.yul\":2222:2656   */\n  swap4\n  swap3\n  pop\n  pop\n  pop\n  jump\t// out\n    /* \"#utility.yul\":2676:3031   */\ntag_24:\n    /* \"#utility.yul\":2743:2748   */\n  0x00\n    /* \"#utility.yul\":2792:2795   */\n  dup3\n    /* \"#utility.yul\":2785:2789   */\n  0x1f\n    /* \"#utility.yul\":2777:2783   */\n  dup4\n    /* \"#utility.yul\":2773:2790   */\n  add\n    /* \"#utility.yul\":2769:2796   */\n  slt\n    /* \"#utility.yul\":2759:2881   */\n  tag_79\n  jumpi\n    /* \"#utility.yul\":2800:2879   */\n  tag_80\n  tag_15\n  jump\t// in\ntag_80:\n    /* \"#utility.yul\":2759:2881   */\ntag_79:\n    /* \"#utility.yul\":2910:2916   */\n  dup2\n    /* \"#utility.yul\":2904:2917   */\n  mload\n    /* \"#utility.yul\":2935:3025   */\n  tag_81\n    /* \"#utility.yul\":3021:3024   */\n  dup5\n    /* \"#utility.yul\":3013:3019   */\n  dup3\n    /* \"#utility.yul\":3006:3010   */\n  0x20\n    /* \"#utility.yul\":2998:3004   */\n  dup7\n    /* \"#utility.yul\":2994:3011   */\n  add\n    /* \"#utility.yul\":2935:3025   */\n  tag_23\n  jump\t// in\ntag_81:\n    /* \"#utility.yul\":2926:3025   */\n  swap2\n  pop\n    /* \"#utility.yul\":2749:3031   */\n  pop\n    /* \"#utility.yul\":2676:3031   */\n  swap3\n  swap2\n  pop\n  pop\n  jump\t// out\n    /* \"#utility.yul\":3037:3717   */\ntag_3:\n    /* \"#utility.yul\":3126:3132   */\n  0x00\n    /* \"#utility.yul\":3134:3140   */\n  dup1\n    /* \"#utility.yul\":3183:3185   */\n  0x40\n    /* \"#utility.yul\":3171:3180   */\n  dup4\n    /* \"#utility.yul\":3162:3169   */\n  dup6\n    /* \"#utility.yul\":3158:3181   */\n  sub\n    /* \"#utility.yul\":3154:3186   */\n  slt\n    /* \"#utility.yul\":3151:3270   */\n  iszero\n  tag_83\n  jumpi\n    /* \"#utility.yul\":3189:3268   */\n  tag_84\n  tag_10\n  jump\t// in\ntag_84:\n    /* \"#utility.yul\":3151:3270   */\ntag_83:\n    /* \"#utility.yul\":3309:3310   */\n  0x00\n    /* \"#utility.yul\":3334:3398   */\n  tag_85\n    /* \"#utility.yul\":3390:3397   */\n  dup6\n    /* \"#utility.yul\":3381:3387   */\n  dup3\n    /* \"#utility.yul\":3370:3379   */\n  dup7\n    /* \"#utility.yul\":3366:3388   */\n  add\n    /* \"#utility.yul\":3334:3398   */\n  tag_14\n  jump\t// in\ntag_85:\n    /* \"#utility.yul\":3324:3398   */\n  swap3\n  pop\n    /* \"#utility.yul\":3280:3408   */\n  pop\n    /* \"#utility.yul\":3468:3470   */\n  0x20\n    /* \"#utility.yul\":3457:3466   */\n  dup4\n    /* \"#utility.yul\":3453:3471   */\n  add\n    /* \"#utility.yul\":3447:3472   */\n  mload\n    /* \"#utility.yul\":3499:3517   */\n  0xffffffffffffffff\n    /* \"#utility.yul\":3491:3497   */\n  dup2\n    /* \"#utility.yul\":3488:3518   */\n  gt\n    /* \"#utility.yul\":3485:3602   */\n  iszero\n  tag_86\n  jumpi\n    /* \"#utility.yul\":3521:3600   */\n  tag_87\n  tag_11\n  jump\t// in\ntag_87:\n    /* \"#utility.yul\":3485:3602   */\ntag_86:\n    /* \"#utility.yul\":3626:3700   */\n  tag_88\n    /* \"#utility.yul\":3692:3699   */\n  dup6\n    /* \"#utility.yul\":3683:3689   */\n  dup3\n    /* \"#utility.yul\":3672:3681   */\n  dup7\n    /* \"#utility.yul\":3668:3690   */\n  add\n    /* \"#utility.yul\":3626:3700   */\n  tag_24\n  jump\t// in\ntag_88:\n    /* \"#utility.yul\":3616:3700   */\n  swap2\n  pop\n    /* \"#utility.yul\":3418:3710   */\n  pop\n    /* \"#utility.yul\":3037:3717   */\n  swap3\n  pop\n  swap3\n  swap1\n  pop\n  jump\t// out\n    /* \"#utility.yul\":3723:3822   */\ntag_25:\n    /* \"#utility.yul\":3775:3781   */\n  0x00\n    /* \"#utility.yul\":3809:3814   */\n  dup2\n    /* \"#utility.yul\":3803:3815   */\n  mload\n    /* \"#utility.yul\":3793:3815   */\n  swap1\n  pop\n    /* \"#utility.yul\":3723:3822   */\n  swap2\n  swap1\n  pop\n  jump\t// out\n    /* \"#utility.yul\":3828:4008   */\ntag_26:\n    /* \"#utility.yul\":3876:3953   */\n  0x4e487b7100000000000000000000000000000000000000000000000000000000\n    /* \"#utility.yul\":3873:3874   */\n  0x00\n    /* \"#utility.yul\":3866:3954   */\n  mstore\n    /* \"#utility.yul\":3973:3977   */\n  0x22\n    /* \"#utility.yul\":3970:3971   */\n  0x04\n    /* \"#utility.yul\":3963:3978   */\n  mstore\n    /* \"#utility.yul\":3997:4001   */\n  0x24\n    /* \"#utility.yul\":3994:3995   */\n  0x00\n    /* \"#utility.yul\":3987:4002   */\n  revert\n    /* \"#utility.yul\":4014:4334   */\ntag_27:\n    /* \"#utility.yul\":4058:4064   */\n  0x00\n    /* \"#utility.yul\":4095:4096   */\n  0x02\n    /* \"#utility.yul\":4089:4093   */\n  dup3\n    /* \"#utility.yul\":4085:4097   */\n  div\n    /* \"#utility.yul\":4075:4097   */\n  swap1\n  pop\n    /* \"#utility.yul\":4142:4143   */\n  0x01\n    /* \"#utility.yul\":4136:4140   */\n  dup3\n    /* \"#utility.yul\":4132:4144   */\n  and\n    /* \"#utility.yul\":4163:4181   */\n  dup1\n    /* \"#utility.yul\":4153:4234   */\n  tag_92\n  jumpi\n    /* \"#utility.yul\":4219:4223   */\n  0x7f\n    /* \"#utility.yul\":4211:4217   */\n  dup3\n    /* \"#utility.yul\":4207:4224   */\n  and\n    /* \"#utility.yul\":4197:4224   */\n  swap2\n  pop\n    /* \"#utility.yul\":4153:4234   */\ntag_92:\n    /* \"#utility.yul\":4281:4283   */\n  0x20\n    /* \"#utility.yul\":4273:4279   */\n  dup3\n    /* \"#utility.yul\":4270:4284   */\n  lt\n    /* \"#utility.yul\":4250:4268   */\n  dup2\n    /* \"#utility.yul\":4247:4285   */\n  sub\n    /* \"#utility.yul\":4244:4328   */\n  tag_93\n  jumpi\n    /* \"#utility.yul\":4300:4318   */\n  tag_94\n  tag_26\n  jump\t// in\ntag_94:\n    /* \"#utility.yul\":4244:4328   */\ntag_93:\n    /* \"#utility.yul\":4065:4334   */\n  pop\n    /* \"#utility.yul\":4014:4334   */\n  swap2\n  swap1\n  pop\n  jump\t// out\n    /* \"#utility.yul\":4340:4481   */\ntag_28:\n    /* \"#utility.yul\":4389:4393   */\n  0x00\n    /* \"#utility.yul\":4412:4415   */\n  dup2\n    /* \"#utility.yul\":4404:4415   */\n  swap1\n  pop\n    /* \"#utility.yul\":4435:4438   */\n  dup2\n    /* \"#utility.yul\":4432:4433   */\n  0x00\n    /* \"#utility.yul\":4425:4439   */\n  mstore\n    /* \"#utility.yul\":4469:4473   */\n  0x20\n    /* \"#utility.yul\":4466:4467   */\n  0x00\n    /* \"#utility.yul\":4456:4474   */\n  keccak256\n    /* \"#utility.yul\":4448:4474   */\n  swap1\n  pop\n    /* \"#utility.yul\":4340:4481   */\n  swap2\n  swap1\n  pop\n  jump\t// out\n    /* \"#utility.yul\":4487:4580   */\ntag_29:\n    /* \"#utility.yul\":4524:4530   */\n  0x00\n    /* \"#utility.yul\":4571:4573   */\n  0x20\n    /* \"#utility.yul\":4566:4568   */\n  0x1f\n    /* \"#utility.yul\":4559:4564   */\n  dup4\n    /* \"#utility.yul\":4555:4569   */\n  add\n    /* \"#utility.yul\":4551:4574   */\n  div\n    /* \"#utility.yul\":4541:4574   */\n  swap1\n  pop\n    /* \"#utility.yul\":4487:4580   */\n  swap2\n  swap1\n  pop\n  jump\t// out\n    /* \"#utility.yul\":4586:4693   */\ntag_30:\n    /* \"#utility.yul\":4630:4638   */\n  0x00\n    /* \"#utility.yul\":4680:4685   */\n  dup3\n    /* \"#utility.yul\":4674:4678   */\n  dup3\n    /* \"#utility.yul\":4670:4686   */\n  shl\n    /* \"#utility.yul\":4649:4686   */\n  swap1\n  pop\n    /* \"#utility.yul\":4586:4693   */\n  swap3\n  swap2\n  pop\n  pop\n  jump\t// out\n    /* \"#utility.yul\":4699:5092   */\ntag_31:\n    /* \"#utility.yul\":4768:4774   */\n  0x00\n    /* \"#utility.yul\":4818:4819   */\n  0x08\n    /* \"#utility.yul\":4806:4816   */\n  dup4\n    /* \"#utility.yul\":4802:4820   */\n  mul\n    /* \"#utility.yul\":4841:4938   */\n  tag_99\n    /* \"#utility.yul\":4871:4937   */\n  0xffffffffffffffffffffffffffffffffffffffffffffffffffffffffffffffff\n    /* \"#utility.yul\":4860:4869   */\n  dup3\n    /* \"#utility.yul\":4841:4938   */\n  tag_30\n  jump\t// in\ntag_99:\n    /* \"#utility.yul\":4959:4998   */\n  tag_100\n    /* \"#utility.yul\":4989:4997   */\n  dup7\n    /* \"#utility.yul\":4978:4987   */\n  dup4\n    /* \"#utility.yul\":4959:4998   */\n  tag_30\n  jump\t// in\ntag_100:\n    /* \"#utility.yul\":4947:4998   */\n  swap6\n  pop\n    /* \"#utility.yul\":5031:5035   */\n  dup1\n    /* \"#utility.yul\":5027:5036   */\n  not\n    /* \"#utility.yul\":5020:5025   */\n  dup5\n    /* \"#utility.yul\":5016:5037   */\n  and\n    /* \"#utility.yul\":5007:5037   */\n  swap4\n  pop\n    /* \"#utility.yul\":5080:5084   */\n  dup1\n    /* \"#utility.yul\":5070:5078   */\n  dup7\n    /* \"#utility.yul\":5066:5085   */\n  and\n    /* \"#utility.yul\":5059:5064   */\n  dup5\n    /* \"#utility.yul\":5056:5086   */\n  or\n    /* \"#utility.yul\":5046:5086   */\n  swap3\n  pop\n    /* \"#utility.yul\":4775:5092   */\n  pop\n  pop\n    /* \"#utility.yul\":4699:5092   */\n  swap4\n  swap3\n  pop\n  pop\n  pop\n  jump\t// out\n    /* \"#utility.yul\":5098:5158   */\ntag_32:\n    /* \"#utility.yul\":5126:5129   */\n  0x00\n    /* \"#utility.yul\":5147:5152   */\n  dup2\n    /* \"#utility.yul\":5140:5152   */\n  swap1\n  pop\n    /* \"#utility.yul\":5098:5158   */\n  swap2\n  swap1\n  pop\n  jump\t// out\n    /* \"#utility.yul\":5164:5306   */\ntag_33:\n    /* \"#utility.yul\":5214:5223   */\n  0x00\n    /* \"#utility.yul\":5247:5300   */\n  tag_103\n    /* \"#utility.yul\":5265:5299   */\n  tag_104\n    /* \"#utility.yul\":5274:5298   */\n  tag_105\n    /* \"#utility.yul\":5292:5297   */\n  dup5\n    /* \"#utility.yul\":5274:5298   */\n  tag_12\n  jump\t// in\ntag_105:\n    /* \"#utility.yul\":5265:5299   */\n  tag_32\n  jump\t// in\ntag_104:\n    /* \"#utility.yul\":5247:5300   */\n  tag_12\n  jump\t// in\ntag_103:\n    /* \"#utility.yul\":5234:5300   */\n  swap1\n  pop\n    /* \"#utility.yul\":5164:5306   */\n  swap2\n  swap1\n  pop\n  jump\t// out\n    /* \"#utility.yul\":5312:5387   */\ntag_34:\n    /* \"#utility.yul\":5355:5358   */\n  0x00\n    /* \"#utility.yul\":5376:5381   */\n  dup2\n    /* \"#utility.yul\":5369:5381   */\n  swap1\n  pop\n    /* \"#utility.yul\":5312:5387   */\n  swap2\n  swap1\n  pop\n  jump\t// out\n    /* \"#utility.yul\":5393:5662   */\ntag_35:\n    /* \"#utility.yul\":5503:5542   */\n  tag_108\n    /* \"#utility.yul\":5534:5541   */\n  dup4\n    /* \"#utility.yul\":5503:5542   */\n  tag_33\n  jump\t// in\ntag_108:\n    /* \"#utility.yul\":5564:5655   */\n  tag_109\n    /* \"#utility.yul\":5613:5654   */\n  tag_110\n    /* \"#utility.yul\":5637:5653   */\n  dup3\n    /* \"#utility.yul\":5613:5654   */\n  tag_34\n  jump\t// in\ntag_110:\n    /* \"#utility.yul\":5605:5611   */\n  dup5\n    /* \"#utility.yul\":5598:5602   */\n  dup5\n    /* \"#utility.yul\":5592:5603   */\n  sload\n    /* \"#utility.yul\":5564:5655   */\n  tag_31\n  jump\t// in\ntag_109:\n    /* \"#utility.yul\":5558:5562   */\n  dup3\n    /* \"#utility.yul\":5551:5656   */\n  sstore\n    /* \"#utility.yul\":5469:5662   */\n  pop\n    /* \"#utility.yul\":5393:5662   */\n  pop\n  pop\n  pop\n  jump\t// out\n    /* \"#utility.yul\":5668:5741   */\ntag_36:\n    /* \"#utility.yul\":5713:5716   */\n  0x00\n    /* \"#utility.yul\":5668:5741   */\n  swap1\n  jump\t// out\n    /* \"#utility.yul\":5747:5936   */\ntag_37:\n    /* \"#utility.yul\":5824:5856   */\n  tag_113\n  tag_36\n  jump\t// in\ntag_113:\n    /* \"#utility.yul\":5865:5930   */\n  tag_114\n    /* \"#utility.yul\":5923:5929   */\n  dup2\n    /* \"#utility.yul\":5915:5921   */\n  dup5\n    /* \"#utility.yul\":5909:5913   */\n  dup5\n    /* \"#utility.yul\":5865:5930   */\n  tag_35\n  jump\t// in\ntag_114:\n    /* \"#utility.yul\":5800:5936   */\n  pop\n    /* \"#utility.yul\":5747:5936   */\n  pop\n  pop\n  jump\t// out\n    /* \"#utility.yul\":5942:6128   */\ntag_38:\n    /* \"#utility.yul\":6002:6122   */\ntag_116:\n    /* \"#utility.yul\":6019:6022   */\n  dup2\n    /* \"#utility.yul\":6012:6017   */\n  dup2\n    /* \"#utility.yul\":6009:6023   */\n  lt\n    /* \"#utility.yul\":6002:6122   */\n  iszero\n  tag_118\n  jumpi\n    /* \"#utility.yul\":6073:6112   */\n  tag_119\n    /* \"#utility.yul\":6110:6111   */\n  0x00\n    /* \"#utility.yul\":6103:6108   */\n  dup3\n    /* \"#utility.yul\":6073:6112   */\n  tag_37\n  jump\t// in\ntag_119:\n    /* \"#utility.yul\":6046:6047   */\n  0x01\n    /* \"#utility.yul\":6039:6044   */\n  dup2\n    /* \"#utility.yul\":6035:6048   */\n  add\n    /* \"#utility.yul\":6026:6048   */\n  swap1\n  pop\n    /* \"#utility.yul\":6002:6122   */\n  jump(tag_116)\ntag_118:\n    /* \"#utility.yul\":5942:6128   */\n  pop\n  pop\n  jump\t// out\n    /* \"#utility.yul\":6134:6677   */\ntag_39:\n    /* \"#utility.yul\":6235:6237   */\n  0x1f\n    /* \"#utility.yul\":6230:6233   */\n  dup3\n    /* \"#utility.yul\":6227:6238   */\n  gt\n    /* \"#utility.yul\":6224:6670   */\n  iszero\n  tag_121\n  jumpi\n    /* \"#utility.yul\":6269:6307   */\n  tag_122\n    /* \"#utility.yul\":6301:6306   */\n  dup2\n    /* \"#utility.yul\":6269:6307   */\n  tag_28\n  jump\t// in\ntag_122:\n    /* \"#utility.yul\":6353:6382   */\n  tag_123\n    /* \"#utility.yul\":6371:6381   */\n  dup5\n    /* \"#utility.yul\":6353:6382   */\n  tag_29\n  jump\t// in\ntag_123:\n    /* \"#utility.yul\":6343:6351   */\n  dup2\n    /* \"#utility.yul\":6339:6383   */\n  add\n    /* \"#utility.yul\":6536:6538   */\n  0x20\n    /* \"#utility.yul\":6524:6534   */\n  dup6\n    /* \"#utility.yul\":6521:6539   */\n  lt\n    /* \"#utility.yul\":6518:6567   */\n  iszero\n  tag_124\n  jumpi\n    /* \"#utility.yul\":6557:6565   */\n  dup2\n    /* \"#utility.yul\":6542:6565   */\n  swap1\n  pop\n    /* \"#utility.yul\":6518:6567   */\ntag_124:\n    /* \"#utility.yul\":6580:6660   */\n  tag_125\n    /* \"#utility.yul\":6636:6658   */\n  tag_126\n    /* \"#utility.yul\":6654:6657   */\n  dup6\n    /* \"#utility.yul\":6636:6658   */\n  tag_29\n  jump\t// in\ntag_126:\n    /* \"#utility.yul\":6626:6634   */\n  dup4\n    /* \"#utility.yul\":6622:6659   */\n  add\n    /* \"#utility.yul\":6609:6620   */\n  dup3\n    /* \"#utility.yul\":6580:6660   */\n  tag_38\n  jump\t// in\ntag_125:\n    /* \"#utility.yul\":6239:6670   */\n  pop\n  pop\n    /* \"#utility.yul\":6224:6670   */\ntag_121:\n    /* \"#utility.yul\":6134:6677   */\n  pop\n  pop\n  pop\n  jump\t// out\n    /* \"#utility.yul\":6683:6800   */\ntag_40:\n    /* \"#utility.yul\":6737:6745   */\n  0x00\n    /* \"#utility.yul\":6787:6792   */\n  dup3\n    /* \"#utility.yul\":6781:6785   */\n  dup3\n    /* \"#utility.yul\":6777:6793   */\n  shr\n    /* \"#utility.yul\":6756:6793   */\n  swap1\n  pop\n    /* \"#utility.yul\":6683:6800   */\n  swap3\n  swap2\n  pop\n  pop\n  jump\t// out\n    /* \"#utility.yul\":6806:6975   */\ntag_41:\n    /* \"#utility.yul\":6850:6856   */\n  0x00\n    /* \"#utility.yul\":6883:6934   */\n  tag_129\n    /* \"#utility.yul\":6931:6932   */\n  0x00\n    /* \"#utility.yul\":6927:6933   */\n  not\n    /* \"#utility.yul\":6919:6924   */\n  dup5\n    /* \"#utility.yul\":6916:6917   */\n  0x08\n    /* \"#utility.yul\":6912:6925   */\n  mul\n    /* \"#utility.yul\":6883:6934   */\n  tag_40\n  jump\t// in\ntag_129:\n    /* \"#utility.yul\":6879:6935   */\n  not\n    /* \"#utility.yul\":6964:6968   */\n  dup1\n    /* \"#utility.yul\":6958:6962   */\n  dup4\n    /* \"#utility.yul\":6954:6969   */\n  and\n    /* \"#utility.yul\":6944:6969   */\n  swap2\n  pop\n    /* \"#utility.yul\":6857:6975   */\n  pop\n    /* \"#utility.yul\":6806:6975   */\n  swap3\n  swap2\n  pop\n  pop\n  jump\t// out\n    /* \"#utility.yul\":6980:7275   */\ntag_42:\n    /* \"#utility.yul\":7056:7060   */\n  0x00\n    /* \"#utility.yul\":7202:7231   */\n  tag_131\n    /* \"#utility.yul\":7227:7230   */\n  dup4\n    /* \"#utility.yul\":7221:7225   */\n  dup4\n    /* \"#utility.yul\":7202:7231   */\n  tag_41\n  jump\t// in\ntag_131:\n    /* \"#utility.yul\":7194:7231   */\n  swap2\n  pop\n    /* \"#utility.yul\":7264:7267   */\n  dup3\n    /* \"#utility.yul\":7261:7262   */\n  0x02\n    /* \"#utility.yul\":7257:7268   */\n  mul\n    /* \"#utility.yul\":7251:7255   */\n  dup3\n    /* \"#utility.yul\":7248:7269   */\n  or\n    /* \"#utility.yul\":7240:7269   */\n  swap1\n  pop\n    /* \"#utility.yul\":6980:7275   */\n  swap3\n  swap2\n  pop\n  pop\n  jump\t// out\n    /* \"#utility.yul\":7280:8675   */\ntag_7:\n    /* \"#utility.yul\":7397:7434   */\n  tag_133\n    /* \"#utility.yul\":7430:7433   */\n  dup3\n    /* \"#utility.yul\":7397:7434   */\n  tag_25\n  jump\t// in\ntag_133:\n    /* \"#utility.yul\":7499:7517   */\n  0xffffffffffffffff\n    /* \"#utility.yul\":7491:7497   */\n  dup2\n    /* \"#utility.yul\":7488:7518   */\n  gt\n    /* \"#utility.yul\":7485:7541   */\n  iszero\n  tag_134\n  jumpi\n    /* \"#utility.yul\":7521:7539   */\n  tag_135\n  tag_18\n  jump\t// in\ntag_135:\n    /* \"#utility.yul\":7485:7541   */\ntag_134:\n    /* \"#utility.yul\":7565:7603   */\n  tag_136\n    /* \"#utility.yul\":7597:7601   */\n  dup3\n    /* \"#utility.yul\":7591:7602   */\n  sload\n    /* \"#utility.yul\":7565:7603   */\n  tag_27\n  jump\t// in\ntag_136:\n    /* \"#utility.yul\":7650:7717   */\n  tag_137\n    /* \"#utility.yul\":7710:7716   */\n  dup3\n    /* \"#utility.yul\":7702:7708   */\n  dup3\n    /* \"#utility.yul\":7696:7700   */\n  dup6\n    /* \"#utility.yul\":7650:7717   */\n  tag_39\n  jump\t// in\ntag_137:\n    /* \"#utility.yul\":7744:7745   */\n  0x00\n    /* \"#utility.yul\":7768:7772   */\n  0x20\n    /* \"#utility.yul\":7755:7772   */\n  swap1\n  pop\n    /* \"#utility.yul\":7800:7802   */\n  0x1f\n    /* \"#utility.yul\":7792:7798   */\n  dup4\n    /* \"#utility.yul\":7789:7803   */\n  gt\n    /* \"#utility.yul\":7817:7818   */\n  0x01\n    /* \"#utility.yul\":7812:8430   */\n  dup2\n  eq\n  tag_139\n  jumpi\n    /* \"#utility.yul\":8474:8475   */\n  0x00\n    /* \"#utility.yul\":8491:8497   */\n  dup5\n    /* \"#utility.yul\":8488:8565   */\n  iszero\n  tag_140\n  jumpi\n    /* \"#utility.yul\":8540:8549   */\n  dup3\n    /* \"#utility.yul\":8535:8538   */\n  dup8\n    /* \"#utility.yul\":8531:8550   */\n  add\n    /* \"#utility.yul\":8525:8551   */\n  mload\n    /* \"#utility.yul\":8516:8551   */\n  swap1\n  pop\n    /* \"#utility.yul\":8488:8565   */\ntag_140:\n    /* \"#utility.yul\":8591:8658   */\n  tag_141\n    /* \"#utility.yul\":8651:8657   */\n  dup6\n    /* \"#utility.yul\":8644:8649   */\n  dup3\n    /* \"#utility.yul\":8591:8658   */\n  tag_42\n  jump\t// in\ntag_141:\n    /* \"#utility.yul\":8585:8589   */\n  dup7\n    /* \"#utility.yul\":8578:8659   */\n  sstore\n    /* \"#utility.yul\":8447:8669   */\n  pop\n    /* \"#utility.yul\":7782:8669   */\n  jump(tag_138)\n    /* \"#utility.yul\":7812:8430   */\ntag_139:\n    /* \"#utility.yul\":7864:7868   */\n  0x1f\n    /* \"#utility.yul\":7860:7869   */\n  not\n    /* \"#utility.yul\":7852:7858   */\n  dup5\n    /* \"#utility.yul\":7848:7870   */\n  and\n    /* \"#utility.yul\":7898:7935   */\n  tag_142\n    /* \"#utility.yul\":7930:7934   */\n  dup7\n    /* \"#utility.yul\":7898:7935   */\n  tag_28\n  jump\t// in\ntag_142:\n    /* \"#utility.yul\":7957:7958   */\n  0x00\n    /* \"#utility.yul\":7971:8179   */\ntag_143:\n    /* \"#utility.yul\":7985:7992   */\n  dup3\n    /* \"#utility.yul\":7982:7983   */\n  dup2\n    /* \"#utility.yul\":7979:7993   */\n  lt\n    /* \"#utility.yul\":7971:8179   */\n  iszero\n  tag_145\n  jumpi\n    /* \"#utility.yul\":8064:8073   */\n  dup5\n    /* \"#utility.yul\":8059:8062   */\n  dup10\n    /* \"#utility.yul\":8055:8074   */\n  add\n    /* \"#utility.yul\":8049:8075   */\n  mload\n    /* \"#utility.yul\":8041:8047   */\n  dup3\n    /* \"#utility.yul\":8034:8076   */\n  sstore\n    /* \"#utility.yul\":8115:8116   */\n  0x01\n    /* \"#utility.yul\":8107:8113   */\n  dup3\n    /* \"#utility.yul\":8103:8117   */\n  add\n    /* \"#utility.yul\":8093:8117   */\n  swap2\n  pop\n    /* \"#utility.yul\":8162:8164   */\n  0x20\n    /* \"#utility.yul\":8151:8160   */\n  dup6\n    /* \"#utility.yul\":8147:8165   */\n  add\n    /* \"#utility.yul\":8134:8165   */\n  swap5\n  pop\n    /* \"#utility.yul\":8008:8012   */\n  0x20\n    /* \"#utility.yul\":8005:8006   */\n  dup2\n    /* \"#utility.yul\":8001:8013   */\n  add\n    /* \"#utility.yul\":7996:8013   */\n  swap1\n  pop\n    /* \"#utility.yul\":7971:8179   */\n  jump(tag_143)\ntag_145:\n    /* \"#utility.yul\":8207:8213   */\n  dup7\n    /* \"#utility.yul\":8198:8205   */\n  dup4\n    /* \"#utility.yul\":8195:8214   */\n  lt\n    /* \"#utility.yul\":8192:8371   */\n  iszero\n  tag_146\n  jumpi\n    /* \"#utility.yul\":8265:8274   */\n  dup5\n    /* \"#utility.yul\":8260:8263   */\n  dup10\n    /* \"#utility.yul\":8256:8275   */\n  add\n    /* \"#utility.yul\":8250:8276   */\n  mload\n    /* \"#utility.yul\":8308:8356   */\n  tag_147\n    /* \"#utility.yul\":8350:8354   */\n  0x1f\n    /* \"#utility.yul\":8342:8348   */\n  dup10\n    /* \"#utility.yul\":8338:8355   */\n  and\n    /* \"#utility.yul\":8327:8336   */\n  dup3\n    /* \"#utility.yul\":8308:8356   */\n  tag_41\n  jump\t// in\ntag_147:\n    /* \"#utility.yul\":8300:8306   */\n  dup4\n    /* \"#utility.yul\":8293:8357   */\n  sstore\n    /* \"#utility.yul\":8215:8371   */\n  pop\n    /* \"#utility.yul\":8192:8371   */\ntag_146:\n    /* \"#utility.yul\":8417:8418   */\n  0x01\n    /* \"#utility.yul\":8413:8414   */\n  0x02\n    /* \"#utility.yul\":8405:8411   */\n  dup9\n    /* \"#utility.yul\":8401:8415   */\n  mul\n    /* \"#utility.yul\":8397:8419   */\n  add\n    /* \"#utility.yul\":8391:8395   */\n  dup9\n    /* \"#utility.yul\":8384:8420   */\n  sstore\n    /* \"#utility.yul\":7819:8430   */\n  pop\n  pop\n  pop\n    /* \"#utility.yul\":7782:8669   */\ntag_138:\n  pop\n    /* \"#utility.yul\":7372:8675   */\n  pop\n  pop\n  pop\n    /* \"#utility.yul\":7280:8675   */\n  pop\n  pop\n  jump\t// out\n    /* \"contracts/StructsAndEnums.sol\":208:563  contract Academy {... */\ntag_8:\n  dataSize(sub_0)\n  dup1\n  dataOffset(sub_0)\n  0x00\n  codecopy\n  0x00\n  return\nstop\n\nsub_0: assembly {\n        /* \"contracts/StructsAndEnums.sol\":208:563  contract Academy {... */\n      mstore(0x40, 0x80)\n      callvalue\n      dup1\n      iszero\n      tag_1\n      jumpi\n      0x00\n      dup1\n      revert\n    tag_1:\n      pop\n      jumpi(tag_2, lt(calldatasize, 0x04))\n      shr(0xe0, calldataload(0x00))\n      dup1\n      0x54248841\n      eq\n      tag_3\n      jumpi\n      dup1\n      0xa46878fb\n      eq\n      tag_4\n      jumpi\n    tag_2:\n      0x00\n      dup1\n      revert\n        /* \"contracts/StructsAndEnums.sol\":232:267  Instructor public academyInstructor */\n    tag_3:\n      tag_5\n      tag_6\n      jump\t// in\n    tag_5:\n      mload(0x40)\n      tag_7\n      swap4\n      swap3\n      swap2\n      swap1\n      tag_8\n      jump\t// in\n    tag_7:\n      mload(0x40)\n      dup1\n      swap2\n      sub\n      swap1\n      return\n        /* \"contracts/StructsAndEnums.sol\":462:560  function changeInstructor(uint _age, string memory _name, address _addr) public {... */\n    tag_4:\n      tag_9\n      0x04\n      dup1\n      calldatasize\n      sub\n      dup2\n      add\n      swap1\n      tag_10\n      swap2\n      swap1\n      tag_11\n      jump\t// in\n    tag_10:\n      tag_12\n      jump\t// in\n    tag_9:\n      stop\n        /* \"contracts/StructsAndEnums.sol\":232:267  Instructor public academyInstructor */\n    tag_6:\n      0x00\n      dup1\n      0x00\n      add\n      sload\n      swap1\n      dup1\n      0x01\n      add\n      dup1\n      sload\n      tag_13\n      swap1\n      tag_14\n      jump\t// in\n    tag_13:\n      dup1\n      0x1f\n      add\n      0x20\n      dup1\n      swap2\n      div\n      mul\n      0x20\n      add\n      mload(0x40)\n      swap1\n      dup2\n      add\n      0x40\n      mstore\n      dup1\n      swap3\n      swap2\n      swap1\n      dup2\n      dup2\n      mstore\n      0x20\n      add\n      dup3\n      dup1\n      sload\n      tag_15\n      swap1\n      tag_14\n      jump\t// in\n    tag_15:\n      dup1\n      iszero\n      tag_16\n      jumpi\n      dup1\n      0x1f\n      lt\n      tag_17\n      jumpi\n      0x0100\n      dup1\n      dup4\n      sload\n      div\n      mul\n      dup4\n      mstore\n      swap2\n      0x20\n      add\n      swap2\n      jump(tag_16)\n    tag_17:\n      dup3\n      add\n      swap2\n      swap1\n      0x00\n      mstore\n      keccak256(0x00, 0x20)\n      swap1\n    tag_18:\n      dup2\n      sload\n      dup2\n      mstore\n      swap1\n      0x01\n      add\n      swap1\n      0x20\n      add\n      dup1\n      dup4\n      gt\n      tag_18\n      jumpi\n      dup3\n      swap1\n      sub\n      0x1f\n      and\n      dup3\n      add\n      swap2\n    tag_16:\n      pop\n      pop\n      pop\n      pop\n      pop\n      swap1\n      dup1\n      0x02\n      add\n      0x00\n      swap1\n      sload\n      swap1\n      0x0100\n      exp\n      swap1\n      div\n      0xffffffffffffffffffffffffffffffffffffffff\n      and\n      swap1\n      pop\n      dup4\n      jump\t// out\n        /* \"contracts/StructsAndEnums.sol\":462:560  function changeInstructor(uint _age, string memory _name, address _addr) public {... */\n    tag_12:\n      pop\n      pop\n      pop\n      jump\t// out\n        /* \"#utility.yul\":7:84   */\n    tag_20:\n        /* \"#utility.yul\":44:51   */\n      0x00\n        /* \"#utility.yul\":73:78   */\n      dup2\n        /* \"#utility.yul\":62:78   */\n      swap1\n      pop\n        /* \"#utility.yul\":7:84   */\n      swap2\n      swap1\n      pop\n      jump\t// out\n        /* \"#utility.yul\":90:208   */\n    tag_21:\n        /* \"#utility.yul\":177:201   */\n      tag_50\n        /* \"#utility.yul\":195:200   */\n      dup2\n        /* \"#utility.yul\":177:201   */\n      tag_20\n      jump\t// in\n    tag_50:\n        /* \"#utility.yul\":172:175   */\n      dup3\n        /* \"#utility.yul\":165:202   */\n      mstore\n        /* \"#utility.yul\":90:208   */\n      pop\n      pop\n      jump\t// out\n        /* \"#utility.yul\":214:313   */\n    tag_22:\n        /* \"#utility.yul\":266:272   */\n      0x00\n        /* \"#utility.yul\":300:305   */\n      dup2\n        /* \"#utility.yul\":294:306   */\n      mload\n        /* \"#utility.yul\":284:306   */\n      swap1\n      pop\n        /* \"#utility.yul\":214:313   */\n      swap2\n      swap1\n      pop\n      jump\t// out\n        /* \"#utility.yul\":319:488   */\n    tag_23:\n        /* \"#utility.yul\":403:414   */\n      0x00\n        /* \"#utility.yul\":437:443   */\n      dup3\n        /* \"#utility.yul\":432:435   */\n      dup3\n        /* \"#utility.yul\":425:444   */\n      mstore\n        /* \"#utility.yul\":477:481   */\n      0x20\n        /* \"#utility.yul\":472:475   */\n      dup3\n        /* \"#utility.yul\":468:482   */\n      add\n        /* \"#utility.yul\":453:482   */\n      swap1\n      pop\n        /* \"#utility.yul\":319:488   */\n      swap3\n      swap2\n      pop\n      pop\n      jump\t// out\n        /* \"#utility.yul\":494:740   */\n    tag_24:\n        /* \"#utility.yul\":575:576   */\n      0x00\n        /* \"#utility.yul\":585:698   */\n    tag_54:\n        /* \"#utility.yul\":599:605   */\n      dup4\n        /* \"#utility.yul\":596:597   */\n      dup2\n        /* \"#utility.yul\":593:606   */\n      lt\n        /* \"#utility.yul\":585:698   */\n      iszero\n      tag_56\n      jumpi\n        /* \"#utility.yul\":684:685   */\n      dup1\n        /* \"#utility.yul\":679:682   */\n      dup3\n        /* \"#utility.yul\":675:686   */\n      add\n        /* \"#utility.yul\":669:687   */\n      mload\n        /* \"#utility.yul\":665:666   */\n      dup2\n        /* \"#utility.yul\":660:663   */\n      dup5\n        /* \"#utility.yul\":656:667   */\n      add\n        /* \"#utility.yul\":649:688   */\n      mstore\n        /* \"#utility.yul\":621:623   */\n      0x20\n        /* \"#utility.yul\":618:619   */\n      dup2\n        /* \"#utility.yul\":614:624   */\n      add\n        /* \"#utility.yul\":609:624   */\n      swap1\n      pop\n        /* \"#utility.yul\":585:698   */\n      jump(tag_54)\n    tag_56:\n        /* \"#utility.yul\":732:733   */\n      0x00\n        /* \"#utility.yul\":723:729   */\n      dup5\n        /* \"#utility.yul\":718:721   */\n      dup5\n        /* \"#utility.yul\":714:730   */\n      add\n        /* \"#utility.yul\":707:734   */\n      mstore\n        /* \"#utility.yul\":556:740   */\n      pop\n        /* \"#utility.yul\":494:740   */\n      pop\n      pop\n      pop\n      jump\t// out\n        /* \"#utility.yul\":746:848   */\n    tag_25:\n        /* \"#utility.yul\":787:793   */\n      0x00\n        /* \"#utility.yul\":838:840   */\n      0x1f\n        /* \"#utility.yul\":834:841   */\n      not\n        /* \"#utility.yul\":829:831   */\n      0x1f\n        /* \"#utility.yul\":822:827   */\n      dup4\n        /* \"#utility.yul\":818:832   */\n      add\n        /* \"#utility.yul\":814:842   */\n      and\n        /* \"#utility.yul\":804:842   */\n      swap1\n      pop\n        /* \"#utility.yul\":746:848   */\n      swap2\n      swap1\n      pop\n      jump\t// out\n        /* \"#utility.yul\":854:1231   */\n    tag_26:\n        /* \"#utility.yul\":942:945   */\n      0x00\n        /* \"#utility.yul\":970:1009   */\n      tag_59\n        /* \"#utility.yul\":1003:1008   */\n      dup3\n        /* \"#utility.yul\":970:1009   */\n      tag_22\n      jump\t// in\n    tag_59:\n        /* \"#utility.yul\":1025:1096   */\n      tag_60\n        /* \"#utility.yul\":1089:1095   */\n      dup2\n        /* \"#utility.yul\":1084:1087   */\n      dup6\n        /* \"#utility.yul\":1025:1096   */\n      tag_23\n      jump\t// in\n    tag_60:\n        /* \"#utility.yul\":1018:1096   */\n      swap4\n      pop\n        /* \"#utility.yul\":1105:1170   */\n      tag_61\n        /* \"#utility.yul\":1163:1169   */\n      dup2\n        /* \"#utility.yul\":1158:1161   */\n      dup6\n        /* \"#utility.yul\":1151:1155   */\n      0x20\n        /* \"#utility.yul\":1144:1149   */\n      dup7\n        /* \"#utility.yul\":1140:1156   */\n      add\n        /* \"#utility.yul\":1105:1170   */\n      tag_24\n      jump\t// in\n    tag_61:\n        /* \"#utility.yul\":1195:1224   */\n      tag_62\n        /* \"#utility.yul\":1217:1223   */\n      dup2\n        /* \"#utility.yul\":1195:1224   */\n      tag_25\n      jump\t// in\n    tag_62:\n        /* \"#utility.yul\":1190:1193   */\n      dup5\n        /* \"#utility.yul\":1186:1225   */\n      add\n        /* \"#utility.yul\":1179:1225   */\n      swap2\n      pop\n        /* \"#utility.yul\":946:1231   */\n      pop\n        /* \"#utility.yul\":854:1231   */\n      swap3\n      swap2\n      pop\n      pop\n      jump\t// out\n        /* \"#utility.yul\":1237:1363   */\n    tag_27:\n        /* \"#utility.yul\":1274:1281   */\n      0x00\n        /* \"#utility.yul\":1314:1356   */\n      0xffffffffffffffffffffffffffffffffffffffff\n        /* \"#utility.yul\":1307:1312   */\n      dup3\n        /* \"#utility.yul\":1303:1357   */\n      and\n        /* \"#utility.yul\":1292:1357   */\n      swap1\n      pop\n        /* \"#utility.yul\":1237:1363   */\n      swap2\n      swap1\n      pop\n      jump\t// out\n        /* \"#utility.yul\":1369:1465   */\n    tag_28:\n        /* \"#utility.yul\":1406:1413   */\n      0x00\n        /* \"#utility.yul\":1435:1459   */\n      tag_65\n        /* \"#utility.yul\":1453:1458   */\n      dup3\n        /* \"#utility.yul\":1435:1459   */\n      tag_27\n      jump\t// in\n    tag_65:\n        /* \"#utility.yul\":1424:1459   */\n      swap1\n      pop\n        /* \"#utility.yul\":1369:1465   */\n      swap2\n      swap1\n      pop\n      jump\t// out\n        /* \"#utility.yul\":1471:1589   */\n    tag_29:\n        /* \"#utility.yul\":1558:1582   */\n      tag_67\n        /* \"#utility.yul\":1576:1581   */\n      dup2\n        /* \"#utility.yul\":1558:1582   */\n      tag_28\n      jump\t// in\n    tag_67:\n        /* \"#utility.yul\":1553:1556   */\n      dup3\n        /* \"#utility.yul\":1546:1583   */\n      mstore\n        /* \"#utility.yul\":1471:1589   */\n      pop\n      pop\n      jump\t// out\n        /* \"#utility.yul\":1595:2128   */\n    tag_8:\n        /* \"#utility.yul\":1764:1768   */\n      0x00\n        /* \"#utility.yul\":1802:1804   */\n      0x60\n        /* \"#utility.yul\":1791:1800   */\n      dup3\n        /* \"#utility.yul\":1787:1805   */\n      add\n        /* \"#utility.yul\":1779:1805   */\n      swap1\n      pop\n        /* \"#utility.yul\":1815:1886   */\n      tag_69\n        /* \"#utility.yul\":1883:1884   */\n      0x00\n        /* \"#utility.yul\":1872:1881   */\n      dup4\n        /* \"#utility.yul\":1868:1885   */\n      add\n        /* \"#utility.yul\":1859:1865   */\n      dup7\n        /* \"#utility.yul\":1815:1886   */\n      tag_21\n      jump\t// in\n    tag_69:\n        /* \"#utility.yul\":1933:1942   */\n      dup2\n        /* \"#utility.yul\":1927:1931   */\n      dup2\n        /* \"#utility.yul\":1923:1943   */\n      sub\n        /* \"#utility.yul\":1918:1920   */\n      0x20\n        /* \"#utility.yul\":1907:1916   */\n      dup4\n        /* \"#utility.yul\":1903:1921   */\n      add\n        /* \"#utility.yul\":1896:1944   */\n      mstore\n        /* \"#utility.yul\":1961:2039   */\n      tag_70\n        /* \"#utility.yul\":2034:2038   */\n      dup2\n        /* \"#utility.yul\":2025:2031   */\n      dup6\n        /* \"#utility.yul\":1961:2039   */\n      tag_26\n      jump\t// in\n    tag_70:\n        /* \"#utility.yul\":1953:2039   */\n      swap1\n      pop\n        /* \"#utility.yul\":2049:2121   */\n      tag_71\n        /* \"#utility.yul\":2117:2119   */\n      0x40\n        /* \"#utility.yul\":2106:2115   */\n      dup4\n        /* \"#utility.yul\":2102:2120   */\n      add\n        /* \"#utility.yul\":2093:2099   */\n      dup5\n        /* \"#utility.yul\":2049:2121   */\n      tag_29\n      jump\t// in\n    tag_71:\n        /* \"#utility.yul\":1595:2128   */\n      swap5\n      swap4\n      pop\n      pop\n      pop\n      pop\n      jump\t// out\n        /* \"#utility.yul\":2134:2209   */\n    tag_30:\n        /* \"#utility.yul\":2167:2173   */\n      0x00\n        /* \"#utility.yul\":2200:2202   */\n      0x40\n        /* \"#utility.yul\":2194:2203   */\n      mload\n        /* \"#utility.yul\":2184:2203   */\n      swap1\n      pop\n        /* \"#utility.yul\":2134:2209   */\n      swap1\n      jump\t// out\n        /* \"#utility.yul\":2215:2332   */\n    tag_31:\n        /* \"#utility.yul\":2324:2325   */\n      0x00\n        /* \"#utility.yul\":2321:2322   */\n      dup1\n        /* \"#utility.yul\":2314:2326   */\n      revert\n        /* \"#utility.yul\":2338:2455   */\n    tag_32:\n        /* \"#utility.yul\":2447:2448   */\n      0x00\n        /* \"#utility.yul\":2444:2445   */\n      dup1\n        /* \"#utility.yul\":2437:2449   */\n      revert\n        /* \"#utility.yul\":2461:2583   */\n    tag_33:\n        /* \"#utility.yul\":2534:2558   */\n      tag_76\n        /* \"#utility.yul\":2552:2557   */\n      dup2\n        /* \"#utility.yul\":2534:2558   */\n      tag_20\n      jump\t// in\n    tag_76:\n        /* \"#utility.yul\":2527:2532   */\n      dup2\n        /* \"#utility.yul\":2524:2559   */\n      eq\n        /* \"#utility.yul\":2514:2577   */\n      tag_77\n      jumpi\n        /* \"#utility.yul\":2573:2574   */\n      0x00\n        /* \"#utility.yul\":2570:2571   */\n      dup1\n        /* \"#utility.yul\":2563:2575   */\n      revert\n        /* \"#utility.yul\":2514:2577   */\n    tag_77:\n        /* \"#utility.yul\":2461:2583   */\n      pop\n      jump\t// out\n        /* \"#utility.yul\":2589:2728   */\n    tag_34:\n        /* \"#utility.yul\":2635:2640   */\n      0x00\n        /* \"#utility.yul\":2673:2679   */\n      dup2\n        /* \"#utility.yul\":2660:2680   */\n      calldataload\n        /* \"#utility.yul\":2651:2680   */\n      swap1\n      pop\n        /* \"#utility.yul\":2689:2722   */\n      tag_79\n        /* \"#utility.yul\":2716:2721   */\n      dup2\n        /* \"#utility.yul\":2689:2722   */\n      tag_33\n      jump\t// in\n    tag_79:\n        /* \"#utility.yul\":2589:2728   */\n      swap3\n      swap2\n      pop\n      pop\n      jump\t// out\n        /* \"#utility.yul\":2734:2851   */\n    tag_35:\n        /* \"#utility.yul\":2843:2844   */\n      0x00\n        /* \"#utility.yul\":2840:2841   */\n      dup1\n        /* \"#utility.yul\":2833:2845   */\n      revert\n        /* \"#utility.yul\":2857:2974   */\n    tag_36:\n        /* \"#utility.yul\":2966:2967   */\n      0x00\n        /* \"#utility.yul\":2963:2964   */\n      dup1\n        /* \"#utility.yul\":2956:2968   */\n      revert\n        /* \"#utility.yul\":2980:3160   */\n    tag_37:\n        /* \"#utility.yul\":3028:3105   */\n      0x4e487b7100000000000000000000000000000000000000000000000000000000\n        /* \"#utility.yul\":3025:3026   */\n      0x00\n        /* \"#utility.yul\":3018:3106   */\n      mstore\n        /* \"#utility.yul\":3125:3129   */\n      0x41\n        /* \"#utility.yul\":3122:3123   */\n      0x04\n        /* \"#utility.yul\":3115:3130   */\n      mstore\n        /* \"#utility.yul\":3149:3153   */\n      0x24\n        /* \"#utility.yul\":3146:3147   */\n      0x00\n        /* \"#utility.yul\":3139:3154   */\n      revert\n        /* \"#utility.yul\":3166:3447   */\n    tag_38:\n        /* \"#utility.yul\":3249:3276   */\n      tag_84\n        /* \"#utility.yul\":3271:3275   */\n      dup3\n        /* \"#utility.yul\":3249:3276   */\n      tag_25\n      jump\t// in\n    tag_84:\n        /* \"#utility.yul\":3241:3247   */\n      dup2\n        /* \"#utility.yul\":3237:3277   */\n      add\n        /* \"#utility.yul\":3379:3385   */\n      dup2\n        /* \"#utility.yul\":3367:3377   */\n      dup2\n        /* \"#utility.yul\":3364:3386   */\n      lt\n        /* \"#utility.yul\":3343:3361   */\n      0xffffffffffffffff\n        /* \"#utility.yul\":3331:3341   */\n      dup3\n        /* \"#utility.yul\":3328:3362   */\n      gt\n        /* \"#utility.yul\":3325:3387   */\n      or\n        /* \"#utility.yul\":3322:3410   */\n      iszero\n      tag_85\n      jumpi\n        /* \"#utility.yul\":3390:3408   */\n      tag_86\n      tag_37\n      jump\t// in\n    tag_86:\n        /* \"#utility.yul\":3322:3410   */\n    tag_85:\n        /* \"#utility.yul\":3430:3440   */\n      dup1\n        /* \"#utility.yul\":3426:3428   */\n      0x40\n        /* \"#utility.yul\":3419:3441   */\n      mstore\n        /* \"#utility.yul\":3209:3447   */\n      pop\n        /* \"#utility.yul\":3166:3447   */\n      pop\n      pop\n      jump\t// out\n        /* \"#utility.yul\":3453:3582   */\n    tag_39:\n        /* \"#utility.yul\":3487:3493   */\n      0x00\n        /* \"#utility.yul\":3514:3534   */\n      tag_88\n      tag_30\n      jump\t// in\n    tag_88:\n        /* \"#utility.yul\":3504:3534   */\n      swap1\n      pop\n        /* \"#utility.yul\":3543:3576   */\n      tag_89\n        /* \"#utility.yul\":3571:3575   */\n      dup3\n        /* \"#utility.yul\":3563:3569   */\n      dup3\n        /* \"#utility.yul\":3543:3576   */\n      tag_38\n      jump\t// in\n    tag_89:\n        /* \"#utility.yul\":3453:3582   */\n      swap2\n      swap1\n      pop\n      jump\t// out\n        /* \"#utility.yul\":3588:3896   */\n    tag_40:\n        /* \"#utility.yul\":3650:3654   */\n      0x00\n        /* \"#utility.yul\":3740:3758   */\n      0xffffffffffffffff\n        /* \"#utility.yul\":3732:3738   */\n      dup3\n        /* \"#utility.yul\":3729:3759   */\n      gt\n        /* \"#utility.yul\":3726:3782   */\n      iszero\n      tag_91\n      jumpi\n        /* \"#utility.yul\":3762:3780   */\n      tag_92\n      tag_37\n      jump\t// in\n    tag_92:\n        /* \"#utility.yul\":3726:3782   */\n    tag_91:\n        /* \"#utility.yul\":3800:3829   */\n      tag_93\n        /* \"#utility.yul\":3822:3828   */\n      dup3\n        /* \"#utility.yul\":3800:3829   */\n      tag_25\n      jump\t// in\n    tag_93:\n        /* \"#utility.yul\":3792:3829   */\n      swap1\n      pop\n        /* \"#utility.yul\":3884:3888   */\n      0x20\n        /* \"#utility.yul\":3878:3882   */\n      dup2\n        /* \"#utility.yul\":3874:3889   */\n      add\n        /* \"#utility.yul\":3866:3889   */\n      swap1\n      pop\n        /* \"#utility.yul\":3588:3896   */\n      swap2\n      swap1\n      pop\n      jump\t// out\n        /* \"#utility.yul\":3902:4048   */\n    tag_41:\n        /* \"#utility.yul\":3999:4005   */\n      dup3\n        /* \"#utility.yul\":3994:3997   */\n      dup2\n        /* \"#utility.yul\":3989:3992   */\n      dup4\n        /* \"#utility.yul\":3976:4006   */\n      calldatacopy\n        /* \"#utility.yul\":4040:4041   */\n      0x00\n        /* \"#utility.yul\":4031:4037   */\n      dup4\n        /* \"#utility.yul\":4026:4029   */\n      dup4\n        /* \"#utility.yul\":4022:4038   */\n      add\n        /* \"#utility.yul\":4015:4042   */\n      mstore\n        /* \"#utility.yul\":3902:4048   */\n      pop\n      pop\n      pop\n      jump\t// out\n        /* \"#utility.yul\":4054:4479   */\n    tag_42:\n        /* \"#utility.yul\":4132:4137   */\n      0x00\n        /* \"#utility.yul\":4157:4223   */\n      tag_96\n        /* \"#utility.yul\":4173:4222   */\n      tag_97\n        /* \"#utility.yul\":4215:4221   */\n      dup5\n        /* \"#utility.yul\":4173:4222   */\n      tag_40\n      jump\t// in\n    tag_97:\n        /* \"#utility.yul\":4157:4223   */\n      tag_39\n      jump\t// in\n    tag_96:\n        /* \"#utility.yul\":4148:4223   */\n      swap1\n      pop\n        /* \"#utility.yul\":4246:4252   */\n      dup3\n        /* \"#utility.yul\":4239:4244   */\n      dup2\n        /* \"#utility.yul\":4232:4253   */\n      mstore\n        /* \"#utility.yul\":4284:4288   */\n      0x20\n        /* \"#utility.yul\":4277:4282   */\n      dup2\n        /* \"#utility.yul\":4273:4289   */\n      add\n        /* \"#utility.yul\":4322:4325   */\n      dup5\n        /* \"#utility.yul\":4313:4319   */\n      dup5\n        /* \"#utility.yul\":4308:4311   */\n      dup5\n        /* \"#utility.yul\":4304:4320   */\n      add\n        /* \"#utility.yul\":4301:4326   */\n      gt\n        /* \"#utility.yul\":4298:4410   */\n      iszero\n      tag_98\n      jumpi\n        /* \"#utility.yul\":4329:4408   */\n      tag_99\n      tag_36\n      jump\t// in\n    tag_99:\n        /* \"#utility.yul\":4298:4410   */\n    tag_98:\n        /* \"#utility.yul\":4419:4473   */\n      tag_100\n        /* \"#utility.yul\":4466:4472   */\n      dup5\n        /* \"#utility.yul\":4461:4464   */\n      dup3\n        /* \"#utility.yul\":4456:4459   */\n      dup6\n        /* \"#utility.yul\":4419:4473   */\n      tag_41\n      jump\t// in\n    tag_100:\n        /* \"#utility.yul\":4138:4479   */\n      pop\n        /* \"#utility.yul\":4054:4479   */\n      swap4\n      swap3\n      pop\n      pop\n      pop\n      jump\t// out\n        /* \"#utility.yul\":4499:4839   */\n    tag_43:\n        /* \"#utility.yul\":4555:4560   */\n      0x00\n        /* \"#utility.yul\":4604:4607   */\n      dup3\n        /* \"#utility.yul\":4597:4601   */\n      0x1f\n        /* \"#utility.yul\":4589:4595   */\n      dup4\n        /* \"#utility.yul\":4585:4602   */\n      add\n        /* \"#utility.yul\":4581:4608   */\n      slt\n        /* \"#utility.yul\":4571:4693   */\n      tag_102\n      jumpi\n        /* \"#utility.yul\":4612:4691   */\n      tag_103\n      tag_35\n      jump\t// in\n    tag_103:\n        /* \"#utility.yul\":4571:4693   */\n    tag_102:\n        /* \"#utility.yul\":4729:4735   */\n      dup2\n        /* \"#utility.yul\":4716:4736   */\n      calldataload\n        /* \"#utility.yul\":4754:4833   */\n      tag_104\n        /* \"#utility.yul\":4829:4832   */\n      dup5\n        /* \"#utility.yul\":4821:4827   */\n      dup3\n        /* \"#utility.yul\":4814:4818   */\n      0x20\n        /* \"#utility.yul\":4806:4812   */\n      dup7\n        /* \"#utility.yul\":4802:4819   */\n      add\n        /* \"#utility.yul\":4754:4833   */\n      tag_42\n      jump\t// in\n    tag_104:\n        /* \"#utility.yul\":4745:4833   */\n      swap2\n      pop\n        /* \"#utility.yul\":4561:4839   */\n      pop\n        /* \"#utility.yul\":4499:4839   */\n      swap3\n      swap2\n      pop\n      pop\n      jump\t// out\n        /* \"#utility.yul\":4845:4967   */\n    tag_44:\n        /* \"#utility.yul\":4918:4942   */\n      tag_106\n        /* \"#utility.yul\":4936:4941   */\n      dup2\n        /* \"#utility.yul\":4918:4942   */\n      tag_28\n      jump\t// in\n    tag_106:\n        /* \"#utility.yul\":4911:4916   */\n      dup2\n        /* \"#utility.yul\":4908:4943   */\n      eq\n        /* \"#utility.yul\":4898:4961   */\n      tag_107\n      jumpi\n        /* \"#utility.yul\":4957:4958   */\n      0x00\n        /* \"#utility.yul\":4954:4955   */\n      dup1\n        /* \"#utility.yul\":4947:4959   */\n      revert\n        /* \"#utility.yul\":4898:4961   */\n    tag_107:\n        /* \"#utility.yul\":4845:4967   */\n      pop\n      jump\t// out\n        /* \"#utility.yul\":4973:5112   */\n    tag_45:\n        /* \"#utility.yul\":5019:5024   */\n      0x00\n        /* \"#utility.yul\":5057:5063   */\n      dup2\n        /* \"#utility.yul\":5044:5064   */\n      calldataload\n        /* \"#utility.yul\":5035:5064   */\n      swap1\n      pop\n        /* \"#utility.yul\":5073:5106   */\n      tag_109\n        /* \"#utility.yul\":5100:5105   */\n      dup2\n        /* \"#utility.yul\":5073:5106   */\n      tag_44\n      jump\t// in\n    tag_109:\n        /* \"#utility.yul\":4973:5112   */\n      swap3\n      swap2\n      pop\n      pop\n      jump\t// out\n        /* \"#utility.yul\":5118:5917   */\n    tag_11:\n        /* \"#utility.yul\":5205:5211   */\n      0x00\n        /* \"#utility.yul\":5213:5219   */\n      dup1\n        /* \"#utility.yul\":5221:5227   */\n      0x00\n        /* \"#utility.yul\":5270:5272   */\n      0x60\n        /* \"#utility.yul\":5258:5267   */\n      dup5\n        /* \"#utility.yul\":5249:5256   */\n      dup7\n        /* \"#utility.yul\":5245:5268   */\n      sub\n        /* \"#utility.yul\":5241:5273   */\n      slt\n        /* \"#utility.yul\":5238:5357   */\n      iszero\n      tag_111\n      jumpi\n        /* \"#utility.yul\":5276:5355   */\n      tag_112\n      tag_31\n      jump\t// in\n    tag_112:\n        /* \"#utility.yul\":5238:5357   */\n    tag_111:\n        /* \"#utility.yul\":5396:5397   */\n      0x00\n        /* \"#utility.yul\":5421:5474   */\n      tag_113\n        /* \"#utility.yul\":5466:5473   */\n      dup7\n        /* \"#utility.yul\":5457:5463   */\n      dup3\n        /* \"#utility.yul\":5446:5455   */\n      dup8\n        /* \"#utility.yul\":5442:5464   */\n      add\n        /* \"#utility.yul\":5421:5474   */\n      tag_34\n      jump\t// in\n    tag_113:\n        /* \"#utility.yul\":5411:5474   */\n      swap4\n      pop\n        /* \"#utility.yul\":5367:5484   */\n      pop\n        /* \"#utility.yul\":5551:5553   */\n      0x20\n        /* \"#utility.yul\":5540:5549   */\n      dup5\n        /* \"#utility.yul\":5536:5554   */\n      add\n        /* \"#utility.yul\":5523:5555   */\n      calldataload\n        /* \"#utility.yul\":5582:5600   */\n      0xffffffffffffffff\n        /* \"#utility.yul\":5574:5580   */\n      dup2\n        /* \"#utility.yul\":5571:5601   */\n      gt\n        /* \"#utility.yul\":5568:5685   */\n      iszero\n      tag_114\n      jumpi\n        /* \"#utility.yul\":5604:5683   */\n      tag_115\n      tag_32\n      jump\t// in\n    tag_115:\n        /* \"#utility.yul\":5568:5685   */\n    tag_114:\n        /* \"#utility.yul\":5709:5772   */\n      tag_116\n        /* \"#utility.yul\":5764:5771   */\n      dup7\n        /* \"#utility.yul\":5755:5761   */\n      dup3\n        /* \"#utility.yul\":5744:5753   */\n      dup8\n        /* \"#utility.yul\":5740:5762   */\n      add\n        /* \"#utility.yul\":5709:5772   */\n      tag_43\n      jump\t// in\n    tag_116:\n        /* \"#utility.yul\":5699:5772   */\n      swap3\n      pop\n        /* \"#utility.yul\":5494:5782   */\n      pop\n        /* \"#utility.yul\":5821:5823   */\n      0x40\n        /* \"#utility.yul\":5847:5900   */\n      tag_117\n        /* \"#utility.yul\":5892:5899   */\n      dup7\n        /* \"#utility.yul\":5883:5889   */\n      dup3\n        /* \"#utility.yul\":5872:5881   */\n      dup8\n        /* \"#utility.yul\":5868:5890   */\n      add\n        /* \"#utility.yul\":5847:5900   */\n      tag_45\n      jump\t// in\n    tag_117:\n        /* \"#utility.yul\":5837:5900   */\n      swap2\n      pop\n        /* \"#utility.yul\":5792:5910   */\n      pop\n        /* \"#utility.yul\":5118:5917   */\n      swap3\n      pop\n      swap3\n      pop\n      swap3\n      jump\t// out\n        /* \"#utility.yul\":5923:6103   */\n    tag_46:\n        /* \"#utility.yul\":5971:6048   */\n      0x4e487b7100000000000000000000000000000000000000000000000000000000\n        /* \"#utility.yul\":5968:5969   */\n      0x00\n        /* \"#utility.yul\":5961:6049   */\n      mstore\n        /* \"#utility.yul\":6068:6072   */\n      0x22\n        /* \"#utility.yul\":6065:6066   */\n      0x04\n        /* \"#utility.yul\":6058:6073   */\n      mstore\n        /* \"#utility.yul\":6092:6096   */\n      0x24\n        /* \"#utility.yul\":6089:6090   */\n      0x00\n        /* \"#utility.yul\":6082:6097   */\n      revert\n        /* \"#utility.yul\":6109:6429   */\n    tag_14:\n        /* \"#utility.yul\":6153:6159   */\n      0x00\n        /* \"#utility.yul\":6190:6191   */\n      0x02\n        /* \"#utility.yul\":6184:6188   */\n      dup3\n        /* \"#utility.yul\":6180:6192   */\n      div\n        /* \"#utility.yul\":6170:6192   */\n      swap1\n      pop\n        /* \"#utility.yul\":6237:6238   */\n      0x01\n        /* \"#utility.yul\":6231:6235   */\n      dup3\n        /* \"#utility.yul\":6227:6239   */\n      and\n        /* \"#utility.yul\":6258:6276   */\n      dup1\n        /* \"#utility.yul\":6248:6329   */\n      tag_120\n      jumpi\n        /* \"#utility.yul\":6314:6318   */\n      0x7f\n        /* \"#utility.yul\":6306:6312   */\n      dup3\n        /* \"#utility.yul\":6302:6319   */\n      and\n        /* \"#utility.yul\":6292:6319   */\n      swap2\n      pop\n        /* \"#utility.yul\":6248:6329   */\n    tag_120:\n        /* \"#utility.yul\":6376:6378   */\n      0x20\n        /* \"#utility.yul\":6368:6374   */\n      dup3\n        /* \"#utility.yul\":6365:6379   */\n      lt\n        /* \"#utility.yul\":6345:6363   */\n      dup2\n        /* \"#utility.yul\":6342:6380   */\n      sub\n        /* \"#utility.yul\":6339:6423   */\n      tag_121\n      jumpi\n        /* \"#utility.yul\":6395:6413   */\n      tag_122\n      tag_46\n      jump\t// in\n    tag_122:\n        /* \"#utility.yul\":6339:6423   */\n    tag_121:\n        /* \"#utility.yul\":6160:6429   */\n      pop\n        /* \"#utility.yul\":6109:6429   */\n      swap2\n      swap1\n      pop\n      jump\t// out\n\n    auxdata: 0xa26469706673582212207859e8df054403f6bf0222c3e3db4780d43edb2899b55cb97261b981da4d86ce64736f6c63430008110033\n}\n",
				"bytecode": {
					"linkReferences": {},
					"object": "60806040523480156200001157600080fd5b5060405162000b1738038062000b1783398181016040528101906200003791906200026f565b816000800181905550806000600101908162000054919062000516565b5033600060020160006101000a81548173ffffffffffffffffffffffffffffffffffffffff021916908373ffffffffffffffffffffffffffffffffffffffff1602179055505050620005fd565b6000604051905090565b600080fd5b600080fd5b6000819050919050565b620000ca81620000b5565b8114620000d657600080fd5b50565b600081519050620000ea81620000bf565b92915050565b600080fd5b600080fd5b6000601f19601f8301169050919050565b7f4e487b7100000000000000000000000000000000000000000000000000000000600052604160045260246000fd5b6200014582620000fa565b810181811067ffffffffffffffff821117156200016757620001666200010b565b5b80604052505050565b60006200017c620000a1565b90506200018a82826200013a565b919050565b600067ffffffffffffffff821115620001ad57620001ac6200010b565b5b620001b882620000fa565b9050602081019050919050565b60005b83811015620001e5578082015181840152602081019050620001c8565b60008484015250505050565b60006200020862000202846200018f565b62000170565b905082815260208101848484011115620002275762000226620000f5565b5b62000234848285620001c5565b509392505050565b600082601f830112620002545762000253620000f0565b5b815162000266848260208601620001f1565b91505092915050565b60008060408385031215620002895762000288620000ab565b5b60006200029985828601620000d9565b925050602083015167ffffffffffffffff811115620002bd57620002bc620000b0565b5b620002cb858286016200023c565b9150509250929050565b600081519050919050565b7f4e487b7100000000000000000000000000000000000000000000000000000000600052602260045260246000fd5b600060028204905060018216806200032857607f821691505b6020821081036200033e576200033d620002e0565b5b50919050565b60008190508160005260206000209050919050565b60006020601f8301049050919050565b600082821b905092915050565b600060088302620003a87fffffffffffffffffffffffffffffffffffffffffffffffffffffffffffffffff8262000369565b620003b4868362000369565b95508019841693508086168417925050509392505050565b6000819050919050565b6000620003f7620003f1620003eb84620000b5565b620003cc565b620000b5565b9050919050565b6000819050919050565b6200041383620003d6565b6200042b6200042282620003fe565b84845462000376565b825550505050565b600090565b6200044262000433565b6200044f81848462000408565b505050565b5b8181101562000477576200046b60008262000438565b60018101905062000455565b5050565b601f821115620004c657620004908162000344565b6200049b8462000359565b81016020851015620004ab578190505b620004c3620004ba8562000359565b83018262000454565b50505b505050565b600082821c905092915050565b6000620004eb60001984600802620004cb565b1980831691505092915050565b6000620005068383620004d8565b9150826002028217905092915050565b6200052182620002d5565b67ffffffffffffffff8111156200053d576200053c6200010b565b5b6200054982546200030f565b620005568282856200047b565b600060209050601f8311600181146200058e576000841562000579578287015190505b620005858582620004f8565b865550620005f5565b601f1984166200059e8662000344565b60005b82811015620005c857848901518255600182019150602085019450602081019050620005a1565b86831015620005e85784890151620005e4601f891682620004d8565b8355505b6001600288020188555050505b505050505050565b61050a806200060d6000396000f3fe608060405234801561001057600080fd5b50600436106100365760003560e01c8063542488411461003b578063a46878fb1461005b575b600080fd5b610043610077565b60405161005293929190610226565b60405180910390f35b61007560048036038101906100709190610405565b610137565b005b600080600001549080600101805461008e906104a3565b80601f01602080910402602001604051908101604052809291908181526020018280546100ba906104a3565b80156101075780601f106100dc57610100808354040283529160200191610107565b820191906000526020600020905b8154815290600101906020018083116100ea57829003601f168201915b5050505050908060020160009054906101000a900473ffffffffffffffffffffffffffffffffffffffff16905083565b505050565b6000819050919050565b61014f8161013c565b82525050565b600081519050919050565b600082825260208201905092915050565b60005b8381101561018f578082015181840152602081019050610174565b60008484015250505050565b6000601f19601f8301169050919050565b60006101b782610155565b6101c18185610160565b93506101d1818560208601610171565b6101da8161019b565b840191505092915050565b600073ffffffffffffffffffffffffffffffffffffffff82169050919050565b6000610210826101e5565b9050919050565b61022081610205565b82525050565b600060608201905061023b6000830186610146565b818103602083015261024d81856101ac565b905061025c6040830184610217565b949350505050565b6000604051905090565b600080fd5b600080fd5b6102818161013c565b811461028c57600080fd5b50565b60008135905061029e81610278565b92915050565b600080fd5b600080fd5b7f4e487b7100000000000000000000000000000000000000000000000000000000600052604160045260246000fd5b6102e68261019b565b810181811067ffffffffffffffff82111715610305576103046102ae565b5b80604052505050565b6000610318610264565b905061032482826102dd565b919050565b600067ffffffffffffffff821115610344576103436102ae565b5b61034d8261019b565b9050602081019050919050565b82818337600083830152505050565b600061037c61037784610329565b61030e565b905082815260208101848484011115610398576103976102a9565b5b6103a384828561035a565b509392505050565b600082601f8301126103c0576103bf6102a4565b5b81356103d0848260208601610369565b91505092915050565b6103e281610205565b81146103ed57600080fd5b50565b6000813590506103ff816103d9565b92915050565b60008060006060848603121561041e5761041d61026e565b5b600061042c8682870161028f565b935050602084013567ffffffffffffffff81111561044d5761044c610273565b5b610459868287016103ab565b925050604061046a868287016103f0565b9150509250925092565b7f4e487b7100000000000000000000000000000000000000000000000000000000600052602260045260246000fd5b600060028204905060018216806104bb57607f821691505b6020821081036104ce576104cd610474565b5b5091905056fea26469706673582212207859e8df054403f6bf0222c3e3db4780d43edb2899b55cb97261b981da4d86ce64736f6c63430008110033",
					"opcodes": "PUSH1 0x80 PUSH1 0x40 MSTORE CALLVALUE DUP1 ISZERO PUSH3 0x11 JUMPI PUSH1 0x0 DUP1 REVERT JUMPDEST POP PUSH1 0x40 MLOAD PUSH3 0xB17 CODESIZE SUB DUP1 PUSH3 0xB17 DUP4 CODECOPY DUP2 DUP2 ADD PUSH1 0x40 MSTORE DUP2 ADD SWAP1 PUSH3 0x37 SWAP2 SWAP1 PUSH3 0x26F JUMP JUMPDEST DUP2 PUSH1 0x0 DUP1 ADD DUP2 SWAP1 SSTORE POP DUP1 PUSH1 0x0 PUSH1 0x1 ADD SWAP1 DUP2 PUSH3 0x54 SWAP2 SWAP1 PUSH3 0x516 JUMP JUMPDEST POP CALLER PUSH1 0x0 PUSH1 0x2 ADD PUSH1 0x0 PUSH2 0x100 EXP DUP2 SLOAD DUP2 PUSH20 0xFFFFFFFFFFFFFFFFFFFFFFFFFFFFFFFFFFFFFFFF MUL NOT AND SWAP1 DUP4 PUSH20 0xFFFFFFFFFFFFFFFFFFFFFFFFFFFFFFFFFFFFFFFF AND MUL OR SWAP1 SSTORE POP POP POP PUSH3 0x5FD JUMP JUMPDEST PUSH1 0x0 PUSH1 0x40 MLOAD SWAP1 POP SWAP1 JUMP JUMPDEST PUSH1 0x0 DUP1 REVERT JUMPDEST PUSH1 0x0 DUP1 REVERT JUMPDEST PUSH1 0x0 DUP2 SWAP1 POP SWAP2 SWAP1 POP JUMP JUMPDEST PUSH3 0xCA DUP2 PUSH3 0xB5 JUMP JUMPDEST DUP2 EQ PUSH3 0xD6 JUMPI PUSH1 0x0 DUP1 REVERT JUMPDEST POP JUMP JUMPDEST PUSH1 0x0 DUP2 MLOAD SWAP1 POP PUSH3 0xEA DUP2 PUSH3 0xBF JUMP JUMPDEST SWAP3 SWAP2 POP POP JUMP JUMPDEST PUSH1 0x0 DUP1 REVERT JUMPDEST PUSH1 0x0 DUP1 REVERT JUMPDEST PUSH1 0x0 PUSH1 0x1F NOT PUSH1 0x1F DUP4 ADD AND SWAP1 POP SWAP2 SWAP1 POP JUMP JUMPDEST PUSH32 0x4E487B7100000000000000000000000000000000000000000000000000000000 PUSH1 0x0 MSTORE PUSH1 0x41 PUSH1 0x4 MSTORE PUSH1 0x24 PUSH1 0x0 REVERT JUMPDEST PUSH3 0x145 DUP3 PUSH3 0xFA JUMP JUMPDEST DUP2 ADD DUP2 DUP2 LT PUSH8 0xFFFFFFFFFFFFFFFF DUP3 GT OR ISZERO PUSH3 0x167 JUMPI PUSH3 0x166 PUSH3 0x10B JUMP JUMPDEST JUMPDEST DUP1 PUSH1 0x40 MSTORE POP POP POP JUMP JUMPDEST PUSH1 0x0 PUSH3 0x17C PUSH3 0xA1 JUMP JUMPDEST SWAP1 POP PUSH3 0x18A DUP3 DUP3 PUSH3 0x13A JUMP JUMPDEST SWAP2 SWAP1 POP JUMP JUMPDEST PUSH1 0x0 PUSH8 0xFFFFFFFFFFFFFFFF DUP3 GT ISZERO PUSH3 0x1AD JUMPI PUSH3 0x1AC PUSH3 0x10B JUMP JUMPDEST JUMPDEST PUSH3 0x1B8 DUP3 PUSH3 0xFA JUMP JUMPDEST SWAP1 POP PUSH1 0x20 DUP2 ADD SWAP1 POP SWAP2 SWAP1 POP JUMP JUMPDEST PUSH1 0x0 JUMPDEST DUP4 DUP2 LT ISZERO PUSH3 0x1E5 JUMPI DUP1 DUP3 ADD MLOAD DUP2 DUP5 ADD MSTORE PUSH1 0x20 DUP2 ADD SWAP1 POP PUSH3 0x1C8 JUMP JUMPDEST PUSH1 0x0 DUP5 DUP5 ADD MSTORE POP POP POP POP JUMP JUMPDEST PUSH1 0x0 PUSH3 0x208 PUSH3 0x202 DUP5 PUSH3 0x18F JUMP JUMPDEST PUSH3 0x170 JUMP JUMPDEST SWAP1 POP DUP3 DUP2 MSTORE PUSH1 0x20 DUP2 ADD DUP5 DUP5 DUP5 ADD GT ISZERO PUSH3 0x227 JUMPI PUSH3 0x226 PUSH3 0xF5 JUMP JUMPDEST JUMPDEST PUSH3 0x234 DUP5 DUP3 DUP6 PUSH3 0x1C5 JUMP JUMPDEST POP SWAP4 SWAP3 POP POP POP JUMP JUMPDEST PUSH1 0x0 DUP3 PUSH1 0x1F DUP4 ADD SLT PUSH3 0x254 JUMPI PUSH3 0x253 PUSH3 0xF0 JUMP JUMPDEST JUMPDEST DUP2 MLOAD PUSH3 0x266 DUP5 DUP3 PUSH1 0x20 DUP7 ADD PUSH3 0x1F1 JUMP JUMPDEST SWAP2 POP POP SWAP3 SWAP2 POP POP JUMP JUMPDEST PUSH1 0x0 DUP1 PUSH1 0x40 DUP4 DUP6 SUB SLT ISZERO PUSH3 0x289 JUMPI PUSH3 0x288 PUSH3 0xAB JUMP JUMPDEST JUMPDEST PUSH1 0x0 PUSH3 0x299 DUP6 DUP3 DUP7 ADD PUSH3 0xD9 JUMP JUMPDEST SWAP3 POP POP PUSH1 0x20 DUP4 ADD MLOAD PUSH8 0xFFFFFFFFFFFFFFFF DUP2 GT ISZERO PUSH3 0x2BD JUMPI PUSH3 0x2BC PUSH3 0xB0 JUMP JUMPDEST JUMPDEST PUSH3 0x2CB DUP6 DUP3 DUP7 ADD PUSH3 0x23C JUMP JUMPDEST SWAP2 POP POP SWAP3 POP SWAP3 SWAP1 POP JUMP JUMPDEST PUSH1 0x0 DUP2 MLOAD SWAP1 POP SWAP2 SWAP1 POP JUMP JUMPDEST PUSH32 0x4E487B7100000000000000000000000000000000000000000000000000000000 PUSH1 0x0 MSTORE PUSH1 0x22 PUSH1 0x4 MSTORE PUSH1 0x24 PUSH1 0x0 REVERT JUMPDEST PUSH1 0x0 PUSH1 0x2 DUP3 DIV SWAP1 POP PUSH1 0x1 DUP3 AND DUP1 PUSH3 0x328 JUMPI PUSH1 0x7F DUP3 AND SWAP2 POP JUMPDEST PUSH1 0x20 DUP3 LT DUP2 SUB PUSH3 0x33E JUMPI PUSH3 0x33D PUSH3 0x2E0 JUMP JUMPDEST JUMPDEST POP SWAP2 SWAP1 POP JUMP JUMPDEST PUSH1 0x0 DUP2 SWAP1 POP DUP2 PUSH1 0x0 MSTORE PUSH1 0x20 PUSH1 0x0 KECCAK256 SWAP1 POP SWAP2 SWAP1 POP JUMP JUMPDEST PUSH1 0x0 PUSH1 0x20 PUSH1 0x1F DUP4 ADD DIV SWAP1 POP SWAP2 SWAP1 POP JUMP JUMPDEST PUSH1 0x0 DUP3 DUP3 SHL SWAP1 POP SWAP3 SWAP2 POP POP JUMP JUMPDEST PUSH1 0x0 PUSH1 0x8 DUP4 MUL PUSH3 0x3A8 PUSH32 0xFFFFFFFFFFFFFFFFFFFFFFFFFFFFFFFFFFFFFFFFFFFFFFFFFFFFFFFFFFFFFFFF DUP3 PUSH3 0x369 JUMP JUMPDEST PUSH3 0x3B4 DUP7 DUP4 PUSH3 0x369 JUMP JUMPDEST SWAP6 POP DUP1 NOT DUP5 AND SWAP4 POP DUP1 DUP7 AND DUP5 OR SWAP3 POP POP POP SWAP4 SWAP3 POP POP POP JUMP JUMPDEST PUSH1 0x0 DUP2 SWAP1 POP SWAP2 SWAP1 POP JUMP JUMPDEST PUSH1 0x0 PUSH3 0x3F7 PUSH3 0x3F1 PUSH3 0x3EB DUP5 PUSH3 0xB5 JUMP JUMPDEST PUSH3 0x3CC JUMP JUMPDEST PUSH3 0xB5 JUMP JUMPDEST SWAP1 POP SWAP2 SWAP1 POP JUMP JUMPDEST PUSH1 0x0 DUP2 SWAP1 POP SWAP2 SWAP1 POP JUMP JUMPDEST PUSH3 0x413 DUP4 PUSH3 0x3D6 JUMP JUMPDEST PUSH3 0x42B PUSH3 0x422 DUP3 PUSH3 0x3FE JUMP JUMPDEST DUP5 DUP5 SLOAD PUSH3 0x376 JUMP JUMPDEST DUP3 SSTORE POP POP POP POP JUMP JUMPDEST PUSH1 0x0 SWAP1 JUMP JUMPDEST PUSH3 0x442 PUSH3 0x433 JUMP JUMPDEST PUSH3 0x44F DUP2 DUP5 DUP5 PUSH3 0x408 JUMP JUMPDEST POP POP POP JUMP JUMPDEST JUMPDEST DUP2 DUP2 LT ISZERO PUSH3 0x477 JUMPI PUSH3 0x46B PUSH1 0x0 DUP3 PUSH3 0x438 JUMP JUMPDEST PUSH1 0x1 DUP2 ADD SWAP1 POP PUSH3 0x455 JUMP JUMPDEST POP POP JUMP JUMPDEST PUSH1 0x1F DUP3 GT ISZERO PUSH3 0x4C6 JUMPI PUSH3 0x490 DUP2 PUSH3 0x344 JUMP JUMPDEST PUSH3 0x49B DUP5 PUSH3 0x359 JUMP JUMPDEST DUP2 ADD PUSH1 0x20 DUP6 LT ISZERO PUSH3 0x4AB JUMPI DUP2 SWAP1 POP JUMPDEST PUSH3 0x4C3 PUSH3 0x4BA DUP6 PUSH3 0x359 JUMP JUMPDEST DUP4 ADD DUP3 PUSH3 0x454 JUMP JUMPDEST POP POP JUMPDEST POP POP POP JUMP JUMPDEST PUSH1 0x0 DUP3 DUP3 SHR SWAP1 POP SWAP3 SWAP2 POP POP JUMP JUMPDEST PUSH1 0x0 PUSH3 0x4EB PUSH1 0x0 NOT DUP5 PUSH1 0x8 MUL PUSH3 0x4CB JUMP JUMPDEST NOT DUP1 DUP4 AND SWAP2 POP POP SWAP3 SWAP2 POP POP JUMP JUMPDEST PUSH1 0x0 PUSH3 0x506 DUP4 DUP4 PUSH3 0x4D8 JUMP JUMPDEST SWAP2 POP DUP3 PUSH1 0x2 MUL DUP3 OR SWAP1 POP SWAP3 SWAP2 POP POP JUMP JUMPDEST PUSH3 0x521 DUP3 PUSH3 0x2D5 JUMP JUMPDEST PUSH8 0xFFFFFFFFFFFFFFFF DUP2 GT ISZERO PUSH3 0x53D JUMPI PUSH3 0x53C PUSH3 0x10B JUMP JUMPDEST JUMPDEST PUSH3 0x549 DUP3 SLOAD PUSH3 0x30F JUMP JUMPDEST PUSH3 0x556 DUP3 DUP3 DUP6 PUSH3 0x47B JUMP JUMPDEST PUSH1 0x0 PUSH1 0x20 SWAP1 POP PUSH1 0x1F DUP4 GT PUSH1 0x1 DUP2 EQ PUSH3 0x58E JUMPI PUSH1 0x0 DUP5 ISZERO PUSH3 0x579 JUMPI DUP3 DUP8 ADD MLOAD SWAP1 POP JUMPDEST PUSH3 0x585 DUP6 DUP3 PUSH3 0x4F8 JUMP JUMPDEST DUP7 SSTORE POP PUSH3 0x5F5 JUMP JUMPDEST PUSH1 0x1F NOT DUP5 AND PUSH3 0x59E DUP7 PUSH3 0x344 JUMP JUMPDEST PUSH1 0x0 JUMPDEST DUP3 DUP2 LT ISZERO PUSH3 0x5C8 JUMPI DUP5 DUP10 ADD MLOAD DUP3 SSTORE PUSH1 0x1 DUP3 ADD SWAP2 POP PUSH1 0x20 DUP6 ADD SWAP5 POP PUSH1 0x20 DUP2 ADD SWAP1 POP PUSH3 0x5A1 JUMP JUMPDEST DUP7 DUP4 LT ISZERO PUSH3 0x5E8 JUMPI DUP5 DUP10 ADD MLOAD PUSH3 0x5E4 PUSH1 0x1F DUP10 AND DUP3 PUSH3 0x4D8 JUMP JUMPDEST DUP4 SSTORE POP JUMPDEST PUSH1 0x1 PUSH1 0x2 DUP9 MUL ADD DUP9 SSTORE POP POP POP JUMPDEST POP POP POP POP POP POP JUMP JUMPDEST PUSH2 0x50A DUP1 PUSH3 0x60D PUSH1 0x0 CODECOPY PUSH1 0x0 RETURN INVALID PUSH1 0x80 PUSH1 0x40 MSTORE CALLVALUE DUP1 ISZERO PUSH2 0x10 JUMPI PUSH1 0x0 DUP1 REVERT JUMPDEST POP PUSH1 0x4 CALLDATASIZE LT PUSH2 0x36 JUMPI PUSH1 0x0 CALLDATALOAD PUSH1 0xE0 SHR DUP1 PUSH4 0x54248841 EQ PUSH2 0x3B JUMPI DUP1 PUSH4 0xA46878FB EQ PUSH2 0x5B JUMPI JUMPDEST PUSH1 0x0 DUP1 REVERT JUMPDEST PUSH2 0x43 PUSH2 0x77 JUMP JUMPDEST PUSH1 0x40 MLOAD PUSH2 0x52 SWAP4 SWAP3 SWAP2 SWAP1 PUSH2 0x226 JUMP JUMPDEST PUSH1 0x40 MLOAD DUP1 SWAP2 SUB SWAP1 RETURN JUMPDEST PUSH2 0x75 PUSH1 0x4 DUP1 CALLDATASIZE SUB DUP2 ADD SWAP1 PUSH2 0x70 SWAP2 SWAP1 PUSH2 0x405 JUMP JUMPDEST PUSH2 0x137 JUMP JUMPDEST STOP JUMPDEST PUSH1 0x0 DUP1 PUSH1 0x0 ADD SLOAD SWAP1 DUP1 PUSH1 0x1 ADD DUP1 SLOAD PUSH2 0x8E SWAP1 PUSH2 0x4A3 JUMP JUMPDEST DUP1 PUSH1 0x1F ADD PUSH1 0x20 DUP1 SWAP2 DIV MUL PUSH1 0x20 ADD PUSH1 0x40 MLOAD SWAP1 DUP2 ADD PUSH1 0x40 MSTORE DUP1 SWAP3 SWAP2 SWAP1 DUP2 DUP2 MSTORE PUSH1 0x20 ADD DUP3 DUP1 SLOAD PUSH2 0xBA SWAP1 PUSH2 0x4A3 JUMP JUMPDEST DUP1 ISZERO PUSH2 0x107 JUMPI DUP1 PUSH1 0x1F LT PUSH2 0xDC JUMPI PUSH2 0x100 DUP1 DUP4 SLOAD DIV MUL DUP4 MSTORE SWAP2 PUSH1 0x20 ADD SWAP2 PUSH2 0x107 JUMP JUMPDEST DUP3 ADD SWAP2 SWAP1 PUSH1 0x0 MSTORE PUSH1 0x20 PUSH1 0x0 KECCAK256 SWAP1 JUMPDEST DUP2 SLOAD DUP2 MSTORE SWAP1 PUSH1 0x1 ADD SWAP1 PUSH1 0x20 ADD DUP1 DUP4 GT PUSH2 0xEA JUMPI DUP3 SWAP1 SUB PUSH1 0x1F AND DUP3 ADD SWAP2 JUMPDEST POP POP POP POP POP SWAP1 DUP1 PUSH1 0x2 ADD PUSH1 0x0 SWAP1 SLOAD SWAP1 PUSH2 0x100 EXP SWAP1 DIV PUSH20 0xFFFFFFFFFFFFFFFFFFFFFFFFFFFFFFFFFFFFFFFF AND SWAP1 POP DUP4 JUMP JUMPDEST POP POP POP JUMP JUMPDEST PUSH1 0x0 DUP2 SWAP1 POP SWAP2 SWAP1 POP JUMP JUMPDEST PUSH2 0x14F DUP2 PUSH2 0x13C JUMP JUMPDEST DUP3 MSTORE POP POP JUMP JUMPDEST PUSH1 0x0 DUP2 MLOAD SWAP1 POP SWAP2 SWAP1 POP JUMP JUMPDEST PUSH1 0x0 DUP3 DUP3 MSTORE PUSH1 0x20 DUP3 ADD SWAP1 POP SWAP3 SWAP2 POP POP JUMP JUMPDEST PUSH1 0x0 JUMPDEST DUP4 DUP2 LT ISZERO PUSH2 0x18F JUMPI DUP1 DUP3 ADD MLOAD DUP2 DUP5 ADD MSTORE PUSH1 0x20 DUP2 ADD SWAP1 POP PUSH2 0x174 JUMP JUMPDEST PUSH1 0x0 DUP5 DUP5 ADD MSTORE POP POP POP POP JUMP JUMPDEST PUSH1 0x0 PUSH1 0x1F NOT PUSH1 0x1F DUP4 ADD AND SWAP1 POP SWAP2 SWAP1 POP JUMP JUMPDEST PUSH1 0x0 PUSH2 0x1B7 DUP3 PUSH2 0x155 JUMP JUMPDEST PUSH2 0x1C1 DUP2 DUP6 PUSH2 0x160 JUMP JUMPDEST SWAP4 POP PUSH2 0x1D1 DUP2 DUP6 PUSH1 0x20 DUP7 ADD PUSH2 0x171 JUMP JUMPDEST PUSH2 0x1DA DUP2 PUSH2 0x19B JUMP JUMPDEST DUP5 ADD SWAP2 POP POP SWAP3 SWAP2 POP POP JUMP JUMPDEST PUSH1 0x0 PUSH20 0xFFFFFFFFFFFFFFFFFFFFFFFFFFFFFFFFFFFFFFFF DUP3 AND SWAP1 POP SWAP2 SWAP1 POP JUMP JUMPDEST PUSH1 0x0 PUSH2 0x210 DUP3 PUSH2 0x1E5 JUMP JUMPDEST SWAP1 POP SWAP2 SWAP1 POP JUMP JUMPDEST PUSH2 0x220 DUP2 PUSH2 0x205 JUMP JUMPDEST DUP3 MSTORE POP POP JUMP JUMPDEST PUSH1 0x0 PUSH1 0x60 DUP3 ADD SWAP1 POP PUSH2 0x23B PUSH1 0x0 DUP4 ADD DUP7 PUSH2 0x146 JUMP JUMPDEST DUP2 DUP2 SUB PUSH1 0x20 DUP4 ADD MSTORE PUSH2 0x24D DUP2 DUP6 PUSH2 0x1AC JUMP JUMPDEST SWAP1 POP PUSH2 0x25C PUSH1 0x40 DUP4 ADD DUP5 PUSH2 0x217 JUMP JUMPDEST SWAP5 SWAP4 POP POP POP POP JUMP JUMPDEST PUSH1 0x0 PUSH1 0x40 MLOAD SWAP1 POP SWAP1 JUMP JUMPDEST PUSH1 0x0 DUP1 REVERT JUMPDEST PUSH1 0x0 DUP1 REVERT JUMPDEST PUSH2 0x281 DUP2 PUSH2 0x13C JUMP JUMPDEST DUP2 EQ PUSH2 0x28C JUMPI PUSH1 0x0 DUP1 REVERT JUMPDEST POP JUMP JUMPDEST PUSH1 0x0 DUP2 CALLDATALOAD SWAP1 POP PUSH2 0x29E DUP2 PUSH2 0x278 JUMP JUMPDEST SWAP3 SWAP2 POP POP JUMP JUMPDEST PUSH1 0x0 DUP1 REVERT JUMPDEST PUSH1 0x0 DUP1 REVERT JUMPDEST PUSH32 0x4E487B7100000000000000000000000000000000000000000000000000000000 PUSH1 0x0 MSTORE PUSH1 0x41 PUSH1 0x4 MSTORE PUSH1 0x24 PUSH1 0x0 REVERT JUMPDEST PUSH2 0x2E6 DUP3 PUSH2 0x19B JUMP JUMPDEST DUP2 ADD DUP2 DUP2 LT PUSH8 0xFFFFFFFFFFFFFFFF DUP3 GT OR ISZERO PUSH2 0x305 JUMPI PUSH2 0x304 PUSH2 0x2AE JUMP JUMPDEST JUMPDEST DUP1 PUSH1 0x40 MSTORE POP POP POP JUMP JUMPDEST PUSH1 0x0 PUSH2 0x318 PUSH2 0x264 JUMP JUMPDEST SWAP1 POP PUSH2 0x324 DUP3 DUP3 PUSH2 0x2DD JUMP JUMPDEST SWAP2 SWAP1 POP JUMP JUMPDEST PUSH1 0x0 PUSH8 0xFFFFFFFFFFFFFFFF DUP3 GT ISZERO PUSH2 0x344 JUMPI PUSH2 0x343 PUSH2 0x2AE JUMP JUMPDEST JUMPDEST PUSH2 0x34D DUP3 PUSH2 0x19B JUMP JUMPDEST SWAP1 POP PUSH1 0x20 DUP2 ADD SWAP1 POP SWAP2 SWAP1 POP JUMP JUMPDEST DUP3 DUP2 DUP4 CALLDATACOPY PUSH1 0x0 DUP4 DUP4 ADD MSTORE POP POP POP JUMP JUMPDEST PUSH1 0x0 PUSH2 0x37C PUSH2 0x377 DUP5 PUSH2 0x329 JUMP JUMPDEST PUSH2 0x30E JUMP JUMPDEST SWAP1 POP DUP3 DUP2 MSTORE PUSH1 0x20 DUP2 ADD DUP5 DUP5 DUP5 ADD GT ISZERO PUSH2 0x398 JUMPI PUSH2 0x397 PUSH2 0x2A9 JUMP JUMPDEST JUMPDEST PUSH2 0x3A3 DUP5 DUP3 DUP6 PUSH2 0x35A JUMP JUMPDEST POP SWAP4 SWAP3 POP POP POP JUMP JUMPDEST PUSH1 0x0 DUP3 PUSH1 0x1F DUP4 ADD SLT PUSH2 0x3C0 JUMPI PUSH2 0x3BF PUSH2 0x2A4 JUMP JUMPDEST JUMPDEST DUP2 CALLDATALOAD PUSH2 0x3D0 DUP5 DUP3 PUSH1 0x20 DUP7 ADD PUSH2 0x369 JUMP JUMPDEST SWAP2 POP POP SWAP3 SWAP2 POP POP JUMP JUMPDEST PUSH2 0x3E2 DUP2 PUSH2 0x205 JUMP JUMPDEST DUP2 EQ PUSH2 0x3ED JUMPI PUSH1 0x0 DUP1 REVERT JUMPDEST POP JUMP JUMPDEST PUSH1 0x0 DUP2 CALLDATALOAD SWAP1 POP PUSH2 0x3FF DUP2 PUSH2 0x3D9 JUMP JUMPDEST SWAP3 SWAP2 POP POP JUMP JUMPDEST PUSH1 0x0 DUP1 PUSH1 0x0 PUSH1 0x60 DUP5 DUP7 SUB SLT ISZERO PUSH2 0x41E JUMPI PUSH2 0x41D PUSH2 0x26E JUMP JUMPDEST JUMPDEST PUSH1 0x0 PUSH2 0x42C DUP7 DUP3 DUP8 ADD PUSH2 0x28F JUMP JUMPDEST SWAP4 POP POP PUSH1 0x20 DUP5 ADD CALLDATALOAD PUSH8 0xFFFFFFFFFFFFFFFF DUP2 GT ISZERO PUSH2 0x44D JUMPI PUSH2 0x44C PUSH2 0x273 JUMP JUMPDEST JUMPDEST PUSH2 0x459 DUP7 DUP3 DUP8 ADD PUSH2 0x3AB JUMP JUMPDEST SWAP3 POP POP PUSH1 0x40 PUSH2 0x46A DUP7 DUP3 DUP8 ADD PUSH2 0x3F0 JUMP JUMPDEST SWAP2 POP POP SWAP3 POP SWAP3 POP SWAP3 JUMP JUMPDEST PUSH32 0x4E487B7100000000000000000000000000000000000000000000000000000000 PUSH1 0x0 MSTORE PUSH1 0x22 PUSH1 0x4 MSTORE PUSH1 0x24 PUSH1 0x0 REVERT JUMPDEST PUSH1 0x0 PUSH1 0x2 DUP3 DIV SWAP1 POP PUSH1 0x1 DUP3 AND DUP1 PUSH2 0x4BB JUMPI PUSH1 0x7F DUP3 AND SWAP2 POP JUMPDEST PUSH1 0x20 DUP3 LT DUP2 SUB PUSH2 0x4CE JUMPI PUSH2 0x4CD PUSH2 0x474 JUMP JUMPDEST JUMPDEST POP SWAP2 SWAP1 POP JUMP INVALID LOG2 PUSH5 0x6970667358 0x22 SLT KECCAK256 PUSH25 0x59E8DF054403F6BF0222C3E3DB4780D43EDB2899B55CB97261 0xB9 DUP2 0xDA 0x4D DUP7 0xCE PUSH5 0x736F6C6343 STOP ADDMOD GT STOP CALLER "
				},
				"gasEstimates": {
					"creation": {
						"codeDepositCost": "258000",
						"executionCost": "infinite",
						"totalCost": "infinite"
					},
					"external": {
						"academyInstructor()": "infinite",
						"changeInstructor(uint256,string,address)": "infinite"
					}
				},
				"methodIdentifiers": {
					"academyInstructor()": "54248841",
					"changeInstructor(uint256,string,address)": "a46878fb"
				}
			},
			"storageLayout": {
				"storage": [
					{
						"astId": 12,
						"contract": "contracts/StructsAndEnums.sol:Academy",
						"label": "academyInstructor",
						"offset": 0,
						"slot": "0",
						"type": "t_struct(Instructor)8_storage"
					}
				],
				"types": {
					"t_address": {
						"encoding": "inplace",
						"label": "address",
						"numberOfBytes": "20"
					},
					"t_string_storage": {
						"encoding": "bytes",
						"label": "string",
						"numberOfBytes": "32"
					},
					"t_struct(Instructor)8_storage": {
						"encoding": "inplace",
						"label": "struct Instructor",
						"members": [
							{
								"astId": 3,
								"contract": "contracts/StructsAndEnums.sol:Academy",
								"label": "age",
								"offset": 0,
								"slot": "0",
								"type": "t_uint256"
							},
							{
								"astId": 5,
								"contract": "contracts/StructsAndEnums.sol:Academy",
								"label": "name",
								"offset": 0,
								"slot": "1",
								"type": "t_string_storage"
							},
							{
								"astId": 7,
								"contract": "contracts/StructsAndEnums.sol:Academy",
								"label": "addr",
								"offset": 0,
								"slot": "2",
								"type": "t_address"
							}
						],
						"numberOfBytes": "96"
					},
					"t_uint256": {
						"encoding": "inplace",
						"label": "uint256",
						"numberOfBytes": "32"
					}
				}
			},
			"userdoc": {
				"kind": "user",
				"methods": {},
				"version": 1
			}
		}
	}
}