{
	"contracts/FixedSizeArrays.sol": {
		"FixedSizeArrays": {
			"abi": [
				{
					"inputs": [],
					"name": "b",
					"outputs": [
						{
							"internalType": "bytes",
							"name": "",
							"type": "bytes"
						}
					],
					"stateMutability": "view",
					"type": "function"
				},
				{
					"inputs": [],
					"name": "b1",
					"outputs": [
						{
							"internalType": "bytes1",
							"name": "",
							"type": "bytes1"
						}
					],
					"stateMutability": "view",
					"type": "function"
				},
				{
					"inputs": [],
					"name": "b2",
					"outputs": [
						{
							"internalType": "bytes2",
							"name": "",
							"type": "bytes2"
						}
					],
					"stateMutability": "view",
					"type": "function"
				},
				{
					"inputs": [],
					"name": "getArrayLength",
					"outputs": [
						{
							"internalType": "uint256",
							"name": "",
							"type": "uint256"
						}
					],
					"stateMutability": "view",
					"type": "function"
				},
				{
					"inputs": [
						{
							"internalType": "uint256",
							"name": "",
							"type": "uint256"
						}
					],
					"name": "numbers",
					"outputs": [
						{
							"internalType": "uint256",
							"name": "",
							"type": "uint256"
						}
					],
					"stateMutability": "view",
					"type": "function"
				},
				{
					"inputs": [],
					"name": "setBytes",
					"outputs": [],
					"stateMutability": "nonpayable",
					"type": "function"
				},
				{
					"inputs": [
						{
							"internalType": "uint256",
							"name": "_index",
							"type": "uint256"
						},
						{
							"internalType": "uint256",
							"name": "_value",
							"type": "uint256"
						}
					],
					"name": "setElement",
					"outputs": [],
					"stateMutability": "nonpayable",
					"type": "function"
				}
			],
			"devdoc": {
				"kind": "dev",
				"methods": {},
				"version": 1
			},
			"evm": {
				"assembly": "    /* \"contracts/FixedSizeArrays.sol\":71:528  contract FixedSizeArrays {... */\n  mstore(0x40, 0x80)\n    /* \"contracts/FixedSizeArrays.sol\":103:137  uint[3] public numbers = [1, 2, 3] */\n  mload(0x40)\n  dup1\n  0x60\n  add\n  0x40\n  mstore\n  dup1\n    /* \"contracts/FixedSizeArrays.sol\":129:130  1 */\n  0x01\n    /* \"contracts/FixedSizeArrays.sol\":103:137  uint[3] public numbers = [1, 2, 3] */\n  0xff\n  and\n  dup2\n  mstore\n  0x20\n  add\n    /* \"contracts/FixedSizeArrays.sol\":132:133  2 */\n  0x02\n    /* \"contracts/FixedSizeArrays.sol\":103:137  uint[3] public numbers = [1, 2, 3] */\n  0xff\n  and\n  dup2\n  mstore\n  0x20\n  add\n    /* \"contracts/FixedSizeArrays.sol\":135:136  3 */\n  0x03\n    /* \"contracts/FixedSizeArrays.sol\":103:137  uint[3] public numbers = [1, 2, 3] */\n  0xff\n  and\n  dup2\n  mstore\n  pop\n  0x00\n  swap1\n  0x03\n  tag_1\n  swap3\n  swap2\n  swap1\n  tag_2\n  jump\t// in\ntag_1:\n  pop\n    /* \"contracts/FixedSizeArrays.sol\":71:528  contract FixedSizeArrays {... */\n  callvalue\n  dup1\n  iszero\n  tag_3\n  jumpi\n  0x00\n  dup1\n  revert\ntag_3:\n  pop\n  jump(tag_4)\ntag_2:\n  dup3\n  0x03\n  dup2\n  add\n  swap3\n  dup3\n  iszero\n  tag_5\n  jumpi\n  swap2\n  0x20\n  mul\n  dup3\n  add\ntag_6:\n  dup3\n  dup2\n  gt\n  iszero\n  tag_7\n  jumpi\n  dup3\n  mload\n  dup3\n  swap1\n  0xff\n  and\n  swap1\n  sstore\n  swap2\n  0x20\n  add\n  swap2\n  swap1\n  0x01\n  add\n  swap1\n  jump(tag_6)\ntag_7:\ntag_5:\n  pop\n  swap1\n  pop\n  tag_8\n  swap2\n  swap1\n  tag_9\n  jump\t// in\ntag_8:\n  pop\n  swap1\n  jump\t// out\ntag_9:\ntag_10:\n  dup1\n  dup3\n  gt\n  iszero\n  tag_11\n  jumpi\n  0x00\n  dup2\n  0x00\n  swap1\n  sstore\n  pop\n  0x01\n  add\n  jump(tag_10)\ntag_11:\n  pop\n  swap1\n  jump\t// out\ntag_4:\n  dataSize(sub_0)\n  dup1\n  dataOffset(sub_0)\n  0x00\n  codecopy\n  0x00\n  return\nstop\n\nsub_0: assembly {\n        /* \"contracts/FixedSizeArrays.sol\":71:528  contract FixedSizeArrays {... */\n      mstore(0x40, 0x80)\n      callvalue\n      dup1\n      iszero\n      tag_1\n      jumpi\n      0x00\n      dup1\n      revert\n    tag_1:\n      pop\n      jumpi(tag_2, lt(calldatasize, 0x04))\n      shr(0xe0, calldataload(0x00))\n      dup1\n      0xa16e7215\n      gt\n      tag_10\n      jumpi\n      dup1\n      0xa16e7215\n      eq\n      tag_6\n      jumpi\n      dup1\n      0xad95d6b4\n      eq\n      tag_7\n      jumpi\n      dup1\n      0xd39fa233\n      eq\n      tag_8\n      jumpi\n      dup1\n      0xee495002\n      eq\n      tag_9\n      jumpi\n      jump(tag_2)\n    tag_10:\n      dup1\n      0x0849cc99\n      eq\n      tag_3\n      jumpi\n      dup1\n      0x0add6ef2\n      eq\n      tag_4\n      jumpi\n      dup1\n      0x4df7e3d0\n      eq\n      tag_5\n      jumpi\n    tag_2:\n      0x00\n      dup1\n      revert\n        /* \"contracts/FixedSizeArrays.sol\":250:342  function getArrayLength() public view returns(uint) {... */\n    tag_3:\n      tag_11\n      tag_12\n      jump\t// in\n    tag_11:\n      mload(0x40)\n      tag_13\n      swap2\n      swap1\n      tag_14\n      jump\t// in\n    tag_13:\n      mload(0x40)\n      dup1\n      swap2\n      sub\n      swap1\n      return\n        /* \"contracts/FixedSizeArrays.sol\":394:410  bytes2 public b2 */\n    tag_4:\n      tag_15\n      tag_16\n      jump\t// in\n    tag_15:\n      mload(0x40)\n      tag_17\n      swap2\n      swap1\n      tag_18\n      jump\t// in\n    tag_17:\n      mload(0x40)\n      dup1\n      swap2\n      sub\n      swap1\n      return\n        /* \"contracts/FixedSizeArrays.sol\":350:364  bytes public b */\n    tag_5:\n      tag_19\n      tag_20\n      jump\t// in\n    tag_19:\n      mload(0x40)\n      tag_21\n      swap2\n      swap1\n      tag_22\n      jump\t// in\n    tag_21:\n      mload(0x40)\n      dup1\n      swap2\n      sub\n      swap1\n      return\n        /* \"contracts/FixedSizeArrays.sol\":146:242  function setElement(uint _index, uint _value) public {... */\n    tag_6:\n      tag_23\n      0x04\n      dup1\n      calldatasize\n      sub\n      dup2\n      add\n      swap1\n      tag_24\n      swap2\n      swap1\n      tag_25\n      jump\t// in\n    tag_24:\n      tag_26\n      jump\t// in\n    tag_23:\n      stop\n        /* \"contracts/FixedSizeArrays.sol\":443:525  function setBytes() public {... */\n    tag_7:\n      tag_27\n      tag_28\n      jump\t// in\n    tag_27:\n      stop\n        /* \"contracts/FixedSizeArrays.sol\":103:137  uint[3] public numbers = [1, 2, 3] */\n    tag_8:\n      tag_29\n      0x04\n      dup1\n      calldatasize\n      sub\n      dup2\n      add\n      swap1\n      tag_30\n      swap2\n      swap1\n      tag_31\n      jump\t// in\n    tag_30:\n      tag_32\n      jump\t// in\n    tag_29:\n      mload(0x40)\n      tag_33\n      swap2\n      swap1\n      tag_14\n      jump\t// in\n    tag_33:\n      mload(0x40)\n      dup1\n      swap2\n      sub\n      swap1\n      return\n        /* \"contracts/FixedSizeArrays.sol\":371:387  bytes1 public b1 */\n    tag_9:\n      tag_34\n      tag_35\n      jump\t// in\n    tag_34:\n      mload(0x40)\n      tag_36\n      swap2\n      swap1\n      tag_37\n      jump\t// in\n    tag_36:\n      mload(0x40)\n      dup1\n      swap2\n      sub\n      swap1\n      return\n        /* \"contracts/FixedSizeArrays.sol\":250:342  function getArrayLength() public view returns(uint) {... */\n    tag_12:\n        /* \"contracts/FixedSizeArrays.sol\":296:300  uint */\n      0x00\n        /* \"contracts/FixedSizeArrays.sol\":320:334  numbers.length */\n      0x03\n        /* \"contracts/FixedSizeArrays.sol\":313:334  return numbers.length */\n      swap1\n      pop\n        /* \"contracts/FixedSizeArrays.sol\":250:342  function getArrayLength() public view returns(uint) {... */\n      swap1\n      jump\t// out\n        /* \"contracts/FixedSizeArrays.sol\":394:410  bytes2 public b2 */\n    tag_16:\n      0x04\n      0x01\n      swap1\n      sload\n      swap1\n      0x0100\n      exp\n      swap1\n      div\n      0xf0\n      shl\n      dup2\n      jump\t// out\n        /* \"contracts/FixedSizeArrays.sol\":350:364  bytes public b */\n    tag_20:\n      0x03\n      dup1\n      sload\n      tag_39\n      swap1\n      tag_40\n      jump\t// in\n    tag_39:\n      dup1\n      0x1f\n      add\n      0x20\n      dup1\n      swap2\n      div\n      mul\n      0x20\n      add\n      mload(0x40)\n      swap1\n      dup2\n      add\n      0x40\n      mstore\n      dup1\n      swap3\n      swap2\n      swap1\n      dup2\n      dup2\n      mstore\n      0x20\n      add\n      dup3\n      dup1\n      sload\n      tag_41\n      swap1\n      tag_40\n      jump\t// in\n    tag_41:\n      dup1\n      iszero\n      tag_42\n      jumpi\n      dup1\n      0x1f\n      lt\n      tag_43\n      jumpi\n      0x0100\n      dup1\n      dup4\n      sload\n      div\n      mul\n      dup4\n      mstore\n      swap2\n      0x20\n      add\n      swap2\n      jump(tag_42)\n    tag_43:\n      dup3\n      add\n      swap2\n      swap1\n      0x00\n      mstore\n      keccak256(0x00, 0x20)\n      swap1\n    tag_44:\n      dup2\n      sload\n      dup2\n      mstore\n      swap1\n      0x01\n      add\n      swap1\n      0x20\n      add\n      dup1\n      dup4\n      gt\n      tag_44\n      jumpi\n      dup3\n      swap1\n      sub\n      0x1f\n      and\n      dup3\n      add\n      swap2\n    tag_42:\n      pop\n      pop\n      pop\n      pop\n      pop\n      dup2\n      jump\t// out\n        /* \"contracts/FixedSizeArrays.sol\":146:242  function setElement(uint _index, uint _value) public {... */\n    tag_26:\n        /* \"contracts/FixedSizeArrays.sol\":228:234  _value */\n      dup1\n        /* \"contracts/FixedSizeArrays.sol\":210:217  numbers */\n      0x00\n        /* \"contracts/FixedSizeArrays.sol\":218:224  _index */\n      dup4\n        /* \"contracts/FixedSizeArrays.sol\":210:225  numbers[_index] */\n      0x03\n      dup2\n      lt\n      tag_46\n      jumpi\n      tag_47\n      tag_48\n      jump\t// in\n    tag_47:\n    tag_46:\n      add\n        /* \"contracts/FixedSizeArrays.sol\":210:234  numbers[_index] = _value */\n      dup2\n      swap1\n      sstore\n      pop\n        /* \"contracts/FixedSizeArrays.sol\":146:242  function setElement(uint _index, uint _value) public {... */\n      pop\n      pop\n      jump\t// out\n        /* \"contracts/FixedSizeArrays.sol\":443:525  function setBytes() public {... */\n    tag_28:\n        /* \"contracts/FixedSizeArrays.sol\":481:488  b = 'a' */\n      mload(0x40)\n      dup1\n      0x40\n      add\n      0x40\n      mstore\n      dup1\n      0x01\n      dup2\n      mstore\n      0x20\n      add\n      0x6100000000000000000000000000000000000000000000000000000000000000\n      dup2\n      mstore\n      pop\n        /* \"contracts/FixedSizeArrays.sol\":481:482  b */\n      0x03\n        /* \"contracts/FixedSizeArrays.sol\":481:488  b = 'a' */\n      swap1\n      dup2\n      tag_51\n      swap2\n      swap1\n      tag_52\n      jump\t// in\n    tag_51:\n      pop\n        /* \"contracts/FixedSizeArrays.sol\":499:507  b1 = 'b' */\n      0x6200000000000000000000000000000000000000000000000000000000000000\n        /* \"contracts/FixedSizeArrays.sol\":499:501  b1 */\n      0x04\n      0x00\n        /* \"contracts/FixedSizeArrays.sol\":499:507  b1 = 'b' */\n      0x0100\n      exp\n      dup2\n      sload\n      dup2\n      0xff\n      mul\n      not\n      and\n      swap1\n      dup4\n      0xf8\n      shr\n      mul\n      or\n      swap1\n      sstore\n      pop\n        /* \"contracts/FixedSizeArrays.sol\":443:525  function setBytes() public {... */\n      jump\t// out\n        /* \"contracts/FixedSizeArrays.sol\":103:137  uint[3] public numbers = [1, 2, 3] */\n    tag_32:\n      0x00\n      dup2\n      0x03\n      dup2\n      lt\n      tag_53\n      jumpi\n      0x00\n      dup1\n      revert\n    tag_53:\n      add\n      0x00\n      swap2\n      pop\n      swap1\n      pop\n      sload\n      dup2\n      jump\t// out\n        /* \"contracts/FixedSizeArrays.sol\":371:387  bytes1 public b1 */\n    tag_35:\n      0x04\n      0x00\n      swap1\n      sload\n      swap1\n      0x0100\n      exp\n      swap1\n      div\n      0xf8\n      shl\n      dup2\n      jump\t// out\n        /* \"#utility.yul\":7:84   */\n    tag_55:\n        /* \"#utility.yul\":44:51   */\n      0x00\n        /* \"#utility.yul\":73:78   */\n      dup2\n        /* \"#utility.yul\":62:78   */\n      swap1\n      pop\n        /* \"#utility.yul\":7:84   */\n      swap2\n      swap1\n      pop\n      jump\t// out\n        /* \"#utility.yul\":90:208   */\n    tag_56:\n        /* \"#utility.yul\":177:201   */\n      tag_92\n        /* \"#utility.yul\":195:200   */\n      dup2\n        /* \"#utility.yul\":177:201   */\n      tag_55\n      jump\t// in\n    tag_92:\n        /* \"#utility.yul\":172:175   */\n      dup3\n        /* \"#utility.yul\":165:202   */\n      mstore\n        /* \"#utility.yul\":90:208   */\n      pop\n      pop\n      jump\t// out\n        /* \"#utility.yul\":214:436   */\n    tag_14:\n        /* \"#utility.yul\":307:311   */\n      0x00\n        /* \"#utility.yul\":345:347   */\n      0x20\n        /* \"#utility.yul\":334:343   */\n      dup3\n        /* \"#utility.yul\":330:348   */\n      add\n        /* \"#utility.yul\":322:348   */\n      swap1\n      pop\n        /* \"#utility.yul\":358:429   */\n      tag_94\n        /* \"#utility.yul\":426:427   */\n      0x00\n        /* \"#utility.yul\":415:424   */\n      dup4\n        /* \"#utility.yul\":411:428   */\n      add\n        /* \"#utility.yul\":402:408   */\n      dup5\n        /* \"#utility.yul\":358:429   */\n      tag_56\n      jump\t// in\n    tag_94:\n        /* \"#utility.yul\":214:436   */\n      swap3\n      swap2\n      pop\n      pop\n      jump\t// out\n        /* \"#utility.yul\":442:591   */\n    tag_57:\n        /* \"#utility.yul\":478:485   */\n      0x00\n        /* \"#utility.yul\":518:584   */\n      0xffff000000000000000000000000000000000000000000000000000000000000\n        /* \"#utility.yul\":511:516   */\n      dup3\n        /* \"#utility.yul\":507:585   */\n      and\n        /* \"#utility.yul\":496:585   */\n      swap1\n      pop\n        /* \"#utility.yul\":442:591   */\n      swap2\n      swap1\n      pop\n      jump\t// out\n        /* \"#utility.yul\":597:712   */\n    tag_58:\n        /* \"#utility.yul\":682:705   */\n      tag_97\n        /* \"#utility.yul\":699:704   */\n      dup2\n        /* \"#utility.yul\":682:705   */\n      tag_57\n      jump\t// in\n    tag_97:\n        /* \"#utility.yul\":677:680   */\n      dup3\n        /* \"#utility.yul\":670:706   */\n      mstore\n        /* \"#utility.yul\":597:712   */\n      pop\n      pop\n      jump\t// out\n        /* \"#utility.yul\":718:936   */\n    tag_18:\n        /* \"#utility.yul\":809:813   */\n      0x00\n        /* \"#utility.yul\":847:849   */\n      0x20\n        /* \"#utility.yul\":836:845   */\n      dup3\n        /* \"#utility.yul\":832:850   */\n      add\n        /* \"#utility.yul\":824:850   */\n      swap1\n      pop\n        /* \"#utility.yul\":860:929   */\n      tag_99\n        /* \"#utility.yul\":926:927   */\n      0x00\n        /* \"#utility.yul\":915:924   */\n      dup4\n        /* \"#utility.yul\":911:928   */\n      add\n        /* \"#utility.yul\":902:908   */\n      dup5\n        /* \"#utility.yul\":860:929   */\n      tag_58\n      jump\t// in\n    tag_99:\n        /* \"#utility.yul\":718:936   */\n      swap3\n      swap2\n      pop\n      pop\n      jump\t// out\n        /* \"#utility.yul\":942:1040   */\n    tag_59:\n        /* \"#utility.yul\":993:999   */\n      0x00\n        /* \"#utility.yul\":1027:1032   */\n      dup2\n        /* \"#utility.yul\":1021:1033   */\n      mload\n        /* \"#utility.yul\":1011:1033   */\n      swap1\n      pop\n        /* \"#utility.yul\":942:1040   */\n      swap2\n      swap1\n      pop\n      jump\t// out\n        /* \"#utility.yul\":1046:1214   */\n    tag_60:\n        /* \"#utility.yul\":1129:1140   */\n      0x00\n        /* \"#utility.yul\":1163:1169   */\n      dup3\n        /* \"#utility.yul\":1158:1161   */\n      dup3\n        /* \"#utility.yul\":1151:1170   */\n      mstore\n        /* \"#utility.yul\":1203:1207   */\n      0x20\n        /* \"#utility.yul\":1198:1201   */\n      dup3\n        /* \"#utility.yul\":1194:1208   */\n      add\n        /* \"#utility.yul\":1179:1208   */\n      swap1\n      pop\n        /* \"#utility.yul\":1046:1214   */\n      swap3\n      swap2\n      pop\n      pop\n      jump\t// out\n        /* \"#utility.yul\":1220:1466   */\n    tag_61:\n        /* \"#utility.yul\":1301:1302   */\n      0x00\n        /* \"#utility.yul\":1311:1424   */\n    tag_103:\n        /* \"#utility.yul\":1325:1331   */\n      dup4\n        /* \"#utility.yul\":1322:1323   */\n      dup2\n        /* \"#utility.yul\":1319:1332   */\n      lt\n        /* \"#utility.yul\":1311:1424   */\n      iszero\n      tag_105\n      jumpi\n        /* \"#utility.yul\":1410:1411   */\n      dup1\n        /* \"#utility.yul\":1405:1408   */\n      dup3\n        /* \"#utility.yul\":1401:1412   */\n      add\n        /* \"#utility.yul\":1395:1413   */\n      mload\n        /* \"#utility.yul\":1391:1392   */\n      dup2\n        /* \"#utility.yul\":1386:1389   */\n      dup5\n        /* \"#utility.yul\":1382:1393   */\n      add\n        /* \"#utility.yul\":1375:1414   */\n      mstore\n        /* \"#utility.yul\":1347:1349   */\n      0x20\n        /* \"#utility.yul\":1344:1345   */\n      dup2\n        /* \"#utility.yul\":1340:1350   */\n      add\n        /* \"#utility.yul\":1335:1350   */\n      swap1\n      pop\n        /* \"#utility.yul\":1311:1424   */\n      jump(tag_103)\n    tag_105:\n        /* \"#utility.yul\":1458:1459   */\n      0x00\n        /* \"#utility.yul\":1449:1455   */\n      dup5\n        /* \"#utility.yul\":1444:1447   */\n      dup5\n        /* \"#utility.yul\":1440:1456   */\n      add\n        /* \"#utility.yul\":1433:1460   */\n      mstore\n        /* \"#utility.yul\":1282:1466   */\n      pop\n        /* \"#utility.yul\":1220:1466   */\n      pop\n      pop\n      pop\n      jump\t// out\n        /* \"#utility.yul\":1472:1574   */\n    tag_62:\n        /* \"#utility.yul\":1513:1519   */\n      0x00\n        /* \"#utility.yul\":1564:1566   */\n      0x1f\n        /* \"#utility.yul\":1560:1567   */\n      not\n        /* \"#utility.yul\":1555:1557   */\n      0x1f\n        /* \"#utility.yul\":1548:1553   */\n      dup4\n        /* \"#utility.yul\":1544:1558   */\n      add\n        /* \"#utility.yul\":1540:1568   */\n      and\n        /* \"#utility.yul\":1530:1568   */\n      swap1\n      pop\n        /* \"#utility.yul\":1472:1574   */\n      swap2\n      swap1\n      pop\n      jump\t// out\n        /* \"#utility.yul\":1580:1953   */\n    tag_63:\n        /* \"#utility.yul\":1666:1669   */\n      0x00\n        /* \"#utility.yul\":1694:1732   */\n      tag_108\n        /* \"#utility.yul\":1726:1731   */\n      dup3\n        /* \"#utility.yul\":1694:1732   */\n      tag_59\n      jump\t// in\n    tag_108:\n        /* \"#utility.yul\":1748:1818   */\n      tag_109\n        /* \"#utility.yul\":1811:1817   */\n      dup2\n        /* \"#utility.yul\":1806:1809   */\n      dup6\n        /* \"#utility.yul\":1748:1818   */\n      tag_60\n      jump\t// in\n    tag_109:\n        /* \"#utility.yul\":1741:1818   */\n      swap4\n      pop\n        /* \"#utility.yul\":1827:1892   */\n      tag_110\n        /* \"#utility.yul\":1885:1891   */\n      dup2\n        /* \"#utility.yul\":1880:1883   */\n      dup6\n        /* \"#utility.yul\":1873:1877   */\n      0x20\n        /* \"#utility.yul\":1866:1871   */\n      dup7\n        /* \"#utility.yul\":1862:1878   */\n      add\n        /* \"#utility.yul\":1827:1892   */\n      tag_61\n      jump\t// in\n    tag_110:\n        /* \"#utility.yul\":1917:1946   */\n      tag_111\n        /* \"#utility.yul\":1939:1945   */\n      dup2\n        /* \"#utility.yul\":1917:1946   */\n      tag_62\n      jump\t// in\n    tag_111:\n        /* \"#utility.yul\":1912:1915   */\n      dup5\n        /* \"#utility.yul\":1908:1947   */\n      add\n        /* \"#utility.yul\":1901:1947   */\n      swap2\n      pop\n        /* \"#utility.yul\":1670:1953   */\n      pop\n        /* \"#utility.yul\":1580:1953   */\n      swap3\n      swap2\n      pop\n      pop\n      jump\t// out\n        /* \"#utility.yul\":1959:2268   */\n    tag_22:\n        /* \"#utility.yul\":2070:2074   */\n      0x00\n        /* \"#utility.yul\":2108:2110   */\n      0x20\n        /* \"#utility.yul\":2097:2106   */\n      dup3\n        /* \"#utility.yul\":2093:2111   */\n      add\n        /* \"#utility.yul\":2085:2111   */\n      swap1\n      pop\n        /* \"#utility.yul\":2157:2166   */\n      dup2\n        /* \"#utility.yul\":2151:2155   */\n      dup2\n        /* \"#utility.yul\":2147:2167   */\n      sub\n        /* \"#utility.yul\":2143:2144   */\n      0x00\n        /* \"#utility.yul\":2132:2141   */\n      dup4\n        /* \"#utility.yul\":2128:2145   */\n      add\n        /* \"#utility.yul\":2121:2168   */\n      mstore\n        /* \"#utility.yul\":2185:2261   */\n      tag_113\n        /* \"#utility.yul\":2256:2260   */\n      dup2\n        /* \"#utility.yul\":2247:2253   */\n      dup5\n        /* \"#utility.yul\":2185:2261   */\n      tag_63\n      jump\t// in\n    tag_113:\n        /* \"#utility.yul\":2177:2261   */\n      swap1\n      pop\n        /* \"#utility.yul\":1959:2268   */\n      swap3\n      swap2\n      pop\n      pop\n      jump\t// out\n        /* \"#utility.yul\":2355:2472   */\n    tag_65:\n        /* \"#utility.yul\":2464:2465   */\n      0x00\n        /* \"#utility.yul\":2461:2462   */\n      dup1\n        /* \"#utility.yul\":2454:2466   */\n      revert\n        /* \"#utility.yul\":2601:2723   */\n    tag_67:\n        /* \"#utility.yul\":2674:2698   */\n      tag_118\n        /* \"#utility.yul\":2692:2697   */\n      dup2\n        /* \"#utility.yul\":2674:2698   */\n      tag_55\n      jump\t// in\n    tag_118:\n        /* \"#utility.yul\":2667:2672   */\n      dup2\n        /* \"#utility.yul\":2664:2699   */\n      eq\n        /* \"#utility.yul\":2654:2717   */\n      tag_119\n      jumpi\n        /* \"#utility.yul\":2713:2714   */\n      0x00\n        /* \"#utility.yul\":2710:2711   */\n      dup1\n        /* \"#utility.yul\":2703:2715   */\n      revert\n        /* \"#utility.yul\":2654:2717   */\n    tag_119:\n        /* \"#utility.yul\":2601:2723   */\n      pop\n      jump\t// out\n        /* \"#utility.yul\":2729:2868   */\n    tag_68:\n        /* \"#utility.yul\":2775:2780   */\n      0x00\n        /* \"#utility.yul\":2813:2819   */\n      dup2\n        /* \"#utility.yul\":2800:2820   */\n      calldataload\n        /* \"#utility.yul\":2791:2820   */\n      swap1\n      pop\n        /* \"#utility.yul\":2829:2862   */\n      tag_121\n        /* \"#utility.yul\":2856:2861   */\n      dup2\n        /* \"#utility.yul\":2829:2862   */\n      tag_67\n      jump\t// in\n    tag_121:\n        /* \"#utility.yul\":2729:2868   */\n      swap3\n      swap2\n      pop\n      pop\n      jump\t// out\n        /* \"#utility.yul\":2874:3348   */\n    tag_25:\n        /* \"#utility.yul\":2942:2948   */\n      0x00\n        /* \"#utility.yul\":2950:2956   */\n      dup1\n        /* \"#utility.yul\":2999:3001   */\n      0x40\n        /* \"#utility.yul\":2987:2996   */\n      dup4\n        /* \"#utility.yul\":2978:2985   */\n      dup6\n        /* \"#utility.yul\":2974:2997   */\n      sub\n        /* \"#utility.yul\":2970:3002   */\n      slt\n        /* \"#utility.yul\":2967:3086   */\n      iszero\n      tag_123\n      jumpi\n        /* \"#utility.yul\":3005:3084   */\n      tag_124\n      tag_65\n      jump\t// in\n    tag_124:\n        /* \"#utility.yul\":2967:3086   */\n    tag_123:\n        /* \"#utility.yul\":3125:3126   */\n      0x00\n        /* \"#utility.yul\":3150:3203   */\n      tag_125\n        /* \"#utility.yul\":3195:3202   */\n      dup6\n        /* \"#utility.yul\":3186:3192   */\n      dup3\n        /* \"#utility.yul\":3175:3184   */\n      dup7\n        /* \"#utility.yul\":3171:3193   */\n      add\n        /* \"#utility.yul\":3150:3203   */\n      tag_68\n      jump\t// in\n    tag_125:\n        /* \"#utility.yul\":3140:3203   */\n      swap3\n      pop\n        /* \"#utility.yul\":3096:3213   */\n      pop\n        /* \"#utility.yul\":3252:3254   */\n      0x20\n        /* \"#utility.yul\":3278:3331   */\n      tag_126\n        /* \"#utility.yul\":3323:3330   */\n      dup6\n        /* \"#utility.yul\":3314:3320   */\n      dup3\n        /* \"#utility.yul\":3303:3312   */\n      dup7\n        /* \"#utility.yul\":3299:3321   */\n      add\n        /* \"#utility.yul\":3278:3331   */\n      tag_68\n      jump\t// in\n    tag_126:\n        /* \"#utility.yul\":3268:3331   */\n      swap2\n      pop\n        /* \"#utility.yul\":3223:3341   */\n      pop\n        /* \"#utility.yul\":2874:3348   */\n      swap3\n      pop\n      swap3\n      swap1\n      pop\n      jump\t// out\n        /* \"#utility.yul\":3354:3683   */\n    tag_31:\n        /* \"#utility.yul\":3413:3419   */\n      0x00\n        /* \"#utility.yul\":3462:3464   */\n      0x20\n        /* \"#utility.yul\":3450:3459   */\n      dup3\n        /* \"#utility.yul\":3441:3448   */\n      dup5\n        /* \"#utility.yul\":3437:3460   */\n      sub\n        /* \"#utility.yul\":3433:3465   */\n      slt\n        /* \"#utility.yul\":3430:3549   */\n      iszero\n      tag_128\n      jumpi\n        /* \"#utility.yul\":3468:3547   */\n      tag_129\n      tag_65\n      jump\t// in\n    tag_129:\n        /* \"#utility.yul\":3430:3549   */\n    tag_128:\n        /* \"#utility.yul\":3588:3589   */\n      0x00\n        /* \"#utility.yul\":3613:3666   */\n      tag_130\n        /* \"#utility.yul\":3658:3665   */\n      dup5\n        /* \"#utility.yul\":3649:3655   */\n      dup3\n        /* \"#utility.yul\":3638:3647   */\n      dup6\n        /* \"#utility.yul\":3634:3656   */\n      add\n        /* \"#utility.yul\":3613:3666   */\n      tag_68\n      jump\t// in\n    tag_130:\n        /* \"#utility.yul\":3603:3666   */\n      swap2\n      pop\n        /* \"#utility.yul\":3559:3676   */\n      pop\n        /* \"#utility.yul\":3354:3683   */\n      swap3\n      swap2\n      pop\n      pop\n      jump\t// out\n        /* \"#utility.yul\":3689:3838   */\n    tag_69:\n        /* \"#utility.yul\":3725:3732   */\n      0x00\n        /* \"#utility.yul\":3765:3831   */\n      0xff00000000000000000000000000000000000000000000000000000000000000\n        /* \"#utility.yul\":3758:3763   */\n      dup3\n        /* \"#utility.yul\":3754:3832   */\n      and\n        /* \"#utility.yul\":3743:3832   */\n      swap1\n      pop\n        /* \"#utility.yul\":3689:3838   */\n      swap2\n      swap1\n      pop\n      jump\t// out\n        /* \"#utility.yul\":3844:3959   */\n    tag_70:\n        /* \"#utility.yul\":3929:3952   */\n      tag_133\n        /* \"#utility.yul\":3946:3951   */\n      dup2\n        /* \"#utility.yul\":3929:3952   */\n      tag_69\n      jump\t// in\n    tag_133:\n        /* \"#utility.yul\":3924:3927   */\n      dup3\n        /* \"#utility.yul\":3917:3953   */\n      mstore\n        /* \"#utility.yul\":3844:3959   */\n      pop\n      pop\n      jump\t// out\n        /* \"#utility.yul\":3965:4183   */\n    tag_37:\n        /* \"#utility.yul\":4056:4060   */\n      0x00\n        /* \"#utility.yul\":4094:4096   */\n      0x20\n        /* \"#utility.yul\":4083:4092   */\n      dup3\n        /* \"#utility.yul\":4079:4097   */\n      add\n        /* \"#utility.yul\":4071:4097   */\n      swap1\n      pop\n        /* \"#utility.yul\":4107:4176   */\n      tag_135\n        /* \"#utility.yul\":4173:4174   */\n      0x00\n        /* \"#utility.yul\":4162:4171   */\n      dup4\n        /* \"#utility.yul\":4158:4175   */\n      add\n        /* \"#utility.yul\":4149:4155   */\n      dup5\n        /* \"#utility.yul\":4107:4176   */\n      tag_70\n      jump\t// in\n    tag_135:\n        /* \"#utility.yul\":3965:4183   */\n      swap3\n      swap2\n      pop\n      pop\n      jump\t// out\n        /* \"#utility.yul\":4189:4369   */\n    tag_71:\n        /* \"#utility.yul\":4237:4314   */\n      0x4e487b7100000000000000000000000000000000000000000000000000000000\n        /* \"#utility.yul\":4234:4235   */\n      0x00\n        /* \"#utility.yul\":4227:4315   */\n      mstore\n        /* \"#utility.yul\":4334:4338   */\n      0x22\n        /* \"#utility.yul\":4331:4332   */\n      0x04\n        /* \"#utility.yul\":4324:4339   */\n      mstore\n        /* \"#utility.yul\":4358:4362   */\n      0x24\n        /* \"#utility.yul\":4355:4356   */\n      0x00\n        /* \"#utility.yul\":4348:4363   */\n      revert\n        /* \"#utility.yul\":4375:4695   */\n    tag_40:\n        /* \"#utility.yul\":4419:4425   */\n      0x00\n        /* \"#utility.yul\":4456:4457   */\n      0x02\n        /* \"#utility.yul\":4450:4454   */\n      dup3\n        /* \"#utility.yul\":4446:4458   */\n      div\n        /* \"#utility.yul\":4436:4458   */\n      swap1\n      pop\n        /* \"#utility.yul\":4503:4504   */\n      0x01\n        /* \"#utility.yul\":4497:4501   */\n      dup3\n        /* \"#utility.yul\":4493:4505   */\n      and\n        /* \"#utility.yul\":4524:4542   */\n      dup1\n        /* \"#utility.yul\":4514:4595   */\n      tag_138\n      jumpi\n        /* \"#utility.yul\":4580:4584   */\n      0x7f\n        /* \"#utility.yul\":4572:4578   */\n      dup3\n        /* \"#utility.yul\":4568:4585   */\n      and\n        /* \"#utility.yul\":4558:4585   */\n      swap2\n      pop\n        /* \"#utility.yul\":4514:4595   */\n    tag_138:\n        /* \"#utility.yul\":4642:4644   */\n      0x20\n        /* \"#utility.yul\":4634:4640   */\n      dup3\n        /* \"#utility.yul\":4631:4645   */\n      lt\n        /* \"#utility.yul\":4611:4629   */\n      dup2\n        /* \"#utility.yul\":4608:4646   */\n      sub\n        /* \"#utility.yul\":4605:4689   */\n      tag_139\n      jumpi\n        /* \"#utility.yul\":4661:4679   */\n      tag_140\n      tag_71\n      jump\t// in\n    tag_140:\n        /* \"#utility.yul\":4605:4689   */\n    tag_139:\n        /* \"#utility.yul\":4426:4695   */\n      pop\n        /* \"#utility.yul\":4375:4695   */\n      swap2\n      swap1\n      pop\n      jump\t// out\n        /* \"#utility.yul\":4701:4881   */\n    tag_48:\n        /* \"#utility.yul\":4749:4826   */\n      0x4e487b7100000000000000000000000000000000000000000000000000000000\n        /* \"#utility.yul\":4746:4747   */\n      0x00\n        /* \"#utility.yul\":4739:4827   */\n      mstore\n        /* \"#utility.yul\":4846:4850   */\n      0x32\n        /* \"#utility.yul\":4843:4844   */\n      0x04\n        /* \"#utility.yul\":4836:4851   */\n      mstore\n        /* \"#utility.yul\":4870:4874   */\n      0x24\n        /* \"#utility.yul\":4867:4868   */\n      0x00\n        /* \"#utility.yul\":4860:4875   */\n      revert\n        /* \"#utility.yul\":4887:4986   */\n    tag_72:\n        /* \"#utility.yul\":4939:4945   */\n      0x00\n        /* \"#utility.yul\":4973:4978   */\n      dup2\n        /* \"#utility.yul\":4967:4979   */\n      mload\n        /* \"#utility.yul\":4957:4979   */\n      swap1\n      pop\n        /* \"#utility.yul\":4887:4986   */\n      swap2\n      swap1\n      pop\n      jump\t// out\n        /* \"#utility.yul\":4992:5172   */\n    tag_73:\n        /* \"#utility.yul\":5040:5117   */\n      0x4e487b7100000000000000000000000000000000000000000000000000000000\n        /* \"#utility.yul\":5037:5038   */\n      0x00\n        /* \"#utility.yul\":5030:5118   */\n      mstore\n        /* \"#utility.yul\":5137:5141   */\n      0x41\n        /* \"#utility.yul\":5134:5135   */\n      0x04\n        /* \"#utility.yul\":5127:5142   */\n      mstore\n        /* \"#utility.yul\":5161:5165   */\n      0x24\n        /* \"#utility.yul\":5158:5159   */\n      0x00\n        /* \"#utility.yul\":5151:5166   */\n      revert\n        /* \"#utility.yul\":5178:5318   */\n    tag_74:\n        /* \"#utility.yul\":5226:5230   */\n      0x00\n        /* \"#utility.yul\":5249:5252   */\n      dup2\n        /* \"#utility.yul\":5241:5252   */\n      swap1\n      pop\n        /* \"#utility.yul\":5272:5275   */\n      dup2\n        /* \"#utility.yul\":5269:5270   */\n      0x00\n        /* \"#utility.yul\":5262:5276   */\n      mstore\n        /* \"#utility.yul\":5306:5310   */\n      0x20\n        /* \"#utility.yul\":5303:5304   */\n      0x00\n        /* \"#utility.yul\":5293:5311   */\n      keccak256\n        /* \"#utility.yul\":5285:5311   */\n      swap1\n      pop\n        /* \"#utility.yul\":5178:5318   */\n      swap2\n      swap1\n      pop\n      jump\t// out\n        /* \"#utility.yul\":5324:5417   */\n    tag_75:\n        /* \"#utility.yul\":5361:5367   */\n      0x00\n        /* \"#utility.yul\":5408:5410   */\n      0x20\n        /* \"#utility.yul\":5403:5405   */\n      0x1f\n        /* \"#utility.yul\":5396:5401   */\n      dup4\n        /* \"#utility.yul\":5392:5406   */\n      add\n        /* \"#utility.yul\":5388:5411   */\n      div\n        /* \"#utility.yul\":5378:5411   */\n      swap1\n      pop\n        /* \"#utility.yul\":5324:5417   */\n      swap2\n      swap1\n      pop\n      jump\t// out\n        /* \"#utility.yul\":5423:5530   */\n    tag_76:\n        /* \"#utility.yul\":5467:5475   */\n      0x00\n        /* \"#utility.yul\":5517:5522   */\n      dup3\n        /* \"#utility.yul\":5511:5515   */\n      dup3\n        /* \"#utility.yul\":5507:5523   */\n      shl\n        /* \"#utility.yul\":5486:5523   */\n      swap1\n      pop\n        /* \"#utility.yul\":5423:5530   */\n      swap3\n      swap2\n      pop\n      pop\n      jump\t// out\n        /* \"#utility.yul\":5536:5929   */\n    tag_77:\n        /* \"#utility.yul\":5605:5611   */\n      0x00\n        /* \"#utility.yul\":5655:5656   */\n      0x08\n        /* \"#utility.yul\":5643:5653   */\n      dup4\n        /* \"#utility.yul\":5639:5657   */\n      mul\n        /* \"#utility.yul\":5678:5775   */\n      tag_148\n        /* \"#utility.yul\":5708:5774   */\n      0xffffffffffffffffffffffffffffffffffffffffffffffffffffffffffffffff\n        /* \"#utility.yul\":5697:5706   */\n      dup3\n        /* \"#utility.yul\":5678:5775   */\n      tag_76\n      jump\t// in\n    tag_148:\n        /* \"#utility.yul\":5796:5835   */\n      tag_149\n        /* \"#utility.yul\":5826:5834   */\n      dup7\n        /* \"#utility.yul\":5815:5824   */\n      dup4\n        /* \"#utility.yul\":5796:5835   */\n      tag_76\n      jump\t// in\n    tag_149:\n        /* \"#utility.yul\":5784:5835   */\n      swap6\n      pop\n        /* \"#utility.yul\":5868:5872   */\n      dup1\n        /* \"#utility.yul\":5864:5873   */\n      not\n        /* \"#utility.yul\":5857:5862   */\n      dup5\n        /* \"#utility.yul\":5853:5874   */\n      and\n        /* \"#utility.yul\":5844:5874   */\n      swap4\n      pop\n        /* \"#utility.yul\":5917:5921   */\n      dup1\n        /* \"#utility.yul\":5907:5915   */\n      dup7\n        /* \"#utility.yul\":5903:5922   */\n      and\n        /* \"#utility.yul\":5896:5901   */\n      dup5\n        /* \"#utility.yul\":5893:5923   */\n      or\n        /* \"#utility.yul\":5883:5923   */\n      swap3\n      pop\n        /* \"#utility.yul\":5612:5929   */\n      pop\n      pop\n        /* \"#utility.yul\":5536:5929   */\n      swap4\n      swap3\n      pop\n      pop\n      pop\n      jump\t// out\n        /* \"#utility.yul\":5935:5995   */\n    tag_78:\n        /* \"#utility.yul\":5963:5966   */\n      0x00\n        /* \"#utility.yul\":5984:5989   */\n      dup2\n        /* \"#utility.yul\":5977:5989   */\n      swap1\n      pop\n        /* \"#utility.yul\":5935:5995   */\n      swap2\n      swap1\n      pop\n      jump\t// out\n        /* \"#utility.yul\":6001:6143   */\n    tag_79:\n        /* \"#utility.yul\":6051:6060   */\n      0x00\n        /* \"#utility.yul\":6084:6137   */\n      tag_152\n        /* \"#utility.yul\":6102:6136   */\n      tag_153\n        /* \"#utility.yul\":6111:6135   */\n      tag_154\n        /* \"#utility.yul\":6129:6134   */\n      dup5\n        /* \"#utility.yul\":6111:6135   */\n      tag_55\n      jump\t// in\n    tag_154:\n        /* \"#utility.yul\":6102:6136   */\n      tag_78\n      jump\t// in\n    tag_153:\n        /* \"#utility.yul\":6084:6137   */\n      tag_55\n      jump\t// in\n    tag_152:\n        /* \"#utility.yul\":6071:6137   */\n      swap1\n      pop\n        /* \"#utility.yul\":6001:6143   */\n      swap2\n      swap1\n      pop\n      jump\t// out\n        /* \"#utility.yul\":6149:6224   */\n    tag_80:\n        /* \"#utility.yul\":6192:6195   */\n      0x00\n        /* \"#utility.yul\":6213:6218   */\n      dup2\n        /* \"#utility.yul\":6206:6218   */\n      swap1\n      pop\n        /* \"#utility.yul\":6149:6224   */\n      swap2\n      swap1\n      pop\n      jump\t// out\n        /* \"#utility.yul\":6230:6499   */\n    tag_81:\n        /* \"#utility.yul\":6340:6379   */\n      tag_157\n        /* \"#utility.yul\":6371:6378   */\n      dup4\n        /* \"#utility.yul\":6340:6379   */\n      tag_79\n      jump\t// in\n    tag_157:\n        /* \"#utility.yul\":6401:6492   */\n      tag_158\n        /* \"#utility.yul\":6450:6491   */\n      tag_159\n        /* \"#utility.yul\":6474:6490   */\n      dup3\n        /* \"#utility.yul\":6450:6491   */\n      tag_80\n      jump\t// in\n    tag_159:\n        /* \"#utility.yul\":6442:6448   */\n      dup5\n        /* \"#utility.yul\":6435:6439   */\n      dup5\n        /* \"#utility.yul\":6429:6440   */\n      sload\n        /* \"#utility.yul\":6401:6492   */\n      tag_77\n      jump\t// in\n    tag_158:\n        /* \"#utility.yul\":6395:6399   */\n      dup3\n        /* \"#utility.yul\":6388:6493   */\n      sstore\n        /* \"#utility.yul\":6306:6499   */\n      pop\n        /* \"#utility.yul\":6230:6499   */\n      pop\n      pop\n      pop\n      jump\t// out\n        /* \"#utility.yul\":6505:6578   */\n    tag_82:\n        /* \"#utility.yul\":6550:6553   */\n      0x00\n        /* \"#utility.yul\":6505:6578   */\n      swap1\n      jump\t// out\n        /* \"#utility.yul\":6584:6773   */\n    tag_83:\n        /* \"#utility.yul\":6661:6693   */\n      tag_162\n      tag_82\n      jump\t// in\n    tag_162:\n        /* \"#utility.yul\":6702:6767   */\n      tag_163\n        /* \"#utility.yul\":6760:6766   */\n      dup2\n        /* \"#utility.yul\":6752:6758   */\n      dup5\n        /* \"#utility.yul\":6746:6750   */\n      dup5\n        /* \"#utility.yul\":6702:6767   */\n      tag_81\n      jump\t// in\n    tag_163:\n        /* \"#utility.yul\":6637:6773   */\n      pop\n        /* \"#utility.yul\":6584:6773   */\n      pop\n      pop\n      jump\t// out\n        /* \"#utility.yul\":6779:6965   */\n    tag_84:\n        /* \"#utility.yul\":6839:6959   */\n    tag_165:\n        /* \"#utility.yul\":6856:6859   */\n      dup2\n        /* \"#utility.yul\":6849:6854   */\n      dup2\n        /* \"#utility.yul\":6846:6860   */\n      lt\n        /* \"#utility.yul\":6839:6959   */\n      iszero\n      tag_167\n      jumpi\n        /* \"#utility.yul\":6910:6949   */\n      tag_168\n        /* \"#utility.yul\":6947:6948   */\n      0x00\n        /* \"#utility.yul\":6940:6945   */\n      dup3\n        /* \"#utility.yul\":6910:6949   */\n      tag_83\n      jump\t// in\n    tag_168:\n        /* \"#utility.yul\":6883:6884   */\n      0x01\n        /* \"#utility.yul\":6876:6881   */\n      dup2\n        /* \"#utility.yul\":6872:6885   */\n      add\n        /* \"#utility.yul\":6863:6885   */\n      swap1\n      pop\n        /* \"#utility.yul\":6839:6959   */\n      jump(tag_165)\n    tag_167:\n        /* \"#utility.yul\":6779:6965   */\n      pop\n      pop\n      jump\t// out\n        /* \"#utility.yul\":6971:7512   */\n    tag_85:\n        /* \"#utility.yul\":7071:7073   */\n      0x1f\n        /* \"#utility.yul\":7066:7069   */\n      dup3\n        /* \"#utility.yul\":7063:7074   */\n      gt\n        /* \"#utility.yul\":7060:7505   */\n      iszero\n      tag_170\n      jumpi\n        /* \"#utility.yul\":7105:7142   */\n      tag_171\n        /* \"#utility.yul\":7136:7141   */\n      dup2\n        /* \"#utility.yul\":7105:7142   */\n      tag_74\n      jump\t// in\n    tag_171:\n        /* \"#utility.yul\":7188:7217   */\n      tag_172\n        /* \"#utility.yul\":7206:7216   */\n      dup5\n        /* \"#utility.yul\":7188:7217   */\n      tag_75\n      jump\t// in\n    tag_172:\n        /* \"#utility.yul\":7178:7186   */\n      dup2\n        /* \"#utility.yul\":7174:7218   */\n      add\n        /* \"#utility.yul\":7371:7373   */\n      0x20\n        /* \"#utility.yul\":7359:7369   */\n      dup6\n        /* \"#utility.yul\":7356:7374   */\n      lt\n        /* \"#utility.yul\":7353:7402   */\n      iszero\n      tag_173\n      jumpi\n        /* \"#utility.yul\":7392:7400   */\n      dup2\n        /* \"#utility.yul\":7377:7400   */\n      swap1\n      pop\n        /* \"#utility.yul\":7353:7402   */\n    tag_173:\n        /* \"#utility.yul\":7415:7495   */\n      tag_174\n        /* \"#utility.yul\":7471:7493   */\n      tag_175\n        /* \"#utility.yul\":7489:7492   */\n      dup6\n        /* \"#utility.yul\":7471:7493   */\n      tag_75\n      jump\t// in\n    tag_175:\n        /* \"#utility.yul\":7461:7469   */\n      dup4\n        /* \"#utility.yul\":7457:7494   */\n      add\n        /* \"#utility.yul\":7444:7455   */\n      dup3\n        /* \"#utility.yul\":7415:7495   */\n      tag_84\n      jump\t// in\n    tag_174:\n        /* \"#utility.yul\":7075:7505   */\n      pop\n      pop\n        /* \"#utility.yul\":7060:7505   */\n    tag_170:\n        /* \"#utility.yul\":6971:7512   */\n      pop\n      pop\n      pop\n      jump\t// out\n        /* \"#utility.yul\":7518:7635   */\n    tag_86:\n        /* \"#utility.yul\":7572:7580   */\n      0x00\n        /* \"#utility.yul\":7622:7627   */\n      dup3\n        /* \"#utility.yul\":7616:7620   */\n      dup3\n        /* \"#utility.yul\":7612:7628   */\n      shr\n        /* \"#utility.yul\":7591:7628   */\n      swap1\n      pop\n        /* \"#utility.yul\":7518:7635   */\n      swap3\n      swap2\n      pop\n      pop\n      jump\t// out\n        /* \"#utility.yul\":7641:7810   */\n    tag_87:\n        /* \"#utility.yul\":7685:7691   */\n      0x00\n        /* \"#utility.yul\":7718:7769   */\n      tag_178\n        /* \"#utility.yul\":7766:7767   */\n      0x00\n        /* \"#utility.yul\":7762:7768   */\n      not\n        /* \"#utility.yul\":7754:7759   */\n      dup5\n        /* \"#utility.yul\":7751:7752   */\n      0x08\n        /* \"#utility.yul\":7747:7760   */\n      mul\n        /* \"#utility.yul\":7718:7769   */\n      tag_86\n      jump\t// in\n    tag_178:\n        /* \"#utility.yul\":7714:7770   */\n      not\n        /* \"#utility.yul\":7799:7803   */\n      dup1\n        /* \"#utility.yul\":7793:7797   */\n      dup4\n        /* \"#utility.yul\":7789:7804   */\n      and\n        /* \"#utility.yul\":7779:7804   */\n      swap2\n      pop\n        /* \"#utility.yul\":7692:7810   */\n      pop\n        /* \"#utility.yul\":7641:7810   */\n      swap3\n      swap2\n      pop\n      pop\n      jump\t// out\n        /* \"#utility.yul\":7815:8110   */\n    tag_88:\n        /* \"#utility.yul\":7891:7895   */\n      0x00\n        /* \"#utility.yul\":8037:8066   */\n      tag_180\n        /* \"#utility.yul\":8062:8065   */\n      dup4\n        /* \"#utility.yul\":8056:8060   */\n      dup4\n        /* \"#utility.yul\":8037:8066   */\n      tag_87\n      jump\t// in\n    tag_180:\n        /* \"#utility.yul\":8029:8066   */\n      swap2\n      pop\n        /* \"#utility.yul\":8099:8102   */\n      dup3\n        /* \"#utility.yul\":8096:8097   */\n      0x02\n        /* \"#utility.yul\":8092:8103   */\n      mul\n        /* \"#utility.yul\":8086:8090   */\n      dup3\n        /* \"#utility.yul\":8083:8104   */\n      or\n        /* \"#utility.yul\":8075:8104   */\n      swap1\n      pop\n        /* \"#utility.yul\":7815:8110   */\n      swap3\n      swap2\n      pop\n      pop\n      jump\t// out\n        /* \"#utility.yul\":8115:9507   */\n    tag_52:\n        /* \"#utility.yul\":8231:8268   */\n      tag_182\n        /* \"#utility.yul\":8264:8267   */\n      dup3\n        /* \"#utility.yul\":8231:8268   */\n      tag_72\n      jump\t// in\n    tag_182:\n        /* \"#utility.yul\":8333:8351   */\n      0xffffffffffffffff\n        /* \"#utility.yul\":8325:8331   */\n      dup2\n        /* \"#utility.yul\":8322:8352   */\n      gt\n        /* \"#utility.yul\":8319:8375   */\n      iszero\n      tag_183\n      jumpi\n        /* \"#utility.yul\":8355:8373   */\n      tag_184\n      tag_73\n      jump\t// in\n    tag_184:\n        /* \"#utility.yul\":8319:8375   */\n    tag_183:\n        /* \"#utility.yul\":8399:8437   */\n      tag_185\n        /* \"#utility.yul\":8431:8435   */\n      dup3\n        /* \"#utility.yul\":8425:8436   */\n      sload\n        /* \"#utility.yul\":8399:8437   */\n      tag_40\n      jump\t// in\n    tag_185:\n        /* \"#utility.yul\":8484:8550   */\n      tag_186\n        /* \"#utility.yul\":8543:8549   */\n      dup3\n        /* \"#utility.yul\":8535:8541   */\n      dup3\n        /* \"#utility.yul\":8529:8533   */\n      dup6\n        /* \"#utility.yul\":8484:8550   */\n      tag_85\n      jump\t// in\n    tag_186:\n        /* \"#utility.yul\":8577:8578   */\n      0x00\n        /* \"#utility.yul\":8601:8605   */\n      0x20\n        /* \"#utility.yul\":8588:8605   */\n      swap1\n      pop\n        /* \"#utility.yul\":8633:8635   */\n      0x1f\n        /* \"#utility.yul\":8625:8631   */\n      dup4\n        /* \"#utility.yul\":8622:8636   */\n      gt\n        /* \"#utility.yul\":8650:8651   */\n      0x01\n        /* \"#utility.yul\":8645:9262   */\n      dup2\n      eq\n      tag_188\n      jumpi\n        /* \"#utility.yul\":9306:9307   */\n      0x00\n        /* \"#utility.yul\":9323:9329   */\n      dup5\n        /* \"#utility.yul\":9320:9397   */\n      iszero\n      tag_189\n      jumpi\n        /* \"#utility.yul\":9372:9381   */\n      dup3\n        /* \"#utility.yul\":9367:9370   */\n      dup8\n        /* \"#utility.yul\":9363:9382   */\n      add\n        /* \"#utility.yul\":9357:9383   */\n      mload\n        /* \"#utility.yul\":9348:9383   */\n      swap1\n      pop\n        /* \"#utility.yul\":9320:9397   */\n    tag_189:\n        /* \"#utility.yul\":9423:9490   */\n      tag_190\n        /* \"#utility.yul\":9483:9489   */\n      dup6\n        /* \"#utility.yul\":9476:9481   */\n      dup3\n        /* \"#utility.yul\":9423:9490   */\n      tag_88\n      jump\t// in\n    tag_190:\n        /* \"#utility.yul\":9417:9421   */\n      dup7\n        /* \"#utility.yul\":9410:9491   */\n      sstore\n        /* \"#utility.yul\":9279:9501   */\n      pop\n        /* \"#utility.yul\":8615:9501   */\n      jump(tag_187)\n        /* \"#utility.yul\":8645:9262   */\n    tag_188:\n        /* \"#utility.yul\":8697:8701   */\n      0x1f\n        /* \"#utility.yul\":8693:8702   */\n      not\n        /* \"#utility.yul\":8685:8691   */\n      dup5\n        /* \"#utility.yul\":8681:8703   */\n      and\n        /* \"#utility.yul\":8731:8767   */\n      tag_191\n        /* \"#utility.yul\":8762:8766   */\n      dup7\n        /* \"#utility.yul\":8731:8767   */\n      tag_74\n      jump\t// in\n    tag_191:\n        /* \"#utility.yul\":8789:8790   */\n      0x00\n        /* \"#utility.yul\":8803:9011   */\n    tag_192:\n        /* \"#utility.yul\":8817:8824   */\n      dup3\n        /* \"#utility.yul\":8814:8815   */\n      dup2\n        /* \"#utility.yul\":8811:8825   */\n      lt\n        /* \"#utility.yul\":8803:9011   */\n      iszero\n      tag_194\n      jumpi\n        /* \"#utility.yul\":8896:8905   */\n      dup5\n        /* \"#utility.yul\":8891:8894   */\n      dup10\n        /* \"#utility.yul\":8887:8906   */\n      add\n        /* \"#utility.yul\":8881:8907   */\n      mload\n        /* \"#utility.yul\":8873:8879   */\n      dup3\n        /* \"#utility.yul\":8866:8908   */\n      sstore\n        /* \"#utility.yul\":8947:8948   */\n      0x01\n        /* \"#utility.yul\":8939:8945   */\n      dup3\n        /* \"#utility.yul\":8935:8949   */\n      add\n        /* \"#utility.yul\":8925:8949   */\n      swap2\n      pop\n        /* \"#utility.yul\":8994:8996   */\n      0x20\n        /* \"#utility.yul\":8983:8992   */\n      dup6\n        /* \"#utility.yul\":8979:8997   */\n      add\n        /* \"#utility.yul\":8966:8997   */\n      swap5\n      pop\n        /* \"#utility.yul\":8840:8844   */\n      0x20\n        /* \"#utility.yul\":8837:8838   */\n      dup2\n        /* \"#utility.yul\":8833:8845   */\n      add\n        /* \"#utility.yul\":8828:8845   */\n      swap1\n      pop\n        /* \"#utility.yul\":8803:9011   */\n      jump(tag_192)\n    tag_194:\n        /* \"#utility.yul\":9039:9045   */\n      dup7\n        /* \"#utility.yul\":9030:9037   */\n      dup4\n        /* \"#utility.yul\":9027:9046   */\n      lt\n        /* \"#utility.yul\":9024:9203   */\n      iszero\n      tag_195\n      jumpi\n        /* \"#utility.yul\":9097:9106   */\n      dup5\n        /* \"#utility.yul\":9092:9095   */\n      dup10\n        /* \"#utility.yul\":9088:9107   */\n      add\n        /* \"#utility.yul\":9082:9108   */\n      mload\n        /* \"#utility.yul\":9140:9188   */\n      tag_196\n        /* \"#utility.yul\":9182:9186   */\n      0x1f\n        /* \"#utility.yul\":9174:9180   */\n      dup10\n        /* \"#utility.yul\":9170:9187   */\n      and\n        /* \"#utility.yul\":9159:9168   */\n      dup3\n        /* \"#utility.yul\":9140:9188   */\n      tag_87\n      jump\t// in\n    tag_196:\n        /* \"#utility.yul\":9132:9138   */\n      dup4\n        /* \"#utility.yul\":9125:9189   */\n      sstore\n        /* \"#utility.yul\":9047:9203   */\n      pop\n        /* \"#utility.yul\":9024:9203   */\n    tag_195:\n        /* \"#utility.yul\":9249:9250   */\n      0x01\n        /* \"#utility.yul\":9245:9246   */\n      0x02\n        /* \"#utility.yul\":9237:9243   */\n      dup9\n        /* \"#utility.yul\":9233:9247   */\n      mul\n        /* \"#utility.yul\":9229:9251   */\n      add\n        /* \"#utility.yul\":9223:9227   */\n      dup9\n        /* \"#utility.yul\":9216:9252   */\n      sstore\n        /* \"#utility.yul\":8652:9262   */\n      pop\n      pop\n      pop\n        /* \"#utility.yul\":8615:9501   */\n    tag_187:\n      pop\n        /* \"#utility.yul\":8206:9507   */\n      pop\n      pop\n      pop\n        /* \"#utility.yul\":8115:9507   */\n      pop\n      pop\n      jump\t// out\n\n    auxdata: 0xa2646970667358221220a14c63ab344e719cc6a520f101b5d3e446b5ebdaf1ec74f661db8b15c11ff65c64736f6c63430008110033\n}\n",
				"bytecode": {
					"linkReferences": {},
					"object": "60806040526040518060600160405280600160ff168152602001600260ff168152602001600360ff16815250600090600361003b92919061004e565b5034801561004857600080fd5b506100b0565b8260038101928215610082579160200282015b82811115610081578251829060ff16905591602001919060010190610061565b5b50905061008f9190610093565b5090565b5b808211156100ac576000816000905550600101610094565b5090565b610875806100bf6000396000f3fe608060405234801561001057600080fd5b506004361061007d5760003560e01c8063a16e72151161005b578063a16e7215146100dc578063ad95d6b4146100f8578063d39fa23314610102578063ee495002146101325761007d565b80630849cc99146100825780630add6ef2146100a05780634df7e3d0146100be575b600080fd5b61008a610150565b60405161009791906102e1565b60405180910390f35b6100a8610159565b6040516100b59190610337565b60405180910390f35b6100c661016c565b6040516100d391906103e2565b60405180910390f35b6100f660048036038101906100f19190610435565b6101fa565b005b610100610218565b005b61011c60048036038101906101179190610475565b61029a565b60405161012991906102e1565b60405180910390f35b61013a6102b5565b60405161014791906104dd565b60405180910390f35b60006003905090565b600460019054906101000a900460f01b81565b6003805461017990610527565b80601f01602080910402602001604051908101604052809291908181526020018280546101a590610527565b80156101f25780601f106101c7576101008083540402835291602001916101f2565b820191906000526020600020905b8154815290600101906020018083116101d557829003601f168201915b505050505081565b806000836003811061020f5761020e610558565b5b01819055505050565b6040518060400160405280600181526020017f61000000000000000000000000000000000000000000000000000000000000008152506003908161025c919061076d565b507f6200000000000000000000000000000000000000000000000000000000000000600460006101000a81548160ff021916908360f81c0217905550565b600081600381106102aa57600080fd5b016000915090505481565b600460009054906101000a900460f81b81565b6000819050919050565b6102db816102c8565b82525050565b60006020820190506102f660008301846102d2565b92915050565b60007fffff00000000000000000000000000000000000000000000000000000000000082169050919050565b610331816102fc565b82525050565b600060208201905061034c6000830184610328565b92915050565b600081519050919050565b600082825260208201905092915050565b60005b8381101561038c578082015181840152602081019050610371565b60008484015250505050565b6000601f19601f8301169050919050565b60006103b482610352565b6103be818561035d565b93506103ce81856020860161036e565b6103d781610398565b840191505092915050565b600060208201905081810360008301526103fc81846103a9565b905092915050565b600080fd5b610412816102c8565b811461041d57600080fd5b50565b60008135905061042f81610409565b92915050565b6000806040838503121561044c5761044b610404565b5b600061045a85828601610420565b925050602061046b85828601610420565b9150509250929050565b60006020828403121561048b5761048a610404565b5b600061049984828501610420565b91505092915050565b60007fff0000000000000000000000000000000000000000000000000000000000000082169050919050565b6104d7816104a2565b82525050565b60006020820190506104f260008301846104ce565b92915050565b7f4e487b7100000000000000000000000000000000000000000000000000000000600052602260045260246000fd5b6000600282049050600182168061053f57607f821691505b602082108103610552576105516104f8565b5b50919050565b7f4e487b7100000000000000000000000000000000000000000000000000000000600052603260045260246000fd5b600081519050919050565b7f4e487b7100000000000000000000000000000000000000000000000000000000600052604160045260246000fd5b60008190508160005260206000209050919050565b60006020601f8301049050919050565b600082821b905092915050565b6000600883026106237fffffffffffffffffffffffffffffffffffffffffffffffffffffffffffffffff826105e6565b61062d86836105e6565b95508019841693508086168417925050509392505050565b6000819050919050565b600061066a610665610660846102c8565b610645565b6102c8565b9050919050565b6000819050919050565b6106848361064f565b61069861069082610671565b8484546105f3565b825550505050565b600090565b6106ad6106a0565b6106b881848461067b565b505050565b5b818110156106dc576106d16000826106a5565b6001810190506106be565b5050565b601f821115610721576106f2816105c1565b6106fb846105d6565b8101602085101561070a578190505b61071e610716856105d6565b8301826106bd565b50505b505050565b600082821c905092915050565b600061074460001984600802610726565b1980831691505092915050565b600061075d8383610733565b9150826002028217905092915050565b61077682610587565b67ffffffffffffffff81111561078f5761078e610592565b5b6107998254610527565b6107a48282856106e0565b600060209050601f8311600181146107d757600084156107c5578287015190505b6107cf8582610751565b865550610837565b601f1984166107e5866105c1565b60005b8281101561080d578489015182556001820191506020850194506020810190506107e8565b8683101561082a5784890151610826601f891682610733565b8355505b6001600288020188555050505b50505050505056fea2646970667358221220a14c63ab344e719cc6a520f101b5d3e446b5ebdaf1ec74f661db8b15c11ff65c64736f6c63430008110033",
					"opcodes": "PUSH1 0x80 PUSH1 0x40 MSTORE PUSH1 0x40 MLOAD DUP1 PUSH1 0x60 ADD PUSH1 0x40 MSTORE DUP1 PUSH1 0x1 PUSH1 0xFF AND DUP2 MSTORE PUSH1 0x20 ADD PUSH1 0x2 PUSH1 0xFF AND DUP2 MSTORE PUSH1 0x20 ADD PUSH1 0x3 PUSH1 0xFF AND DUP2 MSTORE POP PUSH1 0x0 SWAP1 PUSH1 0x3 PUSH2 0x3B SWAP3 SWAP2 SWAP1 PUSH2 0x4E JUMP JUMPDEST POP CALLVALUE DUP1 ISZERO PUSH2 0x48 JUMPI PUSH1 0x0 DUP1 REVERT JUMPDEST POP PUSH2 0xB0 JUMP JUMPDEST DUP3 PUSH1 0x3 DUP2 ADD SWAP3 DUP3 ISZERO PUSH2 0x82 JUMPI SWAP2 PUSH1 0x20 MUL DUP3 ADD JUMPDEST DUP3 DUP2 GT ISZERO PUSH2 0x81 JUMPI DUP3 MLOAD DUP3 SWAP1 PUSH1 0xFF AND SWAP1 SSTORE SWAP2 PUSH1 0x20 ADD SWAP2 SWAP1 PUSH1 0x1 ADD SWAP1 PUSH2 0x61 JUMP JUMPDEST JUMPDEST POP SWAP1 POP PUSH2 0x8F SWAP2 SWAP1 PUSH2 0x93 JUMP JUMPDEST POP SWAP1 JUMP JUMPDEST JUMPDEST DUP1 DUP3 GT ISZERO PUSH2 0xAC JUMPI PUSH1 0x0 DUP2 PUSH1 0x0 SWAP1 SSTORE POP PUSH1 0x1 ADD PUSH2 0x94 JUMP JUMPDEST POP SWAP1 JUMP JUMPDEST PUSH2 0x875 DUP1 PUSH2 0xBF PUSH1 0x0 CODECOPY PUSH1 0x0 RETURN INVALID PUSH1 0x80 PUSH1 0x40 MSTORE CALLVALUE DUP1 ISZERO PUSH2 0x10 JUMPI PUSH1 0x0 DUP1 REVERT JUMPDEST POP PUSH1 0x4 CALLDATASIZE LT PUSH2 0x7D JUMPI PUSH1 0x0 CALLDATALOAD PUSH1 0xE0 SHR DUP1 PUSH4 0xA16E7215 GT PUSH2 0x5B JUMPI DUP1 PUSH4 0xA16E7215 EQ PUSH2 0xDC JUMPI DUP1 PUSH4 0xAD95D6B4 EQ PUSH2 0xF8 JUMPI DUP1 PUSH4 0xD39FA233 EQ PUSH2 0x102 JUMPI DUP1 PUSH4 0xEE495002 EQ PUSH2 0x132 JUMPI PUSH2 0x7D JUMP JUMPDEST DUP1 PUSH4 0x849CC99 EQ PUSH2 0x82 JUMPI DUP1 PUSH4 0xADD6EF2 EQ PUSH2 0xA0 JUMPI DUP1 PUSH4 0x4DF7E3D0 EQ PUSH2 0xBE JUMPI JUMPDEST PUSH1 0x0 DUP1 REVERT JUMPDEST PUSH2 0x8A PUSH2 0x150 JUMP JUMPDEST PUSH1 0x40 MLOAD PUSH2 0x97 SWAP2 SWAP1 PUSH2 0x2E1 JUMP JUMPDEST PUSH1 0x40 MLOAD DUP1 SWAP2 SUB SWAP1 RETURN JUMPDEST PUSH2 0xA8 PUSH2 0x159 JUMP JUMPDEST PUSH1 0x40 MLOAD PUSH2 0xB5 SWAP2 SWAP1 PUSH2 0x337 JUMP JUMPDEST PUSH1 0x40 MLOAD DUP1 SWAP2 SUB SWAP1 RETURN JUMPDEST PUSH2 0xC6 PUSH2 0x16C JUMP JUMPDEST PUSH1 0x40 MLOAD PUSH2 0xD3 SWAP2 SWAP1 PUSH2 0x3E2 JUMP JUMPDEST PUSH1 0x40 MLOAD DUP1 SWAP2 SUB SWAP1 RETURN JUMPDEST PUSH2 0xF6 PUSH1 0x4 DUP1 CALLDATASIZE SUB DUP2 ADD SWAP1 PUSH2 0xF1 SWAP2 SWAP1 PUSH2 0x435 JUMP JUMPDEST PUSH2 0x1FA JUMP JUMPDEST STOP JUMPDEST PUSH2 0x100 PUSH2 0x218 JUMP JUMPDEST STOP JUMPDEST PUSH2 0x11C PUSH1 0x4 DUP1 CALLDATASIZE SUB DUP2 ADD SWAP1 PUSH2 0x117 SWAP2 SWAP1 PUSH2 0x475 JUMP JUMPDEST PUSH2 0x29A JUMP JUMPDEST PUSH1 0x40 MLOAD PUSH2 0x129 SWAP2 SWAP1 PUSH2 0x2E1 JUMP JUMPDEST PUSH1 0x40 MLOAD DUP1 SWAP2 SUB SWAP1 RETURN JUMPDEST PUSH2 0x13A PUSH2 0x2B5 JUMP JUMPDEST PUSH1 0x40 MLOAD PUSH2 0x147 SWAP2 SWAP1 PUSH2 0x4DD JUMP JUMPDEST PUSH1 0x40 MLOAD DUP1 SWAP2 SUB SWAP1 RETURN JUMPDEST PUSH1 0x0 PUSH1 0x3 SWAP1 POP SWAP1 JUMP JUMPDEST PUSH1 0x4 PUSH1 0x1 SWAP1 SLOAD SWAP1 PUSH2 0x100 EXP SWAP1 DIV PUSH1 0xF0 SHL DUP2 JUMP JUMPDEST PUSH1 0x3 DUP1 SLOAD PUSH2 0x179 SWAP1 PUSH2 0x527 JUMP JUMPDEST DUP1 PUSH1 0x1F ADD PUSH1 0x20 DUP1 SWAP2 DIV MUL PUSH1 0x20 ADD PUSH1 0x40 MLOAD SWAP1 DUP2 ADD PUSH1 0x40 MSTORE DUP1 SWAP3 SWAP2 SWAP1 DUP2 DUP2 MSTORE PUSH1 0x20 ADD DUP3 DUP1 SLOAD PUSH2 0x1A5 SWAP1 PUSH2 0x527 JUMP JUMPDEST DUP1 ISZERO PUSH2 0x1F2 JUMPI DUP1 PUSH1 0x1F LT PUSH2 0x1C7 JUMPI PUSH2 0x100 DUP1 DUP4 SLOAD DIV MUL DUP4 MSTORE SWAP2 PUSH1 0x20 ADD SWAP2 PUSH2 0x1F2 JUMP JUMPDEST DUP3 ADD SWAP2 SWAP1 PUSH1 0x0 MSTORE PUSH1 0x20 PUSH1 0x0 KECCAK256 SWAP1 JUMPDEST DUP2 SLOAD DUP2 MSTORE SWAP1 PUSH1 0x1 ADD SWAP1 PUSH1 0x20 ADD DUP1 DUP4 GT PUSH2 0x1D5 JUMPI DUP3 SWAP1 SUB PUSH1 0x1F AND DUP3 ADD SWAP2 JUMPDEST POP POP POP POP POP DUP2 JUMP JUMPDEST DUP1 PUSH1 0x0 DUP4 PUSH1 0x3 DUP2 LT PUSH2 0x20F JUMPI PUSH2 0x20E PUSH2 0x558 JUMP JUMPDEST JUMPDEST ADD DUP2 SWAP1 SSTORE POP POP POP JUMP JUMPDEST PUSH1 0x40 MLOAD DUP1 PUSH1 0x40 ADD PUSH1 0x40 MSTORE DUP1 PUSH1 0x1 DUP2 MSTORE PUSH1 0x20 ADD PUSH32 0x6100000000000000000000000000000000000000000000000000000000000000 DUP2 MSTORE POP PUSH1 0x3 SWAP1 DUP2 PUSH2 0x25C SWAP2 SWAP1 PUSH2 0x76D JUMP JUMPDEST POP PUSH32 0x6200000000000000000000000000000000000000000000000000000000000000 PUSH1 0x4 PUSH1 0x0 PUSH2 0x100 EXP DUP2 SLOAD DUP2 PUSH1 0xFF MUL NOT AND SWAP1 DUP4 PUSH1 0xF8 SHR MUL OR SWAP1 SSTORE POP JUMP JUMPDEST PUSH1 0x0 DUP2 PUSH1 0x3 DUP2 LT PUSH2 0x2AA JUMPI PUSH1 0x0 DUP1 REVERT JUMPDEST ADD PUSH1 0x0 SWAP2 POP SWAP1 POP SLOAD DUP2 JUMP JUMPDEST PUSH1 0x4 PUSH1 0x0 SWAP1 SLOAD SWAP1 PUSH2 0x100 EXP SWAP1 DIV PUSH1 0xF8 SHL DUP2 JUMP JUMPDEST PUSH1 0x0 DUP2 SWAP1 POP SWAP2 SWAP1 POP JUMP JUMPDEST PUSH2 0x2DB DUP2 PUSH2 0x2C8 JUMP JUMPDEST DUP3 MSTORE POP POP JUMP JUMPDEST PUSH1 0x0 PUSH1 0x20 DUP3 ADD SWAP1 POP PUSH2 0x2F6 PUSH1 0x0 DUP4 ADD DUP5 PUSH2 0x2D2 JUMP JUMPDEST SWAP3 SWAP2 POP POP JUMP JUMPDEST PUSH1 0x0 PUSH32 0xFFFF000000000000000000000000000000000000000000000000000000000000 DUP3 AND SWAP1 POP SWAP2 SWAP1 POP JUMP JUMPDEST PUSH2 0x331 DUP2 PUSH2 0x2FC JUMP JUMPDEST DUP3 MSTORE POP POP JUMP JUMPDEST PUSH1 0x0 PUSH1 0x20 DUP3 ADD SWAP1 POP PUSH2 0x34C PUSH1 0x0 DUP4 ADD DUP5 PUSH2 0x328 JUMP JUMPDEST SWAP3 SWAP2 POP POP JUMP JUMPDEST PUSH1 0x0 DUP2 MLOAD SWAP1 POP SWAP2 SWAP1 POP JUMP JUMPDEST PUSH1 0x0 DUP3 DUP3 MSTORE PUSH1 0x20 DUP3 ADD SWAP1 POP SWAP3 SWAP2 POP POP JUMP JUMPDEST PUSH1 0x0 JUMPDEST DUP4 DUP2 LT ISZERO PUSH2 0x38C JUMPI DUP1 DUP3 ADD MLOAD DUP2 DUP5 ADD MSTORE PUSH1 0x20 DUP2 ADD SWAP1 POP PUSH2 0x371 JUMP JUMPDEST PUSH1 0x0 DUP5 DUP5 ADD MSTORE POP POP POP POP JUMP JUMPDEST PUSH1 0x0 PUSH1 0x1F NOT PUSH1 0x1F DUP4 ADD AND SWAP1 POP SWAP2 SWAP1 POP JUMP JUMPDEST PUSH1 0x0 PUSH2 0x3B4 DUP3 PUSH2 0x352 JUMP JUMPDEST PUSH2 0x3BE DUP2 DUP6 PUSH2 0x35D JUMP JUMPDEST SWAP4 POP PUSH2 0x3CE DUP2 DUP6 PUSH1 0x20 DUP7 ADD PUSH2 0x36E JUMP JUMPDEST PUSH2 0x3D7 DUP2 PUSH2 0x398 JUMP JUMPDEST DUP5 ADD SWAP2 POP POP SWAP3 SWAP2 POP POP JUMP JUMPDEST PUSH1 0x0 PUSH1 0x20 DUP3 ADD SWAP1 POP DUP2 DUP2 SUB PUSH1 0x0 DUP4 ADD MSTORE PUSH2 0x3FC DUP2 DUP5 PUSH2 0x3A9 JUMP JUMPDEST SWAP1 POP SWAP3 SWAP2 POP POP JUMP JUMPDEST PUSH1 0x0 DUP1 REVERT JUMPDEST PUSH2 0x412 DUP2 PUSH2 0x2C8 JUMP JUMPDEST DUP2 EQ PUSH2 0x41D JUMPI PUSH1 0x0 DUP1 REVERT JUMPDEST POP JUMP JUMPDEST PUSH1 0x0 DUP2 CALLDATALOAD SWAP1 POP PUSH2 0x42F DUP2 PUSH2 0x409 JUMP JUMPDEST SWAP3 SWAP2 POP POP JUMP JUMPDEST PUSH1 0x0 DUP1 PUSH1 0x40 DUP4 DUP6 SUB SLT ISZERO PUSH2 0x44C JUMPI PUSH2 0x44B PUSH2 0x404 JUMP JUMPDEST JUMPDEST PUSH1 0x0 PUSH2 0x45A DUP6 DUP3 DUP7 ADD PUSH2 0x420 JUMP JUMPDEST SWAP3 POP POP PUSH1 0x20 PUSH2 0x46B DUP6 DUP3 DUP7 ADD PUSH2 0x420 JUMP JUMPDEST SWAP2 POP POP SWAP3 POP SWAP3 SWAP1 POP JUMP JUMPDEST PUSH1 0x0 PUSH1 0x20 DUP3 DUP5 SUB SLT ISZERO PUSH2 0x48B JUMPI PUSH2 0x48A PUSH2 0x404 JUMP JUMPDEST JUMPDEST PUSH1 0x0 PUSH2 0x499 DUP5 DUP3 DUP6 ADD PUSH2 0x420 JUMP JUMPDEST SWAP2 POP POP SWAP3 SWAP2 POP POP JUMP JUMPDEST PUSH1 0x0 PUSH32 0xFF00000000000000000000000000000000000000000000000000000000000000 DUP3 AND SWAP1 POP SWAP2 SWAP1 POP JUMP JUMPDEST PUSH2 0x4D7 DUP2 PUSH2 0x4A2 JUMP JUMPDEST DUP3 MSTORE POP POP JUMP JUMPDEST PUSH1 0x0 PUSH1 0x20 DUP3 ADD SWAP1 POP PUSH2 0x4F2 PUSH1 0x0 DUP4 ADD DUP5 PUSH2 0x4CE JUMP JUMPDEST SWAP3 SWAP2 POP POP JUMP JUMPDEST PUSH32 0x4E487B7100000000000000000000000000000000000000000000000000000000 PUSH1 0x0 MSTORE PUSH1 0x22 PUSH1 0x4 MSTORE PUSH1 0x24 PUSH1 0x0 REVERT JUMPDEST PUSH1 0x0 PUSH1 0x2 DUP3 DIV SWAP1 POP PUSH1 0x1 DUP3 AND DUP1 PUSH2 0x53F JUMPI PUSH1 0x7F DUP3 AND SWAP2 POP JUMPDEST PUSH1 0x20 DUP3 LT DUP2 SUB PUSH2 0x552 JUMPI PUSH2 0x551 PUSH2 0x4F8 JUMP JUMPDEST JUMPDEST POP SWAP2 SWAP1 POP JUMP JUMPDEST PUSH32 0x4E487B7100000000000000000000000000000000000000000000000000000000 PUSH1 0x0 MSTORE PUSH1 0x32 PUSH1 0x4 MSTORE PUSH1 0x24 PUSH1 0x0 REVERT JUMPDEST PUSH1 0x0 DUP2 MLOAD SWAP1 POP SWAP2 SWAP1 POP JUMP JUMPDEST PUSH32 0x4E487B7100000000000000000000000000000000000000000000000000000000 PUSH1 0x0 MSTORE PUSH1 0x41 PUSH1 0x4 MSTORE PUSH1 0x24 PUSH1 0x0 REVERT JUMPDEST PUSH1 0x0 DUP2 SWAP1 POP DUP2 PUSH1 0x0 MSTORE PUSH1 0x20 PUSH1 0x0 KECCAK256 SWAP1 POP SWAP2 SWAP1 POP JUMP JUMPDEST PUSH1 0x0 PUSH1 0x20 PUSH1 0x1F DUP4 ADD DIV SWAP1 POP SWAP2 SWAP1 POP JUMP JUMPDEST PUSH1 0x0 DUP3 DUP3 SHL SWAP1 POP SWAP3 SWAP2 POP POP JUMP JUMPDEST PUSH1 0x0 PUSH1 0x8 DUP4 MUL PUSH2 0x623 PUSH32 0xFFFFFFFFFFFFFFFFFFFFFFFFFFFFFFFFFFFFFFFFFFFFFFFFFFFFFFFFFFFFFFFF DUP3 PUSH2 0x5E6 JUMP JUMPDEST PUSH2 0x62D DUP7 DUP4 PUSH2 0x5E6 JUMP JUMPDEST SWAP6 POP DUP1 NOT DUP5 AND SWAP4 POP DUP1 DUP7 AND DUP5 OR SWAP3 POP POP POP SWAP4 SWAP3 POP POP POP JUMP JUMPDEST PUSH1 0x0 DUP2 SWAP1 POP SWAP2 SWAP1 POP JUMP JUMPDEST PUSH1 0x0 PUSH2 0x66A PUSH2 0x665 PUSH2 0x660 DUP5 PUSH2 0x2C8 JUMP JUMPDEST PUSH2 0x645 JUMP JUMPDEST PUSH2 0x2C8 JUMP JUMPDEST SWAP1 POP SWAP2 SWAP1 POP JUMP JUMPDEST PUSH1 0x0 DUP2 SWAP1 POP SWAP2 SWAP1 POP JUMP JUMPDEST PUSH2 0x684 DUP4 PUSH2 0x64F JUMP JUMPDEST PUSH2 0x698 PUSH2 0x690 DUP3 PUSH2 0x671 JUMP JUMPDEST DUP5 DUP5 SLOAD PUSH2 0x5F3 JUMP JUMPDEST DUP3 SSTORE POP POP POP POP JUMP JUMPDEST PUSH1 0x0 SWAP1 JUMP JUMPDEST PUSH2 0x6AD PUSH2 0x6A0 JUMP JUMPDEST PUSH2 0x6B8 DUP2 DUP5 DUP5 PUSH2 0x67B JUMP JUMPDEST POP POP POP JUMP JUMPDEST JUMPDEST DUP2 DUP2 LT ISZERO PUSH2 0x6DC JUMPI PUSH2 0x6D1 PUSH1 0x0 DUP3 PUSH2 0x6A5 JUMP JUMPDEST PUSH1 0x1 DUP2 ADD SWAP1 POP PUSH2 0x6BE JUMP JUMPDEST POP POP JUMP JUMPDEST PUSH1 0x1F DUP3 GT ISZERO PUSH2 0x721 JUMPI PUSH2 0x6F2 DUP2 PUSH2 0x5C1 JUMP JUMPDEST PUSH2 0x6FB DUP5 PUSH2 0x5D6 JUMP JUMPDEST DUP2 ADD PUSH1 0x20 DUP6 LT ISZERO PUSH2 0x70A JUMPI DUP2 SWAP1 POP JUMPDEST PUSH2 0x71E PUSH2 0x716 DUP6 PUSH2 0x5D6 JUMP JUMPDEST DUP4 ADD DUP3 PUSH2 0x6BD JUMP JUMPDEST POP POP JUMPDEST POP POP POP JUMP JUMPDEST PUSH1 0x0 DUP3 DUP3 SHR SWAP1 POP SWAP3 SWAP2 POP POP JUMP JUMPDEST PUSH1 0x0 PUSH2 0x744 PUSH1 0x0 NOT DUP5 PUSH1 0x8 MUL PUSH2 0x726 JUMP JUMPDEST NOT DUP1 DUP4 AND SWAP2 POP POP SWAP3 SWAP2 POP POP JUMP JUMPDEST PUSH1 0x0 PUSH2 0x75D DUP4 DUP4 PUSH2 0x733 JUMP JUMPDEST SWAP2 POP DUP3 PUSH1 0x2 MUL DUP3 OR SWAP1 POP SWAP3 SWAP2 POP POP JUMP JUMPDEST PUSH2 0x776 DUP3 PUSH2 0x587 JUMP JUMPDEST PUSH8 0xFFFFFFFFFFFFFFFF DUP2 GT ISZERO PUSH2 0x78F JUMPI PUSH2 0x78E PUSH2 0x592 JUMP JUMPDEST JUMPDEST PUSH2 0x799 DUP3 SLOAD PUSH2 0x527 JUMP JUMPDEST PUSH2 0x7A4 DUP3 DUP3 DUP6 PUSH2 0x6E0 JUMP JUMPDEST PUSH1 0x0 PUSH1 0x20 SWAP1 POP PUSH1 0x1F DUP4 GT PUSH1 0x1 DUP2 EQ PUSH2 0x7D7 JUMPI PUSH1 0x0 DUP5 ISZERO PUSH2 0x7C5 JUMPI DUP3 DUP8 ADD MLOAD SWAP1 POP JUMPDEST PUSH2 0x7CF DUP6 DUP3 PUSH2 0x751 JUMP JUMPDEST DUP7 SSTORE POP PUSH2 0x837 JUMP JUMPDEST PUSH1 0x1F NOT DUP5 AND PUSH2 0x7E5 DUP7 PUSH2 0x5C1 JUMP JUMPDEST PUSH1 0x0 JUMPDEST DUP3 DUP2 LT ISZERO PUSH2 0x80D JUMPI DUP5 DUP10 ADD MLOAD DUP3 SSTORE PUSH1 0x1 DUP3 ADD SWAP2 POP PUSH1 0x20 DUP6 ADD SWAP5 POP PUSH1 0x20 DUP2 ADD SWAP1 POP PUSH2 0x7E8 JUMP JUMPDEST DUP7 DUP4 LT ISZERO PUSH2 0x82A JUMPI DUP5 DUP10 ADD MLOAD PUSH2 0x826 PUSH1 0x1F DUP10 AND DUP3 PUSH2 0x733 JUMP JUMPDEST DUP4 SSTORE POP JUMPDEST PUSH1 0x1 PUSH1 0x2 DUP9 MUL ADD DUP9 SSTORE POP POP POP JUMPDEST POP POP POP POP POP POP JUMP INVALID LOG2 PUSH5 0x6970667358 0x22 SLT KECCAK256 LOG1 0x4C PUSH4 0xAB344E71 SWAP13 0xC6 0xA5 KECCAK256 CALL ADD 0xB5 0xD3 0xE4 CHAINID 0xB5 0xEB 0xDA CALL 0xEC PUSH21 0xF661DB8B15C11FF65C64736F6C6343000811003300 "
				},
				"gasEstimates": {
					"creation": {
						"codeDepositCost": "433000",
						"executionCost": "infinite",
						"totalCost": "infinite"
					},
					"external": {
						"b()": "infinite",
						"b1()": "2537",
						"b2()": "2544",
						"getArrayLength()": "338",
						"numbers(uint256)": "infinite",
						"setBytes()": "infinite",
						"setElement(uint256,uint256)": "infinite"
					}
				},
				"methodIdentifiers": {
					"b()": "4df7e3d0",
					"b1()": "ee495002",
					"b2()": "0add6ef2",
					"getArrayLength()": "0849cc99",
					"numbers(uint256)": "d39fa233",
					"setBytes()": "ad95d6b4",
					"setElement(uint256,uint256)": "a16e7215"
				}
			},
			"storageLayout": {
				"storage": [
					{
						"astId": 9,
						"contract": "contracts/FixedSizeArrays.sol:FixedSizeArrays",
						"label": "numbers",
						"offset": 0,
						"slot": "0",
						"type": "t_array(t_uint256)3_storage"
					},
					{
						"astId": 34,
						"contract": "contracts/FixedSizeArrays.sol:FixedSizeArrays",
						"label": "b",
						"offset": 0,
						"slot": "3",
						"type": "t_bytes_storage"
					},
					{
						"astId": 36,
						"contract": "contracts/FixedSizeArrays.sol:FixedSizeArrays",
						"label": "b1",
						"offset": 0,
						"slot": "4",
						"type": "t_bytes1"
					},
					{
						"astId": 38,
						"contract": "contracts/FixedSizeArrays.sol:FixedSizeArrays",
						"label": "b2",
						"offset": 1,
						"slot": "4",
						"type": "t_bytes2"
					}
				],
				"types": {
					"t_array(t_uint256)3_storage": {
						"base": "t_uint256",
						"encoding": "inplace",
						"label": "uint256[3]",
						"numberOfBytes": "96"
					},
					"t_bytes1": {
						"encoding": "inplace",
						"label": "bytes1",
						"numberOfBytes": "1"
					},
					"t_bytes2": {
						"encoding": "inplace",
						"label": "bytes2",
						"numberOfBytes": "2"
					},
					"t_bytes_storage": {
						"encoding": "bytes",
						"label": "bytes",
						"numberOfBytes": "32"
					},
					"t_uint256": {
						"encoding": "inplace",
						"label": "uint256",
						"numberOfBytes": "32"
					}
				}
			},
			"userdoc": {
				"kind": "user",
				"methods": {},
				"version": 1
			}
		}
	}
}