{
	"contracts/ContractBalance.sol": {
		"PayableReceiveFallback": {
			"abi": [
				{
					"stateMutability": "payable",
					"type": "fallback"
				},
				{
					"inputs": [],
					"name": "balance",
					"outputs": [
						{
							"internalType": "uint256",
							"name": "",
							"type": "uint256"
						}
					],
					"stateMutability": "view",
					"type": "function"
				},
				{
					"inputs": [],
					"name": "send",
					"outputs": [],
					"stateMutability": "payable",
					"type": "function"
				},
				{
					"inputs": [
						{
							"internalType": "address payable",
							"name": "recipient",
							"type": "address"
						},
						{
							"internalType": "uint256",
							"name": "amount",
							"type": "uint256"
						}
					],
					"name": "transfer",
					"outputs": [
						{
							"internalType": "bool",
							"name": "",
							"type": "bool"
						}
					],
					"stateMutability": "nonpayable",
					"type": "function"
				},
				{
					"stateMutability": "payable",
					"type": "receive"
				}
			],
			"devdoc": {
				"kind": "dev",
				"methods": {},
				"version": 1
			},
			"evm": {
				"assembly": "    /* \"contracts/ContractBalance.sol\":64:606  contract PayableReceiveFallback {... */\n  mstore(0x40, 0x80)\n  callvalue\n  dup1\n  iszero\n  tag_1\n  jumpi\n  0x00\n  dup1\n  revert\ntag_1:\n  pop\n  dataSize(sub_0)\n  dup1\n  dataOffset(sub_0)\n  0x00\n  codecopy\n  0x00\n  return\nstop\n\nsub_0: assembly {\n        /* \"contracts/ContractBalance.sol\":64:606  contract PayableReceiveFallback {... */\n      mstore(0x40, 0x80)\n      jumpi(tag_1, lt(calldatasize, 0x04))\n      shr(0xe0, calldataload(0x00))\n      dup1\n      0xa9059cbb\n      eq\n      tag_3\n      jumpi\n      dup1\n      0xb46300ec\n      eq\n      tag_4\n      jumpi\n      dup1\n      0xb69ef8a8\n      eq\n      tag_5\n      jumpi\n      jump(tag_2)\n    tag_1:\n      jumpi(tag_2, calldatasize)\n      stop\n    tag_2:\n      stop\n        /* \"contracts/ContractBalance.sol\":356:603  function transfer(address payable recipient, uint amount) public returns(bool) {... */\n    tag_3:\n      callvalue\n      dup1\n      iszero\n      tag_10\n      jumpi\n      0x00\n      dup1\n      revert\n    tag_10:\n      pop\n      tag_11\n      0x04\n      dup1\n      calldatasize\n      sub\n      dup2\n      add\n      swap1\n      tag_12\n      swap2\n      swap1\n      tag_13\n      jump\t// in\n    tag_12:\n      tag_14\n      jump\t// in\n    tag_11:\n      mload(0x40)\n      tag_15\n      swap2\n      swap1\n      tag_16\n      jump\t// in\n    tag_15:\n      mload(0x40)\n      dup1\n      swap2\n      sub\n      swap1\n      return\n        /* \"contracts/ContractBalance.sol\":278:348  function send() public payable {... */\n    tag_4:\n      tag_17\n      tag_18\n      jump\t// in\n    tag_17:\n      stop\n        /* \"contracts/ContractBalance.sol\":178:270  function balance() public view returns(uint) {... */\n    tag_5:\n      callvalue\n      dup1\n      iszero\n      tag_19\n      jumpi\n      0x00\n      dup1\n      revert\n    tag_19:\n      pop\n      tag_20\n      tag_21\n      jump\t// in\n    tag_20:\n      mload(0x40)\n      tag_22\n      swap2\n      swap1\n      tag_23\n      jump\t// in\n    tag_22:\n      mload(0x40)\n      dup1\n      swap2\n      sub\n      swap1\n      return\n        /* \"contracts/ContractBalance.sol\":356:603  function transfer(address payable recipient, uint amount) public returns(bool) {... */\n    tag_14:\n        /* \"contracts/ContractBalance.sol\":429:433  bool */\n      0x00\n        /* \"contracts/ContractBalance.sol\":460:469  balance() */\n      tag_25\n        /* \"contracts/ContractBalance.sol\":460:467  balance */\n      tag_21\n        /* \"contracts/ContractBalance.sol\":460:469  balance() */\n      jump\t// in\n    tag_25:\n        /* \"contracts/ContractBalance.sol\":450:456  amount */\n      dup3\n        /* \"contracts/ContractBalance.sol\":450:469  amount <= balance() */\n      gt\n        /* \"contracts/ContractBalance.sol\":446:595  if (amount <= balance()) {... */\n      tag_26\n      jumpi\n        /* \"contracts/ContractBalance.sol\":486:495  recipient */\n      dup3\n        /* \"contracts/ContractBalance.sol\":486:504  recipient.transfer */\n      0xffffffffffffffffffffffffffffffffffffffff\n      and\n        /* \"contracts/ContractBalance.sol\":486:512  recipient.transfer(amount) */\n      0x08fc\n        /* \"contracts/ContractBalance.sol\":505:511  amount */\n      dup4\n        /* \"contracts/ContractBalance.sol\":486:512  recipient.transfer(amount) */\n      swap1\n      dup2\n      iszero\n      mul\n      swap1\n      mload(0x40)\n      0x00\n      mload(0x40)\n      dup1\n      dup4\n      sub\n      dup2\n      dup6\n      dup9\n      dup9\n      call\n      swap4\n      pop\n      pop\n      pop\n      pop\n      iszero\n      dup1\n      iszero\n      tag_28\n      jumpi\n      returndatasize\n      0x00\n      dup1\n      returndatacopy\n      revert(0x00, returndatasize)\n    tag_28:\n      pop\n        /* \"contracts/ContractBalance.sol\":534:538  true */\n      0x01\n        /* \"contracts/ContractBalance.sol\":527:538  return true */\n      swap1\n      pop\n      jump(tag_24)\n        /* \"contracts/ContractBalance.sol\":446:595  if (amount <= balance()) {... */\n    tag_26:\n        /* \"contracts/ContractBalance.sol\":578:583  false */\n      0x00\n        /* \"contracts/ContractBalance.sol\":571:583  return false */\n      swap1\n      pop\n        /* \"contracts/ContractBalance.sol\":356:603  function transfer(address payable recipient, uint amount) public returns(bool) {... */\n    tag_24:\n      swap3\n      swap2\n      pop\n      pop\n      jump\t// out\n        /* \"contracts/ContractBalance.sol\":278:348  function send() public payable {... */\n    tag_18:\n        /* \"contracts/ContractBalance.sol\":320:326  uint i */\n      0x00\n        /* \"contracts/ContractBalance.sol\":337:340  i++ */\n      dup1\n      dup1\n      tag_31\n      swap1\n      tag_32\n      jump\t// in\n    tag_31:\n      swap2\n      pop\n      pop\n        /* \"contracts/ContractBalance.sol\":309:348  {... */\n      pop\n        /* \"contracts/ContractBalance.sol\":278:348  function send() public payable {... */\n      jump\t// out\n        /* \"contracts/ContractBalance.sol\":178:270  function balance() public view returns(uint) {... */\n    tag_21:\n        /* \"contracts/ContractBalance.sol\":217:221  uint */\n      0x00\n        /* \"contracts/ContractBalance.sol\":241:262  address(this).balance */\n      selfbalance\n        /* \"contracts/ContractBalance.sol\":234:262  return address(this).balance */\n      swap1\n      pop\n        /* \"contracts/ContractBalance.sol\":178:270  function balance() public view returns(uint) {... */\n      swap1\n      jump\t// out\n        /* \"#utility.yul\":88:205   */\n    tag_35:\n        /* \"#utility.yul\":197:198   */\n      0x00\n        /* \"#utility.yul\":194:195   */\n      dup1\n        /* \"#utility.yul\":187:199   */\n      revert\n        /* \"#utility.yul\":334:460   */\n    tag_37:\n        /* \"#utility.yul\":371:378   */\n      0x00\n        /* \"#utility.yul\":411:453   */\n      0xffffffffffffffffffffffffffffffffffffffff\n        /* \"#utility.yul\":404:409   */\n      dup3\n        /* \"#utility.yul\":400:454   */\n      and\n        /* \"#utility.yul\":389:454   */\n      swap1\n      pop\n        /* \"#utility.yul\":334:460   */\n      swap2\n      swap1\n      pop\n      jump\t// out\n        /* \"#utility.yul\":466:570   */\n    tag_38:\n        /* \"#utility.yul\":511:518   */\n      0x00\n        /* \"#utility.yul\":540:564   */\n      tag_54\n        /* \"#utility.yul\":558:563   */\n      dup3\n        /* \"#utility.yul\":540:564   */\n      tag_37\n      jump\t// in\n    tag_54:\n        /* \"#utility.yul\":529:564   */\n      swap1\n      pop\n        /* \"#utility.yul\":466:570   */\n      swap2\n      swap1\n      pop\n      jump\t// out\n        /* \"#utility.yul\":576:714   */\n    tag_39:\n        /* \"#utility.yul\":657:689   */\n      tag_56\n        /* \"#utility.yul\":683:688   */\n      dup2\n        /* \"#utility.yul\":657:689   */\n      tag_38\n      jump\t// in\n    tag_56:\n        /* \"#utility.yul\":650:655   */\n      dup2\n        /* \"#utility.yul\":647:690   */\n      eq\n        /* \"#utility.yul\":637:708   */\n      tag_57\n      jumpi\n        /* \"#utility.yul\":704:705   */\n      0x00\n        /* \"#utility.yul\":701:702   */\n      dup1\n        /* \"#utility.yul\":694:706   */\n      revert\n        /* \"#utility.yul\":637:708   */\n    tag_57:\n        /* \"#utility.yul\":576:714   */\n      pop\n      jump\t// out\n        /* \"#utility.yul\":720:875   */\n    tag_40:\n        /* \"#utility.yul\":774:779   */\n      0x00\n        /* \"#utility.yul\":812:818   */\n      dup2\n        /* \"#utility.yul\":799:819   */\n      calldataload\n        /* \"#utility.yul\":790:819   */\n      swap1\n      pop\n        /* \"#utility.yul\":828:869   */\n      tag_59\n        /* \"#utility.yul\":863:868   */\n      dup2\n        /* \"#utility.yul\":828:869   */\n      tag_39\n      jump\t// in\n    tag_59:\n        /* \"#utility.yul\":720:875   */\n      swap3\n      swap2\n      pop\n      pop\n      jump\t// out\n        /* \"#utility.yul\":881:958   */\n    tag_41:\n        /* \"#utility.yul\":918:925   */\n      0x00\n        /* \"#utility.yul\":947:952   */\n      dup2\n        /* \"#utility.yul\":936:952   */\n      swap1\n      pop\n        /* \"#utility.yul\":881:958   */\n      swap2\n      swap1\n      pop\n      jump\t// out\n        /* \"#utility.yul\":964:1086   */\n    tag_42:\n        /* \"#utility.yul\":1037:1061   */\n      tag_62\n        /* \"#utility.yul\":1055:1060   */\n      dup2\n        /* \"#utility.yul\":1037:1061   */\n      tag_41\n      jump\t// in\n    tag_62:\n        /* \"#utility.yul\":1030:1035   */\n      dup2\n        /* \"#utility.yul\":1027:1062   */\n      eq\n        /* \"#utility.yul\":1017:1080   */\n      tag_63\n      jumpi\n        /* \"#utility.yul\":1076:1077   */\n      0x00\n        /* \"#utility.yul\":1073:1074   */\n      dup1\n        /* \"#utility.yul\":1066:1078   */\n      revert\n        /* \"#utility.yul\":1017:1080   */\n    tag_63:\n        /* \"#utility.yul\":964:1086   */\n      pop\n      jump\t// out\n        /* \"#utility.yul\":1092:1231   */\n    tag_43:\n        /* \"#utility.yul\":1138:1143   */\n      0x00\n        /* \"#utility.yul\":1176:1182   */\n      dup2\n        /* \"#utility.yul\":1163:1183   */\n      calldataload\n        /* \"#utility.yul\":1154:1183   */\n      swap1\n      pop\n        /* \"#utility.yul\":1192:1225   */\n      tag_65\n        /* \"#utility.yul\":1219:1224   */\n      dup2\n        /* \"#utility.yul\":1192:1225   */\n      tag_42\n      jump\t// in\n    tag_65:\n        /* \"#utility.yul\":1092:1231   */\n      swap3\n      swap2\n      pop\n      pop\n      jump\t// out\n        /* \"#utility.yul\":1237:1727   */\n    tag_13:\n        /* \"#utility.yul\":1313:1319   */\n      0x00\n        /* \"#utility.yul\":1321:1327   */\n      dup1\n        /* \"#utility.yul\":1370:1372   */\n      0x40\n        /* \"#utility.yul\":1358:1367   */\n      dup4\n        /* \"#utility.yul\":1349:1356   */\n      dup6\n        /* \"#utility.yul\":1345:1368   */\n      sub\n        /* \"#utility.yul\":1341:1373   */\n      slt\n        /* \"#utility.yul\":1338:1457   */\n      iszero\n      tag_67\n      jumpi\n        /* \"#utility.yul\":1376:1455   */\n      tag_68\n      tag_35\n      jump\t// in\n    tag_68:\n        /* \"#utility.yul\":1338:1457   */\n    tag_67:\n        /* \"#utility.yul\":1496:1497   */\n      0x00\n        /* \"#utility.yul\":1521:1582   */\n      tag_69\n        /* \"#utility.yul\":1574:1581   */\n      dup6\n        /* \"#utility.yul\":1565:1571   */\n      dup3\n        /* \"#utility.yul\":1554:1563   */\n      dup7\n        /* \"#utility.yul\":1550:1572   */\n      add\n        /* \"#utility.yul\":1521:1582   */\n      tag_40\n      jump\t// in\n    tag_69:\n        /* \"#utility.yul\":1511:1582   */\n      swap3\n      pop\n        /* \"#utility.yul\":1467:1592   */\n      pop\n        /* \"#utility.yul\":1631:1633   */\n      0x20\n        /* \"#utility.yul\":1657:1710   */\n      tag_70\n        /* \"#utility.yul\":1702:1709   */\n      dup6\n        /* \"#utility.yul\":1693:1699   */\n      dup3\n        /* \"#utility.yul\":1682:1691   */\n      dup7\n        /* \"#utility.yul\":1678:1700   */\n      add\n        /* \"#utility.yul\":1657:1710   */\n      tag_43\n      jump\t// in\n    tag_70:\n        /* \"#utility.yul\":1647:1710   */\n      swap2\n      pop\n        /* \"#utility.yul\":1602:1720   */\n      pop\n        /* \"#utility.yul\":1237:1727   */\n      swap3\n      pop\n      swap3\n      swap1\n      pop\n      jump\t// out\n        /* \"#utility.yul\":1733:1823   */\n    tag_44:\n        /* \"#utility.yul\":1767:1774   */\n      0x00\n        /* \"#utility.yul\":1810:1815   */\n      dup2\n        /* \"#utility.yul\":1803:1816   */\n      iszero\n        /* \"#utility.yul\":1796:1817   */\n      iszero\n        /* \"#utility.yul\":1785:1817   */\n      swap1\n      pop\n        /* \"#utility.yul\":1733:1823   */\n      swap2\n      swap1\n      pop\n      jump\t// out\n        /* \"#utility.yul\":1829:1938   */\n    tag_45:\n        /* \"#utility.yul\":1910:1931   */\n      tag_73\n        /* \"#utility.yul\":1925:1930   */\n      dup2\n        /* \"#utility.yul\":1910:1931   */\n      tag_44\n      jump\t// in\n    tag_73:\n        /* \"#utility.yul\":1905:1908   */\n      dup3\n        /* \"#utility.yul\":1898:1932   */\n      mstore\n        /* \"#utility.yul\":1829:1938   */\n      pop\n      pop\n      jump\t// out\n        /* \"#utility.yul\":1944:2154   */\n    tag_16:\n        /* \"#utility.yul\":2031:2035   */\n      0x00\n        /* \"#utility.yul\":2069:2071   */\n      0x20\n        /* \"#utility.yul\":2058:2067   */\n      dup3\n        /* \"#utility.yul\":2054:2072   */\n      add\n        /* \"#utility.yul\":2046:2072   */\n      swap1\n      pop\n        /* \"#utility.yul\":2082:2147   */\n      tag_75\n        /* \"#utility.yul\":2144:2145   */\n      0x00\n        /* \"#utility.yul\":2133:2142   */\n      dup4\n        /* \"#utility.yul\":2129:2146   */\n      add\n        /* \"#utility.yul\":2120:2126   */\n      dup5\n        /* \"#utility.yul\":2082:2147   */\n      tag_45\n      jump\t// in\n    tag_75:\n        /* \"#utility.yul\":1944:2154   */\n      swap3\n      swap2\n      pop\n      pop\n      jump\t// out\n        /* \"#utility.yul\":2160:2278   */\n    tag_46:\n        /* \"#utility.yul\":2247:2271   */\n      tag_77\n        /* \"#utility.yul\":2265:2270   */\n      dup2\n        /* \"#utility.yul\":2247:2271   */\n      tag_41\n      jump\t// in\n    tag_77:\n        /* \"#utility.yul\":2242:2245   */\n      dup3\n        /* \"#utility.yul\":2235:2272   */\n      mstore\n        /* \"#utility.yul\":2160:2278   */\n      pop\n      pop\n      jump\t// out\n        /* \"#utility.yul\":2284:2506   */\n    tag_23:\n        /* \"#utility.yul\":2377:2381   */\n      0x00\n        /* \"#utility.yul\":2415:2417   */\n      0x20\n        /* \"#utility.yul\":2404:2413   */\n      dup3\n        /* \"#utility.yul\":2400:2418   */\n      add\n        /* \"#utility.yul\":2392:2418   */\n      swap1\n      pop\n        /* \"#utility.yul\":2428:2499   */\n      tag_79\n        /* \"#utility.yul\":2496:2497   */\n      0x00\n        /* \"#utility.yul\":2485:2494   */\n      dup4\n        /* \"#utility.yul\":2481:2498   */\n      add\n        /* \"#utility.yul\":2472:2478   */\n      dup5\n        /* \"#utility.yul\":2428:2499   */\n      tag_46\n      jump\t// in\n    tag_79:\n        /* \"#utility.yul\":2284:2506   */\n      swap3\n      swap2\n      pop\n      pop\n      jump\t// out\n        /* \"#utility.yul\":2512:2692   */\n    tag_47:\n        /* \"#utility.yul\":2560:2637   */\n      0x4e487b7100000000000000000000000000000000000000000000000000000000\n        /* \"#utility.yul\":2557:2558   */\n      0x00\n        /* \"#utility.yul\":2550:2638   */\n      mstore\n        /* \"#utility.yul\":2657:2661   */\n      0x11\n        /* \"#utility.yul\":2654:2655   */\n      0x04\n        /* \"#utility.yul\":2647:2662   */\n      mstore\n        /* \"#utility.yul\":2681:2685   */\n      0x24\n        /* \"#utility.yul\":2678:2679   */\n      0x00\n        /* \"#utility.yul\":2671:2686   */\n      revert\n        /* \"#utility.yul\":2698:2931   */\n    tag_32:\n        /* \"#utility.yul\":2737:2740   */\n      0x00\n        /* \"#utility.yul\":2760:2784   */\n      tag_82\n        /* \"#utility.yul\":2778:2783   */\n      dup3\n        /* \"#utility.yul\":2760:2784   */\n      tag_41\n      jump\t// in\n    tag_82:\n        /* \"#utility.yul\":2751:2784   */\n      swap2\n      pop\n        /* \"#utility.yul\":2806:2872   */\n      0xffffffffffffffffffffffffffffffffffffffffffffffffffffffffffffffff\n        /* \"#utility.yul\":2799:2804   */\n      dup3\n        /* \"#utility.yul\":2796:2873   */\n      sub\n        /* \"#utility.yul\":2793:2896   */\n      tag_83\n      jumpi\n        /* \"#utility.yul\":2876:2894   */\n      tag_84\n      tag_47\n      jump\t// in\n    tag_84:\n        /* \"#utility.yul\":2793:2896   */\n    tag_83:\n        /* \"#utility.yul\":2923:2924   */\n      0x01\n        /* \"#utility.yul\":2916:2921   */\n      dup3\n        /* \"#utility.yul\":2912:2925   */\n      add\n        /* \"#utility.yul\":2905:2925   */\n      swap1\n      pop\n        /* \"#utility.yul\":2698:2931   */\n      swap2\n      swap1\n      pop\n      jump\t// out\n\n    auxdata: 0xa2646970667358221220a38a0cf575a6693820e11f11b62ca084146217ed2b2926dcc0005093a1221e1d64736f6c63430008110033\n}\n",
				"bytecode": {
					"linkReferences": {},
					"object": "608060405234801561001057600080fd5b5061031f806100206000396000f3fe6080604052600436106100385760003560e01c8063a9059cbb14610041578063b46300ec1461007e578063b69ef8a8146100885761003f565b3661003f57005b005b34801561004d57600080fd5b50610068600480360381019061006391906101d2565b6100b3565b604051610075919061022d565b60405180910390f35b61008661011e565b005b34801561009457600080fd5b5061009d610131565b6040516100aa9190610257565b60405180910390f35b60006100bd610131565b8211610113578273ffffffffffffffffffffffffffffffffffffffff166108fc839081150290604051600060405180830381858888f19350505050158015610109573d6000803e3d6000fd5b5060019050610118565b600090505b92915050565b6000808061012b906102a1565b91505050565b600047905090565b600080fd5b600073ffffffffffffffffffffffffffffffffffffffff82169050919050565b60006101698261013e565b9050919050565b6101798161015e565b811461018457600080fd5b50565b60008135905061019681610170565b92915050565b6000819050919050565b6101af8161019c565b81146101ba57600080fd5b50565b6000813590506101cc816101a6565b92915050565b600080604083850312156101e9576101e8610139565b5b60006101f785828601610187565b9250506020610208858286016101bd565b9150509250929050565b60008115159050919050565b61022781610212565b82525050565b6000602082019050610242600083018461021e565b92915050565b6102518161019c565b82525050565b600060208201905061026c6000830184610248565b92915050565b7f4e487b7100000000000000000000000000000000000000000000000000000000600052601160045260246000fd5b60006102ac8261019c565b91507fffffffffffffffffffffffffffffffffffffffffffffffffffffffffffffffff82036102de576102dd610272565b5b60018201905091905056fea2646970667358221220a38a0cf575a6693820e11f11b62ca084146217ed2b2926dcc0005093a1221e1d64736f6c63430008110033",
					"opcodes": "PUSH1 0x80 PUSH1 0x40 MSTORE CALLVALUE DUP1 ISZERO PUSH2 0x10 JUMPI PUSH1 0x0 DUP1 REVERT JUMPDEST POP PUSH2 0x31F DUP1 PUSH2 0x20 PUSH1 0x0 CODECOPY PUSH1 0x0 RETURN INVALID PUSH1 0x80 PUSH1 0x40 MSTORE PUSH1 0x4 CALLDATASIZE LT PUSH2 0x38 JUMPI PUSH1 0x0 CALLDATALOAD PUSH1 0xE0 SHR DUP1 PUSH4 0xA9059CBB EQ PUSH2 0x41 JUMPI DUP1 PUSH4 0xB46300EC EQ PUSH2 0x7E JUMPI DUP1 PUSH4 0xB69EF8A8 EQ PUSH2 0x88 JUMPI PUSH2 0x3F JUMP JUMPDEST CALLDATASIZE PUSH2 0x3F JUMPI STOP JUMPDEST STOP JUMPDEST CALLVALUE DUP1 ISZERO PUSH2 0x4D JUMPI PUSH1 0x0 DUP1 REVERT JUMPDEST POP PUSH2 0x68 PUSH1 0x4 DUP1 CALLDATASIZE SUB DUP2 ADD SWAP1 PUSH2 0x63 SWAP2 SWAP1 PUSH2 0x1D2 JUMP JUMPDEST PUSH2 0xB3 JUMP JUMPDEST PUSH1 0x40 MLOAD PUSH2 0x75 SWAP2 SWAP1 PUSH2 0x22D JUMP JUMPDEST PUSH1 0x40 MLOAD DUP1 SWAP2 SUB SWAP1 RETURN JUMPDEST PUSH2 0x86 PUSH2 0x11E JUMP JUMPDEST STOP JUMPDEST CALLVALUE DUP1 ISZERO PUSH2 0x94 JUMPI PUSH1 0x0 DUP1 REVERT JUMPDEST POP PUSH2 0x9D PUSH2 0x131 JUMP JUMPDEST PUSH1 0x40 MLOAD PUSH2 0xAA SWAP2 SWAP1 PUSH2 0x257 JUMP JUMPDEST PUSH1 0x40 MLOAD DUP1 SWAP2 SUB SWAP1 RETURN JUMPDEST PUSH1 0x0 PUSH2 0xBD PUSH2 0x131 JUMP JUMPDEST DUP3 GT PUSH2 0x113 JUMPI DUP3 PUSH20 0xFFFFFFFFFFFFFFFFFFFFFFFFFFFFFFFFFFFFFFFF AND PUSH2 0x8FC DUP4 SWAP1 DUP2 ISZERO MUL SWAP1 PUSH1 0x40 MLOAD PUSH1 0x0 PUSH1 0x40 MLOAD DUP1 DUP4 SUB DUP2 DUP6 DUP9 DUP9 CALL SWAP4 POP POP POP POP ISZERO DUP1 ISZERO PUSH2 0x109 JUMPI RETURNDATASIZE PUSH1 0x0 DUP1 RETURNDATACOPY RETURNDATASIZE PUSH1 0x0 REVERT JUMPDEST POP PUSH1 0x1 SWAP1 POP PUSH2 0x118 JUMP JUMPDEST PUSH1 0x0 SWAP1 POP JUMPDEST SWAP3 SWAP2 POP POP JUMP JUMPDEST PUSH1 0x0 DUP1 DUP1 PUSH2 0x12B SWAP1 PUSH2 0x2A1 JUMP JUMPDEST SWAP2 POP POP POP JUMP JUMPDEST PUSH1 0x0 SELFBALANCE SWAP1 POP SWAP1 JUMP JUMPDEST PUSH1 0x0 DUP1 REVERT JUMPDEST PUSH1 0x0 PUSH20 0xFFFFFFFFFFFFFFFFFFFFFFFFFFFFFFFFFFFFFFFF DUP3 AND SWAP1 POP SWAP2 SWAP1 POP JUMP JUMPDEST PUSH1 0x0 PUSH2 0x169 DUP3 PUSH2 0x13E JUMP JUMPDEST SWAP1 POP SWAP2 SWAP1 POP JUMP JUMPDEST PUSH2 0x179 DUP2 PUSH2 0x15E JUMP JUMPDEST DUP2 EQ PUSH2 0x184 JUMPI PUSH1 0x0 DUP1 REVERT JUMPDEST POP JUMP JUMPDEST PUSH1 0x0 DUP2 CALLDATALOAD SWAP1 POP PUSH2 0x196 DUP2 PUSH2 0x170 JUMP JUMPDEST SWAP3 SWAP2 POP POP JUMP JUMPDEST PUSH1 0x0 DUP2 SWAP1 POP SWAP2 SWAP1 POP JUMP JUMPDEST PUSH2 0x1AF DUP2 PUSH2 0x19C JUMP JUMPDEST DUP2 EQ PUSH2 0x1BA JUMPI PUSH1 0x0 DUP1 REVERT JUMPDEST POP JUMP JUMPDEST PUSH1 0x0 DUP2 CALLDATALOAD SWAP1 POP PUSH2 0x1CC DUP2 PUSH2 0x1A6 JUMP JUMPDEST SWAP3 SWAP2 POP POP JUMP JUMPDEST PUSH1 0x0 DUP1 PUSH1 0x40 DUP4 DUP6 SUB SLT ISZERO PUSH2 0x1E9 JUMPI PUSH2 0x1E8 PUSH2 0x139 JUMP JUMPDEST JUMPDEST PUSH1 0x0 PUSH2 0x1F7 DUP6 DUP3 DUP7 ADD PUSH2 0x187 JUMP JUMPDEST SWAP3 POP POP PUSH1 0x20 PUSH2 0x208 DUP6 DUP3 DUP7 ADD PUSH2 0x1BD JUMP JUMPDEST SWAP2 POP POP SWAP3 POP SWAP3 SWAP1 POP JUMP JUMPDEST PUSH1 0x0 DUP2 ISZERO ISZERO SWAP1 POP SWAP2 SWAP1 POP JUMP JUMPDEST PUSH2 0x227 DUP2 PUSH2 0x212 JUMP JUMPDEST DUP3 MSTORE POP POP JUMP JUMPDEST PUSH1 0x0 PUSH1 0x20 DUP3 ADD SWAP1 POP PUSH2 0x242 PUSH1 0x0 DUP4 ADD DUP5 PUSH2 0x21E JUMP JUMPDEST SWAP3 SWAP2 POP POP JUMP JUMPDEST PUSH2 0x251 DUP2 PUSH2 0x19C JUMP JUMPDEST DUP3 MSTORE POP POP JUMP JUMPDEST PUSH1 0x0 PUSH1 0x20 DUP3 ADD SWAP1 POP PUSH2 0x26C PUSH1 0x0 DUP4 ADD DUP5 PUSH2 0x248 JUMP JUMPDEST SWAP3 SWAP2 POP POP JUMP JUMPDEST PUSH32 0x4E487B7100000000000000000000000000000000000000000000000000000000 PUSH1 0x0 MSTORE PUSH1 0x11 PUSH1 0x4 MSTORE PUSH1 0x24 PUSH1 0x0 REVERT JUMPDEST PUSH1 0x0 PUSH2 0x2AC DUP3 PUSH2 0x19C JUMP JUMPDEST SWAP2 POP PUSH32 0xFFFFFFFFFFFFFFFFFFFFFFFFFFFFFFFFFFFFFFFFFFFFFFFFFFFFFFFFFFFFFFFF DUP3 SUB PUSH2 0x2DE JUMPI PUSH2 0x2DD PUSH2 0x272 JUMP JUMPDEST JUMPDEST PUSH1 0x1 DUP3 ADD SWAP1 POP SWAP2 SWAP1 POP JUMP INVALID LOG2 PUSH5 0x6970667358 0x22 SLT KECCAK256 LOG3 DUP11 0xC CREATE2 PUSH22 0xA6693820E11F11B62CA084146217ED2B2926DCC00050 SWAP4 LOG1 0x22 0x1E SAR PUSH5 0x736F6C6343 STOP ADDMOD GT STOP CALLER "
				},
				"gasEstimates": {
					"creation": {
						"codeDepositCost": "159800",
						"executionCost": "202",
						"totalCost": "160002"
					},
					"external": {
						"": "129",
						"balance()": "361",
						"send()": "264",
						"transfer(address,uint256)": "infinite"
					}
				},
				"methodIdentifiers": {
					"balance()": "b69ef8a8",
					"send()": "b46300ec",
					"transfer(address,uint256)": "a9059cbb"
				}
			},
			"storageLayout": {
				"storage": [],
				"types": null
			},
			"userdoc": {
				"kind": "user",
				"methods": {},
				"version": 1
			}
		}
	}
}