{
	"contracts/ContractBalance.sol": {
		"PayableReceiveFallback": {
			"abi": [
				{
					"inputs": [],
					"stateMutability": "nonpayable",
					"type": "constructor"
				},
				{
					"stateMutability": "payable",
					"type": "fallback"
				},
				{
					"inputs": [],
					"name": "balance",
					"outputs": [
						{
							"internalType": "uint256",
							"name": "",
							"type": "uint256"
						}
					],
					"stateMutability": "view",
					"type": "function"
				},
				{
					"inputs": [],
					"name": "owner",
					"outputs": [
						{
							"internalType": "address",
							"name": "",
							"type": "address"
						}
					],
					"stateMutability": "view",
					"type": "function"
				},
				{
					"inputs": [],
					"name": "send",
					"outputs": [],
					"stateMutability": "payable",
					"type": "function"
				},
				{
					"inputs": [
						{
							"internalType": "address payable",
							"name": "_to",
							"type": "address"
						},
						{
							"internalType": "uint256",
							"name": "_amount",
							"type": "uint256"
						}
					],
					"name": "transfer",
					"outputs": [
						{
							"internalType": "bool",
							"name": "",
							"type": "bool"
						}
					],
					"stateMutability": "nonpayable",
					"type": "function"
				},
				{
					"stateMutability": "payable",
					"type": "receive"
				}
			],
			"devdoc": {
				"kind": "dev",
				"methods": {},
				"version": 1
			},
			"evm": {
				"assembly": "    /* \"contracts/ContractBalance.sol\":64:762  contract PayableReceiveFallback {... */\n  mstore(0x40, 0x80)\n    /* \"contracts/ContractBalance.sol\":132:183  constructor() {... */\n  callvalue\n  dup1\n  iszero\n  tag_1\n  jumpi\n  0x00\n  dup1\n  revert\ntag_1:\n  pop\n    /* \"contracts/ContractBalance.sol\":165:175  msg.sender */\n  caller\n    /* \"contracts/ContractBalance.sol\":157:162  owner */\n  0x00\n  dup1\n    /* \"contracts/ContractBalance.sol\":157:175  owner = msg.sender */\n  0x0100\n  exp\n  dup2\n  sload\n  dup2\n  0xffffffffffffffffffffffffffffffffffffffff\n  mul\n  not\n  and\n  swap1\n  dup4\n  0xffffffffffffffffffffffffffffffffffffffff\n  and\n  mul\n  or\n  swap1\n  sstore\n  pop\n    /* \"contracts/ContractBalance.sol\":64:762  contract PayableReceiveFallback {... */\n  dataSize(sub_0)\n  dup1\n  dataOffset(sub_0)\n  0x00\n  codecopy\n  0x00\n  return\nstop\n\nsub_0: assembly {\n        /* \"contracts/ContractBalance.sol\":64:762  contract PayableReceiveFallback {... */\n      mstore(0x40, 0x80)\n      jumpi(tag_1, lt(calldatasize, 0x04))\n      shr(0xe0, calldataload(0x00))\n      dup1\n      0x8da5cb5b\n      eq\n      tag_3\n      jumpi\n      dup1\n      0xa9059cbb\n      eq\n      tag_4\n      jumpi\n      dup1\n      0xb46300ec\n      eq\n      tag_5\n      jumpi\n      dup1\n      0xb69ef8a8\n      eq\n      tag_6\n      jumpi\n      jump(tag_2)\n    tag_1:\n      jumpi(tag_2, calldatasize)\n      stop\n    tag_2:\n      stop\n        /* \"contracts/ContractBalance.sol\":103:123  address public owner */\n    tag_3:\n      callvalue\n      dup1\n      iszero\n      tag_11\n      jumpi\n      0x00\n      dup1\n      revert\n    tag_11:\n      pop\n      tag_12\n      tag_13\n      jump\t// in\n    tag_12:\n      mload(0x40)\n      tag_14\n      swap2\n      swap1\n      tag_15\n      jump\t// in\n    tag_14:\n      mload(0x40)\n      dup1\n      swap2\n      sub\n      swap1\n      return\n        /* \"contracts/ContractBalance.sol\":444:759  function transfer(address payable _to, uint _amount) public returns(bool) {... */\n    tag_4:\n      callvalue\n      dup1\n      iszero\n      tag_16\n      jumpi\n      0x00\n      dup1\n      revert\n    tag_16:\n      pop\n      tag_17\n      0x04\n      dup1\n      calldatasize\n      sub\n      dup2\n      add\n      swap1\n      tag_18\n      swap2\n      swap1\n      tag_19\n      jump\t// in\n    tag_18:\n      tag_20\n      jump\t// in\n    tag_17:\n      mload(0x40)\n      tag_21\n      swap2\n      swap1\n      tag_22\n      jump\t// in\n    tag_21:\n      mload(0x40)\n      dup1\n      swap2\n      sub\n      swap1\n      return\n        /* \"contracts/ContractBalance.sol\":366:436  function send() public payable {... */\n    tag_5:\n      tag_23\n      tag_24\n      jump\t// in\n    tag_23:\n      stop\n        /* \"contracts/ContractBalance.sol\":266:358  function balance() public view returns(uint) {... */\n    tag_6:\n      callvalue\n      dup1\n      iszero\n      tag_25\n      jumpi\n      0x00\n      dup1\n      revert\n    tag_25:\n      pop\n      tag_26\n      tag_27\n      jump\t// in\n    tag_26:\n      mload(0x40)\n      tag_28\n      swap2\n      swap1\n      tag_29\n      jump\t// in\n    tag_28:\n      mload(0x40)\n      dup1\n      swap2\n      sub\n      swap1\n      return\n        /* \"contracts/ContractBalance.sol\":103:123  address public owner */\n    tag_13:\n      0x00\n      dup1\n      sload\n      swap1\n      0x0100\n      exp\n      swap1\n      div\n      0xffffffffffffffffffffffffffffffffffffffff\n      and\n      dup2\n      jump\t// out\n        /* \"contracts/ContractBalance.sol\":444:759  function transfer(address payable _to, uint _amount) public returns(bool) {... */\n    tag_20:\n        /* \"contracts/ContractBalance.sol\":512:516  bool */\n      0x00\n        /* \"contracts/ContractBalance.sol\":546:556  msg.sender */\n      caller\n        /* \"contracts/ContractBalance.sol\":537:556  owner == msg.sender */\n      0xffffffffffffffffffffffffffffffffffffffff\n      and\n        /* \"contracts/ContractBalance.sol\":537:542  owner */\n      0x00\n      dup1\n      sload\n      swap1\n      0x0100\n      exp\n      swap1\n      div\n      0xffffffffffffffffffffffffffffffffffffffff\n      and\n        /* \"contracts/ContractBalance.sol\":537:556  owner == msg.sender */\n      0xffffffffffffffffffffffffffffffffffffffff\n      and\n      eq\n        /* \"contracts/ContractBalance.sol\":529:595  require(owner == msg.sender, \"Transaction failed, not the owner.\") */\n      tag_31\n      jumpi\n      mload(0x40)\n      0x08c379a000000000000000000000000000000000000000000000000000000000\n      dup2\n      mstore\n      0x04\n      add\n      tag_32\n      swap1\n      tag_33\n      jump\t// in\n    tag_32:\n      mload(0x40)\n      dup1\n      swap2\n      sub\n      swap1\n      revert\n    tag_31:\n        /* \"contracts/ContractBalance.sol\":621:630  balance() */\n      tag_34\n        /* \"contracts/ContractBalance.sol\":621:628  balance */\n      tag_27\n        /* \"contracts/ContractBalance.sol\":621:630  balance() */\n      jump\t// in\n    tag_34:\n        /* \"contracts/ContractBalance.sol\":610:617  _amount */\n      dup3\n        /* \"contracts/ContractBalance.sol\":610:630  _amount <= balance() */\n      gt\n        /* \"contracts/ContractBalance.sol\":606:751  if (_amount <= balance()) {... */\n      tag_35\n      jumpi\n        /* \"contracts/ContractBalance.sol\":647:650  _to */\n      dup3\n        /* \"contracts/ContractBalance.sol\":647:659  _to.transfer */\n      0xffffffffffffffffffffffffffffffffffffffff\n      and\n        /* \"contracts/ContractBalance.sol\":647:668  _to.transfer(_amount) */\n      0x08fc\n        /* \"contracts/ContractBalance.sol\":660:667  _amount */\n      dup4\n        /* \"contracts/ContractBalance.sol\":647:668  _to.transfer(_amount) */\n      swap1\n      dup2\n      iszero\n      mul\n      swap1\n      mload(0x40)\n      0x00\n      mload(0x40)\n      dup1\n      dup4\n      sub\n      dup2\n      dup6\n      dup9\n      dup9\n      call\n      swap4\n      pop\n      pop\n      pop\n      pop\n      iszero\n      dup1\n      iszero\n      tag_37\n      jumpi\n      returndatasize\n      0x00\n      dup1\n      returndatacopy\n      revert(0x00, returndatasize)\n    tag_37:\n      pop\n        /* \"contracts/ContractBalance.sol\":690:694  true */\n      0x01\n        /* \"contracts/ContractBalance.sol\":683:694  return true */\n      swap1\n      pop\n      jump(tag_30)\n        /* \"contracts/ContractBalance.sol\":606:751  if (_amount <= balance()) {... */\n    tag_35:\n        /* \"contracts/ContractBalance.sol\":734:739  false */\n      0x00\n        /* \"contracts/ContractBalance.sol\":727:739  return false */\n      swap1\n      pop\n        /* \"contracts/ContractBalance.sol\":444:759  function transfer(address payable _to, uint _amount) public returns(bool) {... */\n    tag_30:\n      swap3\n      swap2\n      pop\n      pop\n      jump\t// out\n        /* \"contracts/ContractBalance.sol\":366:436  function send() public payable {... */\n    tag_24:\n        /* \"contracts/ContractBalance.sol\":408:414  uint i */\n      0x00\n        /* \"contracts/ContractBalance.sol\":425:428  i++ */\n      dup1\n      dup1\n      tag_40\n      swap1\n      tag_41\n      jump\t// in\n    tag_40:\n      swap2\n      pop\n      pop\n        /* \"contracts/ContractBalance.sol\":397:436  {... */\n      pop\n        /* \"contracts/ContractBalance.sol\":366:436  function send() public payable {... */\n      jump\t// out\n        /* \"contracts/ContractBalance.sol\":266:358  function balance() public view returns(uint) {... */\n    tag_27:\n        /* \"contracts/ContractBalance.sol\":305:309  uint */\n      0x00\n        /* \"contracts/ContractBalance.sol\":329:350  address(this).balance */\n      selfbalance\n        /* \"contracts/ContractBalance.sol\":322:350  return address(this).balance */\n      swap1\n      pop\n        /* \"contracts/ContractBalance.sol\":266:358  function balance() public view returns(uint) {... */\n      swap1\n      jump\t// out\n        /* \"#utility.yul\":7:133   */\n    tag_43:\n        /* \"#utility.yul\":44:51   */\n      0x00\n        /* \"#utility.yul\":84:126   */\n      0xffffffffffffffffffffffffffffffffffffffff\n        /* \"#utility.yul\":77:82   */\n      dup3\n        /* \"#utility.yul\":73:127   */\n      and\n        /* \"#utility.yul\":62:127   */\n      swap1\n      pop\n        /* \"#utility.yul\":7:133   */\n      swap2\n      swap1\n      pop\n      jump\t// out\n        /* \"#utility.yul\":139:235   */\n    tag_44:\n        /* \"#utility.yul\":176:183   */\n      0x00\n        /* \"#utility.yul\":205:229   */\n      tag_65\n        /* \"#utility.yul\":223:228   */\n      dup3\n        /* \"#utility.yul\":205:229   */\n      tag_43\n      jump\t// in\n    tag_65:\n        /* \"#utility.yul\":194:229   */\n      swap1\n      pop\n        /* \"#utility.yul\":139:235   */\n      swap2\n      swap1\n      pop\n      jump\t// out\n        /* \"#utility.yul\":241:359   */\n    tag_45:\n        /* \"#utility.yul\":328:352   */\n      tag_67\n        /* \"#utility.yul\":346:351   */\n      dup2\n        /* \"#utility.yul\":328:352   */\n      tag_44\n      jump\t// in\n    tag_67:\n        /* \"#utility.yul\":323:326   */\n      dup3\n        /* \"#utility.yul\":316:353   */\n      mstore\n        /* \"#utility.yul\":241:359   */\n      pop\n      pop\n      jump\t// out\n        /* \"#utility.yul\":365:587   */\n    tag_15:\n        /* \"#utility.yul\":458:462   */\n      0x00\n        /* \"#utility.yul\":496:498   */\n      0x20\n        /* \"#utility.yul\":485:494   */\n      dup3\n        /* \"#utility.yul\":481:499   */\n      add\n        /* \"#utility.yul\":473:499   */\n      swap1\n      pop\n        /* \"#utility.yul\":509:580   */\n      tag_69\n        /* \"#utility.yul\":577:578   */\n      0x00\n        /* \"#utility.yul\":566:575   */\n      dup4\n        /* \"#utility.yul\":562:579   */\n      add\n        /* \"#utility.yul\":553:559   */\n      dup5\n        /* \"#utility.yul\":509:580   */\n      tag_45\n      jump\t// in\n    tag_69:\n        /* \"#utility.yul\":365:587   */\n      swap3\n      swap2\n      pop\n      pop\n      jump\t// out\n        /* \"#utility.yul\":674:791   */\n    tag_47:\n        /* \"#utility.yul\":783:784   */\n      0x00\n        /* \"#utility.yul\":780:781   */\n      dup1\n        /* \"#utility.yul\":773:785   */\n      revert\n        /* \"#utility.yul\":920:1024   */\n    tag_49:\n        /* \"#utility.yul\":965:972   */\n      0x00\n        /* \"#utility.yul\":994:1018   */\n      tag_74\n        /* \"#utility.yul\":1012:1017   */\n      dup3\n        /* \"#utility.yul\":994:1018   */\n      tag_43\n      jump\t// in\n    tag_74:\n        /* \"#utility.yul\":983:1018   */\n      swap1\n      pop\n        /* \"#utility.yul\":920:1024   */\n      swap2\n      swap1\n      pop\n      jump\t// out\n        /* \"#utility.yul\":1030:1168   */\n    tag_50:\n        /* \"#utility.yul\":1111:1143   */\n      tag_76\n        /* \"#utility.yul\":1137:1142   */\n      dup2\n        /* \"#utility.yul\":1111:1143   */\n      tag_49\n      jump\t// in\n    tag_76:\n        /* \"#utility.yul\":1104:1109   */\n      dup2\n        /* \"#utility.yul\":1101:1144   */\n      eq\n        /* \"#utility.yul\":1091:1162   */\n      tag_77\n      jumpi\n        /* \"#utility.yul\":1158:1159   */\n      0x00\n        /* \"#utility.yul\":1155:1156   */\n      dup1\n        /* \"#utility.yul\":1148:1160   */\n      revert\n        /* \"#utility.yul\":1091:1162   */\n    tag_77:\n        /* \"#utility.yul\":1030:1168   */\n      pop\n      jump\t// out\n        /* \"#utility.yul\":1174:1329   */\n    tag_51:\n        /* \"#utility.yul\":1228:1233   */\n      0x00\n        /* \"#utility.yul\":1266:1272   */\n      dup2\n        /* \"#utility.yul\":1253:1273   */\n      calldataload\n        /* \"#utility.yul\":1244:1273   */\n      swap1\n      pop\n        /* \"#utility.yul\":1282:1323   */\n      tag_79\n        /* \"#utility.yul\":1317:1322   */\n      dup2\n        /* \"#utility.yul\":1282:1323   */\n      tag_50\n      jump\t// in\n    tag_79:\n        /* \"#utility.yul\":1174:1329   */\n      swap3\n      swap2\n      pop\n      pop\n      jump\t// out\n        /* \"#utility.yul\":1335:1412   */\n    tag_52:\n        /* \"#utility.yul\":1372:1379   */\n      0x00\n        /* \"#utility.yul\":1401:1406   */\n      dup2\n        /* \"#utility.yul\":1390:1406   */\n      swap1\n      pop\n        /* \"#utility.yul\":1335:1412   */\n      swap2\n      swap1\n      pop\n      jump\t// out\n        /* \"#utility.yul\":1418:1540   */\n    tag_53:\n        /* \"#utility.yul\":1491:1515   */\n      tag_82\n        /* \"#utility.yul\":1509:1514   */\n      dup2\n        /* \"#utility.yul\":1491:1515   */\n      tag_52\n      jump\t// in\n    tag_82:\n        /* \"#utility.yul\":1484:1489   */\n      dup2\n        /* \"#utility.yul\":1481:1516   */\n      eq\n        /* \"#utility.yul\":1471:1534   */\n      tag_83\n      jumpi\n        /* \"#utility.yul\":1530:1531   */\n      0x00\n        /* \"#utility.yul\":1527:1528   */\n      dup1\n        /* \"#utility.yul\":1520:1532   */\n      revert\n        /* \"#utility.yul\":1471:1534   */\n    tag_83:\n        /* \"#utility.yul\":1418:1540   */\n      pop\n      jump\t// out\n        /* \"#utility.yul\":1546:1685   */\n    tag_54:\n        /* \"#utility.yul\":1592:1597   */\n      0x00\n        /* \"#utility.yul\":1630:1636   */\n      dup2\n        /* \"#utility.yul\":1617:1637   */\n      calldataload\n        /* \"#utility.yul\":1608:1637   */\n      swap1\n      pop\n        /* \"#utility.yul\":1646:1679   */\n      tag_85\n        /* \"#utility.yul\":1673:1678   */\n      dup2\n        /* \"#utility.yul\":1646:1679   */\n      tag_53\n      jump\t// in\n    tag_85:\n        /* \"#utility.yul\":1546:1685   */\n      swap3\n      swap2\n      pop\n      pop\n      jump\t// out\n        /* \"#utility.yul\":1691:2181   */\n    tag_19:\n        /* \"#utility.yul\":1767:1773   */\n      0x00\n        /* \"#utility.yul\":1775:1781   */\n      dup1\n        /* \"#utility.yul\":1824:1826   */\n      0x40\n        /* \"#utility.yul\":1812:1821   */\n      dup4\n        /* \"#utility.yul\":1803:1810   */\n      dup6\n        /* \"#utility.yul\":1799:1822   */\n      sub\n        /* \"#utility.yul\":1795:1827   */\n      slt\n        /* \"#utility.yul\":1792:1911   */\n      iszero\n      tag_87\n      jumpi\n        /* \"#utility.yul\":1830:1909   */\n      tag_88\n      tag_47\n      jump\t// in\n    tag_88:\n        /* \"#utility.yul\":1792:1911   */\n    tag_87:\n        /* \"#utility.yul\":1950:1951   */\n      0x00\n        /* \"#utility.yul\":1975:2036   */\n      tag_89\n        /* \"#utility.yul\":2028:2035   */\n      dup6\n        /* \"#utility.yul\":2019:2025   */\n      dup3\n        /* \"#utility.yul\":2008:2017   */\n      dup7\n        /* \"#utility.yul\":2004:2026   */\n      add\n        /* \"#utility.yul\":1975:2036   */\n      tag_51\n      jump\t// in\n    tag_89:\n        /* \"#utility.yul\":1965:2036   */\n      swap3\n      pop\n        /* \"#utility.yul\":1921:2046   */\n      pop\n        /* \"#utility.yul\":2085:2087   */\n      0x20\n        /* \"#utility.yul\":2111:2164   */\n      tag_90\n        /* \"#utility.yul\":2156:2163   */\n      dup6\n        /* \"#utility.yul\":2147:2153   */\n      dup3\n        /* \"#utility.yul\":2136:2145   */\n      dup7\n        /* \"#utility.yul\":2132:2154   */\n      add\n        /* \"#utility.yul\":2111:2164   */\n      tag_54\n      jump\t// in\n    tag_90:\n        /* \"#utility.yul\":2101:2164   */\n      swap2\n      pop\n        /* \"#utility.yul\":2056:2174   */\n      pop\n        /* \"#utility.yul\":1691:2181   */\n      swap3\n      pop\n      swap3\n      swap1\n      pop\n      jump\t// out\n        /* \"#utility.yul\":2187:2277   */\n    tag_55:\n        /* \"#utility.yul\":2221:2228   */\n      0x00\n        /* \"#utility.yul\":2264:2269   */\n      dup2\n        /* \"#utility.yul\":2257:2270   */\n      iszero\n        /* \"#utility.yul\":2250:2271   */\n      iszero\n        /* \"#utility.yul\":2239:2271   */\n      swap1\n      pop\n        /* \"#utility.yul\":2187:2277   */\n      swap2\n      swap1\n      pop\n      jump\t// out\n        /* \"#utility.yul\":2283:2392   */\n    tag_56:\n        /* \"#utility.yul\":2364:2385   */\n      tag_93\n        /* \"#utility.yul\":2379:2384   */\n      dup2\n        /* \"#utility.yul\":2364:2385   */\n      tag_55\n      jump\t// in\n    tag_93:\n        /* \"#utility.yul\":2359:2362   */\n      dup3\n        /* \"#utility.yul\":2352:2386   */\n      mstore\n        /* \"#utility.yul\":2283:2392   */\n      pop\n      pop\n      jump\t// out\n        /* \"#utility.yul\":2398:2608   */\n    tag_22:\n        /* \"#utility.yul\":2485:2489   */\n      0x00\n        /* \"#utility.yul\":2523:2525   */\n      0x20\n        /* \"#utility.yul\":2512:2521   */\n      dup3\n        /* \"#utility.yul\":2508:2526   */\n      add\n        /* \"#utility.yul\":2500:2526   */\n      swap1\n      pop\n        /* \"#utility.yul\":2536:2601   */\n      tag_95\n        /* \"#utility.yul\":2598:2599   */\n      0x00\n        /* \"#utility.yul\":2587:2596   */\n      dup4\n        /* \"#utility.yul\":2583:2600   */\n      add\n        /* \"#utility.yul\":2574:2580   */\n      dup5\n        /* \"#utility.yul\":2536:2601   */\n      tag_56\n      jump\t// in\n    tag_95:\n        /* \"#utility.yul\":2398:2608   */\n      swap3\n      swap2\n      pop\n      pop\n      jump\t// out\n        /* \"#utility.yul\":2614:2732   */\n    tag_57:\n        /* \"#utility.yul\":2701:2725   */\n      tag_97\n        /* \"#utility.yul\":2719:2724   */\n      dup2\n        /* \"#utility.yul\":2701:2725   */\n      tag_52\n      jump\t// in\n    tag_97:\n        /* \"#utility.yul\":2696:2699   */\n      dup3\n        /* \"#utility.yul\":2689:2726   */\n      mstore\n        /* \"#utility.yul\":2614:2732   */\n      pop\n      pop\n      jump\t// out\n        /* \"#utility.yul\":2738:2960   */\n    tag_29:\n        /* \"#utility.yul\":2831:2835   */\n      0x00\n        /* \"#utility.yul\":2869:2871   */\n      0x20\n        /* \"#utility.yul\":2858:2867   */\n      dup3\n        /* \"#utility.yul\":2854:2872   */\n      add\n        /* \"#utility.yul\":2846:2872   */\n      swap1\n      pop\n        /* \"#utility.yul\":2882:2953   */\n      tag_99\n        /* \"#utility.yul\":2950:2951   */\n      0x00\n        /* \"#utility.yul\":2939:2948   */\n      dup4\n        /* \"#utility.yul\":2935:2952   */\n      add\n        /* \"#utility.yul\":2926:2932   */\n      dup5\n        /* \"#utility.yul\":2882:2953   */\n      tag_57\n      jump\t// in\n    tag_99:\n        /* \"#utility.yul\":2738:2960   */\n      swap3\n      swap2\n      pop\n      pop\n      jump\t// out\n        /* \"#utility.yul\":2966:3135   */\n    tag_58:\n        /* \"#utility.yul\":3050:3061   */\n      0x00\n        /* \"#utility.yul\":3084:3090   */\n      dup3\n        /* \"#utility.yul\":3079:3082   */\n      dup3\n        /* \"#utility.yul\":3072:3091   */\n      mstore\n        /* \"#utility.yul\":3124:3128   */\n      0x20\n        /* \"#utility.yul\":3119:3122   */\n      dup3\n        /* \"#utility.yul\":3115:3129   */\n      add\n        /* \"#utility.yul\":3100:3129   */\n      swap1\n      pop\n        /* \"#utility.yul\":2966:3135   */\n      swap3\n      swap2\n      pop\n      pop\n      jump\t// out\n        /* \"#utility.yul\":3141:3362   */\n    tag_59:\n        /* \"#utility.yul\":3281:3315   */\n      0x5472616e73616374696f6e206661696c65642c206e6f7420746865206f776e65\n        /* \"#utility.yul\":3277:3278   */\n      0x00\n        /* \"#utility.yul\":3269:3275   */\n      dup3\n        /* \"#utility.yul\":3265:3279   */\n      add\n        /* \"#utility.yul\":3258:3316   */\n      mstore\n        /* \"#utility.yul\":3350:3354   */\n      0x722e000000000000000000000000000000000000000000000000000000000000\n        /* \"#utility.yul\":3345:3347   */\n      0x20\n        /* \"#utility.yul\":3337:3343   */\n      dup3\n        /* \"#utility.yul\":3333:3348   */\n      add\n        /* \"#utility.yul\":3326:3355   */\n      mstore\n        /* \"#utility.yul\":3141:3362   */\n      pop\n      jump\t// out\n        /* \"#utility.yul\":3368:3734   */\n    tag_60:\n        /* \"#utility.yul\":3510:3513   */\n      0x00\n        /* \"#utility.yul\":3531:3598   */\n      tag_103\n        /* \"#utility.yul\":3595:3597   */\n      0x22\n        /* \"#utility.yul\":3590:3593   */\n      dup4\n        /* \"#utility.yul\":3531:3598   */\n      tag_58\n      jump\t// in\n    tag_103:\n        /* \"#utility.yul\":3524:3598   */\n      swap2\n      pop\n        /* \"#utility.yul\":3607:3700   */\n      tag_104\n        /* \"#utility.yul\":3696:3699   */\n      dup3\n        /* \"#utility.yul\":3607:3700   */\n      tag_59\n      jump\t// in\n    tag_104:\n        /* \"#utility.yul\":3725:3727   */\n      0x40\n        /* \"#utility.yul\":3720:3723   */\n      dup3\n        /* \"#utility.yul\":3716:3728   */\n      add\n        /* \"#utility.yul\":3709:3728   */\n      swap1\n      pop\n        /* \"#utility.yul\":3368:3734   */\n      swap2\n      swap1\n      pop\n      jump\t// out\n        /* \"#utility.yul\":3740:4159   */\n    tag_33:\n        /* \"#utility.yul\":3906:3910   */\n      0x00\n        /* \"#utility.yul\":3944:3946   */\n      0x20\n        /* \"#utility.yul\":3933:3942   */\n      dup3\n        /* \"#utility.yul\":3929:3947   */\n      add\n        /* \"#utility.yul\":3921:3947   */\n      swap1\n      pop\n        /* \"#utility.yul\":3993:4002   */\n      dup2\n        /* \"#utility.yul\":3987:3991   */\n      dup2\n        /* \"#utility.yul\":3983:4003   */\n      sub\n        /* \"#utility.yul\":3979:3980   */\n      0x00\n        /* \"#utility.yul\":3968:3977   */\n      dup4\n        /* \"#utility.yul\":3964:3981   */\n      add\n        /* \"#utility.yul\":3957:4004   */\n      mstore\n        /* \"#utility.yul\":4021:4152   */\n      tag_106\n        /* \"#utility.yul\":4147:4151   */\n      dup2\n        /* \"#utility.yul\":4021:4152   */\n      tag_60\n      jump\t// in\n    tag_106:\n        /* \"#utility.yul\":4013:4152   */\n      swap1\n      pop\n        /* \"#utility.yul\":3740:4159   */\n      swap2\n      swap1\n      pop\n      jump\t// out\n        /* \"#utility.yul\":4165:4345   */\n    tag_61:\n        /* \"#utility.yul\":4213:4290   */\n      0x4e487b7100000000000000000000000000000000000000000000000000000000\n        /* \"#utility.yul\":4210:4211   */\n      0x00\n        /* \"#utility.yul\":4203:4291   */\n      mstore\n        /* \"#utility.yul\":4310:4314   */\n      0x11\n        /* \"#utility.yul\":4307:4308   */\n      0x04\n        /* \"#utility.yul\":4300:4315   */\n      mstore\n        /* \"#utility.yul\":4334:4338   */\n      0x24\n        /* \"#utility.yul\":4331:4332   */\n      0x00\n        /* \"#utility.yul\":4324:4339   */\n      revert\n        /* \"#utility.yul\":4351:4584   */\n    tag_41:\n        /* \"#utility.yul\":4390:4393   */\n      0x00\n        /* \"#utility.yul\":4413:4437   */\n      tag_109\n        /* \"#utility.yul\":4431:4436   */\n      dup3\n        /* \"#utility.yul\":4413:4437   */\n      tag_52\n      jump\t// in\n    tag_109:\n        /* \"#utility.yul\":4404:4437   */\n      swap2\n      pop\n        /* \"#utility.yul\":4459:4525   */\n      0xffffffffffffffffffffffffffffffffffffffffffffffffffffffffffffffff\n        /* \"#utility.yul\":4452:4457   */\n      dup3\n        /* \"#utility.yul\":4449:4526   */\n      sub\n        /* \"#utility.yul\":4446:4549   */\n      tag_110\n      jumpi\n        /* \"#utility.yul\":4529:4547   */\n      tag_111\n      tag_61\n      jump\t// in\n    tag_111:\n        /* \"#utility.yul\":4446:4549   */\n    tag_110:\n        /* \"#utility.yul\":4576:4577   */\n      0x01\n        /* \"#utility.yul\":4569:4574   */\n      dup3\n        /* \"#utility.yul\":4565:4578   */\n      add\n        /* \"#utility.yul\":4558:4578   */\n      swap1\n      pop\n        /* \"#utility.yul\":4351:4584   */\n      swap2\n      swap1\n      pop\n      jump\t// out\n\n    auxdata: 0xa264697066735822122034cec7d2955ba07fa8a67ab646ea6d8221656a0f3addb46e232d2dc10c096a6e64736f6c63430008110033\n}\n",
				"bytecode": {
					"linkReferences": {},
					"object": "608060405234801561001057600080fd5b50336000806101000a81548173ffffffffffffffffffffffffffffffffffffffff021916908373ffffffffffffffffffffffffffffffffffffffff1602179055506104e6806100606000396000f3fe6080604052600436106100435760003560e01c80638da5cb5b1461004c578063a9059cbb14610077578063b46300ec146100b4578063b69ef8a8146100be5761004a565b3661004a57005b005b34801561005857600080fd5b506100616100e9565b60405161006e9190610262565b60405180910390f35b34801561008357600080fd5b5061009e600480360381019061009991906102f6565b61010d565b6040516100ab9190610351565b60405180910390f35b6100bc610206565b005b3480156100ca57600080fd5b506100d3610219565b6040516100e0919061037b565b60405180910390f35b60008054906101000a900473ffffffffffffffffffffffffffffffffffffffff1681565b60003373ffffffffffffffffffffffffffffffffffffffff1660008054906101000a900473ffffffffffffffffffffffffffffffffffffffff1673ffffffffffffffffffffffffffffffffffffffff161461019d576040517f08c379a000000000000000000000000000000000000000000000000000000000815260040161019490610419565b60405180910390fd5b6101a5610219565b82116101fb578273ffffffffffffffffffffffffffffffffffffffff166108fc839081150290604051600060405180830381858888f193505050501580156101f1573d6000803e3d6000fd5b5060019050610200565b600090505b92915050565b6000808061021390610468565b91505050565b600047905090565b600073ffffffffffffffffffffffffffffffffffffffff82169050919050565b600061024c82610221565b9050919050565b61025c81610241565b82525050565b60006020820190506102776000830184610253565b92915050565b600080fd5b600061028d82610221565b9050919050565b61029d81610282565b81146102a857600080fd5b50565b6000813590506102ba81610294565b92915050565b6000819050919050565b6102d3816102c0565b81146102de57600080fd5b50565b6000813590506102f0816102ca565b92915050565b6000806040838503121561030d5761030c61027d565b5b600061031b858286016102ab565b925050602061032c858286016102e1565b9150509250929050565b60008115159050919050565b61034b81610336565b82525050565b60006020820190506103666000830184610342565b92915050565b610375816102c0565b82525050565b6000602082019050610390600083018461036c565b92915050565b600082825260208201905092915050565b7f5472616e73616374696f6e206661696c65642c206e6f7420746865206f776e6560008201527f722e000000000000000000000000000000000000000000000000000000000000602082015250565b6000610403602283610396565b915061040e826103a7565b604082019050919050565b60006020820190508181036000830152610432816103f6565b9050919050565b7f4e487b7100000000000000000000000000000000000000000000000000000000600052601160045260246000fd5b6000610473826102c0565b91507fffffffffffffffffffffffffffffffffffffffffffffffffffffffffffffffff82036104a5576104a4610439565b5b60018201905091905056fea264697066735822122034cec7d2955ba07fa8a67ab646ea6d8221656a0f3addb46e232d2dc10c096a6e64736f6c63430008110033",
					"opcodes": "PUSH1 0x80 PUSH1 0x40 MSTORE CALLVALUE DUP1 ISZERO PUSH2 0x10 JUMPI PUSH1 0x0 DUP1 REVERT JUMPDEST POP CALLER PUSH1 0x0 DUP1 PUSH2 0x100 EXP DUP2 SLOAD DUP2 PUSH20 0xFFFFFFFFFFFFFFFFFFFFFFFFFFFFFFFFFFFFFFFF MUL NOT AND SWAP1 DUP4 PUSH20 0xFFFFFFFFFFFFFFFFFFFFFFFFFFFFFFFFFFFFFFFF AND MUL OR SWAP1 SSTORE POP PUSH2 0x4E6 DUP1 PUSH2 0x60 PUSH1 0x0 CODECOPY PUSH1 0x0 RETURN INVALID PUSH1 0x80 PUSH1 0x40 MSTORE PUSH1 0x4 CALLDATASIZE LT PUSH2 0x43 JUMPI PUSH1 0x0 CALLDATALOAD PUSH1 0xE0 SHR DUP1 PUSH4 0x8DA5CB5B EQ PUSH2 0x4C JUMPI DUP1 PUSH4 0xA9059CBB EQ PUSH2 0x77 JUMPI DUP1 PUSH4 0xB46300EC EQ PUSH2 0xB4 JUMPI DUP1 PUSH4 0xB69EF8A8 EQ PUSH2 0xBE JUMPI PUSH2 0x4A JUMP JUMPDEST CALLDATASIZE PUSH2 0x4A JUMPI STOP JUMPDEST STOP JUMPDEST CALLVALUE DUP1 ISZERO PUSH2 0x58 JUMPI PUSH1 0x0 DUP1 REVERT JUMPDEST POP PUSH2 0x61 PUSH2 0xE9 JUMP JUMPDEST PUSH1 0x40 MLOAD PUSH2 0x6E SWAP2 SWAP1 PUSH2 0x262 JUMP JUMPDEST PUSH1 0x40 MLOAD DUP1 SWAP2 SUB SWAP1 RETURN JUMPDEST CALLVALUE DUP1 ISZERO PUSH2 0x83 JUMPI PUSH1 0x0 DUP1 REVERT JUMPDEST POP PUSH2 0x9E PUSH1 0x4 DUP1 CALLDATASIZE SUB DUP2 ADD SWAP1 PUSH2 0x99 SWAP2 SWAP1 PUSH2 0x2F6 JUMP JUMPDEST PUSH2 0x10D JUMP JUMPDEST PUSH1 0x40 MLOAD PUSH2 0xAB SWAP2 SWAP1 PUSH2 0x351 JUMP JUMPDEST PUSH1 0x40 MLOAD DUP1 SWAP2 SUB SWAP1 RETURN JUMPDEST PUSH2 0xBC PUSH2 0x206 JUMP JUMPDEST STOP JUMPDEST CALLVALUE DUP1 ISZERO PUSH2 0xCA JUMPI PUSH1 0x0 DUP1 REVERT JUMPDEST POP PUSH2 0xD3 PUSH2 0x219 JUMP JUMPDEST PUSH1 0x40 MLOAD PUSH2 0xE0 SWAP2 SWAP1 PUSH2 0x37B JUMP JUMPDEST PUSH1 0x40 MLOAD DUP1 SWAP2 SUB SWAP1 RETURN JUMPDEST PUSH1 0x0 DUP1 SLOAD SWAP1 PUSH2 0x100 EXP SWAP1 DIV PUSH20 0xFFFFFFFFFFFFFFFFFFFFFFFFFFFFFFFFFFFFFFFF AND DUP2 JUMP JUMPDEST PUSH1 0x0 CALLER PUSH20 0xFFFFFFFFFFFFFFFFFFFFFFFFFFFFFFFFFFFFFFFF AND PUSH1 0x0 DUP1 SLOAD SWAP1 PUSH2 0x100 EXP SWAP1 DIV PUSH20 0xFFFFFFFFFFFFFFFFFFFFFFFFFFFFFFFFFFFFFFFF AND PUSH20 0xFFFFFFFFFFFFFFFFFFFFFFFFFFFFFFFFFFFFFFFF AND EQ PUSH2 0x19D JUMPI PUSH1 0x40 MLOAD PUSH32 0x8C379A000000000000000000000000000000000000000000000000000000000 DUP2 MSTORE PUSH1 0x4 ADD PUSH2 0x194 SWAP1 PUSH2 0x419 JUMP JUMPDEST PUSH1 0x40 MLOAD DUP1 SWAP2 SUB SWAP1 REVERT JUMPDEST PUSH2 0x1A5 PUSH2 0x219 JUMP JUMPDEST DUP3 GT PUSH2 0x1FB JUMPI DUP3 PUSH20 0xFFFFFFFFFFFFFFFFFFFFFFFFFFFFFFFFFFFFFFFF AND PUSH2 0x8FC DUP4 SWAP1 DUP2 ISZERO MUL SWAP1 PUSH1 0x40 MLOAD PUSH1 0x0 PUSH1 0x40 MLOAD DUP1 DUP4 SUB DUP2 DUP6 DUP9 DUP9 CALL SWAP4 POP POP POP POP ISZERO DUP1 ISZERO PUSH2 0x1F1 JUMPI RETURNDATASIZE PUSH1 0x0 DUP1 RETURNDATACOPY RETURNDATASIZE PUSH1 0x0 REVERT JUMPDEST POP PUSH1 0x1 SWAP1 POP PUSH2 0x200 JUMP JUMPDEST PUSH1 0x0 SWAP1 POP JUMPDEST SWAP3 SWAP2 POP POP JUMP JUMPDEST PUSH1 0x0 DUP1 DUP1 PUSH2 0x213 SWAP1 PUSH2 0x468 JUMP JUMPDEST SWAP2 POP POP POP JUMP JUMPDEST PUSH1 0x0 SELFBALANCE SWAP1 POP SWAP1 JUMP JUMPDEST PUSH1 0x0 PUSH20 0xFFFFFFFFFFFFFFFFFFFFFFFFFFFFFFFFFFFFFFFF DUP3 AND SWAP1 POP SWAP2 SWAP1 POP JUMP JUMPDEST PUSH1 0x0 PUSH2 0x24C DUP3 PUSH2 0x221 JUMP JUMPDEST SWAP1 POP SWAP2 SWAP1 POP JUMP JUMPDEST PUSH2 0x25C DUP2 PUSH2 0x241 JUMP JUMPDEST DUP3 MSTORE POP POP JUMP JUMPDEST PUSH1 0x0 PUSH1 0x20 DUP3 ADD SWAP1 POP PUSH2 0x277 PUSH1 0x0 DUP4 ADD DUP5 PUSH2 0x253 JUMP JUMPDEST SWAP3 SWAP2 POP POP JUMP JUMPDEST PUSH1 0x0 DUP1 REVERT JUMPDEST PUSH1 0x0 PUSH2 0x28D DUP3 PUSH2 0x221 JUMP JUMPDEST SWAP1 POP SWAP2 SWAP1 POP JUMP JUMPDEST PUSH2 0x29D DUP2 PUSH2 0x282 JUMP JUMPDEST DUP2 EQ PUSH2 0x2A8 JUMPI PUSH1 0x0 DUP1 REVERT JUMPDEST POP JUMP JUMPDEST PUSH1 0x0 DUP2 CALLDATALOAD SWAP1 POP PUSH2 0x2BA DUP2 PUSH2 0x294 JUMP JUMPDEST SWAP3 SWAP2 POP POP JUMP JUMPDEST PUSH1 0x0 DUP2 SWAP1 POP SWAP2 SWAP1 POP JUMP JUMPDEST PUSH2 0x2D3 DUP2 PUSH2 0x2C0 JUMP JUMPDEST DUP2 EQ PUSH2 0x2DE JUMPI PUSH1 0x0 DUP1 REVERT JUMPDEST POP JUMP JUMPDEST PUSH1 0x0 DUP2 CALLDATALOAD SWAP1 POP PUSH2 0x2F0 DUP2 PUSH2 0x2CA JUMP JUMPDEST SWAP3 SWAP2 POP POP JUMP JUMPDEST PUSH1 0x0 DUP1 PUSH1 0x40 DUP4 DUP6 SUB SLT ISZERO PUSH2 0x30D JUMPI PUSH2 0x30C PUSH2 0x27D JUMP JUMPDEST JUMPDEST PUSH1 0x0 PUSH2 0x31B DUP6 DUP3 DUP7 ADD PUSH2 0x2AB JUMP JUMPDEST SWAP3 POP POP PUSH1 0x20 PUSH2 0x32C DUP6 DUP3 DUP7 ADD PUSH2 0x2E1 JUMP JUMPDEST SWAP2 POP POP SWAP3 POP SWAP3 SWAP1 POP JUMP JUMPDEST PUSH1 0x0 DUP2 ISZERO ISZERO SWAP1 POP SWAP2 SWAP1 POP JUMP JUMPDEST PUSH2 0x34B DUP2 PUSH2 0x336 JUMP JUMPDEST DUP3 MSTORE POP POP JUMP JUMPDEST PUSH1 0x0 PUSH1 0x20 DUP3 ADD SWAP1 POP PUSH2 0x366 PUSH1 0x0 DUP4 ADD DUP5 PUSH2 0x342 JUMP JUMPDEST SWAP3 SWAP2 POP POP JUMP JUMPDEST PUSH2 0x375 DUP2 PUSH2 0x2C0 JUMP JUMPDEST DUP3 MSTORE POP POP JUMP JUMPDEST PUSH1 0x0 PUSH1 0x20 DUP3 ADD SWAP1 POP PUSH2 0x390 PUSH1 0x0 DUP4 ADD DUP5 PUSH2 0x36C JUMP JUMPDEST SWAP3 SWAP2 POP POP JUMP JUMPDEST PUSH1 0x0 DUP3 DUP3 MSTORE PUSH1 0x20 DUP3 ADD SWAP1 POP SWAP3 SWAP2 POP POP JUMP JUMPDEST PUSH32 0x5472616E73616374696F6E206661696C65642C206E6F7420746865206F776E65 PUSH1 0x0 DUP3 ADD MSTORE PUSH32 0x722E000000000000000000000000000000000000000000000000000000000000 PUSH1 0x20 DUP3 ADD MSTORE POP JUMP JUMPDEST PUSH1 0x0 PUSH2 0x403 PUSH1 0x22 DUP4 PUSH2 0x396 JUMP JUMPDEST SWAP2 POP PUSH2 0x40E DUP3 PUSH2 0x3A7 JUMP JUMPDEST PUSH1 0x40 DUP3 ADD SWAP1 POP SWAP2 SWAP1 POP JUMP JUMPDEST PUSH1 0x0 PUSH1 0x20 DUP3 ADD SWAP1 POP DUP2 DUP2 SUB PUSH1 0x0 DUP4 ADD MSTORE PUSH2 0x432 DUP2 PUSH2 0x3F6 JUMP JUMPDEST SWAP1 POP SWAP2 SWAP1 POP JUMP JUMPDEST PUSH32 0x4E487B7100000000000000000000000000000000000000000000000000000000 PUSH1 0x0 MSTORE PUSH1 0x11 PUSH1 0x4 MSTORE PUSH1 0x24 PUSH1 0x0 REVERT JUMPDEST PUSH1 0x0 PUSH2 0x473 DUP3 PUSH2 0x2C0 JUMP JUMPDEST SWAP2 POP PUSH32 0xFFFFFFFFFFFFFFFFFFFFFFFFFFFFFFFFFFFFFFFFFFFFFFFFFFFFFFFFFFFFFFFF DUP3 SUB PUSH2 0x4A5 JUMPI PUSH2 0x4A4 PUSH2 0x439 JUMP JUMPDEST JUMPDEST PUSH1 0x1 DUP3 ADD SWAP1 POP SWAP2 SWAP1 POP JUMP INVALID LOG2 PUSH5 0x6970667358 0x22 SLT KECCAK256 CALLVALUE 0xCE 0xC7 0xD2 SWAP6 JUMPDEST LOG0 PUSH32 0xA8A67AB646EA6D8221656A0F3ADDB46E232D2DC10C096A6E64736F6C63430008 GT STOP CALLER "
				},
				"gasEstimates": {
					"creation": {
						"codeDepositCost": "250800",
						"executionCost": "24560",
						"totalCost": "275360"
					},
					"external": {
						"": "151",
						"balance()": "383",
						"owner()": "2489",
						"send()": "286",
						"transfer(address,uint256)": "infinite"
					}
				},
				"methodIdentifiers": {
					"balance()": "b69ef8a8",
					"owner()": "8da5cb5b",
					"send()": "b46300ec",
					"transfer(address,uint256)": "a9059cbb"
				}
			},
			"storageLayout": {
				"storage": [
					{
						"astId": 3,
						"contract": "contracts/ContractBalance.sol:PayableReceiveFallback",
						"label": "owner",
						"offset": 0,
						"slot": "0",
						"type": "t_address"
					}
				],
				"types": {
					"t_address": {
						"encoding": "inplace",
						"label": "address",
						"numberOfBytes": "20"
					}
				}
			},
			"userdoc": {
				"kind": "user",
				"methods": {},
				"version": 1
			}
		}
	}
}