{
	"contracts/FunctionVisibilitySpecifiers.sol": {
		"FunctionVisibilitySpecifiers": {
			"abi": [
				{
					"inputs": [],
					"name": "externalFunction",
					"outputs": [
						{
							"internalType": "int256",
							"name": "",
							"type": "int256"
						}
					],
					"stateMutability": "view",
					"type": "function"
				},
				{
					"inputs": [],
					"name": "getExternalFunction",
					"outputs": [
						{
							"internalType": "int256",
							"name": "",
							"type": "int256"
						}
					],
					"stateMutability": "view",
					"type": "function"
				},
				{
					"inputs": [],
					"name": "getInternalFunction",
					"outputs": [
						{
							"internalType": "int256",
							"name": "",
							"type": "int256"
						}
					],
					"stateMutability": "view",
					"type": "function"
				},
				{
					"inputs": [],
					"name": "getPrivateFunction",
					"outputs": [
						{
							"internalType": "int256",
							"name": "",
							"type": "int256"
						}
					],
					"stateMutability": "view",
					"type": "function"
				},
				{
					"inputs": [],
					"name": "getY",
					"outputs": [
						{
							"internalType": "int256",
							"name": "",
							"type": "int256"
						}
					],
					"stateMutability": "view",
					"type": "function"
				},
				{
					"inputs": [],
					"name": "x",
					"outputs": [
						{
							"internalType": "int256",
							"name": "",
							"type": "int256"
						}
					],
					"stateMutability": "view",
					"type": "function"
				}
			],
			"devdoc": {
				"kind": "dev",
				"methods": {},
				"version": 1
			},
			"evm": {
				"assembly": "    /* \"contracts/FunctionVisibilitySpecifiers.sol\":64:1059  contract FunctionVisibilitySpecifiers {... */\n  mstore(0x40, 0x80)\n    /* \"contracts/FunctionVisibilitySpecifiers.sol\":124:126  10 */\n  0x0a\n    /* \"contracts/FunctionVisibilitySpecifiers.sol\":109:126  int public x = 10 */\n  0x00\n  sstore\n    /* \"contracts/FunctionVisibilitySpecifiers.sol\":149:151  20 */\n  0x14\n    /* \"contracts/FunctionVisibilitySpecifiers.sol\":133:151  int private y = 20 */\n  0x01\n  sstore\n    /* \"contracts/FunctionVisibilitySpecifiers.sol\":64:1059  contract FunctionVisibilitySpecifiers {... */\n  callvalue\n  dup1\n  iszero\n  tag_1\n  jumpi\n  0x00\n  dup1\n  revert\ntag_1:\n  pop\n  dataSize(sub_0)\n  dup1\n  dataOffset(sub_0)\n  0x00\n  codecopy\n  0x00\n  return\nstop\n\nsub_0: assembly {\n        /* \"contracts/FunctionVisibilitySpecifiers.sol\":64:1059  contract FunctionVisibilitySpecifiers {... */\n      mstore(0x40, 0x80)\n      callvalue\n      dup1\n      iszero\n      tag_1\n      jumpi\n      0x00\n      dup1\n      revert\n    tag_1:\n      pop\n      jumpi(tag_2, lt(calldatasize, 0x04))\n      shr(0xe0, calldataload(0x00))\n      dup1\n      0x0b7f1665\n      eq\n      tag_3\n      jumpi\n      dup1\n      0x0c55699c\n      eq\n      tag_4\n      jumpi\n      dup1\n      0x3a32b549\n      eq\n      tag_5\n      jumpi\n      dup1\n      0x7a644830\n      eq\n      tag_6\n      jumpi\n      dup1\n      0x8a21234f\n      eq\n      tag_7\n      jumpi\n      dup1\n      0xca0b5ad9\n      eq\n      tag_8\n      jumpi\n    tag_2:\n      0x00\n      dup1\n      revert\n        /* \"contracts/FunctionVisibilitySpecifiers.sol\":160:228  function getY() public view returns(int) {... */\n    tag_3:\n      tag_9\n      tag_10\n      jump\t// in\n    tag_9:\n      mload(0x40)\n      tag_11\n      swap2\n      swap1\n      tag_12\n      jump\t// in\n    tag_11:\n      mload(0x40)\n      dup1\n      swap2\n      sub\n      swap1\n      return\n        /* \"contracts/FunctionVisibilitySpecifiers.sol\":109:126  int public x = 10 */\n    tag_4:\n      tag_13\n      tag_14\n      jump\t// in\n    tag_13:\n      mload(0x40)\n      tag_15\n      swap2\n      swap1\n      tag_12\n      jump\t// in\n    tag_15:\n      mload(0x40)\n      dup1\n      swap2\n      sub\n      swap1\n      return\n        /* \"contracts/FunctionVisibilitySpecifiers.sol\":731:813  function externalFunction() external view returns(int) {... */\n    tag_5:\n      tag_16\n      tag_17\n      jump\t// in\n    tag_16:\n      mload(0x40)\n      tag_18\n      swap2\n      swap1\n      tag_12\n      jump\t// in\n    tag_18:\n      mload(0x40)\n      dup1\n      swap2\n      sub\n      swap1\n      return\n        /* \"contracts/FunctionVisibilitySpecifiers.sol\":520:620  function getInternalFunction() public view returns(int) {... */\n    tag_6:\n      tag_19\n      tag_20\n      jump\t// in\n    tag_19:\n      mload(0x40)\n      tag_21\n      swap2\n      swap1\n      tag_12\n      jump\t// in\n    tag_21:\n      mload(0x40)\n      dup1\n      swap2\n      sub\n      swap1\n      return\n        /* \"contracts/FunctionVisibilitySpecifiers.sol\":953:1056  function getExternalFunction() public view returns(int) {... */\n    tag_7:\n      tag_22\n      tag_23\n      jump\t// in\n    tag_22:\n      mload(0x40)\n      tag_24\n      swap2\n      swap1\n      tag_12\n      jump\t// in\n    tag_24:\n      mload(0x40)\n      dup1\n      swap2\n      sub\n      swap1\n      return\n        /* \"contracts/FunctionVisibilitySpecifiers.sol\":324:422  function getPrivateFunction() public view returns(int) {... */\n    tag_8:\n      tag_25\n      tag_26\n      jump\t// in\n    tag_25:\n      mload(0x40)\n      tag_27\n      swap2\n      swap1\n      tag_12\n      jump\t// in\n    tag_27:\n      mload(0x40)\n      dup1\n      swap2\n      sub\n      swap1\n      return\n        /* \"contracts/FunctionVisibilitySpecifiers.sol\":160:228  function getY() public view returns(int) {... */\n    tag_10:\n        /* \"contracts/FunctionVisibilitySpecifiers.sol\":196:199  int */\n      0x00\n        /* \"contracts/FunctionVisibilitySpecifiers.sol\":219:220  y */\n      sload(0x01)\n        /* \"contracts/FunctionVisibilitySpecifiers.sol\":212:220  return y */\n      swap1\n      pop\n        /* \"contracts/FunctionVisibilitySpecifiers.sol\":160:228  function getY() public view returns(int) {... */\n      swap1\n      jump\t// out\n        /* \"contracts/FunctionVisibilitySpecifiers.sol\":109:126  int public x = 10 */\n    tag_14:\n      sload(0x00)\n      dup2\n      jump\t// out\n        /* \"contracts/FunctionVisibilitySpecifiers.sol\":731:813  function externalFunction() external view returns(int) {... */\n    tag_17:\n        /* \"contracts/FunctionVisibilitySpecifiers.sol\":781:784  int */\n      0x00\n        /* \"contracts/FunctionVisibilitySpecifiers.sol\":804:805  x */\n      dup1\n      sload\n        /* \"contracts/FunctionVisibilitySpecifiers.sol\":797:805  return x */\n      swap1\n      pop\n        /* \"contracts/FunctionVisibilitySpecifiers.sol\":731:813  function externalFunction() external view returns(int) {... */\n      swap1\n      jump\t// out\n        /* \"contracts/FunctionVisibilitySpecifiers.sol\":520:620  function getInternalFunction() public view returns(int) {... */\n    tag_20:\n        /* \"contracts/FunctionVisibilitySpecifiers.sol\":571:574  int */\n      0x00\n        /* \"contracts/FunctionVisibilitySpecifiers.sol\":594:612  internalFunction() */\n      tag_31\n        /* \"contracts/FunctionVisibilitySpecifiers.sol\":594:610  internalFunction */\n      tag_32\n        /* \"contracts/FunctionVisibilitySpecifiers.sol\":594:612  internalFunction() */\n      jump\t// in\n    tag_31:\n        /* \"contracts/FunctionVisibilitySpecifiers.sol\":587:612  return internalFunction() */\n      swap1\n      pop\n        /* \"contracts/FunctionVisibilitySpecifiers.sol\":520:620  function getInternalFunction() public view returns(int) {... */\n      swap1\n      jump\t// out\n        /* \"contracts/FunctionVisibilitySpecifiers.sol\":953:1056  function getExternalFunction() public view returns(int) {... */\n    tag_23:\n        /* \"contracts/FunctionVisibilitySpecifiers.sol\":1004:1007  int */\n      0x00\n        /* \"contracts/FunctionVisibilitySpecifiers.sol\":953:1056  function getExternalFunction() public view returns(int) {... */\n      swap1\n      jump\t// out\n        /* \"contracts/FunctionVisibilitySpecifiers.sol\":324:422  function getPrivateFunction() public view returns(int) {... */\n    tag_26:\n        /* \"contracts/FunctionVisibilitySpecifiers.sol\":374:377  int */\n      0x00\n        /* \"contracts/FunctionVisibilitySpecifiers.sol\":397:414  privateFunction() */\n      tag_35\n        /* \"contracts/FunctionVisibilitySpecifiers.sol\":397:412  privateFunction */\n      tag_36\n        /* \"contracts/FunctionVisibilitySpecifiers.sol\":397:414  privateFunction() */\n      jump\t// in\n    tag_35:\n        /* \"contracts/FunctionVisibilitySpecifiers.sol\":390:414  return privateFunction() */\n      swap1\n      pop\n        /* \"contracts/FunctionVisibilitySpecifiers.sol\":324:422  function getPrivateFunction() public view returns(int) {... */\n      swap1\n      jump\t// out\n        /* \"contracts/FunctionVisibilitySpecifiers.sol\":430:512  function internalFunction() internal view returns(int) {... */\n    tag_32:\n        /* \"contracts/FunctionVisibilitySpecifiers.sol\":480:483  int */\n      0x00\n        /* \"contracts/FunctionVisibilitySpecifiers.sol\":503:504  x */\n      dup1\n      sload\n        /* \"contracts/FunctionVisibilitySpecifiers.sol\":496:504  return x */\n      swap1\n      pop\n        /* \"contracts/FunctionVisibilitySpecifiers.sol\":430:512  function internalFunction() internal view returns(int) {... */\n      swap1\n      jump\t// out\n        /* \"contracts/FunctionVisibilitySpecifiers.sol\":236:316  function privateFunction() private view returns(int) {... */\n    tag_36:\n        /* \"contracts/FunctionVisibilitySpecifiers.sol\":284:287  int */\n      0x00\n        /* \"contracts/FunctionVisibilitySpecifiers.sol\":307:308  x */\n      dup1\n      sload\n        /* \"contracts/FunctionVisibilitySpecifiers.sol\":300:308  return x */\n      swap1\n      pop\n        /* \"contracts/FunctionVisibilitySpecifiers.sol\":236:316  function privateFunction() private view returns(int) {... */\n      swap1\n      jump\t// out\n        /* \"#utility.yul\":7:83   */\n    tag_39:\n        /* \"#utility.yul\":43:50   */\n      0x00\n        /* \"#utility.yul\":72:77   */\n      dup2\n        /* \"#utility.yul\":61:77   */\n      swap1\n      pop\n        /* \"#utility.yul\":7:83   */\n      swap2\n      swap1\n      pop\n      jump\t// out\n        /* \"#utility.yul\":89:204   */\n    tag_40:\n        /* \"#utility.yul\":174:197   */\n      tag_44\n        /* \"#utility.yul\":191:196   */\n      dup2\n        /* \"#utility.yul\":174:197   */\n      tag_39\n      jump\t// in\n    tag_44:\n        /* \"#utility.yul\":169:172   */\n      dup3\n        /* \"#utility.yul\":162:198   */\n      mstore\n        /* \"#utility.yul\":89:204   */\n      pop\n      pop\n      jump\t// out\n        /* \"#utility.yul\":210:428   */\n    tag_12:\n        /* \"#utility.yul\":301:305   */\n      0x00\n        /* \"#utility.yul\":339:341   */\n      0x20\n        /* \"#utility.yul\":328:337   */\n      dup3\n        /* \"#utility.yul\":324:342   */\n      add\n        /* \"#utility.yul\":316:342   */\n      swap1\n      pop\n        /* \"#utility.yul\":352:421   */\n      tag_46\n        /* \"#utility.yul\":418:419   */\n      0x00\n        /* \"#utility.yul\":407:416   */\n      dup4\n        /* \"#utility.yul\":403:420   */\n      add\n        /* \"#utility.yul\":394:400   */\n      dup5\n        /* \"#utility.yul\":352:421   */\n      tag_40\n      jump\t// in\n    tag_46:\n        /* \"#utility.yul\":210:428   */\n      swap3\n      swap2\n      pop\n      pop\n      jump\t// out\n\n    auxdata: 0xa26469706673582212209fc4ee91dcec93a787c9b32ba5c64c6af78e4a5d9ff83101a193db2a1b44f9e864736f6c63430008110033\n}\n",
				"bytecode": {
					"linkReferences": {},
					"object": "6080604052600a600055601460015534801561001a57600080fd5b506101d38061002a6000396000f3fe608060405234801561001057600080fd5b50600436106100625760003560e01c80630b7f1665146100675780630c55699c146100855780633a32b549146100a35780637a644830146100c15780638a21234f146100df578063ca0b5ad9146100fd575b600080fd5b61006f61011b565b60405161007c9190610182565b60405180910390f35b61008d610125565b60405161009a9190610182565b60405180910390f35b6100ab61012b565b6040516100b89190610182565b60405180910390f35b6100c9610134565b6040516100d69190610182565b60405180910390f35b6100e7610143565b6040516100f49190610182565b60405180910390f35b610105610148565b6040516101129190610182565b60405180910390f35b6000600154905090565b60005481565b60008054905090565b600061013e610157565b905090565b600090565b6000610152610160565b905090565b60008054905090565b60008054905090565b6000819050919050565b61017c81610169565b82525050565b60006020820190506101976000830184610173565b9291505056fea26469706673582212209fc4ee91dcec93a787c9b32ba5c64c6af78e4a5d9ff83101a193db2a1b44f9e864736f6c63430008110033",
					"opcodes": "PUSH1 0x80 PUSH1 0x40 MSTORE PUSH1 0xA PUSH1 0x0 SSTORE PUSH1 0x14 PUSH1 0x1 SSTORE CALLVALUE DUP1 ISZERO PUSH2 0x1A JUMPI PUSH1 0x0 DUP1 REVERT JUMPDEST POP PUSH2 0x1D3 DUP1 PUSH2 0x2A PUSH1 0x0 CODECOPY PUSH1 0x0 RETURN INVALID PUSH1 0x80 PUSH1 0x40 MSTORE CALLVALUE DUP1 ISZERO PUSH2 0x10 JUMPI PUSH1 0x0 DUP1 REVERT JUMPDEST POP PUSH1 0x4 CALLDATASIZE LT PUSH2 0x62 JUMPI PUSH1 0x0 CALLDATALOAD PUSH1 0xE0 SHR DUP1 PUSH4 0xB7F1665 EQ PUSH2 0x67 JUMPI DUP1 PUSH4 0xC55699C EQ PUSH2 0x85 JUMPI DUP1 PUSH4 0x3A32B549 EQ PUSH2 0xA3 JUMPI DUP1 PUSH4 0x7A644830 EQ PUSH2 0xC1 JUMPI DUP1 PUSH4 0x8A21234F EQ PUSH2 0xDF JUMPI DUP1 PUSH4 0xCA0B5AD9 EQ PUSH2 0xFD JUMPI JUMPDEST PUSH1 0x0 DUP1 REVERT JUMPDEST PUSH2 0x6F PUSH2 0x11B JUMP JUMPDEST PUSH1 0x40 MLOAD PUSH2 0x7C SWAP2 SWAP1 PUSH2 0x182 JUMP JUMPDEST PUSH1 0x40 MLOAD DUP1 SWAP2 SUB SWAP1 RETURN JUMPDEST PUSH2 0x8D PUSH2 0x125 JUMP JUMPDEST PUSH1 0x40 MLOAD PUSH2 0x9A SWAP2 SWAP1 PUSH2 0x182 JUMP JUMPDEST PUSH1 0x40 MLOAD DUP1 SWAP2 SUB SWAP1 RETURN JUMPDEST PUSH2 0xAB PUSH2 0x12B JUMP JUMPDEST PUSH1 0x40 MLOAD PUSH2 0xB8 SWAP2 SWAP1 PUSH2 0x182 JUMP JUMPDEST PUSH1 0x40 MLOAD DUP1 SWAP2 SUB SWAP1 RETURN JUMPDEST PUSH2 0xC9 PUSH2 0x134 JUMP JUMPDEST PUSH1 0x40 MLOAD PUSH2 0xD6 SWAP2 SWAP1 PUSH2 0x182 JUMP JUMPDEST PUSH1 0x40 MLOAD DUP1 SWAP2 SUB SWAP1 RETURN JUMPDEST PUSH2 0xE7 PUSH2 0x143 JUMP JUMPDEST PUSH1 0x40 MLOAD PUSH2 0xF4 SWAP2 SWAP1 PUSH2 0x182 JUMP JUMPDEST PUSH1 0x40 MLOAD DUP1 SWAP2 SUB SWAP1 RETURN JUMPDEST PUSH2 0x105 PUSH2 0x148 JUMP JUMPDEST PUSH1 0x40 MLOAD PUSH2 0x112 SWAP2 SWAP1 PUSH2 0x182 JUMP JUMPDEST PUSH1 0x40 MLOAD DUP1 SWAP2 SUB SWAP1 RETURN JUMPDEST PUSH1 0x0 PUSH1 0x1 SLOAD SWAP1 POP SWAP1 JUMP JUMPDEST PUSH1 0x0 SLOAD DUP2 JUMP JUMPDEST PUSH1 0x0 DUP1 SLOAD SWAP1 POP SWAP1 JUMP JUMPDEST PUSH1 0x0 PUSH2 0x13E PUSH2 0x157 JUMP JUMPDEST SWAP1 POP SWAP1 JUMP JUMPDEST PUSH1 0x0 SWAP1 JUMP JUMPDEST PUSH1 0x0 PUSH2 0x152 PUSH2 0x160 JUMP JUMPDEST SWAP1 POP SWAP1 JUMP JUMPDEST PUSH1 0x0 DUP1 SLOAD SWAP1 POP SWAP1 JUMP JUMPDEST PUSH1 0x0 DUP1 SLOAD SWAP1 POP SWAP1 JUMP JUMPDEST PUSH1 0x0 DUP2 SWAP1 POP SWAP2 SWAP1 POP JUMP JUMPDEST PUSH2 0x17C DUP2 PUSH2 0x169 JUMP JUMPDEST DUP3 MSTORE POP POP JUMP JUMPDEST PUSH1 0x0 PUSH1 0x20 DUP3 ADD SWAP1 POP PUSH2 0x197 PUSH1 0x0 DUP4 ADD DUP5 PUSH2 0x173 JUMP JUMPDEST SWAP3 SWAP2 POP POP JUMP INVALID LOG2 PUSH5 0x6970667358 0x22 SLT KECCAK256 SWAP16 0xC4 0xEE SWAP2 0xDC 0xEC SWAP4 0xA7 DUP8 0xC9 0xB3 0x2B 0xA5 0xC6 0x4C PUSH11 0xF78E4A5D9FF83101A193DB 0x2A SHL DIFFICULTY 0xF9 0xE8 PUSH5 0x736F6C6343 STOP ADDMOD GT STOP CALLER "
				},
				"gasEstimates": {
					"creation": {
						"codeDepositCost": "93400",
						"executionCost": "44353",
						"totalCost": "137753"
					},
					"external": {
						"externalFunction()": "2459",
						"getExternalFunction()": "395",
						"getInternalFunction()": "2516",
						"getPrivateFunction()": "2560",
						"getY()": "2415",
						"x()": "2429"
					},
					"internal": {
						"internalFunction()": "2123",
						"privateFunction()": "2123"
					}
				},
				"methodIdentifiers": {
					"externalFunction()": "3a32b549",
					"getExternalFunction()": "8a21234f",
					"getInternalFunction()": "7a644830",
					"getPrivateFunction()": "ca0b5ad9",
					"getY()": "0b7f1665",
					"x()": "0c55699c"
				}
			},
			"storageLayout": {
				"storage": [
					{
						"astId": 4,
						"contract": "contracts/FunctionVisibilitySpecifiers.sol:FunctionVisibilitySpecifiers",
						"label": "x",
						"offset": 0,
						"slot": "0",
						"type": "t_int256"
					},
					{
						"astId": 7,
						"contract": "contracts/FunctionVisibilitySpecifiers.sol:FunctionVisibilitySpecifiers",
						"label": "y",
						"offset": 0,
						"slot": "1",
						"type": "t_int256"
					}
				],
				"types": {
					"t_int256": {
						"encoding": "inplace",
						"label": "int256",
						"numberOfBytes": "32"
					}
				}
			},
			"userdoc": {
				"kind": "user",
				"methods": {},
				"version": 1
			}
		}
	}
}