{
	"contracts/FunctionVisibilitySpecifiers.sol": {
		"InheritedContract": {
			"abi": [
				{
					"inputs": [],
					"name": "_x",
					"outputs": [
						{
							"internalType": "int256",
							"name": "",
							"type": "int256"
						}
					],
					"stateMutability": "view",
					"type": "function"
				},
				{
					"inputs": [],
					"name": "externalFunction",
					"outputs": [
						{
							"internalType": "int256",
							"name": "",
							"type": "int256"
						}
					],
					"stateMutability": "view",
					"type": "function"
				},
				{
					"inputs": [],
					"name": "getExternalFunction",
					"outputs": [
						{
							"internalType": "int256",
							"name": "",
							"type": "int256"
						}
					],
					"stateMutability": "view",
					"type": "function"
				},
				{
					"inputs": [],
					"name": "getInternalFunction",
					"outputs": [
						{
							"internalType": "int256",
							"name": "",
							"type": "int256"
						}
					],
					"stateMutability": "view",
					"type": "function"
				},
				{
					"inputs": [],
					"name": "getPrivateFunction",
					"outputs": [
						{
							"internalType": "int256",
							"name": "",
							"type": "int256"
						}
					],
					"stateMutability": "view",
					"type": "function"
				},
				{
					"inputs": [],
					"name": "getY",
					"outputs": [
						{
							"internalType": "int256",
							"name": "",
							"type": "int256"
						}
					],
					"stateMutability": "view",
					"type": "function"
				},
				{
					"inputs": [],
					"name": "retrieveExternalFunction",
					"outputs": [
						{
							"internalType": "int256",
							"name": "",
							"type": "int256"
						}
					],
					"stateMutability": "view",
					"type": "function"
				},
				{
					"inputs": [],
					"name": "x",
					"outputs": [
						{
							"internalType": "int256",
							"name": "",
							"type": "int256"
						}
					],
					"stateMutability": "view",
					"type": "function"
				}
			],
			"devdoc": {
				"kind": "dev",
				"methods": {},
				"version": 1
			},
			"evm": {
				"assembly": "    /* \"contracts/FunctionVisibilitySpecifiers.sol\":1063:1521  contract InheritedContract is FunctionVisibilitySpecifiers {... */\n  mstore(0x40, 0x80)\n    /* \"contracts/FunctionVisibilitySpecifiers.sol\":124:126  10 */\n  0x0a\n    /* \"contracts/FunctionVisibilitySpecifiers.sol\":109:126  int public x = 10 */\n  0x00\n  sstore\n    /* \"contracts/FunctionVisibilitySpecifiers.sol\":149:151  20 */\n  0x14\n    /* \"contracts/FunctionVisibilitySpecifiers.sol\":133:151  int private y = 20 */\n  0x01\n  sstore\n    /* \"contracts/FunctionVisibilitySpecifiers.sol\":1145:1163  internalFunction() */\n  tag_1\n    /* \"contracts/FunctionVisibilitySpecifiers.sol\":1145:1161  internalFunction */\n  shl(0x20, tag_2)\n    /* \"contracts/FunctionVisibilitySpecifiers.sol\":1145:1163  internalFunction() */\n  0x20\n  shr\n  jump\t// in\ntag_1:\n    /* \"contracts/FunctionVisibilitySpecifiers.sol\":1129:1163  int public _x = internalFunction() */\n  0x02\n  sstore\n    /* \"contracts/FunctionVisibilitySpecifiers.sol\":1063:1521  contract InheritedContract is FunctionVisibilitySpecifiers {... */\n  callvalue\n  dup1\n  iszero\n  tag_3\n  jumpi\n  0x00\n  dup1\n  revert\ntag_3:\n  pop\n  jump(tag_4)\n    /* \"contracts/FunctionVisibilitySpecifiers.sol\":430:512  function internalFunction() internal view returns(int) {... */\ntag_2:\n    /* \"contracts/FunctionVisibilitySpecifiers.sol\":480:483  int */\n  0x00\n    /* \"contracts/FunctionVisibilitySpecifiers.sol\":503:504  x */\n  dup1\n  sload\n    /* \"contracts/FunctionVisibilitySpecifiers.sol\":496:504  return x */\n  swap1\n  pop\n    /* \"contracts/FunctionVisibilitySpecifiers.sol\":430:512  function internalFunction() internal view returns(int) {... */\n  swap1\n  jump\t// out\n    /* \"contracts/FunctionVisibilitySpecifiers.sol\":1063:1521  contract InheritedContract is FunctionVisibilitySpecifiers {... */\ntag_4:\n  dataSize(sub_0)\n  dup1\n  dataOffset(sub_0)\n  0x00\n  codecopy\n  0x00\n  return\nstop\n\nsub_0: assembly {\n        /* \"contracts/FunctionVisibilitySpecifiers.sol\":1063:1521  contract InheritedContract is FunctionVisibilitySpecifiers {... */\n      mstore(0x40, 0x80)\n      callvalue\n      dup1\n      iszero\n      tag_1\n      jumpi\n      0x00\n      dup1\n      revert\n    tag_1:\n      pop\n      jumpi(tag_2, lt(calldatasize, 0x04))\n      shr(0xe0, calldataload(0x00))\n      dup1\n      0x7a644830\n      gt\n      tag_11\n      jumpi\n      dup1\n      0x7a644830\n      eq\n      tag_7\n      jumpi\n      dup1\n      0x8a21234f\n      eq\n      tag_8\n      jumpi\n      dup1\n      0xaacea7f3\n      eq\n      tag_9\n      jumpi\n      dup1\n      0xca0b5ad9\n      eq\n      tag_10\n      jumpi\n      jump(tag_2)\n    tag_11:\n      dup1\n      0x0b7f1665\n      eq\n      tag_3\n      jumpi\n      dup1\n      0x0c55699c\n      eq\n      tag_4\n      jumpi\n      dup1\n      0x29809703\n      eq\n      tag_5\n      jumpi\n      dup1\n      0x3a32b549\n      eq\n      tag_6\n      jumpi\n    tag_2:\n      0x00\n      dup1\n      revert\n        /* \"contracts/FunctionVisibilitySpecifiers.sol\":160:228  function getY() public view returns(int) {... */\n    tag_3:\n      tag_12\n      tag_13\n      jump\t// in\n    tag_12:\n      mload(0x40)\n      tag_14\n      swap2\n      swap1\n      tag_15\n      jump\t// in\n    tag_14:\n      mload(0x40)\n      dup1\n      swap2\n      sub\n      swap1\n      return\n        /* \"contracts/FunctionVisibilitySpecifiers.sol\":109:126  int public x = 10 */\n    tag_4:\n      tag_16\n      tag_17\n      jump\t// in\n    tag_16:\n      mload(0x40)\n      tag_18\n      swap2\n      swap1\n      tag_15\n      jump\t// in\n    tag_18:\n      mload(0x40)\n      dup1\n      swap2\n      sub\n      swap1\n      return\n        /* \"contracts/FunctionVisibilitySpecifiers.sol\":1129:1163  int public _x = internalFunction() */\n    tag_5:\n      tag_19\n      tag_20\n      jump\t// in\n    tag_19:\n      mload(0x40)\n      tag_21\n      swap2\n      swap1\n      tag_15\n      jump\t// in\n    tag_21:\n      mload(0x40)\n      dup1\n      swap2\n      sub\n      swap1\n      return\n        /* \"contracts/FunctionVisibilitySpecifiers.sol\":731:813  function externalFunction() external view returns(int) {... */\n    tag_6:\n      tag_22\n      tag_23\n      jump\t// in\n    tag_22:\n      mload(0x40)\n      tag_24\n      swap2\n      swap1\n      tag_15\n      jump\t// in\n    tag_24:\n      mload(0x40)\n      dup1\n      swap2\n      sub\n      swap1\n      return\n        /* \"contracts/FunctionVisibilitySpecifiers.sol\":520:620  function getInternalFunction() public view returns(int) {... */\n    tag_7:\n      tag_25\n      tag_26\n      jump\t// in\n    tag_25:\n      mload(0x40)\n      tag_27\n      swap2\n      swap1\n      tag_15\n      jump\t// in\n    tag_27:\n      mload(0x40)\n      dup1\n      swap2\n      sub\n      swap1\n      return\n        /* \"contracts/FunctionVisibilitySpecifiers.sol\":953:1056  function getExternalFunction() public view returns(int) {... */\n    tag_8:\n      tag_28\n      tag_29\n      jump\t// in\n    tag_28:\n      mload(0x40)\n      tag_30\n      swap2\n      swap1\n      tag_15\n      jump\t// in\n    tag_30:\n      mload(0x40)\n      dup1\n      swap2\n      sub\n      swap1\n      return\n        /* \"contracts/FunctionVisibilitySpecifiers.sol\":1410:1518  function retrieveExternalFunction() public view returns(int) {... */\n    tag_9:\n      tag_31\n      tag_32\n      jump\t// in\n    tag_31:\n      mload(0x40)\n      tag_33\n      swap2\n      swap1\n      tag_15\n      jump\t// in\n    tag_33:\n      mload(0x40)\n      dup1\n      swap2\n      sub\n      swap1\n      return\n        /* \"contracts/FunctionVisibilitySpecifiers.sol\":324:422  function getPrivateFunction() public view returns(int) {... */\n    tag_10:\n      tag_34\n      tag_35\n      jump\t// in\n    tag_34:\n      mload(0x40)\n      tag_36\n      swap2\n      swap1\n      tag_15\n      jump\t// in\n    tag_36:\n      mload(0x40)\n      dup1\n      swap2\n      sub\n      swap1\n      return\n        /* \"contracts/FunctionVisibilitySpecifiers.sol\":160:228  function getY() public view returns(int) {... */\n    tag_13:\n        /* \"contracts/FunctionVisibilitySpecifiers.sol\":196:199  int */\n      0x00\n        /* \"contracts/FunctionVisibilitySpecifiers.sol\":219:220  y */\n      sload(0x01)\n        /* \"contracts/FunctionVisibilitySpecifiers.sol\":212:220  return y */\n      swap1\n      pop\n        /* \"contracts/FunctionVisibilitySpecifiers.sol\":160:228  function getY() public view returns(int) {... */\n      swap1\n      jump\t// out\n        /* \"contracts/FunctionVisibilitySpecifiers.sol\":109:126  int public x = 10 */\n    tag_17:\n      sload(0x00)\n      dup2\n      jump\t// out\n        /* \"contracts/FunctionVisibilitySpecifiers.sol\":1129:1163  int public _x = internalFunction() */\n    tag_20:\n      sload(0x02)\n      dup2\n      jump\t// out\n        /* \"contracts/FunctionVisibilitySpecifiers.sol\":731:813  function externalFunction() external view returns(int) {... */\n    tag_23:\n        /* \"contracts/FunctionVisibilitySpecifiers.sol\":781:784  int */\n      0x00\n        /* \"contracts/FunctionVisibilitySpecifiers.sol\":804:805  x */\n      dup1\n      sload\n        /* \"contracts/FunctionVisibilitySpecifiers.sol\":797:805  return x */\n      swap1\n      pop\n        /* \"contracts/FunctionVisibilitySpecifiers.sol\":731:813  function externalFunction() external view returns(int) {... */\n      swap1\n      jump\t// out\n        /* \"contracts/FunctionVisibilitySpecifiers.sol\":520:620  function getInternalFunction() public view returns(int) {... */\n    tag_26:\n        /* \"contracts/FunctionVisibilitySpecifiers.sol\":571:574  int */\n      0x00\n        /* \"contracts/FunctionVisibilitySpecifiers.sol\":594:612  internalFunction() */\n      tag_40\n        /* \"contracts/FunctionVisibilitySpecifiers.sol\":594:610  internalFunction */\n      tag_41\n        /* \"contracts/FunctionVisibilitySpecifiers.sol\":594:612  internalFunction() */\n      jump\t// in\n    tag_40:\n        /* \"contracts/FunctionVisibilitySpecifiers.sol\":587:612  return internalFunction() */\n      swap1\n      pop\n        /* \"contracts/FunctionVisibilitySpecifiers.sol\":520:620  function getInternalFunction() public view returns(int) {... */\n      swap1\n      jump\t// out\n        /* \"contracts/FunctionVisibilitySpecifiers.sol\":953:1056  function getExternalFunction() public view returns(int) {... */\n    tag_29:\n        /* \"contracts/FunctionVisibilitySpecifiers.sol\":1004:1007  int */\n      0x00\n        /* \"contracts/FunctionVisibilitySpecifiers.sol\":953:1056  function getExternalFunction() public view returns(int) {... */\n      swap1\n      jump\t// out\n        /* \"contracts/FunctionVisibilitySpecifiers.sol\":1410:1518  function retrieveExternalFunction() public view returns(int) {... */\n    tag_32:\n        /* \"contracts/FunctionVisibilitySpecifiers.sol\":1466:1469  int */\n      0x00\n        /* \"contracts/FunctionVisibilitySpecifiers.sol\":1410:1518  function retrieveExternalFunction() public view returns(int) {... */\n      swap1\n      jump\t// out\n        /* \"contracts/FunctionVisibilitySpecifiers.sol\":324:422  function getPrivateFunction() public view returns(int) {... */\n    tag_35:\n        /* \"contracts/FunctionVisibilitySpecifiers.sol\":374:377  int */\n      0x00\n        /* \"contracts/FunctionVisibilitySpecifiers.sol\":397:414  privateFunction() */\n      tag_45\n        /* \"contracts/FunctionVisibilitySpecifiers.sol\":397:412  privateFunction */\n      tag_46\n        /* \"contracts/FunctionVisibilitySpecifiers.sol\":397:414  privateFunction() */\n      jump\t// in\n    tag_45:\n        /* \"contracts/FunctionVisibilitySpecifiers.sol\":390:414  return privateFunction() */\n      swap1\n      pop\n        /* \"contracts/FunctionVisibilitySpecifiers.sol\":324:422  function getPrivateFunction() public view returns(int) {... */\n      swap1\n      jump\t// out\n        /* \"contracts/FunctionVisibilitySpecifiers.sol\":430:512  function internalFunction() internal view returns(int) {... */\n    tag_41:\n        /* \"contracts/FunctionVisibilitySpecifiers.sol\":480:483  int */\n      0x00\n        /* \"contracts/FunctionVisibilitySpecifiers.sol\":503:504  x */\n      dup1\n      sload\n        /* \"contracts/FunctionVisibilitySpecifiers.sol\":496:504  return x */\n      swap1\n      pop\n        /* \"contracts/FunctionVisibilitySpecifiers.sol\":430:512  function internalFunction() internal view returns(int) {... */\n      swap1\n      jump\t// out\n        /* \"contracts/FunctionVisibilitySpecifiers.sol\":236:316  function privateFunction() private view returns(int) {... */\n    tag_46:\n        /* \"contracts/FunctionVisibilitySpecifiers.sol\":284:287  int */\n      0x00\n        /* \"contracts/FunctionVisibilitySpecifiers.sol\":307:308  x */\n      dup1\n      sload\n        /* \"contracts/FunctionVisibilitySpecifiers.sol\":300:308  return x */\n      swap1\n      pop\n        /* \"contracts/FunctionVisibilitySpecifiers.sol\":236:316  function privateFunction() private view returns(int) {... */\n      swap1\n      jump\t// out\n        /* \"#utility.yul\":7:83   */\n    tag_49:\n        /* \"#utility.yul\":43:50   */\n      0x00\n        /* \"#utility.yul\":72:77   */\n      dup2\n        /* \"#utility.yul\":61:77   */\n      swap1\n      pop\n        /* \"#utility.yul\":7:83   */\n      swap2\n      swap1\n      pop\n      jump\t// out\n        /* \"#utility.yul\":89:204   */\n    tag_50:\n        /* \"#utility.yul\":174:197   */\n      tag_54\n        /* \"#utility.yul\":191:196   */\n      dup2\n        /* \"#utility.yul\":174:197   */\n      tag_49\n      jump\t// in\n    tag_54:\n        /* \"#utility.yul\":169:172   */\n      dup3\n        /* \"#utility.yul\":162:198   */\n      mstore\n        /* \"#utility.yul\":89:204   */\n      pop\n      pop\n      jump\t// out\n        /* \"#utility.yul\":210:428   */\n    tag_15:\n        /* \"#utility.yul\":301:305   */\n      0x00\n        /* \"#utility.yul\":339:341   */\n      0x20\n        /* \"#utility.yul\":328:337   */\n      dup3\n        /* \"#utility.yul\":324:342   */\n      add\n        /* \"#utility.yul\":316:342   */\n      swap1\n      pop\n        /* \"#utility.yul\":352:421   */\n      tag_56\n        /* \"#utility.yul\":418:419   */\n      0x00\n        /* \"#utility.yul\":407:416   */\n      dup4\n        /* \"#utility.yul\":403:420   */\n      add\n        /* \"#utility.yul\":394:400   */\n      dup5\n        /* \"#utility.yul\":352:421   */\n      tag_50\n      jump\t// in\n    tag_56:\n        /* \"#utility.yul\":210:428   */\n      swap3\n      swap2\n      pop\n      pop\n      jump\t// out\n\n    auxdata: 0xa2646970667358221220170bff85c17ca31d8e3fa6e06a2943e9288113462b1712767f9947b459c3e1d564736f6c63430008110033\n}\n",
				"bytecode": {
					"linkReferences": {},
					"object": "6080604052600a600055601460015561001c61003160201b60201c565b60025534801561002b57600080fd5b5061003a565b60008054905090565b610240806100496000396000f3fe608060405234801561001057600080fd5b50600436106100885760003560e01c80637a6448301161005b5780637a644830146101055780638a21234f14610123578063aacea7f314610141578063ca0b5ad91461015f57610088565b80630b7f16651461008d5780630c55699c146100ab57806329809703146100c95780633a32b549146100e7575b600080fd5b61009561017d565b6040516100a291906101ef565b60405180910390f35b6100b3610187565b6040516100c091906101ef565b60405180910390f35b6100d161018d565b6040516100de91906101ef565b60405180910390f35b6100ef610193565b6040516100fc91906101ef565b60405180910390f35b61010d61019c565b60405161011a91906101ef565b60405180910390f35b61012b6101ab565b60405161013891906101ef565b60405180910390f35b6101496101b0565b60405161015691906101ef565b60405180910390f35b6101676101b5565b60405161017491906101ef565b60405180910390f35b6000600154905090565b60005481565b60025481565b60008054905090565b60006101a66101c4565b905090565b600090565b600090565b60006101bf6101cd565b905090565b60008054905090565b60008054905090565b6000819050919050565b6101e9816101d6565b82525050565b600060208201905061020460008301846101e0565b9291505056fea2646970667358221220170bff85c17ca31d8e3fa6e06a2943e9288113462b1712767f9947b459c3e1d564736f6c63430008110033",
					"opcodes": "PUSH1 0x80 PUSH1 0x40 MSTORE PUSH1 0xA PUSH1 0x0 SSTORE PUSH1 0x14 PUSH1 0x1 SSTORE PUSH2 0x1C PUSH2 0x31 PUSH1 0x20 SHL PUSH1 0x20 SHR JUMP JUMPDEST PUSH1 0x2 SSTORE CALLVALUE DUP1 ISZERO PUSH2 0x2B JUMPI PUSH1 0x0 DUP1 REVERT JUMPDEST POP PUSH2 0x3A JUMP JUMPDEST PUSH1 0x0 DUP1 SLOAD SWAP1 POP SWAP1 JUMP JUMPDEST PUSH2 0x240 DUP1 PUSH2 0x49 PUSH1 0x0 CODECOPY PUSH1 0x0 RETURN INVALID PUSH1 0x80 PUSH1 0x40 MSTORE CALLVALUE DUP1 ISZERO PUSH2 0x10 JUMPI PUSH1 0x0 DUP1 REVERT JUMPDEST POP PUSH1 0x4 CALLDATASIZE LT PUSH2 0x88 JUMPI PUSH1 0x0 CALLDATALOAD PUSH1 0xE0 SHR DUP1 PUSH4 0x7A644830 GT PUSH2 0x5B JUMPI DUP1 PUSH4 0x7A644830 EQ PUSH2 0x105 JUMPI DUP1 PUSH4 0x8A21234F EQ PUSH2 0x123 JUMPI DUP1 PUSH4 0xAACEA7F3 EQ PUSH2 0x141 JUMPI DUP1 PUSH4 0xCA0B5AD9 EQ PUSH2 0x15F JUMPI PUSH2 0x88 JUMP JUMPDEST DUP1 PUSH4 0xB7F1665 EQ PUSH2 0x8D JUMPI DUP1 PUSH4 0xC55699C EQ PUSH2 0xAB JUMPI DUP1 PUSH4 0x29809703 EQ PUSH2 0xC9 JUMPI DUP1 PUSH4 0x3A32B549 EQ PUSH2 0xE7 JUMPI JUMPDEST PUSH1 0x0 DUP1 REVERT JUMPDEST PUSH2 0x95 PUSH2 0x17D JUMP JUMPDEST PUSH1 0x40 MLOAD PUSH2 0xA2 SWAP2 SWAP1 PUSH2 0x1EF JUMP JUMPDEST PUSH1 0x40 MLOAD DUP1 SWAP2 SUB SWAP1 RETURN JUMPDEST PUSH2 0xB3 PUSH2 0x187 JUMP JUMPDEST PUSH1 0x40 MLOAD PUSH2 0xC0 SWAP2 SWAP1 PUSH2 0x1EF JUMP JUMPDEST PUSH1 0x40 MLOAD DUP1 SWAP2 SUB SWAP1 RETURN JUMPDEST PUSH2 0xD1 PUSH2 0x18D JUMP JUMPDEST PUSH1 0x40 MLOAD PUSH2 0xDE SWAP2 SWAP1 PUSH2 0x1EF JUMP JUMPDEST PUSH1 0x40 MLOAD DUP1 SWAP2 SUB SWAP1 RETURN JUMPDEST PUSH2 0xEF PUSH2 0x193 JUMP JUMPDEST PUSH1 0x40 MLOAD PUSH2 0xFC SWAP2 SWAP1 PUSH2 0x1EF JUMP JUMPDEST PUSH1 0x40 MLOAD DUP1 SWAP2 SUB SWAP1 RETURN JUMPDEST PUSH2 0x10D PUSH2 0x19C JUMP JUMPDEST PUSH1 0x40 MLOAD PUSH2 0x11A SWAP2 SWAP1 PUSH2 0x1EF JUMP JUMPDEST PUSH1 0x40 MLOAD DUP1 SWAP2 SUB SWAP1 RETURN JUMPDEST PUSH2 0x12B PUSH2 0x1AB JUMP JUMPDEST PUSH1 0x40 MLOAD PUSH2 0x138 SWAP2 SWAP1 PUSH2 0x1EF JUMP JUMPDEST PUSH1 0x40 MLOAD DUP1 SWAP2 SUB SWAP1 RETURN JUMPDEST PUSH2 0x149 PUSH2 0x1B0 JUMP JUMPDEST PUSH1 0x40 MLOAD PUSH2 0x156 SWAP2 SWAP1 PUSH2 0x1EF JUMP JUMPDEST PUSH1 0x40 MLOAD DUP1 SWAP2 SUB SWAP1 RETURN JUMPDEST PUSH2 0x167 PUSH2 0x1B5 JUMP JUMPDEST PUSH1 0x40 MLOAD PUSH2 0x174 SWAP2 SWAP1 PUSH2 0x1EF JUMP JUMPDEST PUSH1 0x40 MLOAD DUP1 SWAP2 SUB SWAP1 RETURN JUMPDEST PUSH1 0x0 PUSH1 0x1 SLOAD SWAP1 POP SWAP1 JUMP JUMPDEST PUSH1 0x0 SLOAD DUP2 JUMP JUMPDEST PUSH1 0x2 SLOAD DUP2 JUMP JUMPDEST PUSH1 0x0 DUP1 SLOAD SWAP1 POP SWAP1 JUMP JUMPDEST PUSH1 0x0 PUSH2 0x1A6 PUSH2 0x1C4 JUMP JUMPDEST SWAP1 POP SWAP1 JUMP JUMPDEST PUSH1 0x0 SWAP1 JUMP JUMPDEST PUSH1 0x0 SWAP1 JUMP JUMPDEST PUSH1 0x0 PUSH2 0x1BF PUSH2 0x1CD JUMP JUMPDEST SWAP1 POP SWAP1 JUMP JUMPDEST PUSH1 0x0 DUP1 SLOAD SWAP1 POP SWAP1 JUMP JUMPDEST PUSH1 0x0 DUP1 SLOAD SWAP1 POP SWAP1 JUMP JUMPDEST PUSH1 0x0 DUP2 SWAP1 POP SWAP2 SWAP1 POP JUMP JUMPDEST PUSH2 0x1E9 DUP2 PUSH2 0x1D6 JUMP JUMPDEST DUP3 MSTORE POP POP JUMP JUMPDEST PUSH1 0x0 PUSH1 0x20 DUP3 ADD SWAP1 POP PUSH2 0x204 PUSH1 0x0 DUP4 ADD DUP5 PUSH2 0x1E0 JUMP JUMPDEST SWAP3 SWAP2 POP POP JUMP INVALID LOG2 PUSH5 0x6970667358 0x22 SLT KECCAK256 OR SIGNEXTEND SELFDESTRUCT DUP6 0xC1 PUSH29 0xA31D8E3FA6E06A2943E9288113462B1712767F9947B459C3E1D564736F PUSH13 0x63430008110033000000000000 "
				},
				"gasEstimates": {
					"creation": {
						"codeDepositCost": "115200",
						"executionCost": "infinite",
						"totalCost": "infinite"
					},
					"external": {
						"_x()": "2474",
						"externalFunction()": "2504",
						"getExternalFunction()": "351",
						"getInternalFunction()": "2472",
						"getPrivateFunction()": "2538",
						"getY()": "2438",
						"retrieveExternalFunction()": "373",
						"x()": "2452"
					}
				},
				"methodIdentifiers": {
					"_x()": "29809703",
					"externalFunction()": "3a32b549",
					"getExternalFunction()": "8a21234f",
					"getInternalFunction()": "7a644830",
					"getPrivateFunction()": "ca0b5ad9",
					"getY()": "0b7f1665",
					"retrieveExternalFunction()": "aacea7f3",
					"x()": "0c55699c"
				}
			},
			"storageLayout": {
				"storage": [
					{
						"astId": 4,
						"contract": "contracts/FunctionVisibilitySpecifiers.sol:InheritedContract",
						"label": "x",
						"offset": 0,
						"slot": "0",
						"type": "t_int256"
					},
					{
						"astId": 7,
						"contract": "contracts/FunctionVisibilitySpecifiers.sol:InheritedContract",
						"label": "y",
						"offset": 0,
						"slot": "1",
						"type": "t_int256"
					},
					{
						"astId": 70,
						"contract": "contracts/FunctionVisibilitySpecifiers.sol:InheritedContract",
						"label": "_x",
						"offset": 0,
						"slot": "2",
						"type": "t_int256"
					}
				],
				"types": {
					"t_int256": {
						"encoding": "inplace",
						"label": "int256",
						"numberOfBytes": "32"
					}
				}
			},
			"userdoc": {
				"kind": "user",
				"methods": {},
				"version": 1
			}
		}
	}
}