{
	"contracts/FunctionVisibilitySpecifiers.sol": {
		"CallContract": {
			"abi": [
				{
					"inputs": [],
					"name": "callExternaContract",
					"outputs": [
						{
							"internalType": "int256",
							"name": "",
							"type": "int256"
						}
					],
					"stateMutability": "payable",
					"type": "function"
				}
			],
			"devdoc": {
				"kind": "dev",
				"methods": {},
				"version": 1
			},
			"evm": {
				"assembly": "    /* \"contracts/FunctionVisibilitySpecifiers.sol\":1525:1839  contract CallContract {... */\n  mstore(0x40, 0x80)\n    /* \"contracts/FunctionVisibilitySpecifiers.sol\":1603:1637  new FunctionVisibilitySpecifiers() */\n  mload(0x40)\n  tag_1\n  swap1\n  tag_2\n  jump\t// in\ntag_1:\n  mload(0x40)\n  dup1\n  swap2\n  sub\n  swap1\n  0x00\n  create\n  dup1\n  iszero\n  dup1\n  iszero\n  tag_3\n  jumpi\n  returndatasize\n  0x00\n  dup1\n  returndatacopy\n  revert(0x00, returndatasize)\ntag_3:\n  pop\n    /* \"contracts/FunctionVisibilitySpecifiers.sol\":1554:1637  FunctionVisibilitySpecifiers _externalContract = new FunctionVisibilitySpecifiers() */\n  0x00\n  dup1\n  0x0100\n  exp\n  dup2\n  sload\n  dup2\n  0xffffffffffffffffffffffffffffffffffffffff\n  mul\n  not\n  and\n  swap1\n  dup4\n  0xffffffffffffffffffffffffffffffffffffffff\n  and\n  mul\n  or\n  swap1\n  sstore\n  pop\n    /* \"contracts/FunctionVisibilitySpecifiers.sol\":1683:1706  new InheritedContract() */\n  mload(0x40)\n  tag_4\n  swap1\n  tag_5\n  jump\t// in\ntag_4:\n  mload(0x40)\n  dup1\n  swap2\n  sub\n  swap1\n  0x00\n  create\n  dup1\n  iszero\n  dup1\n  iszero\n  tag_6\n  jumpi\n  returndatasize\n  0x00\n  dup1\n  returndatacopy\n  revert(0x00, returndatasize)\ntag_6:\n  pop\n    /* \"contracts/FunctionVisibilitySpecifiers.sol\":1644:1706  InheritedContract _inheritedContract = new InheritedContract() */\n  0x01\n  exp(0x0100, 0x00)\n  dup2\n  sload\n  dup2\n  0xffffffffffffffffffffffffffffffffffffffff\n  mul\n  not\n  and\n  swap1\n  dup4\n  0xffffffffffffffffffffffffffffffffffffffff\n  and\n  mul\n  or\n  swap1\n  sstore\n  pop\n    /* \"contracts/FunctionVisibilitySpecifiers.sol\":1525:1839  contract CallContract {... */\n  callvalue\n  dup1\n  iszero\n  tag_7\n  jumpi\n  0x00\n  dup1\n  revert\ntag_7:\n  pop\n  jump(tag_8)\ntag_2:\n  dataSize(sub_1)\n  dup1\n  dataOffset(sub_1)\n  dup4\n  codecopy\n  add\n  swap1\n  jump\t// out\ntag_5:\n  dataSize(sub_2)\n  dup1\n  dataOffset(sub_2)\n  dup4\n  codecopy\n  add\n  swap1\n  jump\t// out\ntag_8:\n  dataSize(sub_0)\n  dup1\n  dataOffset(sub_0)\n  0x00\n  codecopy\n  0x00\n  return\nstop\n\nsub_0: assembly {\n        /* \"contracts/FunctionVisibilitySpecifiers.sol\":1525:1839  contract CallContract {... */\n      mstore(0x40, 0x80)\n      jumpi(tag_1, lt(calldatasize, 0x04))\n      shr(0xe0, calldataload(0x00))\n      dup1\n      0xf3bc38ea\n      eq\n      tag_2\n      jumpi\n    tag_1:\n      0x00\n      dup1\n      revert\n        /* \"contracts/FunctionVisibilitySpecifiers.sol\":1715:1836  function callExternaContract() public payable returns(int) {... */\n    tag_2:\n      tag_3\n      tag_4\n      jump\t// in\n    tag_3:\n      mload(0x40)\n      tag_5\n      swap2\n      swap1\n      tag_6\n      jump\t// in\n    tag_5:\n      mload(0x40)\n      dup1\n      swap2\n      sub\n      swap1\n      return\n    tag_4:\n        /* \"contracts/FunctionVisibilitySpecifiers.sol\":1769:1772  int */\n      0x00\n        /* \"contracts/FunctionVisibilitySpecifiers.sol\":1792:1809  _externalContract */\n      dup1\n      0x00\n      swap1\n      sload\n      swap1\n      0x0100\n      exp\n      swap1\n      div\n      0xffffffffffffffffffffffffffffffffffffffff\n      and\n        /* \"contracts/FunctionVisibilitySpecifiers.sol\":1792:1826  _externalContract.externalFunction */\n      0xffffffffffffffffffffffffffffffffffffffff\n      and\n      0x3a32b549\n        /* \"contracts/FunctionVisibilitySpecifiers.sol\":1792:1828  _externalContract.externalFunction() */\n      mload(0x40)\n      dup2\n      0xffffffff\n      and\n      0xe0\n      shl\n      dup2\n      mstore\n      0x04\n      add\n      0x20\n      mload(0x40)\n      dup1\n      dup4\n      sub\n      dup2\n      dup7\n      gas\n      staticcall\n      iszero\n      dup1\n      iszero\n      tag_9\n      jumpi\n      returndatasize\n      0x00\n      dup1\n      returndatacopy\n      revert(0x00, returndatasize)\n    tag_9:\n      pop\n      pop\n      pop\n      pop\n      mload(0x40)\n      returndatasize\n      not(0x1f)\n      0x1f\n      dup3\n      add\n      and\n      dup3\n      add\n      dup1\n      0x40\n      mstore\n      pop\n      dup2\n      add\n      swap1\n      tag_10\n      swap2\n      swap1\n      tag_11\n      jump\t// in\n    tag_10:\n        /* \"contracts/FunctionVisibilitySpecifiers.sol\":1785:1828  return _externalContract.externalFunction() */\n      swap1\n      pop\n        /* \"contracts/FunctionVisibilitySpecifiers.sol\":1715:1836  function callExternaContract() public payable returns(int) {... */\n      swap1\n      jump\t// out\n        /* \"#utility.yul\":7:83   */\n    tag_12:\n        /* \"#utility.yul\":43:50   */\n      0x00\n        /* \"#utility.yul\":72:77   */\n      dup2\n        /* \"#utility.yul\":61:77   */\n      swap1\n      pop\n        /* \"#utility.yul\":7:83   */\n      swap2\n      swap1\n      pop\n      jump\t// out\n        /* \"#utility.yul\":89:204   */\n    tag_13:\n        /* \"#utility.yul\":174:197   */\n      tag_22\n        /* \"#utility.yul\":191:196   */\n      dup2\n        /* \"#utility.yul\":174:197   */\n      tag_12\n      jump\t// in\n    tag_22:\n        /* \"#utility.yul\":169:172   */\n      dup3\n        /* \"#utility.yul\":162:198   */\n      mstore\n        /* \"#utility.yul\":89:204   */\n      pop\n      pop\n      jump\t// out\n        /* \"#utility.yul\":210:428   */\n    tag_6:\n        /* \"#utility.yul\":301:305   */\n      0x00\n        /* \"#utility.yul\":339:341   */\n      0x20\n        /* \"#utility.yul\":328:337   */\n      dup3\n        /* \"#utility.yul\":324:342   */\n      add\n        /* \"#utility.yul\":316:342   */\n      swap1\n      pop\n        /* \"#utility.yul\":352:421   */\n      tag_24\n        /* \"#utility.yul\":418:419   */\n      0x00\n        /* \"#utility.yul\":407:416   */\n      dup4\n        /* \"#utility.yul\":403:420   */\n      add\n        /* \"#utility.yul\":394:400   */\n      dup5\n        /* \"#utility.yul\":352:421   */\n      tag_13\n      jump\t// in\n    tag_24:\n        /* \"#utility.yul\":210:428   */\n      swap3\n      swap2\n      pop\n      pop\n      jump\t// out\n        /* \"#utility.yul\":515:632   */\n    tag_15:\n        /* \"#utility.yul\":624:625   */\n      0x00\n        /* \"#utility.yul\":621:622   */\n      dup1\n        /* \"#utility.yul\":614:626   */\n      revert\n        /* \"#utility.yul\":761:881   */\n    tag_17:\n        /* \"#utility.yul\":833:856   */\n      tag_29\n        /* \"#utility.yul\":850:855   */\n      dup2\n        /* \"#utility.yul\":833:856   */\n      tag_12\n      jump\t// in\n    tag_29:\n        /* \"#utility.yul\":826:831   */\n      dup2\n        /* \"#utility.yul\":823:857   */\n      eq\n        /* \"#utility.yul\":813:875   */\n      tag_30\n      jumpi\n        /* \"#utility.yul\":871:872   */\n      0x00\n        /* \"#utility.yul\":868:869   */\n      dup1\n        /* \"#utility.yul\":861:873   */\n      revert\n        /* \"#utility.yul\":813:875   */\n    tag_30:\n        /* \"#utility.yul\":761:881   */\n      pop\n      jump\t// out\n        /* \"#utility.yul\":887:1028   */\n    tag_18:\n        /* \"#utility.yul\":943:948   */\n      0x00\n        /* \"#utility.yul\":974:980   */\n      dup2\n        /* \"#utility.yul\":968:981   */\n      mload\n        /* \"#utility.yul\":959:981   */\n      swap1\n      pop\n        /* \"#utility.yul\":990:1022   */\n      tag_32\n        /* \"#utility.yul\":1016:1021   */\n      dup2\n        /* \"#utility.yul\":990:1022   */\n      tag_17\n      jump\t// in\n    tag_32:\n        /* \"#utility.yul\":887:1028   */\n      swap3\n      swap2\n      pop\n      pop\n      jump\t// out\n        /* \"#utility.yul\":1034:1383   */\n    tag_11:\n        /* \"#utility.yul\":1103:1109   */\n      0x00\n        /* \"#utility.yul\":1152:1154   */\n      0x20\n        /* \"#utility.yul\":1140:1149   */\n      dup3\n        /* \"#utility.yul\":1131:1138   */\n      dup5\n        /* \"#utility.yul\":1127:1150   */\n      sub\n        /* \"#utility.yul\":1123:1155   */\n      slt\n        /* \"#utility.yul\":1120:1239   */\n      iszero\n      tag_34\n      jumpi\n        /* \"#utility.yul\":1158:1237   */\n      tag_35\n      tag_15\n      jump\t// in\n    tag_35:\n        /* \"#utility.yul\":1120:1239   */\n    tag_34:\n        /* \"#utility.yul\":1278:1279   */\n      0x00\n        /* \"#utility.yul\":1303:1366   */\n      tag_36\n        /* \"#utility.yul\":1358:1365   */\n      dup5\n        /* \"#utility.yul\":1349:1355   */\n      dup3\n        /* \"#utility.yul\":1338:1347   */\n      dup6\n        /* \"#utility.yul\":1334:1356   */\n      add\n        /* \"#utility.yul\":1303:1366   */\n      tag_18\n      jump\t// in\n    tag_36:\n        /* \"#utility.yul\":1293:1366   */\n      swap2\n      pop\n        /* \"#utility.yul\":1249:1376   */\n      pop\n        /* \"#utility.yul\":1034:1383   */\n      swap3\n      swap2\n      pop\n      pop\n      jump\t// out\n\n    auxdata: 0xa2646970667358221220f924e5a498705da1ec1b44eedb116fd00a55f63368d9d823a066271decd6852864736f6c63430008110033\n}\n\nsub_1: assembly {\n        /* \"contracts/FunctionVisibilitySpecifiers.sol\":64:1059  contract FunctionVisibilitySpecifiers {... */\n      mstore(0x40, 0x80)\n        /* \"contracts/FunctionVisibilitySpecifiers.sol\":124:126  10 */\n      0x0a\n        /* \"contracts/FunctionVisibilitySpecifiers.sol\":109:126  int public x = 10 */\n      0x00\n      sstore\n        /* \"contracts/FunctionVisibilitySpecifiers.sol\":149:151  20 */\n      0x14\n        /* \"contracts/FunctionVisibilitySpecifiers.sol\":133:151  int private y = 20 */\n      0x01\n      sstore\n        /* \"contracts/FunctionVisibilitySpecifiers.sol\":64:1059  contract FunctionVisibilitySpecifiers {... */\n      callvalue\n      dup1\n      iszero\n      tag_1\n      jumpi\n      0x00\n      dup1\n      revert\n    tag_1:\n      pop\n      dataSize(sub_0)\n      dup1\n      dataOffset(sub_0)\n      0x00\n      codecopy\n      0x00\n      return\n    stop\n\n    sub_0: assembly {\n            /* \"contracts/FunctionVisibilitySpecifiers.sol\":64:1059  contract FunctionVisibilitySpecifiers {... */\n          mstore(0x40, 0x80)\n          callvalue\n          dup1\n          iszero\n          tag_1\n          jumpi\n          0x00\n          dup1\n          revert\n        tag_1:\n          pop\n          jumpi(tag_2, lt(calldatasize, 0x04))\n          shr(0xe0, calldataload(0x00))\n          dup1\n          0x0b7f1665\n          eq\n          tag_3\n          jumpi\n          dup1\n          0x0c55699c\n          eq\n          tag_4\n          jumpi\n          dup1\n          0x3a32b549\n          eq\n          tag_5\n          jumpi\n          dup1\n          0x7a644830\n          eq\n          tag_6\n          jumpi\n          dup1\n          0x8a21234f\n          eq\n          tag_7\n          jumpi\n          dup1\n          0xca0b5ad9\n          eq\n          tag_8\n          jumpi\n        tag_2:\n          0x00\n          dup1\n          revert\n            /* \"contracts/FunctionVisibilitySpecifiers.sol\":160:228  function getY() public view returns(int) {... */\n        tag_3:\n          tag_9\n          tag_10\n          jump\t// in\n        tag_9:\n          mload(0x40)\n          tag_11\n          swap2\n          swap1\n          tag_12\n          jump\t// in\n        tag_11:\n          mload(0x40)\n          dup1\n          swap2\n          sub\n          swap1\n          return\n            /* \"contracts/FunctionVisibilitySpecifiers.sol\":109:126  int public x = 10 */\n        tag_4:\n          tag_13\n          tag_14\n          jump\t// in\n        tag_13:\n          mload(0x40)\n          tag_15\n          swap2\n          swap1\n          tag_12\n          jump\t// in\n        tag_15:\n          mload(0x40)\n          dup1\n          swap2\n          sub\n          swap1\n          return\n            /* \"contracts/FunctionVisibilitySpecifiers.sol\":731:813  function externalFunction() external view returns(int) {... */\n        tag_5:\n          tag_16\n          tag_17\n          jump\t// in\n        tag_16:\n          mload(0x40)\n          tag_18\n          swap2\n          swap1\n          tag_12\n          jump\t// in\n        tag_18:\n          mload(0x40)\n          dup1\n          swap2\n          sub\n          swap1\n          return\n            /* \"contracts/FunctionVisibilitySpecifiers.sol\":520:620  function getInternalFunction() public view returns(int) {... */\n        tag_6:\n          tag_19\n          tag_20\n          jump\t// in\n        tag_19:\n          mload(0x40)\n          tag_21\n          swap2\n          swap1\n          tag_12\n          jump\t// in\n        tag_21:\n          mload(0x40)\n          dup1\n          swap2\n          sub\n          swap1\n          return\n            /* \"contracts/FunctionVisibilitySpecifiers.sol\":953:1056  function getExternalFunction() public view returns(int) {... */\n        tag_7:\n          tag_22\n          tag_23\n          jump\t// in\n        tag_22:\n          mload(0x40)\n          tag_24\n          swap2\n          swap1\n          tag_12\n          jump\t// in\n        tag_24:\n          mload(0x40)\n          dup1\n          swap2\n          sub\n          swap1\n          return\n            /* \"contracts/FunctionVisibilitySpecifiers.sol\":324:422  function getPrivateFunction() public view returns(int) {... */\n        tag_8:\n          tag_25\n          tag_26\n          jump\t// in\n        tag_25:\n          mload(0x40)\n          tag_27\n          swap2\n          swap1\n          tag_12\n          jump\t// in\n        tag_27:\n          mload(0x40)\n          dup1\n          swap2\n          sub\n          swap1\n          return\n            /* \"contracts/FunctionVisibilitySpecifiers.sol\":160:228  function getY() public view returns(int) {... */\n        tag_10:\n            /* \"contracts/FunctionVisibilitySpecifiers.sol\":196:199  int */\n          0x00\n            /* \"contracts/FunctionVisibilitySpecifiers.sol\":219:220  y */\n          sload(0x01)\n            /* \"contracts/FunctionVisibilitySpecifiers.sol\":212:220  return y */\n          swap1\n          pop\n            /* \"contracts/FunctionVisibilitySpecifiers.sol\":160:228  function getY() public view returns(int) {... */\n          swap1\n          jump\t// out\n            /* \"contracts/FunctionVisibilitySpecifiers.sol\":109:126  int public x = 10 */\n        tag_14:\n          sload(0x00)\n          dup2\n          jump\t// out\n            /* \"contracts/FunctionVisibilitySpecifiers.sol\":731:813  function externalFunction() external view returns(int) {... */\n        tag_17:\n            /* \"contracts/FunctionVisibilitySpecifiers.sol\":781:784  int */\n          0x00\n            /* \"contracts/FunctionVisibilitySpecifiers.sol\":804:805  x */\n          dup1\n          sload\n            /* \"contracts/FunctionVisibilitySpecifiers.sol\":797:805  return x */\n          swap1\n          pop\n            /* \"contracts/FunctionVisibilitySpecifiers.sol\":731:813  function externalFunction() external view returns(int) {... */\n          swap1\n          jump\t// out\n            /* \"contracts/FunctionVisibilitySpecifiers.sol\":520:620  function getInternalFunction() public view returns(int) {... */\n        tag_20:\n            /* \"contracts/FunctionVisibilitySpecifiers.sol\":571:574  int */\n          0x00\n            /* \"contracts/FunctionVisibilitySpecifiers.sol\":594:612  internalFunction() */\n          tag_31\n            /* \"contracts/FunctionVisibilitySpecifiers.sol\":594:610  internalFunction */\n          tag_32\n            /* \"contracts/FunctionVisibilitySpecifiers.sol\":594:612  internalFunction() */\n          jump\t// in\n        tag_31:\n            /* \"contracts/FunctionVisibilitySpecifiers.sol\":587:612  return internalFunction() */\n          swap1\n          pop\n            /* \"contracts/FunctionVisibilitySpecifiers.sol\":520:620  function getInternalFunction() public view returns(int) {... */\n          swap1\n          jump\t// out\n            /* \"contracts/FunctionVisibilitySpecifiers.sol\":953:1056  function getExternalFunction() public view returns(int) {... */\n        tag_23:\n            /* \"contracts/FunctionVisibilitySpecifiers.sol\":1004:1007  int */\n          0x00\n            /* \"contracts/FunctionVisibilitySpecifiers.sol\":953:1056  function getExternalFunction() public view returns(int) {... */\n          swap1\n          jump\t// out\n            /* \"contracts/FunctionVisibilitySpecifiers.sol\":324:422  function getPrivateFunction() public view returns(int) {... */\n        tag_26:\n            /* \"contracts/FunctionVisibilitySpecifiers.sol\":374:377  int */\n          0x00\n            /* \"contracts/FunctionVisibilitySpecifiers.sol\":397:414  privateFunction() */\n          tag_35\n            /* \"contracts/FunctionVisibilitySpecifiers.sol\":397:412  privateFunction */\n          tag_36\n            /* \"contracts/FunctionVisibilitySpecifiers.sol\":397:414  privateFunction() */\n          jump\t// in\n        tag_35:\n            /* \"contracts/FunctionVisibilitySpecifiers.sol\":390:414  return privateFunction() */\n          swap1\n          pop\n            /* \"contracts/FunctionVisibilitySpecifiers.sol\":324:422  function getPrivateFunction() public view returns(int) {... */\n          swap1\n          jump\t// out\n            /* \"contracts/FunctionVisibilitySpecifiers.sol\":430:512  function internalFunction() internal view returns(int) {... */\n        tag_32:\n            /* \"contracts/FunctionVisibilitySpecifiers.sol\":480:483  int */\n          0x00\n            /* \"contracts/FunctionVisibilitySpecifiers.sol\":503:504  x */\n          dup1\n          sload\n            /* \"contracts/FunctionVisibilitySpecifiers.sol\":496:504  return x */\n          swap1\n          pop\n            /* \"contracts/FunctionVisibilitySpecifiers.sol\":430:512  function internalFunction() internal view returns(int) {... */\n          swap1\n          jump\t// out\n            /* \"contracts/FunctionVisibilitySpecifiers.sol\":236:316  function privateFunction() private view returns(int) {... */\n        tag_36:\n            /* \"contracts/FunctionVisibilitySpecifiers.sol\":284:287  int */\n          0x00\n            /* \"contracts/FunctionVisibilitySpecifiers.sol\":307:308  x */\n          dup1\n          sload\n            /* \"contracts/FunctionVisibilitySpecifiers.sol\":300:308  return x */\n          swap1\n          pop\n            /* \"contracts/FunctionVisibilitySpecifiers.sol\":236:316  function privateFunction() private view returns(int) {... */\n          swap1\n          jump\t// out\n            /* \"#utility.yul\":7:83   */\n        tag_39:\n            /* \"#utility.yul\":43:50   */\n          0x00\n            /* \"#utility.yul\":72:77   */\n          dup2\n            /* \"#utility.yul\":61:77   */\n          swap1\n          pop\n            /* \"#utility.yul\":7:83   */\n          swap2\n          swap1\n          pop\n          jump\t// out\n            /* \"#utility.yul\":89:204   */\n        tag_40:\n            /* \"#utility.yul\":174:197   */\n          tag_44\n            /* \"#utility.yul\":191:196   */\n          dup2\n            /* \"#utility.yul\":174:197   */\n          tag_39\n          jump\t// in\n        tag_44:\n            /* \"#utility.yul\":169:172   */\n          dup3\n            /* \"#utility.yul\":162:198   */\n          mstore\n            /* \"#utility.yul\":89:204   */\n          pop\n          pop\n          jump\t// out\n            /* \"#utility.yul\":210:428   */\n        tag_12:\n            /* \"#utility.yul\":301:305   */\n          0x00\n            /* \"#utility.yul\":339:341   */\n          0x20\n            /* \"#utility.yul\":328:337   */\n          dup3\n            /* \"#utility.yul\":324:342   */\n          add\n            /* \"#utility.yul\":316:342   */\n          swap1\n          pop\n            /* \"#utility.yul\":352:421   */\n          tag_46\n            /* \"#utility.yul\":418:419   */\n          0x00\n            /* \"#utility.yul\":407:416   */\n          dup4\n            /* \"#utility.yul\":403:420   */\n          add\n            /* \"#utility.yul\":394:400   */\n          dup5\n            /* \"#utility.yul\":352:421   */\n          tag_40\n          jump\t// in\n        tag_46:\n            /* \"#utility.yul\":210:428   */\n          swap3\n          swap2\n          pop\n          pop\n          jump\t// out\n\n        auxdata: 0xa26469706673582212209fc4ee91dcec93a787c9b32ba5c64c6af78e4a5d9ff83101a193db2a1b44f9e864736f6c63430008110033\n    }\n}\n\nsub_2: assembly {\n        /* \"contracts/FunctionVisibilitySpecifiers.sol\":1063:1521  contract InheritedContract is FunctionVisibilitySpecifiers {... */\n      mstore(0x40, 0x80)\n        /* \"contracts/FunctionVisibilitySpecifiers.sol\":124:126  10 */\n      0x0a\n        /* \"contracts/FunctionVisibilitySpecifiers.sol\":109:126  int public x = 10 */\n      0x00\n      sstore\n        /* \"contracts/FunctionVisibilitySpecifiers.sol\":149:151  20 */\n      0x14\n        /* \"contracts/FunctionVisibilitySpecifiers.sol\":133:151  int private y = 20 */\n      0x01\n      sstore\n        /* \"contracts/FunctionVisibilitySpecifiers.sol\":1145:1163  internalFunction() */\n      tag_1\n        /* \"contracts/FunctionVisibilitySpecifiers.sol\":1145:1161  internalFunction */\n      shl(0x20, tag_2)\n        /* \"contracts/FunctionVisibilitySpecifiers.sol\":1145:1163  internalFunction() */\n      0x20\n      shr\n      jump\t// in\n    tag_1:\n        /* \"contracts/FunctionVisibilitySpecifiers.sol\":1129:1163  int public _x = internalFunction() */\n      0x02\n      sstore\n        /* \"contracts/FunctionVisibilitySpecifiers.sol\":1063:1521  contract InheritedContract is FunctionVisibilitySpecifiers {... */\n      callvalue\n      dup1\n      iszero\n      tag_3\n      jumpi\n      0x00\n      dup1\n      revert\n    tag_3:\n      pop\n      jump(tag_4)\n        /* \"contracts/FunctionVisibilitySpecifiers.sol\":430:512  function internalFunction() internal view returns(int) {... */\n    tag_2:\n        /* \"contracts/FunctionVisibilitySpecifiers.sol\":480:483  int */\n      0x00\n        /* \"contracts/FunctionVisibilitySpecifiers.sol\":503:504  x */\n      dup1\n      sload\n        /* \"contracts/FunctionVisibilitySpecifiers.sol\":496:504  return x */\n      swap1\n      pop\n        /* \"contracts/FunctionVisibilitySpecifiers.sol\":430:512  function internalFunction() internal view returns(int) {... */\n      swap1\n      jump\t// out\n        /* \"contracts/FunctionVisibilitySpecifiers.sol\":1063:1521  contract InheritedContract is FunctionVisibilitySpecifiers {... */\n    tag_4:\n      dataSize(sub_0)\n      dup1\n      dataOffset(sub_0)\n      0x00\n      codecopy\n      0x00\n      return\n    stop\n\n    sub_0: assembly {\n            /* \"contracts/FunctionVisibilitySpecifiers.sol\":1063:1521  contract InheritedContract is FunctionVisibilitySpecifiers {... */\n          mstore(0x40, 0x80)\n          callvalue\n          dup1\n          iszero\n          tag_1\n          jumpi\n          0x00\n          dup1\n          revert\n        tag_1:\n          pop\n          jumpi(tag_2, lt(calldatasize, 0x04))\n          shr(0xe0, calldataload(0x00))\n          dup1\n          0x7a644830\n          gt\n          tag_11\n          jumpi\n          dup1\n          0x7a644830\n          eq\n          tag_7\n          jumpi\n          dup1\n          0x8a21234f\n          eq\n          tag_8\n          jumpi\n          dup1\n          0xaacea7f3\n          eq\n          tag_9\n          jumpi\n          dup1\n          0xca0b5ad9\n          eq\n          tag_10\n          jumpi\n          jump(tag_2)\n        tag_11:\n          dup1\n          0x0b7f1665\n          eq\n          tag_3\n          jumpi\n          dup1\n          0x0c55699c\n          eq\n          tag_4\n          jumpi\n          dup1\n          0x29809703\n          eq\n          tag_5\n          jumpi\n          dup1\n          0x3a32b549\n          eq\n          tag_6\n          jumpi\n        tag_2:\n          0x00\n          dup1\n          revert\n            /* \"contracts/FunctionVisibilitySpecifiers.sol\":160:228  function getY() public view returns(int) {... */\n        tag_3:\n          tag_12\n          tag_13\n          jump\t// in\n        tag_12:\n          mload(0x40)\n          tag_14\n          swap2\n          swap1\n          tag_15\n          jump\t// in\n        tag_14:\n          mload(0x40)\n          dup1\n          swap2\n          sub\n          swap1\n          return\n            /* \"contracts/FunctionVisibilitySpecifiers.sol\":109:126  int public x = 10 */\n        tag_4:\n          tag_16\n          tag_17\n          jump\t// in\n        tag_16:\n          mload(0x40)\n          tag_18\n          swap2\n          swap1\n          tag_15\n          jump\t// in\n        tag_18:\n          mload(0x40)\n          dup1\n          swap2\n          sub\n          swap1\n          return\n            /* \"contracts/FunctionVisibilitySpecifiers.sol\":1129:1163  int public _x = internalFunction() */\n        tag_5:\n          tag_19\n          tag_20\n          jump\t// in\n        tag_19:\n          mload(0x40)\n          tag_21\n          swap2\n          swap1\n          tag_15\n          jump\t// in\n        tag_21:\n          mload(0x40)\n          dup1\n          swap2\n          sub\n          swap1\n          return\n            /* \"contracts/FunctionVisibilitySpecifiers.sol\":731:813  function externalFunction() external view returns(int) {... */\n        tag_6:\n          tag_22\n          tag_23\n          jump\t// in\n        tag_22:\n          mload(0x40)\n          tag_24\n          swap2\n          swap1\n          tag_15\n          jump\t// in\n        tag_24:\n          mload(0x40)\n          dup1\n          swap2\n          sub\n          swap1\n          return\n            /* \"contracts/FunctionVisibilitySpecifiers.sol\":520:620  function getInternalFunction() public view returns(int) {... */\n        tag_7:\n          tag_25\n          tag_26\n          jump\t// in\n        tag_25:\n          mload(0x40)\n          tag_27\n          swap2\n          swap1\n          tag_15\n          jump\t// in\n        tag_27:\n          mload(0x40)\n          dup1\n          swap2\n          sub\n          swap1\n          return\n            /* \"contracts/FunctionVisibilitySpecifiers.sol\":953:1056  function getExternalFunction() public view returns(int) {... */\n        tag_8:\n          tag_28\n          tag_29\n          jump\t// in\n        tag_28:\n          mload(0x40)\n          tag_30\n          swap2\n          swap1\n          tag_15\n          jump\t// in\n        tag_30:\n          mload(0x40)\n          dup1\n          swap2\n          sub\n          swap1\n          return\n            /* \"contracts/FunctionVisibilitySpecifiers.sol\":1410:1518  function retrieveExternalFunction() public view returns(int) {... */\n        tag_9:\n          tag_31\n          tag_32\n          jump\t// in\n        tag_31:\n          mload(0x40)\n          tag_33\n          swap2\n          swap1\n          tag_15\n          jump\t// in\n        tag_33:\n          mload(0x40)\n          dup1\n          swap2\n          sub\n          swap1\n          return\n            /* \"contracts/FunctionVisibilitySpecifiers.sol\":324:422  function getPrivateFunction() public view returns(int) {... */\n        tag_10:\n          tag_34\n          tag_35\n          jump\t// in\n        tag_34:\n          mload(0x40)\n          tag_36\n          swap2\n          swap1\n          tag_15\n          jump\t// in\n        tag_36:\n          mload(0x40)\n          dup1\n          swap2\n          sub\n          swap1\n          return\n            /* \"contracts/FunctionVisibilitySpecifiers.sol\":160:228  function getY() public view returns(int) {... */\n        tag_13:\n            /* \"contracts/FunctionVisibilitySpecifiers.sol\":196:199  int */\n          0x00\n            /* \"contracts/FunctionVisibilitySpecifiers.sol\":219:220  y */\n          sload(0x01)\n            /* \"contracts/FunctionVisibilitySpecifiers.sol\":212:220  return y */\n          swap1\n          pop\n            /* \"contracts/FunctionVisibilitySpecifiers.sol\":160:228  function getY() public view returns(int) {... */\n          swap1\n          jump\t// out\n            /* \"contracts/FunctionVisibilitySpecifiers.sol\":109:126  int public x = 10 */\n        tag_17:\n          sload(0x00)\n          dup2\n          jump\t// out\n            /* \"contracts/FunctionVisibilitySpecifiers.sol\":1129:1163  int public _x = internalFunction() */\n        tag_20:\n          sload(0x02)\n          dup2\n          jump\t// out\n            /* \"contracts/FunctionVisibilitySpecifiers.sol\":731:813  function externalFunction() external view returns(int) {... */\n        tag_23:\n            /* \"contracts/FunctionVisibilitySpecifiers.sol\":781:784  int */\n          0x00\n            /* \"contracts/FunctionVisibilitySpecifiers.sol\":804:805  x */\n          dup1\n          sload\n            /* \"contracts/FunctionVisibilitySpecifiers.sol\":797:805  return x */\n          swap1\n          pop\n            /* \"contracts/FunctionVisibilitySpecifiers.sol\":731:813  function externalFunction() external view returns(int) {... */\n          swap1\n          jump\t// out\n            /* \"contracts/FunctionVisibilitySpecifiers.sol\":520:620  function getInternalFunction() public view returns(int) {... */\n        tag_26:\n            /* \"contracts/FunctionVisibilitySpecifiers.sol\":571:574  int */\n          0x00\n            /* \"contracts/FunctionVisibilitySpecifiers.sol\":594:612  internalFunction() */\n          tag_40\n            /* \"contracts/FunctionVisibilitySpecifiers.sol\":594:610  internalFunction */\n          tag_41\n            /* \"contracts/FunctionVisibilitySpecifiers.sol\":594:612  internalFunction() */\n          jump\t// in\n        tag_40:\n            /* \"contracts/FunctionVisibilitySpecifiers.sol\":587:612  return internalFunction() */\n          swap1\n          pop\n            /* \"contracts/FunctionVisibilitySpecifiers.sol\":520:620  function getInternalFunction() public view returns(int) {... */\n          swap1\n          jump\t// out\n            /* \"contracts/FunctionVisibilitySpecifiers.sol\":953:1056  function getExternalFunction() public view returns(int) {... */\n        tag_29:\n            /* \"contracts/FunctionVisibilitySpecifiers.sol\":1004:1007  int */\n          0x00\n            /* \"contracts/FunctionVisibilitySpecifiers.sol\":953:1056  function getExternalFunction() public view returns(int) {... */\n          swap1\n          jump\t// out\n            /* \"contracts/FunctionVisibilitySpecifiers.sol\":1410:1518  function retrieveExternalFunction() public view returns(int) {... */\n        tag_32:\n            /* \"contracts/FunctionVisibilitySpecifiers.sol\":1466:1469  int */\n          0x00\n            /* \"contracts/FunctionVisibilitySpecifiers.sol\":1410:1518  function retrieveExternalFunction() public view returns(int) {... */\n          swap1\n          jump\t// out\n            /* \"contracts/FunctionVisibilitySpecifiers.sol\":324:422  function getPrivateFunction() public view returns(int) {... */\n        tag_35:\n            /* \"contracts/FunctionVisibilitySpecifiers.sol\":374:377  int */\n          0x00\n            /* \"contracts/FunctionVisibilitySpecifiers.sol\":397:414  privateFunction() */\n          tag_45\n            /* \"contracts/FunctionVisibilitySpecifiers.sol\":397:412  privateFunction */\n          tag_46\n            /* \"contracts/FunctionVisibilitySpecifiers.sol\":397:414  privateFunction() */\n          jump\t// in\n        tag_45:\n            /* \"contracts/FunctionVisibilitySpecifiers.sol\":390:414  return privateFunction() */\n          swap1\n          pop\n            /* \"contracts/FunctionVisibilitySpecifiers.sol\":324:422  function getPrivateFunction() public view returns(int) {... */\n          swap1\n          jump\t// out\n            /* \"contracts/FunctionVisibilitySpecifiers.sol\":430:512  function internalFunction() internal view returns(int) {... */\n        tag_41:\n            /* \"contracts/FunctionVisibilitySpecifiers.sol\":480:483  int */\n          0x00\n            /* \"contracts/FunctionVisibilitySpecifiers.sol\":503:504  x */\n          dup1\n          sload\n            /* \"contracts/FunctionVisibilitySpecifiers.sol\":496:504  return x */\n          swap1\n          pop\n            /* \"contracts/FunctionVisibilitySpecifiers.sol\":430:512  function internalFunction() internal view returns(int) {... */\n          swap1\n          jump\t// out\n            /* \"contracts/FunctionVisibilitySpecifiers.sol\":236:316  function privateFunction() private view returns(int) {... */\n        tag_46:\n            /* \"contracts/FunctionVisibilitySpecifiers.sol\":284:287  int */\n          0x00\n            /* \"contracts/FunctionVisibilitySpecifiers.sol\":307:308  x */\n          dup1\n          sload\n            /* \"contracts/FunctionVisibilitySpecifiers.sol\":300:308  return x */\n          swap1\n          pop\n            /* \"contracts/FunctionVisibilitySpecifiers.sol\":236:316  function privateFunction() private view returns(int) {... */\n          swap1\n          jump\t// out\n            /* \"#utility.yul\":7:83   */\n        tag_49:\n            /* \"#utility.yul\":43:50   */\n          0x00\n            /* \"#utility.yul\":72:77   */\n          dup2\n            /* \"#utility.yul\":61:77   */\n          swap1\n          pop\n            /* \"#utility.yul\":7:83   */\n          swap2\n          swap1\n          pop\n          jump\t// out\n            /* \"#utility.yul\":89:204   */\n        tag_50:\n            /* \"#utility.yul\":174:197   */\n          tag_54\n            /* \"#utility.yul\":191:196   */\n          dup2\n            /* \"#utility.yul\":174:197   */\n          tag_49\n          jump\t// in\n        tag_54:\n            /* \"#utility.yul\":169:172   */\n          dup3\n            /* \"#utility.yul\":162:198   */\n          mstore\n            /* \"#utility.yul\":89:204   */\n          pop\n          pop\n          jump\t// out\n            /* \"#utility.yul\":210:428   */\n        tag_15:\n            /* \"#utility.yul\":301:305   */\n          0x00\n            /* \"#utility.yul\":339:341   */\n          0x20\n            /* \"#utility.yul\":328:337   */\n          dup3\n            /* \"#utility.yul\":324:342   */\n          add\n            /* \"#utility.yul\":316:342   */\n          swap1\n          pop\n            /* \"#utility.yul\":352:421   */\n          tag_56\n            /* \"#utility.yul\":418:419   */\n          0x00\n            /* \"#utility.yul\":407:416   */\n          dup4\n            /* \"#utility.yul\":403:420   */\n          add\n            /* \"#utility.yul\":394:400   */\n          dup5\n            /* \"#utility.yul\":352:421   */\n          tag_50\n          jump\t// in\n        tag_56:\n            /* \"#utility.yul\":210:428   */\n          swap3\n          swap2\n          pop\n          pop\n          jump\t// out\n\n        auxdata: 0xa2646970667358221220170bff85c17ca31d8e3fa6e06a2943e9288113462b1712767f9947b459c3e1d564736f6c63430008110033\n    }\n}\n",
				"bytecode": {
					"linkReferences": {},
					"object": "6080604052604051610010906100e7565b604051809103906000f08015801561002c573d6000803e3d6000fd5b506000806101000a81548173ffffffffffffffffffffffffffffffffffffffff021916908373ffffffffffffffffffffffffffffffffffffffff160217905550604051610078906100f4565b604051809103906000f080158015610094573d6000803e3d6000fd5b50600160006101000a81548173ffffffffffffffffffffffffffffffffffffffff021916908373ffffffffffffffffffffffffffffffffffffffff1602179055503480156100e157600080fd5b50610101565b6101fd806102b083390190565b610289806104ad83390190565b6101a0806101106000396000f3fe60806040526004361061001e5760003560e01c8063f3bc38ea14610023575b600080fd5b61002b610041565b60405161003891906100f1565b60405180910390f35b60008060009054906101000a900473ffffffffffffffffffffffffffffffffffffffff1673ffffffffffffffffffffffffffffffffffffffff16633a32b5496040518163ffffffff1660e01b8152600401602060405180830381865afa1580156100af573d6000803e3d6000fd5b505050506040513d601f19601f820116820180604052508101906100d3919061013d565b905090565b6000819050919050565b6100eb816100d8565b82525050565b600060208201905061010660008301846100e2565b92915050565b600080fd5b61011a816100d8565b811461012557600080fd5b50565b60008151905061013781610111565b92915050565b6000602082840312156101535761015261010c565b5b600061016184828501610128565b9150509291505056fea2646970667358221220f924e5a498705da1ec1b44eedb116fd00a55f63368d9d823a066271decd6852864736f6c634300081100336080604052600a600055601460015534801561001a57600080fd5b506101d38061002a6000396000f3fe608060405234801561001057600080fd5b50600436106100625760003560e01c80630b7f1665146100675780630c55699c146100855780633a32b549146100a35780637a644830146100c15780638a21234f146100df578063ca0b5ad9146100fd575b600080fd5b61006f61011b565b60405161007c9190610182565b60405180910390f35b61008d610125565b60405161009a9190610182565b60405180910390f35b6100ab61012b565b6040516100b89190610182565b60405180910390f35b6100c9610134565b6040516100d69190610182565b60405180910390f35b6100e7610143565b6040516100f49190610182565b60405180910390f35b610105610148565b6040516101129190610182565b60405180910390f35b6000600154905090565b60005481565b60008054905090565b600061013e610157565b905090565b600090565b6000610152610160565b905090565b60008054905090565b60008054905090565b6000819050919050565b61017c81610169565b82525050565b60006020820190506101976000830184610173565b9291505056fea26469706673582212209fc4ee91dcec93a787c9b32ba5c64c6af78e4a5d9ff83101a193db2a1b44f9e864736f6c634300081100336080604052600a600055601460015561001c61003160201b60201c565b60025534801561002b57600080fd5b5061003a565b60008054905090565b610240806100496000396000f3fe608060405234801561001057600080fd5b50600436106100885760003560e01c80637a6448301161005b5780637a644830146101055780638a21234f14610123578063aacea7f314610141578063ca0b5ad91461015f57610088565b80630b7f16651461008d5780630c55699c146100ab57806329809703146100c95780633a32b549146100e7575b600080fd5b61009561017d565b6040516100a291906101ef565b60405180910390f35b6100b3610187565b6040516100c091906101ef565b60405180910390f35b6100d161018d565b6040516100de91906101ef565b60405180910390f35b6100ef610193565b6040516100fc91906101ef565b60405180910390f35b61010d61019c565b60405161011a91906101ef565b60405180910390f35b61012b6101ab565b60405161013891906101ef565b60405180910390f35b6101496101b0565b60405161015691906101ef565b60405180910390f35b6101676101b5565b60405161017491906101ef565b60405180910390f35b6000600154905090565b60005481565b60025481565b60008054905090565b60006101a66101c4565b905090565b600090565b600090565b60006101bf6101cd565b905090565b60008054905090565b60008054905090565b6000819050919050565b6101e9816101d6565b82525050565b600060208201905061020460008301846101e0565b9291505056fea2646970667358221220170bff85c17ca31d8e3fa6e06a2943e9288113462b1712767f9947b459c3e1d564736f6c63430008110033",
					"opcodes": "PUSH1 0x80 PUSH1 0x40 MSTORE PUSH1 0x40 MLOAD PUSH2 0x10 SWAP1 PUSH2 0xE7 JUMP JUMPDEST PUSH1 0x40 MLOAD DUP1 SWAP2 SUB SWAP1 PUSH1 0x0 CREATE DUP1 ISZERO DUP1 ISZERO PUSH2 0x2C JUMPI RETURNDATASIZE PUSH1 0x0 DUP1 RETURNDATACOPY RETURNDATASIZE PUSH1 0x0 REVERT JUMPDEST POP PUSH1 0x0 DUP1 PUSH2 0x100 EXP DUP2 SLOAD DUP2 PUSH20 0xFFFFFFFFFFFFFFFFFFFFFFFFFFFFFFFFFFFFFFFF MUL NOT AND SWAP1 DUP4 PUSH20 0xFFFFFFFFFFFFFFFFFFFFFFFFFFFFFFFFFFFFFFFF AND MUL OR SWAP1 SSTORE POP PUSH1 0x40 MLOAD PUSH2 0x78 SWAP1 PUSH2 0xF4 JUMP JUMPDEST PUSH1 0x40 MLOAD DUP1 SWAP2 SUB SWAP1 PUSH1 0x0 CREATE DUP1 ISZERO DUP1 ISZERO PUSH2 0x94 JUMPI RETURNDATASIZE PUSH1 0x0 DUP1 RETURNDATACOPY RETURNDATASIZE PUSH1 0x0 REVERT JUMPDEST POP PUSH1 0x1 PUSH1 0x0 PUSH2 0x100 EXP DUP2 SLOAD DUP2 PUSH20 0xFFFFFFFFFFFFFFFFFFFFFFFFFFFFFFFFFFFFFFFF MUL NOT AND SWAP1 DUP4 PUSH20 0xFFFFFFFFFFFFFFFFFFFFFFFFFFFFFFFFFFFFFFFF AND MUL OR SWAP1 SSTORE POP CALLVALUE DUP1 ISZERO PUSH2 0xE1 JUMPI PUSH1 0x0 DUP1 REVERT JUMPDEST POP PUSH2 0x101 JUMP JUMPDEST PUSH2 0x1FD DUP1 PUSH2 0x2B0 DUP4 CODECOPY ADD SWAP1 JUMP JUMPDEST PUSH2 0x289 DUP1 PUSH2 0x4AD DUP4 CODECOPY ADD SWAP1 JUMP JUMPDEST PUSH2 0x1A0 DUP1 PUSH2 0x110 PUSH1 0x0 CODECOPY PUSH1 0x0 RETURN INVALID PUSH1 0x80 PUSH1 0x40 MSTORE PUSH1 0x4 CALLDATASIZE LT PUSH2 0x1E JUMPI PUSH1 0x0 CALLDATALOAD PUSH1 0xE0 SHR DUP1 PUSH4 0xF3BC38EA EQ PUSH2 0x23 JUMPI JUMPDEST PUSH1 0x0 DUP1 REVERT JUMPDEST PUSH2 0x2B PUSH2 0x41 JUMP JUMPDEST PUSH1 0x40 MLOAD PUSH2 0x38 SWAP2 SWAP1 PUSH2 0xF1 JUMP JUMPDEST PUSH1 0x40 MLOAD DUP1 SWAP2 SUB SWAP1 RETURN JUMPDEST PUSH1 0x0 DUP1 PUSH1 0x0 SWAP1 SLOAD SWAP1 PUSH2 0x100 EXP SWAP1 DIV PUSH20 0xFFFFFFFFFFFFFFFFFFFFFFFFFFFFFFFFFFFFFFFF AND PUSH20 0xFFFFFFFFFFFFFFFFFFFFFFFFFFFFFFFFFFFFFFFF AND PUSH4 0x3A32B549 PUSH1 0x40 MLOAD DUP2 PUSH4 0xFFFFFFFF AND PUSH1 0xE0 SHL DUP2 MSTORE PUSH1 0x4 ADD PUSH1 0x20 PUSH1 0x40 MLOAD DUP1 DUP4 SUB DUP2 DUP7 GAS STATICCALL ISZERO DUP1 ISZERO PUSH2 0xAF JUMPI RETURNDATASIZE PUSH1 0x0 DUP1 RETURNDATACOPY RETURNDATASIZE PUSH1 0x0 REVERT JUMPDEST POP POP POP POP PUSH1 0x40 MLOAD RETURNDATASIZE PUSH1 0x1F NOT PUSH1 0x1F DUP3 ADD AND DUP3 ADD DUP1 PUSH1 0x40 MSTORE POP DUP2 ADD SWAP1 PUSH2 0xD3 SWAP2 SWAP1 PUSH2 0x13D JUMP JUMPDEST SWAP1 POP SWAP1 JUMP JUMPDEST PUSH1 0x0 DUP2 SWAP1 POP SWAP2 SWAP1 POP JUMP JUMPDEST PUSH2 0xEB DUP2 PUSH2 0xD8 JUMP JUMPDEST DUP3 MSTORE POP POP JUMP JUMPDEST PUSH1 0x0 PUSH1 0x20 DUP3 ADD SWAP1 POP PUSH2 0x106 PUSH1 0x0 DUP4 ADD DUP5 PUSH2 0xE2 JUMP JUMPDEST SWAP3 SWAP2 POP POP JUMP JUMPDEST PUSH1 0x0 DUP1 REVERT JUMPDEST PUSH2 0x11A DUP2 PUSH2 0xD8 JUMP JUMPDEST DUP2 EQ PUSH2 0x125 JUMPI PUSH1 0x0 DUP1 REVERT JUMPDEST POP JUMP JUMPDEST PUSH1 0x0 DUP2 MLOAD SWAP1 POP PUSH2 0x137 DUP2 PUSH2 0x111 JUMP JUMPDEST SWAP3 SWAP2 POP POP JUMP JUMPDEST PUSH1 0x0 PUSH1 0x20 DUP3 DUP5 SUB SLT ISZERO PUSH2 0x153 JUMPI PUSH2 0x152 PUSH2 0x10C JUMP JUMPDEST JUMPDEST PUSH1 0x0 PUSH2 0x161 DUP5 DUP3 DUP6 ADD PUSH2 0x128 JUMP JUMPDEST SWAP2 POP POP SWAP3 SWAP2 POP POP JUMP INVALID LOG2 PUSH5 0x6970667358 0x22 SLT KECCAK256 0xF9 0x24 0xE5 LOG4 SWAP9 PUSH17 0x5DA1EC1B44EEDB116FD00A55F63368D9D8 0x23 LOG0 PUSH7 0x271DECD6852864 PUSH20 0x6F6C634300081100336080604052600A60005560 EQ PUSH1 0x1 SSTORE CALLVALUE DUP1 ISZERO PUSH2 0x1A JUMPI PUSH1 0x0 DUP1 REVERT JUMPDEST POP PUSH2 0x1D3 DUP1 PUSH2 0x2A PUSH1 0x0 CODECOPY PUSH1 0x0 RETURN INVALID PUSH1 0x80 PUSH1 0x40 MSTORE CALLVALUE DUP1 ISZERO PUSH2 0x10 JUMPI PUSH1 0x0 DUP1 REVERT JUMPDEST POP PUSH1 0x4 CALLDATASIZE LT PUSH2 0x62 JUMPI PUSH1 0x0 CALLDATALOAD PUSH1 0xE0 SHR DUP1 PUSH4 0xB7F1665 EQ PUSH2 0x67 JUMPI DUP1 PUSH4 0xC55699C EQ PUSH2 0x85 JUMPI DUP1 PUSH4 0x3A32B549 EQ PUSH2 0xA3 JUMPI DUP1 PUSH4 0x7A644830 EQ PUSH2 0xC1 JUMPI DUP1 PUSH4 0x8A21234F EQ PUSH2 0xDF JUMPI DUP1 PUSH4 0xCA0B5AD9 EQ PUSH2 0xFD JUMPI JUMPDEST PUSH1 0x0 DUP1 REVERT JUMPDEST PUSH2 0x6F PUSH2 0x11B JUMP JUMPDEST PUSH1 0x40 MLOAD PUSH2 0x7C SWAP2 SWAP1 PUSH2 0x182 JUMP JUMPDEST PUSH1 0x40 MLOAD DUP1 SWAP2 SUB SWAP1 RETURN JUMPDEST PUSH2 0x8D PUSH2 0x125 JUMP JUMPDEST PUSH1 0x40 MLOAD PUSH2 0x9A SWAP2 SWAP1 PUSH2 0x182 JUMP JUMPDEST PUSH1 0x40 MLOAD DUP1 SWAP2 SUB SWAP1 RETURN JUMPDEST PUSH2 0xAB PUSH2 0x12B JUMP JUMPDEST PUSH1 0x40 MLOAD PUSH2 0xB8 SWAP2 SWAP1 PUSH2 0x182 JUMP JUMPDEST PUSH1 0x40 MLOAD DUP1 SWAP2 SUB SWAP1 RETURN JUMPDEST PUSH2 0xC9 PUSH2 0x134 JUMP JUMPDEST PUSH1 0x40 MLOAD PUSH2 0xD6 SWAP2 SWAP1 PUSH2 0x182 JUMP JUMPDEST PUSH1 0x40 MLOAD DUP1 SWAP2 SUB SWAP1 RETURN JUMPDEST PUSH2 0xE7 PUSH2 0x143 JUMP JUMPDEST PUSH1 0x40 MLOAD PUSH2 0xF4 SWAP2 SWAP1 PUSH2 0x182 JUMP JUMPDEST PUSH1 0x40 MLOAD DUP1 SWAP2 SUB SWAP1 RETURN JUMPDEST PUSH2 0x105 PUSH2 0x148 JUMP JUMPDEST PUSH1 0x40 MLOAD PUSH2 0x112 SWAP2 SWAP1 PUSH2 0x182 JUMP JUMPDEST PUSH1 0x40 MLOAD DUP1 SWAP2 SUB SWAP1 RETURN JUMPDEST PUSH1 0x0 PUSH1 0x1 SLOAD SWAP1 POP SWAP1 JUMP JUMPDEST PUSH1 0x0 SLOAD DUP2 JUMP JUMPDEST PUSH1 0x0 DUP1 SLOAD SWAP1 POP SWAP1 JUMP JUMPDEST PUSH1 0x0 PUSH2 0x13E PUSH2 0x157 JUMP JUMPDEST SWAP1 POP SWAP1 JUMP JUMPDEST PUSH1 0x0 SWAP1 JUMP JUMPDEST PUSH1 0x0 PUSH2 0x152 PUSH2 0x160 JUMP JUMPDEST SWAP1 POP SWAP1 JUMP JUMPDEST PUSH1 0x0 DUP1 SLOAD SWAP1 POP SWAP1 JUMP JUMPDEST PUSH1 0x0 DUP1 SLOAD SWAP1 POP SWAP1 JUMP JUMPDEST PUSH1 0x0 DUP2 SWAP1 POP SWAP2 SWAP1 POP JUMP JUMPDEST PUSH2 0x17C DUP2 PUSH2 0x169 JUMP JUMPDEST DUP3 MSTORE POP POP JUMP JUMPDEST PUSH1 0x0 PUSH1 0x20 DUP3 ADD SWAP1 POP PUSH2 0x197 PUSH1 0x0 DUP4 ADD DUP5 PUSH2 0x173 JUMP JUMPDEST SWAP3 SWAP2 POP POP JUMP INVALID LOG2 PUSH5 0x6970667358 0x22 SLT KECCAK256 SWAP16 0xC4 0xEE SWAP2 0xDC 0xEC SWAP4 0xA7 DUP8 0xC9 0xB3 0x2B 0xA5 0xC6 0x4C PUSH11 0xF78E4A5D9FF83101A193DB 0x2A SHL DIFFICULTY 0xF9 0xE8 PUSH5 0x736F6C6343 STOP ADDMOD GT STOP CALLER PUSH1 0x80 PUSH1 0x40 MSTORE PUSH1 0xA PUSH1 0x0 SSTORE PUSH1 0x14 PUSH1 0x1 SSTORE PUSH2 0x1C PUSH2 0x31 PUSH1 0x20 SHL PUSH1 0x20 SHR JUMP JUMPDEST PUSH1 0x2 SSTORE CALLVALUE DUP1 ISZERO PUSH2 0x2B JUMPI PUSH1 0x0 DUP1 REVERT JUMPDEST POP PUSH2 0x3A JUMP JUMPDEST PUSH1 0x0 DUP1 SLOAD SWAP1 POP SWAP1 JUMP JUMPDEST PUSH2 0x240 DUP1 PUSH2 0x49 PUSH1 0x0 CODECOPY PUSH1 0x0 RETURN INVALID PUSH1 0x80 PUSH1 0x40 MSTORE CALLVALUE DUP1 ISZERO PUSH2 0x10 JUMPI PUSH1 0x0 DUP1 REVERT JUMPDEST POP PUSH1 0x4 CALLDATASIZE LT PUSH2 0x88 JUMPI PUSH1 0x0 CALLDATALOAD PUSH1 0xE0 SHR DUP1 PUSH4 0x7A644830 GT PUSH2 0x5B JUMPI DUP1 PUSH4 0x7A644830 EQ PUSH2 0x105 JUMPI DUP1 PUSH4 0x8A21234F EQ PUSH2 0x123 JUMPI DUP1 PUSH4 0xAACEA7F3 EQ PUSH2 0x141 JUMPI DUP1 PUSH4 0xCA0B5AD9 EQ PUSH2 0x15F JUMPI PUSH2 0x88 JUMP JUMPDEST DUP1 PUSH4 0xB7F1665 EQ PUSH2 0x8D JUMPI DUP1 PUSH4 0xC55699C EQ PUSH2 0xAB JUMPI DUP1 PUSH4 0x29809703 EQ PUSH2 0xC9 JUMPI DUP1 PUSH4 0x3A32B549 EQ PUSH2 0xE7 JUMPI JUMPDEST PUSH1 0x0 DUP1 REVERT JUMPDEST PUSH2 0x95 PUSH2 0x17D JUMP JUMPDEST PUSH1 0x40 MLOAD PUSH2 0xA2 SWAP2 SWAP1 PUSH2 0x1EF JUMP JUMPDEST PUSH1 0x40 MLOAD DUP1 SWAP2 SUB SWAP1 RETURN JUMPDEST PUSH2 0xB3 PUSH2 0x187 JUMP JUMPDEST PUSH1 0x40 MLOAD PUSH2 0xC0 SWAP2 SWAP1 PUSH2 0x1EF JUMP JUMPDEST PUSH1 0x40 MLOAD DUP1 SWAP2 SUB SWAP1 RETURN JUMPDEST PUSH2 0xD1 PUSH2 0x18D JUMP JUMPDEST PUSH1 0x40 MLOAD PUSH2 0xDE SWAP2 SWAP1 PUSH2 0x1EF JUMP JUMPDEST PUSH1 0x40 MLOAD DUP1 SWAP2 SUB SWAP1 RETURN JUMPDEST PUSH2 0xEF PUSH2 0x193 JUMP JUMPDEST PUSH1 0x40 MLOAD PUSH2 0xFC SWAP2 SWAP1 PUSH2 0x1EF JUMP JUMPDEST PUSH1 0x40 MLOAD DUP1 SWAP2 SUB SWAP1 RETURN JUMPDEST PUSH2 0x10D PUSH2 0x19C JUMP JUMPDEST PUSH1 0x40 MLOAD PUSH2 0x11A SWAP2 SWAP1 PUSH2 0x1EF JUMP JUMPDEST PUSH1 0x40 MLOAD DUP1 SWAP2 SUB SWAP1 RETURN JUMPDEST PUSH2 0x12B PUSH2 0x1AB JUMP JUMPDEST PUSH1 0x40 MLOAD PUSH2 0x138 SWAP2 SWAP1 PUSH2 0x1EF JUMP JUMPDEST PUSH1 0x40 MLOAD DUP1 SWAP2 SUB SWAP1 RETURN JUMPDEST PUSH2 0x149 PUSH2 0x1B0 JUMP JUMPDEST PUSH1 0x40 MLOAD PUSH2 0x156 SWAP2 SWAP1 PUSH2 0x1EF JUMP JUMPDEST PUSH1 0x40 MLOAD DUP1 SWAP2 SUB SWAP1 RETURN JUMPDEST PUSH2 0x167 PUSH2 0x1B5 JUMP JUMPDEST PUSH1 0x40 MLOAD PUSH2 0x174 SWAP2 SWAP1 PUSH2 0x1EF JUMP JUMPDEST PUSH1 0x40 MLOAD DUP1 SWAP2 SUB SWAP1 RETURN JUMPDEST PUSH1 0x0 PUSH1 0x1 SLOAD SWAP1 POP SWAP1 JUMP JUMPDEST PUSH1 0x0 SLOAD DUP2 JUMP JUMPDEST PUSH1 0x2 SLOAD DUP2 JUMP JUMPDEST PUSH1 0x0 DUP1 SLOAD SWAP1 POP SWAP1 JUMP JUMPDEST PUSH1 0x0 PUSH2 0x1A6 PUSH2 0x1C4 JUMP JUMPDEST SWAP1 POP SWAP1 JUMP JUMPDEST PUSH1 0x0 SWAP1 JUMP JUMPDEST PUSH1 0x0 SWAP1 JUMP JUMPDEST PUSH1 0x0 PUSH2 0x1BF PUSH2 0x1CD JUMP JUMPDEST SWAP1 POP SWAP1 JUMP JUMPDEST PUSH1 0x0 DUP1 SLOAD SWAP1 POP SWAP1 JUMP JUMPDEST PUSH1 0x0 DUP1 SLOAD SWAP1 POP SWAP1 JUMP JUMPDEST PUSH1 0x0 DUP2 SWAP1 POP SWAP2 SWAP1 POP JUMP JUMPDEST PUSH2 0x1E9 DUP2 PUSH2 0x1D6 JUMP JUMPDEST DUP3 MSTORE POP POP JUMP JUMPDEST PUSH1 0x0 PUSH1 0x20 DUP3 ADD SWAP1 POP PUSH2 0x204 PUSH1 0x0 DUP4 ADD DUP5 PUSH2 0x1E0 JUMP JUMPDEST SWAP3 SWAP2 POP POP JUMP INVALID LOG2 PUSH5 0x6970667358 0x22 SLT KECCAK256 OR SIGNEXTEND SELFDESTRUCT DUP6 0xC1 PUSH29 0xA31D8E3FA6E06A2943E9288113462B1712767F9947B459C3E1D564736F PUSH13 0x63430008110033000000000000 "
				},
				"gasEstimates": {
					"creation": {
						"codeDepositCost": "83200",
						"executionCost": "infinite",
						"totalCost": "infinite"
					},
					"external": {
						"callExternaContract()": "infinite"
					}
				},
				"methodIdentifiers": {
					"callExternaContract()": "f3bc38ea"
				}
			},
			"storageLayout": {
				"storage": [
					{
						"astId": 84,
						"contract": "contracts/FunctionVisibilitySpecifiers.sol:CallContract",
						"label": "_externalContract",
						"offset": 0,
						"slot": "0",
						"type": "t_contract(FunctionVisibilitySpecifiers)64"
					},
					{
						"astId": 91,
						"contract": "contracts/FunctionVisibilitySpecifiers.sol:CallContract",
						"label": "_inheritedContract",
						"offset": 0,
						"slot": "1",
						"type": "t_contract(InheritedContract)77"
					}
				],
				"types": {
					"t_contract(FunctionVisibilitySpecifiers)64": {
						"encoding": "inplace",
						"label": "contract FunctionVisibilitySpecifiers",
						"numberOfBytes": "20"
					},
					"t_contract(InheritedContract)77": {
						"encoding": "inplace",
						"label": "contract InheritedContract",
						"numberOfBytes": "20"
					}
				}
			},
			"userdoc": {
				"kind": "user",
				"methods": {},
				"version": 1
			}
		}
	}
}