{
	"contracts/FixedSizeArrays.sol": {
		"FixedSizeArrays": {
			"abi": [
				{
					"inputs": [],
					"name": "b",
					"outputs": [
						{
							"internalType": "bytes",
							"name": "",
							"type": "bytes"
						}
					],
					"stateMutability": "view",
					"type": "function"
				},
				{
					"inputs": [],
					"name": "b1",
					"outputs": [
						{
							"internalType": "bytes1",
							"name": "",
							"type": "bytes1"
						}
					],
					"stateMutability": "view",
					"type": "function"
				},
				{
					"inputs": [],
					"name": "b2",
					"outputs": [
						{
							"internalType": "bytes2",
							"name": "",
							"type": "bytes2"
						}
					],
					"stateMutability": "view",
					"type": "function"
				},
				{
					"inputs": [],
					"name": "getArrayLength",
					"outputs": [
						{
							"internalType": "uint256",
							"name": "",
							"type": "uint256"
						}
					],
					"stateMutability": "view",
					"type": "function"
				},
				{
					"inputs": [
						{
							"internalType": "uint256",
							"name": "",
							"type": "uint256"
						}
					],
					"name": "numbers",
					"outputs": [
						{
							"internalType": "uint256",
							"name": "",
							"type": "uint256"
						}
					],
					"stateMutability": "view",
					"type": "function"
				},
				{
					"inputs": [
						{
							"internalType": "bytes",
							"name": "b",
							"type": "bytes"
						},
						{
							"internalType": "bytes1",
							"name": "b1",
							"type": "bytes1"
						},
						{
							"internalType": "bytes2",
							"name": "b2",
							"type": "bytes2"
						}
					],
					"name": "setBytes",
					"outputs": [],
					"stateMutability": "nonpayable",
					"type": "function"
				},
				{
					"inputs": [
						{
							"internalType": "uint256",
							"name": "_index",
							"type": "uint256"
						},
						{
							"internalType": "uint256",
							"name": "_value",
							"type": "uint256"
						}
					],
					"name": "setElement",
					"outputs": [],
					"stateMutability": "nonpayable",
					"type": "function"
				}
			],
			"devdoc": {
				"kind": "dev",
				"methods": {},
				"version": 1
			},
			"evm": {
				"assembly": "    /* \"contracts/FixedSizeArrays.sol\":71:527  contract FixedSizeArrays {... */\n  mstore(0x40, 0x80)\n    /* \"contracts/FixedSizeArrays.sol\":103:137  uint[3] public numbers = [1, 2, 3] */\n  mload(0x40)\n  dup1\n  0x60\n  add\n  0x40\n  mstore\n  dup1\n    /* \"contracts/FixedSizeArrays.sol\":129:130  1 */\n  0x01\n    /* \"contracts/FixedSizeArrays.sol\":103:137  uint[3] public numbers = [1, 2, 3] */\n  0xff\n  and\n  dup2\n  mstore\n  0x20\n  add\n    /* \"contracts/FixedSizeArrays.sol\":132:133  2 */\n  0x02\n    /* \"contracts/FixedSizeArrays.sol\":103:137  uint[3] public numbers = [1, 2, 3] */\n  0xff\n  and\n  dup2\n  mstore\n  0x20\n  add\n    /* \"contracts/FixedSizeArrays.sol\":135:136  3 */\n  0x03\n    /* \"contracts/FixedSizeArrays.sol\":103:137  uint[3] public numbers = [1, 2, 3] */\n  0xff\n  and\n  dup2\n  mstore\n  pop\n  0x00\n  swap1\n  0x03\n  tag_1\n  swap3\n  swap2\n  swap1\n  tag_2\n  jump\t// in\ntag_1:\n  pop\n    /* \"contracts/FixedSizeArrays.sol\":71:527  contract FixedSizeArrays {... */\n  callvalue\n  dup1\n  iszero\n  tag_3\n  jumpi\n  0x00\n  dup1\n  revert\ntag_3:\n  pop\n  jump(tag_4)\ntag_2:\n  dup3\n  0x03\n  dup2\n  add\n  swap3\n  dup3\n  iszero\n  tag_5\n  jumpi\n  swap2\n  0x20\n  mul\n  dup3\n  add\ntag_6:\n  dup3\n  dup2\n  gt\n  iszero\n  tag_7\n  jumpi\n  dup3\n  mload\n  dup3\n  swap1\n  0xff\n  and\n  swap1\n  sstore\n  swap2\n  0x20\n  add\n  swap2\n  swap1\n  0x01\n  add\n  swap1\n  jump(tag_6)\ntag_7:\ntag_5:\n  pop\n  swap1\n  pop\n  tag_8\n  swap2\n  swap1\n  tag_9\n  jump\t// in\ntag_8:\n  pop\n  swap1\n  jump\t// out\ntag_9:\ntag_10:\n  dup1\n  dup3\n  gt\n  iszero\n  tag_11\n  jumpi\n  0x00\n  dup2\n  0x00\n  swap1\n  sstore\n  pop\n  0x01\n  add\n  jump(tag_10)\ntag_11:\n  pop\n  swap1\n  jump\t// out\ntag_4:\n  dataSize(sub_0)\n  dup1\n  dataOffset(sub_0)\n  0x00\n  codecopy\n  0x00\n  return\nstop\n\nsub_0: assembly {\n        /* \"contracts/FixedSizeArrays.sol\":71:527  contract FixedSizeArrays {... */\n      mstore(0x40, 0x80)\n      callvalue\n      dup1\n      iszero\n      tag_1\n      jumpi\n      0x00\n      dup1\n      revert\n    tag_1:\n      pop\n      jumpi(tag_2, lt(calldatasize, 0x04))\n      shr(0xe0, calldataload(0x00))\n      dup1\n      0x4df7e3d0\n      gt\n      tag_10\n      jumpi\n      dup1\n      0x4df7e3d0\n      eq\n      tag_6\n      jumpi\n      dup1\n      0xa16e7215\n      eq\n      tag_7\n      jumpi\n      dup1\n      0xd39fa233\n      eq\n      tag_8\n      jumpi\n      dup1\n      0xee495002\n      eq\n      tag_9\n      jumpi\n      jump(tag_2)\n    tag_10:\n      dup1\n      0x0849cc99\n      eq\n      tag_3\n      jumpi\n      dup1\n      0x0add6ef2\n      eq\n      tag_4\n      jumpi\n      dup1\n      0x13a51869\n      eq\n      tag_5\n      jumpi\n    tag_2:\n      0x00\n      dup1\n      revert\n        /* \"contracts/FixedSizeArrays.sol\":250:342  function getArrayLength() public view returns(uint) {... */\n    tag_3:\n      tag_11\n      tag_12\n      jump\t// in\n    tag_11:\n      mload(0x40)\n      tag_13\n      swap2\n      swap1\n      tag_14\n      jump\t// in\n    tag_13:\n      mload(0x40)\n      dup1\n      swap2\n      sub\n      swap1\n      return\n        /* \"contracts/FixedSizeArrays.sol\":394:410  bytes2 public b2 */\n    tag_4:\n      tag_15\n      tag_16\n      jump\t// in\n    tag_15:\n      mload(0x40)\n      tag_17\n      swap2\n      swap1\n      tag_18\n      jump\t// in\n    tag_17:\n      mload(0x40)\n      dup1\n      swap2\n      sub\n      swap1\n      return\n        /* \"contracts/FixedSizeArrays.sol\":443:524  function setBytes(bytes memory b, bytes1 b1, bytes2 b2) public {... */\n    tag_5:\n      tag_19\n      0x04\n      dup1\n      calldatasize\n      sub\n      dup2\n      add\n      swap1\n      tag_20\n      swap2\n      swap1\n      tag_21\n      jump\t// in\n    tag_20:\n      tag_22\n      jump\t// in\n    tag_19:\n      stop\n        /* \"contracts/FixedSizeArrays.sol\":350:364  bytes public b */\n    tag_6:\n      tag_23\n      tag_24\n      jump\t// in\n    tag_23:\n      mload(0x40)\n      tag_25\n      swap2\n      swap1\n      tag_26\n      jump\t// in\n    tag_25:\n      mload(0x40)\n      dup1\n      swap2\n      sub\n      swap1\n      return\n        /* \"contracts/FixedSizeArrays.sol\":146:242  function setElement(uint _index, uint _value) public {... */\n    tag_7:\n      tag_27\n      0x04\n      dup1\n      calldatasize\n      sub\n      dup2\n      add\n      swap1\n      tag_28\n      swap2\n      swap1\n      tag_29\n      jump\t// in\n    tag_28:\n      tag_30\n      jump\t// in\n    tag_27:\n      stop\n        /* \"contracts/FixedSizeArrays.sol\":103:137  uint[3] public numbers = [1, 2, 3] */\n    tag_8:\n      tag_31\n      0x04\n      dup1\n      calldatasize\n      sub\n      dup2\n      add\n      swap1\n      tag_32\n      swap2\n      swap1\n      tag_33\n      jump\t// in\n    tag_32:\n      tag_34\n      jump\t// in\n    tag_31:\n      mload(0x40)\n      tag_35\n      swap2\n      swap1\n      tag_14\n      jump\t// in\n    tag_35:\n      mload(0x40)\n      dup1\n      swap2\n      sub\n      swap1\n      return\n        /* \"contracts/FixedSizeArrays.sol\":371:387  bytes1 public b1 */\n    tag_9:\n      tag_36\n      tag_37\n      jump\t// in\n    tag_36:\n      mload(0x40)\n      tag_38\n      swap2\n      swap1\n      tag_39\n      jump\t// in\n    tag_38:\n      mload(0x40)\n      dup1\n      swap2\n      sub\n      swap1\n      return\n        /* \"contracts/FixedSizeArrays.sol\":250:342  function getArrayLength() public view returns(uint) {... */\n    tag_12:\n        /* \"contracts/FixedSizeArrays.sol\":296:300  uint */\n      0x00\n        /* \"contracts/FixedSizeArrays.sol\":320:334  numbers.length */\n      0x03\n        /* \"contracts/FixedSizeArrays.sol\":313:334  return numbers.length */\n      swap1\n      pop\n        /* \"contracts/FixedSizeArrays.sol\":250:342  function getArrayLength() public view returns(uint) {... */\n      swap1\n      jump\t// out\n        /* \"contracts/FixedSizeArrays.sol\":394:410  bytes2 public b2 */\n    tag_16:\n      0x04\n      0x01\n      swap1\n      sload\n      swap1\n      0x0100\n      exp\n      swap1\n      div\n      0xf0\n      shl\n      dup2\n      jump\t// out\n        /* \"contracts/FixedSizeArrays.sol\":443:524  function setBytes(bytes memory b, bytes1 b1, bytes2 b2) public {... */\n    tag_22:\n      pop\n      pop\n      pop\n      jump\t// out\n        /* \"contracts/FixedSizeArrays.sol\":350:364  bytes public b */\n    tag_24:\n      0x03\n      dup1\n      sload\n      tag_42\n      swap1\n      tag_43\n      jump\t// in\n    tag_42:\n      dup1\n      0x1f\n      add\n      0x20\n      dup1\n      swap2\n      div\n      mul\n      0x20\n      add\n      mload(0x40)\n      swap1\n      dup2\n      add\n      0x40\n      mstore\n      dup1\n      swap3\n      swap2\n      swap1\n      dup2\n      dup2\n      mstore\n      0x20\n      add\n      dup3\n      dup1\n      sload\n      tag_44\n      swap1\n      tag_43\n      jump\t// in\n    tag_44:\n      dup1\n      iszero\n      tag_45\n      jumpi\n      dup1\n      0x1f\n      lt\n      tag_46\n      jumpi\n      0x0100\n      dup1\n      dup4\n      sload\n      div\n      mul\n      dup4\n      mstore\n      swap2\n      0x20\n      add\n      swap2\n      jump(tag_45)\n    tag_46:\n      dup3\n      add\n      swap2\n      swap1\n      0x00\n      mstore\n      keccak256(0x00, 0x20)\n      swap1\n    tag_47:\n      dup2\n      sload\n      dup2\n      mstore\n      swap1\n      0x01\n      add\n      swap1\n      0x20\n      add\n      dup1\n      dup4\n      gt\n      tag_47\n      jumpi\n      dup3\n      swap1\n      sub\n      0x1f\n      and\n      dup3\n      add\n      swap2\n    tag_45:\n      pop\n      pop\n      pop\n      pop\n      pop\n      dup2\n      jump\t// out\n        /* \"contracts/FixedSizeArrays.sol\":146:242  function setElement(uint _index, uint _value) public {... */\n    tag_30:\n        /* \"contracts/FixedSizeArrays.sol\":228:234  _value */\n      dup1\n        /* \"contracts/FixedSizeArrays.sol\":210:217  numbers */\n      0x00\n        /* \"contracts/FixedSizeArrays.sol\":218:224  _index */\n      dup4\n        /* \"contracts/FixedSizeArrays.sol\":210:225  numbers[_index] */\n      0x03\n      dup2\n      lt\n      tag_49\n      jumpi\n      tag_50\n      tag_51\n      jump\t// in\n    tag_50:\n    tag_49:\n      add\n        /* \"contracts/FixedSizeArrays.sol\":210:234  numbers[_index] = _value */\n      dup2\n      swap1\n      sstore\n      pop\n        /* \"contracts/FixedSizeArrays.sol\":146:242  function setElement(uint _index, uint _value) public {... */\n      pop\n      pop\n      jump\t// out\n        /* \"contracts/FixedSizeArrays.sol\":103:137  uint[3] public numbers = [1, 2, 3] */\n    tag_34:\n      0x00\n      dup2\n      0x03\n      dup2\n      lt\n      tag_53\n      jumpi\n      0x00\n      dup1\n      revert\n    tag_53:\n      add\n      0x00\n      swap2\n      pop\n      swap1\n      pop\n      sload\n      dup2\n      jump\t// out\n        /* \"contracts/FixedSizeArrays.sol\":371:387  bytes1 public b1 */\n    tag_37:\n      0x04\n      0x00\n      swap1\n      sload\n      swap1\n      0x0100\n      exp\n      swap1\n      div\n      0xf8\n      shl\n      dup2\n      jump\t// out\n        /* \"#utility.yul\":7:84   */\n    tag_55:\n        /* \"#utility.yul\":44:51   */\n      0x00\n        /* \"#utility.yul\":73:78   */\n      dup2\n        /* \"#utility.yul\":62:78   */\n      swap1\n      pop\n        /* \"#utility.yul\":7:84   */\n      swap2\n      swap1\n      pop\n      jump\t// out\n        /* \"#utility.yul\":90:208   */\n    tag_56:\n        /* \"#utility.yul\":177:201   */\n      tag_88\n        /* \"#utility.yul\":195:200   */\n      dup2\n        /* \"#utility.yul\":177:201   */\n      tag_55\n      jump\t// in\n    tag_88:\n        /* \"#utility.yul\":172:175   */\n      dup3\n        /* \"#utility.yul\":165:202   */\n      mstore\n        /* \"#utility.yul\":90:208   */\n      pop\n      pop\n      jump\t// out\n        /* \"#utility.yul\":214:436   */\n    tag_14:\n        /* \"#utility.yul\":307:311   */\n      0x00\n        /* \"#utility.yul\":345:347   */\n      0x20\n        /* \"#utility.yul\":334:343   */\n      dup3\n        /* \"#utility.yul\":330:348   */\n      add\n        /* \"#utility.yul\":322:348   */\n      swap1\n      pop\n        /* \"#utility.yul\":358:429   */\n      tag_90\n        /* \"#utility.yul\":426:427   */\n      0x00\n        /* \"#utility.yul\":415:424   */\n      dup4\n        /* \"#utility.yul\":411:428   */\n      add\n        /* \"#utility.yul\":402:408   */\n      dup5\n        /* \"#utility.yul\":358:429   */\n      tag_56\n      jump\t// in\n    tag_90:\n        /* \"#utility.yul\":214:436   */\n      swap3\n      swap2\n      pop\n      pop\n      jump\t// out\n        /* \"#utility.yul\":442:591   */\n    tag_57:\n        /* \"#utility.yul\":478:485   */\n      0x00\n        /* \"#utility.yul\":518:584   */\n      0xffff000000000000000000000000000000000000000000000000000000000000\n        /* \"#utility.yul\":511:516   */\n      dup3\n        /* \"#utility.yul\":507:585   */\n      and\n        /* \"#utility.yul\":496:585   */\n      swap1\n      pop\n        /* \"#utility.yul\":442:591   */\n      swap2\n      swap1\n      pop\n      jump\t// out\n        /* \"#utility.yul\":597:712   */\n    tag_58:\n        /* \"#utility.yul\":682:705   */\n      tag_93\n        /* \"#utility.yul\":699:704   */\n      dup2\n        /* \"#utility.yul\":682:705   */\n      tag_57\n      jump\t// in\n    tag_93:\n        /* \"#utility.yul\":677:680   */\n      dup3\n        /* \"#utility.yul\":670:706   */\n      mstore\n        /* \"#utility.yul\":597:712   */\n      pop\n      pop\n      jump\t// out\n        /* \"#utility.yul\":718:936   */\n    tag_18:\n        /* \"#utility.yul\":809:813   */\n      0x00\n        /* \"#utility.yul\":847:849   */\n      0x20\n        /* \"#utility.yul\":836:845   */\n      dup3\n        /* \"#utility.yul\":832:850   */\n      add\n        /* \"#utility.yul\":824:850   */\n      swap1\n      pop\n        /* \"#utility.yul\":860:929   */\n      tag_95\n        /* \"#utility.yul\":926:927   */\n      0x00\n        /* \"#utility.yul\":915:924   */\n      dup4\n        /* \"#utility.yul\":911:928   */\n      add\n        /* \"#utility.yul\":902:908   */\n      dup5\n        /* \"#utility.yul\":860:929   */\n      tag_58\n      jump\t// in\n    tag_95:\n        /* \"#utility.yul\":718:936   */\n      swap3\n      swap2\n      pop\n      pop\n      jump\t// out\n        /* \"#utility.yul\":942:1017   */\n    tag_59:\n        /* \"#utility.yul\":975:981   */\n      0x00\n        /* \"#utility.yul\":1008:1010   */\n      0x40\n        /* \"#utility.yul\":1002:1011   */\n      mload\n        /* \"#utility.yul\":992:1011   */\n      swap1\n      pop\n        /* \"#utility.yul\":942:1017   */\n      swap1\n      jump\t// out\n        /* \"#utility.yul\":1023:1140   */\n    tag_60:\n        /* \"#utility.yul\":1132:1133   */\n      0x00\n        /* \"#utility.yul\":1129:1130   */\n      dup1\n        /* \"#utility.yul\":1122:1134   */\n      revert\n        /* \"#utility.yul\":1146:1263   */\n    tag_61:\n        /* \"#utility.yul\":1255:1256   */\n      0x00\n        /* \"#utility.yul\":1252:1253   */\n      dup1\n        /* \"#utility.yul\":1245:1257   */\n      revert\n        /* \"#utility.yul\":1269:1386   */\n    tag_62:\n        /* \"#utility.yul\":1378:1379   */\n      0x00\n        /* \"#utility.yul\":1375:1376   */\n      dup1\n        /* \"#utility.yul\":1368:1380   */\n      revert\n        /* \"#utility.yul\":1392:1509   */\n    tag_63:\n        /* \"#utility.yul\":1501:1502   */\n      0x00\n        /* \"#utility.yul\":1498:1499   */\n      dup1\n        /* \"#utility.yul\":1491:1503   */\n      revert\n        /* \"#utility.yul\":1515:1617   */\n    tag_64:\n        /* \"#utility.yul\":1556:1562   */\n      0x00\n        /* \"#utility.yul\":1607:1609   */\n      0x1f\n        /* \"#utility.yul\":1603:1610   */\n      not\n        /* \"#utility.yul\":1598:1600   */\n      0x1f\n        /* \"#utility.yul\":1591:1596   */\n      dup4\n        /* \"#utility.yul\":1587:1601   */\n      add\n        /* \"#utility.yul\":1583:1611   */\n      and\n        /* \"#utility.yul\":1573:1611   */\n      swap1\n      pop\n        /* \"#utility.yul\":1515:1617   */\n      swap2\n      swap1\n      pop\n      jump\t// out\n        /* \"#utility.yul\":1623:1803   */\n    tag_65:\n        /* \"#utility.yul\":1671:1748   */\n      0x4e487b7100000000000000000000000000000000000000000000000000000000\n        /* \"#utility.yul\":1668:1669   */\n      0x00\n        /* \"#utility.yul\":1661:1749   */\n      mstore\n        /* \"#utility.yul\":1768:1772   */\n      0x41\n        /* \"#utility.yul\":1765:1766   */\n      0x04\n        /* \"#utility.yul\":1758:1773   */\n      mstore\n        /* \"#utility.yul\":1792:1796   */\n      0x24\n        /* \"#utility.yul\":1789:1790   */\n      0x00\n        /* \"#utility.yul\":1782:1797   */\n      revert\n        /* \"#utility.yul\":1809:2090   */\n    tag_66:\n        /* \"#utility.yul\":1892:1919   */\n      tag_104\n        /* \"#utility.yul\":1914:1918   */\n      dup3\n        /* \"#utility.yul\":1892:1919   */\n      tag_64\n      jump\t// in\n    tag_104:\n        /* \"#utility.yul\":1884:1890   */\n      dup2\n        /* \"#utility.yul\":1880:1920   */\n      add\n        /* \"#utility.yul\":2022:2028   */\n      dup2\n        /* \"#utility.yul\":2010:2020   */\n      dup2\n        /* \"#utility.yul\":2007:2029   */\n      lt\n        /* \"#utility.yul\":1986:2004   */\n      0xffffffffffffffff\n        /* \"#utility.yul\":1974:1984   */\n      dup3\n        /* \"#utility.yul\":1971:2005   */\n      gt\n        /* \"#utility.yul\":1968:2030   */\n      or\n        /* \"#utility.yul\":1965:2053   */\n      iszero\n      tag_105\n      jumpi\n        /* \"#utility.yul\":2033:2051   */\n      tag_106\n      tag_65\n      jump\t// in\n    tag_106:\n        /* \"#utility.yul\":1965:2053   */\n    tag_105:\n        /* \"#utility.yul\":2073:2083   */\n      dup1\n        /* \"#utility.yul\":2069:2071   */\n      0x40\n        /* \"#utility.yul\":2062:2084   */\n      mstore\n        /* \"#utility.yul\":1852:2090   */\n      pop\n        /* \"#utility.yul\":1809:2090   */\n      pop\n      pop\n      jump\t// out\n        /* \"#utility.yul\":2096:2225   */\n    tag_67:\n        /* \"#utility.yul\":2130:2136   */\n      0x00\n        /* \"#utility.yul\":2157:2177   */\n      tag_108\n      tag_59\n      jump\t// in\n    tag_108:\n        /* \"#utility.yul\":2147:2177   */\n      swap1\n      pop\n        /* \"#utility.yul\":2186:2219   */\n      tag_109\n        /* \"#utility.yul\":2214:2218   */\n      dup3\n        /* \"#utility.yul\":2206:2212   */\n      dup3\n        /* \"#utility.yul\":2186:2219   */\n      tag_66\n      jump\t// in\n    tag_109:\n        /* \"#utility.yul\":2096:2225   */\n      swap2\n      swap1\n      pop\n      jump\t// out\n        /* \"#utility.yul\":2231:2538   */\n    tag_68:\n        /* \"#utility.yul\":2292:2296   */\n      0x00\n        /* \"#utility.yul\":2382:2400   */\n      0xffffffffffffffff\n        /* \"#utility.yul\":2374:2380   */\n      dup3\n        /* \"#utility.yul\":2371:2401   */\n      gt\n        /* \"#utility.yul\":2368:2424   */\n      iszero\n      tag_111\n      jumpi\n        /* \"#utility.yul\":2404:2422   */\n      tag_112\n      tag_65\n      jump\t// in\n    tag_112:\n        /* \"#utility.yul\":2368:2424   */\n    tag_111:\n        /* \"#utility.yul\":2442:2471   */\n      tag_113\n        /* \"#utility.yul\":2464:2470   */\n      dup3\n        /* \"#utility.yul\":2442:2471   */\n      tag_64\n      jump\t// in\n    tag_113:\n        /* \"#utility.yul\":2434:2471   */\n      swap1\n      pop\n        /* \"#utility.yul\":2526:2530   */\n      0x20\n        /* \"#utility.yul\":2520:2524   */\n      dup2\n        /* \"#utility.yul\":2516:2531   */\n      add\n        /* \"#utility.yul\":2508:2531   */\n      swap1\n      pop\n        /* \"#utility.yul\":2231:2538   */\n      swap2\n      swap1\n      pop\n      jump\t// out\n        /* \"#utility.yul\":2544:2690   */\n    tag_69:\n        /* \"#utility.yul\":2641:2647   */\n      dup3\n        /* \"#utility.yul\":2636:2639   */\n      dup2\n        /* \"#utility.yul\":2631:2634   */\n      dup4\n        /* \"#utility.yul\":2618:2648   */\n      calldatacopy\n        /* \"#utility.yul\":2682:2683   */\n      0x00\n        /* \"#utility.yul\":2673:2679   */\n      dup4\n        /* \"#utility.yul\":2668:2671   */\n      dup4\n        /* \"#utility.yul\":2664:2680   */\n      add\n        /* \"#utility.yul\":2657:2684   */\n      mstore\n        /* \"#utility.yul\":2544:2690   */\n      pop\n      pop\n      pop\n      jump\t// out\n        /* \"#utility.yul\":2696:3119   */\n    tag_70:\n        /* \"#utility.yul\":2773:2778   */\n      0x00\n        /* \"#utility.yul\":2798:2863   */\n      tag_116\n        /* \"#utility.yul\":2814:2862   */\n      tag_117\n        /* \"#utility.yul\":2855:2861   */\n      dup5\n        /* \"#utility.yul\":2814:2862   */\n      tag_68\n      jump\t// in\n    tag_117:\n        /* \"#utility.yul\":2798:2863   */\n      tag_67\n      jump\t// in\n    tag_116:\n        /* \"#utility.yul\":2789:2863   */\n      swap1\n      pop\n        /* \"#utility.yul\":2886:2892   */\n      dup3\n        /* \"#utility.yul\":2879:2884   */\n      dup2\n        /* \"#utility.yul\":2872:2893   */\n      mstore\n        /* \"#utility.yul\":2924:2928   */\n      0x20\n        /* \"#utility.yul\":2917:2922   */\n      dup2\n        /* \"#utility.yul\":2913:2929   */\n      add\n        /* \"#utility.yul\":2962:2965   */\n      dup5\n        /* \"#utility.yul\":2953:2959   */\n      dup5\n        /* \"#utility.yul\":2948:2951   */\n      dup5\n        /* \"#utility.yul\":2944:2960   */\n      add\n        /* \"#utility.yul\":2941:2966   */\n      gt\n        /* \"#utility.yul\":2938:3050   */\n      iszero\n      tag_118\n      jumpi\n        /* \"#utility.yul\":2969:3048   */\n      tag_119\n      tag_63\n      jump\t// in\n    tag_119:\n        /* \"#utility.yul\":2938:3050   */\n    tag_118:\n        /* \"#utility.yul\":3059:3113   */\n      tag_120\n        /* \"#utility.yul\":3106:3112   */\n      dup5\n        /* \"#utility.yul\":3101:3104   */\n      dup3\n        /* \"#utility.yul\":3096:3099   */\n      dup6\n        /* \"#utility.yul\":3059:3113   */\n      tag_69\n      jump\t// in\n    tag_120:\n        /* \"#utility.yul\":2779:3119   */\n      pop\n        /* \"#utility.yul\":2696:3119   */\n      swap4\n      swap3\n      pop\n      pop\n      pop\n      jump\t// out\n        /* \"#utility.yul\":3138:3476   */\n    tag_71:\n        /* \"#utility.yul\":3193:3198   */\n      0x00\n        /* \"#utility.yul\":3242:3245   */\n      dup3\n        /* \"#utility.yul\":3235:3239   */\n      0x1f\n        /* \"#utility.yul\":3227:3233   */\n      dup4\n        /* \"#utility.yul\":3223:3240   */\n      add\n        /* \"#utility.yul\":3219:3246   */\n      slt\n        /* \"#utility.yul\":3209:3331   */\n      tag_122\n      jumpi\n        /* \"#utility.yul\":3250:3329   */\n      tag_123\n      tag_62\n      jump\t// in\n    tag_123:\n        /* \"#utility.yul\":3209:3331   */\n    tag_122:\n        /* \"#utility.yul\":3367:3373   */\n      dup2\n        /* \"#utility.yul\":3354:3374   */\n      calldataload\n        /* \"#utility.yul\":3392:3470   */\n      tag_124\n        /* \"#utility.yul\":3466:3469   */\n      dup5\n        /* \"#utility.yul\":3458:3464   */\n      dup3\n        /* \"#utility.yul\":3451:3455   */\n      0x20\n        /* \"#utility.yul\":3443:3449   */\n      dup7\n        /* \"#utility.yul\":3439:3456   */\n      add\n        /* \"#utility.yul\":3392:3470   */\n      tag_70\n      jump\t// in\n    tag_124:\n        /* \"#utility.yul\":3383:3470   */\n      swap2\n      pop\n        /* \"#utility.yul\":3199:3476   */\n      pop\n        /* \"#utility.yul\":3138:3476   */\n      swap3\n      swap2\n      pop\n      pop\n      jump\t// out\n        /* \"#utility.yul\":3482:3631   */\n    tag_72:\n        /* \"#utility.yul\":3518:3525   */\n      0x00\n        /* \"#utility.yul\":3558:3624   */\n      0xff00000000000000000000000000000000000000000000000000000000000000\n        /* \"#utility.yul\":3551:3556   */\n      dup3\n        /* \"#utility.yul\":3547:3625   */\n      and\n        /* \"#utility.yul\":3536:3625   */\n      swap1\n      pop\n        /* \"#utility.yul\":3482:3631   */\n      swap2\n      swap1\n      pop\n      jump\t// out\n        /* \"#utility.yul\":3637:3757   */\n    tag_73:\n        /* \"#utility.yul\":3709:3732   */\n      tag_127\n        /* \"#utility.yul\":3726:3731   */\n      dup2\n        /* \"#utility.yul\":3709:3732   */\n      tag_72\n      jump\t// in\n    tag_127:\n        /* \"#utility.yul\":3702:3707   */\n      dup2\n        /* \"#utility.yul\":3699:3733   */\n      eq\n        /* \"#utility.yul\":3689:3751   */\n      tag_128\n      jumpi\n        /* \"#utility.yul\":3747:3748   */\n      0x00\n        /* \"#utility.yul\":3744:3745   */\n      dup1\n        /* \"#utility.yul\":3737:3749   */\n      revert\n        /* \"#utility.yul\":3689:3751   */\n    tag_128:\n        /* \"#utility.yul\":3637:3757   */\n      pop\n      jump\t// out\n        /* \"#utility.yul\":3763:3900   */\n    tag_74:\n        /* \"#utility.yul\":3808:3813   */\n      0x00\n        /* \"#utility.yul\":3846:3852   */\n      dup2\n        /* \"#utility.yul\":3833:3853   */\n      calldataload\n        /* \"#utility.yul\":3824:3853   */\n      swap1\n      pop\n        /* \"#utility.yul\":3862:3894   */\n      tag_130\n        /* \"#utility.yul\":3888:3893   */\n      dup2\n        /* \"#utility.yul\":3862:3894   */\n      tag_73\n      jump\t// in\n    tag_130:\n        /* \"#utility.yul\":3763:3900   */\n      swap3\n      swap2\n      pop\n      pop\n      jump\t// out\n        /* \"#utility.yul\":3906:4026   */\n    tag_75:\n        /* \"#utility.yul\":3978:4001   */\n      tag_132\n        /* \"#utility.yul\":3995:4000   */\n      dup2\n        /* \"#utility.yul\":3978:4001   */\n      tag_57\n      jump\t// in\n    tag_132:\n        /* \"#utility.yul\":3971:3976   */\n      dup2\n        /* \"#utility.yul\":3968:4002   */\n      eq\n        /* \"#utility.yul\":3958:4020   */\n      tag_133\n      jumpi\n        /* \"#utility.yul\":4016:4017   */\n      0x00\n        /* \"#utility.yul\":4013:4014   */\n      dup1\n        /* \"#utility.yul\":4006:4018   */\n      revert\n        /* \"#utility.yul\":3958:4020   */\n    tag_133:\n        /* \"#utility.yul\":3906:4026   */\n      pop\n      jump\t// out\n        /* \"#utility.yul\":4032:4169   */\n    tag_76:\n        /* \"#utility.yul\":4077:4082   */\n      0x00\n        /* \"#utility.yul\":4115:4121   */\n      dup2\n        /* \"#utility.yul\":4102:4122   */\n      calldataload\n        /* \"#utility.yul\":4093:4122   */\n      swap1\n      pop\n        /* \"#utility.yul\":4131:4163   */\n      tag_135\n        /* \"#utility.yul\":4157:4162   */\n      dup2\n        /* \"#utility.yul\":4131:4163   */\n      tag_75\n      jump\t// in\n    tag_135:\n        /* \"#utility.yul\":4032:4169   */\n      swap3\n      swap2\n      pop\n      pop\n      jump\t// out\n        /* \"#utility.yul\":4175:4968   */\n    tag_21:\n        /* \"#utility.yul\":4259:4265   */\n      0x00\n        /* \"#utility.yul\":4267:4273   */\n      dup1\n        /* \"#utility.yul\":4275:4281   */\n      0x00\n        /* \"#utility.yul\":4324:4326   */\n      0x60\n        /* \"#utility.yul\":4312:4321   */\n      dup5\n        /* \"#utility.yul\":4303:4310   */\n      dup7\n        /* \"#utility.yul\":4299:4322   */\n      sub\n        /* \"#utility.yul\":4295:4327   */\n      slt\n        /* \"#utility.yul\":4292:4411   */\n      iszero\n      tag_137\n      jumpi\n        /* \"#utility.yul\":4330:4409   */\n      tag_138\n      tag_60\n      jump\t// in\n    tag_138:\n        /* \"#utility.yul\":4292:4411   */\n    tag_137:\n        /* \"#utility.yul\":4478:4479   */\n      0x00\n        /* \"#utility.yul\":4467:4476   */\n      dup5\n        /* \"#utility.yul\":4463:4480   */\n      add\n        /* \"#utility.yul\":4450:4481   */\n      calldataload\n        /* \"#utility.yul\":4508:4526   */\n      0xffffffffffffffff\n        /* \"#utility.yul\":4500:4506   */\n      dup2\n        /* \"#utility.yul\":4497:4527   */\n      gt\n        /* \"#utility.yul\":4494:4611   */\n      iszero\n      tag_139\n      jumpi\n        /* \"#utility.yul\":4530:4609   */\n      tag_140\n      tag_61\n      jump\t// in\n    tag_140:\n        /* \"#utility.yul\":4494:4611   */\n    tag_139:\n        /* \"#utility.yul\":4635:4697   */\n      tag_141\n        /* \"#utility.yul\":4689:4696   */\n      dup7\n        /* \"#utility.yul\":4680:4686   */\n      dup3\n        /* \"#utility.yul\":4669:4678   */\n      dup8\n        /* \"#utility.yul\":4665:4687   */\n      add\n        /* \"#utility.yul\":4635:4697   */\n      tag_71\n      jump\t// in\n    tag_141:\n        /* \"#utility.yul\":4625:4697   */\n      swap4\n      pop\n        /* \"#utility.yul\":4421:4707   */\n      pop\n        /* \"#utility.yul\":4746:4748   */\n      0x20\n        /* \"#utility.yul\":4772:4824   */\n      tag_142\n        /* \"#utility.yul\":4816:4823   */\n      dup7\n        /* \"#utility.yul\":4807:4813   */\n      dup3\n        /* \"#utility.yul\":4796:4805   */\n      dup8\n        /* \"#utility.yul\":4792:4814   */\n      add\n        /* \"#utility.yul\":4772:4824   */\n      tag_74\n      jump\t// in\n    tag_142:\n        /* \"#utility.yul\":4762:4824   */\n      swap3\n      pop\n        /* \"#utility.yul\":4717:4834   */\n      pop\n        /* \"#utility.yul\":4873:4875   */\n      0x40\n        /* \"#utility.yul\":4899:4951   */\n      tag_143\n        /* \"#utility.yul\":4943:4950   */\n      dup7\n        /* \"#utility.yul\":4934:4940   */\n      dup3\n        /* \"#utility.yul\":4923:4932   */\n      dup8\n        /* \"#utility.yul\":4919:4941   */\n      add\n        /* \"#utility.yul\":4899:4951   */\n      tag_76\n      jump\t// in\n    tag_143:\n        /* \"#utility.yul\":4889:4951   */\n      swap2\n      pop\n        /* \"#utility.yul\":4844:4961   */\n      pop\n        /* \"#utility.yul\":4175:4968   */\n      swap3\n      pop\n      swap3\n      pop\n      swap3\n      jump\t// out\n        /* \"#utility.yul\":4974:5072   */\n    tag_77:\n        /* \"#utility.yul\":5025:5031   */\n      0x00\n        /* \"#utility.yul\":5059:5064   */\n      dup2\n        /* \"#utility.yul\":5053:5065   */\n      mload\n        /* \"#utility.yul\":5043:5065   */\n      swap1\n      pop\n        /* \"#utility.yul\":4974:5072   */\n      swap2\n      swap1\n      pop\n      jump\t// out\n        /* \"#utility.yul\":5078:5246   */\n    tag_78:\n        /* \"#utility.yul\":5161:5172   */\n      0x00\n        /* \"#utility.yul\":5195:5201   */\n      dup3\n        /* \"#utility.yul\":5190:5193   */\n      dup3\n        /* \"#utility.yul\":5183:5202   */\n      mstore\n        /* \"#utility.yul\":5235:5239   */\n      0x20\n        /* \"#utility.yul\":5230:5233   */\n      dup3\n        /* \"#utility.yul\":5226:5240   */\n      add\n        /* \"#utility.yul\":5211:5240   */\n      swap1\n      pop\n        /* \"#utility.yul\":5078:5246   */\n      swap3\n      swap2\n      pop\n      pop\n      jump\t// out\n        /* \"#utility.yul\":5252:5498   */\n    tag_79:\n        /* \"#utility.yul\":5333:5334   */\n      0x00\n        /* \"#utility.yul\":5343:5456   */\n    tag_147:\n        /* \"#utility.yul\":5357:5363   */\n      dup4\n        /* \"#utility.yul\":5354:5355   */\n      dup2\n        /* \"#utility.yul\":5351:5364   */\n      lt\n        /* \"#utility.yul\":5343:5456   */\n      iszero\n      tag_149\n      jumpi\n        /* \"#utility.yul\":5442:5443   */\n      dup1\n        /* \"#utility.yul\":5437:5440   */\n      dup3\n        /* \"#utility.yul\":5433:5444   */\n      add\n        /* \"#utility.yul\":5427:5445   */\n      mload\n        /* \"#utility.yul\":5423:5424   */\n      dup2\n        /* \"#utility.yul\":5418:5421   */\n      dup5\n        /* \"#utility.yul\":5414:5425   */\n      add\n        /* \"#utility.yul\":5407:5446   */\n      mstore\n        /* \"#utility.yul\":5379:5381   */\n      0x20\n        /* \"#utility.yul\":5376:5377   */\n      dup2\n        /* \"#utility.yul\":5372:5382   */\n      add\n        /* \"#utility.yul\":5367:5382   */\n      swap1\n      pop\n        /* \"#utility.yul\":5343:5456   */\n      jump(tag_147)\n    tag_149:\n        /* \"#utility.yul\":5490:5491   */\n      0x00\n        /* \"#utility.yul\":5481:5487   */\n      dup5\n        /* \"#utility.yul\":5476:5479   */\n      dup5\n        /* \"#utility.yul\":5472:5488   */\n      add\n        /* \"#utility.yul\":5465:5492   */\n      mstore\n        /* \"#utility.yul\":5314:5498   */\n      pop\n        /* \"#utility.yul\":5252:5498   */\n      pop\n      pop\n      pop\n      jump\t// out\n        /* \"#utility.yul\":5504:5877   */\n    tag_80:\n        /* \"#utility.yul\":5590:5593   */\n      0x00\n        /* \"#utility.yul\":5618:5656   */\n      tag_151\n        /* \"#utility.yul\":5650:5655   */\n      dup3\n        /* \"#utility.yul\":5618:5656   */\n      tag_77\n      jump\t// in\n    tag_151:\n        /* \"#utility.yul\":5672:5742   */\n      tag_152\n        /* \"#utility.yul\":5735:5741   */\n      dup2\n        /* \"#utility.yul\":5730:5733   */\n      dup6\n        /* \"#utility.yul\":5672:5742   */\n      tag_78\n      jump\t// in\n    tag_152:\n        /* \"#utility.yul\":5665:5742   */\n      swap4\n      pop\n        /* \"#utility.yul\":5751:5816   */\n      tag_153\n        /* \"#utility.yul\":5809:5815   */\n      dup2\n        /* \"#utility.yul\":5804:5807   */\n      dup6\n        /* \"#utility.yul\":5797:5801   */\n      0x20\n        /* \"#utility.yul\":5790:5795   */\n      dup7\n        /* \"#utility.yul\":5786:5802   */\n      add\n        /* \"#utility.yul\":5751:5816   */\n      tag_79\n      jump\t// in\n    tag_153:\n        /* \"#utility.yul\":5841:5870   */\n      tag_154\n        /* \"#utility.yul\":5863:5869   */\n      dup2\n        /* \"#utility.yul\":5841:5870   */\n      tag_64\n      jump\t// in\n    tag_154:\n        /* \"#utility.yul\":5836:5839   */\n      dup5\n        /* \"#utility.yul\":5832:5871   */\n      add\n        /* \"#utility.yul\":5825:5871   */\n      swap2\n      pop\n        /* \"#utility.yul\":5594:5877   */\n      pop\n        /* \"#utility.yul\":5504:5877   */\n      swap3\n      swap2\n      pop\n      pop\n      jump\t// out\n        /* \"#utility.yul\":5883:6192   */\n    tag_26:\n        /* \"#utility.yul\":5994:5998   */\n      0x00\n        /* \"#utility.yul\":6032:6034   */\n      0x20\n        /* \"#utility.yul\":6021:6030   */\n      dup3\n        /* \"#utility.yul\":6017:6035   */\n      add\n        /* \"#utility.yul\":6009:6035   */\n      swap1\n      pop\n        /* \"#utility.yul\":6081:6090   */\n      dup2\n        /* \"#utility.yul\":6075:6079   */\n      dup2\n        /* \"#utility.yul\":6071:6091   */\n      sub\n        /* \"#utility.yul\":6067:6068   */\n      0x00\n        /* \"#utility.yul\":6056:6065   */\n      dup4\n        /* \"#utility.yul\":6052:6069   */\n      add\n        /* \"#utility.yul\":6045:6092   */\n      mstore\n        /* \"#utility.yul\":6109:6185   */\n      tag_156\n        /* \"#utility.yul\":6180:6184   */\n      dup2\n        /* \"#utility.yul\":6171:6177   */\n      dup5\n        /* \"#utility.yul\":6109:6185   */\n      tag_80\n      jump\t// in\n    tag_156:\n        /* \"#utility.yul\":6101:6185   */\n      swap1\n      pop\n        /* \"#utility.yul\":5883:6192   */\n      swap3\n      swap2\n      pop\n      pop\n      jump\t// out\n        /* \"#utility.yul\":6198:6320   */\n    tag_81:\n        /* \"#utility.yul\":6271:6295   */\n      tag_158\n        /* \"#utility.yul\":6289:6294   */\n      dup2\n        /* \"#utility.yul\":6271:6295   */\n      tag_55\n      jump\t// in\n    tag_158:\n        /* \"#utility.yul\":6264:6269   */\n      dup2\n        /* \"#utility.yul\":6261:6296   */\n      eq\n        /* \"#utility.yul\":6251:6314   */\n      tag_159\n      jumpi\n        /* \"#utility.yul\":6310:6311   */\n      0x00\n        /* \"#utility.yul\":6307:6308   */\n      dup1\n        /* \"#utility.yul\":6300:6312   */\n      revert\n        /* \"#utility.yul\":6251:6314   */\n    tag_159:\n        /* \"#utility.yul\":6198:6320   */\n      pop\n      jump\t// out\n        /* \"#utility.yul\":6326:6465   */\n    tag_82:\n        /* \"#utility.yul\":6372:6377   */\n      0x00\n        /* \"#utility.yul\":6410:6416   */\n      dup2\n        /* \"#utility.yul\":6397:6417   */\n      calldataload\n        /* \"#utility.yul\":6388:6417   */\n      swap1\n      pop\n        /* \"#utility.yul\":6426:6459   */\n      tag_161\n        /* \"#utility.yul\":6453:6458   */\n      dup2\n        /* \"#utility.yul\":6426:6459   */\n      tag_81\n      jump\t// in\n    tag_161:\n        /* \"#utility.yul\":6326:6465   */\n      swap3\n      swap2\n      pop\n      pop\n      jump\t// out\n        /* \"#utility.yul\":6471:6945   */\n    tag_29:\n        /* \"#utility.yul\":6539:6545   */\n      0x00\n        /* \"#utility.yul\":6547:6553   */\n      dup1\n        /* \"#utility.yul\":6596:6598   */\n      0x40\n        /* \"#utility.yul\":6584:6593   */\n      dup4\n        /* \"#utility.yul\":6575:6582   */\n      dup6\n        /* \"#utility.yul\":6571:6594   */\n      sub\n        /* \"#utility.yul\":6567:6599   */\n      slt\n        /* \"#utility.yul\":6564:6683   */\n      iszero\n      tag_163\n      jumpi\n        /* \"#utility.yul\":6602:6681   */\n      tag_164\n      tag_60\n      jump\t// in\n    tag_164:\n        /* \"#utility.yul\":6564:6683   */\n    tag_163:\n        /* \"#utility.yul\":6722:6723   */\n      0x00\n        /* \"#utility.yul\":6747:6800   */\n      tag_165\n        /* \"#utility.yul\":6792:6799   */\n      dup6\n        /* \"#utility.yul\":6783:6789   */\n      dup3\n        /* \"#utility.yul\":6772:6781   */\n      dup7\n        /* \"#utility.yul\":6768:6790   */\n      add\n        /* \"#utility.yul\":6747:6800   */\n      tag_82\n      jump\t// in\n    tag_165:\n        /* \"#utility.yul\":6737:6800   */\n      swap3\n      pop\n        /* \"#utility.yul\":6693:6810   */\n      pop\n        /* \"#utility.yul\":6849:6851   */\n      0x20\n        /* \"#utility.yul\":6875:6928   */\n      tag_166\n        /* \"#utility.yul\":6920:6927   */\n      dup6\n        /* \"#utility.yul\":6911:6917   */\n      dup3\n        /* \"#utility.yul\":6900:6909   */\n      dup7\n        /* \"#utility.yul\":6896:6918   */\n      add\n        /* \"#utility.yul\":6875:6928   */\n      tag_82\n      jump\t// in\n    tag_166:\n        /* \"#utility.yul\":6865:6928   */\n      swap2\n      pop\n        /* \"#utility.yul\":6820:6938   */\n      pop\n        /* \"#utility.yul\":6471:6945   */\n      swap3\n      pop\n      swap3\n      swap1\n      pop\n      jump\t// out\n        /* \"#utility.yul\":6951:7280   */\n    tag_33:\n        /* \"#utility.yul\":7010:7016   */\n      0x00\n        /* \"#utility.yul\":7059:7061   */\n      0x20\n        /* \"#utility.yul\":7047:7056   */\n      dup3\n        /* \"#utility.yul\":7038:7045   */\n      dup5\n        /* \"#utility.yul\":7034:7057   */\n      sub\n        /* \"#utility.yul\":7030:7062   */\n      slt\n        /* \"#utility.yul\":7027:7146   */\n      iszero\n      tag_168\n      jumpi\n        /* \"#utility.yul\":7065:7144   */\n      tag_169\n      tag_60\n      jump\t// in\n    tag_169:\n        /* \"#utility.yul\":7027:7146   */\n    tag_168:\n        /* \"#utility.yul\":7185:7186   */\n      0x00\n        /* \"#utility.yul\":7210:7263   */\n      tag_170\n        /* \"#utility.yul\":7255:7262   */\n      dup5\n        /* \"#utility.yul\":7246:7252   */\n      dup3\n        /* \"#utility.yul\":7235:7244   */\n      dup6\n        /* \"#utility.yul\":7231:7253   */\n      add\n        /* \"#utility.yul\":7210:7263   */\n      tag_82\n      jump\t// in\n    tag_170:\n        /* \"#utility.yul\":7200:7263   */\n      swap2\n      pop\n        /* \"#utility.yul\":7156:7273   */\n      pop\n        /* \"#utility.yul\":6951:7280   */\n      swap3\n      swap2\n      pop\n      pop\n      jump\t// out\n        /* \"#utility.yul\":7286:7401   */\n    tag_83:\n        /* \"#utility.yul\":7371:7394   */\n      tag_172\n        /* \"#utility.yul\":7388:7393   */\n      dup2\n        /* \"#utility.yul\":7371:7394   */\n      tag_72\n      jump\t// in\n    tag_172:\n        /* \"#utility.yul\":7366:7369   */\n      dup3\n        /* \"#utility.yul\":7359:7395   */\n      mstore\n        /* \"#utility.yul\":7286:7401   */\n      pop\n      pop\n      jump\t// out\n        /* \"#utility.yul\":7407:7625   */\n    tag_39:\n        /* \"#utility.yul\":7498:7502   */\n      0x00\n        /* \"#utility.yul\":7536:7538   */\n      0x20\n        /* \"#utility.yul\":7525:7534   */\n      dup3\n        /* \"#utility.yul\":7521:7539   */\n      add\n        /* \"#utility.yul\":7513:7539   */\n      swap1\n      pop\n        /* \"#utility.yul\":7549:7618   */\n      tag_174\n        /* \"#utility.yul\":7615:7616   */\n      0x00\n        /* \"#utility.yul\":7604:7613   */\n      dup4\n        /* \"#utility.yul\":7600:7617   */\n      add\n        /* \"#utility.yul\":7591:7597   */\n      dup5\n        /* \"#utility.yul\":7549:7618   */\n      tag_83\n      jump\t// in\n    tag_174:\n        /* \"#utility.yul\":7407:7625   */\n      swap3\n      swap2\n      pop\n      pop\n      jump\t// out\n        /* \"#utility.yul\":7631:7811   */\n    tag_84:\n        /* \"#utility.yul\":7679:7756   */\n      0x4e487b7100000000000000000000000000000000000000000000000000000000\n        /* \"#utility.yul\":7676:7677   */\n      0x00\n        /* \"#utility.yul\":7669:7757   */\n      mstore\n        /* \"#utility.yul\":7776:7780   */\n      0x22\n        /* \"#utility.yul\":7773:7774   */\n      0x04\n        /* \"#utility.yul\":7766:7781   */\n      mstore\n        /* \"#utility.yul\":7800:7804   */\n      0x24\n        /* \"#utility.yul\":7797:7798   */\n      0x00\n        /* \"#utility.yul\":7790:7805   */\n      revert\n        /* \"#utility.yul\":7817:8137   */\n    tag_43:\n        /* \"#utility.yul\":7861:7867   */\n      0x00\n        /* \"#utility.yul\":7898:7899   */\n      0x02\n        /* \"#utility.yul\":7892:7896   */\n      dup3\n        /* \"#utility.yul\":7888:7900   */\n      div\n        /* \"#utility.yul\":7878:7900   */\n      swap1\n      pop\n        /* \"#utility.yul\":7945:7946   */\n      0x01\n        /* \"#utility.yul\":7939:7943   */\n      dup3\n        /* \"#utility.yul\":7935:7947   */\n      and\n        /* \"#utility.yul\":7966:7984   */\n      dup1\n        /* \"#utility.yul\":7956:8037   */\n      tag_177\n      jumpi\n        /* \"#utility.yul\":8022:8026   */\n      0x7f\n        /* \"#utility.yul\":8014:8020   */\n      dup3\n        /* \"#utility.yul\":8010:8027   */\n      and\n        /* \"#utility.yul\":8000:8027   */\n      swap2\n      pop\n        /* \"#utility.yul\":7956:8037   */\n    tag_177:\n        /* \"#utility.yul\":8084:8086   */\n      0x20\n        /* \"#utility.yul\":8076:8082   */\n      dup3\n        /* \"#utility.yul\":8073:8087   */\n      lt\n        /* \"#utility.yul\":8053:8071   */\n      dup2\n        /* \"#utility.yul\":8050:8088   */\n      sub\n        /* \"#utility.yul\":8047:8131   */\n      tag_178\n      jumpi\n        /* \"#utility.yul\":8103:8121   */\n      tag_179\n      tag_84\n      jump\t// in\n    tag_179:\n        /* \"#utility.yul\":8047:8131   */\n    tag_178:\n        /* \"#utility.yul\":7868:8137   */\n      pop\n        /* \"#utility.yul\":7817:8137   */\n      swap2\n      swap1\n      pop\n      jump\t// out\n        /* \"#utility.yul\":8143:8323   */\n    tag_51:\n        /* \"#utility.yul\":8191:8268   */\n      0x4e487b7100000000000000000000000000000000000000000000000000000000\n        /* \"#utility.yul\":8188:8189   */\n      0x00\n        /* \"#utility.yul\":8181:8269   */\n      mstore\n        /* \"#utility.yul\":8288:8292   */\n      0x32\n        /* \"#utility.yul\":8285:8286   */\n      0x04\n        /* \"#utility.yul\":8278:8293   */\n      mstore\n        /* \"#utility.yul\":8312:8316   */\n      0x24\n        /* \"#utility.yul\":8309:8310   */\n      0x00\n        /* \"#utility.yul\":8302:8317   */\n      revert\n\n    auxdata: 0xa2646970667358221220edfb1751495c049c5cf7c76d6843a0aade7ea14729eda1c174b7214d4a7e5b4b64736f6c63430008110033\n}\n",
				"bytecode": {
					"linkReferences": {},
					"object": "60806040526040518060600160405280600160ff168152602001600260ff168152602001600360ff16815250600090600361003b92919061004e565b5034801561004857600080fd5b506100b0565b8260038101928215610082579160200282015b82811115610081578251829060ff16905591602001919060010190610061565b5b50905061008f9190610093565b5090565b5b808211156100ac576000816000905550600101610094565b5090565b61075d806100bf6000396000f3fe608060405234801561001057600080fd5b506004361061007d5760003560e01c80634df7e3d01161005b5780634df7e3d0146100da578063a16e7215146100f8578063d39fa23314610114578063ee495002146101445761007d565b80630849cc99146100825780630add6ef2146100a057806313a51869146100be575b600080fd5b61008a610162565b6040516100979190610276565b60405180910390f35b6100a861016b565b6040516100b591906102cc565b60405180910390f35b6100d860048036038101906100d391906104c5565b61017e565b005b6100e2610183565b6040516100ef91906105b3565b60405180910390f35b610112600480360381019061010d9190610601565b610211565b005b61012e60048036038101906101299190610641565b61022f565b60405161013b9190610276565b60405180910390f35b61014c61024a565b604051610159919061067d565b60405180910390f35b60006003905090565b600460019054906101000a900460f01b81565b505050565b60038054610190906106c7565b80601f01602080910402602001604051908101604052809291908181526020018280546101bc906106c7565b80156102095780601f106101de57610100808354040283529160200191610209565b820191906000526020600020905b8154815290600101906020018083116101ec57829003601f168201915b505050505081565b8060008360038110610226576102256106f8565b5b01819055505050565b6000816003811061023f57600080fd5b016000915090505481565b600460009054906101000a900460f81b81565b6000819050919050565b6102708161025d565b82525050565b600060208201905061028b6000830184610267565b92915050565b60007fffff00000000000000000000000000000000000000000000000000000000000082169050919050565b6102c681610291565b82525050565b60006020820190506102e160008301846102bd565b92915050565b6000604051905090565b600080fd5b600080fd5b600080fd5b600080fd5b6000601f19601f8301169050919050565b7f4e487b7100000000000000000000000000000000000000000000000000000000600052604160045260246000fd5b61034e82610305565b810181811067ffffffffffffffff8211171561036d5761036c610316565b5b80604052505050565b60006103806102e7565b905061038c8282610345565b919050565b600067ffffffffffffffff8211156103ac576103ab610316565b5b6103b582610305565b9050602081019050919050565b82818337600083830152505050565b60006103e46103df84610391565b610376565b905082815260208101848484011115610400576103ff610300565b5b61040b8482856103c2565b509392505050565b600082601f830112610428576104276102fb565b5b81356104388482602086016103d1565b91505092915050565b60007fff0000000000000000000000000000000000000000000000000000000000000082169050919050565b61047681610441565b811461048157600080fd5b50565b6000813590506104938161046d565b92915050565b6104a281610291565b81146104ad57600080fd5b50565b6000813590506104bf81610499565b92915050565b6000806000606084860312156104de576104dd6102f1565b5b600084013567ffffffffffffffff8111156104fc576104fb6102f6565b5b61050886828701610413565b935050602061051986828701610484565b925050604061052a868287016104b0565b9150509250925092565b600081519050919050565b600082825260208201905092915050565b60005b8381101561056e578082015181840152602081019050610553565b60008484015250505050565b600061058582610534565b61058f818561053f565b935061059f818560208601610550565b6105a881610305565b840191505092915050565b600060208201905081810360008301526105cd818461057a565b905092915050565b6105de8161025d565b81146105e957600080fd5b50565b6000813590506105fb816105d5565b92915050565b60008060408385031215610618576106176102f1565b5b6000610626858286016105ec565b9250506020610637858286016105ec565b9150509250929050565b600060208284031215610657576106566102f1565b5b6000610665848285016105ec565b91505092915050565b61067781610441565b82525050565b6000602082019050610692600083018461066e565b92915050565b7f4e487b7100000000000000000000000000000000000000000000000000000000600052602260045260246000fd5b600060028204905060018216806106df57607f821691505b6020821081036106f2576106f1610698565b5b50919050565b7f4e487b7100000000000000000000000000000000000000000000000000000000600052603260045260246000fdfea2646970667358221220edfb1751495c049c5cf7c76d6843a0aade7ea14729eda1c174b7214d4a7e5b4b64736f6c63430008110033",
					"opcodes": "PUSH1 0x80 PUSH1 0x40 MSTORE PUSH1 0x40 MLOAD DUP1 PUSH1 0x60 ADD PUSH1 0x40 MSTORE DUP1 PUSH1 0x1 PUSH1 0xFF AND DUP2 MSTORE PUSH1 0x20 ADD PUSH1 0x2 PUSH1 0xFF AND DUP2 MSTORE PUSH1 0x20 ADD PUSH1 0x3 PUSH1 0xFF AND DUP2 MSTORE POP PUSH1 0x0 SWAP1 PUSH1 0x3 PUSH2 0x3B SWAP3 SWAP2 SWAP1 PUSH2 0x4E JUMP JUMPDEST POP CALLVALUE DUP1 ISZERO PUSH2 0x48 JUMPI PUSH1 0x0 DUP1 REVERT JUMPDEST POP PUSH2 0xB0 JUMP JUMPDEST DUP3 PUSH1 0x3 DUP2 ADD SWAP3 DUP3 ISZERO PUSH2 0x82 JUMPI SWAP2 PUSH1 0x20 MUL DUP3 ADD JUMPDEST DUP3 DUP2 GT ISZERO PUSH2 0x81 JUMPI DUP3 MLOAD DUP3 SWAP1 PUSH1 0xFF AND SWAP1 SSTORE SWAP2 PUSH1 0x20 ADD SWAP2 SWAP1 PUSH1 0x1 ADD SWAP1 PUSH2 0x61 JUMP JUMPDEST JUMPDEST POP SWAP1 POP PUSH2 0x8F SWAP2 SWAP1 PUSH2 0x93 JUMP JUMPDEST POP SWAP1 JUMP JUMPDEST JUMPDEST DUP1 DUP3 GT ISZERO PUSH2 0xAC JUMPI PUSH1 0x0 DUP2 PUSH1 0x0 SWAP1 SSTORE POP PUSH1 0x1 ADD PUSH2 0x94 JUMP JUMPDEST POP SWAP1 JUMP JUMPDEST PUSH2 0x75D DUP1 PUSH2 0xBF PUSH1 0x0 CODECOPY PUSH1 0x0 RETURN INVALID PUSH1 0x80 PUSH1 0x40 MSTORE CALLVALUE DUP1 ISZERO PUSH2 0x10 JUMPI PUSH1 0x0 DUP1 REVERT JUMPDEST POP PUSH1 0x4 CALLDATASIZE LT PUSH2 0x7D JUMPI PUSH1 0x0 CALLDATALOAD PUSH1 0xE0 SHR DUP1 PUSH4 0x4DF7E3D0 GT PUSH2 0x5B JUMPI DUP1 PUSH4 0x4DF7E3D0 EQ PUSH2 0xDA JUMPI DUP1 PUSH4 0xA16E7215 EQ PUSH2 0xF8 JUMPI DUP1 PUSH4 0xD39FA233 EQ PUSH2 0x114 JUMPI DUP1 PUSH4 0xEE495002 EQ PUSH2 0x144 JUMPI PUSH2 0x7D JUMP JUMPDEST DUP1 PUSH4 0x849CC99 EQ PUSH2 0x82 JUMPI DUP1 PUSH4 0xADD6EF2 EQ PUSH2 0xA0 JUMPI DUP1 PUSH4 0x13A51869 EQ PUSH2 0xBE JUMPI JUMPDEST PUSH1 0x0 DUP1 REVERT JUMPDEST PUSH2 0x8A PUSH2 0x162 JUMP JUMPDEST PUSH1 0x40 MLOAD PUSH2 0x97 SWAP2 SWAP1 PUSH2 0x276 JUMP JUMPDEST PUSH1 0x40 MLOAD DUP1 SWAP2 SUB SWAP1 RETURN JUMPDEST PUSH2 0xA8 PUSH2 0x16B JUMP JUMPDEST PUSH1 0x40 MLOAD PUSH2 0xB5 SWAP2 SWAP1 PUSH2 0x2CC JUMP JUMPDEST PUSH1 0x40 MLOAD DUP1 SWAP2 SUB SWAP1 RETURN JUMPDEST PUSH2 0xD8 PUSH1 0x4 DUP1 CALLDATASIZE SUB DUP2 ADD SWAP1 PUSH2 0xD3 SWAP2 SWAP1 PUSH2 0x4C5 JUMP JUMPDEST PUSH2 0x17E JUMP JUMPDEST STOP JUMPDEST PUSH2 0xE2 PUSH2 0x183 JUMP JUMPDEST PUSH1 0x40 MLOAD PUSH2 0xEF SWAP2 SWAP1 PUSH2 0x5B3 JUMP JUMPDEST PUSH1 0x40 MLOAD DUP1 SWAP2 SUB SWAP1 RETURN JUMPDEST PUSH2 0x112 PUSH1 0x4 DUP1 CALLDATASIZE SUB DUP2 ADD SWAP1 PUSH2 0x10D SWAP2 SWAP1 PUSH2 0x601 JUMP JUMPDEST PUSH2 0x211 JUMP JUMPDEST STOP JUMPDEST PUSH2 0x12E PUSH1 0x4 DUP1 CALLDATASIZE SUB DUP2 ADD SWAP1 PUSH2 0x129 SWAP2 SWAP1 PUSH2 0x641 JUMP JUMPDEST PUSH2 0x22F JUMP JUMPDEST PUSH1 0x40 MLOAD PUSH2 0x13B SWAP2 SWAP1 PUSH2 0x276 JUMP JUMPDEST PUSH1 0x40 MLOAD DUP1 SWAP2 SUB SWAP1 RETURN JUMPDEST PUSH2 0x14C PUSH2 0x24A JUMP JUMPDEST PUSH1 0x40 MLOAD PUSH2 0x159 SWAP2 SWAP1 PUSH2 0x67D JUMP JUMPDEST PUSH1 0x40 MLOAD DUP1 SWAP2 SUB SWAP1 RETURN JUMPDEST PUSH1 0x0 PUSH1 0x3 SWAP1 POP SWAP1 JUMP JUMPDEST PUSH1 0x4 PUSH1 0x1 SWAP1 SLOAD SWAP1 PUSH2 0x100 EXP SWAP1 DIV PUSH1 0xF0 SHL DUP2 JUMP JUMPDEST POP POP POP JUMP JUMPDEST PUSH1 0x3 DUP1 SLOAD PUSH2 0x190 SWAP1 PUSH2 0x6C7 JUMP JUMPDEST DUP1 PUSH1 0x1F ADD PUSH1 0x20 DUP1 SWAP2 DIV MUL PUSH1 0x20 ADD PUSH1 0x40 MLOAD SWAP1 DUP2 ADD PUSH1 0x40 MSTORE DUP1 SWAP3 SWAP2 SWAP1 DUP2 DUP2 MSTORE PUSH1 0x20 ADD DUP3 DUP1 SLOAD PUSH2 0x1BC SWAP1 PUSH2 0x6C7 JUMP JUMPDEST DUP1 ISZERO PUSH2 0x209 JUMPI DUP1 PUSH1 0x1F LT PUSH2 0x1DE JUMPI PUSH2 0x100 DUP1 DUP4 SLOAD DIV MUL DUP4 MSTORE SWAP2 PUSH1 0x20 ADD SWAP2 PUSH2 0x209 JUMP JUMPDEST DUP3 ADD SWAP2 SWAP1 PUSH1 0x0 MSTORE PUSH1 0x20 PUSH1 0x0 KECCAK256 SWAP1 JUMPDEST DUP2 SLOAD DUP2 MSTORE SWAP1 PUSH1 0x1 ADD SWAP1 PUSH1 0x20 ADD DUP1 DUP4 GT PUSH2 0x1EC JUMPI DUP3 SWAP1 SUB PUSH1 0x1F AND DUP3 ADD SWAP2 JUMPDEST POP POP POP POP POP DUP2 JUMP JUMPDEST DUP1 PUSH1 0x0 DUP4 PUSH1 0x3 DUP2 LT PUSH2 0x226 JUMPI PUSH2 0x225 PUSH2 0x6F8 JUMP JUMPDEST JUMPDEST ADD DUP2 SWAP1 SSTORE POP POP POP JUMP JUMPDEST PUSH1 0x0 DUP2 PUSH1 0x3 DUP2 LT PUSH2 0x23F JUMPI PUSH1 0x0 DUP1 REVERT JUMPDEST ADD PUSH1 0x0 SWAP2 POP SWAP1 POP SLOAD DUP2 JUMP JUMPDEST PUSH1 0x4 PUSH1 0x0 SWAP1 SLOAD SWAP1 PUSH2 0x100 EXP SWAP1 DIV PUSH1 0xF8 SHL DUP2 JUMP JUMPDEST PUSH1 0x0 DUP2 SWAP1 POP SWAP2 SWAP1 POP JUMP JUMPDEST PUSH2 0x270 DUP2 PUSH2 0x25D JUMP JUMPDEST DUP3 MSTORE POP POP JUMP JUMPDEST PUSH1 0x0 PUSH1 0x20 DUP3 ADD SWAP1 POP PUSH2 0x28B PUSH1 0x0 DUP4 ADD DUP5 PUSH2 0x267 JUMP JUMPDEST SWAP3 SWAP2 POP POP JUMP JUMPDEST PUSH1 0x0 PUSH32 0xFFFF000000000000000000000000000000000000000000000000000000000000 DUP3 AND SWAP1 POP SWAP2 SWAP1 POP JUMP JUMPDEST PUSH2 0x2C6 DUP2 PUSH2 0x291 JUMP JUMPDEST DUP3 MSTORE POP POP JUMP JUMPDEST PUSH1 0x0 PUSH1 0x20 DUP3 ADD SWAP1 POP PUSH2 0x2E1 PUSH1 0x0 DUP4 ADD DUP5 PUSH2 0x2BD JUMP JUMPDEST SWAP3 SWAP2 POP POP JUMP JUMPDEST PUSH1 0x0 PUSH1 0x40 MLOAD SWAP1 POP SWAP1 JUMP JUMPDEST PUSH1 0x0 DUP1 REVERT JUMPDEST PUSH1 0x0 DUP1 REVERT JUMPDEST PUSH1 0x0 DUP1 REVERT JUMPDEST PUSH1 0x0 DUP1 REVERT JUMPDEST PUSH1 0x0 PUSH1 0x1F NOT PUSH1 0x1F DUP4 ADD AND SWAP1 POP SWAP2 SWAP1 POP JUMP JUMPDEST PUSH32 0x4E487B7100000000000000000000000000000000000000000000000000000000 PUSH1 0x0 MSTORE PUSH1 0x41 PUSH1 0x4 MSTORE PUSH1 0x24 PUSH1 0x0 REVERT JUMPDEST PUSH2 0x34E DUP3 PUSH2 0x305 JUMP JUMPDEST DUP2 ADD DUP2 DUP2 LT PUSH8 0xFFFFFFFFFFFFFFFF DUP3 GT OR ISZERO PUSH2 0x36D JUMPI PUSH2 0x36C PUSH2 0x316 JUMP JUMPDEST JUMPDEST DUP1 PUSH1 0x40 MSTORE POP POP POP JUMP JUMPDEST PUSH1 0x0 PUSH2 0x380 PUSH2 0x2E7 JUMP JUMPDEST SWAP1 POP PUSH2 0x38C DUP3 DUP3 PUSH2 0x345 JUMP JUMPDEST SWAP2 SWAP1 POP JUMP JUMPDEST PUSH1 0x0 PUSH8 0xFFFFFFFFFFFFFFFF DUP3 GT ISZERO PUSH2 0x3AC JUMPI PUSH2 0x3AB PUSH2 0x316 JUMP JUMPDEST JUMPDEST PUSH2 0x3B5 DUP3 PUSH2 0x305 JUMP JUMPDEST SWAP1 POP PUSH1 0x20 DUP2 ADD SWAP1 POP SWAP2 SWAP1 POP JUMP JUMPDEST DUP3 DUP2 DUP4 CALLDATACOPY PUSH1 0x0 DUP4 DUP4 ADD MSTORE POP POP POP JUMP JUMPDEST PUSH1 0x0 PUSH2 0x3E4 PUSH2 0x3DF DUP5 PUSH2 0x391 JUMP JUMPDEST PUSH2 0x376 JUMP JUMPDEST SWAP1 POP DUP3 DUP2 MSTORE PUSH1 0x20 DUP2 ADD DUP5 DUP5 DUP5 ADD GT ISZERO PUSH2 0x400 JUMPI PUSH2 0x3FF PUSH2 0x300 JUMP JUMPDEST JUMPDEST PUSH2 0x40B DUP5 DUP3 DUP6 PUSH2 0x3C2 JUMP JUMPDEST POP SWAP4 SWAP3 POP POP POP JUMP JUMPDEST PUSH1 0x0 DUP3 PUSH1 0x1F DUP4 ADD SLT PUSH2 0x428 JUMPI PUSH2 0x427 PUSH2 0x2FB JUMP JUMPDEST JUMPDEST DUP2 CALLDATALOAD PUSH2 0x438 DUP5 DUP3 PUSH1 0x20 DUP7 ADD PUSH2 0x3D1 JUMP JUMPDEST SWAP2 POP POP SWAP3 SWAP2 POP POP JUMP JUMPDEST PUSH1 0x0 PUSH32 0xFF00000000000000000000000000000000000000000000000000000000000000 DUP3 AND SWAP1 POP SWAP2 SWAP1 POP JUMP JUMPDEST PUSH2 0x476 DUP2 PUSH2 0x441 JUMP JUMPDEST DUP2 EQ PUSH2 0x481 JUMPI PUSH1 0x0 DUP1 REVERT JUMPDEST POP JUMP JUMPDEST PUSH1 0x0 DUP2 CALLDATALOAD SWAP1 POP PUSH2 0x493 DUP2 PUSH2 0x46D JUMP JUMPDEST SWAP3 SWAP2 POP POP JUMP JUMPDEST PUSH2 0x4A2 DUP2 PUSH2 0x291 JUMP JUMPDEST DUP2 EQ PUSH2 0x4AD JUMPI PUSH1 0x0 DUP1 REVERT JUMPDEST POP JUMP JUMPDEST PUSH1 0x0 DUP2 CALLDATALOAD SWAP1 POP PUSH2 0x4BF DUP2 PUSH2 0x499 JUMP JUMPDEST SWAP3 SWAP2 POP POP JUMP JUMPDEST PUSH1 0x0 DUP1 PUSH1 0x0 PUSH1 0x60 DUP5 DUP7 SUB SLT ISZERO PUSH2 0x4DE JUMPI PUSH2 0x4DD PUSH2 0x2F1 JUMP JUMPDEST JUMPDEST PUSH1 0x0 DUP5 ADD CALLDATALOAD PUSH8 0xFFFFFFFFFFFFFFFF DUP2 GT ISZERO PUSH2 0x4FC JUMPI PUSH2 0x4FB PUSH2 0x2F6 JUMP JUMPDEST JUMPDEST PUSH2 0x508 DUP7 DUP3 DUP8 ADD PUSH2 0x413 JUMP JUMPDEST SWAP4 POP POP PUSH1 0x20 PUSH2 0x519 DUP7 DUP3 DUP8 ADD PUSH2 0x484 JUMP JUMPDEST SWAP3 POP POP PUSH1 0x40 PUSH2 0x52A DUP7 DUP3 DUP8 ADD PUSH2 0x4B0 JUMP JUMPDEST SWAP2 POP POP SWAP3 POP SWAP3 POP SWAP3 JUMP JUMPDEST PUSH1 0x0 DUP2 MLOAD SWAP1 POP SWAP2 SWAP1 POP JUMP JUMPDEST PUSH1 0x0 DUP3 DUP3 MSTORE PUSH1 0x20 DUP3 ADD SWAP1 POP SWAP3 SWAP2 POP POP JUMP JUMPDEST PUSH1 0x0 JUMPDEST DUP4 DUP2 LT ISZERO PUSH2 0x56E JUMPI DUP1 DUP3 ADD MLOAD DUP2 DUP5 ADD MSTORE PUSH1 0x20 DUP2 ADD SWAP1 POP PUSH2 0x553 JUMP JUMPDEST PUSH1 0x0 DUP5 DUP5 ADD MSTORE POP POP POP POP JUMP JUMPDEST PUSH1 0x0 PUSH2 0x585 DUP3 PUSH2 0x534 JUMP JUMPDEST PUSH2 0x58F DUP2 DUP6 PUSH2 0x53F JUMP JUMPDEST SWAP4 POP PUSH2 0x59F DUP2 DUP6 PUSH1 0x20 DUP7 ADD PUSH2 0x550 JUMP JUMPDEST PUSH2 0x5A8 DUP2 PUSH2 0x305 JUMP JUMPDEST DUP5 ADD SWAP2 POP POP SWAP3 SWAP2 POP POP JUMP JUMPDEST PUSH1 0x0 PUSH1 0x20 DUP3 ADD SWAP1 POP DUP2 DUP2 SUB PUSH1 0x0 DUP4 ADD MSTORE PUSH2 0x5CD DUP2 DUP5 PUSH2 0x57A JUMP JUMPDEST SWAP1 POP SWAP3 SWAP2 POP POP JUMP JUMPDEST PUSH2 0x5DE DUP2 PUSH2 0x25D JUMP JUMPDEST DUP2 EQ PUSH2 0x5E9 JUMPI PUSH1 0x0 DUP1 REVERT JUMPDEST POP JUMP JUMPDEST PUSH1 0x0 DUP2 CALLDATALOAD SWAP1 POP PUSH2 0x5FB DUP2 PUSH2 0x5D5 JUMP JUMPDEST SWAP3 SWAP2 POP POP JUMP JUMPDEST PUSH1 0x0 DUP1 PUSH1 0x40 DUP4 DUP6 SUB SLT ISZERO PUSH2 0x618 JUMPI PUSH2 0x617 PUSH2 0x2F1 JUMP JUMPDEST JUMPDEST PUSH1 0x0 PUSH2 0x626 DUP6 DUP3 DUP7 ADD PUSH2 0x5EC JUMP JUMPDEST SWAP3 POP POP PUSH1 0x20 PUSH2 0x637 DUP6 DUP3 DUP7 ADD PUSH2 0x5EC JUMP JUMPDEST SWAP2 POP POP SWAP3 POP SWAP3 SWAP1 POP JUMP JUMPDEST PUSH1 0x0 PUSH1 0x20 DUP3 DUP5 SUB SLT ISZERO PUSH2 0x657 JUMPI PUSH2 0x656 PUSH2 0x2F1 JUMP JUMPDEST JUMPDEST PUSH1 0x0 PUSH2 0x665 DUP5 DUP3 DUP6 ADD PUSH2 0x5EC JUMP JUMPDEST SWAP2 POP POP SWAP3 SWAP2 POP POP JUMP JUMPDEST PUSH2 0x677 DUP2 PUSH2 0x441 JUMP JUMPDEST DUP3 MSTORE POP POP JUMP JUMPDEST PUSH1 0x0 PUSH1 0x20 DUP3 ADD SWAP1 POP PUSH2 0x692 PUSH1 0x0 DUP4 ADD DUP5 PUSH2 0x66E JUMP JUMPDEST SWAP3 SWAP2 POP POP JUMP JUMPDEST PUSH32 0x4E487B7100000000000000000000000000000000000000000000000000000000 PUSH1 0x0 MSTORE PUSH1 0x22 PUSH1 0x4 MSTORE PUSH1 0x24 PUSH1 0x0 REVERT JUMPDEST PUSH1 0x0 PUSH1 0x2 DUP3 DIV SWAP1 POP PUSH1 0x1 DUP3 AND DUP1 PUSH2 0x6DF JUMPI PUSH1 0x7F DUP3 AND SWAP2 POP JUMPDEST PUSH1 0x20 DUP3 LT DUP2 SUB PUSH2 0x6F2 JUMPI PUSH2 0x6F1 PUSH2 0x698 JUMP JUMPDEST JUMPDEST POP SWAP2 SWAP1 POP JUMP JUMPDEST PUSH32 0x4E487B7100000000000000000000000000000000000000000000000000000000 PUSH1 0x0 MSTORE PUSH1 0x32 PUSH1 0x4 MSTORE PUSH1 0x24 PUSH1 0x0 REVERT INVALID LOG2 PUSH5 0x6970667358 0x22 SLT KECCAK256 0xED 0xFB OR MLOAD 0x49 0x5C DIV SWAP13 0x5C 0xF7 0xC7 PUSH14 0x6843A0AADE7EA14729EDA1C174B7 0x21 0x4D 0x4A PUSH31 0x5B4B64736F6C63430008110033000000000000000000000000000000000000 "
				},
				"gasEstimates": {
					"creation": {
						"codeDepositCost": "377000",
						"executionCost": "infinite",
						"totalCost": "infinite"
					},
					"external": {
						"b()": "infinite",
						"b1()": "2537",
						"b2()": "2544",
						"getArrayLength()": "338",
						"numbers(uint256)": "infinite",
						"setBytes(bytes,bytes1,bytes2)": "infinite",
						"setElement(uint256,uint256)": "infinite"
					}
				},
				"methodIdentifiers": {
					"b()": "4df7e3d0",
					"b1()": "ee495002",
					"b2()": "0add6ef2",
					"getArrayLength()": "0849cc99",
					"numbers(uint256)": "d39fa233",
					"setBytes(bytes,bytes1,bytes2)": "13a51869",
					"setElement(uint256,uint256)": "a16e7215"
				}
			},
			"storageLayout": {
				"storage": [
					{
						"astId": 9,
						"contract": "contracts/FixedSizeArrays.sol:FixedSizeArrays",
						"label": "numbers",
						"offset": 0,
						"slot": "0",
						"type": "t_array(t_uint256)3_storage"
					},
					{
						"astId": 34,
						"contract": "contracts/FixedSizeArrays.sol:FixedSizeArrays",
						"label": "b",
						"offset": 0,
						"slot": "3",
						"type": "t_bytes_storage"
					},
					{
						"astId": 36,
						"contract": "contracts/FixedSizeArrays.sol:FixedSizeArrays",
						"label": "b1",
						"offset": 0,
						"slot": "4",
						"type": "t_bytes1"
					},
					{
						"astId": 38,
						"contract": "contracts/FixedSizeArrays.sol:FixedSizeArrays",
						"label": "b2",
						"offset": 1,
						"slot": "4",
						"type": "t_bytes2"
					}
				],
				"types": {
					"t_array(t_uint256)3_storage": {
						"base": "t_uint256",
						"encoding": "inplace",
						"label": "uint256[3]",
						"numberOfBytes": "96"
					},
					"t_bytes1": {
						"encoding": "inplace",
						"label": "bytes1",
						"numberOfBytes": "1"
					},
					"t_bytes2": {
						"encoding": "inplace",
						"label": "bytes2",
						"numberOfBytes": "2"
					},
					"t_bytes_storage": {
						"encoding": "bytes",
						"label": "bytes",
						"numberOfBytes": "32"
					},
					"t_uint256": {
						"encoding": "inplace",
						"label": "uint256",
						"numberOfBytes": "32"
					}
				}
			},
			"userdoc": {
				"kind": "user",
				"methods": {},
				"version": 1
			}
		}
	}
}