{
	"contracts/GlobalSolidityVariables.sol": {
		"GlobalVariables": {
			"abi": [
				{
					"inputs": [],
					"stateMutability": "nonpayable",
					"type": "constructor"
				},
				{
					"inputs": [],
					"name": "blockNumber",
					"outputs": [
						{
							"internalType": "uint256",
							"name": "",
							"type": "uint256"
						}
					],
					"stateMutability": "view",
					"type": "function"
				},
				{
					"inputs": [],
					"name": "chainId",
					"outputs": [
						{
							"internalType": "uint256",
							"name": "",
							"type": "uint256"
						}
					],
					"stateMutability": "view",
					"type": "function"
				},
				{
					"inputs": [],
					"name": "changeOwner",
					"outputs": [],
					"stateMutability": "nonpayable",
					"type": "function"
				},
				{
					"inputs": [],
					"name": "coinBase",
					"outputs": [
						{
							"internalType": "address",
							"name": "",
							"type": "address"
						}
					],
					"stateMutability": "view",
					"type": "function"
				},
				{
					"inputs": [],
					"name": "diffculty",
					"outputs": [
						{
							"internalType": "uint256",
							"name": "",
							"type": "uint256"
						}
					],
					"stateMutability": "view",
					"type": "function"
				},
				{
					"inputs": [],
					"name": "gasLimit",
					"outputs": [
						{
							"internalType": "uint256",
							"name": "",
							"type": "uint256"
						}
					],
					"stateMutability": "view",
					"type": "function"
				},
				{
					"inputs": [],
					"name": "getBalance",
					"outputs": [
						{
							"internalType": "uint256",
							"name": "",
							"type": "uint256"
						}
					],
					"stateMutability": "view",
					"type": "function"
				},
				{
					"inputs": [],
					"name": "howMuchGas",
					"outputs": [
						{
							"internalType": "uint256",
							"name": "",
							"type": "uint256"
						}
					],
					"stateMutability": "view",
					"type": "function"
				},
				{
					"inputs": [],
					"name": "owner",
					"outputs": [
						{
							"internalType": "address",
							"name": "",
							"type": "address"
						}
					],
					"stateMutability": "view",
					"type": "function"
				},
				{
					"inputs": [],
					"name": "sendEther",
					"outputs": [],
					"stateMutability": "payable",
					"type": "function"
				},
				{
					"inputs": [],
					"name": "sentValue",
					"outputs": [
						{
							"internalType": "uint256",
							"name": "",
							"type": "uint256"
						}
					],
					"stateMutability": "view",
					"type": "function"
				},
				{
					"inputs": [],
					"name": "timeNow",
					"outputs": [
						{
							"internalType": "uint256",
							"name": "",
							"type": "uint256"
						}
					],
					"stateMutability": "view",
					"type": "function"
				}
			],
			"devdoc": {
				"kind": "dev",
				"methods": {},
				"version": 1
			},
			"evm": {
				"assembly": "    /* \"contracts/GlobalSolidityVariables.sol\":71:1063  contract GlobalVariables {... */\n  mstore(0x40, 0x80)\n    /* \"contracts/GlobalSolidityVariables.sol\":806:821  block.timestamp */\n  timestamp\n    /* \"contracts/GlobalSolidityVariables.sol\":784:821  uint public timeNow = block.timestamp */\n  0x02\n  sstore\n    /* \"contracts/GlobalSolidityVariables.sol\":865:877  block.number */\n  number\n    /* \"contracts/GlobalSolidityVariables.sol\":839:877  uint public blockNumber = block.number */\n  0x03\n  sstore\n    /* \"contracts/GlobalSolidityVariables.sol\":908:924  block.difficulty */\n  difficulty\n    /* \"contracts/GlobalSolidityVariables.sol\":884:924  uint public diffculty = block.difficulty */\n  0x04\n  sstore\n    /* \"contracts/GlobalSolidityVariables.sol\":954:968  block.gaslimit */\n  gaslimit\n    /* \"contracts/GlobalSolidityVariables.sol\":931:968  uint public gasLimit = block.gaslimit */\n  0x05\n  sstore\n    /* \"contracts/GlobalSolidityVariables.sol\":1001:1015  block.coinbase */\n  coinbase\n    /* \"contracts/GlobalSolidityVariables.sol\":975:1015  address public coinBase = block.coinbase */\n  0x06\n  exp(0x0100, 0x00)\n  dup2\n  sload\n  dup2\n  0xffffffffffffffffffffffffffffffffffffffff\n  mul\n  not\n  and\n  swap1\n  dup4\n  0xffffffffffffffffffffffffffffffffffffffff\n  and\n  mul\n  or\n  swap1\n  sstore\n  pop\n    /* \"contracts/GlobalSolidityVariables.sol\":1044:1057  block.basefee */\n  basefee\n    /* \"contracts/GlobalSolidityVariables.sol\":1022:1057  uint public chainId = block.basefee */\n  0x07\n  sstore\n    /* \"contracts/GlobalSolidityVariables.sol\":160:211  constructor() {... */\n  callvalue\n  dup1\n  iszero\n  tag_1\n  jumpi\n  0x00\n  dup1\n  revert\ntag_1:\n  pop\n    /* \"contracts/GlobalSolidityVariables.sol\":193:203  msg.sender */\n  caller\n    /* \"contracts/GlobalSolidityVariables.sol\":185:190  owner */\n  0x00\n  dup1\n    /* \"contracts/GlobalSolidityVariables.sol\":185:203  owner = msg.sender */\n  0x0100\n  exp\n  dup2\n  sload\n  dup2\n  0xffffffffffffffffffffffffffffffffffffffff\n  mul\n  not\n  and\n  swap1\n  dup4\n  0xffffffffffffffffffffffffffffffffffffffff\n  and\n  mul\n  or\n  swap1\n  sstore\n  pop\n    /* \"contracts/GlobalSolidityVariables.sol\":71:1063  contract GlobalVariables {... */\n  dataSize(sub_0)\n  dup1\n  dataOffset(sub_0)\n  0x00\n  codecopy\n  0x00\n  return\nstop\n\nsub_0: assembly {\n        /* \"contracts/GlobalSolidityVariables.sol\":71:1063  contract GlobalVariables {... */\n      mstore(0x40, 0x80)\n      jumpi(tag_1, lt(calldatasize, 0x04))\n      shr(0xe0, calldataload(0x00))\n      dup1\n      0x6dcb8d84\n      gt\n      tag_14\n      jumpi\n      dup1\n      0x6dcb8d84\n      eq\n      tag_8\n      jumpi\n      dup1\n      0x8da5cb5b\n      eq\n      tag_9\n      jumpi\n      dup1\n      0x997b3d83\n      eq\n      tag_10\n      jumpi\n      dup1\n      0x9a8a0592\n      eq\n      tag_11\n      jumpi\n      dup1\n      0xd95660be\n      eq\n      tag_12\n      jumpi\n      dup1\n      0xf68016b7\n      eq\n      tag_13\n      jumpi\n      jump(tag_1)\n    tag_14:\n      dup1\n      0x0e29df22\n      eq\n      tag_2\n      jumpi\n      dup1\n      0x12065fe0\n      eq\n      tag_3\n      jumpi\n      dup1\n      0x220907f6\n      eq\n      tag_4\n      jumpi\n      dup1\n      0x4826c2be\n      eq\n      tag_5\n      jumpi\n      dup1\n      0x57e871e7\n      eq\n      tag_6\n      jumpi\n      dup1\n      0x62a09477\n      eq\n      tag_7\n      jumpi\n    tag_1:\n      0x00\n      dup1\n      revert\n        /* \"contracts/GlobalSolidityVariables.sol\":335:411  function sendEther() public payable {... */\n    tag_2:\n      tag_15\n      tag_16\n      jump\t// in\n    tag_15:\n      stop\n        /* \"contracts/GlobalSolidityVariables.sol\":419:514  function getBalance() public view returns(uint) {... */\n    tag_3:\n      callvalue\n      dup1\n      iszero\n      tag_17\n      jumpi\n      0x00\n      dup1\n      revert\n    tag_17:\n      pop\n      tag_18\n      tag_19\n      jump\t// in\n    tag_18:\n      mload(0x40)\n      tag_20\n      swap2\n      swap1\n      tag_21\n      jump\t// in\n    tag_20:\n      mload(0x40)\n      dup1\n      swap2\n      sub\n      swap1\n      return\n        /* \"contracts/GlobalSolidityVariables.sol\":884:924  uint public diffculty = block.difficulty */\n    tag_4:\n      callvalue\n      dup1\n      iszero\n      tag_22\n      jumpi\n      0x00\n      dup1\n      revert\n    tag_22:\n      pop\n      tag_23\n      tag_24\n      jump\t// in\n    tag_23:\n      mload(0x40)\n      tag_25\n      swap2\n      swap1\n      tag_21\n      jump\t// in\n    tag_25:\n      mload(0x40)\n      dup1\n      swap2\n      sub\n      swap1\n      return\n        /* \"contracts/GlobalSolidityVariables.sol\":975:1015  address public coinBase = block.coinbase */\n    tag_5:\n      callvalue\n      dup1\n      iszero\n      tag_26\n      jumpi\n      0x00\n      dup1\n      revert\n    tag_26:\n      pop\n      tag_27\n      tag_28\n      jump\t// in\n    tag_27:\n      mload(0x40)\n      tag_29\n      swap2\n      swap1\n      tag_30\n      jump\t// in\n    tag_29:\n      mload(0x40)\n      dup1\n      swap2\n      sub\n      swap1\n      return\n        /* \"contracts/GlobalSolidityVariables.sol\":839:877  uint public blockNumber = block.number */\n    tag_6:\n      callvalue\n      dup1\n      iszero\n      tag_31\n      jumpi\n      0x00\n      dup1\n      revert\n    tag_31:\n      pop\n      tag_32\n      tag_33\n      jump\t// in\n    tag_32:\n      mload(0x40)\n      tag_34\n      swap2\n      swap1\n      tag_21\n      jump\t// in\n    tag_34:\n      mload(0x40)\n      dup1\n      swap2\n      sub\n      swap1\n      return\n        /* \"contracts/GlobalSolidityVariables.sol\":260:327  function changeOwner() public {... */\n    tag_7:\n      callvalue\n      dup1\n      iszero\n      tag_35\n      jumpi\n      0x00\n      dup1\n      revert\n    tag_35:\n      pop\n      tag_36\n      tag_37\n      jump\t// in\n    tag_36:\n      stop\n        /* \"contracts/GlobalSolidityVariables.sol\":130:151  uint public sentValue */\n    tag_8:\n      callvalue\n      dup1\n      iszero\n      tag_38\n      jumpi\n      0x00\n      dup1\n      revert\n    tag_38:\n      pop\n      tag_39\n      tag_40\n      jump\t// in\n    tag_39:\n      mload(0x40)\n      tag_41\n      swap2\n      swap1\n      tag_21\n      jump\t// in\n    tag_41:\n      mload(0x40)\n      dup1\n      swap2\n      sub\n      swap1\n      return\n        /* \"contracts/GlobalSolidityVariables.sol\":103:123  address public owner */\n    tag_9:\n      callvalue\n      dup1\n      iszero\n      tag_42\n      jumpi\n      0x00\n      dup1\n      revert\n    tag_42:\n      pop\n      tag_43\n      tag_44\n      jump\t// in\n    tag_43:\n      mload(0x40)\n      tag_45\n      swap2\n      swap1\n      tag_30\n      jump\t// in\n    tag_45:\n      mload(0x40)\n      dup1\n      swap2\n      sub\n      swap1\n      return\n        /* \"contracts/GlobalSolidityVariables.sol\":522:776  function howMuchGas() public view returns(uint) {... */\n    tag_10:\n      callvalue\n      dup1\n      iszero\n      tag_46\n      jumpi\n      0x00\n      dup1\n      revert\n    tag_46:\n      pop\n      tag_47\n      tag_48\n      jump\t// in\n    tag_47:\n      mload(0x40)\n      tag_49\n      swap2\n      swap1\n      tag_21\n      jump\t// in\n    tag_49:\n      mload(0x40)\n      dup1\n      swap2\n      sub\n      swap1\n      return\n        /* \"contracts/GlobalSolidityVariables.sol\":1022:1057  uint public chainId = block.basefee */\n    tag_11:\n      callvalue\n      dup1\n      iszero\n      tag_50\n      jumpi\n      0x00\n      dup1\n      revert\n    tag_50:\n      pop\n      tag_51\n      tag_52\n      jump\t// in\n    tag_51:\n      mload(0x40)\n      tag_53\n      swap2\n      swap1\n      tag_21\n      jump\t// in\n    tag_53:\n      mload(0x40)\n      dup1\n      swap2\n      sub\n      swap1\n      return\n        /* \"contracts/GlobalSolidityVariables.sol\":784:821  uint public timeNow = block.timestamp */\n    tag_12:\n      callvalue\n      dup1\n      iszero\n      tag_54\n      jumpi\n      0x00\n      dup1\n      revert\n    tag_54:\n      pop\n      tag_55\n      tag_56\n      jump\t// in\n    tag_55:\n      mload(0x40)\n      tag_57\n      swap2\n      swap1\n      tag_21\n      jump\t// in\n    tag_57:\n      mload(0x40)\n      dup1\n      swap2\n      sub\n      swap1\n      return\n        /* \"contracts/GlobalSolidityVariables.sol\":931:968  uint public gasLimit = block.gaslimit */\n    tag_13:\n      callvalue\n      dup1\n      iszero\n      tag_58\n      jumpi\n      0x00\n      dup1\n      revert\n    tag_58:\n      pop\n      tag_59\n      tag_60\n      jump\t// in\n    tag_59:\n      mload(0x40)\n      tag_61\n      swap2\n      swap1\n      tag_21\n      jump\t// in\n    tag_61:\n      mload(0x40)\n      dup1\n      swap2\n      sub\n      swap1\n      return\n        /* \"contracts/GlobalSolidityVariables.sol\":335:411  function sendEther() public payable {... */\n    tag_16:\n        /* \"contracts/GlobalSolidityVariables.sol\":394:403  msg.value */\n      callvalue\n        /* \"contracts/GlobalSolidityVariables.sol\":382:391  sentValue */\n      0x01\n        /* \"contracts/GlobalSolidityVariables.sol\":382:403  sentValue = msg.value */\n      dup2\n      swap1\n      sstore\n      pop\n        /* \"contracts/GlobalSolidityVariables.sol\":335:411  function sendEther() public payable {... */\n      jump\t// out\n        /* \"contracts/GlobalSolidityVariables.sol\":419:514  function getBalance() public view returns(uint) {... */\n    tag_19:\n        /* \"contracts/GlobalSolidityVariables.sol\":461:465  uint */\n      0x00\n        /* \"contracts/GlobalSolidityVariables.sol\":485:506  address(this).balance */\n      selfbalance\n        /* \"contracts/GlobalSolidityVariables.sol\":478:506  return address(this).balance */\n      swap1\n      pop\n        /* \"contracts/GlobalSolidityVariables.sol\":419:514  function getBalance() public view returns(uint) {... */\n      swap1\n      jump\t// out\n        /* \"contracts/GlobalSolidityVariables.sol\":884:924  uint public diffculty = block.difficulty */\n    tag_24:\n      sload(0x04)\n      dup2\n      jump\t// out\n        /* \"contracts/GlobalSolidityVariables.sol\":975:1015  address public coinBase = block.coinbase */\n    tag_28:\n      0x06\n      0x00\n      swap1\n      sload\n      swap1\n      0x0100\n      exp\n      swap1\n      div\n      0xffffffffffffffffffffffffffffffffffffffff\n      and\n      dup2\n      jump\t// out\n        /* \"contracts/GlobalSolidityVariables.sol\":839:877  uint public blockNumber = block.number */\n    tag_33:\n      sload(0x03)\n      dup2\n      jump\t// out\n        /* \"contracts/GlobalSolidityVariables.sol\":260:327  function changeOwner() public {... */\n    tag_37:\n        /* \"contracts/GlobalSolidityVariables.sol\":309:319  msg.sender */\n      caller\n        /* \"contracts/GlobalSolidityVariables.sol\":301:306  owner */\n      0x00\n      dup1\n        /* \"contracts/GlobalSolidityVariables.sol\":301:319  owner = msg.sender */\n      0x0100\n      exp\n      dup2\n      sload\n      dup2\n      0xffffffffffffffffffffffffffffffffffffffff\n      mul\n      not\n      and\n      swap1\n      dup4\n      0xffffffffffffffffffffffffffffffffffffffff\n      and\n      mul\n      or\n      swap1\n      sstore\n      pop\n        /* \"contracts/GlobalSolidityVariables.sol\":260:327  function changeOwner() public {... */\n      jump\t// out\n        /* \"contracts/GlobalSolidityVariables.sol\":130:151  uint public sentValue */\n    tag_40:\n      sload(0x01)\n      dup2\n      jump\t// out\n        /* \"contracts/GlobalSolidityVariables.sol\":103:123  address public owner */\n    tag_44:\n      0x00\n      dup1\n      sload\n      swap1\n      0x0100\n      exp\n      swap1\n      div\n      0xffffffffffffffffffffffffffffffffffffffff\n      and\n      dup2\n      jump\t// out\n        /* \"contracts/GlobalSolidityVariables.sol\":522:776  function howMuchGas() public view returns(uint) {... */\n    tag_48:\n        /* \"contracts/GlobalSolidityVariables.sol\":564:568  uint */\n      0x00\n        /* \"contracts/GlobalSolidityVariables.sol\":581:591  uint start */\n      dup1\n        /* \"contracts/GlobalSolidityVariables.sol\":594:603  gasleft() */\n      gas\n        /* \"contracts/GlobalSolidityVariables.sol\":581:603  uint start = gasleft() */\n      swap1\n      pop\n        /* \"contracts/GlobalSolidityVariables.sol\":614:620  uint j */\n      0x00\n        /* \"contracts/GlobalSolidityVariables.sol\":623:624  1 */\n      0x01\n        /* \"contracts/GlobalSolidityVariables.sol\":614:624  uint j = 1 */\n      swap1\n      pop\n        /* \"contracts/GlobalSolidityVariables.sol\":649:655  uint i */\n      0x00\n        /* \"contracts/GlobalSolidityVariables.sol\":658:659  1 */\n      0x01\n        /* \"contracts/GlobalSolidityVariables.sol\":649:659  uint i = 1 */\n      swap1\n      pop\n        /* \"contracts/GlobalSolidityVariables.sol\":645:707  for(uint i = 1; i < 20; i++) {... */\n    tag_66:\n        /* \"contracts/GlobalSolidityVariables.sol\":665:667  20 */\n      0x14\n        /* \"contracts/GlobalSolidityVariables.sol\":661:662  i */\n      dup2\n        /* \"contracts/GlobalSolidityVariables.sol\":661:667  i < 20 */\n      lt\n        /* \"contracts/GlobalSolidityVariables.sol\":645:707  for(uint i = 1; i < 20; i++) {... */\n      iszero\n      tag_67\n      jumpi\n        /* \"contracts/GlobalSolidityVariables.sol\":694:695  i */\n      dup1\n        /* \"contracts/GlobalSolidityVariables.sol\":689:695  j *= i */\n      dup3\n      tag_69\n      swap2\n      swap1\n      tag_70\n      jump\t// in\n    tag_69:\n      swap2\n      pop\n        /* \"contracts/GlobalSolidityVariables.sol\":669:672  i++ */\n      dup1\n      dup1\n      tag_71\n      swap1\n      tag_72\n      jump\t// in\n    tag_71:\n      swap2\n      pop\n      pop\n        /* \"contracts/GlobalSolidityVariables.sol\":645:707  for(uint i = 1; i < 20; i++) {... */\n      jump(tag_66)\n    tag_67:\n      pop\n        /* \"contracts/GlobalSolidityVariables.sol\":719:727  uint end */\n      0x00\n        /* \"contracts/GlobalSolidityVariables.sol\":730:739  gasleft() */\n      gas\n        /* \"contracts/GlobalSolidityVariables.sol\":719:739  uint end = gasleft() */\n      swap1\n      pop\n        /* \"contracts/GlobalSolidityVariables.sol\":765:768  end */\n      dup1\n        /* \"contracts/GlobalSolidityVariables.sol\":757:762  start */\n      dup4\n        /* \"contracts/GlobalSolidityVariables.sol\":757:768  start - end */\n      tag_73\n      swap2\n      swap1\n      tag_74\n      jump\t// in\n    tag_73:\n        /* \"contracts/GlobalSolidityVariables.sol\":750:768  return start - end */\n      swap4\n      pop\n      pop\n      pop\n      pop\n        /* \"contracts/GlobalSolidityVariables.sol\":522:776  function howMuchGas() public view returns(uint) {... */\n      swap1\n      jump\t// out\n        /* \"contracts/GlobalSolidityVariables.sol\":1022:1057  uint public chainId = block.basefee */\n    tag_52:\n      sload(0x07)\n      dup2\n      jump\t// out\n        /* \"contracts/GlobalSolidityVariables.sol\":784:821  uint public timeNow = block.timestamp */\n    tag_56:\n      sload(0x02)\n      dup2\n      jump\t// out\n        /* \"contracts/GlobalSolidityVariables.sol\":931:968  uint public gasLimit = block.gaslimit */\n    tag_60:\n      sload(0x05)\n      dup2\n      jump\t// out\n        /* \"#utility.yul\":7:84   */\n    tag_75:\n        /* \"#utility.yul\":44:51   */\n      0x00\n        /* \"#utility.yul\":73:78   */\n      dup2\n        /* \"#utility.yul\":62:78   */\n      swap1\n      pop\n        /* \"#utility.yul\":7:84   */\n      swap2\n      swap1\n      pop\n      jump\t// out\n        /* \"#utility.yul\":90:208   */\n    tag_76:\n        /* \"#utility.yul\":177:201   */\n      tag_84\n        /* \"#utility.yul\":195:200   */\n      dup2\n        /* \"#utility.yul\":177:201   */\n      tag_75\n      jump\t// in\n    tag_84:\n        /* \"#utility.yul\":172:175   */\n      dup3\n        /* \"#utility.yul\":165:202   */\n      mstore\n        /* \"#utility.yul\":90:208   */\n      pop\n      pop\n      jump\t// out\n        /* \"#utility.yul\":214:436   */\n    tag_21:\n        /* \"#utility.yul\":307:311   */\n      0x00\n        /* \"#utility.yul\":345:347   */\n      0x20\n        /* \"#utility.yul\":334:343   */\n      dup3\n        /* \"#utility.yul\":330:348   */\n      add\n        /* \"#utility.yul\":322:348   */\n      swap1\n      pop\n        /* \"#utility.yul\":358:429   */\n      tag_86\n        /* \"#utility.yul\":426:427   */\n      0x00\n        /* \"#utility.yul\":415:424   */\n      dup4\n        /* \"#utility.yul\":411:428   */\n      add\n        /* \"#utility.yul\":402:408   */\n      dup5\n        /* \"#utility.yul\":358:429   */\n      tag_76\n      jump\t// in\n    tag_86:\n        /* \"#utility.yul\":214:436   */\n      swap3\n      swap2\n      pop\n      pop\n      jump\t// out\n        /* \"#utility.yul\":442:568   */\n    tag_77:\n        /* \"#utility.yul\":479:486   */\n      0x00\n        /* \"#utility.yul\":519:561   */\n      0xffffffffffffffffffffffffffffffffffffffff\n        /* \"#utility.yul\":512:517   */\n      dup3\n        /* \"#utility.yul\":508:562   */\n      and\n        /* \"#utility.yul\":497:562   */\n      swap1\n      pop\n        /* \"#utility.yul\":442:568   */\n      swap2\n      swap1\n      pop\n      jump\t// out\n        /* \"#utility.yul\":574:670   */\n    tag_78:\n        /* \"#utility.yul\":611:618   */\n      0x00\n        /* \"#utility.yul\":640:664   */\n      tag_89\n        /* \"#utility.yul\":658:663   */\n      dup3\n        /* \"#utility.yul\":640:664   */\n      tag_77\n      jump\t// in\n    tag_89:\n        /* \"#utility.yul\":629:664   */\n      swap1\n      pop\n        /* \"#utility.yul\":574:670   */\n      swap2\n      swap1\n      pop\n      jump\t// out\n        /* \"#utility.yul\":676:794   */\n    tag_79:\n        /* \"#utility.yul\":763:787   */\n      tag_91\n        /* \"#utility.yul\":781:786   */\n      dup2\n        /* \"#utility.yul\":763:787   */\n      tag_78\n      jump\t// in\n    tag_91:\n        /* \"#utility.yul\":758:761   */\n      dup3\n        /* \"#utility.yul\":751:788   */\n      mstore\n        /* \"#utility.yul\":676:794   */\n      pop\n      pop\n      jump\t// out\n        /* \"#utility.yul\":800:1022   */\n    tag_30:\n        /* \"#utility.yul\":893:897   */\n      0x00\n        /* \"#utility.yul\":931:933   */\n      0x20\n        /* \"#utility.yul\":920:929   */\n      dup3\n        /* \"#utility.yul\":916:934   */\n      add\n        /* \"#utility.yul\":908:934   */\n      swap1\n      pop\n        /* \"#utility.yul\":944:1015   */\n      tag_93\n        /* \"#utility.yul\":1012:1013   */\n      0x00\n        /* \"#utility.yul\":1001:1010   */\n      dup4\n        /* \"#utility.yul\":997:1014   */\n      add\n        /* \"#utility.yul\":988:994   */\n      dup5\n        /* \"#utility.yul\":944:1015   */\n      tag_79\n      jump\t// in\n    tag_93:\n        /* \"#utility.yul\":800:1022   */\n      swap3\n      swap2\n      pop\n      pop\n      jump\t// out\n        /* \"#utility.yul\":1028:1208   */\n    tag_80:\n        /* \"#utility.yul\":1076:1153   */\n      0x4e487b7100000000000000000000000000000000000000000000000000000000\n        /* \"#utility.yul\":1073:1074   */\n      0x00\n        /* \"#utility.yul\":1066:1154   */\n      mstore\n        /* \"#utility.yul\":1173:1177   */\n      0x11\n        /* \"#utility.yul\":1170:1171   */\n      0x04\n        /* \"#utility.yul\":1163:1178   */\n      mstore\n        /* \"#utility.yul\":1197:1201   */\n      0x24\n        /* \"#utility.yul\":1194:1195   */\n      0x00\n        /* \"#utility.yul\":1187:1202   */\n      revert\n        /* \"#utility.yul\":1214:1624   */\n    tag_70:\n        /* \"#utility.yul\":1254:1261   */\n      0x00\n        /* \"#utility.yul\":1277:1297   */\n      tag_96\n        /* \"#utility.yul\":1295:1296   */\n      dup3\n        /* \"#utility.yul\":1277:1297   */\n      tag_75\n      jump\t// in\n    tag_96:\n        /* \"#utility.yul\":1272:1297   */\n      swap2\n      pop\n        /* \"#utility.yul\":1311:1331   */\n      tag_97\n        /* \"#utility.yul\":1329:1330   */\n      dup4\n        /* \"#utility.yul\":1311:1331   */\n      tag_75\n      jump\t// in\n    tag_97:\n        /* \"#utility.yul\":1306:1331   */\n      swap3\n      pop\n        /* \"#utility.yul\":1366:1367   */\n      dup3\n        /* \"#utility.yul\":1363:1364   */\n      dup3\n        /* \"#utility.yul\":1359:1368   */\n      mul\n        /* \"#utility.yul\":1388:1418   */\n      tag_98\n        /* \"#utility.yul\":1406:1417   */\n      dup2\n        /* \"#utility.yul\":1388:1418   */\n      tag_75\n      jump\t// in\n    tag_98:\n        /* \"#utility.yul\":1377:1418   */\n      swap2\n      pop\n        /* \"#utility.yul\":1567:1568   */\n      dup3\n        /* \"#utility.yul\":1558:1565   */\n      dup3\n        /* \"#utility.yul\":1554:1569   */\n      div\n        /* \"#utility.yul\":1551:1552   */\n      dup5\n        /* \"#utility.yul\":1548:1570   */\n      eq\n        /* \"#utility.yul\":1528:1529   */\n      dup4\n        /* \"#utility.yul\":1521:1530   */\n      iszero\n        /* \"#utility.yul\":1501:1584   */\n      or\n        /* \"#utility.yul\":1478:1617   */\n      tag_99\n      jumpi\n        /* \"#utility.yul\":1597:1615   */\n      tag_100\n      tag_80\n      jump\t// in\n    tag_100:\n        /* \"#utility.yul\":1478:1617   */\n    tag_99:\n        /* \"#utility.yul\":1262:1624   */\n      pop\n        /* \"#utility.yul\":1214:1624   */\n      swap3\n      swap2\n      pop\n      pop\n      jump\t// out\n        /* \"#utility.yul\":1630:1863   */\n    tag_72:\n        /* \"#utility.yul\":1669:1672   */\n      0x00\n        /* \"#utility.yul\":1692:1716   */\n      tag_102\n        /* \"#utility.yul\":1710:1715   */\n      dup3\n        /* \"#utility.yul\":1692:1716   */\n      tag_75\n      jump\t// in\n    tag_102:\n        /* \"#utility.yul\":1683:1716   */\n      swap2\n      pop\n        /* \"#utility.yul\":1738:1804   */\n      0xffffffffffffffffffffffffffffffffffffffffffffffffffffffffffffffff\n        /* \"#utility.yul\":1731:1736   */\n      dup3\n        /* \"#utility.yul\":1728:1805   */\n      sub\n        /* \"#utility.yul\":1725:1828   */\n      tag_103\n      jumpi\n        /* \"#utility.yul\":1808:1826   */\n      tag_104\n      tag_80\n      jump\t// in\n    tag_104:\n        /* \"#utility.yul\":1725:1828   */\n    tag_103:\n        /* \"#utility.yul\":1855:1856   */\n      0x01\n        /* \"#utility.yul\":1848:1853   */\n      dup3\n        /* \"#utility.yul\":1844:1857   */\n      add\n        /* \"#utility.yul\":1837:1857   */\n      swap1\n      pop\n        /* \"#utility.yul\":1630:1863   */\n      swap2\n      swap1\n      pop\n      jump\t// out\n        /* \"#utility.yul\":1869:2063   */\n    tag_74:\n        /* \"#utility.yul\":1909:1913   */\n      0x00\n        /* \"#utility.yul\":1929:1949   */\n      tag_106\n        /* \"#utility.yul\":1947:1948   */\n      dup3\n        /* \"#utility.yul\":1929:1949   */\n      tag_75\n      jump\t// in\n    tag_106:\n        /* \"#utility.yul\":1924:1949   */\n      swap2\n      pop\n        /* \"#utility.yul\":1963:1983   */\n      tag_107\n        /* \"#utility.yul\":1981:1982   */\n      dup4\n        /* \"#utility.yul\":1963:1983   */\n      tag_75\n      jump\t// in\n    tag_107:\n        /* \"#utility.yul\":1958:1983   */\n      swap3\n      pop\n        /* \"#utility.yul\":2007:2008   */\n      dup3\n        /* \"#utility.yul\":2004:2005   */\n      dup3\n        /* \"#utility.yul\":2000:2009   */\n      sub\n        /* \"#utility.yul\":1992:2009   */\n      swap1\n      pop\n        /* \"#utility.yul\":2031:2032   */\n      dup2\n        /* \"#utility.yul\":2025:2029   */\n      dup2\n        /* \"#utility.yul\":2022:2033   */\n      gt\n        /* \"#utility.yul\":2019:2056   */\n      iszero\n      tag_108\n      jumpi\n        /* \"#utility.yul\":2036:2054   */\n      tag_109\n      tag_80\n      jump\t// in\n    tag_109:\n        /* \"#utility.yul\":2019:2056   */\n    tag_108:\n        /* \"#utility.yul\":1869:2063   */\n      swap3\n      swap2\n      pop\n      pop\n      jump\t// out\n\n    auxdata: 0xa2646970667358221220646d60faf80d37f918b026405e6dab938da4bc7ff5a7b788777cea4b01578e7564736f6c63430008110033\n}\n",
				"bytecode": {
					"linkReferences": {},
					"object": "60806040524260025543600355446004554560055541600660006101000a81548173ffffffffffffffffffffffffffffffffffffffff021916908373ffffffffffffffffffffffffffffffffffffffff1602179055504860075534801561006557600080fd5b50336000806101000a81548173ffffffffffffffffffffffffffffffffffffffff021916908373ffffffffffffffffffffffffffffffffffffffff160217905550610546806100b56000396000f3fe6080604052600436106100a75760003560e01c80636dcb8d84116100645780636dcb8d84146101795780638da5cb5b146101a4578063997b3d83146101cf5780639a8a0592146101fa578063d95660be14610225578063f68016b714610250576100a7565b80630e29df22146100ac57806312065fe0146100b6578063220907f6146100e15780634826c2be1461010c57806357e871e71461013757806362a0947714610162575b600080fd5b6100b461027b565b005b3480156100c257600080fd5b506100cb610284565b6040516100d891906103ac565b60405180910390f35b3480156100ed57600080fd5b506100f661028c565b60405161010391906103ac565b60405180910390f35b34801561011857600080fd5b50610121610292565b60405161012e9190610408565b60405180910390f35b34801561014357600080fd5b5061014c6102b8565b60405161015991906103ac565b60405180910390f35b34801561016e57600080fd5b506101776102be565b005b34801561018557600080fd5b5061018e610300565b60405161019b91906103ac565b60405180910390f35b3480156101b057600080fd5b506101b9610306565b6040516101c69190610408565b60405180910390f35b3480156101db57600080fd5b506101e461032a565b6040516101f191906103ac565b60405180910390f35b34801561020657600080fd5b5061020f610381565b60405161021c91906103ac565b60405180910390f35b34801561023157600080fd5b5061023a610387565b60405161024791906103ac565b60405180910390f35b34801561025c57600080fd5b5061026561038d565b60405161027291906103ac565b60405180910390f35b34600181905550565b600047905090565b60045481565b600660009054906101000a900473ffffffffffffffffffffffffffffffffffffffff1681565b60035481565b336000806101000a81548173ffffffffffffffffffffffffffffffffffffffff021916908373ffffffffffffffffffffffffffffffffffffffff160217905550565b60015481565b60008054906101000a900473ffffffffffffffffffffffffffffffffffffffff1681565b6000805a90506000600190506000600190505b60148110156103675780826103529190610452565b9150808061035f90610494565b91505061033d565b5060005a9050808361037991906104dc565b935050505090565b60075481565b60025481565b60055481565b6000819050919050565b6103a681610393565b82525050565b60006020820190506103c1600083018461039d565b92915050565b600073ffffffffffffffffffffffffffffffffffffffff82169050919050565b60006103f2826103c7565b9050919050565b610402816103e7565b82525050565b600060208201905061041d60008301846103f9565b92915050565b7f4e487b7100000000000000000000000000000000000000000000000000000000600052601160045260246000fd5b600061045d82610393565b915061046883610393565b925082820261047681610393565b9150828204841483151761048d5761048c610423565b5b5092915050565b600061049f82610393565b91507fffffffffffffffffffffffffffffffffffffffffffffffffffffffffffffffff82036104d1576104d0610423565b5b600182019050919050565b60006104e782610393565b91506104f283610393565b925082820390508181111561050a57610509610423565b5b9291505056fea2646970667358221220646d60faf80d37f918b026405e6dab938da4bc7ff5a7b788777cea4b01578e7564736f6c63430008110033",
					"opcodes": "PUSH1 0x80 PUSH1 0x40 MSTORE TIMESTAMP PUSH1 0x2 SSTORE NUMBER PUSH1 0x3 SSTORE DIFFICULTY PUSH1 0x4 SSTORE GASLIMIT PUSH1 0x5 SSTORE COINBASE PUSH1 0x6 PUSH1 0x0 PUSH2 0x100 EXP DUP2 SLOAD DUP2 PUSH20 0xFFFFFFFFFFFFFFFFFFFFFFFFFFFFFFFFFFFFFFFF MUL NOT AND SWAP1 DUP4 PUSH20 0xFFFFFFFFFFFFFFFFFFFFFFFFFFFFFFFFFFFFFFFF AND MUL OR SWAP1 SSTORE POP BASEFEE PUSH1 0x7 SSTORE CALLVALUE DUP1 ISZERO PUSH2 0x65 JUMPI PUSH1 0x0 DUP1 REVERT JUMPDEST POP CALLER PUSH1 0x0 DUP1 PUSH2 0x100 EXP DUP2 SLOAD DUP2 PUSH20 0xFFFFFFFFFFFFFFFFFFFFFFFFFFFFFFFFFFFFFFFF MUL NOT AND SWAP1 DUP4 PUSH20 0xFFFFFFFFFFFFFFFFFFFFFFFFFFFFFFFFFFFFFFFF AND MUL OR SWAP1 SSTORE POP PUSH2 0x546 DUP1 PUSH2 0xB5 PUSH1 0x0 CODECOPY PUSH1 0x0 RETURN INVALID PUSH1 0x80 PUSH1 0x40 MSTORE PUSH1 0x4 CALLDATASIZE LT PUSH2 0xA7 JUMPI PUSH1 0x0 CALLDATALOAD PUSH1 0xE0 SHR DUP1 PUSH4 0x6DCB8D84 GT PUSH2 0x64 JUMPI DUP1 PUSH4 0x6DCB8D84 EQ PUSH2 0x179 JUMPI DUP1 PUSH4 0x8DA5CB5B EQ PUSH2 0x1A4 JUMPI DUP1 PUSH4 0x997B3D83 EQ PUSH2 0x1CF JUMPI DUP1 PUSH4 0x9A8A0592 EQ PUSH2 0x1FA JUMPI DUP1 PUSH4 0xD95660BE EQ PUSH2 0x225 JUMPI DUP1 PUSH4 0xF68016B7 EQ PUSH2 0x250 JUMPI PUSH2 0xA7 JUMP JUMPDEST DUP1 PUSH4 0xE29DF22 EQ PUSH2 0xAC JUMPI DUP1 PUSH4 0x12065FE0 EQ PUSH2 0xB6 JUMPI DUP1 PUSH4 0x220907F6 EQ PUSH2 0xE1 JUMPI DUP1 PUSH4 0x4826C2BE EQ PUSH2 0x10C JUMPI DUP1 PUSH4 0x57E871E7 EQ PUSH2 0x137 JUMPI DUP1 PUSH4 0x62A09477 EQ PUSH2 0x162 JUMPI JUMPDEST PUSH1 0x0 DUP1 REVERT JUMPDEST PUSH2 0xB4 PUSH2 0x27B JUMP JUMPDEST STOP JUMPDEST CALLVALUE DUP1 ISZERO PUSH2 0xC2 JUMPI PUSH1 0x0 DUP1 REVERT JUMPDEST POP PUSH2 0xCB PUSH2 0x284 JUMP JUMPDEST PUSH1 0x40 MLOAD PUSH2 0xD8 SWAP2 SWAP1 PUSH2 0x3AC JUMP JUMPDEST PUSH1 0x40 MLOAD DUP1 SWAP2 SUB SWAP1 RETURN JUMPDEST CALLVALUE DUP1 ISZERO PUSH2 0xED JUMPI PUSH1 0x0 DUP1 REVERT JUMPDEST POP PUSH2 0xF6 PUSH2 0x28C JUMP JUMPDEST PUSH1 0x40 MLOAD PUSH2 0x103 SWAP2 SWAP1 PUSH2 0x3AC JUMP JUMPDEST PUSH1 0x40 MLOAD DUP1 SWAP2 SUB SWAP1 RETURN JUMPDEST CALLVALUE DUP1 ISZERO PUSH2 0x118 JUMPI PUSH1 0x0 DUP1 REVERT JUMPDEST POP PUSH2 0x121 PUSH2 0x292 JUMP JUMPDEST PUSH1 0x40 MLOAD PUSH2 0x12E SWAP2 SWAP1 PUSH2 0x408 JUMP JUMPDEST PUSH1 0x40 MLOAD DUP1 SWAP2 SUB SWAP1 RETURN JUMPDEST CALLVALUE DUP1 ISZERO PUSH2 0x143 JUMPI PUSH1 0x0 DUP1 REVERT JUMPDEST POP PUSH2 0x14C PUSH2 0x2B8 JUMP JUMPDEST PUSH1 0x40 MLOAD PUSH2 0x159 SWAP2 SWAP1 PUSH2 0x3AC JUMP JUMPDEST PUSH1 0x40 MLOAD DUP1 SWAP2 SUB SWAP1 RETURN JUMPDEST CALLVALUE DUP1 ISZERO PUSH2 0x16E JUMPI PUSH1 0x0 DUP1 REVERT JUMPDEST POP PUSH2 0x177 PUSH2 0x2BE JUMP JUMPDEST STOP JUMPDEST CALLVALUE DUP1 ISZERO PUSH2 0x185 JUMPI PUSH1 0x0 DUP1 REVERT JUMPDEST POP PUSH2 0x18E PUSH2 0x300 JUMP JUMPDEST PUSH1 0x40 MLOAD PUSH2 0x19B SWAP2 SWAP1 PUSH2 0x3AC JUMP JUMPDEST PUSH1 0x40 MLOAD DUP1 SWAP2 SUB SWAP1 RETURN JUMPDEST CALLVALUE DUP1 ISZERO PUSH2 0x1B0 JUMPI PUSH1 0x0 DUP1 REVERT JUMPDEST POP PUSH2 0x1B9 PUSH2 0x306 JUMP JUMPDEST PUSH1 0x40 MLOAD PUSH2 0x1C6 SWAP2 SWAP1 PUSH2 0x408 JUMP JUMPDEST PUSH1 0x40 MLOAD DUP1 SWAP2 SUB SWAP1 RETURN JUMPDEST CALLVALUE DUP1 ISZERO PUSH2 0x1DB JUMPI PUSH1 0x0 DUP1 REVERT JUMPDEST POP PUSH2 0x1E4 PUSH2 0x32A JUMP JUMPDEST PUSH1 0x40 MLOAD PUSH2 0x1F1 SWAP2 SWAP1 PUSH2 0x3AC JUMP JUMPDEST PUSH1 0x40 MLOAD DUP1 SWAP2 SUB SWAP1 RETURN JUMPDEST CALLVALUE DUP1 ISZERO PUSH2 0x206 JUMPI PUSH1 0x0 DUP1 REVERT JUMPDEST POP PUSH2 0x20F PUSH2 0x381 JUMP JUMPDEST PUSH1 0x40 MLOAD PUSH2 0x21C SWAP2 SWAP1 PUSH2 0x3AC JUMP JUMPDEST PUSH1 0x40 MLOAD DUP1 SWAP2 SUB SWAP1 RETURN JUMPDEST CALLVALUE DUP1 ISZERO PUSH2 0x231 JUMPI PUSH1 0x0 DUP1 REVERT JUMPDEST POP PUSH2 0x23A PUSH2 0x387 JUMP JUMPDEST PUSH1 0x40 MLOAD PUSH2 0x247 SWAP2 SWAP1 PUSH2 0x3AC JUMP JUMPDEST PUSH1 0x40 MLOAD DUP1 SWAP2 SUB SWAP1 RETURN JUMPDEST CALLVALUE DUP1 ISZERO PUSH2 0x25C JUMPI PUSH1 0x0 DUP1 REVERT JUMPDEST POP PUSH2 0x265 PUSH2 0x38D JUMP JUMPDEST PUSH1 0x40 MLOAD PUSH2 0x272 SWAP2 SWAP1 PUSH2 0x3AC JUMP JUMPDEST PUSH1 0x40 MLOAD DUP1 SWAP2 SUB SWAP1 RETURN JUMPDEST CALLVALUE PUSH1 0x1 DUP2 SWAP1 SSTORE POP JUMP JUMPDEST PUSH1 0x0 SELFBALANCE SWAP1 POP SWAP1 JUMP JUMPDEST PUSH1 0x4 SLOAD DUP2 JUMP JUMPDEST PUSH1 0x6 PUSH1 0x0 SWAP1 SLOAD SWAP1 PUSH2 0x100 EXP SWAP1 DIV PUSH20 0xFFFFFFFFFFFFFFFFFFFFFFFFFFFFFFFFFFFFFFFF AND DUP2 JUMP JUMPDEST PUSH1 0x3 SLOAD DUP2 JUMP JUMPDEST CALLER PUSH1 0x0 DUP1 PUSH2 0x100 EXP DUP2 SLOAD DUP2 PUSH20 0xFFFFFFFFFFFFFFFFFFFFFFFFFFFFFFFFFFFFFFFF MUL NOT AND SWAP1 DUP4 PUSH20 0xFFFFFFFFFFFFFFFFFFFFFFFFFFFFFFFFFFFFFFFF AND MUL OR SWAP1 SSTORE POP JUMP JUMPDEST PUSH1 0x1 SLOAD DUP2 JUMP JUMPDEST PUSH1 0x0 DUP1 SLOAD SWAP1 PUSH2 0x100 EXP SWAP1 DIV PUSH20 0xFFFFFFFFFFFFFFFFFFFFFFFFFFFFFFFFFFFFFFFF AND DUP2 JUMP JUMPDEST PUSH1 0x0 DUP1 GAS SWAP1 POP PUSH1 0x0 PUSH1 0x1 SWAP1 POP PUSH1 0x0 PUSH1 0x1 SWAP1 POP JUMPDEST PUSH1 0x14 DUP2 LT ISZERO PUSH2 0x367 JUMPI DUP1 DUP3 PUSH2 0x352 SWAP2 SWAP1 PUSH2 0x452 JUMP JUMPDEST SWAP2 POP DUP1 DUP1 PUSH2 0x35F SWAP1 PUSH2 0x494 JUMP JUMPDEST SWAP2 POP POP PUSH2 0x33D JUMP JUMPDEST POP PUSH1 0x0 GAS SWAP1 POP DUP1 DUP4 PUSH2 0x379 SWAP2 SWAP1 PUSH2 0x4DC JUMP JUMPDEST SWAP4 POP POP POP POP SWAP1 JUMP JUMPDEST PUSH1 0x7 SLOAD DUP2 JUMP JUMPDEST PUSH1 0x2 SLOAD DUP2 JUMP JUMPDEST PUSH1 0x5 SLOAD DUP2 JUMP JUMPDEST PUSH1 0x0 DUP2 SWAP1 POP SWAP2 SWAP1 POP JUMP JUMPDEST PUSH2 0x3A6 DUP2 PUSH2 0x393 JUMP JUMPDEST DUP3 MSTORE POP POP JUMP JUMPDEST PUSH1 0x0 PUSH1 0x20 DUP3 ADD SWAP1 POP PUSH2 0x3C1 PUSH1 0x0 DUP4 ADD DUP5 PUSH2 0x39D JUMP JUMPDEST SWAP3 SWAP2 POP POP JUMP JUMPDEST PUSH1 0x0 PUSH20 0xFFFFFFFFFFFFFFFFFFFFFFFFFFFFFFFFFFFFFFFF DUP3 AND SWAP1 POP SWAP2 SWAP1 POP JUMP JUMPDEST PUSH1 0x0 PUSH2 0x3F2 DUP3 PUSH2 0x3C7 JUMP JUMPDEST SWAP1 POP SWAP2 SWAP1 POP JUMP JUMPDEST PUSH2 0x402 DUP2 PUSH2 0x3E7 JUMP JUMPDEST DUP3 MSTORE POP POP JUMP JUMPDEST PUSH1 0x0 PUSH1 0x20 DUP3 ADD SWAP1 POP PUSH2 0x41D PUSH1 0x0 DUP4 ADD DUP5 PUSH2 0x3F9 JUMP JUMPDEST SWAP3 SWAP2 POP POP JUMP JUMPDEST PUSH32 0x4E487B7100000000000000000000000000000000000000000000000000000000 PUSH1 0x0 MSTORE PUSH1 0x11 PUSH1 0x4 MSTORE PUSH1 0x24 PUSH1 0x0 REVERT JUMPDEST PUSH1 0x0 PUSH2 0x45D DUP3 PUSH2 0x393 JUMP JUMPDEST SWAP2 POP PUSH2 0x468 DUP4 PUSH2 0x393 JUMP JUMPDEST SWAP3 POP DUP3 DUP3 MUL PUSH2 0x476 DUP2 PUSH2 0x393 JUMP JUMPDEST SWAP2 POP DUP3 DUP3 DIV DUP5 EQ DUP4 ISZERO OR PUSH2 0x48D JUMPI PUSH2 0x48C PUSH2 0x423 JUMP JUMPDEST JUMPDEST POP SWAP3 SWAP2 POP POP JUMP JUMPDEST PUSH1 0x0 PUSH2 0x49F DUP3 PUSH2 0x393 JUMP JUMPDEST SWAP2 POP PUSH32 0xFFFFFFFFFFFFFFFFFFFFFFFFFFFFFFFFFFFFFFFFFFFFFFFFFFFFFFFFFFFFFFFF DUP3 SUB PUSH2 0x4D1 JUMPI PUSH2 0x4D0 PUSH2 0x423 JUMP JUMPDEST JUMPDEST PUSH1 0x1 DUP3 ADD SWAP1 POP SWAP2 SWAP1 POP JUMP JUMPDEST PUSH1 0x0 PUSH2 0x4E7 DUP3 PUSH2 0x393 JUMP JUMPDEST SWAP2 POP PUSH2 0x4F2 DUP4 PUSH2 0x393 JUMP JUMPDEST SWAP3 POP DUP3 DUP3 SUB SWAP1 POP DUP2 DUP2 GT ISZERO PUSH2 0x50A JUMPI PUSH2 0x509 PUSH2 0x423 JUMP JUMPDEST JUMPDEST SWAP3 SWAP2 POP POP JUMP INVALID LOG2 PUSH5 0x6970667358 0x22 SLT KECCAK256 PUSH5 0x6D60FAF80D CALLDATACOPY 0xF9 XOR 0xB0 0x26 BLOCKHASH 0x5E PUSH14 0xAB938DA4BC7FF5A7B788777CEA4B ADD JUMPI DUP15 PUSH22 0x64736F6C634300081100330000000000000000000000 "
				},
				"gasEstimates": {
					"creation": {
						"codeDepositCost": "270000",
						"executionCost": "159369",
						"totalCost": "429369"
					},
					"external": {
						"blockNumber()": "2518",
						"chainId()": "2495",
						"changeOwner()": "24521",
						"coinBase()": "2581",
						"diffculty()": "2474",
						"gasLimit()": "2539",
						"getBalance()": "362",
						"howMuchGas()": "infinite",
						"owner()": "2533",
						"sendEther()": "22234",
						"sentValue()": "2429",
						"timeNow()": "2517"
					}
				},
				"methodIdentifiers": {
					"blockNumber()": "57e871e7",
					"chainId()": "9a8a0592",
					"changeOwner()": "62a09477",
					"coinBase()": "4826c2be",
					"diffculty()": "220907f6",
					"gasLimit()": "f68016b7",
					"getBalance()": "12065fe0",
					"howMuchGas()": "997b3d83",
					"owner()": "8da5cb5b",
					"sendEther()": "0e29df22",
					"sentValue()": "6dcb8d84",
					"timeNow()": "d95660be"
				}
			},
			"storageLayout": {
				"storage": [
					{
						"astId": 3,
						"contract": "contracts/GlobalSolidityVariables.sol:GlobalVariables",
						"label": "owner",
						"offset": 0,
						"slot": "0",
						"type": "t_address"
					},
					{
						"astId": 5,
						"contract": "contracts/GlobalSolidityVariables.sol:GlobalVariables",
						"label": "sentValue",
						"offset": 0,
						"slot": "1",
						"type": "t_uint256"
					},
					{
						"astId": 88,
						"contract": "contracts/GlobalSolidityVariables.sol:GlobalVariables",
						"label": "timeNow",
						"offset": 0,
						"slot": "2",
						"type": "t_uint256"
					},
					{
						"astId": 92,
						"contract": "contracts/GlobalSolidityVariables.sol:GlobalVariables",
						"label": "blockNumber",
						"offset": 0,
						"slot": "3",
						"type": "t_uint256"
					},
					{
						"astId": 96,
						"contract": "contracts/GlobalSolidityVariables.sol:GlobalVariables",
						"label": "diffculty",
						"offset": 0,
						"slot": "4",
						"type": "t_uint256"
					},
					{
						"astId": 100,
						"contract": "contracts/GlobalSolidityVariables.sol:GlobalVariables",
						"label": "gasLimit",
						"offset": 0,
						"slot": "5",
						"type": "t_uint256"
					},
					{
						"astId": 104,
						"contract": "contracts/GlobalSolidityVariables.sol:GlobalVariables",
						"label": "coinBase",
						"offset": 0,
						"slot": "6",
						"type": "t_address"
					},
					{
						"astId": 108,
						"contract": "contracts/GlobalSolidityVariables.sol:GlobalVariables",
						"label": "chainId",
						"offset": 0,
						"slot": "7",
						"type": "t_uint256"
					}
				],
				"types": {
					"t_address": {
						"encoding": "inplace",
						"label": "address",
						"numberOfBytes": "20"
					},
					"t_uint256": {
						"encoding": "inplace",
						"label": "uint256",
						"numberOfBytes": "32"
					}
				}
			},
			"userdoc": {
				"kind": "user",
				"methods": {},
				"version": 1
			}
		}
	}
}