{
	"data": {
		"bytecode": {
			"linkReferences": {},
			"object": "60806040526040518060400160405280600481526020017f6279746500000000000000000000000000000000000000000000000000000000815250600090816200004a919062000361565b507f3232000000000000000000000000000000000000000000000000000000000000600160006101000a81548161ffff021916908360f01c02179055506040518060400160405280600681526020017f737472696e67000000000000000000000000000000000000000000000000000081525060029081620000cd9190620004ad565b506000600355348015620000e057600080fd5b5062000594565b600081519050919050565b7f4e487b7100000000000000000000000000000000000000000000000000000000600052604160045260246000fd5b7f4e487b7100000000000000000000000000000000000000000000000000000000600052602260045260246000fd5b600060028204905060018216806200016957607f821691505b6020821081036200017f576200017e62000121565b5b50919050565b60008190508160005260206000209050919050565b60006020601f8301049050919050565b600082821b905092915050565b600060088302620001e97fffffffffffffffffffffffffffffffffffffffffffffffffffffffffffffffff82620001aa565b620001f58683620001aa565b95508019841693508086168417925050509392505050565b6000819050919050565b6000819050919050565b6000620002426200023c62000236846200020d565b62000217565b6200020d565b9050919050565b6000819050919050565b6200025e8362000221565b620002766200026d8262000249565b848454620001b7565b825550505050565b600090565b6200028d6200027e565b6200029a81848462000253565b505050565b5b81811015620002c257620002b660008262000283565b600181019050620002a0565b5050565b601f8211156200031157620002db8162000185565b620002e6846200019a565b81016020851015620002f6578190505b6200030e62000305856200019a565b8301826200029f565b50505b505050565b600082821c905092915050565b6000620003366000198460080262000316565b1980831691505092915050565b600062000351838362000323565b9150826002028217905092915050565b6200036c82620000e7565b67ffffffffffffffff811115620003885762000387620000f2565b5b62000394825462000150565b620003a1828285620002c6565b600060209050601f831160018114620003d95760008415620003c4578287015190505b620003d0858262000343565b86555062000440565b601f198416620003e98662000185565b60005b828110156200041357848901518255600182019150602085019450602081019050620003ec565b868310156200043357848901516200042f601f89168262000323565b8355505b6001600288020188555050505b505050505050565b60008190508160005260206000209050919050565b601f821115620004a857620004728162000448565b6200047d846200019a565b810160208510156200048d578190505b620004a56200049c856200019a565b8301826200029f565b50505b505050565b620004b882620000e7565b67ffffffffffffffff811115620004d457620004d3620000f2565b5b620004e0825462000150565b620004ed8282856200045d565b600060209050601f83116001811462000525576000841562000510578287015190505b6200051c858262000343565b8655506200058c565b601f198416620005358662000448565b60005b828110156200055f5784890151825560018201915060208501945060208101905062000538565b868310156200057f57848901516200057b601f89168262000323565b8355505b6001600288020188555050505b505050505050565b61041280620005a46000396000f3fe608060405234801561001057600080fd5b50600436106100575760003560e01c80630adef3561461005c578063714718ef146100665780638f89df7a14610070578063a0fd71bd1461008e578063d84534ec146100ac575b600080fd5b6100646100ca565b005b61006e6100cc565b005b6100786100ce565b604051610085919061028d565b60405180910390f35b61009661015c565b6040516100a39190610304565b60405180910390f35b6100b46101ea565b6040516100c19190610361565b60405180910390f35b565b565b600080546100db906103ab565b80601f0160208091040260200160405190810160405280929190818152602001828054610107906103ab565b80156101545780601f1061012957610100808354040283529160200191610154565b820191906000526020600020905b81548152906001019060200180831161013757829003601f168201915b505050505081565b60028054610169906103ab565b80601f0160208091040260200160405190810160405280929190818152602001828054610195906103ab565b80156101e25780601f106101b7576101008083540402835291602001916101e2565b820191906000526020600020905b8154815290600101906020018083116101c557829003601f168201915b505050505081565b600160009054906101000a900460f01b81565b600081519050919050565b600082825260208201905092915050565b60005b8381101561023757808201518184015260208101905061021c565b60008484015250505050565b6000601f19601f8301169050919050565b600061025f826101fd565b6102698185610208565b9350610279818560208601610219565b61028281610243565b840191505092915050565b600060208201905081810360008301526102a78184610254565b905092915050565b600081519050919050565b600082825260208201905092915050565b60006102d6826102af565b6102e081856102ba565b93506102f0818560208601610219565b6102f981610243565b840191505092915050565b6000602082019050818103600083015261031e81846102cb565b905092915050565b60007fffff00000000000000000000000000000000000000000000000000000000000082169050919050565b61035b81610326565b82525050565b60006020820190506103766000830184610352565b92915050565b7f4e487b7100000000000000000000000000000000000000000000000000000000600052602260045260246000fd5b600060028204905060018216806103c357607f821691505b6020821081036103d6576103d561037c565b5b5091905056fea2646970667358221220c648ff0b40129c9f2eafecb0176023b5accd5711c6c3b360acd3a231723f6f9564736f6c63430008110033",
			"opcodes": "PUSH1 0x80 PUSH1 0x40 MSTORE PUSH1 0x40 MLOAD DUP1 PUSH1 0x40 ADD PUSH1 0x40 MSTORE DUP1 PUSH1 0x4 DUP2 MSTORE PUSH1 0x20 ADD PUSH32 0x6279746500000000000000000000000000000000000000000000000000000000 DUP2 MSTORE POP PUSH1 0x0 SWAP1 DUP2 PUSH3 0x4A SWAP2 SWAP1 PUSH3 0x361 JUMP JUMPDEST POP PUSH32 0x3232000000000000000000000000000000000000000000000000000000000000 PUSH1 0x1 PUSH1 0x0 PUSH2 0x100 EXP DUP2 SLOAD DUP2 PUSH2 0xFFFF MUL NOT AND SWAP1 DUP4 PUSH1 0xF0 SHR MUL OR SWAP1 SSTORE POP PUSH1 0x40 MLOAD DUP1 PUSH1 0x40 ADD PUSH1 0x40 MSTORE DUP1 PUSH1 0x6 DUP2 MSTORE PUSH1 0x20 ADD PUSH32 0x737472696E670000000000000000000000000000000000000000000000000000 DUP2 MSTORE POP PUSH1 0x2 SWAP1 DUP2 PUSH3 0xCD SWAP2 SWAP1 PUSH3 0x4AD JUMP JUMPDEST POP PUSH1 0x0 PUSH1 0x3 SSTORE CALLVALUE DUP1 ISZERO PUSH3 0xE0 JUMPI PUSH1 0x0 DUP1 REVERT JUMPDEST POP PUSH3 0x594 JUMP JUMPDEST PUSH1 0x0 DUP2 MLOAD SWAP1 POP SWAP2 SWAP1 POP JUMP JUMPDEST PUSH32 0x4E487B7100000000000000000000000000000000000000000000000000000000 PUSH1 0x0 MSTORE PUSH1 0x41 PUSH1 0x4 MSTORE PUSH1 0x24 PUSH1 0x0 REVERT JUMPDEST PUSH32 0x4E487B7100000000000000000000000000000000000000000000000000000000 PUSH1 0x0 MSTORE PUSH1 0x22 PUSH1 0x4 MSTORE PUSH1 0x24 PUSH1 0x0 REVERT JUMPDEST PUSH1 0x0 PUSH1 0x2 DUP3 DIV SWAP1 POP PUSH1 0x1 DUP3 AND DUP1 PUSH3 0x169 JUMPI PUSH1 0x7F DUP3 AND SWAP2 POP JUMPDEST PUSH1 0x20 DUP3 LT DUP2 SUB PUSH3 0x17F JUMPI PUSH3 0x17E PUSH3 0x121 JUMP JUMPDEST JUMPDEST POP SWAP2 SWAP1 POP JUMP JUMPDEST PUSH1 0x0 DUP2 SWAP1 POP DUP2 PUSH1 0x0 MSTORE PUSH1 0x20 PUSH1 0x0 KECCAK256 SWAP1 POP SWAP2 SWAP1 POP JUMP JUMPDEST PUSH1 0x0 PUSH1 0x20 PUSH1 0x1F DUP4 ADD DIV SWAP1 POP SWAP2 SWAP1 POP JUMP JUMPDEST PUSH1 0x0 DUP3 DUP3 SHL SWAP1 POP SWAP3 SWAP2 POP POP JUMP JUMPDEST PUSH1 0x0 PUSH1 0x8 DUP4 MUL PUSH3 0x1E9 PUSH32 0xFFFFFFFFFFFFFFFFFFFFFFFFFFFFFFFFFFFFFFFFFFFFFFFFFFFFFFFFFFFFFFFF DUP3 PUSH3 0x1AA JUMP JUMPDEST PUSH3 0x1F5 DUP7 DUP4 PUSH3 0x1AA JUMP JUMPDEST SWAP6 POP DUP1 NOT DUP5 AND SWAP4 POP DUP1 DUP7 AND DUP5 OR SWAP3 POP POP POP SWAP4 SWAP3 POP POP POP JUMP JUMPDEST PUSH1 0x0 DUP2 SWAP1 POP SWAP2 SWAP1 POP JUMP JUMPDEST PUSH1 0x0 DUP2 SWAP1 POP SWAP2 SWAP1 POP JUMP JUMPDEST PUSH1 0x0 PUSH3 0x242 PUSH3 0x23C PUSH3 0x236 DUP5 PUSH3 0x20D JUMP JUMPDEST PUSH3 0x217 JUMP JUMPDEST PUSH3 0x20D JUMP JUMPDEST SWAP1 POP SWAP2 SWAP1 POP JUMP JUMPDEST PUSH1 0x0 DUP2 SWAP1 POP SWAP2 SWAP1 POP JUMP JUMPDEST PUSH3 0x25E DUP4 PUSH3 0x221 JUMP JUMPDEST PUSH3 0x276 PUSH3 0x26D DUP3 PUSH3 0x249 JUMP JUMPDEST DUP5 DUP5 SLOAD PUSH3 0x1B7 JUMP JUMPDEST DUP3 SSTORE POP POP POP POP JUMP JUMPDEST PUSH1 0x0 SWAP1 JUMP JUMPDEST PUSH3 0x28D PUSH3 0x27E JUMP JUMPDEST PUSH3 0x29A DUP2 DUP5 DUP5 PUSH3 0x253 JUMP JUMPDEST POP POP POP JUMP JUMPDEST JUMPDEST DUP2 DUP2 LT ISZERO PUSH3 0x2C2 JUMPI PUSH3 0x2B6 PUSH1 0x0 DUP3 PUSH3 0x283 JUMP JUMPDEST PUSH1 0x1 DUP2 ADD SWAP1 POP PUSH3 0x2A0 JUMP JUMPDEST POP POP JUMP JUMPDEST PUSH1 0x1F DUP3 GT ISZERO PUSH3 0x311 JUMPI PUSH3 0x2DB DUP2 PUSH3 0x185 JUMP JUMPDEST PUSH3 0x2E6 DUP5 PUSH3 0x19A JUMP JUMPDEST DUP2 ADD PUSH1 0x20 DUP6 LT ISZERO PUSH3 0x2F6 JUMPI DUP2 SWAP1 POP JUMPDEST PUSH3 0x30E PUSH3 0x305 DUP6 PUSH3 0x19A JUMP JUMPDEST DUP4 ADD DUP3 PUSH3 0x29F JUMP JUMPDEST POP POP JUMPDEST POP POP POP JUMP JUMPDEST PUSH1 0x0 DUP3 DUP3 SHR SWAP1 POP SWAP3 SWAP2 POP POP JUMP JUMPDEST PUSH1 0x0 PUSH3 0x336 PUSH1 0x0 NOT DUP5 PUSH1 0x8 MUL PUSH3 0x316 JUMP JUMPDEST NOT DUP1 DUP4 AND SWAP2 POP POP SWAP3 SWAP2 POP POP JUMP JUMPDEST PUSH1 0x0 PUSH3 0x351 DUP4 DUP4 PUSH3 0x323 JUMP JUMPDEST SWAP2 POP DUP3 PUSH1 0x2 MUL DUP3 OR SWAP1 POP SWAP3 SWAP2 POP POP JUMP JUMPDEST PUSH3 0x36C DUP3 PUSH3 0xE7 JUMP JUMPDEST PUSH8 0xFFFFFFFFFFFFFFFF DUP2 GT ISZERO PUSH3 0x388 JUMPI PUSH3 0x387 PUSH3 0xF2 JUMP JUMPDEST JUMPDEST PUSH3 0x394 DUP3 SLOAD PUSH3 0x150 JUMP JUMPDEST PUSH3 0x3A1 DUP3 DUP3 DUP6 PUSH3 0x2C6 JUMP JUMPDEST PUSH1 0x0 PUSH1 0x20 SWAP1 POP PUSH1 0x1F DUP4 GT PUSH1 0x1 DUP2 EQ PUSH3 0x3D9 JUMPI PUSH1 0x0 DUP5 ISZERO PUSH3 0x3C4 JUMPI DUP3 DUP8 ADD MLOAD SWAP1 POP JUMPDEST PUSH3 0x3D0 DUP6 DUP3 PUSH3 0x343 JUMP JUMPDEST DUP7 SSTORE POP PUSH3 0x440 JUMP JUMPDEST PUSH1 0x1F NOT DUP5 AND PUSH3 0x3E9 DUP7 PUSH3 0x185 JUMP JUMPDEST PUSH1 0x0 JUMPDEST DUP3 DUP2 LT ISZERO PUSH3 0x413 JUMPI DUP5 DUP10 ADD MLOAD DUP3 SSTORE PUSH1 0x1 DUP3 ADD SWAP2 POP PUSH1 0x20 DUP6 ADD SWAP5 POP PUSH1 0x20 DUP2 ADD SWAP1 POP PUSH3 0x3EC JUMP JUMPDEST DUP7 DUP4 LT ISZERO PUSH3 0x433 JUMPI DUP5 DUP10 ADD MLOAD PUSH3 0x42F PUSH1 0x1F DUP10 AND DUP3 PUSH3 0x323 JUMP JUMPDEST DUP4 SSTORE POP JUMPDEST PUSH1 0x1 PUSH1 0x2 DUP9 MUL ADD DUP9 SSTORE POP POP POP JUMPDEST POP POP POP POP POP POP JUMP JUMPDEST PUSH1 0x0 DUP2 SWAP1 POP DUP2 PUSH1 0x0 MSTORE PUSH1 0x20 PUSH1 0x0 KECCAK256 SWAP1 POP SWAP2 SWAP1 POP JUMP JUMPDEST PUSH1 0x1F DUP3 GT ISZERO PUSH3 0x4A8 JUMPI PUSH3 0x472 DUP2 PUSH3 0x448 JUMP JUMPDEST PUSH3 0x47D DUP5 PUSH3 0x19A JUMP JUMPDEST DUP2 ADD PUSH1 0x20 DUP6 LT ISZERO PUSH3 0x48D JUMPI DUP2 SWAP1 POP JUMPDEST PUSH3 0x4A5 PUSH3 0x49C DUP6 PUSH3 0x19A JUMP JUMPDEST DUP4 ADD DUP3 PUSH3 0x29F JUMP JUMPDEST POP POP JUMPDEST POP POP POP JUMP JUMPDEST PUSH3 0x4B8 DUP3 PUSH3 0xE7 JUMP JUMPDEST PUSH8 0xFFFFFFFFFFFFFFFF DUP2 GT ISZERO PUSH3 0x4D4 JUMPI PUSH3 0x4D3 PUSH3 0xF2 JUMP JUMPDEST JUMPDEST PUSH3 0x4E0 DUP3 SLOAD PUSH3 0x150 JUMP JUMPDEST PUSH3 0x4ED DUP3 DUP3 DUP6 PUSH3 0x45D JUMP JUMPDEST PUSH1 0x0 PUSH1 0x20 SWAP1 POP PUSH1 0x1F DUP4 GT PUSH1 0x1 DUP2 EQ PUSH3 0x525 JUMPI PUSH1 0x0 DUP5 ISZERO PUSH3 0x510 JUMPI DUP3 DUP8 ADD MLOAD SWAP1 POP JUMPDEST PUSH3 0x51C DUP6 DUP3 PUSH3 0x343 JUMP JUMPDEST DUP7 SSTORE POP PUSH3 0x58C JUMP JUMPDEST PUSH1 0x1F NOT DUP5 AND PUSH3 0x535 DUP7 PUSH3 0x448 JUMP JUMPDEST PUSH1 0x0 JUMPDEST DUP3 DUP2 LT ISZERO PUSH3 0x55F JUMPI DUP5 DUP10 ADD MLOAD DUP3 SSTORE PUSH1 0x1 DUP3 ADD SWAP2 POP PUSH1 0x20 DUP6 ADD SWAP5 POP PUSH1 0x20 DUP2 ADD SWAP1 POP PUSH3 0x538 JUMP JUMPDEST DUP7 DUP4 LT ISZERO PUSH3 0x57F JUMPI DUP5 DUP10 ADD MLOAD PUSH3 0x57B PUSH1 0x1F DUP10 AND DUP3 PUSH3 0x323 JUMP JUMPDEST DUP4 SSTORE POP JUMPDEST PUSH1 0x1 PUSH1 0x2 DUP9 MUL ADD DUP9 SSTORE POP POP POP JUMPDEST POP POP POP POP POP POP JUMP JUMPDEST PUSH2 0x412 DUP1 PUSH3 0x5A4 PUSH1 0x0 CODECOPY PUSH1 0x0 RETURN INVALID PUSH1 0x80 PUSH1 0x40 MSTORE CALLVALUE DUP1 ISZERO PUSH2 0x10 JUMPI PUSH1 0x0 DUP1 REVERT JUMPDEST POP PUSH1 0x4 CALLDATASIZE LT PUSH2 0x57 JUMPI PUSH1 0x0 CALLDATALOAD PUSH1 0xE0 SHR DUP1 PUSH4 0xADEF356 EQ PUSH2 0x5C JUMPI DUP1 PUSH4 0x714718EF EQ PUSH2 0x66 JUMPI DUP1 PUSH4 0x8F89DF7A EQ PUSH2 0x70 JUMPI DUP1 PUSH4 0xA0FD71BD EQ PUSH2 0x8E JUMPI DUP1 PUSH4 0xD84534EC EQ PUSH2 0xAC JUMPI JUMPDEST PUSH1 0x0 DUP1 REVERT JUMPDEST PUSH2 0x64 PUSH2 0xCA JUMP JUMPDEST STOP JUMPDEST PUSH2 0x6E PUSH2 0xCC JUMP JUMPDEST STOP JUMPDEST PUSH2 0x78 PUSH2 0xCE JUMP JUMPDEST PUSH1 0x40 MLOAD PUSH2 0x85 SWAP2 SWAP1 PUSH2 0x28D JUMP JUMPDEST PUSH1 0x40 MLOAD DUP1 SWAP2 SUB SWAP1 RETURN JUMPDEST PUSH2 0x96 PUSH2 0x15C JUMP JUMPDEST PUSH1 0x40 MLOAD PUSH2 0xA3 SWAP2 SWAP1 PUSH2 0x304 JUMP JUMPDEST PUSH1 0x40 MLOAD DUP1 SWAP2 SUB SWAP1 RETURN JUMPDEST PUSH2 0xB4 PUSH2 0x1EA JUMP JUMPDEST PUSH1 0x40 MLOAD PUSH2 0xC1 SWAP2 SWAP1 PUSH2 0x361 JUMP JUMPDEST PUSH1 0x40 MLOAD DUP1 SWAP2 SUB SWAP1 RETURN JUMPDEST JUMP JUMPDEST JUMP JUMPDEST PUSH1 0x0 DUP1 SLOAD PUSH2 0xDB SWAP1 PUSH2 0x3AB JUMP JUMPDEST DUP1 PUSH1 0x1F ADD PUSH1 0x20 DUP1 SWAP2 DIV MUL PUSH1 0x20 ADD PUSH1 0x40 MLOAD SWAP1 DUP2 ADD PUSH1 0x40 MSTORE DUP1 SWAP3 SWAP2 SWAP1 DUP2 DUP2 MSTORE PUSH1 0x20 ADD DUP3 DUP1 SLOAD PUSH2 0x107 SWAP1 PUSH2 0x3AB JUMP JUMPDEST DUP1 ISZERO PUSH2 0x154 JUMPI DUP1 PUSH1 0x1F LT PUSH2 0x129 JUMPI PUSH2 0x100 DUP1 DUP4 SLOAD DIV MUL DUP4 MSTORE SWAP2 PUSH1 0x20 ADD SWAP2 PUSH2 0x154 JUMP JUMPDEST DUP3 ADD SWAP2 SWAP1 PUSH1 0x0 MSTORE PUSH1 0x20 PUSH1 0x0 KECCAK256 SWAP1 JUMPDEST DUP2 SLOAD DUP2 MSTORE SWAP1 PUSH1 0x1 ADD SWAP1 PUSH1 0x20 ADD DUP1 DUP4 GT PUSH2 0x137 JUMPI DUP3 SWAP1 SUB PUSH1 0x1F AND DUP3 ADD SWAP2 JUMPDEST POP POP POP POP POP DUP2 JUMP JUMPDEST PUSH1 0x2 DUP1 SLOAD PUSH2 0x169 SWAP1 PUSH2 0x3AB JUMP JUMPDEST DUP1 PUSH1 0x1F ADD PUSH1 0x20 DUP1 SWAP2 DIV MUL PUSH1 0x20 ADD PUSH1 0x40 MLOAD SWAP1 DUP2 ADD PUSH1 0x40 MSTORE DUP1 SWAP3 SWAP2 SWAP1 DUP2 DUP2 MSTORE PUSH1 0x20 ADD DUP3 DUP1 SLOAD PUSH2 0x195 SWAP1 PUSH2 0x3AB JUMP JUMPDEST DUP1 ISZERO PUSH2 0x1E2 JUMPI DUP1 PUSH1 0x1F LT PUSH2 0x1B7 JUMPI PUSH2 0x100 DUP1 DUP4 SLOAD DIV MUL DUP4 MSTORE SWAP2 PUSH1 0x20 ADD SWAP2 PUSH2 0x1E2 JUMP JUMPDEST DUP3 ADD SWAP2 SWAP1 PUSH1 0x0 MSTORE PUSH1 0x20 PUSH1 0x0 KECCAK256 SWAP1 JUMPDEST DUP2 SLOAD DUP2 MSTORE SWAP1 PUSH1 0x1 ADD SWAP1 PUSH1 0x20 ADD DUP1 DUP4 GT PUSH2 0x1C5 JUMPI DUP3 SWAP1 SUB PUSH1 0x1F AND DUP3 ADD SWAP2 JUMPDEST POP POP POP POP POP DUP2 JUMP JUMPDEST PUSH1 0x1 PUSH1 0x0 SWAP1 SLOAD SWAP1 PUSH2 0x100 EXP SWAP1 DIV PUSH1 0xF0 SHL DUP2 JUMP JUMPDEST PUSH1 0x0 DUP2 MLOAD SWAP1 POP SWAP2 SWAP1 POP JUMP JUMPDEST PUSH1 0x0 DUP3 DUP3 MSTORE PUSH1 0x20 DUP3 ADD SWAP1 POP SWAP3 SWAP2 POP POP JUMP JUMPDEST PUSH1 0x0 JUMPDEST DUP4 DUP2 LT ISZERO PUSH2 0x237 JUMPI DUP1 DUP3 ADD MLOAD DUP2 DUP5 ADD MSTORE PUSH1 0x20 DUP2 ADD SWAP1 POP PUSH2 0x21C JUMP JUMPDEST PUSH1 0x0 DUP5 DUP5 ADD MSTORE POP POP POP POP JUMP JUMPDEST PUSH1 0x0 PUSH1 0x1F NOT PUSH1 0x1F DUP4 ADD AND SWAP1 POP SWAP2 SWAP1 POP JUMP JUMPDEST PUSH1 0x0 PUSH2 0x25F DUP3 PUSH2 0x1FD JUMP JUMPDEST PUSH2 0x269 DUP2 DUP6 PUSH2 0x208 JUMP JUMPDEST SWAP4 POP PUSH2 0x279 DUP2 DUP6 PUSH1 0x20 DUP7 ADD PUSH2 0x219 JUMP JUMPDEST PUSH2 0x282 DUP2 PUSH2 0x243 JUMP JUMPDEST DUP5 ADD SWAP2 POP POP SWAP3 SWAP2 POP POP JUMP JUMPDEST PUSH1 0x0 PUSH1 0x20 DUP3 ADD SWAP1 POP DUP2 DUP2 SUB PUSH1 0x0 DUP4 ADD MSTORE PUSH2 0x2A7 DUP2 DUP5 PUSH2 0x254 JUMP JUMPDEST SWAP1 POP SWAP3 SWAP2 POP POP JUMP JUMPDEST PUSH1 0x0 DUP2 MLOAD SWAP1 POP SWAP2 SWAP1 POP JUMP JUMPDEST PUSH1 0x0 DUP3 DUP3 MSTORE PUSH1 0x20 DUP3 ADD SWAP1 POP SWAP3 SWAP2 POP POP JUMP JUMPDEST PUSH1 0x0 PUSH2 0x2D6 DUP3 PUSH2 0x2AF JUMP JUMPDEST PUSH2 0x2E0 DUP2 DUP6 PUSH2 0x2BA JUMP JUMPDEST SWAP4 POP PUSH2 0x2F0 DUP2 DUP6 PUSH1 0x20 DUP7 ADD PUSH2 0x219 JUMP JUMPDEST PUSH2 0x2F9 DUP2 PUSH2 0x243 JUMP JUMPDEST DUP5 ADD SWAP2 POP POP SWAP3 SWAP2 POP POP JUMP JUMPDEST PUSH1 0x0 PUSH1 0x20 DUP3 ADD SWAP1 POP DUP2 DUP2 SUB PUSH1 0x0 DUP4 ADD MSTORE PUSH2 0x31E DUP2 DUP5 PUSH2 0x2CB JUMP JUMPDEST SWAP1 POP SWAP3 SWAP2 POP POP JUMP JUMPDEST PUSH1 0x0 PUSH32 0xFFFF000000000000000000000000000000000000000000000000000000000000 DUP3 AND SWAP1 POP SWAP2 SWAP1 POP JUMP JUMPDEST PUSH2 0x35B DUP2 PUSH2 0x326 JUMP JUMPDEST DUP3 MSTORE POP POP JUMP JUMPDEST PUSH1 0x0 PUSH1 0x20 DUP3 ADD SWAP1 POP PUSH2 0x376 PUSH1 0x0 DUP4 ADD DUP5 PUSH2 0x352 JUMP JUMPDEST SWAP3 SWAP2 POP POP JUMP JUMPDEST PUSH32 0x4E487B7100000000000000000000000000000000000000000000000000000000 PUSH1 0x0 MSTORE PUSH1 0x22 PUSH1 0x4 MSTORE PUSH1 0x24 PUSH1 0x0 REVERT JUMPDEST PUSH1 0x0 PUSH1 0x2 DUP3 DIV SWAP1 POP PUSH1 0x1 DUP3 AND DUP1 PUSH2 0x3C3 JUMPI PUSH1 0x7F DUP3 AND SWAP2 POP JUMPDEST PUSH1 0x20 DUP3 LT DUP2 SUB PUSH2 0x3D6 JUMPI PUSH2 0x3D5 PUSH2 0x37C JUMP JUMPDEST JUMPDEST POP SWAP2 SWAP1 POP JUMP INVALID LOG2 PUSH5 0x6970667358 0x22 SLT KECCAK256 0xC6 BASEFEE SELFDESTRUCT SIGNEXTEND BLOCKHASH SLT SWAP13 SWAP16 0x2E 0xAF 0xEC 0xB0 OR PUSH1 0x23 0xB5 0xAC 0xCD JUMPI GT 0xC6 0xC3 0xB3 PUSH1 0xAC 0xD3 LOG2 BALANCE PUSH19 0x3F6F9564736F6C634300081100330000000000 "
		},
		"gasEstimates": {
			"creation": {
				"codeDepositCost": "208400",
				"executionCost": "infinite",
				"totalCost": "infinite"
			},
			"external": {
				"addElementToByte()": "122",
				"addElementToString()": "144",
				"byteOne()": "infinite",
				"byteTwo()": "2537",
				"stringOne()": "infinite"
			}
		},
		"methodIdentifiers": {
			"addElementToByte()": "0adef356",
			"addElementToString()": "714718ef",
			"byteOne()": "8f89df7a",
			"byteTwo()": "d84534ec",
			"stringOne()": "a0fd71bd"
		}
	},
	"abi": [
		{
			"inputs": [],
			"name": "addElementToByte",
			"outputs": [],
			"stateMutability": "nonpayable",
			"type": "function"
		},
		{
			"inputs": [],
			"name": "addElementToString",
			"outputs": [],
			"stateMutability": "nonpayable",
			"type": "function"
		},
		{
			"inputs": [],
			"name": "byteOne",
			"outputs": [
				{
					"internalType": "bytes",
					"name": "",
					"type": "bytes"
				}
			],
			"stateMutability": "view",
			"type": "function"
		},
		{
			"inputs": [],
			"name": "byteTwo",
			"outputs": [
				{
					"internalType": "bytes2",
					"name": "",
					"type": "bytes2"
				}
			],
			"stateMutability": "view",
			"type": "function"
		},
		{
			"inputs": [],
			"name": "stringOne",
			"outputs": [
				{
					"internalType": "string",
					"name": "",
					"type": "string"
				}
			],
			"stateMutability": "view",
			"type": "function"
		}
	]
}