{
	"data": {
		"bytecode": {
			"linkReferences": {},
			"object": "6080604052600a600055601460015534801561001a57600080fd5b506101d38061002a6000396000f3fe608060405234801561001057600080fd5b50600436106100625760003560e01c80630b7f1665146100675780630c55699c146100855780633a32b549146100a35780637a644830146100c15780638a21234f146100df578063ca0b5ad9146100fd575b600080fd5b61006f61011b565b60405161007c9190610182565b60405180910390f35b61008d610125565b60405161009a9190610182565b60405180910390f35b6100ab61012b565b6040516100b89190610182565b60405180910390f35b6100c9610134565b6040516100d69190610182565b60405180910390f35b6100e7610143565b6040516100f49190610182565b60405180910390f35b610105610148565b6040516101129190610182565b60405180910390f35b6000600154905090565b60005481565b60008054905090565b600061013e610157565b905090565b600090565b6000610152610160565b905090565b60008054905090565b60008054905090565b6000819050919050565b61017c81610169565b82525050565b60006020820190506101976000830184610173565b9291505056fea26469706673582212200e5f054b5ed035f63f4e1e1b8b59b403808b74ccc84fe74dbdaff9978aa8683564736f6c63430008110033",
			"opcodes": "PUSH1 0x80 PUSH1 0x40 MSTORE PUSH1 0xA PUSH1 0x0 SSTORE PUSH1 0x14 PUSH1 0x1 SSTORE CALLVALUE DUP1 ISZERO PUSH2 0x1A JUMPI PUSH1 0x0 DUP1 REVERT JUMPDEST POP PUSH2 0x1D3 DUP1 PUSH2 0x2A PUSH1 0x0 CODECOPY PUSH1 0x0 RETURN INVALID PUSH1 0x80 PUSH1 0x40 MSTORE CALLVALUE DUP1 ISZERO PUSH2 0x10 JUMPI PUSH1 0x0 DUP1 REVERT JUMPDEST POP PUSH1 0x4 CALLDATASIZE LT PUSH2 0x62 JUMPI PUSH1 0x0 CALLDATALOAD PUSH1 0xE0 SHR DUP1 PUSH4 0xB7F1665 EQ PUSH2 0x67 JUMPI DUP1 PUSH4 0xC55699C EQ PUSH2 0x85 JUMPI DUP1 PUSH4 0x3A32B549 EQ PUSH2 0xA3 JUMPI DUP1 PUSH4 0x7A644830 EQ PUSH2 0xC1 JUMPI DUP1 PUSH4 0x8A21234F EQ PUSH2 0xDF JUMPI DUP1 PUSH4 0xCA0B5AD9 EQ PUSH2 0xFD JUMPI JUMPDEST PUSH1 0x0 DUP1 REVERT JUMPDEST PUSH2 0x6F PUSH2 0x11B JUMP JUMPDEST PUSH1 0x40 MLOAD PUSH2 0x7C SWAP2 SWAP1 PUSH2 0x182 JUMP JUMPDEST PUSH1 0x40 MLOAD DUP1 SWAP2 SUB SWAP1 RETURN JUMPDEST PUSH2 0x8D PUSH2 0x125 JUMP JUMPDEST PUSH1 0x40 MLOAD PUSH2 0x9A SWAP2 SWAP1 PUSH2 0x182 JUMP JUMPDEST PUSH1 0x40 MLOAD DUP1 SWAP2 SUB SWAP1 RETURN JUMPDEST PUSH2 0xAB PUSH2 0x12B JUMP JUMPDEST PUSH1 0x40 MLOAD PUSH2 0xB8 SWAP2 SWAP1 PUSH2 0x182 JUMP JUMPDEST PUSH1 0x40 MLOAD DUP1 SWAP2 SUB SWAP1 RETURN JUMPDEST PUSH2 0xC9 PUSH2 0x134 JUMP JUMPDEST PUSH1 0x40 MLOAD PUSH2 0xD6 SWAP2 SWAP1 PUSH2 0x182 JUMP JUMPDEST PUSH1 0x40 MLOAD DUP1 SWAP2 SUB SWAP1 RETURN JUMPDEST PUSH2 0xE7 PUSH2 0x143 JUMP JUMPDEST PUSH1 0x40 MLOAD PUSH2 0xF4 SWAP2 SWAP1 PUSH2 0x182 JUMP JUMPDEST PUSH1 0x40 MLOAD DUP1 SWAP2 SUB SWAP1 RETURN JUMPDEST PUSH2 0x105 PUSH2 0x148 JUMP JUMPDEST PUSH1 0x40 MLOAD PUSH2 0x112 SWAP2 SWAP1 PUSH2 0x182 JUMP JUMPDEST PUSH1 0x40 MLOAD DUP1 SWAP2 SUB SWAP1 RETURN JUMPDEST PUSH1 0x0 PUSH1 0x1 SLOAD SWAP1 POP SWAP1 JUMP JUMPDEST PUSH1 0x0 SLOAD DUP2 JUMP JUMPDEST PUSH1 0x0 DUP1 SLOAD SWAP1 POP SWAP1 JUMP JUMPDEST PUSH1 0x0 PUSH2 0x13E PUSH2 0x157 JUMP JUMPDEST SWAP1 POP SWAP1 JUMP JUMPDEST PUSH1 0x0 SWAP1 JUMP JUMPDEST PUSH1 0x0 PUSH2 0x152 PUSH2 0x160 JUMP JUMPDEST SWAP1 POP SWAP1 JUMP JUMPDEST PUSH1 0x0 DUP1 SLOAD SWAP1 POP SWAP1 JUMP JUMPDEST PUSH1 0x0 DUP1 SLOAD SWAP1 POP SWAP1 JUMP JUMPDEST PUSH1 0x0 DUP2 SWAP1 POP SWAP2 SWAP1 POP JUMP JUMPDEST PUSH2 0x17C DUP2 PUSH2 0x169 JUMP JUMPDEST DUP3 MSTORE POP POP JUMP JUMPDEST PUSH1 0x0 PUSH1 0x20 DUP3 ADD SWAP1 POP PUSH2 0x197 PUSH1 0x0 DUP4 ADD DUP5 PUSH2 0x173 JUMP JUMPDEST SWAP3 SWAP2 POP POP JUMP INVALID LOG2 PUSH5 0x6970667358 0x22 SLT KECCAK256 0xE 0x5F SDIV 0x4B 0x5E 0xD0 CALLDATALOAD 0xF6 EXTCODEHASH 0x4E 0x1E SHL DUP12 MSIZE 0xB4 SUB DUP1 DUP12 PUSH21 0xCCC84FE74DBDAFF9978AA8683564736F6C63430008 GT STOP CALLER "
		},
		"gasEstimates": {
			"creation": {
				"codeDepositCost": "93400",
				"executionCost": "44353",
				"totalCost": "137753"
			},
			"external": {
				"externalFunction()": "2459",
				"getExternalFunction()": "395",
				"getInternalFunction()": "2516",
				"getPrivateFunction()": "2560",
				"getY()": "2415",
				"x()": "2429"
			},
			"internal": {
				"internalFunction()": "2123",
				"privateFunction()": "2123"
			}
		},
		"methodIdentifiers": {
			"externalFunction()": "3a32b549",
			"getExternalFunction()": "8a21234f",
			"getInternalFunction()": "7a644830",
			"getPrivateFunction()": "ca0b5ad9",
			"getY()": "0b7f1665",
			"x()": "0c55699c"
		}
	},
	"abi": [
		{
			"inputs": [],
			"name": "externalFunction",
			"outputs": [
				{
					"internalType": "int256",
					"name": "",
					"type": "int256"
				}
			],
			"stateMutability": "view",
			"type": "function"
		},
		{
			"inputs": [],
			"name": "getExternalFunction",
			"outputs": [
				{
					"internalType": "int256",
					"name": "",
					"type": "int256"
				}
			],
			"stateMutability": "view",
			"type": "function"
		},
		{
			"inputs": [],
			"name": "getInternalFunction",
			"outputs": [
				{
					"internalType": "int256",
					"name": "",
					"type": "int256"
				}
			],
			"stateMutability": "view",
			"type": "function"
		},
		{
			"inputs": [],
			"name": "getPrivateFunction",
			"outputs": [
				{
					"internalType": "int256",
					"name": "",
					"type": "int256"
				}
			],
			"stateMutability": "view",
			"type": "function"
		},
		{
			"inputs": [],
			"name": "getY",
			"outputs": [
				{
					"internalType": "int256",
					"name": "",
					"type": "int256"
				}
			],
			"stateMutability": "view",
			"type": "function"
		},
		{
			"inputs": [],
			"name": "x",
			"outputs": [
				{
					"internalType": "int256",
					"name": "",
					"type": "int256"
				}
			],
			"stateMutability": "view",
			"type": "function"
		}
	]
}